:100000000C94B8130C94E9130C94E9130C94E913B1
:100010000C94E9130C94E9130C94E9130C94E91370
:100020000C94E9130C94B0860C94A6860C9442862A
:100030000C94E9130C94E9130C94E9130C94E91350
:100040000C94E9130C942D730C94E9130C94E9139C
:100050000C94E9130C94E9130C946FB10C94A34C19
:100060000C94E9130C94823B0C94E9130C94E9135F
:100070000C94E9130C94E9130C94E9130C94E91310
:100080000C94E9130C94E9130C94E9130C94E91300
:100090000C94743B0C94E9130C94E9130C94E9133D
:1000A0000C94E9130C94E9130C94E9130C94E913E0
:1000B0000C94E9130C94E9130C94E9130C94E913D0
:1000C0000C94E9130C94E9130C94E9130C94C73BBA
:1000D0000C94E9130C94E9130C94663B0C94E9130B
:1000E0000C94E913A83EBD421545BD4755477647D8
:1000F00041474147BD47BD47BD47BD47BD47BD47D8
:10010000BD47BD479747A047A947B747BA47B53E40
:10011000BE3EC23EC83ED23EDC3EE63EBD47FA3E53
:10012000043F0D3F163F293F2F3F5A3F723FBD47C7
:10013000BD47BD478F3F953FB03FBD47C73FBD4718
:10014000BD47BD47BD476741C241BD47BD47BD47EC
:10015000BD47BD471D4226422F42384241424A42D6
:100160005C425342BD47BD47BD47BD47BD47BD4744
:100170006542F03E70427E42BD478C429D42AE4297
:10018000BD47BD47BD47BD47BD47BD47BD47F63F1E
:10019000FA3FFE3FD840FF40EE3FF23FA54AA84A53
:1001A000974A9B4AA14ADF4AAC4AB04AB64ABA4A81
:1001B000BE4AC44AC84ACC4ADF4AD24AD64ADA4A78
:1001C000BF4BC44BC94BD34BDD4B564CE74BEF4BAE
:1001D000F74B014C0B4C154C244C2E4C564C384CC8
:1001E000424C4C4C084AD73B3BCE016E84BCBFFD11
:1001F000C12F3D6C74319ABD56833DDA3D00C77FF7
:1002000011BED9E4BB4C3E916BAAAABE000000808F
:100210003F05A84CCDB2D44EB93836A9020C50B91E
:10022000918688083CA6AAAA2ABE000000803F004A
:10023000434F4D4D554E49434154494F4E00445252
:100240005952554E004552524F525300494E464F57
:10025000004543484F0047322F47332062616420F6
:10026000706172616D65746572730A004D657368C3
:1002700020706F696E742063616E6E6F74206265AA
:10028000207265736F6C7665640A00456E64206643
:10029000696C65206C6973740A00426567696E2039
:1002A00066696C65206C6973740A0046696C652028
:1002B00064656C657465643A0044656C6574696F67
:1002C0006E206661696C65642C2046696C653A2015
:1002D000006F70656E206661696C65642C204669EC
:1002E0006C653A20002569730025696D20256973C6
:1002F000002569682025696D2025697300256964DA
:10030000202569682025696D202569730025697994
:1003100020256964202569682025696D2025697379
:10032000005072696E742074696D653A20005072D5
:100330006F7465637465642050696E0A0051024CE5
:100340000245023E0230026F666600444542554750
:100350003A004B494C4C45442E20004D313133205E
:1003600053006F6B004469666665723A20004672FE
:100370006F6D5374703A00537465707065723A0013
:10038000556E4C6576656C3A004C6576656C6564B7
:100390003A00556E4C6576656C3A004C6576656C36
:1003A00065643A005261773A20202020000A4C6FA1
:1003B000676963616C3A004361703A454D45524745
:1003C000454E43595F5041525345523A300A00431B
:1003D00061703A434153455F4C494748545F42522C
:1003E000494748544E4553533A300A004361703AE6
:1003F000544F47474C455F4C49474854533A300A9D
:10040000004361703A534F4654574152455F504F35
:100410005745523A300A004361703A4C4556454CB4
:10042000494E475F444154413A310A004361703AB2
:100430005A5F50524F42453A310A004361703A4187
:1004400055544F4C4556454C3A310A004361703A79
:100450005052494E545F4A4F423A310A004361704C
:100460003A50524F47524553533A300A0043617055
:100470003A4155544F5245504F52545F54454D5098
:100480003A310A004361703A454550524F4D3A3176
:100490000A004649524D574152455F4E414D453A3B
:1004A0004D61726C696E20312E312E3420284769DF
:1004B000746875622920534F555243455F434F443A
:1004C000455F55524C3A68747470733A2F2F6769C0
:1004D000746875622E636F6D2F4D61726C696E4624
:1004E00069726D776172652F4D61726C696E205013
:1004F000524F544F434F4C5F56455253494F4E3A1B
:10050000312E30204D414348494E455F54595045A6
:100510003A4933504C55532045585452554445524E
:100520005F434F554E543A3120555549443A63651F
:100530006465326132662D343161322D343734389E
:100540002D396231322D63353563363266333637B5
:1005500066660A007A5F6D696E3A2000795F6D69A0
:100560006E3A2000785F6D696E3A20005265706FB8
:100570007274696E6720656E6473746F7020737433
:10058000617475730A00205A002059005800202019
:100590004D61783A2000205A002059005800202050
:1005A0004D696E3A20004F6E20004F666600536F13
:1005B000667420656E6473746F70733A2000000176
:1005C0003D3E3C36FF40410218FF43454206FFFFD7
:1005D000FF0305FFFFFF3A3B39FFFF034404FF37EA
:1005E000FFFFFFFFFFFF20643A0020693A00207000
:1005F0003A0023646566696E65202044454641558E
:100600004C545F4B64200023646566696E6520204E
:1006100044454641554C545F4B6920002364656650
:10062000696E65202044454641554C545F4B70200F
:1006300000504944204175746F74756E6520666979
:100640006E69736865642120507574207468652034
:100650006C617374204B702C204B6920616E642098
:100660004B6420636F6E7374616E74732066726F77
:100670006D2062656C6F7720696E746F20436F6EBA
:1006800066696775726174696F6E2E680A005049F9
:1006900044204175746F74756E65206661696C6580
:1006A00064212074696D656F757400504944204160
:1006B00075746F74756E65206661696C6564212060
:1006C00074696D656F75740A0050494420417574F2
:1006D0006F74756E65206661696C65642120546570
:1006E0006D706572617475726520746F6F206869D2
:1006F000676800504944204175746F74756E6520B9
:100700006661696C6564212054656D706572617401
:1007100075726520746F6F20686967680A00204BE6
:10072000643A2000204B693A2000204B703A2000A8
:100730000A20436C617373696320504944200A00A6
:100740002054753A2000204B753A2000206D6178C6
:100750003A2000206D696E3A200020643A20002083
:10076000626961733A2000426564204C6576656C6D
:10077000696E6720004661696C656420746F20654E
:100780006E61626C6520426564204C6576656C69BB
:100790006E670A005041555345205052494E54202F
:1007A000444F4E450A00455845204C434420494E8D
:1007B000534552542046494C414D454E54320A004F
:1007C000455845204C434420494E534552542046F9
:1007D000494C414D454E54310A0020202020202014
:1007E0002046696C616D656E742072756E6F7574EC
:1007F00034210A496E736572742066696C616D6597
:100800006E7420616E6420707265737320627574FB
:10081000746F6E20746F20636F6E74696E75652ED1
:100820000A2057616974696E6720666F7220636879
:10083000616E67696E672066696C616D656E742EA6
:10084000002020202020202046696C616D656E7498
:100850002072756E6F757433210A57616974206652
:100860006F722066696C616D656E7420756E6C6F59
:1008700061642E002020202020202046696C616DBC
:10088000656E742072756E6F757432210A576169D6
:100890007420666F72207374617274206F662066B4
:1008A000696C616D656E74206368616E67652E00AA
:1008B0005741495420464F522052454C4F41442005
:1008C000444F4E450A002020202020202046696CFD
:1008D000616D656E742072756E6F757436210A498C
:1008E0006E736572742066696C616D656E742061EB
:1008F0006E6420707265737320627574746F6E20FD
:10090000746F20636F6E74696E75652E0A2057616F
:100910006974696E6720666F72206368616E6769CB
:100920006E672066696C616D656E742E00202020F4
:100930002020202046696C616D656E742072756E92
:100940006F757435210A546865206E6F7A7A6C650C
:100950002068617320636F6F6C20646F776E2C70FA
:100960007265737320627574746F6E20746F207279
:10097000656865617420746865206E6F7A7A6C654D
:100980002E00455845205741495420464F52204695
:10099000494C414D454E542052454C4F41440A006C
:1009A00020202046696C616D656E742072756E6FD3
:1009B00075743131210A5761697420666F72207035
:1009C00072696E7420746F20726573756D652E0088
:1009D0004348414E4745204F5054494F4E533A00EB
:1009E0002020202020202046696C616D656E7420D7
:1009F00072756E6F757439210A5761697420666F5C
:100A0000722066696C616D656E74206578747275AC
:100A100064652E0045584520524553554D45205795
:100A2000414954205741495420574149540A002014
:100A300020202020202046696C616D656E74207234
:100A4000756E6F757438210A5761697420666F720C
:100A50002066696C616D656E74206C6F61642E0038
:100A60002020202020202046696C616D656E742056
:100A700072756E6F757437210A496E7365727420D2
:100A800066696C616D656E7420616E64207072655C
:100A9000737320627574746F6E20746F20636F6E51
:100AA00074696E75652E0A2057616974696E6720D6
:100AB000666F72206368616E67696E672066696C35
:100AC000616D656E742E0045584520524553554D55
:100AD00045205052494E540A00556E6B6E6F776E2A
:100AE00020636F6D6D616E643A202200207A3A00B7
:100AF00020793A00783A00656E7175657565696EA2
:100B0000672022004E6F204C696E65204E756D6225
:100B10006572207769746820636865636B73756DAF
:100B20002C204C617374204C696E653A20004B494F
:100B30004C4C45442E20005072696E7465722073CF
:100B4000746F707065642064756520746F206572C1
:100B5000726F72732E204669782074686520657202
:100B6000726F7220616E6420757365204D3939395A
:100B700020746F20726573746172742E202854651E
:100B80006D7065726174757265206973207265732A
:100B900065742E20536574206974206166746572D3
:100BA0002072657374617274696E67290A004E6FF2
:100BB00020436865636B73756D2077697468206C7A
:100BC000696E65206E756D6265722C204C61737460
:100BD000204C696E653A2000636865636B73756DC0
:100BE000206D69736D617463682C204C617374208F
:100BF0004C696E653A20004C696E65204E756D62D9
:100C00006572206973206E6F74204C617374204C80
:100C1000696E65204E756D6265722B312C204C61BA
:100C20007374204C696E653A20004D313130004DAF
:100C30003331004D383420582059205A2045005374
:100C4000442072656164206572726F720A00446F9D
:100C50006E65207072696E74696E672066696C6576
:100C60000A0020496E76616C69642065787472753B
:100C70006465722000000000000000000000000019
:100C8000000000C8430000C8430000C84342696C2C
:100C9000696E656172204C6576656C696E67204788
:100CA0007269643A0A005344206361726420726579
:100CB0006D6F7665642E0053442063617264206911
:100CC0006E7365727465642E00546172676574207A
:100CD00066696C65206F70656E206661696C2E00B8
:100CE00052656672657368206F6B2E0A007A7072A7
:100CF0006F62655F7A6F666673657420636F6D6699
:100D000069726D3A007A70726F62655F7A6F6666BB
:100D10007365743A000A4C6576656C696E67206984
:100D20007320696E2070726F67726573732E004D49
:100D3000353030004732380047323900473238000A
:100D40000A4C6576656C696E6720697320696E2050
:100D500070726F67726573732E004D393939206F69
:100D60006B2E0A0047323820583020593000473265
:100D700038205A3000473238205930004732382066
:100D800058300047323800556E6B6E6F776E2E000C
:100D90004D353030004B494C4C45442E2000202D21
:100DA00020496E76616C696420657874727564653B
:100DB00072206E756D626572202100202D20496EB3
:100DC00076616C6964206578747275646572206EF2
:100DD000756D62657220210A002020506C616E6E74
:100DE000657242756666657242797465733A200071
:100DF0002046726565204D656D6F72793A2000431B
:100E00006F6D70696C65643A204A756C20323620CB
:100E1000323031380A00207C20417574686F723A94
:100E200020286E6F6E652C2064656661756C742079
:100E3000636F6E666967290A00323031372D3037AB
:100E40002D30342031323A303000204C6173742020
:100E5000557064617465643A2000312E312E340A75
:100E6000004D61726C696E0020536F667477617219
:100E7000652052657365740A002057617463686465
:100E80006F672052657365740A002042726F776E37
:100E9000206F75742052657365740A00204578745C
:100EA00065726E616C2052657365740A00506F77CD
:100EB000657255700A0073746172740A006572720B
:100EC0006F722077726974696E6720746F2066692B
:100ED0006C650A00205A3A0020593A0020583A001E
:100EE000656E6473746F7073206869743A20005380
:100EF000544F50207072696E74696E670A004D6FAE
:100F000076652061776179204F4B2E0A004D6F7610
:100F1000652061776179205820592E0A004D6F763F
:100F200065206177617920582C592E2E2E00537937
:100F30007374656D2073746F7020666F72207368B0
:100F40007574646F776E2E00446F6E6520736176E2
:100F5000696E672066696C652E0A004D3239004D56
:100F60003530300000007042000070420000204226
:100F700000000000457874727564650052657375F1
:100F80006D65006274643A0062693A0000002100F5
:100F9000240027002A002D0030003300010100004A
:100FA000040107010A0100002200250028002B008F
:100FB0002E003100340002010000050108010B0180
:100FC000000020002300260029002C002F00320002
:100FD00000010000030106010901050505050705DB
:100FE00008080808020202020A0A080804040404A5
:100FF00001010101010101010303030303030303D1
:10100000040707070C0C0C0C0C0C0C0C020202025F
:1010100006060606060606060B0B0B0B0B0B0B0B48
:1010200001021020200808102040102040800201FA
:1010300002010804020101020408102040808040DF
:1010400020100804020180040201804020100804DE
:10105000020108040201010204081020408001027C
:1010600004081020408000000A0B02090C0D0E0835
:101070000703040100000000000000000000000061
:101080000000000000000000000000000000000060
:10109000000012111000000000000000000000001D
:1010A0000000000000000000000000007C3C3E5EEC
:1010B0002B3D3F2F5B5D3B2C2A225C004572726FFB
:1010C000722077726974696E6720746F204545508D
:1010D000524F4D210A00290A002062797465733B42
:1010E00020637263200053657474696E67732053C4
:1010F000746F726564202800202863616C63756CCE
:101100006174656429210A0020213D200045455075
:10111000524F4D20435243206D69736D6174636873
:10112000202D202873746F726564292000290A001D
:101130002062797465733B206372632000207374AE
:101140006F7265642073657474696E67732072656D
:1011500074726965766564202800204D61726C693F
:101160006E3D563037290A0028454550524F4D3DB7
:1011700000454550524F4D2076657273696F6E2061
:101180006D69736D61746368200020706F7369749A
:10119000696F6E206F7574206F662072616E67656F
:1011A0002E0A003F50726F626520002066697273DC
:1011B000740A005A0059005800486F6D6520004DB0
:1011C0006172747269782073617665206F6B2E0A84
:1011D0000052756E6E696E6720696E204452592DFB
:1011E00052554E206D6F64650A00473239204175B3
:1011F000746F20426564204C6576656C696E670A81
:101200000028422961636B00284629726F6E7400C2
:101210002852296967687400284C29656674003F64
:101220002856296572626F7365206C6576656C203F
:10123000697320696D706C61757369626C652028D3
:10124000302D34292E0A00426164205A2076616CC8
:1012500075650A004E6F2062696C696E6561722067
:10126000677269640A00205A3A200020593A200027
:1012700042656420583A2000202020202046696CD6
:10128000616D656E742072756E6F757431210A2000
:101290002020202048656174696E67206E6F7A7A1D
:1012A0006C650A2020202020506C656173652077D2
:1012B0006169742E2E2E005344207072696E746919
:1012C0006E67206279746520004E6F74205344204D
:1012D0007072696E74696E670A00202F00204240A8
:1012E0003A0020403A0020573A0024F4D43050C34A
:1012F0008E20C2A24017828B7011127A910D816CE0
:10130000D90AA861E108C7586607615143061E4B18
:101310005D05C145A7041A411104093D98037139BF
:1013200031034036DB0265339102D4305402802E03
:101330001D02632CEE01752AC501B028A0011027FB
:1013400081018F2564012B244B01E0223401AC2163
:101350001F018D200D01801FFC00841EED00971DD4
:10136000DF00B81CD200E61BC600201BBC00641ABC
:10137000B200B219A8000A19A0006A189900D11782
:10138000910040178B00B516840031167E00B3150E
:1013900079003A157300C7146F0058146A00EE13F1
:1013A00066008813630025135E00C7125B006C1291
:1013B000570015125400C111510070114F00211136
:1013C0004B00D61049008D10470046104400021013
:1013D0004200C00F4000800F3E00420F3C00060F4D
:1013E0003B00CB0E3800930E37005C0E3500270E05
:1013F0003400F30D3200C10D3100900D3000600D4E
:101400002E00320D2D00050D2C00D90C2B00AE0C3A
:101410002900850C29005C0C2700350C27000E0CD8
:101420002600E80B2400C40B2400A00B23007D0B36
:1014300023005A0B2100390B2100180B2000F80A59
:101440001F00D90A1E00BB0A1E009D0A1D00800A4B
:101450001D00630A1C00470A1B002C0A1B00110A0E
:101460001A00F7091A00DD091900C4091900AB09AF
:101470001900920917007B091800630917004C092D
:10148000160036091600200916000A091500F5088D
:101490001500E0081400CC081400B8081400A408D3
:1014A0001400900813007D0812006B081300580800
:1014B0001200460812003408110023081100120817
:1014C000110001081100F0071000E0071000D0071C
:1014D0001000C0071000B0070F00A107100091070F
:1014E0000E0083070F0074070F0065070E005707F3
:1014F0000E0049070E003B070D002E070E002007C7
:101500000D0013070D0006070D00F9060C00ED068F
:101510000D00E0060C00D4060C00C8060C00BC064A
:101520000C00B0060C00A4060B0099060C008D06FA
:101530000B0082060B0077060B006C060B006106A1
:101540000A0057060B004C060A0042060A0038063D
:101550000A002E060A0024060A001A060A001006CF
:10156000090007060A00FD050900F4050900EB055E
:101570000900E2050900D9050900D0050900C705E1
:101580000900BE050900B5050800AD050800A50560
:1015900009009C050800940508008C0508008405D6
:1015A00008007C050800740508006C050700650547
:1015B00008005D050700560508004E0507004705B1
:1015C00007004005080038050700310507002A0517
:1015D0000700230507001C050600160507000F0578
:1015E00007000805060002050700FB040600F504D5
:1015F0000700EE040600E8040600E2040700DB042E
:101600000600D5040600CF040600C9040600C30482
:101610000600BD040600B7040600B1040500AC04D2
:101620000600A6040600A00405009B04060095041D
:101630000500900406008A04050085040500800466
:1016400006007A04050075040500700405006B04AB
:10165000050066040500610405005C0405005704EC
:101660000500520405004D0405004804050043042C
:1016700005003E0404003A0405003504050030046A
:1016800004002C04050027040400230405001E04A4
:1016900004001A04040016040500110404000D04DB
:1016A0000400090405000404040000040400FC0311
:1016B0000400F8030400F4030400F0030400EC0346
:1016C0000400E8030400E4030400E0030400DC0376
:1016D0000400D8030400D4030400D0030400CC03A6
:1016E0000400C8030300C503030024F404D9201B2D
:1016F000C40C5C0E9804C4095F0265077101F4050F
:10170000F900FB04B30048048700C10369005803D3
:10171000550003034500BE023A0084023100530223
:101720002A002902250004022000E4011C00C8014F
:101730001900AF0117009801140084011300710112
:1017400010006101100051010E0043010D0036012F
:101750000B002B010B0020010B00150109000C01EF
:10176000090003010800FB000800F3000800EB007B
:101770000700E4000600DE000600D8000600D200E4
:101780000600CC000500C7000500C2000500BD0032
:101790000400B9000400B5000400B1000400AD006D
:1017A0000400A9000400A5000300A20003009F009C
:1017B00004009B00030098000300950002009300C2
:1017C0000300900003008D0002008B0003008800DE
:1017D00002008600020084000300810002007F00F6
:1017E00002007D0002007B00020079000200770009
:1017F0000100760002007400020072000100710016
:1018000002006F0002006D0001006C0002006A001F
:101810000100690002006700010066000100650028
:10182000010064000200620001006100010060002C
:1018300001005F0002005D0001005C0001005B0030
:1018400001005A0001005900010058000100570032
:101850000100560001005500010054000100530032
:10186000000053000100520001005100010050002F
:1018700001004F0001004E0000004E0001004D002D
:1018800001004C0001004B0000004B0001004A0029
:101890000100490001004800000048000100470025
:1018A0000100460000004600010045000000450020
:1018B0000100440001004300000043000100420019
:1018C0000000420001004100000041000100400012
:1018D00001003F0000003F0001003E0000003E000C
:1018E00001003D0000003D0001003C0000003C0004
:1018F00000003C0001003B0000003B0001003A00FA
:1019000000003A00010039000000390001003800F1
:1019100000003800000038000100370000003700E8
:1019200001003600000036000000360001003500DE
:1019300000003500000035000100340000003400D4
:1019400000003400010033000000330000003300C9
:1019500001003200000032000000320001003100BE
:1019600000003100000031000100300000003000B4
:101970000000300001002F0000002F0000002F00A9
:1019800000002F0001002E0000002E0000002E009D
:1019900001002D0000002D0000002D0000002D0092
:1019A00001002C0000002C0000002C0000002C0086
:1019B00001002B0000002B0000002B0000002B007A
:1019C00001002A0000002A0000002A0000002A006E
:1019D0000100290000002900000029000000290062
:1019E0000000290001002800000028000000280055
:1019F0000000280000002800010027000000270048
:101A0000000027000000270000002700010026003A
:101A1000000026000000260000002600000026002E
:101A20000100250000002500000025000000250021
:101A30000000250000002500010024000000240013
:101A40000000240000002400000024000100230006
:101A500000002300000023000000230000002300FA
:101A600000002300000023000100220000002200EB
:101A700000002200000022000000220000002200DE
:101A800001002100000021000000210000002100D1
:101A900000002100000021000000210001002000C2
:101AA00000002000000020000000200000002000B6
:101AB00000002000000020000000200001001F00A6
:101AC00000001F0000001F0000001F0000001F009A
:101AD00000001F0000001F0001001E0000001E008B
:101AE00000001E0000001E0000004D383420582069
:101AF00059205A2045004E6F2063617365206C6940
:101B00006768740A00416374697665204578747269
:101B1000756465723A20004D31313033206F6B2E81
:101B20000A0053442072656164206572726F720A04
:101B300000206C653A00206C7A3A00206C793A00FB
:101B40006C783A00206C653A00206C7A3A00206C80
:101B5000793A006C783A00206C653A00206C7A3A49
:101B600000206C793A006C783A006D6F7665207AC7
:101B7000206178697320616E6420652061786973E3
:101B80002E0A00536420696E6974206661696C21B5
:101B900020536F2063616E277420726573756D65C5
:101BA000207072696E742E00536420696E6974200F
:101BB0006661696C212E0A536F2063616E27742061
:101BC000726573756D65207072696E742E004D318B
:101BD000313031206F6B2D2D005461726765742098
:101BE00066696C65206F70656E206661696C2E0099
:101BF0004E6F207072696E74206E65656465642E28
:101C0000004361726420696E6974206661696C00CA
:101C10004D31313031206661696C20666F7220630E
:101C200061726420696E6974206661696C2E0A00B5
:101C30005072696E7420636F6E74696E756520668C
:101C4000726F6D206C61737420627265616B2E0A15
:101C5000004E4F206E65656420746F20636F6E7454
:101C6000696E756520746F207072696E742E0A003B
:101C70004D31313032207374617475733A312046BE
:101C8000696C653A004D313130322073746174757E
:101C9000733A300A00526573656E643A20006F6BC8
:101CA00000627573793A2070617573656420666FA0
:101CB0007220696E7075740A00627573793A2070CB
:101CC000617573656420666F7220757365720A00B2
:101CD000627573793A2070726F63657373696E67AA
:101CE0000A004B494C4C45442E20004B696C6C203B
:101CF00063617573656420627920746F6F206D7500
:101D0000636820696E6163746976652074696D65C6
:101D10002E004B494C4C20636175736564206279D9
:101D200020746F6F206D75636820696E61637469DC
:101D300076652074696D65202D2063757272656EFD
:101D40007420636F6D6D616E643A20005072696E2D
:101D50007465722068616C7465642E206B696C6CAC
:101D600028292063616C6C6564210A0053617665E3
:101D700020656E7669726F6E6D656E74204F4B2EA6
:101D80002E2E005361766520656E7669726F6E6DDA
:101D9000656E74204F4B2E2E2E00506F776572208B
:101DA000627265616B210A00506F77657220627202
:101DB00065616B2100FFFFFF4D3234004D3233204F
:101DC0002573006175746F25692E67005344206385
:101DD000617264206F6B0A006F70656E526F6F7472
:101DE000206661696C65640A00766F6C756D652E9E
:101DF000696E6974206661696C65640A00534420E9
:101E0000696E6974206661696C0A00577269746949
:101E10006E6720746F2066696C653A20006F70658C
:101E20006E206661696C65642C2046696C653A2099
:101E3000006F70656E206661696C65642C20466970
:101E40006C653A200046696C652073656C65637447
:101E500065640A002053697A653A200046696C651A
:101E6000206F70656E65643A20006F70656E206645
:101E700061696C65642C2046696C653A20002066B7
:101E8000696C653A20004E6F7720002220706F73D6
:101E9000002220706172656E743A220053554252DE
:101EA0004F5554494E452043414C4C207461726754
:101EB00065743A22004B494C4C45442E2000547224
:101EC00079696E6720746F2063616C6C2073756232
:101ED0002D67636F64652066696C6573207769742C
:101EE0006820746F6F206D616E79206C6576656C0B
:101EF000732E00747279696E6720746F2063616C51
:101F00006C207375622D67636F64652066696C650C
:101F100073207769746820746F6F206D616E79200B
:101F20006C6576656C732E204D4158206C65766526
:101F30006C2069733A004572726F723A0043616EA9
:101F40006E6F74206F70656E2073756264697220A5
:101F5000006563686F3A00544845524D414C205229
:101F6000554E4157415900546865726D616C20525D
:101F7000756E617761790020573A00205A3A002047
:101F8000593A0020436F756E7420583A0020453A44
:101F900000205A3A0020593A00583A002F2F2000CA
:101FA00053657474696E672054726176656C204164
:101FB0006363656C65726174696F6E3A2000536586
:101FC0007474696E67205265747261637420416332
:101FD00063656C65726174696F6E3A200053657455
:101FE00074696E67205072696E7420416363656C1A
:101FF00065726174696F6E3A200053657474696E1E
:1020000067205072696E7420616E6420547261762C
:10201000656C20416363656C65726174696F6E3ACB
:1020200020004D65736820706F696E742063616E67
:102030006E6F74206265207265736F6C7665640ADA
:10204000004D34323120696E636F727265637420A3
:10205000706172616D657465722075736167650A80
:1020600000000000000000000000000000546F6F3E
:10207000206661722066726F6D207265666572659A
:102080006E636520706F696E740A00204A756C205B
:10209000323620323031382031363A33393A333023
:1020A00000646576656C6F00706572202D592E0096
:1020B000532E5A2E0061626C5F656E61626C6564BE
:1020C0000061626C5F64697361626C65003A200054
:1020D0007A5F6D696E3A20202D3230207A5F6D6113
:1020E000783A20203230005A204F6666736574209B
:1020F000004265642068656174206661696C2E0A1F
:1021000053797374656D2073746F702E0A506C650B
:102110006173652072657374617274206D616368A8
:10212000696E652E00457874727564657220686505
:102130006174206661696C2E0A53797374656D2031
:1021400073746F702E0A506C6561736520726573CD
:1021500074617274206D616368696E652E006265DA
:10216000640A002C2073797374656D2073746F702A
:1021700070656421204865617465725F49443A2046
:102180000048656174696E67206661696C6564000A
:1021900048656174696E67206661696C65640048B2
:1021A000656174696E67206661696C65642E0A53A7
:1021B000797374656D2073746F702E004865617457
:1021C000696E67206661696C656400486561746961
:1021D0006E67206661696C65640048656174696E4C
:1021E00067206661696C65642E0A53797374656D46
:1021F0002073746F702E0070012C0190012701B0C4
:10220000012201C0011D01F001180110021301306B
:10221000020E016002090190020401C002FF0000E9
:1022200003FA004003F5008003F000D003EB002028
:1022300004E6007004E100E004DC004005D700C0C3
:1022400005D2004006CD00D006C8008007C300308C
:1022500008BE00F008B900C009B400B00AAF00B071
:102260000BAA00D00CA500000EA000500F9B00C0D0
:102270001096005012910000148C00C0158700B019
:10228000178200B0197D00D01B7800001E7300403B
:10229000206E0090226900F024640040275F0090C7
:1022A000295A00E02B5500102E500020304B001012
:1022B000324600E033410090353C00103737007063
:1022C000383200A0392D00B03A2800A03B2300602E
:1022D0003C1E00103D1900903D1400103E0F007090
:1022E0003E0A00C03E0500003F0000403FFBFF806B
:1022F0003FF6FFC03FF1FF4572723A204D494E5400
:10230000454D5020424544004572723A204D494E99
:1023100054454D50004D494E54454D5020747269FE
:10232000676765726564004572723A204D41585482
:10233000454D5020424544004572723A204D415867
:1023400054454D50004D415854454D5020747269CC
:1023500067676572656400205A3A200020593A2068
:102360000042656420583A200048617264636F64DB
:1023700065642044656661756C7420536574746986
:102380006E6773204C6F616465640A00F40100009D
:10239000F401000064000000F40100000000964316
:1023A000000096430000A0400000C8410000A24287
:1023B0000000A2420040C8439A99BC4220204D38F8
:1023C0003531205A005A2D50726F6265204F666673
:1023D00073657420286D6D293A0A00204400204955
:1023E0000020204D33303120500050494420736587
:1023F0007474696E67733A0A002046002042002018
:10240000480020204D3134352053004D61746572F1
:1024100069616C2068656174757020706172616DAE
:1024200065746572733A0A0020204D3432302053AF
:10243000004175746F20426564204C6576656C6957
:102440006E673A0A00205A0020590020204D323091
:1024500036205800486F6D65206F66667365743A64
:102460000A00204500205A00205900205800204230
:102470000020540020204D32303520530041647636
:10248000616E6365643A20533C6D696E5F66656595
:1024900064726174653E20543C6D696E5F74726154
:1024A00076656C5F66656564726174653E20423C6A
:1024B0006D696E5F7365676D656E745F74696D6578
:1024C0005F6D733E20583C6D61785F78795F6A6517
:1024D000726B3E205A3C6D61785F7A5F6A65726B01
:1024E0003E20453C6D61785F655F6A65726B3E0AB0
:1024F0000020540020520020204D32303420500063
:10250000416363656C65726174696F6E2028756ED6
:102510006974732F7332293A20503C7072696E745B
:102520005F616363656C3E20523C726574726163E7
:10253000745F616363656C3E20543C7472617665C0
:102540006C5F616363656C3E0A00204500205A00A1
:1025500020590020204D3230312058004D617869DB
:102560006D756D20416363656C65726174696F6E32
:102570002028756E6974732F7332293A0A0020453A
:1025800000205A0020590020204D323033205800BE
:102590004D6178696D756D206665656472617465FD
:1025A000732028756E6974732F73293A0A002045C9
:1025B00000205A0020590020204D39322058005365
:1025C000746570732070657220756E69743A0A00C4
:1025D00020204D3230302044300A0020204D32304F
:1025E000302044002044697361626C65640A0046CF
:1025F000696C616D656E742073657474696E677360
:102600003A0020204D3134392043203B20556E695B
:10261000747320696E2043656C736975730A0020BA
:1026200020473231202020203B20556E69747320D2
:10263000696E206D6D0A004E414E494E495459490C
:102640004E46CDCCCC3D0AD7233C17B7D13877CCFA
:102650002B329595E6241FB14F0A0000204100005F
:10266000C84200401C4620BCBE4CCA1B0E5AAEC518
:102670009D7400407A10F35A00A0724E18090010A1
:10268000A5D4E80000E87648170000E40B540200E7
:1026900000CA9A3B000000E1F50500008096980012
:1026A000000040420F000000A0860100000010273B
:1026B00000000000E80300000000640000000000CB
:1026C0000A00000000000100000000002C76D888FD
:1026D000DC674F0823DFC1DFAE59E1B1B796E5E310
:1026E000E453C63AE651997696E8E6C28426EB8929
:1026F0008C9B62ED407C6FFCEFBC9C9F40F2BAA5C6
:102700006FA5F490055A2AF75C936B6CF9676DC15D
:102710001BFCE0E40D47FEF520E6B500D0ED902E61
:102720000300943577050080841E080000204E0ABF
:10273000000000C80C333333330F986E12831141FD
:10274000EF8D2114893BE65516CFFEE6DB18D184C8
:102750004B381BF77C1D901DA4BBE42420328472EF
:102760005E228100C9F124ECA1E53D27DACEB9CE85
:1027700011241FBECFEFD1E2DEBFCDBF00E00CBF02
:1027800013E0A0E0B2E0E2E4FFEB01E00BBF02C027
:1027900007900D92A63AB107D9F724E1A6EAB3E073
:1027A00001C01D92A832B207E1F713E1C7EBD3E1F4
:1027B00000E006C021970109802FFE010E94E2CFB0
:1027C000C63BD10780E00807A9F70E9421C80C94F6
:1027D0008FDF0C9400002F923F924F925F926F9286
:1027E0007F928F929F92AF92BF92CF92DF92EF92A1
:1027F000FF920F931F93CF93DF93CDB7DEB7CE5ADF
:10280000D1090FB6F894DEBF0FBECDBFE0916206CE
:1028100020E4E29FF0011124EE59FB4F80818130CA
:1028200091F4BF016F5F7F4F80E090E0DB014D913D
:10283000BD019C012252304FD9014C930196843046
:102840009105A1F708C01092DE0F1092DF0F1092D1
:10285000E00F1092E10F10828581181614F080931A
:1028600000028F010A5F1F4F8091E20F80FF2EC090
:10287000E1E5FFE184917F01BFEFEB1AFB0A8823BA
:1028800021F00E943436F701F5CF809100020E94BA
:1028900034368AE00E943436E1E5FFE184917F011D
:1028A0002FEFE21AF20A811102C0780104C00E94DF
:1028B0003436F701F3CFD7018D917D01882319F0CC
:1028C0000E943436F8CF8AE00E94343681E090E0EE
:1028D0009093950D8093940DC8010E9451C08091F2
:1028E0000C148D3409F4ECC3843511F40C94152BBD
:1028F000873411F00C941A2B80910A1490910B14C8
:102900008D31910509F474C2C4F48430910544F406
:10291000823091050CF055C097FF47C00C94342BC2
:102920008430910509F426C24C9711F00C94342B95
:1029300080E00E948D350C94342B8A32910509F485
:10294000EEC214F58E31910509F456C2829711F04A
:102950000C94342B6091150470E084EF9AE00E948F
:10296000517A6091160470E080EF9AE00E94517AEB
:102970006091170470E08CEE9AE00E94517A8AE030
:102980000E9434360C94342B8B35910509F438C2EF
:102990008C35910509F439C28A35910511F00C94F2
:1029A000342B1092B9030C94342B809103028823AA
:1029B00011F40C94342B0E94AF340E94D2890C94F1
:1029C000342B20910302222311F40C94342B11E0B8
:1029D000029709F010E00E94AF3419821A821B821C
:1029E0001C821D821E821F82188682E50E94A334EB
:1029F000882309F470C10E9441346B017C0120914D
:102A00004B1330914C1340914D1350914E13E3965C
:102A10002CAF3DAF4EAF5FAFE39780904F139090D8
:102A20005013A0905113B0905213809111149091B3
:102A30001214A0911314B0911414E7968CAF9DAFAB
:102A4000AEAFBFAFE79720911514309116144091A7
:102A5000171450911814EB962CAF3DAF4EAF5FAFEB
:102A6000EB9720E030E0A901C701B6010E9414D91C
:102A7000882309F446C1E3962CAD3DAD4EAD5FAD64
:102A8000E397E7966CAD7DAD8EAD9FADE7970E9465
:102A900014D981110DC0A5019401EB966CAD7DADEB
:102AA0008EAD9FADEB970E9414D9882309F429C1FC
:102AB00020E030E0A901C701B6010E9414D9881FA7
:102AC0008827881F18130DC080E090E0A0E8BFE3BE
:102AD000C957DF4F88839983AA83BB83C758D040E7
:102AE0000CC020E030E040E85FEBC957DF4F28839F
:102AF00039834A835B83C758D040E3962CAD3DAD04
:102B00004EAD5FADE397E7966CAD7DAD8EAD9FADFD
:102B1000E7970E94EACFC158DF4F688379838A83A1
:102B20009B83CF57D040A5019401EB966CAD7DAD52
:102B30008EAD9FADEB970E94EACFCD57DF4F6883F4
:102B400079838A839B83C358D040C158DF4F288143
:102B500039814A815B81CF57D040CA01B9010E94B7
:102B600079D92B013C01CD57DF4F288139814A812A
:102B70005B81C358D040CA01B9010E9479D99B0139
:102B8000AC01C301B2010E94EBCF0E947DD2EF964F
:102B90006CAF7DAF8EAF9FAFEF9720E030E040E0AD
:102BA0005FE30E9479D92B013C01A7019601C7017F
:102BB000B6010E9479D96B017C01A3019201C30186
:102BC000B2010E9479D99B01AC01C701B6010E94F4
:102BD000EACF0E947DD29B01AC01C957DF4F6881CB
:102BE00079818A819B81C758D0400E9479D96B0135
:102BF0007C01E7962CAD3DAD4EAD5FADE797E3961A
:102C00006CAD7DAD8EAD9FADE3970E94EBCF20E024
:102C100030E040E05FE30E9479D92B013C01CD57C1
:102C2000DF4F688179818A819B81C358D040905859
:102C3000EF962CAD3DAD4EAD5FADEF970E94D8D075
:102C40009B01AC01C701B6010E9479D99B01AC017F
:102C5000C301B2010E94EBCFE3962CAD3DAD4EAD6A
:102C60005FADE3970E94EACF69837A838B839C836D
:102C7000EB962CAD3DAD4EAD5FADEB97C501B4010C
:102C80000E94EBCF20E030E040E05FE30E9479D982
:102C90002B013C01EF962CAD3DAD4EAD5FADEF97F6
:102CA000C158DF4F688179818A819B81CF57D0409D
:102CB0000E94D8D09B01AC01C701B6010E9479D90E
:102CC0009B01AC01C301B2010E94EBCFA5019401AD
:102CD0000E94EACF12C089E40E94A334882331F015
:102CE0000E94413469837A838B839C838AE40E94A7
:102CF000A334882331F00E9441346D837E838F8317
:102D0000988720E030E0A90169817A818B819C81DC
:102D10000E9414D981110BC020E030E0A9016D811F
:102D20007E818F8198850E9414D9882349F0612F74
:102D3000CE0101960E9437C20E944A350C94342B72
:102D4000E6E3FFE184918F010F5F1F4F882321F09D
:102D50000E943436F801F6CFE6E5F2E084918F0167
:102D60000F5F1F4F882311F40C94342B0E943436CC
:102D7000F801F4CF80E50E94A334882329F00E9453
:102D800001346B017C0103C0C12CD12C760183E599
:102D90000E94A334882361F00E94413420E030E097
:102DA0004AE754E40E9479D90E944FD16B017C011B
:102DB0000E94D0720E944A3580919C0D90919D0D89
:102DC000A0919E0DB0919F0DC80ED91EEA1EFB1E4C
:102DD0000E94974CDC01CB018C199D09AE09BF09FB
:102DE000B7FD02C00C94342B80E00E94FC86F0CF2B
:102DF0000E94216C0C94342B0E94216B0C94342B78
:102E000081E08093B9030C94342B85E40E94A334B1
:102E1000B82E811102C00E94D072F9E78F2EF2E025
:102E20009F2EABE4CA2EA3E1DA2EB6EAEB2EB3E076
:102E3000FB2E00E010E0A12CD4018D914D010E94E9
:102E4000A334882309F44EC0F601208131814281E8
:102E50005381C555DF4F2883CB5AD040C455DF4F2F
:102E60003883CC5AD040C355DF4F4883CD5AD04029
:102E7000C255DF4F5883CE5AD0400E944134D6010C
:102E80006D937D938D939C931397C555DF4F288148
:102E9000CB5AD040C455DF4F3881CC5AD040C355AF
:102EA000DF4F4881CD5AD040C255DF4F5881CE5AAE
:102EB000D04003301105B1F00E94EACF9B01AC0174
:102EC000F70160817181828193810E94EBCFD701EC
:102ED0006D937D938D939C931397C8010E94083343
:102EE000AA24A3940F5F1F4FB4E0CB0ED11CE4E0E3
:102EF000EE0EF11C0430110509F09ECFAA2019F046
:102F00000E94BA3308C0BB2031F067E573E183E06B
:102F100090E00E944C940E94B8AA0C94342B8091AB
:102F20000302882311F40C94342B89E40E94A33407
:102F3000182F882321F00E941134E62E01C0E12CC5
:102F40008AE40E94A334F82E882331F00E941134C1
:102F5000062F111104C00BC000E01123B9F0F9E0F5
:102F6000FE1510F00C941D2FECE6F2E003C00830C3
:102F7000D8F70CC084918F010F5F1F4F882311F485
:102F80000C94342B0E943436F801F4CF0E94A83000
:102F9000112341F120912C0830912D084E2D420330
:102FA000B001439F700D1124209128083091290809
:102FB000620F731F072E000C880B990B0E941AD901
:102FC00020915B1330915C1340915D1350915E131F
:102FD0000E94EBCF6093111470931214809313141A
:102FE00090931414FF2039F120912E0830912F086E
:102FF0000203B001039F700D112480912A08909163
:103000002B08680F791F072E000C880B990B0E9464
:103010001AD920915F133091601340916113509140
:1030200062130E94EBCF6093151470931614809373
:1030300017149093181480E50E9474348823E1F0EB
:103040000E9432348823C1F01123B1F020E030E037
:1030500040E751E46091111470911214809113149F
:10306000909114140E94EACF60931114709312147B
:10307000809313149093141486E40E94A33488233D
:10308000D9F00E9441346B017C0120E030E0A901BD
:103090000E9434D2181684F420E030E040E752E475
:1030A000C701B6010E94D8D060936E0270936F0280
:1030B00080937002909371020E94D2890C94342BF9
:1030C00020910A1430910B142637310511F40C9419
:1030D000A4220CF0DBC02C34310509F40FC50CF030
:1030E00072C02831310509F4A9C2E4F52231310555
:1030F00009F4B0C68CF437FF02C00C94342B223094
:1031000031050CF4C8C12131310511F00C94342B78
:103110000E9481890C94342B2531310509F484C235
:1031200044F42431310511F00C94342BEAE9F2E037
:1031300038C22631310509F47BC22731310511F03F
:103140000C94342B40E061E08091081490910914B4
:103150000E94A08E67E370E187EE93E00E9437D370
:103160000C94342B2E31310509F48BC2CCF42A3166
:10317000310509F474C20CF46CC22B31310509F429
:103180007CC22C31310511F00C94342B40E060E00E
:1031900080910814909109140E94A08E0C94342BF5
:1031A0002032310509F484C30CF4C5C32A32310539
:1031B00009F464C42B34310511F00C94342B0E94B3
:1031C000A1B60C94342B2A36310509F4FCC5B4F5AC
:1031D0002435310509F43EC6E4F42135310509F4FE
:1031E00023C64CF42D34310511F00C94342B0E947D
:1031F00031A40C94342B2235310509F427C623352C
:10320000310511F00C94342B81E08093B8030C94B9
:10321000342B2C35310509F46FC634F425353105CE
:1032200009F44FC60C94342B2836310509F46AC4CE
:103230002936310509F452C50C94342B2F3631054B
:1032400009F492C484F42C36310509F4F9C40CF461
:10325000D9C52D36310509F487C52E36310509F457
:1032600070C40C94342B2137310509F4F5C40CF4E7
:10327000EBC42237310509F4C8C62337310511F0F4
:103280000C94342BE2E9F4E00C941422203951E040
:10329000350711F40C94D5280CF076C02C3C310580
:1032A00011F40C949C23CCF52B39310509F433C56A
:1032B0009CF42837310511F40C940E2314F40C946B
:1032C000A8222937310511F40C9415232C38310527
:1032D00009F4EEC40C94342B283C310511F40C9401
:1032E0001B2334F42E3B310509F459C50C94342BBF
:1032F000293C310511F40C9464232B3C310511F069
:103300000C94342B1FEAE12E16E0F12E09E712E0AF
:1033100084E0D82ED00E0C948C232D3D310511F471
:103320000C948E24A4F42E3C310511F40C94A223A9
:1033300014F40C949F23233D310511F40C94E923DC
:103340002C3D310511F40C9481240C94342B2D3236
:1033500091E0390711F40C94D1243CF4223E31055C
:1033600011F40C94A7240C94342B2F32B1E03B07BA
:1033700011F40C946F252336314011F00C94342B4A
:103380000E9478810C94342B273FF1E03F0711F421
:103390000C944529DCF5253A51E0350711F40C94DD
:1033A0003C29ACF4223991E0390711F40C94DC2863
:1033B00014F40C94D8282A39B1E03B0709F448C426
:1033C000243A314011F40C94E0280C94342B243F1F
:1033D000F1E03F0711F40C943F294CF42C3A3140B2
:1033E00011F00C94342B0E9477AB0C94342B253FB6
:1033F00081E0380711F40C944229263F314011F046
:103400000C94342B0E94DCBC0C94342B273EA3E09C
:103410003A0711F40C94DB2AECF42235E3E03E0782
:1034200011F40C9448293CF42835324011F40C94E2
:103430004E290C94342B233553E0350711F40C94AA
:103440004B29203A334011F00C94342B0E94C56A6A
:103450000C94342B2E3494E0390711F40C94DE2AAA
:103460004CF42D34344011F00C94342B0E94E67D42
:103470000C94342B2F34E4E03E0711F40C94E12A31
:10348000203B344011F00C94342BE0900814F09061
:1034900009140C94EA2A009108141091091480E58B
:1034A0000E94A334882361F00E9401346B017C01E7
:1034B000BB24B394672B682B692B31F4B12C04C067
:1034C000B12CC12CD12C760183E50E94A334882332
:1034D00099F00E94413420E030E04AE754E40E9431
:1034E00079D90E944FD16B017C01B1100CC0672BC0
:1034F000682B692B41F43BC0B11005C001151105C3
:1035000011F00C943B2B83E090E09093950D809309
:10351000940D81E08093F5030E94D0720E944A3599
:10352000C114D104E104F104A1F180919C0D9091AA
:103530009D0DA0919E0DB0919F0DC80ED91EEA1E43
:10354000FB1E0E94974CDC01CB018C199D09AE0932
:10355000BF09B7FD04C01092F5030C94342B809181
:10356000F5038823C1F380E00E94FC86EACF0115B1
:10357000110511F00C943B2B83E090E09093950D96
:103580008093940D81E08093F5030E94D0720E9495
:103590004A358091F5038823F1F280E00E94FC8691
:1035A000F8CF84918F010F5F1F4F882321F00E9475
:1035B0003436F801F6CF1092BA121092B91240E0E8
:1035C00050E0BA0184E890E10E940D568BE1E4E8F6
:1035D000F0E1DE01159601900D928A95E1F7809158
:1035E0008210909183109C838B8385EE92E09A8366
:1035F000898340E050E0BE016F5F7F4F86E993E032
:103600000E945DA5CE0101960E943A86EBE8F2E0A9
:1036100084918F010F5F1F4F882311F40C94342B7A
:103620000E943436F801F4CF0E94BB900C94342BE6
:1036300010923410109235100C94342B8091351068
:10364000882319F081E0809334100E94A1B60C9475
:10365000342B109234100E94E1B60C94342B8091DC
:103660003510882311F40C94342B83E50E94A33485
:1036700081110C945B2B0C94342B0E94D06A0C9417
:10368000342B80913510882311F40C94342B85E66B
:1036900090E10E94CA5585E690E10E94465710923B
:1036A000331010923210E0900814F09009148091B9
:1036B0003510882311F40C94342B0E94D8A31D825A
:1036C00018861C821B8285EE92E09A83898380E8AB
:1036D00090E19093A01080939F10D7018C918F322E
:1036E00009F067C06FE270E0C7010E9423D38C012C
:1036F0000F5F1F4FFE0131964F010115110509F4AF
:103700005EC06FE270E0C8010E9423D36C01009795
:1037100009F456C00817190708F052C05C01A01A36
:10372000B10AA501B801CE0180960E944CD3E0E217
:10373000F0E0EC0FFD1FEA0DFB1D10828E01005E14
:103740001F4FD8018D918D01882319F00E943436C6
:10375000F8CF8AE00E94343660919F107091A010DB
:103760006115710511F06C5F7F4F21E0AE01405E85
:103770005F4FCE0105960E94295D811112C0BE01E6
:10378000605E7F4F81ED92E00E94BA938EE20E94CC
:1037900034368AE00E943436C4010E943A860C9482
:1037A000342B9092A01080929F1086010F5F1F4FC4
:1037B000A4CF81EA90E19093A01080939F1087019D
:1037C00060919F107091A0106115710511F06C5FF0
:1037D0007F4F18A21BA222E0A801CE0180960E9472
:1037E000295D811102C0F12C1EC0CE0180960E947D
:1037F00046A38823C1F36CA57DA58EA59FA541E0B6
:103800000E944567882379F3E8A9B0E2EB9FF001B5
:103810001124EE52F24F309731F385EE80831BA2D4
:103820000E940567F82ECE0180960E941E35FF206B
:1038300009F1EBEAF2E084917F012FEFE21AF20A3C
:10384000882321F00E943436F701F5CFD8018D91FD
:103850008D01882319F00E943436F8CF8AE00E9447
:1038600034361092B0121092B1121092B21210921D
:10387000B31218C0E9EBF2E084917F01BFEFEB1ABD
:10388000FB0A882321F00E943436F701F5CFF801B6
:1038900081918F01882319F00E943436F8CF8EE28F
:1038A0000E943436CE0101960E943A860C94342B45
:1038B0008091341081110E94D072E0900814F09031
:1038C000091480E50E947434182F882319F00E948F
:1038D0003234182F80913510882311F40C94342B36
:1038E000412F61E0C7010E94A08E83E50E94A334AE
:1038F000882381F00E941134AB01BC014093B012C7
:103900005093B1126093B2127093B31285E690E1B6
:103910000E940D5667E370E187EE93E00E9437D373
:1039200080913510882319F081E0809334101111B3
:103930000C94342B8ACE0E94FBA3ECE3CE2ED12C28
:10394000E12CF12CA70196010E9454DF762E672E00
:10395000CA01B901A70196010E9454DF6B017C01E5
:10396000CA01B90128E130E040E050E00E9454DF94
:103970004B015C01C9016DE671E00E949ECF8E0192
:103980000F5F1F4F6115710599F06F927F92DF9263
:10399000CF929F928F929F938F937F936F938DE09F
:1039A00093E09F938F931F930F930E94E5D826C0B7
:1039B000009789F06F927F92DF92CF929F928F92C1
:1039C0009F938F938DEF92E09F938F931F930F930D
:1039D0000E94E5D813C081149104A104B104B1F090
:1039E0006F927F92DF92CF929F928F9281EF92E0BF
:1039F0009F938F931F930F930E94E5D80FB6F8946F
:103A0000DEBF0FBECDBFE1E5FFE123C0C114D1048D
:103A1000E104F10469F06F927F92DF92CF9289EE18
:103A200092E09F938F931F930F930E94E5D8E6CF68
:103A30006F927F9285EE92E09F938F931F930F93E7
:103A40000E94E5D80F900F900F900F900F900F905D
:103A5000DACF84917F01BFEFEB1AFB0A882321F0B4
:103A60000E943436F701F5CFB80181E293E00E945D
:103A7000BA938AE00E9434360C94342B83E50E947A
:103A8000A334882311F40C94342B0E942134E82EA3
:103A900080E50E94A334882341F00E9411348B01F9
:103AA00077FF02C00C94342B02C00DE010E0902F81
:103AB000EEEBF5E088E28E0F2491921729F0319613
:103AC0008E13FACF0C946C2BE6E3FFE184918F0107
:103AD0000F5F1F4F882321F00E943436F801F6CF84
:103AE000EEE2F3E084918F010F5F1F4F882311F402
:103AF0000C94342B0E943436F801F4CF0E94E1B6C6
:103B00000C94342B88E690E00E941E3781110C94AF
:103B1000342B8091E20F83FF02C00C94342B83E599
:103B20000E94A334882349F00E9441340E9449D165
:103B3000CB010E9429860E9441340E9489CE0C94B8
:103B4000342B8EE40E94A334882311F40C94342B7C
:103B50000E94113460937C0D70937D0D80937E0DD7
:103B600090937F0D0C94342B83E50E94A33488231B
:103B700019F00E94213401C080E08093E20FE1E55A
:103B8000FFE184918F010F5F1F4F882321F00E9476
:103B90003436F801F6CFEBE4F3E084918F010F5F48
:103BA0001F4F882321F00E943436F801F6CF809110
:103BB000E20F8823A1F16DE3C62E63E0D62EE12C3F
:103BC000F12C20E08091E20F90E00E2C02C0959540
:103BD00087950A94E2F780FF17C0BB24B394B20E16
:103BE000222319F08CE20E943436F601259134919B
:103BF000F901849189010F5F1F4F882321F00E94F2
:103C000034369801F5CF2B2DFFEFEF1AFF0A32E083
:103C1000C30ED11C45E0E416F104A1F60CC0E7E4A4
:103C2000F3E084918F010F5F1F4F882321F00E94E2
:103C30003436F801F6CF8AE00E9434360C94342BE7
:103C4000109217020C94342B82E593E00E94CC86EC
:103C50000E9448A90C94342B83E50E94A334882346
:103C600069F00E9421348D3320F480934B020C9430
:103C7000342B8CE380934B020C94342BE1E5FFE171
:103C800084918F010F5F1F4F882321F00E943436EB
:103C9000F801F6CF40914B0250E060E070E08BE518
:103CA00093E00E94FA798AE00E9434360C94342B17
:103CB0008091E20F83FF02C00C94342B83E50E94B5
:103CC000A334882311F40C94342B0E9441340E94B5
:103CD00049D1CB010E9424350C94342B89E690E025
:103CE0000E941E37811111C0E2E6F3E084918F013A
:103CF0000F5F1F4F882321F00E943436F801F6CF62
:103D00000E942E698AE00E9434361092950D10921E
:103D1000940D0C944C2F83E50E94A334882311F456
:103D20000C94342B0E9421348D3308F08CE3809363
:103D30009A0D0E94974C6B017C0120919A0D30E006
:103D4000A8EEB3E00E9480DFDC01CB018C0D9D1D4D
:103D5000AE1DBF1D8093960D9093970DA093980D67
:103D6000B093990D0C94342B8DE690E00E941E3791
:103D700081110C94342B8091E20F83FF02C00C94CC
:103D8000342B83E50E94A33481110C94822B82E5AD
:103D90000E94A33481110C94822B0C94342B8091BB
:103DA000E20F83FF02C00C94342B83E50E94A334FE
:103DB00081110C94942B82E50E94A33481110C9400
:103DC000942B0C94342B83E50E94A334882339F080
:103DD0000E9411348B016F3F710519F010F00FEF45
:103DE00010E080E50E94A334811106C010935A04AC
:103DF000009359040C94342B0E94213481110C94AB
:103E0000342BF4CF80E50E94A334811106C01092B8
:103E10005A04109259040C94342B0E941134672BCD
:103E200011F00C94342BF3CF0E9401B00E94D07299
:103E30000E94BC8610925A041092590468EE73E0F6
:103E400080E090E00E94ED4C0C94342B1092B8036B
:103E50000C94342B83E50E94A3348823A1F00E94A4
:103E6000413420E030E04AE754E40E9479D90E94CE
:103E70004FD160934C0270934D0280934E02909309
:103E80004F020C94342B88E50E94743481110C94F9
:103E9000A42B89E50E94743481110C94A42B8AE52B
:103EA0000E94743481110C94A42B85E40E94743414
:103EB00081110C94A42B0E94D0720E94BC860C9499
:103EC000342B83E50E947434882311F40C94342B32
:103ED0000E94413420E030E04AE754E40E9479D95E
:103EE0000E944FD16093A00D7093A10D8093A20DFD
:103EF0009093A30D0C94342B49E7C42E42E0D42EAA
:103F00005FEBE52E56E0F52E10E0D6018D916D01A8
:103F10000E947434882309F46DC0133009F063C023
:103F20000E9441344B015C0120E030E040EA51E462
:103F30000E9414D987FF4EC0A50194016091CB0661
:103F40007091CC068091CD069091CE060E94D8D07B
:103F50002B013C019B01AC016091830670918406AA
:103F600080918506909186060E9479D96093830698
:103F7000709384068093850690938606A301920130
:103F80006091BB067091BC068091BD069091BE0603
:103F90000E9479D96093BB067093BC068093BD06DE
:103FA0009093BE066091EF0F7091F00F8091F10F2A
:103FB0009091F20F0E9418D9A30192010E9479D921
:103FC0000E944FD16093EF0F7093F00F8093F10F29
:103FD0009093F20F8092CB069092CC06A092CD06E1
:103FE000B092CE0607C00E944134F701608371830E
:103FF000828393831F5FF4E0EF0EF11C143009F00D
:1040000084CF0E9453950C94342B84E40E94743422
:10401000882309F403C2EDEAF3E084918F010F5F76
:104020001F4F882321F00E943436F801F6CF43E079
:1040300064E08BE493E10E945EAAE4EAF3E08491F9
:104040008F010F5F1F4F882321F00E943436F80143
:10405000F6CF20915B1330915C1340915D1350912A
:104060005E1360914B1370914C1380914D1390919E
:104070004E130E94EACFA7966CAF7DAF8EAF9FAF75
:10408000A79720915F133091601340916113509175
:10409000621360914F13709150138091511390915E
:1040A00052130E94EACFAB966CAF7DAF8EAF9FAF3D
:1040B000AB97209163133091641340916513509135
:1040C000661360915313709154138091551390911E
:1040D00056130E94EACFAF966CAF7DAF8EAF9FAF05
:1040E000AF97CE018D599F4F0E94B5AAEBE9F3E03F
:1040F00084918F010F5F1F4F882321F00E94343677
:10410000F801F6CF80914B1390914C13A0914D1371
:10411000B0914E136B968CAF9DAFAEAFBFAF6B97A8
:1041200080914F1390915013A0915113B09152135D
:104130006F968CAF9DAFAEAFBFAF6F9780915313AB
:1041400090915413A0915513B0915613A3968CAF30
:104150009DAFAEAFBFAFA397CE01895A9F4F0E94CC
:104160004235CE01895A9F4F0E94B5AAE2E9F3E099
:1041700084918F010F5F1F4F882321F00E943436F6
:10418000F801F6CF6B968CAD9DADAEADBFAD6B9724
:104190002F968CAF9DAFAEAFBFAF2F976F968CAD04
:1041A0009DADAEADBFAD6F9763968CAF9DAFAEAF1B
:1041B000BFAF6397A3968CAD9DADAEADBFADA397DA
:1041C00067968CAF9DAFAEAFBFAF6797CE01855BF3
:1041D0009F4F0E94E1A1CE01855B9F4F0E94B5AA2F
:1041E000E9E8F3E084918F010F5F1F4F882321F0EE
:1041F0000E943436F801F6CFCE01855B9F4F0E94B6
:104200004235CE01855B9F4F0E94B5AAE0E8F3E0FE
:1042100084918F010F5F1F4F882321F00E94343655
:10422000F801F6CFCE01855B9F4F0E94E1A1CE0140
:10423000855B9F4F0E94B5AAE7E7F3E084918F0169
:104240000F5F1F4F882321F00E943436F801F6CF0C
:104250002FB7F8946091440D7091450D8091460DF3
:104260009091470D2FBF0E941AD96BAF7CAF8DAFD5
:104270009EAF2FB7F8946091480D7091490D8091D1
:104280004A0D90914B0D2FBF0E941AD923966CAF07
:104290007DAF8EAF9FAF23972FB7F89460914C0DF1
:1042A00070914D0D80914E0D90914F0D2FBF0E943A
:1042B0001AD927966CAF7DAF8EAF9FAF27972FB7D8
:1042C000F8946091500D7091510D8091520D909124
:1042D000530D2FBF0E941AD92B966CAF7DAF8EAFB6
:1042E0009FAF2B9740E064E0CE01CB960E945EAA80
:1042F000EEE6F3E084918F010F5F1F4F882321F0DA
:104300000E943436F801F6CF0E94348A8091800DE5
:104310009091810DA091820DB091830D88A399A3F6
:10432000AAA3BBA38091840D9091850DA091860DC9
:10433000B091870D8CA39DA3AEA3BFA38091880DE0
:104340009091890DA0918A0DB0918B0D88A799A7A6
:10435000AAA7BBA783E090E00E94B2726CA77DA7DA
:104360008EA79FA743E064E0CE0180960E945EAADC
:104370006B962CAD3DAD4EAD5FAD6B9768A179A14D
:104380008AA19BA10E94EACF69837A838B839C8355
:104390006F962CAD3DAD4EAD5FAD6F976CA17DA11D
:1043A0008EA19FA10E94EACF6D837E838F83988721
:1043B000A3962CAD3DAD4EAD5FADA39768A579A595
:1043C0008AA59BA50E94EACF69877A878B879C87FD
:1043D00020915713309158134091591350915A130B
:1043E0006CA57DA58EA59FA50E94EACF6D877E87CF
:1043F0008F87988BE5E6F3E084918F010F5F1F4F65
:10440000882321F00E943436F801F6CF43E064E0BF
:10441000CE0101960E945EAA0C94342B0E94D072A9
:104420000E94B8AA0C94342B84918F010F5F1F4F08
:10443000882321F00E943436F801F6CFE4E8F4E056
:1044400084918F010F5F1F4F882321F00E94343623
:10445000F801F6CFEDE6F4E084918F010F5F1F4F76
:10446000882321F00E943436F801F6CFEDE5F4E020
:1044700084918F010F5F1F4F882321F00E943436F3
:10448000F801F6CFECE4F4E084918F010F5F1F4F49
:10449000882321F00E943436F801F6CFEBE3F4E0F4
:1044A00084918F010F5F1F4F882321F00E943436C3
:1044B000F801F6CFECE2F4E084918F010F5F1F4F1B
:1044C000882321F00E943436F801F6CFE7E1F4E0CA
:1044D00084918F010F5F1F4F882321F00E94343693
:1044E000F801F6CFE1E0F4E084918F010F5F1F4FF8
:1044F000882321F00E943436F801F6CFECEEF3E089
:1045000084918F010F5F1F4F882321F00E94343662
:10451000F801F6CFEFECF3E084918F010F5F1F4FAE
:10452000882321F00E943436F801F6CFE7EBF3E060
:1045300084918F010F5F1F4F882311F40C94342B4B
:104540000E943436F801F4CF0E9425AA0C94342B33
:10455000ECE6F5E084918F010F5F1F4F882321F077
:104560000E943436F801F6CFE4E6F5E084918F013D
:104570000F5F1F4F882321F00E943436F801F6CFD9
:10458000789B03C001EF12E002C006EF12E0D801F1
:104590008D918D01882319F00E943436F8CF8AE07E
:1045A0000E943436ECE5F5E084918F010F5F1F4FD8
:1045B000882321F00E943436F801F6CF029B03C015
:1045C00001EF12E002C006EF12E0F80181918F01C5
:1045D000882319F00E943436F8CF8AE00E943436DE
:1045E000E4E5F5E084918F010F5F1F4F882321F0F0
:1045F0000E943436F801F6CF8091000183FF03C09A
:1046000001EF12E002C006EF12E0D8018D918D019A
:10461000882309F410CB0E943436F7CF81E08093D1
:1046200012028093E9130C94342B10921202109210
:10463000E9130C94342B88EC90E00E941E37811112
:104640000C94342B84E40E9474348823D1F10E94AA
:10465000413411E020E030E0A9010E9414D9811119
:1046600001C010E01093D306112359F10091B40357
:1046700010E00E944134000F111F000F111FF801BC
:10468000E85CFD4F608371838283938320E030E098
:10469000A901609138027091390280913A0290919B
:1046A0003B020E9414D981110CC080E090E0A0E48C
:1046B000B0E48093380290933902A0933A02B09309
:1046C0003B020E948D89D0C79FE9E92E96E0F92E22
:1046D00009E712E024E0D22ED00EF80181918F017B
:1046E0000E947434882351F00E9441340E944FD1BB
:1046F000D7016D937D938D939C931397B4E0EB0E4C
:10470000F11CD012EACF0E94E293AEC7B4E0EB0EE8
:10471000F11CD01609F4A8C7F80181918F010E94FD
:104720007434882399F30E944134D7016D937D93AB
:104730008D939C931397EACF0E94BCA995C70E94C2
:1047400052A992C7F9E7AF2EF2E0BF2EABE4CA2E12
:10475000A3E1DA2EB7E2EB2EB4E0FB2E00E010E08E
:10476000F50181915F010E947434882311F10E9448
:1047700041342B013C01D7012D913D914D915C912C
:104780000E94EACF9B01AC01F601608171818281B8
:1047900093810E94EBCFD6016D937D938D939C9373
:1047A0001397F7014082518262827382C8010E948E
:1047B00008330F5F1F4FF4E0CF0ED11C24E0E20E50
:1047C000F11C0330110561F60E94BA330E94B8AAA9
:1047D0004BC7E1E5FFE184918F010F5F1F4F8823F5
:1047E00021F00E943436F801F6CF83E50E9474343C
:1047F000882321F00E94323480937202EEEAF5E0C1
:1048000084918F010F5F1F4F882321F00E9434365F
:10481000F801F6CF80917202811103C0EAEAF5E057
:1048200002C0E6EAF5E084918F010F5F1F4F8823F5
:1048300021F00E943436F801F6CFEEE9F5E08491DC
:104840008F010F5F1F4F882321F00E943436F8013B
:10485000F6CF4091640650916506609166067091AE
:1048600067068CE995E00E94347A40916806509181
:10487000690660916A0670916B0689E995E00E946D
:10488000347A40916C0650916D0660916E0670917D
:104890006F0686E995E00E94347AEEE8F5E08491AF
:1048A0008F010F5F1F4F882321F00E943436F801DB
:1048B000F6CF409118025091190260911A0270913E
:1048C0001B028CE895E00E94347A40911C025091C2
:1048D0001D0260911E0270911F0289E895E00E94FE
:1048E000347A40912002509121026091220270910D
:1048F000230286E895E00E94347A8AE00E943436EA
:10490000B3C683E50E94A334882309F4ADC60E9490
:1049100011347093510260935002A6C68DED90E061
:104920000E941E378111A0C683E50E94A33488230C
:1049300009F49AC60091B40310E00E941134000FEC
:10494000111FF801EF5FFD4F718360838DC680E515
:104950000E947434882309F487C60E9411346B01C5
:104960007C0183E50E94A334882321F00E94113446
:104970008B0102C00FEF1FEFC8010196039708F0EB
:1049800073C6D7FC71C69C2DEEEBF5E088E28E0F66
:104990002491921709F468C631968E13F9CF0C94BE
:1049A000232F85E40E94A334811110C080E50E946A
:1049B0007434882391F00E944134609334027093E0
:1049C0003502809336029093370207C00E9421344B
:1049D000882361F3E6E3FFE171C089E40E94743447
:1049E000882381F00E9441342CEA35EC47E25EE3F3
:1049F0000E9479D960933002709331028093320221
:104A00009093330284E40E947434882381F00E94DE
:104A100041342CEA35EC47E25EE30E94D8D0609343
:104A20002C0270932D0280932E0290932F02E1E5C9
:104A3000FFE184918F010F5F1F4F882321F00E94B7
:104A40003436F801F6CF409134025091350260912E
:104A50003602709137028EEE95E00E94347A2CEA8D
:104A600035EC47E25EE36091300270913102809153
:104A70003202909133020E94D8D0AB01BC018AEE81
:104A800095E00E94177A2CEA35EC47E25EE36091EC
:104A90002C0270912D0280912E0290912F020E9483
:104AA00079D9AB01BC0186EE95E00E94177A8AE0C5
:104AB0000E943436D9C50E943436F80184918F01A2
:104AC0000F5F1F4F8111F7CF08E013E0D8018D91E0
:104AD0008D01882309F4AFC80E943436F7CF85E4EE
:104AE0000E94A334882321F00E9411348B0102C05C
:104AF00000E010E083E40E94A334882349F00E9480
:104B00001134CB55DF4F79836883C55AD04008C034
:104B1000E5E0F0E0CB55DF4FF983E883C55AD0409C
:104B200085E50E947434C556DF4F8883CB59D04049
:104B3000882339F00E943234C556DF4F8883CB5921
:104B4000D04017FD07C0C12CD12C56E1E52E53E40F
:104B5000F52E06C0C12CD12C4CE8E42E42E4F42EF4
:104B600083E50E94A334882321F00E9441346B0125
:104B70007C010115110511F41092B4031092950DEA
:104B80001092940D0E94974C4B015C01012B19F47B
:104B900009E113E00EC00CE213E0D8018D918D0104
:104BA000882319F00E943436F8CF8AE00E94343608
:104BB0005BC5F80181918F01882319F00E9434367A
:104BC000F8CFC701B6010E9449D1072E000C880B0F
:104BD000990B0E941AD9EC966FAFEC97C158DF4F32
:104BE0007883CF57D040CD57DF4F8883C358D0400C
:104BF000C957DF4F9883C758D0408AE00E943436A7
:104C00000E9401B08FE78093FA1281E0809317022F
:104C1000C356DF4F88829982AA82BB82CD59D04089
:104C2000C955DF4F88829982AA82BB82C75AD04079
:104C3000C557DF4F1882CB58D040F0E4C457DF4F40
:104C4000F883CC58D0402CE1C357DF4F2883CD5890
:104C5000D04036E4C257DF4F3883CE58D040C157DA
:104C6000DF4F1882CF58D040C057DF4F1882C0594D
:104C7000D040CF56DF4F1882C159D040CE56DF4FBB
:104C80001882C259D040C956DF4F188219821A8241
:104C90001B82C759D040CD56DF4F188219821A8225
:104CA0001B82C359D040C12CD12C76013FE7432E43
:104CB000512C612C712C8FE790E0A0E0B0E0E796DA
:104CC0008CAF9DAFAEAFBFAFE797CF55DF4F188228
:104CD00019821A821B82C15AD04091E0C456DF4F1C
:104CE0009883CC59D040E9961FAE1EAEE997212C8F
:104CF000312C00E010E080911702882309F445C2AE
:104D00000E94974CE3966CAF7DAF8EAF9FAFE39759
:104D10008091F812882309F409C10E94D1B0209033
:104D2000710630907206009173061091740691011D
:104D3000A801C157DF4F6881CF58D040C057DF4F1F
:104D40007881C059D040CF56DF4F8881C159D040BB
:104D5000CE56DF4F9881C259D0400E9414D987FFA8
:104D600014C0C157DF4F2882CF58D040C057DF4F03
:104D70003882C059D040CF56DF4F0883C159D04048
:104D8000CE56DF4F1883C259D0409101A801C557B4
:104D9000DF4F6881CB58D040C457DF4F7881CC5863
:104DA000D040C357DF4F8881CD58D040C257DF4F26
:104DB0009881CE58D0400E9434D21816A4F4C5571A
:104DC000DF4F2882CB58D040C457DF4F3882CC58B1
:104DD000D040C357DF4F0883CD58D040C257DF4F74
:104DE0001883CE58D040C456DF4FA881CC59D0404C
:104DF000EC962FADEC97C158DF4F3881CF57D0409C
:104E0000CD57DF4F4881C358D040C957DF4F588135
:104E1000C758D040B101C801AA2309F469C00E9453
:104E200034D218160CF082C0E3964CAD5DAD6EAD79
:104E30007FADE397481959096A097B09DB01CA016B
:104E400088589341A109B109B7FD70C0E7968CADB0
:104E50009DADAEADBFADE79784199509A609B70919
:104E6000B595A795979587958093FA12CF55DF4F03
:104E7000488359836A837B83C15AD040EC96BFAD87
:104E8000EC97C157DF4FB883CF58D040C158DF4FA0
:104E9000E881CF57D040C057DF4FE883C059D0409A
:104EA000CD57DF4FF881C358D040CF56DF4FF8833E
:104EB000C159D040C957DF4F2881C758D040CE567E
:104EC000DF4F2883C259D040E3968CAD9DADAEAD87
:104ED000BFADE397C356DF4F88839983AA83BB8313
:104EE000CD59D040C456DF4F1882CC59D0401EC097
:104EF0000E9414D987FF1AC0E3968CAD9DADAEAD6C
:104F0000BFADE397C356DF4F288139814A815B816A
:104F1000CD59D040821B930BA40BB50BAC01BD0146
:104F2000485853416109710977FF38C420E030E0E7
:104F300040EF51E4EC966FADEC97C158DF4F7881AC
:104F4000CF57D040CD57DF4F8881C358D040C95785
:104F5000DF4F9881C758D0400E94EBCF9B01AC0136
:104F6000B101C8010E9434D21816E4F4E3EFF6E070
:104F700084918F010F5F1F4F882321F00E943436E8
:104F8000F801F6CF809118049091190488609093ED
:104F900019048093180440E060E089EC96E00E94D8
:104FA000874E62C380E398EFAFEFBFEFC955DF4F85
:104FB000288139814A815B81C75AD040821B930B7B
:104FC000A40BB50BE3962CAD3DAD4EAD5FADE397B5
:104FD000820F931FA41FB51FB7FD13C00E942E6937
:104FE0008AE00E943436E3968CAD9DADAEADBFAD88
:104FF000E397C955DF4F88839983AA83BB83C75A38
:10500000D040E3968CAD9DADAEADBFADE397880FBC
:10501000991FAA1FBB1FC356DF4F288139814A81C0
:105020005B81CD59D040821B930BA40BB50B881923
:105030009909AA09BB0981389F44A241B105E0F052
:10504000EBEAF6E084918F010F5F1F4F882321F078
:105050000E943436F801F6CF80911804909119041B
:105060008860909319048093180440E060E08EE813
:1050700096E00E94874EF8C2E9964EAD5FADE99783
:10508000CB55DF4F88819981C55AD0408417950749
:105090000CF078C0E1E3F6E084918F010F5F1F4FC1
:1050A000882321F00E943436F801F6CFB701A6011B
:1050B0008CE196E00E94347A8AE00E943436CD5624
:1050C000DF4F488159816A817B81C359D04087E095
:1050D00096E00E94347A8AE00E943436C956DF4F47
:1050E000488159816A817B81C759D04082EF95E020
:1050F0000E94347A8AE00E943436C556DF4F988188
:10510000CB59D0409923A1F1C0923402D0923502FC
:10511000E0923602F09237022CEA35EC47E25EE389
:10512000CD56DF4F688179818A819B81C359D040F8
:105130000E9479D9609330027093310280933202D9
:10514000909333022CEA35EC47E25EE3C956DF4F19
:10515000688179818A819B81C759D0400E94D8D0CB
:1051600060932C0270932D0280932E0290932F0255
:105170008091180490911904886090931904809389
:10518000180472C20E94193DB6CD80911702811198
:1051900002C00E9401B080911804909119048860A7
:1051A00090931904809318045FC20E94D0725CC26D
:1051B00081E00E94BF3258C280E00E94BF3254C2D8
:1051C00086E50E947434882341F080912C089091E8
:1051D0002D08892B11F00E948DC783E50E9474343D
:1051E000182F882319F00E943234182F83E50E946B
:1051F0007434882311F0812F35D7FF24F3948091E4
:10520000DD0F811101C0F12C111103C0E1E5FFE1B7
:105210001AC0F110FBCFE6E3FFE184918F010F5F2D
:105220001F4F882321F00E943436F801F6CFE5E7BE
:10523000F7E084918F010F5F1F4F882339F30E949D
:105240003436F801F6CF84918F010F5F1F4F88230A
:1052500021F00E943436F801F6CFF11003C064E06B
:1052600073E002C060E073E087E697E00E94BA93C3
:105270008AE00E943436F8C10E94B2A8F5C10E94AB
:105280002F5FF2C10E945B62EFC10E94A5A8ECC132
:105290000E9465A8E9C10E94DEA7E6C185E40E94DC
:1052A0007434882329F00E9441344B015C0105C00D
:1052B000812C912CA12C50ECB52E8AE50E94A334B0
:1052C000882329F00E9441342B013C0106C0412C67
:1052D000512C40E2642E41E4742E88E50E94A334F0
:1052E000882319F00E94413404C060E070E080E43B
:1052F00090E42F966CAF7DAF8EAF9FAF2F9789E56F
:105300000E94A334882319F00E94413404C060E055
:1053100070E080E490E46BAF7CAF8DAF9EAF85E52D
:105320000E947434882329F00E9441346B017C016F
:1053300006C0C12CD12C38ECE32E32ECF32E8CE4D9
:105340000E947434882349F00E944134E3966CAF84
:105350007DAF8EAF9FAFE39706C0E3961CAE1DAE48
:105360001EAE1FAEE39782E40E94A33481110E9417
:105370001134009124101091251080919B0D811102
:1053800013C18091E20F83FD13C020E030E0A9013A
:10539000C701B6010E9414D9811108C020E030E095
:1053A000A901C501B4010E9414D981110E940BCE3C
:1053B00081E080939B0D90913410992321F01092FD
:1053C00034108093BA030E94E1B640E061E084E7C4
:1053D00098E00E94874E0E94D07280E1EBE4F3E1F6
:1053E000ABEBB3E001900D928A95E1F720E030E05D
:1053F000A901C501B4010E9414D98823E1F0A8D6FF
:10540000A501940160911D1470911E1480911F14C8
:10541000909120140E94EBCF60931D1470931E1482
:1054200080931F149093201460E070E080E792E472
:10543000A3D60E94D07220E030E0A901C301B201DE
:105440000E9434D21816FCF480E090E0A0EAB0E4A8
:1054500089839A83AB83BC83A30192016091531328
:105460007091541380915513909156130E94EBCF75
:1054700068A379A38AA39BA3BE016F5F7F4FCE0170
:1054800080960E94503280E090E0A8ECB2E48983DC
:105490009A83AB83BC839E012F5F3F4F43E553E16B
:1054A000BE01655C7F4FCE01855B9F4F17D720E023
:1054B00030E0A901C701B6010E9414D9882329F15F
:1054C00040E061E081E498E00E94874E80E00E9425
:1054D000FC863ED6A701960160911D1470911E14A2
:1054E00080911F14909120140E94EBCF60931D14A3
:1054F00070931E1480931F149093201460E070E04A
:1055000080E291E439D60E94D07240E060E08AEDFA
:1055100097E00E94874EE0ECF7E084917F01AFEFC7
:10552000EA1AFA0A882321F00E943436F701F5CFEF
:1055300080E00E94FC86E6EAF7E084917F01BFEFFD
:10554000EB1AFB0A882321F00E943436F701F5CFCD
:105550000E94BA8664E670E080E090E00E94ED4C24
:105560000E94974CDC01CB0188539045AF4FBF4F51
:105570008093F4129093F512A093F612B093F71261
:105580001092FD0FE4E9F7E084917F012FEFE21A1A
:10559000F20A882309F4C7C20E943436F701F4CF17
:1055A00080919B0D81113AC30130110509F05CC057
:1055B0000E94A1B659C00E94698156C00E946A7AB1
:1055C00053C00E948B7D50C0113029F4D92A8D2DF3
:1055D0000E948F3C10E0F7018081982F9F7D9154AD
:1055E0009630E0F40E943436D7019D917D019032CF
:1055F00091F38FEB890F863010F4975307C08FE932
:10560000890F863010F4975501C090531111DCCFEB
:10561000D92ED29480EFD82211E0DDCF90ED980FF3
:105620009A3000F38032F1F21FC080910A140E9478
:105630009D7D1AC0E1E5FFE184918F010F5F1F4F4F
:10564000882321F00E943436F801F6CF60910D14C2
:1056500070910E1489ED9AE00E94BA9382E20E9442
:1056600034368AE00E9434361092950D1092940DD3
:105670000E94A78C11C4D8018C91882311F40C943A
:10568000831AE1E5FFE184915F01BFEFAB1ABB0A2A
:10569000882321F00E943436F501F5CFF80181917D
:1056A0008F01882319F00E943436F8CF8AE00E94D7
:1056B00034360C94831A0E941134AB01BC01409320
:1056C000B0125093B1126093B2127093B31285E688
:1056D00090E10E940D56C8CF61E0802F0E945C4B84
:1056E0006E2D802F0E942D4BF12CB701802F0E9430
:1056F000984B0530110509F0B7CFF0925A04E092AB
:105700005904B2CF0E9441340E9449D1CB010E947A
:1057100029860E9489CE0E94BA6980911702109250
:10572000B3031092B203A0CF0E9441340E9449D12A
:10573000CB010E9424350E9457AC80911702109231
:10574000B3031092B20390CF0E94D07288E50E94FA
:105750007434882319F08E9A1092150489E50E94FA
:105760007434882319F0749A109216048AE50E9402
:105770007434882351F09FB7F894809108018061B8
:10578000809308019FBF1092170485E40E9474342F
:10579000882309F469CF0E94BA8666CFE9964EAD98
:1057A0005FADE997141615060CF071C1CF55DF4FA8
:1057B00088809980AA80BB80C15AD040880E991EEB
:1057C000AA1EBB1ECF55DF4F288139814A815B81DC
:1057D000C15AD040281B390B4A0B5B0BCA01B901D7
:1057E000A30192010E9445DFA50194010E94C5CF4B
:1057F000E7964CAC5DAC6EAC7FACE797420E531EA7
:10580000641E751E34E143165104610471041CF1D9
:105810004CEE44165104610471043CF450E8451602
:1058200051046104710434F426C0FBEE4F2E512C58
:10583000612C712CE7964CAE5DAE6EAE7FAEE797F5
:105840008EEF90E0A0E0B0E084199509A609B709B1
:105850002C013D0116C024E130E040E050E0E79625
:105860002CAF3DAF4EAF5FAFE797E4E14E2E512C2A
:10587000612C712C06C0E7964CAE5DAE6EAE7FAE6D
:10588000E797E7964CAD5DAD6EAD7FADE7978FE5E1
:1058900097E00E9462CEB301A2018AE597E00E94E0
:1058A00062CEC557DF4F4881CB58D040C457DF4F39
:1058B0005881CC58D040C357DF4F6881CD58D04075
:1058C000C257DF4F7881CE58D04083E597E00E94E1
:1058D000347AC157DF4F4881CF58D040C057DF4F8F
:1058E0005881C059D040CF56DF4F6881C159D04050
:1058F000CE56DF4F7881C259D0408CE497E00E94A9
:10590000347AE9964EAD5FADE997433051050CF41A
:10591000BEC0C301B2010E941AD920E030E040E8C5
:1059200050E40E9479D96B017C01C557DF4F288173
:10593000CB58D040C457DF4F3881CC58D040C357E4
:10594000DF4F4881CD58D040C257DF4F5881CE58E5
:10595000D040C157DF4F6881CF58D040C057DF4F8C
:105960007881C059D040CF56DF4F8881C159D0408F
:10597000CE56DF4F9881C259D0400E94EACF2BED1E
:105980003FE049E450E40E9479D920E030E040E073
:105990005FE30E9479D99B01AC01C701B6010E9467
:1059A000D8D06B017C01C501B4010E941AD92FE641
:1059B00032E143E85AE30E9479D94B015C01B70117
:1059C000A60186E497E00E94347AB501A40180E440
:1059D00097E00E94347A2AE939E949E15FE3C70197
:1059E000B6010E9479D96B017C019B01AC010E9438
:1059F000EBCFA50194010E94D8D0CD56DF4F68832C
:105A000079838A839B83C359D040A5019401C70140
:105A1000B6010E9479D920E030E040E05EE30E94C8
:105A200079D9C956DF4F688379838A839B83C759A5
:105A3000D040E0E3F7E084915F015FEFA51AB50A7B
:105A4000882321F00E943436F501F5CFB701A60175
:105A50008AE297E00E94347ACD56DF4F488159811F
:105A60006A817B81C359D04084E297E00E94347AF6
:105A7000C956DF4F488159816A817B81C759D0401F
:105A80008EE197E00E94347A8AE00E943436E796ED
:105A90008CAD9DADAEADBFADE797840D951DA61D38
:105AA000B71DB595A795979587958093FA12E996B6
:105AB0008EAD9FADE9970196E9969FAF8EAFE997BE
:105AC000EC969FADEC97C557DF4F9883CB58D040ED
:105AD000C158DF4FA881CF57D040C457DF4FA883AC
