:100000000C943B170C947B170C947B170C947B1768
:100010000C947B170C947B170C947B170C947B1718
:100020000C947B170C947B170C947B170C947B1708
:100030000C947B170C947B170C947B170C947B17F8
:100040000C947B170C944F7C0C947B170C947B17AF
:100050000C947B170C94467B0C947B170C9470CB00
:100060000C947B170C94E14E0C94CD4E0C947B17A2
:100070000C947B170C947B170C947B170C947B17B8
:100080000C947B170C947B170C947B170C947B17A8
:100090000C94A34E0C94D74E0C947B170C947B17A6
:1000A0000C947B170C947B170C947B170C947B1788
:1000B0000C947B170C947B170C947B170C947B1778
:1000C0000C947B170C947B170C947B170C94794E33
:1000D0000C94434E0C947B170C947B170C947B1759
:1000E0000C947B17084AD73B3BCE016E84BCBFFD06
:1000F000C12F3D6C74319ABD56833DDA3D00C77FF8
:1001000011BED9E4BB4C3E916BAAAABE0000008090
:100110003F05A84CCDB2D44EB93836A9020C50B91F
:10012000918688083CA6AAAA2ABE000000803F004B
:100130004E414E494E495459494E46CDCCCC3D0ACC
:10014000D7233C17B7D13877CC2B329595E6241FAF
:10015000B14F0A000020410000C84200401C462068
:10016000BCBE4CCA1B0E5AAEC59D7400407A10F33B
:100170005A00A0724E18090010A5D4E80000E876D5
:1001800048170000E40B54020000CA9A3B0000002C
:10019000E1F505000080969800000040420F000045
:1001A00000A08601000000102700000000E8030006
:1001B0000000006400000000000A000000000001D0
:1001C00000000000002C76D888DC674F0823DFC1D0
:1001D000DFAE59E1B1B796E5E3E453C63AE651998B
:1001E0007696E8E6C28426EB898C9B62ED407C6FB4
:1001F000FCEFBC9C9F40F2BAA56FA5F490055A2A6B
:10020000F75C936B6CF9676DC11BFCE0E40D47FE76
:10021000F520E6B500D0ED902E030094357705006B
:1002200080841E080000204E0A000000C80C3333F2
:1002300033330F986E12831141EF8D2114893BE601
:100240005516CFFEE6DB18D1844B381BF77C1D908A
:100250001DA4BBE424203284725E228100C9F124F3
:10026000ECA1E53D27434F4D4D554E49434154497F
:100270004F4E0044525952554E004552524F525320
:1002800000494E464F004543484F00627567666916
:10029000782D322E312E780057616E68616F2044C0
:1002A00039204D4B320053544F505045442E2000BE
:1002B0005072696E7465722073746F70706564201B
:1002C00064756520746F206572726F72732E20469C
:1002D000697820746865206572726F7220616E643F
:1002E00020757365204D39393920746F207265731C
:1002F000746172742E202854656D70657261747516
:1003000072652069732072657365742E205365745D
:1003100020697420616674657220726573746172FD
:1003200074696E67290A004E6F20436865636B73BA
:10033000756D2077697468206C696E65206E756DC7
:100340006265722C204C617374204C696E653A2092
:10035000004E6F20436865636B73756D2077697419
:1003600068206C696E65206E756D6265722C204C1C
:10037000617374204C696E653A2000636865636B35
:1003800073756D206D69736D617463682C204C61A9
:100390007374204C696E653A20004C696E65204E7E
:1003A000756D626572206973206E6F74204C617385
:1003B00074204C696E65204E756D6265722B312C10
:1003C000204C617374204C696E653A20004D3131C8
:1003D000300053657269616C2073746174757320A9
:1003E0006D69736D617463680A00534420726561BE
:1003F00064206572726F720A00746F6F206D75638E
:100400006820696E6163746976652074696D652022
:100410002D2063757272656E7420636F6D6D616EF1
:10042000643A20002121204B494C4C2063617573B4
:1004300065642062792000627573793A2070617575
:1004400073656420666F7220696E7075740A00624D
:100450007573793A2070617573656420666F7220D8
:10046000757365720A00627573793A2070726F63F2
:10047000657373696E670A00534420436172642098
:1004800072656164206572726F72004D3130303078
:100490005300506F776572204F7574616765004631
:1004A000696C616D656E742072756E6F7574204530
:1004B0002564004D363030002066696C616D656ED4
:1004C000745F72756E6F7574200066696C616D651E
:1004D0006E745F72756E6F757420540046696C613E
:1004E0006D656E7452756E6F7574205400506C6536
:1004F00061736520526573657400706F7765726F04
:100500006666004B494C4C45442E20005072696E83
:100510007465722068616C7465642E206B696C6C04
:1005200028292063616C6C6564210A006563686F2B
:100530003A004572726F723A0042696C696E656189
:1005400072204C6576656C696E6720477269643A03
:100550000A005072696E74204F626A002F2F616327
:1005600074696F6E3A006E6F74696669636174696D
:100570006F6E20006E6F74696669636174696F6E77
:10058000200070726F6D70745F00626567696E0045
:10059000656E640073686F7700627574746F6E00C7
:1005A000486F74656E6420746F6F20636F6C640AAB
:1005B000004D323453004D323320004739322E394A
:1005C0004500473146004731463630305A00473102
:1005D000463330303058004D31303650004D3130D8
:1005E0003953004D32303044004739322E395A00E9
:1005F0004D34323053004732385230585900473169
:10060000463630305A004739322E395A004739328F
:100610002E394530004D31303953004D313930538A
:10062000004D3432305330004F46460A0046616474
:1006300065204865696768742000426564204C65E0
:1006400076656C696E6720004661696C656420742C
:100650006F20656E61626C6520426564204C657632
:10066000656C696E670A00496E76616C6964206D1D
:100670006573682E0A0050726F62696E6720506F52
:10068000696E740025532025692F2569002E0A0004
:100690002F0050726F62696E67206D6573682070FD
:1006A0006F696E742000202844525952554E29001B
:1006B000473239204175746F20426564204C65765D
:1006C000656C696E67003F20284C2C522C462C42EA
:1006D00029206F7574206F6620626F756E64732EAB
:1006E0000A0020756E6974732F6D696E290A003FC8
:1006F00046656564726174652028532920746F6FA4
:10070000206C6F772E20285573696E6720003F2874
:1007100056296572626F7365206C6576656C206919
:100720006D706C61757369626C652028302D342999
:100730002E0A00426164205A2076616C75650A00B9
:100740004E6F2062696C696E6561722067726964C0
:100750000A007061757365640048656164206361B7
:100760006E6E6F74206265207061726B65640050FC
:100770006175736500496E736572742066696C619A
:100780006D656E7420616E64207072657373206293
:100790007574746F6E0A0052656865617420446FE9
:1007A0006E6500526568656174696E672E2E2E0055
:1007B00052656865617400486561746572205469AA
:1007C0006D656F7574005072657373206275747413
:1007D0006F6E20746F2068656174206E6F7A7A6C1A
:1007E000650A004E6F7A7A6C65205061726B6564A1
:1007F0000044697361626C6552756E6F7574005068
:10080000757267654D6F7265005061757365640040
:100810004C6F61642046696C616D656E7420540094
:100820004C6F61642046696C616D656E7400496E41
:10083000736572742066696C616D656E7420616E9B
:100840006420707265737320627574746F6E0A0031
:10085000726573756D656400526573756D696E6759
:100860000020496E76616C696420657874727564E5
:1008700065722000536C6565702E2E2E005B505DF6
:1008800061726B696E67207374796C652028302EF5
:100890002E34292E003F496E76616C696420005A1F
:1008A0002050726F62652050617374204265640A43
:1008B000005A2050726F6265205061737420426547
:1008C0006400473238004D65736820706F696E743C
:1008D000206F7574206F662072616E67650A006212
:1008E0006567696E00436F6E74696E7565004D30A3
:1008F0002053746F70004D312053746F7000436C3F
:1009000069636B20746F20526573756D652E2E2E92
:10091000004E6F204D6F76652E00456E642066692F
:100920006C65206C6973740A00426567696E2066A5
:10093000696C65206C6973740A004E6F206D656484
:1009400069610A00534420636172642072656C65BA
:10095000617365640A00526573756D696E67205333
:100960004400526573756D65005061757365205361
:100970004400286E6F2066696C65290043757272A9
:10098000656E742066696C653A20004E6F74205362
:1009900044207072696E74696E670A005344207057
:1009A00072696E74696E6720627974652000507296
:1009B000696E742074696D653A20007061757365A5
:1009C000006F6B004C696E653A20006F66660086AA
:1009D0000281027A027302650244454255473A0099
:1009E0004D3131322053687574646F776E004D312C
:1009F000313320530057616E68616F204439204DB8
:100A00004B32204F46462E0020732E0A00496E615D
:100A1000637469766974792074696D656F75742083
:100A20000020204D39322058002F2F002044002074
:100A3000204D32303020530020204D3230312058AC
:100A40000020450020204D32303320580020520035
:100A500020204D323034205000204A002054002005
:100A6000530020204D3230352042003F4A206F7520
:100A700074206F662072616E67652028302E3031D9
:100A800020746F20302E33290A0020204D3230365A
:100A900020580020580020204D61783A2000200086
:100AA00020204D696E3A2000203B200020204D324E
:100AB0003131205300250A0046523A0020466C6F1F
:100AC000773A200050726F6265204F6666736574D6
:100AD000205A0050726F6265204F666673657420FD
:100AE0005A0020440020490020204D33303120504E
:100AF0000064697300656E0043290061626C65647F
:100B000020286D696E2074656D702000436F6C64E1
:100B100020657874727564657320617265200020A9
:100B20003B20486F73742068616E646C696E672047
:100B30000046696C616D656E742072756E6F7574B8
:100B400020004D34323120696E636F7272656374B8
:100B500020706172616D657465722075736167657F
:100B60000A004D65736820706F696E74206F75742C
:100B7000206F662072616E67650A004F6666736556
:100B80007473204170706C696564004D494E2F4D3F
:100B9000415820546F6F2046617200546F6F206679
:100BA00061722066726F6D204D494E2F4D41580A7B
:100BB00000454550524F4D204F4B0A00203B00202E
:100BC000550020204D363033204C0020286D6D29F3
:100BD00000203B00205A0020590020204D3835319C
:100BE000205800290A0020746F20003F5A206F759A
:100BF00074206F662072616E6765202800290A00E4
:100C000020746F20003F59206F7574206F6620722A
:100C1000616E6765202800290A0020746F20003F5C
:100C200058206F7574206F662072616E676520288A
:100C3000004F4646004F4E00203B200020204D3400
:100C400031332053004D383400446F6E652070728C
:100C5000696E74696E672066696C650A004D373786
:100C6000004D3331004361703A00434F4E464947CF
:100C70005F4558504F5254004D4541545041434BED
:100C800000434F4F4C45525F54454D5045524154DF
:100C9000555245004348414D4245525F54454D50E1
:100CA000455241545552450045505F4241425953C7
:100CB00054455000424142595354455050494E47C3
:100CC0000041524353004D4F54494F4E5F4D4F44E6
:100CD000455300544845524D414C5F50524F544586
:100CE0004354494F4E00455854454E4445445F4D8A
:100CF000323000435553544F4D5F4649524D574192
:100D000052455F55504C4F4144004C464E5F575240
:100D1000495445004C4F4E475F46494C454E414D66
:100D200045004155544F5245504F52545F53445F14
:100D30005354415455530053445F5752495445004E
:100D4000524550454154004D554C54495F564F4C07
:100D5000554D45005344434152440050524F4D506D
:100D6000545F535550504F525400484F53545F41B5
:100D70004354494F4E5F434F4D4D414E4453004500
:100D80004D455247454E43595F50415253455200DD
:100D9000434153455F4C494748545F425249474895
:100DA000544E45535300544F47474C455F4C4947B9
:100DB00048545300534F4654574152455F504F5784
:100DC0004552004255494C445F50455243454E54AC
:100DD000004C4556454C494E475F44415441005AEA
:100DE0005F50524F42450052554E4F5554004155A9
:100DF000544F4C4556454C005052494E545F4A4F53
:100E0000420050524F4752455353004155544F52A0
:100E100045504F52545F54454D50004155544F5228
:100E200045504F52545F504F5300564F4C554D450F
:100E30005452494300454550524F4D0042494E419E
:100E400052595F46494C455F5452414E53464552B4
:100E50000053455249414C5F584F4E5F584F4646EC
:100E6000004649524D574152455F4E414D453A4D1E
:100E700061726C696E206275676669782D322E31F9
:100E80002E782028536570203134203230323620BD
:100E900031343A32323A30352920534F5552434596
:100EA0005F434F44455F55524C3A676974687562B9
:100EB0002E636F6D2F4D61726C696E4669726D772E
:100EC0006172652F4D61726C696E2050524F544FA4
:100ED000434F4C5F56455253494F4E3A312E3020C6
:100EE0004D414348494E455F545950453A57616E0C
:100EF00068616F204439204D4B32204B494E454D9F
:100F000041544943533A43617274657369616E2079
:100F100045585452554445525F434F554E543A310B
:100F200020555549443A63656465326132662D3413
:100F30003161322D343734382D396231322D6335F9
:100F4000356336326633363766660047322F4733AD
:100F50002062616420706172616D65746572730AEC
:100F6000005A2050726F6265205061737420426590
:100F70006400205A3A0020593A0042656420583AE9
:100F8000004732384F00220A00656E71756575653D
:100F9000696E672022006F6B0A00526573656E648C
:100FA0003A20002569730025696D202569730025A5
:100FB00069682025696D20256973002569642025ED
:100FC00069682025696D20256973002569792025C8
:100FD0006964202569682025696D202569730020D2
:100FE000460020420020204D313034205300436F12
:100FF0006F6C696E672E2E2E004531202553002020
:10100000573A0042656420436F6F6C696E672E2EFD
:101010002E004265642048656174696E672E2E2E2D
:101020000023646566696E652044454641554C540D
:101030005F005049442074756E696E6720646F6E5E
:1010400065004175746F74756E65206661696C65C5
:1010500064212054696D656F75742E004175746F3D
:1010600074756E65206661696C6564212054656DD8
:10107000706572617475726520746F6F206869673E
:10108000682E004175746F74756E65206661696CB9
:1010900065642120426164206578747275646572AC
:1010A0002E00504944204175746F74756E65004B75
:1010B0004420004B4920004B5020005049442074EC
:1010C000756E696E6720646F6E65002066696E6973
:1010D00073686564212050757420746865206C61A4
:1010E0007374204B702C204B6920616E64204B641C
:1010F00020636F6E7374616E74732066726F6D20FF
:1011000062656C6F7720696E746F20436F6E6669DD
:101110006775726174696F6E2E680A0050494420C9
:101120004175746F74756E6500206661696C6564E5
:10113000212074696D656F75740A0050494420411F
:1011400075746F74756E65004175746F74756E6536
:10115000206661696C6564212054696D656F7574E2
:101160002E00206661696C6564212054656D706590
:1011700072617475726520746F6F20686967680AA0
:1011800000504944204175746F74756E6500504974
:1011900044204379636C65730025532025692F250E
:1011A0006900204B643A2000204B693A2000204B14
:1011B000703A200020436C61737369632050494486
:1011C000200A002054753A2000204B753A20002058
:1011D0006D61783A2000206D696E3A200020643AF3
:1011E000200020626961733A200048656174696E6D
:1011F000672E2E2E002073746172740A00504944C9
:10120000204175746F74756E65004175746F7475E7
:101210006E65206661696C6564212054656D70653A
:1012200072617475726520746F6F20686967682ECB
:1012300000206661696C6564212054656D7065727B
:10124000617475726520746F6F20686967680A0041
:10125000504944204175746F74756E65005049445F
:10126000204175746F74756E65003F28432979635A
:101270006C6573206E6F7420706C61757369626C3D
:101280006520283E3D33292E0A00206661696C6581
:10129000642120426164206865617465722069641C
:1012A0000A00504944204175746F74756E650000E2
:1012B0002002000000A81D0000012002000000A87C
:1012C0001D0000022002000000A81D0000032002F3
:1012D000000000A81D0000042002000000284F00AC
:1012E000000520020000006C1D0000062000000028
:1012F00000491D0000072002000000161D00000824
:1013000020020000002A1D00000920020000003D0C
:101310003500000A2002000000121800000B200215
:10132000000000E31900000E2002000000E01C0095
:10133000000F2002000000C61C0000102002000068
:10134000000C500000112002000000DF4F000012CE
:101350002002000000DF4F0000142002000000B750
:101360004F0000152002000000061D00001620029C
:10137000000000951C0000172002000000591C000E
:10138000001820020000000A1800001920020000C6
:10139000004B1B00001A2000000000894000001BC9
:1013A0002000000000042700001C2002000000FEB6
:1013B0001700001D2002000000EB1700001E200295
:1013C000000000ED1B00001F20020000005E400036
:1013D000002020020000001C1B0000212002000051
:1013E000001C1B00002220020000001C1B00002328
:1013F0002002000000DB1A0000242002000000E3AD
:10140000170000252000000000D01A000026200050
:10141000000000473F00002720020000004D400070
:1014200000282002000000DB170000292002000035
:1014300000BC1700002A2002000000991A00002BAF
:101440002000000000EB3F00002C2002000000D72D
:101450003F00002D2002000000B53F00002E2002BA
:10146000000000891A00002F2000000000B61700BD
:10147000002030020000000000EE77253020000040
:101480000000009777453020000000000097776546
:101490003020000000000097778530200000000019
:1014A000009777A5302000000000009777C5300234
:1014B00000000000004378C6302000000000005EFD
:1014C00077E6300201000000000480E8300F0100E0
:1014D0000000001890F7300201000000009D75BE6A
:1014E000310200000000003193F8300201110200C7
:1014F00000A974F9300201000000008C75FC300274
:1015000001EC0700003F74FD300201F0070000A964
:1015100074FE300200000000007875FF3002019771
:101520000B00003F74003102019B0B0000A9740105
:101530003102000000000078750531020100000052
:10154000006C7506310201C50B0000D5730731022E
:101550000009020000547508310201000000002259
:10156000770931020000000000C6722231020087B4
:101570000600008A7323310200890600008A732462
:10158000310200000000004075253102000A02000F
:10159000008A7326310201260A00003F74273102B7
:1015A000012A0A00003F74283102012E0A00003F80
:1015B00074293102008B06000054752A31020000A4
:1015C00000000013772B3102000000000028752C6A
:1015D0003102000C0200008A732D3104010000006A
:1015E000002D762F31040100000000F17531310427
:1015F0000100000000B57533311800980200006347
:10160000764B31180000000000C076633110008B6B
:1016100002000063767331020000000000836D74E5
:1016200031020000000000846D75311800000000D8
:10163000009A768D311800000000008976A53118D7
:1016400000000000007876BD3102000000000001BB
:101650009300400201000088170F75014020028CA2
:10166000067D1AAB76214002000802596D3E7322B6
:101670004002000000132300752340020000004BCD
:1016800023F67400500200000000009D7501500018
:101690000000007D170000000000000000000000B6
:1016A000004E6F7420616C6C6F7765642077686999
:1016B0006C652069646C65004E6F7420616C6C6FA2
:1016C00077656420647572696E67207072696E74E4
:1016D000004E6F205344204361726420446574655A
:1016E000637465640043616E6E6F7420656E74652B
:1016F00072207375626469723A20004E6F206669C9
:101700006C652073656C6563746564004D323500EB
:10171000526573756D65005549205061757365009C
:10172000726573756D65004D323400436F6F6C697F
:101730006E672E2E2E004D3530300047323900486E
:101740006F6D696E672072657175697265640054AA
:10175000656D706572617475726520746F6F206C51
:101760006F77004732385A004732385859004732AD
:101770003858595A00486F6D696E672E2E2E0045F5
:101780007865637574696E6720636F6D6D616E64F3
:101790002E2E2E004D353030004D353032004D3577
:1017A000303000504944206175746F74756E696EF5
:1017B000672E2E2E004D3330334325644525645368
:1017C00025645531004265642050494420646973A2
:1017D00061626C6564004D313030304300496E7693
:1017E000616C6964207265636F76657279206461EB
:1017F0007461004D31303030004275737900BD3175
:10180000000033314B3163317331743175318D31B7
:10181000A531000023400000224000002B312C3174
:1018200021402D312F31313100002A31000001409B
:10183000000026312731283129310000FF300031E6
:10184000243125310000223123310000FF300031E6
:10185000FC30FD30083109310000FF300031FC3030
:10186000FD30000006310731000005310000004066
:101870000000FF3000310131FC30FD30FE3000004F
:10188000FF300031FC30FD300000FF300031FC3013
:10189000FD30E630E830005000000031FD300040FF
:1018A000F830F93006310000FF300031FC30FD30F7
:1018B000E630E830F730BE310000203025304530CA
:1018C00065308530A530C530C6300000FF300031AE
:1018D000FC30FD300000029078036093046C930AA2
:1018E0005A9B0BEE9A0CBA9A0D7B720E9E6D0F935B
:1018F0006D10DD9A11A09A13896D16856D00000098
:1019000001CC1802BA1803A818049A18058A1806F8
:101910008018077218086E18096A180B64180C5A98
:10192000180D4C180E46180F3C18103218112E18AE
:10193000122A18131C18141818151418160218F95E
:10194000FE1700000047305A313000473238004758
:1019500032380047305A30004730582564592564E2
:101960000047305A340047323800486F6D696E675F
:101970002E2E2E0042757379004457494E2047554C
:10198000492F4F53207570646174652072657175BD
:1019900069726564002564782564782564002D00EB
:1019A0002D002D004D3530300050726F62696E672A
:1019B000206661696C65640050726F62696E6720B1
:1019C0007375636365737366756C0063616E6365DD
:1019D0006C005072696E742041626F7274656400AD
:1019E0004469736D6973730055492041626F727465
:1019F0006564006F70656E00545249474745524513
:101A000044003A200066696C616D656E74007A5F0F
:101A10006D696E00795F6D696E00785F6D696E004B
:101A20005265706F7274696E6720656E6473746F4F
:101A300070207374617475730A0020746F6F206C6A
:101A40006F6E6720657874727573696F6E2070723F
:101A50006576656E7465640A0020636F6C6420654A
:101A60007874727573696F6E2070726576656E74C6
:101A700065640A00486F6D6520257320466972739E
:101A8000740000000000000000000000000057612A
:101A9000726E696E673A20486F6D696E6720427595
:101AA0006D702044697669736F72203C20310A00A2
:101AB0000202040000FA430000FA430000FA430067
:101AC00000A0400000A040000000400000FA4300D9
:101AD00000FA430000FA430000000000000000008C
:101AE000000000454550524F4D20777269746520C3
:101AF0006661696C65640053657474696E67732010
:101B000053746F72656400290A00206279746573EA
:101B10003B20637263200053657474696E677320A1
:101B200053746F726564202800204D61726C696E79
:101B30003D563930290A00454550524F4D207665B3
:101B40007273696F6E206D69736D617463682028AC
:101B5000454550524F4D3D00454550524F4D206434
:101B600061746173697A65206572726F722E0A0002
:101B70004572723A20454550524F4D204352430022
:101B8000202863616C63756C6174656429210A00A7
:101B900020213D2000454550524F4D2043524320C7
:101BA0006D69736D61746368202D202873746F7282
:101BB0006564292000454550524F4D20436F727295
:101BC0007570740A002053697A653A2000496E6482
:101BD00065783A200053746F72656420736574747D
:101BE000696E67732072657472696576656400203A
:101BF00062797465733B2063726320002073746F95
:101C00007265642073657474696E6773207265749D
:101C1000726965766564202800454550524F4D2015
:101C200072656164206661696C6564004545505267
:101C30004F4D20496E697469616C697A65640A0068
:101C4000454550524F4D20496E697469616C697AFF
:101C5000656400454550524F4D20726573657400B0
:101C600048617264636F6465642044656661756C85
:101C7000742053657474696E6773204C6F6164657A
:101C8000640000009643000096430000A04000005E
:101C9000C8410000A0420000A0420000C84300006C
:101CA000C842B80B0000B80B000064000000102709
:101CB000000024F4D43050C38D20C3A24117828B7E
:101CC0007011127A900D826CDA0AA861E108C75887
:101CD0006607615142061F4B5E05C145A6041B41C4
:101CE0001204093D9703723931034136DB02663332
:101CF0009202D4305302812E1D02642CEE01762A0A
:101D0000C501B128A101102781018F2564012B2471
:101D10004A01E1223401AD2120018D200C01811FF7
:101D2000FC00851EED00981DDF00B91CD200E71BEA
:101D3000C700201BBB00651AB200B319A9000A191D
:101D4000A0006A189800D217920040178A00B616B1
:101D5000840032167E00B41579003B157400C71458
:101D60006F0058146A00EE13660088136200261391
:101D70005E00C8125B006D12570016125500C111AB
:101D8000510070114E0022114C00D61049008D10E8
:101D900046004710450002104200C00F4000800F6F
:101DA0003E00420F3C00060F3A00CC0E3900930E65
:101DB00037005C0E3500270E3400F30D3200C10DE4
:101DC0003100900D2F00610D2F00320D2D00050DFB
:101DD0002C00D90C2A00AF0C2A00850C28005D0CC1
:101DE0002800350C27000E0C2500E90B2500C40B3C
:101DF0002400A00B23007D0B22005B0B21003A0B7B
:101E00002100190B2000F90A1F00DA0A1F00BB0A83
:101E10001E009D0A1D00800A1C00640A1C00480A5E
:101E20001C002C0A1B00110A1A00F7091A00DD0910
:101E30001900C4091900AB091800930918007B099F
:101E40001700640917004D0917003609160020090C
:101E500015000B091500F6081500E1081500CC085F
:101E60001400B8081400A4081300910813007E0899
:101E700013006B08120059081200470812003508B9
:101E80001200230811001208110001081000F107C8
:101E90001100E0071000D0071000C0070F00B107C5
:101EA0001000A1070F0092070F0083070F007407AF
:101EB0000E0066070E0058070E004A070E003C078A
:101EC0000E002E070D0021070D0014070D00070757
:101ED0000D00FA060D00ED060C00E1060D00D4061B
:101EE0000C00C8060C00BC060C00B0060B00A506D2
:101EF0000C0099060B008E060B0083060B0078067B
:101F00000B006D060B0062060B0057060A004D061B
:101F10000A0043060B0038060A002E060A002406B3
:101F200009001B060A0011060A0007060900FE0543
:101F30000A00F4050900EB050900E2050900D905CE
:101F40000900D0050900C7050800BF050900B6054E
:101F50000900AD050800A50508009D0508009505C8
:101F600009008C050800840508007C05070075053C
:101F700008006D050800650507005E0508005605A8
:101F800007004F0508004705070040050700390511
:101F90000700320507002B050700240507001D0573
:101FA0000700160507000F050600090507000205D2
:101FB0000600FC040700F5040600EF040700E8042F
:101FC0000600E2040600DC040600D6040600D00485
:101FD0000700C9040500C4040600BE040600B804D6
:101FE0000600B2040600AC040600A6040500A10425
:101FF00006009B04050096040600900405008B046F
:10200000060085040500800405007B0405007604B5
:102010000600700405006B040500660405006104F9
:1020200005005C04050057040500520405004D043A
:10203000050048040400440405003F0405003A0478
:10204000040036040500310405002C0404002804B3
:102050000500230404001F0405001A0404001604EC
:102060000400120405000D04040009040400050422
:10207000040001040500FC030400F8030400F40359
:102080000400F0030400EC030400E8030400E4038C
:102090000400E0030400DC030400D8030400D403BC
:1020A0000300D1030400CD030400C9030400C503E9
:1020B000040000000000000000000000000000001C
:1020C00000000000000000000000D1036D64035711
:1020D0000D0347C6023B8B023259022B2E02250903
:1020E0000221E8011CCC011AB201179B01148701DF
:1020F0001374011163010F54010E46010D39010DD6
:102100002C010B21010A17010A0D0109040108FC29
:102110000008F40007ED0007E60007DF0006D9001D
:1021200006D30005CE0006C80005C30004BF0005A5
:10213000BA0004B60004B20004AE0004AA0004A66B
:102140000003A300049F00039C0003990003960072
:10215000039300029100038E00028C0003890002A9
:102160008700038400028200028000027E00027C5D
:1021700000027A0002780002760001750002730006
:10218000027100017000026E00016D00026B00011F
:102190006A000268000167000265000164000163D3
:1021A00000016200026000015F00015E00015D004D
:1021B000015C00015B00015A000159000158000157
:1021C000570001560001550001540001530001520F
:1021D00000015100005100015000014F00014E006C
:1021E000014D00004D00014C00014B00014A000070
:1021F0004A0001490001480000480001470001462B
:102200000000460001450000450001440001430074
:102210000043000142000042000141000041000172
:102220004000004000013F00003F00013E00003E32
:1022300000013D00003D00013C00003C00013B006E
:10224000003B00013A00003A00013900003900006B
:10225000390001380000380001370000370000372E
:102260000001360000360000360001350000350060
:10227000013400003400003400013300003300005A
:102280003300013200003200003200013100003121
:10229000000031000031000130000030000030004B
:1022A000012F00002F00002F00002F00012E000042
:1022B0002E00002E00012D00002D00002D00002D0D
:1022C00000012C00002C00002C00002C00012B0031
:1022D000002B00002B00002B00012A00002A000028
:1022E0002A00002A00002A000129000029000029F4
:1022F0000000290001280000280000280000280014
:102300000028000127000027000027000027000008
:1023100027000126000026000026000026000026D7
:1023200000002600012500002500002500002500F2
:1023300000250000250001240000240000240000E6
:1023400024000024000024000123000023000023B7
:1023500000002300002300002300012200002200CF
:1023600000220000220000220000220000220001C2
:102370002100002100002100002100002100002197
:1023800000002100012000002000002000002000AB
:10239000002000002000002000002000011F00009D
:1023A0001F00001F00001F00001F00001F00001F73
:1023B000000020436F756E7420583A004265640037
:1023C000453100626564002C2073797374656D205B
:1023D00073746F7070656421204865617465725F05
:1023E00049443A20004572723A204D415854454DB7
:1023F00050004D415854454D5020747269676765CF
:102400007265640048656174696E67204661696C35
:1024100065640048656174696E67206661696C6512
:1024200064004572723A204D494E54454D50004D5E
:10243000494E54454D5020747269676765726564F2
:1024400000544845524D414C2052554E4157415938
:1024500000546865726D616C2052756E61776179A8
:1024600000202F002042403A0020403A0020573AF6
:10247000000009121B242D363F48415A536C657EDB
:102480007719100B023D342F265158434A757C674B
:102490006E323B2029161F040D7A7368615E574C1B
:1024A000452B2239300F061D14636A7178474E554B
:1024B0005C646D767F4049525B2C253E3708011ADB
:1024C000137D746F6659504B42353C272E1118030B
:1024D0000A565F444D727B60691E170C053A33281B
:1024E000214F465D546B627970070E151C232A310B
:1024F000384148535A656C777E09001B122D243FE2
:102500003658514A437C756E671019020B343D26CC
:102510002F737A6168575E454C3B3229201F160D98
:10252000046A6378714E475C55222B3039060F14CC
:102530001D252C373E0108131A6D647F7649405BD8
:10254000523C352E2718110A03747D666F5059428C
:102550004B171E050C333A21285F564D447B726998
:10256000600E071C152A233831464F545D626B708C
:102570007900002100240027002A002D00300033BC
:102580000001010000040107010A010000211042BE
:102590002063308440A550C660E770088129914AC5
:1025A000A16BB18CC1ADD1CEE1EFF131121002734C
:1025B000325222B5529442F772D662399318837B15
:1025C000B35AA3BDD39CC3FFF3DEE362244334209C
:1025D000040114E664C774A44485546AA54BB52865
:1025E000850995EEE5CFF5ACC58DD553367226112C
:1025F000163006D776F6669556B4465BB77AA719B5
:10260000973887DFF7FEE79DD7BCC7C448E55886F3
:1026100068A7784008611802282338CCC9EDD98E04
:10262000E9AFF9488969990AA92BB9F55AD44AB78B
:102630007A966A711A500A333A122AFDDBDCCBBF54
:10264000FB9EEB799B588B3BBB1AABA66C877CE45B
:102650004CC55C222C033C600C411CAEED8FFDECA4
:10266000CDCDDD2AAD0BBD688D499D977EB66ED56B
:102670005EF44E133E322E511E700E9FFFBEEFDDF4
:10268000DFFCCF1BBF3AAF599F788F8891A981CAD1
:10269000B1EBA10CD12DC14EF16FE18010A100C2B0
:1026A00030E3200450254046706760B9839893FB5F
:1026B000A3DAB33DC31CD37FE35EF3B1029012F300
:1026C00022D2323542145277625672EAB5CBA5A8AF
:1026D0009589856EF54FE52CD50DC5E234C324A050
:1026E0001481046674476424540544DBA7FAB7993F
:1026F00087B8975FE77EF71DC73CD7D326F23691A0
:1027000006B01657667676154634564CD96DC90E06
:10271000F92FE9C899E9898AB9ABA94458654806EF
:10272000782768C018E1088238A3287DCB5CDB3F9E
:10273000EB1EFBF98BD89BBBAB9ABB754A545A373F
:102740006A167AF10AD01AB32A923A2EFD0FED6C6E
:10275000DD4DCDAABD8BADE89DC98D267C076C648F
:102760005C454CA23C832CE01CC10C1FEF3EFF5D7E
:10277000CF7CDF9BAFBABFD98FF89F176E367E55DF
:102780004E745E932EB23ED10EF01E7C3C3E5E2B0C
:102790003D3F2F5B5D3B2C2A225C005761726E69C6
:1027A0006E673A005344204361726420496E697435
:1027B000204661696C0053442063617264206F6B32
:1027C0000A006F70656E526F6F74206661696C6588
:1027D000640A00766F6C756D652E696E697420668B
:1027E00061696C65640A004E6F2053442063617216
:1027F000640A000A4D3234004D3233202573002E16
:102800000A006F70656E206661696C65642C2046F5
:10281000696C653A200046696C652073656C656378
:102820007465640A002053697A653A200046696C31
:1028300065206F70656E65643A2000454E442053F4
:102840005542524F5554494E450A002220706F732D
:10285000002220706172656E743A22005355425214
:102860004F5554494E452043414C4C20746172678A
:1028700065743A220053756263616C6C204F766513
:1028800072666C6F77004578636565646564206D7A
:10289000617820535542524F5554494E4520646546
:1028A0007074683A002E0A0044656C6574696F6E36
:1028B000206661696C65642C2046696C653A20006D
:1028C00046696C652064656C657465643A0057728E
:1028D0006974696E6720746F2066696C653A2000C0
:1028E000667265736800646F696E67002066696C64
:1028F000653A20004E6F7720002F6175746F256355
:102900002E67002001400130013B0140013601608B
:1029100001310170012C0190012701B0012201C099
:10292000011D01F00118011002130130020E0160B7
:1029300002090190020401C002FF000003FA0040F6
:1029400003F5008003F000D003EB002004E60070E4
:1029500004E100E004DC004005D700C005D20040DF
:1029600006CD00D006C8008007C3003008BE00F0C6
:1029700008B900C009B400B00AAF00B00BAA00D07B
:102980000CA500000EA000500F9B00C01096005038
:1029900012910000148C00C0158700B0178200B09F
:1029A000197D00D01B7800001E730040206E00903F
:1029B000226900F024640040275F0090295A00E05B
:1029C0002B5500102E500020304B0010324600E0F6
:1029D00033410090353C001037370070383200A08A
:1029E000392D00B03A2800A03B2300603C1E0010A7
:1029F0003D1900903D1400103E0F00703E0A00C0CB
:102A00003E0500003F0000403FFBFF803FF6FFC057
:102A10003FF1FF2020506C616E6E657242756666F4
:102A2000657242797465733A2000204672656520AC
:102A30004D656D6F72793A200020436F6D70696C3F
:102A400065643A2053657020313420323032360AC2
:102A500000204C61737420557064617465643A2081
:102A6000323032362D30392D3038207C204175748B
:102A7000686F723A2053796C3231202B20436C619D
:102A80007564650A004D61726C696E2062756766D7
:102A900069782D322E312E780A0020536F667477B4
:102AA0006172652052657365740A00205761746312
:102AB00068646F672052657365740A002042726F04
:102AC000776E206F75742052657365740A00204517
:102AD000787465726E616C2052657365740A00507B
:102AE0006F77657255700A0073746172740A0047DB
:102AF00032385859004D31303031006572726F7282
:102B00002077726974696E6720746F2066696C65DE
:102B10000A00446F6E6520736176696E672066698E
:102B20006C652E0A004D323900456E6473746F7007
:102B3000730025532025632025632025632025630A
:102B400000205A3A0020593A0020583A00656E6435
:102B500073746F7073206869743A2000000022005B
:102B6000250028002B002E00310034000201000057
:102B7000050108010B0105050505070508080808FA
:102B8000020202020A0A0808040404040101010105
:102B90000101010103030303030303030407070700
:102BA0000C0C0C0C0C0C0C0C0202020206060606A5
:102BB000060606060B0B0B0B0B0B0B0B0102102072
:102BC0002008081020401020408002010201080463
:102BD00002010102040810204080804020100804F7
:102BE0000201800402018040201008040201080450
:102BF0000201010204081020408001020408102094
:102C0000408000000A0B02090C0D0E0807030401A6
:102C100000000000000000000000000000000000B4
:102C20000000000000000000000000000000121181
:102C30001000000000000000000000000000000084
:102C4000000000000000000000486F6D696E672002
:102C50004661696C656400FFFFFF205A3A2000203E
:102C6000793A200042656420583A200050726F6221
:102C7000696E67204661696C65640A0050726F6214
:102C8000696E67204661696C65640043616E6E6FB2
:102C900074206F70656E20737562646972200052D3
:102CA0004553554D45204F5054494F4E533A0048D7
:102CB000656174696E672E2E2E000000436C696397
:102CC0006B20746F20686561740000005265737535
:102CD0006D696E672E2E2E00000050757267696E4A
:102CE000672E2E2E0000004C6F6164696E672E2ED9
:102CF0002E000000496E7365727420616E6420437B
:102D00006C69636B000000436C69636B20746F2017
:102D1000636F6E74696E7565000000456A65637463
:102D2000696E672E2E2E000000506C656173652061
:102D3000776169742E2E2E0000005061726B696EEF
:102D4000672E2E2E000000220A00556E6B6E6F77E4
:102D50006E20636F6D6D616E643A2022006F6B00B0
:102D600057616E68616F204439204D4B32205265A7
:102D70006164792E005072696E74696E672E2E2E12
:102D8000005072696E7420506175736564004572FD
:102D9000726F722077726974696E6720746F204554
:102DA0004550524F4D210A00DB0FC93F45BCDA3F69
:102DB0008FB30240FCF0274056946140FE4B9B408D
:102DC00084A5D840E0231841346A5641E859974118
:102DD00064DBD5416E271742B4B75542CE1A9742ED
:102DE000C8AED542B5885A43D40684BFA65FA7BFF4
:102DF0007443E0BF10B11AC01C2C58C0E8F697C04D
:102E0000B849D6C04E4E17C124D355C1802497C1AE
:102E1000A0B5D5C1121A17C244AE55C2781797C2D1
:102E20006CACD5C267885AC320746F6F206C6F6E0C
:102E30006720657874727573696F6E20707265763D
:102E4000656E7465640A0020636F6C642065787435
:102E5000727573696F6E2070726576656E746564E5
:102E60000A0020453A00205A3A0020593A00583AC0
:102E7000000093DF75DF11241FBECFEFD1E2DEBF6C
:102E8000CDBF00E00CBF84B780933E1714BE0FB6D1
:102E9000F894A895809160008861809360001092FA
:102EA00060000FBE14E0A0E0B2E0ECE2FCEE01E056
:102EB0000BBF02C007900D92A83FB107D9F727E1D9
:102EC000A8EFB4E001C01D92AE33B207E1F717E1FD
:102ED000CAE3D7E100E006C021970109802FFE0177
:102EE0000E9489F2C933D10780E00807A9F70E9440
:102EF000CEE00C9405F60C9400008091AD068F5F37
:102F00008093AD068A3018F080EF80936C090895A5
:102F1000CF93FC01808191818115904429F5FB01BB
:102F2000C1816C2F70E090E080E00E94E5EB20E032
:102F300030E048EC52E40E94CBF418160CF4C4E6DE
:102F40002C2F30E0AFEFB0E00E9453F224E630E0E7
:102F500040E050E00E942DF22F3F310519F010F0B3
:102F60002FEF30E020932012CF9108951092360772
:102F700081E0809338070895FB0181818F3F19F02C
:102F8000882381F008952CE330E030930D022093E4
:102F90000C028093B00685E08093080281E0809364
:102FA0003807089588EC90E090930D0280930C020E
:102FB0001092B006F0CFFB018181811103C086E140
:102FC00080936C090895FB01818180938B0681E0D9
:102FD000809338070895FB01808191819827892784
:102FE0009827893C910510F088EC90E090930B02B3
:102FF00080930A0281E0809338070895FB01818164
:1030000091E0980F923028F48093100281E0809331
:1030100038070895FB0181818093090281E0809344
:1030200038070895CF92DF92EF92FF92CF93DF930C
:10303000FB01C081D181DC27CD27DC27BE010D2E0D
:10304000000C880B990B0E94E7EB6B017C0120E0E0
:1030500030E040E251E40E94E1EB87FD0DC020E04A
:1030600030E04AEF53E4C701B6010E94CBF41816D2
:103070002CF4C4EFD1E002C0CAE0D0E0D093120239
:10308000C093110281E080933807DF91CF91FF90C8
:10309000EF90DF90CF900895CF93DF93C091F0072A
:1030A000D091F10781E0CE31D105E4F020E030E0AD
:1030B00040E05FE36091EC077091ED078091EE07CF
:1030C0009091EF070E94A4F20E94E8F36C1B7D0B25
:1030D00077FF03C071956195710981E063307105D7
:1030E0000CF080E0DF91CF91089587FD26C081111B
:1030F00011C08091B80A2091B90A8217F1F0E22F2D
:10310000F0E0E854F54F828190E02F5F2F77209315
:10311000B90A0895813089F48091360A2091370ADE
:10312000821759F0E22FF0E0EA5CF54F828190E0DF
:103130002F5F2F772093370A08958FEF9FEF089521
:10314000CF93DF93DB01F9019C919130C1F0943072
:1031500080F094509C938830D1F4808191810097C5
:1031600071F0019791838083480F591FEA011882FB
:1031700006C08C3539F49C5F9C93943041F4DF9108
:10318000CF9108958B3339F781E08C93F8CF20816C
:103190003181B9016F5F7F4F71836083420F531F8D
:1031A000EA018883808191818F3591056CF7E7CFA3
:1031B0000F931F9381E00091760B1091770B209174
:1031C000780B3091790B4091720B5091730B609199
:1031D000740B7091750B041715072607370708F451
:1031E00080E01F910F91089590E080E00895209174
:1031F0006312833021F425FD0CC024FD0CC030E0A7
:10320000A90102C0559547958A95E2F7CA018170D8
:10321000089581E0089580E008950F931F93CF9360
:10322000DF93EC0101E719E0F8012081318142814F
:103230005381688179818A819B810E94A4F268838D
:1032400079838A839B83F801248135814681578164
:103250006C817D818E819F810E94A4F26C837D832D
:103260008E839F83F801208531854285538568854B
:1032700079858A859B850E94A4F2688779878A87E9
:103280009B87DF91CF911F910F91089580915006F8
:1032900084FD0BC08091520687FD07C090915306B4
:1032A000937081E019F480E0089581E008952FEB98
:1032B000280F2A3108F047C0E22FF0E08091500635
:1032C00090915106A0915206B091530604C0B69554
:1032D000A795979587952A95D2F780FD02C08170B2
:1032E0000895EE59FA4FE081EE2341F1809187096C
:1032F00090918809E80FF92FF11D808190ED980FCA
:103300009A3030F08E3251F4818180538A3098F4B3
:10331000F0935905E093580581E008958D3211F03E
:103320008B3249F4818190ED980F9A3088F38E3278
:1033300011F48281EACFF0E0E0E0EACF1092590583
:1033400010925805E9CF80E00895B1DF882341F05D
:1033500081E02091580530915905232B09F480E034
:1033600008950F931F93CF93DF93C82FD0E0FE01F2
:10337000EE0FFF1FE95EFD4F71836083CC0FDD1FF1
:10338000CC0FDD1F8E010B5A1D4F072E000C880B32
:10339000990B0E94E7EB2AE037ED43E25CE30E94E1
:1033A00046ECC25BD84F288139814A815B810E94FB
:1033B00046ECF8016083718382839383DF91CF9120
:1033C0001F910F910895FC01808191818B30904273
:1033D00059F4FB016081718176276727762780E0A9
:1033E000C0DF81E0809338070895809152078111F2
:1033F0000EC020911D0230911E022150310981E042
:1034000040919B0B50919C0B421753070CF080E0AE
:10341000089591E0909354069091D10095FD0CC0D1
:103420009091D00095FF08C08093D6008091D00085
:1034300080648093D0000895209155062F5F2F72ED
:103440000FB607FC27C090915606921328C09091A2
:10345000D00095FF1EC090915606409155069413DA
:1034600006C09091D1009F7D9093D10012C0E92FAA
:10347000F0E0EB5AF94F32819F5F9F723093D60094
:10348000909356063091D00030643093D0004917A5
:1034900041F3D9CF90915606921301C0FBCFE09132
:1034A0005506F0E0EB5AF94F828320935506809140
:1034B000D10080628093D10008950F931F93CF9322
:1034C000DF93EC01162F042F8AE5A3DF85EAA1DF45
:1034D00083E0800F9EDF812F9CDF8D2F9ADF8C2F62
:1034E000DF91CF911F910F9194CF40E355E760E0BA
:1034F00070E089EF97E10C944894FC0142814423E9
:1035000039F084819581009719F050E00C9487F58B
:103510000895CF93FB01C181C13031F40E94F39231
:10352000811104C0C0933807CF9108950E94B191D2
:10353000F9CFCF93DF93EB010E94279481110AC04A
:1035400040E355E760E070E089EF97E1DF91CF91CC
:103550000C944894888199819827892798272091ED
:10356000B0062F3F29F02223A9F0DF91CF910895D3
:103570008536910514F084E690E08530910514F4C9
:1035800085E090E090930D0280930C0281E080939F
:103590003807EBCF863F910584F385EF90E0EDCFC0
:1035A000ECE8F6E081E2DF011D928A95E9F781E01F
:1035B000809338070895CF93FB0180918B0681306B
:1035C00029F050F1823019F1CF91089560E070E058
:1035D00080E89FE32181223069F118F5222319F058
:1035E0009058213089F7C0E024E0C29FF0011124F7
:1035F000EA5DF54F20813181428153810E94A4F21E
:103600004C2F0E9476C881E080933807DDCF6DECA7
:103610007CEC8CEC9DE3DECF60E070E080E291E436
:10362000D9CF243021F028F09058253069F6C2E037
:10363000DBCF9058C1E0D8CFCF93DF93EC01FB01F3
:1036400060817181762767277627072E000C880B0B
:10365000990B0E94E7EB20E030E040E251E40E9449
:1036600080F3288139812132F0E23F0749F022328C
:1036700040E2340771F02032304241F440E001C0B2
:1036800041E00E9476C881E080933807DF91CF91B6
:10369000089542E0F6CF8F929F92AF92BF92CF9261
:1036A000DF92EF92FF92CF93DF9380916F09877043
:1036B000873091F040E355E760E070E08FE397E1F9
:1036C000DF91CF91FF90EF90DF90CF90BF90AF90C0
:1036D0009F908F900C944894EB010E942794811145
:1036E00007C040E355E760E070E089EF97E1E8CF7D
:1036F0008981833009F454C0B8F4813009F466C07C
:10370000C12CD12C60EFE62E61E4F62E823009F454
:103710005AC0DF91CF91FF90EF90DF90CF90BF9094
:10372000AF909F908F900895843009F446C0C12CCB
:10373000D12C9BEEE92E93E4F92E812C912C20EFD5
:10374000A22E21E4B22E853021F720E030E040E8BF
:1037500050E460912E0A70912F0A8091300A909166
:10376000310A0E94A4F242E00E9476C840E0C501FE
:10377000B4010E9476C841E0C701B6010E9476C834
:1037800042E060E070E0CB01DF91CF91FF90EF90DD
:10379000DF90CF90BF90AF909F908F900C9476C8A1
:1037A000C12CD12C40EFE42E41E4F42E812C912C3D
:1037B0005BEEA52E53E4B52EC8CFC12CD12C3BEE29
:1037C000E32E33E4F32E46015701BFCFC12CD12C99
:1037D0008AE7E82E83E4F82EF6CFCF93DF93EB0150
:1037E0000E94279481110AC040E355E760E070E031
:1037F00089EF97E1DF91CF910C944894809110026A
:103800008F5F8230E0F420E030E04AE253E46091E0
:10381000970B7091980B8091990B90919A0B0E9445
:10382000E1EB87FF07C040E355E760E070E08FE41D
:1038300097E1E0CF8981882329F0813039F1DF9148
:10384000CF91089560910A0270910B0290E080E0A0
:103850000E94E5EB9B01AC016091320A7091330A42
:103860008091340A9091350A0E94A3F26093320A43
:103870007093330A8093340A9093350A60E070E0C5
:1038800080E090E4DF91CF910C94A48A60910A02C9
:1038900070910B0290E080E00E94E5EB2091320AEB
:1038A0003091330A4091340A5091350A0E94A4F2B3
:1038B000DDCFCF93DF93EB010E94279481110AC0E3
:1038C00040E355E760E070E089EF97E1DF91CF9149
:1038D0000C944894898190910902923029F0933098
:1038E000C1F0DF91CF910895882371F06DEC7CECED
:1038F0008CEC9DEB0E9418C90E9419CB0E94399450
:1039000081E080933807EDCF6DEC7CEC8CEC9DE38F
:10391000F1CF882329F06AE077ED83E29CEBEACFD0
:103920006AE077ED83E29CE3E5CFCF93DF93EB0191
:103930000E942794811103C0DF91CF91D6CD688179
:103940007981762767277627072E000C880B990B3D
:103950000E94E7EB20E030E048EC52E40E9480F364
:103960002091C50B3091C60B4091C70B5091C80BED
:103970000E94A3F20E9418C90E9419CB0E94399498
:1039800081E080933807DF91CF910895FB01818119
:10399000882319F0813079F008956AE077ED83E2A9
:1039A0009CE30E9418C90E9419CB0E94399481E0BF
:1039B0008093380708956AE077ED83E29CEBF1CFBE
:1039C000FB0160817181762767277627072E000C1F
:1039D000880B990B0E94E7EB20E030E048EC52E4C2
:1039E0000E9480F32091C50B3091C60B4091C70B0C
:1039F0005091C80B0E94A3F20E9418C90E9419CBD3
:103A00000E94399481E0809338070895FB018181F9
:103A1000813031F0823039F081E0809338070895A9
:103A20000E945C7DF9CF0E94347DF6CFCF93FB01DD
:103A3000C181C13051F40E94D992811108C00E9405
:103A4000F392811104C0C0933807CF910895CF91AC
:103A50000C94B191CF93FB01C181C13031F40E942C
:103A6000D992811104C0C0933807CF91089540E1E5
:103A700057E167E177E184E00E94A8C481E89DE214
:103A80000E9474C18CE097E190932A0980932909E0
:103A9000ECCF80910E0290910F0297FF08C040E397
:103AA00055E760E070E08BEF96E10C9448940E943B
:103AB000C7D2882381F080917A0B85FD0CC00E94CB
:103AC0002794811101C011CD89E899E00E9406CCAC
:103AD00083E080936C090895CF93DF93FB0181818C
:103AE0008130D1F040F0823019F181E080933807C5
:103AF000DF91CF91089580917A0B86FDF9CF1092D6
:103B0000AF061092AE068FEF9FEF90930F02809357
:103B10000E020E94D1CBE9CF8091AE069091AF0604
:103B2000009731F301979093AF068093AE06DDCFF7
:103B3000C091AE06D091AF0626960E9479D28C171E
:103B40009D07B0F28091AE069091AF060196EBCF43
:103B50001F93CF93DF93EC01FB0111818881998141
:103B60008130904289F480917A0B84FD0BC040E350
:103B700055E760E070E081ED96E1DF91CF911F9114
:103B80000C9448940E94BACB8881998182309042EB
:103B900079F40E94D992882339F040E355E760E038
:103BA00070E088EB96E1E9CF0E94F3928111F5CFA6
:103BB000888199818330904231F010936C09DF91B4
:103BC000CF911F9108950E94D9928111F6CF0E9442
:103BD000F3928111F2CF40E355E760E070E081EAB3
:103BE00096E1CBCFFC0101900020E9F79F01215025
:103BF0003109281B390B2F33310540F4FC01E20F4A
:103C0000F31F60832E33310509F011820895CF939D
:103C1000DF93EC0140E450E00E94DBEACE01DF914B
:103C2000CF910895AB01BC014093760B5093770B75
:103C30006093780B7093790B83E894E10C9431CE08
:103C4000EF92FF920F931F93CF93DF93CDB7DEB721
:103C500064970FB6F894DEBF0FBECDBF7C01FB01A9
:103C600060817181828193818E010F5F1F4F24815A
:103C700041E00E940DE7F70101900020E9F79F0164
:103C8000215031092E193F092E31310550F44FE1F1
:103C900050E0421B530BBC01C701820F931F0E94CF
:103CA0002AEBC70164960FB6F894DEBF0FBECDBFF6
:103CB000DF91CF911F910F91FF90EF900895CF93D7
:103CC000DF93EC01FC0101900020E9F7CF0101979F
:103CD0008C1B9D0B8F33910540F440E450E0481B52
:103CE000590B8C0F9D1F0E942AEBCE01DF91CF91C3
:103CF0000895EF92FF920F931F93CF93DF93CDB769
:103D0000DEB764970FB6F894DEBF0FBECDBF7C015F
:103D1000FB0160817181828193818E010F5F1F4F52
:103D2000248141E00E940DE7BC01C701C8DF649611
:103D30000FB6F894DEBF0FBECDBFDF91CF911F91BC
:103D40000F91FF90EF9008950C940CC0682F70E0D5
:103D500090E080E00C94F3C0809158059091590553
:103D6000009731F04AE050E070E060E00C94ADE97B
:103D700060E070E0CB01089580915805909159055D
:103D8000009731F04AE050E070E060E00C9480E889
:103D900060E070E0CB010895EFDF97FD0AC0ECDF33
:103DA0006F3F71058105910509F02CF4E5DF862F41
:103DB000089580E008958FEF0895CF93C62FC5DA58
:103DC000882311F0CF91E8CF8C2FCF910895809167
:103DD000580590915905892B39F0DEDF91E081116A
:103DE00001C090E0892F089591E0FCCFCF93DF933D
:103DF000C82FD62FAADA882319F0DF91CF91E7CF09
:103E00008C2F55DA811101C08D2FDF91CF9108954C
:103E1000B3DFCB010895CF93DF93EB0196DA8823CC
:103E200019F0DF91CF91F4CFCE01DF91CF910895BA
:103E30000F931F93CF938091580590915905009748
:103E400009F1FC018F01C1912C2F2F7DA1F0C53408
:103E500031F0C53621F0C83511F0C83799F7F801AF
:103E6000108270E060E00E942AE7F801C083CF91E1
:103E70001F910F91089570E060E0CF911F910F9115
:103E80000C942AE760E070E0CB01F1CFCF92DF9293
:103E9000EF92FF926A017B0158DA882329F0FF90A4
:103EA000EF90DF90CF90C4CFC701B601FF90EF90A5
:103EB000DF90CF9008954F925F926F927F92AF9272
:103EC000BF92CF92DF92EF92FF920F931F93CF9307
:103ED000DF938FE0A82E84E0B82E06E21AE0CEE34E
:103EE000D7E091E7C92E99E0D92EF12CF501819107
:103EF0005F012BDA882321F08091D309882351F0C8
:103F0000F80180819181A281B38188839983AA83FA
:103F1000BB8315C08DDF2B013C018F2D68D9882311
:103F200009F463C0F8012081318142815381C301CA
:103F3000B2010E94A4F2688379838A839B83F394FD
:103F40000C5F1F4F2496F4E0CF0ED11C83E0F812D3
:103F5000CDCF85E4FAD9882309F451C069DF6B011C
:103F60007C0183E044D9882371F02091320A30919A
:103F7000330A4091340A5091350AC701B6010E94B4
:103F8000A4F26B017C01C0924A07D0924B07E092E9
:103F90004C07F0924D0740E050E0BA0186E476DF2E
:103FA00020E030E0A9010E94CBF418167CF440DF39
:103FB00020E030E040E752E40E9480F36093130277
:103FC000709314028093150290931602DF91CF91A3
:103FD0001F910F91FF90EF90DF90CF90BF90AF9027
:103FE0007F906F905F904F900895F601208131810E
:103FF00042815381C301B2010E94A3F29CCF809100
:10400000320A9091330AA091340AB091350A809314
:104010004A0790934B07A0934C07B0934D07BBCF33
:1040200080916B09833018F046DF0C94EBA808955B
:10403000EF92FF920F931F93CF93DF93CDB7DEB72D
:104040002C970FB6F894DEBF0FBECDBF7C017F93D7
:104050006F9381EE94E09F938F938E010F5F1F4FBC
:104060001F930F930E94D5F5B801C70128DE0F906A
:104070000F900F900F900F900F902C960FB6F89412
:10408000DEBF0FBECDBFDF91CF911F910F91FF908B
:10409000EF900895EF92FF920F931F93CF93DF93CA
:1040A000CDB7DEB7A4970FB6F894DEBF0FBECDBF75
:1040B000F82E8093D5098FE18F1508F489C080917F
:1040C000D409F81624F081E08F0D8093D40981E0A3
:1040D00090E00F2C02C0880F991F0A94E2F7092E76
:1040E000000CAA0BBB0B4091D6095091D7096091E7
:1040F000D8097091D90984239523A623B72321E0F9
:10410000892B8A2B8B2B09F420E02093D309F7FC11
:1041100062C04FE150E062E575E08E010F5F1F4F16
:10412000C8010E94DBEAF80101900020E9F7CF0105
:104130000197801B910B8E31910560F420E2F8010C
:10414000E80FF91F20838D31910521F08C0F9D1F01
:10415000FC0112828F2D0F2C000C990B9F93FF9264
:1041600081EE94E09F938F937E01F0E2EF0EF11CBD
:10417000FF92EF920E94D5F5F80101900020E9F737
:10418000CF010197801B910B0F900F900F900F9014
:104190000F900F908E31910548F44FE150E0481B8D
:1041A000590BB701800F911F0E942AEB40E060E09D
:1041B000C8010E94D991A4960FB6F894DEBF0FBE35
:1041C000CDBFDF91CF911F910F91FF90EF90089598
:1041D0001092D3099CCF0E9422C4EDCFCF92DF92E0
:1041E000EF92FF92CF936B017C01C42F80916412F8
:1041F0008F5F09F4CEC08093641280916412809323
:104200001E1320E030E040E752E460911302709109
:10421000140280911502909116020E9446EC0E94B1
:10422000EDF3709376126093751280911102909164
:1042300012029093781280937712809117029091D6
:10424000180290937A1280937912C0927B12D092C6
:104250007C12E0927D12F0927E1280911D13C0FBC1
:1042600080F980931D1387E0E3EDF9E0AFE7B2E159
:1042700001900D928A95E1F78CE0ECE1F9E0A6E877
:10428000B2E101900D928A95E1F78CE0E1E7F9E067
:10429000A2E9B2E101900D928A95E1F78091D407ED
:1042A00090911D1380FB94F990931D13882381F046
:1042B0008091D0079091D107A091D207B091D307F8
:1042C00080939E1290939F12A093A012B093A1127C
:1042D00080919B0B90919C0B9093A3128093A212C0
:1042E0008091F0079091F1079093A5128093A4120A
:1042F000809120128093A61280911D1390919F09A6
:1043000090FB83F980931D138091A0099091A109DE
:10431000A091A209B091A3098093A7129093A8122B
:10432000A093A912B093AA120E94E68F609318136B
:104330007093191380931A1390931B138091631237
:1043400080931C139091DA0980911D1393FB81F9DE
:104350009091520790FB82F980931D1380E00E9498
:1043600066DA40E050E0BA0184E293E10E9431CE87
:104370004BEB50E064E672E184E293E10E9454CF9B
:1043800084E293E1CF91FF90EF90DF90CF900C9477
:104390001AD481E030CFAF92BF92CF92DF92EF92EA
:1043A0000F931F93CF935B01C42F122F62E885D820
:1043B000C5010E94EFEA6C018C2F90E0C816D90667
:1043C00020F5C114D10431F1CC19112379F0011178
:1043D00010C010E000E00C151D05E1F0F501E00F44
:1043E000F11F849116D80F5F1F4FF5CF10E0011118
:1043F00007C08C199D09969587951C2F181BC82FEF
:10440000C15030F080E205D8FBCF6C01C0E0E1CFB5
:10441000C12FDFCF10E2E11001C010E0C15020F049
:10442000812F0E94091AFACFCF911F910F91EF901F
:10443000DF90CF90BF90AF900895AF92BF92CF9290
:10444000DF92EF920F931F93CF935B01C42F122F34
:1044500062E833D8F50101900020E9F731976F0148
:10446000CA18DB088C2F90E0C816D90618F5C114BD
:10447000D10429F1CC19112369F001110EC0CA0C25
:10448000DB1CCA14DB04D9F0F50181915F010E94A5
:10449000091AF7CF10E0011107C08C199D099695F4
:1044A00087951C2F181BC82FC15038F080E20E943E
:1044B000091AFACF6C01C0E0E2CFC12FE0CF10E2C1
:1044C000E11001C010E0C15020F0812F0E94091AB4
:1044D000FACFCF911F910F91EF90DF90CF90BF90C7
:1044E000AF900895EF920F93CF93DF93EC0188E4A0
:1044F0009CE20E94B993209749F0EE24E39401E0F6
:1045000021E040E2BE0180E291E197DF88E49CE295
:10451000009781F0EE24E39401E021E040E2BC0149
:1045200080E491E138DF21E040E268E47CE280E66B
:1045300091E131DF60E083E00E9421C08091370784
:10454000893F11F08093340281E080936D0989EFF7
:1045500080936C09DF91CF910F91EF900895FF92B6
:104560000F931F93CF93DF93F62E072F142F62E83C
:104570000E945D1ACF2DD02F115020F089910E94FA
:10458000091AFACFDF91CF911F910F91FF900895F3
:104590002FEA32E1F901459154914115510571F02D
:1045A0004817590741F4CB014AE050E0B9010E9495
:1045B000B5EA81E00895265F3F4F61F780E00895F6
:1045C000CF93DF931F921F92CDB7DEB7853608F0E9
:1045D00084E6682F70E090E080E00E94E7EB20E046
:1045E00030E04FE753E40E9446EC20E030E048EC36
:1045F00052E40E9480F320E030E0A9010E94A4F27E
:104600000E94D7F46093E4031A821982698342E01E
:10461000BE016F5F7F4F81EA90E0A1DF0F900F90A6
:10462000DF91CF910895FB018181CADF0C94399409
:10463000CF93DF931F921F92CDB7DEB7853608F078
:1046400084E680931F02682F70E090E080E00E9473
:10465000E5EB20E030E04EEB52E40E9446EC20E037
:1046600030E048EC52E40E9480F320E030E040EA81
:1046700050E40E94A4F20E94D7F469836A8342E066
:10468000BE016F5F7F4F82E890E069DF0F900F906F
:10469000DF91CF910895FB018181CADF0C94399499
:1046A0006091E40370E090E080E00E94E5EB20E0A0
:1046B00030E048EC52E40E9446EC20E030E04FE766
:1046C00053E40E9480F320E030E0A9010E94A4F2AC
:1046D0000E94D7F4862F089580913407882321F013
:1046E00080913307811109C041E063E88FE090E0D9
:1046F0000E945D1A81E00C94091A08951092D0006E
:104700008091D00082608093D0001092D50080E12B
:104710008093D4008091D10080618093D1008091FA
:10472000D10088608093D1008091D100806880930F
:10473000D1008091D1008F7D8093D10010925406DA
:10474000CBDF80913507882321F081E08093380703
:10475000089561E080E00C94CA93CF93DF93C091F9
:10476000F007D091F107209729F16091EC07709143
:10477000ED078091EE079091EF070E94E8F36E5FDE
:104780007F4F24976C177D07ACF47093D807609324
:10479000D7070E949ACA605A75418F4F9F4F609306
:1047A000D9077093DA078093DB079093DC07DF91DA
:1047B000CF9108951092D9071092DA071092DB0773
:1047C0001092DC07F4CF2F923F924F925F926F923C
:1047D0007F928F929F92AF92BF92CF92DF92EF9291
:1047E000FF920F931F93CF93DF93D62FC72FFC0118
:1047F00080809180A280B380C501B40120E831E5BA
:1048000041E050E00E940BF2C9016DE671E00E94A8
:1048100062F26B017C01C501B40120E13EE040E0A1
:1048200050E00E940BF2CA01B90128E130E040E0FB
:1048300050E00E940BF2362E272E062F172F8CE306
:10484000482E512C612C712CC501B401A301920199
:104850000E940BF2B62EA72ECA01B901A301920144
:104860000E940BF2CB01C114D10479F1AF92BF9237
:104870007F936F932F923F92FF92EF92DF92CF92AE
:104880008BEC9FE09F938F93CF93DF930E947AEB03
:104890008DB79EB70E960FB6F8949EBF0FBE8DBF14
:1048A0008D2F9C2FDF91CF911F910F91FF90EF9053
:1048B000DF90CF90BF90AF909F908F907F906F9040
:1048C0005F904F903F902F900895E114F104C9F04C
:1048D000AF92BF927F936F932F923F92FF92EF928E
:1048E0008BEB9FE09F938F93CF93DF930E947AEBA4
:1048F000EDB7FEB73C960FB6F894FEBF0FBEEDBF06
:10490000CFCF012BB9F0AF92BF927F936F932F92CD
:104910003F928FEA9FE09F938F93CF93DF930E9404
:104920007AEB8DB79EB70A960FB6F8949EBF0FBE6E
:104930008DBFB6CF892BA9F0AF92BF927F936F93B3
:1049400087EA9FE09F938F93CF93DF930E947AEB48
:10495000EDB7FEB738960FB6F894FEBF0FBEEDBFA9
:104960009FCFAF92BF9283EA9FE09F938F93CF93A5
:10497000DF930E947AEB0F900F900F900F900F90A3
:104980000F908ECF8F929F92AF92BF92CF92DF9275
:10499000EF92FF920F931F93CF93DF9310927D05B9
:1049A00010927C052FE320938105109280051092D0
:1049B0007F0510927E0510925006109251061092BB
:1049C0005206109253069C01F90190812F5F3F4FD0
:1049D0009032D1F39E34C9F4818190ED980F9A30D2
:1049E00020F08D3211F08B3281F432969F012F5FCF
:1049F0003F4F808180538A3008F44CC09F012F5F65
:104A00003F4F8081803209F447C0F0938809E093DA
:104A100087098F010F5F1F4FC0816AE270E0C801F4
:104A20000E94AAF5009731F0FC0131978081803215
:104A3000E1F31182CD3421F0C43511F0C734E9F42B
:104A4000D8018C910F5F1F4F8032D1F380538A3091
:104A5000A0F4C093810530E020E06AE0FD013196CA
:104A60008C9180532A3999E13907D0F03093800531
:104A700020937F058FE380938105DF91CF911F9174
:104A80000F91FF90EF90DF90CF90BF90AF909F90ED
:104A90008F900895F901AACFF901B0CFDF01DECFE1
:104AA000293999E1390711F4863000F7629FA00196
:104AB000639F500D11249A01280F311D808190EDC4
:104AC000980F9A3058F33093800520937F058E32EB
:104AD00061F4129690E04AE0FD011196808150ED5C
:104AE000580F5A30C0F090937E05DF0131968C91BB
:104AF0008032D9F3CD34F9F42E31310539F088F410
:104B00002731310519F02C313105A9F4B0937D0519
:104B1000A0937C05B2CF949F800D112490ED980F47
:104B2000DBCF2537310538F02737310578F3203AC8
:104B3000E3E03E0759F3D091870940E050E0BA0125
:104B400010E000E0C12CD12C7601C394FD01319618
:104B50008C91882309F47FC08132E1F4CD34D1F403
:104B600020323105B9F440935006509351066093BA
:104B7000520670935306F0937D05E0937C0563E243
:104B800070E0CF010E94AAF5009709F476CFFC01EE
:104B9000108273CF81548A3108F058C0DF019D9193
:104BA000903291F0A0EDA90FAA30E8F09E3271F496
:104BB000918190539A30B8F00115110519F48F01C5
:104BC0000150110990E013C0FD01E8CF9D3211F0B2
:104BD0009B3291F79181A0EDA90FAA3020F09E326F
:104BE00059F79281E6CF9E2F9D1B309759F3A82F3E
:104BF000B0E04601570104C0880C991CAA1CBB1CDC
:104C00008A95D2F7482959296A297B29AE59BA4F82
:104C10009C9380818154DF018A3108F497CFDF01B2
:104C20008191882309F492CF90ED980F9A30B8F3D0
:104C300093ED980F923098F38B3289F3CD01019662
:104C4000EC91E03209F082CFDC01F8CF01151105BB
:104C500001F78D01DECF10937D0500937C05409315
:104C6000500650935106609352067093530605CF39
:104C7000CF93DF93EC018991882319F00E940CC037
:104C8000FACF8DE00E940CC08AE0DF91CF910C94A6
:104C90000CC00C94F3C090917009992321F0682FF7
:104CA00080E00E943C8E80E008951F93CF93DF93B5
:104CB0001BEBC4E6D2E1FE01812F11928A95E9F740
:104CC0000E9446D7882359F0FE0111921A95E9F700
:104CD0008EEA94E0DF91CF911F910C948ADADF91F4
:104CE000CF911F91089580916412882361F0909173
:104CF0001E13891308C080917A0B84FF04C08BEACD
:104D000092E10C947FD880E00895FC012381211169
:104D10000C941AD40895CF93DF93C0919B0BD0913C
:104D20009C0B209729F16091970B7091980B8091C3
:104D3000990B90919A0B0E94E8F36E5F7F4F249736
:104D40006C177D07ACF47093FD076093FC070E941D
:104D50009ACA605C73468F4F9F4F6093FE077093B3
:104D6000FF078093000890930108DF91CF91089589
:104D70001092FE071092FF0710920008109201088F
:104D8000F4CFCF93DF93EC018991882319F00E942F
:104D90000CC0FACFDF91CF910895CF93C1E020E00E
:104DA00030E0A90160915B0770915C0780915D071D
:104DB00090915E070E94E1EB811101C0C0E08C2F51
:104DC000CF910895CF93C82F882319F0E6DF882369
:104DD000C9F080919F098C17A9F00E94867E86E217
:104DE0009AE00E94838080919F0991E089278093B7
:104DF0009F09882321F086E29AE00E94637DCF918B
:104E00000C94868CCF9108950E942794811102C042
:104E10000C94751A80E0D6DF0E94399481E080936B
:104E2000380708954F925F926F927F928F929F9270
:104E3000AF92BF92CF92DF92EF92FF920F931F93A8
:104E4000CF93DF93EC0120915307309154074091A9
:104E5000550750915607688179818A819B810E940C
:104E6000A3F26B017C0120915707309158074091C4
:104E7000590750915A076C817D818E819F810E94D4
:104E8000A3F24B015C01A70196016091400570916E
:104E9000410580914205909143050E94E1EB8823F2
:104EA00009F45AC0C0924005D0924105E0924205F3
:104EB000F0924305209138053091390540913A052B
:104EC00050913B05C701B6010E9446EC2B013C0105
:104ED0000E9419F46B017C0120E030E0A9010E94DE
:104EE000E1EB87FD7AC020E030E040E850E4C70104
:104EF000B6010E94CBF4181634F4C12CD12CC0E8B2
:104F0000EC2EC0E4FC2EA7019601C301B2010E9461
:104F1000A3F22B013C0120E030E0A9010E94E1EB6B
:104F200087FD5FC040923005509231056092320596
:104F300070923305C701B6010E94E8F360932E0515
:104F4000062E000C770B6F5F7F4F6430710514F0F5
:104F500064E070E060932C05D0912A0510912E0535
:104F6000A501940160914405709145058091460525
:104F7000909147050E94E1EB81113CC0D11394C090
:104F8000209112053091130540911405509115059B
:104F90006091300570913105809132059091330513
:104FA0000E9446EC20911605309117054091180596
:104FB000509119050E94A4F2DF91CF911F910F919A
:104FC000FF90EF90DF90CF90BF90AF909F908F9029
:104FD0007F906F905F904F900895C12CD12C7601F7
:104FE00092CF109230051092310510923205109236
:104FF0003305A0CF8092440590924505A0924605C6
:10500000B092470520913C0530913D0540913E0509
:1050100050913F05C501B4010E9446EC4B015C0173
:105020000E9419F46B017C0120E030E0A9010E948C
:10503000E1EB87FDFDC020E030E040E850E4C7012F
:10504000B6010E94CBF4181634F4C12CD12CB0E870
:10505000EB2EB0E4FB2EA7019601C501B4010E941E
:10506000A3F24B015C0120E030E0A9010E94E1EBDA
:1050700087FDE2C08092340590923505A0923605F6
:10508000B0923705C701B6010E94E8F360932F057F
:10509000062E000C770B6F5F7F4F6430710514F0A4
:1050A00064E070E060932D05C0912F05D11305C019
:1050B00080912B058C1709F470C080912E0590917A
:1050C0002F0590932B0580932A050C2E000CDD0BE9
:1050D00025E01203C0011124FC01EC0FFD1FEE0FAF
:1050E000FF1FEE0FFF1FED59F84F208131814281E4
:1050F000538120932605309327054093280550932C
:10510000290500912D05002E000C110BFC01E00F6C
:10511000F11FEE0FFF1FEE0FFF1FED59F84F6081DB
:105120007181828193810E94A3F260932205709322
:105130002305809324059093250520912C0535E0C7
:105140002303F0011124CE0FDF1FCC0FDD1FCC0F86
:10515000DD1FCD59D84F288139814A815B81209349
:105160001E0530931F054093200550932105E00F45
:10517000F11FEE0FFF1FEE0FFF1FED59F84F60817B
:105180007181828193810E94A3F260931A057093CA
:105190001B0580931C0590931D058090340590900D
:1051A0003505A0903605B090370520912205309145
:1051B00023054091240550912505C501B4010E94A5
:1051C00046EC209126053091270540912805509105
:1051D00029050E94A4F26B017C01C0921605D092B1
:1051E0001705E0921805F092190520911A053091E3
:1051F0001B0540911C0550911D05C501B4010E947D
:1052000046EC20911E0530911F05409120055091DC
:1052100021050E94A4F2A70196010E94A3F26093C7
:105220001205709313058093140590931505A8CE6D
:10523000C12CD12C76010FCF109234051092350578
:1052400010923605109237051DCFE0E4F5E080EFAF
:105250009FEFA9E7B4EC84839583A683B78380830B
:105260009183A283B383EAE2F5E08DE981838083B1
:1052700008958F929F92AF92BF92CF92DF92EF925A
:10528000FF92FC0198E0ABE5B7E001900D929A9592
:10529000E1F788E0FB01A3E5B7E001900D928A9564
:1052A000E1F7C0905B07D0905C07E0905D07F0905D
:1052B0005E0720E030E0A901C701B6010E94E1EBE2
:1052C0008823E1F1A701960160E070E080E89FE3A8
:1052D0000E9480F36B017C0180905F0790906007D3
:1052E000A0906107B090620720E030E0A901C501FD
:1052F000B4010E94E1EB882329F1A501940160E04B
:1053000070E080E89FE30E9480F3C0923805D0925D
:105310003905E0923A05F0923B0560933C057093A5
:105320003D0580933E0590933F05FF90EF90DF9001
:10533000CF90BF90AF909F908F900895C12CD12CAB
:105340007601CACF60E070E0CB01DFCF8F929F92F1
:10535000AF92BF92EF92FF920F931F93CF93DF9381
:1053600010925707109258071092590710925A0737
:105370001092530710925407109255071092560737
:1053800010925F07109260071092610710926207F7
:1053900010925B0710925C0710925D0710925E07F7
:1053A00003E617E0C0E0812C912C80ECA82E8FE75B
:1053B000B82E7801D0E0F70181929192A192B1923A
:1053C0007F016D2F8C2F0E94929BDF5FD53099F764
:1053D000CF5F0C5E1F4FC53061F7DF91CF911F91FA
:1053E0000F91FF90EF90BF90AF909F908F90089596
:1053F000EFE6F0E0808182608083089580918109EA
:1054000090918209892B79F4809181099091820988
:10541000892B49F4209181093091820981E0232B65
:1054200019F480E0089581E00895CF93DF93EC01B3
:10543000FE0184912196882319F00E94A41EF8CFC2
:10544000DF91CF910895CF93DF93EB01EEDFCE0193
:10545000DF91CF9196CCCF92DF92EF92FF926A01CB
:105460007B01E3DF42E0C701B601FF90EF90DF90E0
:10547000CF900C9487C182E395E0D7CF8CE295E082
:10548000D4CF8AE00C94A41E0F931F93CF938C016A
:10549000C62F85E69CE0C9DFC801C7DF8AE30E940A
:1054A0000CC080E38C0F0E94A41ECF911F910F911E
:1054B000E8CFCF9381E69EE0B8DFE3DFE0915A02C8
:1054C00082E6E89FF0011124E354FD4FC08160E0C3
:1054D00081E59EE0D9DF60E08CE39EE0D5DF61E00E
:1054E00085E39EE0D1DF61E08AE29EE0CDDF60E00F
:1054F0008BE19EE0C9DF61E08BE09EE0C5DF60E00C
:1055000082E09EE0C1DF61E088EF9DE0BDDF61E009
:105510008EEE9DE0B9DF61E087EE9DE0B5DF61E0F2
:105520008FED9DE0B1DF61E081ED9DE0ADDF60E0FA
:1055300083EC9DE0A9DF60E084EB9DE0A5DF60E007
:1055400086EA9DE0A1DF60E080E99DE09DDF60E00C
:105550008FE79DE099DF61E08AE69DE095DF61E0FD
:105560008BE59DE091DF61E084E59DE08DDF60E00B
:1055700087E49DE089DF60E080E49DE085DF61E015
:1055800087E39DE081DF60E082E29DE07DDF60E017
:1055900084E19DE079DF60E08AE09DE075DF60E016
:1055A00083EF9CE071DF60E086EE9CE06DDF61E000
:1055B00083ED9CE069DF60E086EC9CE065DF61E004
:1055C00081EC9CE061DF61E084EB9CE05DDF60E00A
:1055D00088EA9CE059DF60E084E99CE055DF60E008
:1055E00081E89CE051DFC7FD1AC060E08091201384
:1055F00090912113CC2339F0C13089F461E080917E
:105600002213909123130E94F418682F617088E789
:105610009CE03ADF60E08AE69CE0CF9135CF80E005
:10562000F4CFCF92DF92EF92FF926A017B01FDDE11
:10563000C701B6010E945BC1FF90EF90DF90CF9051
:1056400020CF0F931F93CF93883038F5082F082E63
:10565000000C110BC0911F1391E001C0990F8A95A6
:10566000EAF790931F130E9478C187E6809FF001AC
:10567000819FF00D1124EE57FA4F408151816281D4
:1056800073814F5F5F4F6F4F7F4F8AE99FE0C9DFA4
:1056900086E99FE0CADEC0931F13CF911F910F913F
:1056A0000895EF92FF920F931F93CF93DF937C01A6
:1056B000C62F062F062E000C110B80E0683028F450
:1056C00081E001C0880F6A95EAF7D0911F1380939B
:1056D0001F13D1DE87E6809FF001819FF00D11241A
:1056E000EE57FA4F4081518162817381C70199DF82
:1056F0008C2F0E9475180196D9F78C2FA2DF87E6B0
:10570000809FF001819FF00D1124EE57FA4F158212
:105710001482D0931F13DF91CF911F910F91FF90AF
:10572000EF900895CF92DF92EF92FF926A017B0192
:105730007CDE42E0C701B6010E9487C1FF90EF9076
:10574000DF90CF909ECECF93DF93EB016EDECE0144
:105750006CDEDF91CF9195CE0F931F93CF93DF93A4
:105760008C01D62FC0911F138FEF80931F138CE5F0
:1057700095E05BDEC80159DED11183DEC0931F13B3
:10578000DF91CF911F910F9108950F931F93CF93A6
:10579000DF938C01D62FC0911F138FEF80931F13BF
:1057A00060E082E895E0D8DFC8013FDED11169DE14
:1057B000C0931F13DF91CF911F910F910895EF9226
:1057C000FF921F93CF93DF937C0160E089E995E01E
:1057D000DCDFCFE1D3E118818FEF888380E20E9484
:1057E000A41EC70122DE4DDE1883DF91CF911F91E9
:1057F000FF90EF90089561E084E995E0C6CF61E005
:1058000080E995E0C2CF0F931F93CF93DF93D82FFA
:105810008B01C42FF4DFD093830960E08AE895E020
:10582000B4DFD0911F138FEF80931F1380E20E948B
:10583000A41EC801FADDCC2319F08C2F0E94A41EEF
:1058400020DED0931F13DF91CF911F910F91089508
:1058500040E0BC0182E0D7DF85EE98E0B0DFCBCF3F
:10586000EF92FF921F93CF93DF937C01CFE1D3E1BF
:1058700018818FEF888360E084E795E06DDFC701D2
:10588000D4DDFFDD1883DF91CF911F91FF90EF9062
:1058900008952F923F924F925F926F927F928F92D4
:1058A0009F92AF92BF92CF92DF92EF92FF920F93AF
:1058B0001F93CF93DF93CDB7DEB7C854D1090FB68E
:1058C000F894DEBF0FBECDBF70E060E085E40E94BB
:1058D0000B1F811125C065E070E083E40E940B1F5F
:1058E0008C0103970CF047C08AE692E1C85BDF4F5A
:1058F0000FB6F894DEBF0FBECDBFDF91CF911F91E1
:105900000F91FF90EF90DF90CF90BF90AF909F905E
:105910008F907F906F905F904F903F902F9085CDAC
:1059200082EA92E182DD8AE892E17FDD40E355E799
:1059300060E070E083E890E10E94489460E083E0DA
:10594000C85BDF4F0FB6F894DEBF0FBECDBFDF914F
:10595000CF911F910F91FF90EF90DF90CF90BF906C
:10596000AF909F908F907F906F905F904F903F90FF
:105970002F900C9421C083E50E94A519882309F477
:1059800057C00E94081F9E838D8360E085E50E94BA
:10599000F61E8FAF8DE592E10E9474C10AA7033015
:1059A00064F10E949ACA6F87788B898B9A8B40E347
:1059B00055E760E070E082EA90E10E94489460E080
:1059C00083E00E9421C04D815E81463F5105ACF1CC
:1059D00080E592E12ADD81E392E127DD40E355E7AE
:1059E00060E070E08CE590E10E94489460E083E024
:1059F0000E9421C08AE092E133DFC85BDF4F0FB61F
:105A0000F894DEBF0FBECDBFDF91CF911F910F91F4
:105A1000FF90EF90DF90CF90BF90AF909F908F90CE
:105A20007F906F905F904F903F902F900C9422C486
:105A300024EB30E03E832D83A8CF4D805E80B20101
:105A4000550C880B990B0E94E7EB6B8B7C8B8D8B35
:105A50009E8B2F85388949895A89205C33464F4F60
:105A60005F4F29AF3AAF4BAF5CAF8DEF91E1DDDC1B
:105A700085EF91E1DADC0E947D7B8FE780939D0BBF
:105A80008AEE91E10E9474C181E0809328098F849D
:105A90009888A988BA8888AA99AAAAAABBAA1AA289
:105AA0001BA21CA21DA21EA21FA218A619A619861F
:105AB0001A861B861C86FFE7CF2ED12CE12CF12CF9
:105AC000198230E43F8B4CE1488F56E4598F1A8E8F
:105AD0001B8E1C8E1D8EAFE74A2E512C612C712C13
