:100000000C9494160C94D4160C94D4160C94D41608
:100010000C94D4160C94D4160C94D4160C94D416B8
:100020000C94D4160C94D4160C94D4160C94D416A8
:100030000C94D4160C94D4160C94D4160C94D41698
:100040000C94D4160C9477750C94D4160C94D41686
:100050000C94D4160C946E740C94D4160C948BC11E
:100060000C94D4160C94A54F0C94914F0C94D41668
:100070000C94D4160C94D4160C94D4160C94D41658
:100080000C94D4160C94D4160C94D4160C94D41648
:100090000C94674F0C949B4F0C94D4160C94D4166C
:1000A0000C94D4160C94D4160C94D4160C94D41628
:1000B0000C94D4160C94D4160C94D4160C94D41618
:1000C0000C94D4160C94D4160C94D4160C943D4F66
:1000D0000C94074F0C94D4160C94D4160C94D4168C
:1000E0000C94D416084AD73B3BCE016E84BCBFFDAE
:1000F000C12F3D6C74319ABD56833DDA3D00C77FF8
:1001000011BED9E4BB4C3E916BAAAABE0000008090
:100110003F05A84CCDB2D44EB93836A9020C50B91F
:10012000918688083CA6AAAA2ABE000000803F004B
:100130004E414E494E495459494E46CDCCCC3D0ACC
:10014000D7233C17B7D13877CC2B329595E6241FAF
:10015000B14F0A000020410000C84200401C462068
:10016000BCBE4CCA1B0E5AAEC59D7400407A10F33B
:100170005A00A0724E18090010A5D4E80000E876D5
:1001800048170000E40B54020000CA9A3B0000002C
:10019000E1F505000080969800000040420F000045
:1001A00000A08601000000102700000000E8030006
:1001B0000000006400000000000A000000000001D0
:1001C00000000000002C76D888DC674F0823DFC1D0
:1001D000DFAE59E1B1B796E5E3E453C63AE651998B
:1001E0007696E8E6C28426EB898C9B62ED407C6FB4
:1001F000FCEFBC9C9F40F2BAA56FA5F490055A2A6B
:10020000F75C936B6CF9676DC11BFCE0E40D47FE76
:10021000F520E6B500D0ED902E030094357705006B
:1002200080841E080000204E0A000000C80C3333F2
:1002300033330F986E12831141EF8D2114893BE601
:100240005516CFFEE6DB18D1844B381BF77C1D908A
:100250001DA4BBE424203284725E228100C9F124F3
:10026000ECA1E53D27434F4D4D554E49434154497F
:100270004F4E0044525952554E004552524F525320
:1002800000494E464F004543484F00627567666916
:10029000782D322E312E780057616E68616F2044C0
:1002A000390053544F505045442E20005072696E0F
:1002B0007465722073746F70706564206475652056
:1002C000746F206572726F72732E20466978207485
:1002D0006865206572726F7220616E642075736547
:1002E000204D39393920746F2072657374617274CE
:1002F0002E202854656D7065726174757265206971
:10030000732072657365742E2053657420697420A0
:1003100061667465722072657374617274696E6768
:10032000290A004E6F20436865636B73756D2077F3
:10033000697468206C696E65206E756D6265722CDB
:10034000204C617374204C696E653A20004E6F201A
:10035000436865636B73756D2077697468206C6999
:100360006E65206E756D6265722C204C6173742011
:100370004C696E653A2000636865636B73756D2028
:100380006D69736D617463682C204C617374204CCB
:10039000696E653A20004C696E65204E756D626528
:1003A00072206973206E6F74204C617374204C69E5
:1003B0006E65204E756D6265722B312C204C617319
:1003C00074204C696E653A20004D31313000536520
:1003D0007269616C20737461747573206D69736DDB
:1003E000617463680A005344207265616420657219
:1003F000726F720A00746F6F206D75636820696E8A
:100400006163746976652074696D65202D2063755C
:100410007272656E7420636F6D6D616E643A200058
:100420002121204B494C4C20636175736564206227
:10043000792000627573793A207061757365642064
:10044000666F7220696E7075740A00627573793A0E
:100450002070617573656420666F722075736572B4
:100460000A00627573793A2070726F6365737369FD
:100470006E670A00534420436172642072656164B0
:10048000206572726F720046696C616D656E7420D2
:1004900072756E6F757420452564004D36303000DE
:1004A0002066696C616D656E745F72756E6F7574D0
:1004B000200066696C616D656E745F72756E6F7534
:1004C0007420540046696C616D656E7452756E6F70
:1004D0007574205400506C656173652052657365B6
:1004E0007400706F7765726F6666004B494C4C45BF
:1004F000442E20005072696E7465722068616C74BD
:1005000065642E206B696C6C28292063616C6C65B6
:1005100064210A006563686F3A004572726F723A2F
:100520000042696C696E656172204C6576656C6924
:100530006E6720477269643A0A005072696E7420CF
:100540004F626A002F2F616374696F6E3A006E6F9D
:1005500074696669636174696F6E20006E6F746997
:100560006669636174696F6E200070726F6D70747C
:100570005F00626567696E00656E640073686F771F
:1005800000627574746F6E00486F74656E642074D9
:100590006F6F20636F6C640A004F46460A00466125
:1005A0006465204865696768742000426564204C72
:1005B0006576656C696E6720004661696C656420CC
:1005C000746F20656E61626C6520426564204C65C5
:1005D00076656C696E670A00496E76616C696420A5
:1005E0006D6573682E0A0050726F62696E672050E5
:1005F0006F696E740025532025692F2569002E0A26
:10060000002F0050726F62696E67206D65736820FD
:10061000706F696E742000202844525952554E293B
:1006200000473239204175746F20426564204C6563
:1006300076656C696E67003F20284C2C522C462C46
:100640004229206F7574206F6620626F756E647327
:100650002E0A00290A003F466565647261746520B0
:1006600028532920746F6F206C6F772E20285573C4
:10067000696E6720003F2856296572626F73652096
:100680006C6576656C20696D706C61757369626C00
:10069000652028302D34292E0A00426164205A201A
:1006A00076616C75650A004E6F2062696C696E65D3
:1006B000617220677269640A007061757365640015
:1006C000486561642063616E6E6F7420626520709E
:1006D00061726B656400506175736500496E736586
:1006E00072742066696C616D656E7420616E642041
:1006F000707265737320627574746F6E0A00526550
:100700006865617420446F6E650052656865617448
:10071000696E672E2E2E005265686561740048650B
:10072000617465722054696D656F757400507265EF
:10073000737320627574746F6E20746F20686561C6
:1007400074206E6F7A7A6C650A004E6F7A7A6C65E7
:10075000205061726B65640044697361626C65521C
:10076000756E6F75740050757267654D6F726500B8
:10077000506175736564004C6F61642046696C61FB
:100780006D656E742054004C6F61642046696C6125
:100790006D656E7400496E736572742066696C6174
:1007A0006D656E7420616E64207072657373206273
:1007B0007574746F6E0A00726573756D65640052AE
:1007C0006573756D696E6700536C6565702E2E2EAE
:1007D000005A2050726F6265205061737420426528
:1007E000640A005A2050726F626520506173742051
:1007F00042656400473238004D65736820706F6948
:100800006E74206F7574206F662072616E67650A62
:1008100000626567696E00436F6E74696E7565008E
:100820004D302053746F70004D312053746F700041
:10083000436C69636B20746F20526573756D652E10
:100840002E2E004E6F204D6F76652E00456E642073
:1008500066696C65206C6973740A00426567696E2D
:100860002066696C65206C6973740A004E6F206D98
:10087000656469610A005344206361726420726593
:100880006C65617365640A00526573756D696E67A6
:1008900020534400526573756D6500506175736532
:1008A00020534400286E6F2066696C6529004375EB
:1008B0007272656E742066696C653A20004E6F74C2
:1008C000205344207072696E74696E670A00534445
:1008D000207072696E74696E672062797465200099
:1008E0002E0A0044656C6574696F6E206661696CE0
:1008F00065642C2046696C653A200046696C652069
:1009000064656C657465643A005072696E74207435
:10091000696D653A20007061757365006F6B004CFE
:10092000696E653A20006F666600860281027A026F
:100930007302650244454255473A004D3131322039
:1009400053687574646F776E004D313133205300F6
:1009500057616E68616F204439204F46462E002053
:10096000732E0A00496E6163746976697479207424
:10097000696D656F7574200020204D393220580054
:100980002F2F0020440020204D32303020530020F3
:10099000204D32303120580020450020204D32308B
:1009A0003320580020520020204D32303420500097
:1009B000204A0020540020530020204D32303520A2
:1009C00042003F4A206F7574206F662072616E6727
:1009D000652028302E303120746F20302E33290AC4
:1009E0000020204D32303620580020580020204D65
:1009F00061783A2000200020204D696E3A200020C6
:100A00003B200020204D323131205300250A004682
:100A1000523A0020466C6F773A200050726F626540
:100A2000204F6666736574205A0050726F626520AD
:100A30004F6666736574205A0020440020490020E8
:100A4000204D33303120500064697300656E0043DF
:100A5000290061626C656420286D696E2074656D83
:100A6000702000436F6C64206578747275646573E0
:100A7000206172652000203B20486F7374206861FC
:100A80006E646C696E6720004F4646004F4E00460C
:100A9000696C616D656E742072756E6F757420007F
:100AA0004D34323120696E636F72726563742070E9
:100AB0006172616D657465722075736167650A00A6
:100AC0004D65736820706F696E74206F7574206F48
:100AD000662072616E67650A004F6666736574739F
:100AE000204170706C696564004D494E2F4D41582E
:100AF00020546F6F2046617200546F6F20666172E0
:100B00002066726F6D204D494E2F4D41580A0045A9
:100B10004550524F4D204F4B0A00203B00205500BE
:100B200020204D363033204C0020286D6D290020C8
:100B30003B00205A0020590020204D3835312058E4
:100B400000290A0020746F20003F5A206F7574201E
:100B50006F662072616E6765202800290A00207484
:100B60006F20003F59206F7574206F662072616E90
:100B70006765202800290A0020746F20003F582054
:100B80006F7574206F662072616E67652028004D56
:100B9000383400446F6E65207072696E74696E67D8
:100BA0002066696C650A004D3737004D33310043CC
:100BB00061703A00434F4E4649475F4558504F5287
:100BC00054004D4541545041434B00434F4F4C4519
:100BD000525F54454D50455241545552450043488B
:100BE000414D4245525F54454D5045524154555236
:100BF000450045505F4241425953544550004241DF
:100C000042595354455050494E47004152435300B6
:100C10004D4F54494F4E5F4D4F4445530054484546
:100C2000524D414C5F50524F54454354494F4E0032
:100C3000455854454E4445445F4D3230004355536A
:100C4000544F4D5F4649524D574152455F55504CA8
:100C50004F4144004C464E5F5752495445004C4F5B
:100C60004E475F46494C454E414D45004155544F16
:100C70005245504F52545F53445F5354415455535F
:100C80000053445F57524954450052455045415422
:100C9000004D554C54495F564F4C554D45005344FB
:100CA000434152440050524F4D50545F53555050A1
:100CB0004F525400484F53545F414354494F4E5F85
:100CC000434F4D4D414E445300454D455247454ECF
:100CD00043595F50415253455200434153455F4C85
:100CE000494748545F4252494748544E4553530080
:100CF000544F47474C455F4C494748545300534F66
:100D00004654574152455F504F574552004255494E
:100D10004C445F50455243454E54004C4556454C5B
:100D2000494E475F44415441005A5F50524F42453B
:100D30000052554E4F5554004155544F4C45564561
:100D40004C005052494E545F4A4F420050524F4758
:100D500052455353004155544F5245504F52545FE2
:100D600054454D50004155544F5245504F52545FD9
:100D7000504F5300564F4C554D4554524943004532
:100D80004550524F4D0042494E4152595F46494CE1
:100D9000455F5452414E53464552005345524941D6
:100DA0004C5F584F4E5F584F4646004649524D578C
:100DB0004152455F4E414D453A4D61726C696E201E
:100DC0006275676669782D322E312E78202853653A
:100DD0007020323620323032352031323A34333AD4
:100DE00032322920534F555243455F434F44455FAC
:100DF00055524C3A6769746875622E636F6D2F4D5A
:100E000061726C696E4669726D776172652F4D61B2
:100E1000726C696E2050524F544F434F4C5F564591
:100E20005253494F4E3A312E30204D414348494E9E
:100E3000455F545950453A57616E68616F20443997
:100E4000204B494E454D41544943533A43617274D6
:100E5000657369616E2045585452554445525F434D
:100E60004F554E543A3120555549443A63656465AF
:100E7000326132662D343161322D343734382D39B8
:100E80006231322D63353563363266333637666606
:100E90000047322F47332062616420706172616DB8
:100EA00065746572730A005A2050726F6265205033
:100EB0006173742042656400205A3A0020593A0058
:100EC00042656420583A004732384F00220A0065D4
:100ED0006E7175657565696E672022006F6B0A001B
:100EE000526573656E643A20002569730025696D4B
:100EF00020256973002569682025696D202569739F
:100F000000256964202569682025696D202569739D
:100F10000025697920256964202569682025696D87
:100F20002025697300436F6F6C696E672E2E2E004B
:100F300045312025530020573A0042656420436F15
:100F40006F6C696E672E2E2E0042656420486561C5
:100F500074696E672E2E2E0023646566696E6520A7
:100F600044454641554C545F004B6420004B69207A
:100F7000004B7020005049442074756E696E6720E4
:100F8000646F6E65002066696E6973686564212010
:100F900050757420746865206C617374204B702CDC
:100FA000204B6920616E64204B6420636F6E737404
:100FB000616E74732066726F6D2062656C6F77204E
:100FC000696E746F20436F6E6669677572617469CC
:100FD0006F6E2E680A00504944204175746F747515
:100FE0006E6500206661696C6564212074696D65B9
:100FF0006F75740A00504944204175746F74756EA2
:1010000065004175746F74756E65206661696C6505
:1010100064212054696D656F75742E0020666169C6
:101020006C6564212054656D7065726174757265BC
:1010300020746F6F20686967680A00504944204136
:1010400075746F74756E6500504944204379636C04
:1010500065730025532025692F256900204B643ACC
:101060002000204B693A2000204B703A200020439A
:101070006C617373696320504944200A00205475E1
:101080003A2000204B753A2000206D61783A20000C
:10109000206D696E3A200020643A20002062696168
:1010A000733A200048656174696E672E2E2E002009
:1010B00073746172740A00504944204175746F74EE
:1010C000756E65004175746F74756E652066616933
:1010D0006C6564212054656D70657261747572650C
:1010E00020746F6F20686967682E00206661696CE4
:1010F0006564212054656D70657261747572652038
:10110000746F6F20686967680A0050494420417510
:10111000746F74756E6500504944204175746F7426
:10112000756E6500206661696C65642120426164AA
:10113000206865617465722069640A005049442022
:101140004175746F74756E6500002002000000D553
:101150001D0000012002000000D51D000002200239
:10116000000000D51D0000032002000000D51D0076
:1011700000042002000000EC4F00000520020000E7
:1011800000991D0000062000000000761D000007E9
:101190002002000000431D0000082002000000574C
:1011A0001D00000920020000003E3200000A20025B
:1011B0000000009D1700000B20020000006B1700CC
:1011C000000E20020000003E1C00000F2002000064
:1011D00000121C0000102002000000FA1C00001188
:1011E0002002000000BE1C0000122002000000BE11
:1011F0001C0000142002000000861C0000152002C4
:10120000000000761C0000162002000000CF1B002A
:1012100000172002000000821B00001820020000BE
:1012200000631700001920020000007F1A00001A56
:101230002000000000B93C00001B20000000006DF1
:101240002500001C2002000000571700001D20028E
:10125000000000441700001E2002000000181B00C0
:10126000001F20020000008E3C0000202002000031
:10127000003D1A00002120020000003D1A0000225B
:1012800020020000003D1A0000232002000000E9B7
:101290001900002420020000003C17000025200057
:1012A000000000DE190000262000000000AD3B0019
:1012B000002720020000007D3C00002820020000E2
:1012C0000034170000292002000000151700002A32
:1012D0002002000000A71900002B20000000001BC6
:1012E0003C00002E2002000000971900002F200073
:1012F0000000000F1700002030020000000000A4D2
:101300006F25302000000000004D6F4530200000A8
:101310000000004D6F65302000000000004D6F851B
:10132000302000000000004D6FA5302000000000BC
:10133000004D6FC530020000000000F96FC630207C
:101340000000000000146FE630020100000000DE23
:1013500078E8300F01000000008888F730020100B3
:10136000000000246DBE310200000000005A8BF81E
:1013700030020112020000306CF93002010000005E
:1013800000136DFC300201E9070000C66BFD30025E
:1013900001ED070000306CFE30020000000000FF8D
:1013A0006CFF300201C20B0000C66B00310201C6A7
:1013B0000B0000306C0131020000000000FF6C05E2
:1013C00031020100000000F36C06310201F00B0055
:1013D000005C6B073102000A020000DB6C0831027E
:1013E0000100000000D86E0931020000000000B2C8
:1013F0006D223102000D070000116B233102000F36
:10140000070000116B2431020000000000C76C25AA
:101410003102000B020000116B26310201140A0098
:1014200000C66B27310201180A0000C66B28310282
:10143000011C0A0000C66B2931020011070000DB05
:101440006C2A31020000000000C96E2B310200003E
:10145000000000AF6C2C3102000D020000116B2D5A
:10146000310401000000007D6A2F310401000000FA
:1014700000776D31310401000000003C6D333118FC
:101480000098020000176E4B311800000000007435
:101490006E633110008B020000176E733102000082
:1014A000000000C0687431020000000000C16875CF
:1014B000311800000000004E6E8D31180000000051
:1014C000003D6EA5311800000000002C6EBD3102F9
:1014D00000000000002A8B004002010000E1169687
:1014E0006C0140200214078B195F6E214002000935
:1014F000029668C56A2240020000000722876C231A
:1015000040020000003F227D6C00500200000000FD
:1015100000246D015000000000D6160000000000FD
:10152000000000000000004E6F7420616C6C6F774B
:101530006564207768696C652069646C65004E6F2E
:101540007420616C6C6F77656420647572696E6776
:10155000207072696E74004E6F2053442043617294
:10156000642044657465637465640043616E6E6FE6
:101570007420656E746572207375626469723A20B6
:10158000004E6F2066696C652073656C65637465D9
:1015900064004D323500526573756D650055492004
:1015A000506175736500726573756D65004D3234F9
:1015B00000436F6F6C696E672E2E2E004D353030F4
:1015C0000047323900486F6D696E6720726571752A
:1015D000697265640054656D7065726174757265D9
:1015E00020746F6F206C6F77004732385A00473293
:1015F0003858590047323858595A00486F6D696E4B
:10160000672E2E2E00457865637574696E672063BA
:101610006F6D6D616E642E2E2E004D353030004D95
:10162000353032004D3530300050494420617574FA
:101630006F74756E696E672E2E2E004D33303343F6
:101640002564452564532564553100426564205066
:1016500049442064697361626C6564004275737902
:1016600000BD31000033314B31633173317431755A
:10167000318D31A531000023400000224000002BB5
:10168000312C3121402D312F31313100002A3100F0
:10169000000140000026312731283129310000FFA8
:1016A000300031243125310000223123310000FF88
:1016B000300031FC30FD30083109310000FF3000CE
:1016C00031FC30FD300000063107310000053100EB
:1016D0000000400000FF3000310131FC30FD30FEE1
:1016E000300000FF300031FC30FD300000FF3000E2
:1016F00031FC30FD30E630E830005000000031FDB4
:10170000300040F830F93006310000FF300031FC85
:1017100030FD30E630E830F730BE310000203025B3
:1017200030453065308530A530C530C6300000FF0B
:10173000300031FC30FD3000004D3530300050724B
:101740006F62696E67206661696C65640050726FD4
:1017500062696E67207375636365737366756C0089
:101760005049442074756E696E6720646F6E650021
:101770004175746F74756E65206661696C6564216E
:101780002054696D656F75742E004175746F7475A2
:101790006E65206661696C6564212054656D7065B5
:1017A00072617475726520746F6F20686967682E46
:1017B000004175746F74756E65206661696C65644F
:1017C00021204261642065787472756465722E0010
:1017D000504944204175746F74756E6500024670FF
:1017E00003898B04958B0AAA910B3E910C0A910DEB
:1017F000426A0EDB680FD068102D9111F09013C66D
:101800006816C268000000012F17021D17030B178E
:1018100004FD1605ED1606E31607D51608D11609C0
:10182000CD160BC7160CBD160DAF160EA9160F9FC1
:1018300016109516119116128D16137F16147B161D
:10184000157716166516F9611600000047305A31F3
:101850003000473238004732380047305A300047AE
:10186000305825645925640047305A3400473238CF
:1018700000486F6D696E672E2E2E004275737900D9
:101880004457494E204755492F4F53207570646186
:1018900074652072657175697265640025647825C8
:1018A00064782564002D002D002D0063616E636552
:1018B0006C005072696E742041626F7274656400CE
:1018C0004469736D6973730055492041626F727486
:1018D0006564006F70656E00545249474745524534
:1018E00044003A200066696C616D656E74007A5F31
:1018F0006D696E00795F6D696E00785F6D696E006D
:101900005265706F7274696E6720656E6473746F70
:1019100070207374617475730A0020746F6F206C8B
:101920006F6E6720657874727573696F6E20707260
:101930006576656E7465640A0020636F6C6420656B
:101940007874727573696F6E2070726576656E74E7
:1019500065640A00486F6D652025732046697273BF
:10196000740000000000000000000000000057614B
:10197000726E696E673A20486F6D696E67204275B6
:101980006D702044697669736F72203C20310A00C3
:1019900002020400009643000096430000C8430082
:1019A00000A0400000A0400000004000009643005E
:1019B0000096430000C84300000000000000000043
:1019C000000000454550524F4D20777269746520E4
:1019D0006661696C65640053657474696E67732031
:1019E00053746F72656400290A002062797465730C
:1019F0003B20637263200053657474696E677320C3
:101A000053746F726564202800204D61726C696E9A
:101A10003D563930290A00454550524F4D207665D4
:101A20007273696F6E206D69736D617463682028CD
:101A3000454550524F4D3D00454550524F4D206455
:101A400061746173697A65206572726F722E0A0023
:101A50004572723A20454550524F4D204352430043
:101A6000202863616C63756C6174656429210A00C8
:101A700020213D2000454550524F4D2043524320E8
:101A80006D69736D61746368202D202873746F72A3
:101A90006564292000454550524F4D20436F7272B6
:101AA0007570740A002053697A653A2000496E64A3
:101AB00065783A200053746F72656420736574749E
:101AC000696E67732072657472696576656400205B
:101AD00062797465733B2063726320002073746FB6
:101AE0007265642073657474696E677320726574BF
:101AF000726965766564202800454550524F4D2037
:101B000072656164206661696C6564004545505288
:101B10004F4D20496E697469616C697A65640A0089
:101B2000454550524F4D20496E697469616C697A20
:101B3000656400454550524F4D20726573657400D1
:101B400048617264636F6465642044656661756CA6
:101B5000742053657474696E6773204C6F6164659B
:101B6000640000009643000096430000A04000007F
:101B7000C8410000A0420000A0420000C84300008D
:101B8000C842B80B0000B80B00006400000010272A
:101B9000000024F4D43050C38D20C3A24117828B9F
:101BA0007011127A900D826CDA0AA861E108C758A8
:101BB0006607615142061F4B5E05C145A6041B41E5
:101BC0001204093D9703723931034136DB02663353
:101BD0009202D4305302812E1D02642CEE01762A2B
:101BE000C501B128A101102781018F2564012B2493
:101BF0004A01E1223401AD2120018D200C01811F19
:101C0000FC00851EED00981DDF00B91CD200E71B0B
:101C1000C700201BBB00651AB200B319A9000A193E
:101C2000A0006A189800D217920040178A00B616D2
:101C3000840032167E00B41579003B157400C71479
:101C40006F0058146A00EE136600881362002613B2
:101C50005E00C8125B006D12570016125500C111CC
:101C6000510070114E0022114C00D61049008D1009
:101C700046004710450002104200C00F4000800F90
:101C80003E00420F3C00060F3A00CC0E3900930E86
:101C900037005C0E3500270E3400F30D3200C10D05
:101CA0003100900D2F00610D2F00320D2D00050D1C
:101CB0002C00D90C2A00AF0C2A00850C28005D0CE2
:101CC0002800350C27000E0C2500E90B2500C40B5D
:101CD0002400A00B23007D0B22005B0B21003A0B9C
:101CE0002100190B2000F90A1F00DA0A1F00BB0AA5
:101CF0001E009D0A1D00800A1C00640A1C00480A80
:101D00001C002C0A1B00110A1A00F7091A00DD0931
:101D10001900C4091900AB091800930918007B09C0
:101D20001700640917004D0917003609160020092D
:101D300015000B091500F6081500E1081500CC0880
:101D40001400B8081400A4081300910813007E08BA
:101D500013006B08120059081200470812003508DA
:101D60001200230811001208110001081000F107E9
:101D70001100E0071000D0071000C0070F00B107E6
:101D80001000A1070F0092070F0083070F007407D0
:101D90000E0066070E0058070E004A070E003C07AB
:101DA0000E002E070D0021070D0014070D00070778
:101DB0000D00FA060D00ED060C00E1060D00D4063C
:101DC0000C00C8060C00BC060C00B0060B00A506F3
:101DD0000C0099060B008E060B0083060B0078069C
:101DE0000B006D060B0062060B0057060A004D063D
:101DF0000A0043060B0038060A002E060A002406D5
:101E000009001B060A0011060A0007060900FE0564
:101E10000A00F4050900EB050900E2050900D905EF
:101E20000900D0050900C7050800BF050900B6056F
:101E30000900AD050800A50508009D0508009505E9
:101E400009008C050800840508007C05070075055D
:101E500008006D050800650507005E0508005605C9
:101E600007004F0508004705070040050700390532
:101E70000700320507002B050700240507001D0594
:101E80000700160507000F050600090507000205F3
:101E90000600FC040700F5040600EF040700E80450
:101EA0000600E2040600DC040600D6040600D004A6
:101EB0000700C9040500C4040600BE040600B804F7
:101EC0000600B2040600AC040600A6040500A10446
:101ED00006009B04050096040600900405008B0490
:101EE000060085040500800405007B0405007604D7
:101EF0000600700405006B0405006604050061041B
:101F000005005C04050057040500520405004D045B
:101F1000050048040400440405003F0405003A0499
:101F2000040036040500310405002C0404002804D4
:101F30000500230404001F0405001A04040016040D
:101F40000400120405000D04040009040400050443
:101F5000040001040500FC030400F8030400F4037A
:101F60000400F0030400EC030400E8030400E403AD
:101F70000400E0030400DC030400D8030400D403DD
:101F80000300D1030400CD030400C9030400C5030A
:101F9000040000000000000000000000000000003D
:101FA00000000000000000000000D1036D64035732
:101FB0000D0347C6023B8B023259022B2E02250924
:101FC0000221E8011CCC011AB201179B0114870100
:101FD0001374011163010F54010E46010D39010DF7
:101FE0002C010B21010A17010A0D0109040108FC4B
:101FF0000008F40007ED0007E60007DF0006D9003F
:1020000006D30005CE0006C80005C30004BF0005C6
:10201000BA0004B60004B20004AE0004AA0004A68C
:102020000003A300049F00039C0003990003960093
:10203000039300029100038E00028C0003890002CA
:102040008700038400028200028000027E00027C7E
:1020500000027A0002780002760001750002730027
:10206000027100017000026E00016D00026B000140
:102070006A000268000167000265000164000163F4
:1020800000016200026000015F00015E00015D006E
:10209000015C00015B00015A000159000158000178
:1020A0005700015600015500015400015300015230
:1020B00000015100005100015000014F00014E008D
:1020C000014D00004D00014C00014B00014A000091
:1020D0004A0001490001480000480001470001464C
:1020E0000000460001450000450001440001430096
:1020F0000043000142000042000141000041000194
:102100004000004000013F00003F00013E00003E53
:1021100000013D00003D00013C00003C00013B008F
:10212000003B00013A00003A00013900003900008C
:10213000390001380000380001370000370000374F
:102140000001360000360000360001350000350081
:10215000013400003400003400013300003300007B
:102160003300013200003200003200013100003142
:10217000000031000031000130000030000030006C
:10218000012F00002F00002F00002F00012E000063
:102190002E00002E00012D00002D00002D00002D2E
:1021A00000012C00002C00002C00002C00012B0052
:1021B000002B00002B00002B00012A00002A000049
:1021C0002A00002A00002A00012900002900002915
:1021D0000000290001280000280000280000280035
:1021E000002800012700002700002700002700002A
:1021F00027000126000026000026000026000026F9
:102200000000260001250000250000250000250013
:102210000025000025000124000024000024000007
:1022200024000024000024000123000023000023D8
:1022300000002300002300002300012200002200F0
:1022400000220000220000220000220000220001E3
:1022500021000021000021000021000021000021B8
:1022600000002100012000002000002000002000CC
:10227000002000002000002000002000011F0000BE
:102280001F00001F00001F00001F00001F00001F94
:10229000000020436F756E7420583A004265640058
:1022A000453100626564002C2073797374656D207C
:1022B00073746F7070656421204865617465725F26
:1022C00049443A20004572723A204D415854454DD8
:1022D00050004D415854454D5020747269676765F0
:1022E0007265640048656174696E67204661696C57
:1022F00065640048656174696E67206661696C6534
:1023000064004572723A204D494E54454D50004D7F
:10231000494E54454D502074726967676572656413
:1023200000544845524D414C2052554E4157415959
:1023300000546865726D616C2052756E61776179C9
:1023400000202F002042403A0020403A0020573A17
:10235000000009121B242D363F48415A536C657EFC
:102360007719100B023D342F265158434A757C676C
:102370006E323B2029161F040D7A7368615E574C3C
:10238000452B2239300F061D14636A7178474E556C
:102390005C646D767F4049525B2C253E3708011AFC
:1023A000137D746F6659504B42353C272E1118032C
:1023B0000A565F444D727B60691E170C053A33283C
:1023C000214F465D546B627970070E151C232A312C
:1023D000384148535A656C777E09001B122D243F03
:1023E0003658514A437C756E671019020B343D26EE
:1023F0002F737A6168575E454C3B3229201F160DBA
:10240000046A6378714E475C55222B3039060F14ED
:102410001D252C373E0108131A6D647F7649405BF9
:10242000523C352E2718110A03747D666F505942AD
:102430004B171E050C333A21285F564D447B7269B9
:10244000600E071C152A233831464F545D626B70AD
:102450007900002100240027002A002D00300033DD
:102460000001010000040107010A010000211042DF
:102470002063308440A550C660E770088129914AE6
:10248000A16BB18CC1ADD1CEE1EFF131121002736D
:10249000325222B5529442F772D662399318837B36
:1024A000B35AA3BDD39CC3FFF3DEE36224433420BD
:1024B000040114E664C774A44485546AA54BB52886
:1024C000850995EEE5CFF5ACC58DD553367226114D
:1024D000163006D776F6669556B4465BB77AA719D6
:1024E000973887DFF7FEE79DD7BCC7C448E5588615
:1024F00068A7784008611802282338CCC9EDD98E26
:10250000E9AFF9488969990AA92BB9F55AD44AB7AC
:102510007A966A711A500A333A122AFDDBDCCBBF75
:10252000FB9EEB799B588B3BBB1AABA66C877CE47C
:102530004CC55C222C033C600C411CAEED8FFDECC5
:10254000CDCDDD2AAD0BBD688D499D977EB66ED58C
:102550005EF44E133E322E511E700E9FFFBEEFDD15
:10256000DFFCCF1BBF3AAF599F788F8891A981CAF2
:10257000B1EBA10CD12DC14EF16FE18010A100C2D1
:1025800030E3200450254046706760B9839893FB80
:10259000A3DAB33DC31CD37FE35EF3B1029012F321
:1025A00022D2323542145277625672EAB5CBA5A8D0
:1025B0009589856EF54FE52CD50DC5E234C324A071
:1025C0001481046674476424540544DBA7FAB79960
:1025D00087B8975FE77EF71DC73CD7D326F23691C1
:1025E00006B01657667676154634564CD96DC90E28
:1025F000F92FE9C899E9898AB9ABA9445865480611
:10260000782768C018E1088238A3287DCB5CDB3FBF
:10261000EB1EFBF98BD89BBBAB9ABB754A545A3760
:102620006A167AF10AD01AB32A923A2EFD0FED6C8F
:10263000DD4DCDAABD8BADE89DC98D267C076C64B0
:102640005C454CA23C832CE01CC10C1FEF3EFF5D9F
:10265000CF7CDF9BAFBABFD98FF89F176E367E5500
:102660004E745E932EB23ED10EF01E7C3C3E5E2B2D
:102670003D3F2F5B5D3B2C2A225C005761726E69E7
:102680006E673A005344204361726420496E697456
:10269000204661696C0053442063617264206F6B53
:1026A0000A006F70656E526F6F74206661696C65A9
:1026B000640A00766F6C756D652E696E69742066AC
:1026C00061696C65640A004E6F2053442063617237
:1026D000640A000A4D3234004D3233202573002E37
:1026E0000A006F70656E206661696C65642C204617
:1026F000696C653A200046696C652073656C65639A
:102700007465640A002053697A653A200046696C52
:1027100065206F70656E65643A2000454E44205315
:102720005542524F5554494E450A002220706F734E
:10273000002220706172656E743A22005355425235
:102740004F5554494E452043414C4C2074617267AB
:1027500065743A220053756263616C6C204F766534
:1027600072666C6F77004578636565646564206D9B
:10277000617820535542524F5554494E4520646567
:102780007074683A0057726974696E6720746F20BC
:1027900066696C653A2000667265736800646F69EB
:1027A0006E67002066696C653A20004E6F772000E6
:1027B0002F6175746F25632E670020014001300181
:1027C0003B01400136016001310170012C01900193
:1027D0002701B0012201C0011D01F0011801100202
:1027E000130130020E016002090190020401C002CF
:1027F000FF000003FA004003F5008003F000D0035F
:10280000EB002004E6007004E100E004DC00400579
:10281000D700C005D2004006CD00D006C800800712
:10282000C3003008BE00F008B900C009B400B00A07
:10283000AF00B00BAA00D00CA500000EA000500FF6
:102840009B00C01096005012910000148C00C0151F
:102850008700B0178200B0197D00D01B7800001EE1
:10286000730040206E0090226900F024640040272D
:102870005F0090295A00E02B5500102E50002030A8
:102880004B0010324600E033410090353C001037D9
:10289000370070383200A0392D00B03A2800A03B34
:1028A0002300603C1E00103D1900903D1400103EB6
:1028B0000F00703E0A00C03E0500003F0000403F90
:1028C000FBFF803FF6FFC03FF1FF2020506C616EA0
:1028D0006E657242756666657242797465733A20F8
:1028E000002046726565204D656D6F72793A200053
:1028F00020436F6D70696C65643A205365702032B7
:102900003620323032350A00204C61737420557005
:1029100064617465643A20323032352D30392D329D
:1029200035207C20417574686F723A2053796C327F
:1029300031202B20436C617564650A004D61726C17
:10294000696E206275676669782D322E312E780A9D
:102950000020536F667477617265205265736574E9
:102960000A00205761746368646F6720526573655D
:10297000740A002042726F776E206F757420526562
:102980007365740A002045787465726E616C20521C
:10299000657365740A00506F77657255700A00732D
:1029A000746172740A004732385859004D31303022
:1029B00031006572726F722077726974696E672078
:1029C000746F2066696C650A00446F6E65207361E0
:1029D00076696E672066696C652E0A004D32390093
:1029E000456E6473746F7073002553202563202532
:1029F0006320256320256300205A3A0020593A00BD
:102A000020583A00656E6473746F7073206869743F
:102A10003A200000002200250028002B002E003163
:102A200000340002010000050108010B0105050545
:102A300005070508080808020202020A0A08080435
:102A40000404040101010101010101030303030363
:102A5000030303040707070C0C0C0C0C0C0C0C02F2
:102A600002020206060606060606060B0B0B0B0BF9
:102A70000B0B0B01021020200808102040102040F2
:102A80008002010201080402010102040810204032
:102A90008080402010080402018004020180402050
:102AA0001008040201080402010102040810204079
:102AB00080010204081020408000000A0B02090C6B
:102AC0000D0E0807030401000000000000000000D4
:102AD00000000000000000000000000000000000F6
:102AE00000000000001211100000000000000000B3
:102AF00000000000000000000000000000000000D6
:102B0000486F6D696E67204661696C656400FFFF00
:102B1000FF205A3A200020593A200042656420588C
:102B20003A200050726F62696E67204661696C6579
:102B3000640A0050726F62696E67204661696C6555
:102B4000640043616E6E6F74206F70656E207375E4
:102B5000626469722000524553554D45204F5054D0
:102B6000494F4E533A0048656174696E672E2E2EA8
:102B7000000000436C69636B20746F2068656174AA
:102B8000000000526573756D696E672E2E2E000071
:102B90000050757267696E672E2E2E0000004C6F14
:102BA0006164696E672E2E2E000000496E73657297
:102BB0007420616E6420436C69636B000000436C99
:102BC00069636B20746F20636F6E74696E75650046
:102BD0000000456A656374696E672E2E2E00000042
:102BE000506C6561736520776169742E2E2E00002C
:102BF000005061726B696E672E2E2E000000220A53
:102C000000556E6B6E6F776E20636F6D6D616E64D5
:102C10003A2022006F6B0057616E68616F20443963
:102C20002052656164792E005072696E74696E6716
:102C30002E2E2E005072696E74205061757365647B
:102C4000004572726F722077726974696E672074C2
:102C50006F20454550524F4D210A00DB0FC93F45BB
:102C6000BCDA3F8FB30240FCF0274056946140FE2F
:102C70004B9B4084A5D840E0231841346A5641E874
:102C800059974164DBD5416E271742B4B75542CE00
:102C90001A9742C8AED542B5885A43D40684BFA617
:102CA0005FA7BF7443E0BF10B11AC01C2C58C0E826
:102CB000F697C0B849D6C04E4E17C124D355C1802F
:102CC0002497C1A0B5D5C1121A17C244AE55C27817
:102CD0001797C26CACD5C267885AC320746F6F2037
:102CE0006C6F6E6720657874727573696F6E207093
:102CF000726576656E7465640A0020636F6C64208B
:102D0000657874727573696F6E2070726576656E22
:102D10007465640A0020453A00205A3A0020593A66
:102D200000583A00D0D295DB11241FBECFEFD1E27C
:102D3000DEBFCDBF00E00CBF84B78093FB1414BE90
:102D40000FB6F894A8958091600088618093600028
:102D5000109260000FBE14E0A0E0B2E0E0E7F5EDF5
:102D600001E00BBF02C007900D92AE3FB107D9F74B
:102D700024E1AEEFB4E001C01D92AB3FB207E1F732
:102D800016E1C3E9D6E100E006C021970109802FD2
:102D9000FE010E942BE7C239D10780E00807A9F79E
:102DA0000E94D6D30C94A7EA0C94000080913507BA
:102DB0008F5F809335078A3018F080EF8093660923
:102DC0000895CF93FC01808191818115904429F56C
:102DD000FB01C1816C2F70E090E080E00E9487E0F1
:102DE00020E030E048EC52E40E946DE918160CF443
:102DF000C4E62C2F30E0AFEFB0E00E94F5E624E609
:102E000030E040E050E00E94CFE62F3F310519F05E
:102E100010F02FEF30E02093AE09CF91089510927B
:102E2000390781E080933B070895FB0181818F3F43
:102E300019F0882381F008952CE330E030930E02DE
:102E400020930D028093380785E08093090281E08A
:102E500080933B07089588EC90E090930E02809356
:102E60000D0210923807F0CFFB018181811103C060
:102E700086E1809366090895FB01818180931107A3
:102E800081E080933B070895FB0180819181982721
:102E900089279827893C910510F088EC90E0909361
:102EA0000C0280930B0281E080933B070895FB01A5
:102EB000818191E0980F923028F48093110281E093
:102EC00080933B070895FB01818180930A0281E092
:102ED00080933B070895FC01808191818B30904263
:102EE00059F5FB01608171817627672776277093FA
:102EF000190260931802072E000C880B990B0E9490
:102F000089E02AE037ED43E25CE30E94E8E02091AB
:102F10004C0730914D0740914E0750914F070E944A
:102F2000E8E060935F027093600280936102909387
:102F3000620281E080933B070895CF92DF92EF9287
:102F4000FF92CF93DF93FB01C081D181DC27CD2796
:102F5000DC27BE010D2E000C880B990B0E9489E026
:102F60006B017C0120E030E040E251E40E9483E00C
:102F700087FD0DC020E030E04AEF53E4C701B60101
:102F80000E946DE918162CF4C4EFD1E002C0CAE02B
:102F9000D0E0D0931302C093120281E080933B07EC
:102FA000DF91CF91FF90EF90DF90CF900895CF9376
:102FB000DF93C091ED07D091EE0781E0CE31D105CE
:102FC000E4F020E030E040E05FE36091E9077091D9
:102FD000EA078091EB079091EC070E9446E70E9478
:102FE0008AE86C1B7D0B77FF03C0719561957109B1
:102FF00081E0633071050CF080E0DF91CF9108959E
:1030000087FD26C0811111C08091B20A2091B30AB8
:103010008217F1F0E22FF0E0EE54F54F828190E05C
:103020002F5F2F772093B30A0895813089F4809120
:10303000300A2091310A821759F0E22FF0E0E05D6A
:10304000F54F828190E02F5F2F772093310A08950A
:103050008FEF9FEF0895CF93DF93DB01F9019C91F0
:103060009130C1F0943080F094509C938830D1F42A
:1030700080819181009771F0019791838083480F3F
:10308000591FEA01188206C08C3539F49C5F9C9365
:10309000943041F4DF91CF9108958B3339F781E07B
:1030A0008C93F8CF20813181B9016F5F7F4F71839D
:1030B0006083420F531FEA018883808191818F359D
:1030C00091056CF7E7CF0F931F9381E000915612A3
:1030D000109157122091581230915912409152126A
:1030E00050915312609154127091551204171507A4
:1030F0002607370708F480E01F910F91089590E0AC
:1031000080E0089520913B11833021F425FD0CC00F
:1031100024FD0CC030E0A90102C0559547958A9561
:10312000E2F7CA018170089581E0089580E0089572
:103130008091810584FD0BC08091830587FD07C0C8
:1031400090918405937081E019F480E0089581E006
:1031500008952FEB280F2A3108F047C0E22FF0E046
:103160008091810590918205A0918305B09184059D
:1031700004C0B695A795979587952A95D2F780FDB7
:1031800002C081700895E959FA4FE081EE2341F1C0
:103190008091750990917609E80FF92FF11D8081D2
:1031A00090ED980F9A3030F08E3251F48181805337
:1031B0008A3098F4F0935E05E0935D0581E0089510
:1031C0008D3211F08B3249F4818190ED980F9A3055
:1031D00088F38E3211F48281EACFF0E0E0E0EACFAA
:1031E00010925E0510925D05E9CF80E00895B1DF91
:1031F000882341F081E020915D0530915E05232B0D
:1032000009F480E008958091500781110EC020914B
:103210001E0230911F022150310981E04091C60BFE
:103220005091C70B421753070CF080E0089591E0CE
:10323000909313099091D10095FD0CC09091D0000E
:1032400095FF08C08093D6008091D0008064809361
:10325000D00008952091DB062F5F2F720FB607FC78
:1032600027C09091DC06921328C09091D00095FF62
:103270001EC09091DC064091DB06941306C090912D
:10328000D1009F7D9093D10012C0E92FF0E0E5526C
:10329000F94F32819F5F9F723093D6009093DC0686
:1032A0003091D00030643093D000491741F3D9CF2A
:1032B0009091DC06921301C0FBCFE091DB06F0E0B9
:1032C000E552F94F82832093DB068091D100806222
:1032D0008093D10008950F931F93CF93DF93EC0158
:1032E000162F042F8AE5A3DF85EAA1DF83E0800F94
:1032F0009EDF812F9CDF8D2F9ADF8C2FDF91CF9166
:103300001F910F9194CF40E355E760E070E08CE5AA
:1033100096E10C94968CFC014281442339F084811F
:103320009581009719F050E00C9429EA0895CF9305
:10333000FB01C181C13031F40E941C8B811104C09A
:10334000C0933B07CF9108950E94458AF9CFCF9350
:10335000DF93EB010E94758C81110AC040E355E7B1
:1033600060E070E08CE596E1DF91CF910C94968C53
:1033700088819981982789279827209138072F3F9E
:1033800029F02223A9F0DF91CF9108958536910588
:1033900014F084E690E08530910514F485E090E027
:1033A00090930E0280930D0281E080933B07EBCF58
:1033B000863F910584F385EF90E0EDCFE4E1F7E0FF
:1033C00081E2DF011D928A95E9F781E080933B0756
:1033D00008951F93CF93DF9300D01F92CDB7DEB730
:1033E00080911107813059F0B8F1823081F10F904E
:1033F0000F900F900F90DF91CF911F91089520E0D3
:1034000030E040E85FE3FB0181818230A1F148F5C3
:10341000882319F05058813051F710E084E0189F4C
:10342000F0011124EC5EF54F6081718182819381FE
:103430000E9446E769837A838B839C83612FCE0148
:1034400001960E943BBE81E080933B07D0CF2DECDC
:103450003CEC4CEC5DE3D7CF20E030E040E251E4BF
:10346000D2CF843029F030F05058853009F0BFCFEA
:1034700012E0D4CF505811E0D1CF0F931F93CF93C8
:10348000DF9300D01F92CDB7DEB78C01FB016081C6
:103490007181762767277627072E000C880B990BFA
:1034A0000E9489E020E030E040E251E40E9422E8FE
:1034B00069837A838B839C83F80180819181813237
:1034C000F0E29F0749F0823220E29207B1F08032A9
:1034D000904251F460E001C061E0CE0101960E948B
:1034E0003BBE81E080933B070F900F900F900F90B1
:1034F000DF91CF911F910F91089562E0EECF0F936E
:103500001F93CF93DF93CDB7DEB72C970FB6F89408
:10351000DEBF0FBECDBF8B018091690987708730F8
:1035200099F040E355E760E070E085EC95E10E949A
:10353000968C2C960FB6F894DEBF0FBECDBFDF91F0
:10354000CF911F910F9108950E94758C811107C032
:1035500040E355E760E070E08CE596E1E8CFF801E4
:103560008181833029F148F48130C9F0823009F734
:1035700080E090E0A0EFB1E416C0843009F453C0BD
:103580008530B9F680E090E0A0EFB1E48D839E83B2
:10359000AF83B88780E090E0A7E8B3E415C080E08F
:1035A00090E0A6E1B3E48D839E83AF83B8870CC01F
:1035B00080E090E0A7E8B3E48D839E83AF83B88773
:1035C00080E090E0A0EFB1E489879A87AB87BC8761
:1035D00020E030E040E850E460911C0A70911D0A40
:1035E00080911E0A90911F0A0E9446E769837A83A0
:1035F0008B839C8362E0CE0101960E943BBE60E01B
:10360000CE0105960E943BBE61E0CE0109960E9464
:103610003BBE19821A821B821C8262E0CE01019697
:103620000E943BBE86CF80E090E0A7E8B3E4BBCF2A
:10363000CF93DF93EB010E94758C81110AC040E3A8
:1036400055E760E070E08CE596E1DF91CF910C9456
:10365000968C809111028F5F8230E0F420E030E0A0
:103660004AE253E46091C20B7091C30B8091C40B8A
:103670009091C50B0E9483E087FF07C040E355E7A8
:1036800060E070E085ED95E1E0CF8981882329F045
:10369000813029F1DF91CF91089560910B027091F3
:1036A0000C0290E080E00E9487E09B01AC016091F9
:1036B000200A7091210A8091220A9091230A0E9487
:1036C00045E76093200A7093210A8093220A909321
:1036D000230A88EC94E0DF91CF910C9425836091CC
:1036E0000B0270910C0290E080E00E9487E0209134
:1036F000200A3091210A4091220A5091230A0E9407
:1037000046E7DFCF0F931F93CF93DF9300D01F9235
:10371000CDB7DEB78B010E94758C811111C040E3DB
:1037200055E760E070E08CE596E10E94968C0F9082
:103730000F900F900F90DF91CF911F910F910895EF
:10374000F801818190910A02923049F0933079F723
:10375000882301F18AE097EDA3E2BCEB06C0882341
:10376000A1F08DEC9CECACECBDEB89839A83AB8330
:10377000BC83CE0101960E940EBE0E94B6C00E947C
:10378000878C81E080933B07D2CF8DEC9CECACEC36
:10379000BDE3EBCF8AE097EDA3E2BCE3E6CF0F9366
:1037A0001F93CF93DF9300D01F92CDB7DEB78B016D
:1037B0000E94758C81110AC0A6DD0F900F900F90AA
:1037C0000F90DF91CF911F910F910895F8016081C3
:1037D0007181762767277627072E000C880B990BB7
:1037E0000E9489E020E030E048EC52E40E9422E8A8
:1037F0002091F00B3091F10B4091F20B5091F30BB3
:103800000E9445E769837A838B839C83CE0101966E
:103810000E940EBE0E94B6C00E94878C81E08093F9
:103820003B07CBCFCF93DF9300D01F92CDB7DEB74E
:10383000FB018181882349F08130D9F00F900F90EE
:103840000F900F90DF91CF9108958AE097EDA3E25A
:10385000BCE389839A83AB83BC83CE0101960E942B
:103860000EBE0E94B6C00E94878C81E080933B0709
:10387000E5CF8AE097EDA3E2BCEBEBCFCF93DF93EC
:1038800000D01F92CDB7DEB7FB0160817181762732
:1038900067277627072E000C880B990B0E9489E07A
:1038A00020E030E048EC52E40E9422E82091F00B46
:1038B0003091F10B4091F20B5091F30B0E9445E7D0
:1038C00069837A838B839C83CE0101960E940EBE0E
:1038D0000E94B6C00E94878C81E080933B070F90C6
:1038E0000F900F900F90DF91CF910895FB01818190
:1038F000813031F0823039F081E080933B070895C8
:103900000E948376F9CF0E945B76F6CFCF93DF9348
:1039100000D01F92CDB7DEB7FB0181818F3F99F0B8
:10392000882359F08E3F19F519821A821B821C8256
:1039300066E0CE0101960E94968B19821A821B8244
:103940001C8260E005C019821A821B821C8266E01C
:10395000CE0101960E94968B40E355E760E070E04F
:1039600081EB95E10E94968C81E080933B070F905C
:103970000F900F900F90DF91CF910895CF93DF9329
:1039800000D01F92CDB7DEB7FB0160817181762731
:1039900067277627FC01808191818131F0E29F07C2
:1039A00051F082319042D1F00F900F900F900F9014
:1039B000DF91CF910895072E000C880B990B0E9480
:1039C00089E069837A838B839C8366E0CE010196CC
:1039D0000E94968B81E080933B07E6CF072E000C78
:1039E000880B990B0E9489E069837A838B839C837F
:1039F00060E0ECCFCF93DF9300D01F92CDB7DEB75E
:103A0000FB0181818230B1F08330C1F1813061F5F9
:103A100080E090E0A8E4B3E489839A83AB83BC831D
:103A200060E0CE0101960E94968B80E090E0A0E7D6
:103A3000B2E411C080E090E0A0E7B3E489839A8308
:103A4000AB83BC8360E0CE0101960E94968B80E040
:103A500090E0A0EAB2E489839A83AB83BC8366E0FA
:103A6000CE0101960E94968B81E080933B070F90D8
:103A70000F900F900F90DF91CF91089580E090E02C
:103A8000A0E7B3E4C9CFCF93FB01C181C13051F4AA
:103A90000E94028B811108C00E941C8B811104C0FE
:103AA000C0933B07CF910895CF910C94458ACF9353
:103AB000FB01C181C13031F40E94028B811104C02D
:103AC000C0933B07CF91089546E955E16DE975E153
:103AD00084E00E942CBA84E39CE20E94E7B682E96B
:103AE00095E19093240980932309ECCF80910F02F4
:103AF0009091100297FF08C040E355E760E070E046
:103B000081E895E10C94968C0E940DCE882381F07B
:103B100080915A1285FD0CC00E94758C811101C0E4
:103B2000F2CB87E799E00E9421C283E08093660987
:103B30000895CF93DF93FB0181818130D1F040F074
:103B4000823019F181E080933B07DF91CF91089596
:103B500080915A1286FDF9CF1092370710923607DE
:103B60008FEF9FEF9093100280930F020E94ECC1A1
:103B7000E9CF8091360790913707009731F301978D
:103B80009093370780933607DDCFC0913607D091E9
:103B9000370726960E94C1CD8C179D07B0F2809101
:103BA0003607909137070196EBCF1F93CF93DF93A2
:103BB000EC01FB011181888199818130904289F467
:103BC00080915A1284FD0BC040E355E760E070E03D
:103BD00087E595E1DF91CF911F910C94968C0E941F
:103BE000D5C1888199818230904279F40E94028BFC
:103BF000882339F040E355E760E070E08EE395E11B
:103C0000E9CF0E941C8B8111F5CF88819981833087
:103C1000904231F010936609DF91CF911F91089582
:103C20000E94028B8111F6CF0E941C8B8111F2CF72
:103C300040E355E760E070E087E295E1CBCFEF929B
:103C4000FF920F931F93CF93DF93CDB7DEB76497A7
:103C50000FB6F894DEBF0FBECDBF7C01FB016081C3
:103C60007181828193818E010F5F1F4F248141E01A
:103C70000E94AFDBF70101900020E9F79F0121507E
:103C800031092E193F092E31310550F44FE150E032
:103C9000421B530BBC01C701820F931F0E94CCDF54
:103CA000C70164960FB6F894DEBF0FBECDBFDF919B
:103CB000CF911F910F91FF90EF9008950C9497B5BD
:103CC000682F70E090E080E00C9466B680915D050E
:103CD00090915E05009731F04AE050E070E060E0BE
:103CE0000C944FDE60E070E0CB01089580915D059B
:103CF00090915E05009731F04AE050E070E060E09E
:103D00000C9422DD60E070E0CB010895EFDF97FDB9
:103D10000AC0ECDF6F3F71058105910509F02CF4B5
:103D2000E5DF862F089580E008958FEF0895CF9303
:103D3000C62F5DDA882311F0CF91E8CF8C2FCF9179
:103D4000089580915D0590915E05892B39F0DEDF45
:103D500091E0811101C090E0892F089591E0FCCF9E
:103D6000CF93DF93C82FD62F42DA882319F0DF9143
:103D7000CF91E7CF8C2FEDD9811101C08D2FDF912D
:103D8000CF910895B3DFCB010895CF93DF93EB017B
:103D90002EDA882319F0DF91CF91F4CFCE01DF9195
:103DA000CF9108950F931F93CF9380915D059091CC
:103DB0005E05009709F1FC018F01C1912C2F2F7D29
:103DC000A1F0C53431F0C53621F0C83511F0C8373F
:103DD00099F7F801108270E060E00E94CCDBF801F6
:103DE000C083CF911F910F91089570E060E0CF9153
:103DF0001F910F910C94CCDB60E070E0CB01F1CF10
:103E00000F931F93CF93DF939091C80993FD7FC0C9
:103E1000C82F83E5ECD9D82F882329F1B3DF0E947E
:103E2000187761E08C2F0E943A896091C60B7091DF
:103E3000C70B072E000C880B990B0E9489E020917C
:103E4000C20B3091C30B4091C40B5091C50B0E9423
:103E50006DE918160CF445C085E29FE0DD2309F4F6
:103E600042C01D2F03C0C11137C010E083E5BFD988
:103E7000882329F087DF909327028093260282E42B
:103E8000B6D9882329F07EDF9093290280932802F7
:103E900086E45FD98823B9F185DF60932A027093A5
:103EA0002B0280932C0290932D0201E020E030E061
:103EB000A9010E9483E0811101C000E000932E025D
:103EC000CC2329F1112319F16D2F80E0DF91CF91DF
:103ED0001F910F910C949E9A82E589D981119ECFF2
:103EE000C4CF84EA90E19F938F9380E39FE09F93F8
:103EF0008F931F920E945FC00F900F900F900F90B2
:103F00000F9011E0B3CF60E070E0CB01C6CFDF913E
:103F1000CF911F910F910895CF92DF92EF92FF9270
:103F20006A017B0164D9882329F0FF90EF90DF902C
:103F3000CF9038CFC701B601FF90EF90DF90CF90C0
:103F400008954F925F926F927F92AF92BF92CF92FD
:103F5000DF92EF92FF920F931F93CF93DF9389E14C
:103F6000A82E84E0B82E04E11AE0CCE3D7E094E276
:103F7000C92E9AE0D92EF12CF50181915F0137D934
:103F8000882339F00FDF2B013C018091C109882380
:103F900051F0F80180819181A281B3818883998356
:103FA000AA83BB8312C08F2DADD8882309F463C0C8
:103FB000F8012081318142815381C301B2010E9405
:103FC00046E7688379838A839B83F3940C5F1F4F52
:103FD0002496F4E0CF0ED11C83E0F812CDCF85E417
:103FE00006D9882309F451C0DDDE6B017C0183E032
:103FF00089D8882371F02091200A3091210A4091BC
:10400000220A5091230AC701B6010E9446E76B01BC
:104010007C01C0924807D0924907E0924A07F0928B
:104020004B0740E050E0BA0186E476DF20E030E064
:10403000A9010E946DE918167CF4B4DE20E030E09E
:1040400040E752E40E9422E8609314027093150244
:104050008093160290931702DF91CF911F910F91D9
:10406000FF90EF90DF90CF90BF90AF907F906F90D8
:104070005F904F900895F6012081318142815381F4
:10408000C301B2010E9445E79CCF8091200A909124
:10409000210AA091220AB091230A809348079093A5
:1040A0004907A0934A07B0934B07BBCFEF92FF920B
:1040B0000F931F93CF93DF93CDB7DEB7A4970FB6BF
:1040C000F894DEBF0FBECDBFF82E8093C3098FE1F9
:1040D0008F1508F489C08091C209F81624F081E098
:1040E0008F0D8093C20981E090E00F2C02C0880FF1
:1040F000991F0A94E2F7092E000CAA0BBB0B409102
:10410000C4095091C5096091C6097091C7098423FB
:104110009523A623B72321E0892B8A2B8B2B09F427
:1041200020E02093C109F7FC62C04FE150E06AE350
:1041300075E08E010F5F1F4FC8010E947DDFF801FF
:1041400001900020E9F7CF010197801B910B8E3180
:10415000910560F420E2F801E80FF91F20838D310A
:10416000910521F08C0F9D1FFC0112828F2D0F2CC9
:10417000000C990B9F93FF928EEE94E09F938F9388
:104180007E01F0E2EF0EF11CFF92EF920E9477EABF
:10419000F80101900020E9F7CF010197801B910BF6
:1041A0000F900F900F900F900F900F908E31910500
:1041B00048F44FE150E0481B590BB701800F911FA5
:1041C0000E94CCDF40E060E0C8010E946D8AA496A6
:1041D0000FB6F894DEBF0FBECDBFDF91CF911F9118
:1041E0000F91FF90EF9008951092C1099CCF0E940B
:1041F000A6B9EDCFAF92BF92CF92DF92EF920F931D
:104200001F93CF935B01C42F122F62E864D8C501BE
:104210000E9491DF6C018C2F90E0C816D90630F512
:10422000C114D10441F1CC19112381F0011111C045
:1042300010E000E00C151D05F1F0F501E00FF11F95
:1042400084910E9417190F5F1F4FF4CF10E00111E6
:1042500007C08C199D09969587951C2F181BC82F90
:10426000C15038F080E20E941719FACF6C01C0E00B
:10427000DFCFC12FDDCF10E2E11001C010E0C1504F
:1042800020F0812F0E941719FACFCF911F910F9123
:10429000EF90DF90CF90BF90AF900895AF92BF9214
:1042A000CF92DF92EF920F931F93CF935B01C42FB6
:1042B000122F62E810D8F50101900020E9F731973C
:1042C0006F01CA18DB088C2F90E0C816D90618F5C4
:1042D000C114D10429F1CC19112369F001110EC0C8
:1042E000CA0CDB1CCA14DB04D9F0F50181915F0113
:1042F0000E941719F7CF10E0011107C08C199D0912
:10430000969587951C2F181BC82FC15038F080E256
:104310000E941719FACF6C01C0E0E2CFC12FE0CFA5
:1043200010E2E11001C010E0C15020F0812F0E9486
:104330001719FACFCF911F910F91EF90DF90CF9087
:10434000BF90AF900895FF920F931F93CF93DF9389
:10435000F62E072F142F62E80E946B19CF2DD02F55
:10436000115020F089910E941719FACFDF91CF9157
:104370001F910F91FF90089529E431E1F9014591D2
:1043800054914115510571F04817590741F4CB017B
:104390004AE050E0B9010E9457DF81E00895265FAE
:1043A0003F4F61F780E00895CF93DF931F921F92F4
:1043B000CDB7DEB7853608F084E6682F70E090E070
:1043C00080E00E9489E020E030E04FE753E40E9463
:1043D000E8E020E030E048EC52E40E9422E820E0EF
:1043E00030E0A9010E9446E70E9479E96093EE035C
:1043F0001A821982698342E0BE016F5F7F4F81EAB2
:1044000090E0A1DF0F900F90DF91CF910895FB0115
:104410008181CADF0C94878CCF93DF931F921F9208
:10442000CDB7DEB7853608F084E680932002682F8A
:1044300070E090E080E00E9487E020E030E04EEB0A
:1044400052E40E94E8E020E030E048EC52E40E94B0
:1044500022E820E030E040EA50E40E9446E70E9473
:1044600079E969836A8342E0BE016F5F7F4F82E82A
:1044700090E069DF0F900F90DF91CF910895FB01DD
:104480008181CADF0C94878C6091EE0370E090E02C
:1044900080E00E9487E020E030E048EC52E40E9497
:1044A000E8E020E030E04FE753E40E9422E820E01B
:1044B00030E0A9010E9446E70E9479E9862F08951D
:1044C00080911307882321F080911207811109C080
:1044D00041E063E88FE090E00E946B1981E00C946A
:1044E00017190895CF93DF93C091ED07D091EE0790
:1044F000209729F16091E9077091EA078091EB0715
:104500009091EC070E948AE86E5F7F4F24976C17AA
:104510007D07ACF47093D5076093D4070E9437C031
:10452000605A75418F4F9F4F6093D6077093D7079E
:104530008093D8079093D907DF91CF910895109277
:10454000D6071092D7071092D8071092D907F4CF48
:104550002F923F924F925F926F927F928F929F9293
:10456000AF92BF92CF92DF92EF92FF920F931F9381
:10457000CF93DF93D62FC72FFC0180809180A2803C
:10458000B380C501B40120E831E541E050E00E946C
:10459000ADE6C9016DE671E00E9404E76B017C01A4
:1045A000C501B40120E13EE040E050E00E94ADE6EC
:1045B000CA01B90128E130E040E050E00E94ADE6D8
:1045C000362E272E062F172F8CE3482E512C612CC8
:1045D000712CC501B401A30192010E94ADE6B62E73
:1045E000A72ECA01B901A30192010E94ADE6CB0139
:1045F000C114D10479F1AF92BF927F936F932F9240
:104600003F92FF92EF92DF92CF9281E19FE09F93E2
:104610008F93CF93DF930E941CE08DB79EB70E96C9
:104620000FB6F8949EBF0FBE8DBF8D2F9C2FDF91CC
:10463000CF911F910F91FF90EF90DF90CF90BF909F
:10464000AF909F908F907F906F905F904F903F9032
:104650002F900895E114F104C9F0AF92BF927F93B7
:104660006F932F923F92FF92EF9281E09FE09F9392
:104670008F93CF93DF930E941CE0EDB7FEB73C967B
:104680000FB6F894FEBF0FBEEDBFCFCF012BB9F030
:10469000AF92BF927F936F932F923F9285EF9EE0F0
:1046A0009F938F93CF93DF930E941CE08DB79EB7AB
:1046B0000A960FB6F8949EBF0FBE8DBFB6CF892B5A
:1046C000A9F0AF92BF927F936F938DEE9EE09F9380
:1046D0008F93CF93DF930E941CE0EDB7FEB738961F
:1046E0000FB6F894FEBF0FBEEDBF9FCFAF92BF9243
:1046F00089EE9EE09F938F93CF93DF930E941CE0FF
:104700000F900F900F900F900F900F908ECF8F9271
:104710009F92AF92BF92CF92DF92EF92FF920F9350
:104720001F93CF93DF9310928605109285052FE398
:1047300020938905109288051092870510928105B3
:104740001092820510928305109284059C01F90154
:1047500090812F5F3F4F9032D1F39E34C9F4818115
:1047600090ED980F9A3020F08D3211F08B3281F459
:1047700032969F012F5F3F4F808180538A3008F42B
:104780006BC09F012F5F3F4F8081803209F466C06C
:10479000F0937609E09375098F010F5F1F4FC08179
:1047A0006AE270E0C8010E944CEA009731F0FC0117
:1047B000319780818032E1F31182CD3421F0C4350C
:1047C00011F0C734E1F5F80180810F5F1F4F80328F
:1047D000D1F380538A3098F5C093890530E020E00A
:1047E0006AE0AF014F5F5F4F629FC001639F900D12
:1047F00011249C01205331098081280F311D87FD30
:104800003A95FA01808180538A3058F330938805B5
:1048100020938705DF0131968C918032D9F3CD3416
:1048200049F52E31310539F0D8F42731310519F029
:104830002C313105F9F4B0938605A0938505DF91FD
:10484000CF911F910F91FF90EF90DF90CF90BF908D
:10485000AF909F908F900895F9018BCFF90191CF80
:104860002537310538F02737310528F3203A83E022
:10487000380709F3D091750940E050E0BA0110E023
:1048800000E0C12CD12C7601C394FD0131968C91AE
:10489000882309F47FC08132E1F4CD34D1F4203291
:1048A0003105B9F4409381055093820560938305E7
:1048B00070938405F0938605E093850563E270E0CC
:1048C000CF010E944CEA009709F4B9CFFC01108295
:1048D000B6CF81548A3108F058C0DF019D919032E3
:1048E00091F0A0EDA90FAA30E8F09E3271F4918109
:1048F00090539A30B8F00115110519F48F01015049
:10490000110990E013C0FD01E8CF9D3211F09B32F8
:1049100091F79181A0EDA90FAA3020F09E3259F7AE
:104920009281E6CF9E2F9D1B309759F3A82FB0E0C0
:104930004601570104C0880C991CAA1CBB1C8A950F
:10494000D2F7482959296A297B29A959BA4F9C933A
:1049500080818154DF018A3108F497CFDF01819192
:10496000882309F492CF90ED980F9A30B8F393ED25
:10497000980F923098F38B3289F3CD010196EC9128
:10498000E03209F082CFDC01F8CF0115110501F703
:104990008D01DECF10938605009385054093810538
:1049A00050938205609383057093840548CFCF931D
:1049B000DF93EC018991882319F00E9497B5FACF13
:1049C0008DE00E9497B58AE0DF91CF910C9497B566
:1049D0000C9466B690916A09992321F0682F80E0C3
:1049E0000E94A58680E00895CF93DF93C091C60B07
:1049F000D091C70B209729F16091C20B7091C30B26
:104A00008091C40B9091C50B0E948AE86E5F7F4F26
:104A100024976C177D07ACF47093F1076093F0074F
:104A20000E9437C0605C73468F4F9F4F6093F207C0
:104A30007093F3078093F4079093F507DF91CF917C
:104A400008951092F2071092F3071092F407109253
:104A5000F507F4CFCF93DF93EC018991882319F008
:104A60000E9497B5FACFDF91CF910895CF93C1E01F
:104A700020E030E0A9016091590770915A078091B8
:104A80005B0790915C070E9483E0811101C0C0E048
:104A90008C2FCF910895CF93C82F882319F0E6DF8C
:104AA0008823C9F080918D098C17A9F00E94B877EE
:104AB00084E19AE00E945D7980918D0991E08927D7
:104AC00080938D09882321F084E19AE00E948A7600
:104AD000CF910C946185CF9108950E94758C8111BE
:104AE00002C00C94831980E0D6DF0E94878C81E09D
:104AF00080933B0708954F925F926F927F928F92BF
:104B00009F92AF92BF92CF92DF92EF92FF920F935C
:104B10001F93CF93DF93EC012091510730915207FF
:104B20004091530750915407688179818A819B8114
:104B30000E9445E76B017C01209155073091560793
:104B400040915707509158076C817D818E819F81DC
:104B50000E9445E74B015C01A70196016091450564
:104B60007091460580914705909148050E9483E029
:104B7000882309F45AC0C0924505D0924605E092B8
:104B80004705F092480520913D0530913E05409142
:104B90003F0550914005C701B6010E94E8E02B0196
:104BA0003C010E94BBE86B017C0120E030E0A901E0
:104BB0000E9483E087FD7AC020E030E040E850E4C6
:104BC000C701B6010E946DE9181634F4C12CD12C2E
:104BD000C0E8EC2EC0E4FC2EA7019601C301B2018F
:104BE0000E9445E72B013C0120E030E0A9010E9432
:104BF00083E087FD5FC04092350550923605609294
:104C0000370570923805C701B6010E948AE86093A3
:104C10003305062E000C770B6F5F7F4F64307105F4
:104C200014F064E070E060933105D0912F0510918D
:104C30003305A50194016091490570914A05809161
:104C40004B0590914C050E9483E081113CC0D1132B
:104C500094C0209117053091180540911905509185
:104C60001A05609135057091360580913705909150
:104C700038050E94E8E020911B0530911C05409109
:104C80001D0550911E050E9446E7DF91CF911F91AF
:104C90000F91FF90EF90DF90CF90BF90AF909F90DB
:104CA0008F907F906F905F904F900895C12CD12C82
:104CB000760192CF10923505109236051092370585
:104CC00010923805A0CF8092490590924A05A09293
:104CD0004B05B0924C052091410530914205409121
:104CE000430550914405C501B4010E94E8E04B0121
:104CF0005C010E94BBE86B017C0120E030E0A9016F
:104D00000E9483E087FDFDC020E030E040E850E4F1
:104D1000C701B6010E946DE9181634F4C12CD12CDC
:104D2000B0E8EB2EB0E4FB2EA7019601C501B4015B
:104D30000E9445E74B015C0120E030E0A9010E94A0
:104D400083E087FDE2C08092390590923A05A092F7
:104D50003B05B0923C05C701B6010E948AE860930A
:104D60003405062E000C770B6F5F7F4F64307105A2
:104D700014F064E070E060933205C0913405D11303
:104D800005C0809130058C1709F470C080913305FF
:104D9000909134059093300580932F050C2E000CD4
:104DA000DD0B25E01203C0011124FC01EC0FFD1FF7
:104DB000EE0FFF1FEE0FFF1FEF59F84F20813181DB
:104DC0004281538120932B0530932C0540932D0570
:104DD00050932E0500913205002E000C110BFC01A2
:104DE000E00FF11FEE0FFF1FEE0FFF1FEF59F84FFF
:104DF00060817181828193810E9445E760932705DC
:104E0000709328058093290590932A0520913105F8
:104E100035E02303F0011124CE0FDF1FCC0FDD1F7F
:104E2000CC0FDD1FCF59D84F288139814A815B8152
:104E300020932305309324054093250550932605A0
:104E4000E00FF11FEE0FFF1FEE0FFF1FEF59F84F9E
:104E500060817181828193810E9445E760931F0583
:104E60007093200580932105909322058090390549
:104E700090903A05A0903B05B0903C052091270505
:104E8000309128054091290550912A05C501B401AA
:104E90000E94E8E020912B0530912C0540912D05D2
:104EA00050912E050E9446E76B017C01C0921B05C4
:104EB000D0921C05E0921D05F0921E0520911F0561
:104EC000309120054091210550912205C501B40182
:104ED0000E94E8E0209123053091240540912505AA
:104EE000509126050E9446E7A70196010E9445E7DA
:104EF00060931705709318058093190590931A0510
:104F0000A8CEC12CD12C76010FCF1092390510926A
:104F10003A0510923B0510923C051DCFE5E4F5E003
:104F200080EF9FEFA9E7B4EC84839583A683B783D2
:104F300080839183A283B383EFE2F5E08DE98183DF
:104F4000808308958F929F92AF92BF92CF92DF920B
:104F5000EF92FF92FC0198E0A9E5B7E001900D9275
:104F60009A95E1F788E0FB01A1E5B7E001900D9289
:104F70008A95E1F7C0905907D0905A07E0905B07F7
:104F8000F0905C0720E030E0A901C701B6010E9463
:104F900083E08823E1F1A701960160E070E080E8FA
:104FA0009FE30E9422E86B017C0180905D07909056
:104FB0005E07A0905F07B090600720E030E0A90195
:104FC000C501B4010E9483E0882329F1A501940161
:104FD00060E070E080E89FE30E9422E8C0923D0517
:104FE000D0923E05E0923F05F09240056093410566
:104FF000709342058093430590934405FF90EF9092
:10500000DF90CF90BF90AF909F908F900895C12C6C
:10501000D12C7601CACF60E070E0CB01DFCF8F9258
:105020009F92AF92BF92EF92FF920F931F93CF93F5
:10503000DF9310925507109256071092570710925F
:10504000580710925107109252071092530710926E
:10505000540710925D0710925E0710925F0710923E
:1050600060071092590710925A0710925B0710922E
:105070005C0701E617E0C0E0812C912C80ECA82EA3
:105080008FE7B82E7801D0E0F70181929192A1923A
:10509000B1927F016D2F8C2F0E941292DF5FD5306D
:1050A00099F7CF5F0C5E1F4FC53061F7DF91CF914D
:1050B0001F910F91FF90EF90BF90AF909F908F90B6
:1050C0000895EFE6F0E0808182608083089580910A
:1050D0006F0990917009892B79F480916F099091F3
:1050E0007009892B49F420916F093091700981E092
:1050F000232B19F480E0089581E00895CF92DF9288
:10510000EF92FF926B017C0183E3C816D104E104A6
:10511000F10470F082E3C81AD108E108F10862E3F3
:1051200070E080E090E00E949DBF0E94759EECCFF1
:10513000C701B6010E949DBFFF90EF90DF90CF9016
:105140000C94759ECF93DF93EC01FE018491219620
:10515000882319F00E945E1EF8CFDF91CF91089549
:10516000CF93DF93EB01EEDFCE01DF91CF9172CCD5
:10517000CF92DF92EF92FF926A017B01E3DF42E080
:10518000C701B601FF90EF90DF90CF900C94FAB674
:105190008AE195E0D7CF84E195E0D4CF8AE00C9402
:1051A0005E1E0F931F93CF938C01C62F8FEA9BE057
:1051B000C9DFC801C7DF8AE30E9497B580E38C0F7F
:1051C0000E945E1ECF911F910F91E8CFCF938BEA83
:1051D0009DE0B8DFE3DFE091640282E6E89FF00142
:1051E0001124E953FD4FC08160E08BE99DE0D9DFD8
:1051F00060E086E89DE0D5DF61E08FE79DE0D1DFEC
:1052000061E084E79DE0CDDF60E085E69DE0C9DFF9
:1052100061E085E59DE0C5DF60E08CE49DE0C1DFF5
:1052200061E082E49DE0BDDF61E088E39DE0B9DFFD
:1052300061E081E39DE0B5DF61E089E29DE0B1DFFF
:1052400061E08BE19DE0ADDF60E08DE09DE0A9DFF6
:1052500060E08EEF9CE0A5DF60E080EF9CE0A1DFE6
:1052600060E08AED9CE09DDF60E089EC9CE099DFE6
:1052700061E084EB9CE095DF61E085EA9CE091DFF2
:1052800061E08EE99CE08DDF60E081E99CE089DFF0
:1052900060E08AE89CE085DF61E081E89CE081DFF6
:1052A00060E08CE69CE07DDF60E08EE59CE079DFED
:1052B00060E084E59CE075DF60E08DE39CE071DFF9
:1052C00060E080E39CE06DDF61E08DE19CE069DF00
:1052D00060E080E19CE065DF61E08BE09CE061DF05
:1052E00061E08EEF9BE05DDF60E082EF9BE059DFE5
:1052F00060E08EED9BE055DF60E08BEC9BE051DFE2
:10530000C7FD1AC060E080913D1190913E11CC2301
:1053100039F0C13089F461E080913F1190914011E2
:105320000E947F18682F617082EC9BE03ADF60E09A
:1053300084EB9BE0CF9135CF80E0F4CFCF92DF922A
:10534000EF92FF926A017B01FDDEC701B6010E9468
:10535000CEB6FF90EF90DF90CF9020CF0F931F93AA
:10536000CF93883038F5082F082E000C110BC09110
:105370003C1191E001C0990F8A95EAF790933C1196
:105380000E94EBB687E6809FF001819FF00D11240B
:10539000E657FA4F40815181628173814F5F5F4FC1
:1053A0006F4F7F4F80EE9EE0C9DF8CED9EE0CADE3E
:1053B000C0933C11CF911F910F910895EF92FF92EE
:1053C0000F931F93CF93DF937C01C62F062F062EDA
:1053D000000C110B80E0683028F481E001C0880FD8
:1053E0006A95EAF7D0913C1180933C11D1DE87E6B3
:1053F000809FF001819FF00D1124E657FA4F408104
:10540000518162817381C70199DF8C2F0E9400183E
:105410000196D9F78C2FA2DF87E6809FF001819F4C
:10542000F00D1124E657FA4F15821482D0933C11E7
:10543000DF91CF911F910F91FF90EF900895CF9240
:10544000DF92EF92FF926A017B017CDE42E0C701AE
:10545000B6010E94FAB6FF90EF90DF90CF909ECEFB
:105460000F931F93CF93DF938C01D62FC0913C11E4
:105470008FEF80933C1184E495E064DEC80162DE26
:10548000D1118CDEC0933C11DF91CF911F910F9110
:1054900008950F931F93CF93DF938C01D62FC09164
:1054A0003C118FEF80933C1160E08AE695E0D8DFF5
:1054B000C80148DED11172DEC0933C11DF91CF915B
:1054C0001F910F910895EF92FF921F93CF93DF9357
:1054D0007C0160E081E895E0DCDFCCE3D1E118817C
:1054E0008FEF888380E20E945E1EC7012BDE56DEAE
:1054F0001883DF91CF911F91FF90EF90089561E0A5
:105500008CE795E0C6CF61E088E795E0C2CF0F93C6
:105510001F93CF93DF93D82F8B01C42FF4DFD09349
:10552000710960E082E795E0B4DFD0913C118FEF24
:1055300080933C1180E20E945E1EC80103DECC23F2
:1055400019F08C2F0E945E1E29DED0933C11DF9152
:10555000CF911F910F91089540E0BC0182E0D7DF09
:1055600087E198E0B0DFCBCFEF92FF921F93CF930C
:10557000DF937C01CCE3D1E118818FEF888360E079
:105580008CE595E06DDFC701DDDD08DE1883DF9176
:10559000CF911F91FF90EF9008952F923F924F92DD
:1055A0005F926F927F928F929F92AF92BF92CF92B3
:1055B000DF92EF92FF920F931F93CF93DF93CDB7BC
:1055C000DEB7CC54D1090FB6F894DEBF0FBECDBF05
:1055D00070E060E085E40E94C51E811154C083E440
:1055E0000E94F718811171C025E02AA783E50E9467
:1055F000F718882309F46DC00E94C21E29969FAF38
:105600008EAF299760E085E50E94B01E8AAF87E1E2
:1056100091E10E94E7B60E9437C06B877C878D8737
:105620009E8780E00E94E29129968EAD9FAD2997DA
:10563000863F91050CF454C08AE091E183DD8BEE46
:1056400090E180DD84E00E94E29184EC90E18CDFC7
:10565000C45BDF4F0FB6F894DEBF0FBECDBFDF9146
:10566000CF911F910F91FF90EF90DF90CF90BF905F
:10567000AF909F908F907F906F905F904F903F90F2
:105680002F900C94A6B98CE391E15CDD84E291E16A
:1056900059DD83E0C45BDF4F0FB6F894DEBF0FBE69
:1056A000CDBFDF91CF911F910F91FF90EF90DF90D1
:1056B000CF90BF90AF909F908F907F906F905F90B2
:1056C0004F903F902F900C94E2910E94C21E8AA7A7
:1056D0008DCF44EB50E029965FAF4EAF299792CF24
:1056E0002B853C854D855E85205C33464F4F5F4F53
:1056F0002CAB3DAB4EAB5FAB87EB90E123DD8FEA8C
:1057000090E120DD0E94A5748FE78093C80B84EAA6
:1057100090E10E94E7B681E0809322098B849C840B
:10572000AD84BE848BA69CA6ADA6BEA61A8E1B8E8B
:105730001C8E1D8E1E8E1F8E18A219A21B821C820B
:105740001D821E828FE790E0A0E0B0E08F87988BEB
:10575000A98BBA8B1F8290E49B8BACE1AC8BB6E437
:10576000BD8B1E8A1F8A188E198EFFE7CF2ED12C73
:10577000E12CF12C1FA618AA19AA1AAA1BAA1DA26D
:105780001EA21FA218A621E02CA310E000E019829F
:105790001A82212C312C29968EAD9FAD2997092E86
:1057A000000CAA0BBB0B8BAF9CAFADAFBEAFAAA5D5
:1057B0000A2E000CBB0BB9AFA8AF29968EAD9FADDA
:1057C00029974E969C01990F440B550B23962CAFAD
:1057D0003DAF4EAF5FAF239729968EAD9FAD299712
:1057E0004E979C01990F440B550B27962CAF3DAF5C
:1057F0004EAF5FAF279729964EAD5FAD29974650C4
:105800005109CA01092E000CAA0BBB0B2B968CAFB9
:105810009DAFAEAFBFAF2B9780912209882309F4CB
:10582000AEC00E9437C02B013C019091E40799A7BC
:10583000992321F00E940B9E1092E4078091580654
:10584000811107C081E0809358060E94BB9210929C
:105850005806A9A5AA2309F477C0B091C20BB98351
:105860002091C30B2A832090C40B3090C50B2E8946
:105870003F89488D598D6B2F7A81C1010E946DE956
:10588000181634F439813E8B4A814F8B288E398E1D
:105890002F813B894C895D8969817A81C1010E9490
:1058A00083E087FF06C059815F838A818B8B2C8AB6
:1058B0003D8A6BAD7CAD8DAD9EAD0E9489E06AA343
:1058C0002D967FAF2D972C968FAF2C979BA39CA1E5
:1058D000992309F47FC19B01482F5BA169817A81DB
:1058E000C1010E946DE918167CF5B301A2014819A7
:1058F00059096A097B094838A3E15A07610571050E
:1059000018F18F859889A989BA898C199D09AE09E2
:10591000BF09B595A795979587958093C80B4DA31B
:105920005EA36FA378A7BAA1BE8B2D962FAD2D973E
:105930002F8B2C963FAD2C97388F4BA1498F4B86E0
:105940005C866D867E861CA223966CAD7DAD8EAD89
:105950009FAD23970E9489E029813A81A1010E948D
:1059600083E087FF2AC08BE390E1ECDB8CE190E1E0
:10597000E9DB84E00E94E29184EC90E1F5DD109295
:1059800022090E94A57422C14BEEC42ED12CE12C19
:10599000F12C79C184E190E0A0E0B0E08F87988B92
:1059A000A98BBA8B34E1C32ED12CE12CF12C79C117
:1059B000CF86D88AE98AFA8A74C18BA59CA5ADA541
:1059C000BEA584199509A609B709181619061A065D
:1059D0001B060CF445C080E00E94BB99DFDBA301ED
:1059E00092012053384F4F4F5F4F2BA73CA74DA735
:1059F0005EA73FA531116DC028A939A94AA95BA9A5
:105A000069817A81C1010E946DE918160CF04CC0C1
:105A100020E030E040E050E469817A81C1010E94D9
:105A200046E768AB79AB8AAB9BABD301C201805C24
:105A30009346AF4FBF4F8CAB9DABAEABBFAB2B967E
:105A40006CAD7DAD8EAD9FAD2B970E9489E0298115
:105A50003A81A1010E9483E0881F8827881F8FA7B1
:105A60008B859C85AD85BE8588169906AA06BB06E2
:105A700010F4D501C401481A590A6A0A7B0A91E850
:105A800049169FE4590692E169067104C0F185E068
:105A90000E94E29182E090E167DD85EF9FE052DBBA
:105AA00083EE9FE04FDB6BCF8CA99DA9AEA9BFA968
:105AB00084199509A609B70944EE52E263EF72E230
:105AC000181619061A061B065CF280E00E94C89C94
:105AD000C7CF27966CAD7DAD8EAD9FAD27970E9449
