:100000000C94B3170C94F3170C94F3170C94F31788
:100010000C94F3170C94F3170C94F3170C94F31738
:100020000C94F3170C94F3170C94F3170C94F31728
:100030000C94F3170C94F3170C94F3170C94F31718
:100040000C94F3170C94F7800C94F3170C94F3179B
:100050000C94F3170C94EE7F0C94F3170C9499D135
:100060000C94F3170C94FD530C94E9530C94F31770
:100070000C94F3170C94F3170C94F3170C94F317D8
:100080000C9480520C94F3170C94F3170C94F31700
:100090000C94BF530C94F3530C94F3170C94F31774
:1000A0000C94F3170C94F3170C9452520C94F3170E
:1000B0000C94F3170C94F3170C94F3170C94F31798
:1000C0000C94F3170C94F3170C94F3170C949553AA
:1000D0000C945F530C94F3170C94F3170C94F317D0
:1000E0000C94F317084AD73B3BCE016E84BCBFFD8E
:1000F000C12F3D6C74319ABD56833DDA3D00C77FF8
:1001000011BED9E4BB4C3E916BAAAABE0000008090
:100110003F05A84CCDB2D44EB93836A9020C50B91F
:10012000918688083CA6AAAA2ABE000000803F004B
:100130004E414E494E495459494E46CDCCCC3D0ACC
:10014000D7233C17B7D13877CC2B329595E6241FAF
:10015000B14F0A000020410000C84200401C462068
:10016000BCBE4CCA1B0E5AAEC59D7400407A10F33B
:100170005A00A0724E18090010A5D4E80000E876D5
:1001800048170000E40B54020000CA9A3B0000002C
:10019000E1F505000080969800000040420F000045
:1001A00000A08601000000102700000000E8030006
:1001B0000000006400000000000A000000000001D0
:1001C00000000000002C76D888DC674F0823DFC1D0
:1001D000DFAE59E1B1B796E5E3E453C63AE651998B
:1001E0007696E8E6C28426EB898C9B62ED407C6FB4
:1001F000FCEFBC9C9F40F2BAA56FA5F490055A2A6B
:10020000F75C936B6CF9676DC11BFCE0E40D47FE76
:10021000F520E6B500D0ED902E030094357705006B
:1002200080841E080000204E0A000000C80C3333F2
:1002300033330F986E12831141EF8D2114893BE601
:100240005516CFFEE6DB18D1844B381BF77C1D908A
:100250001DA4BBE424203284725E228100C9F124F3
:10026000ECA1E53D27434F4D4D554E49434154497F
:100270004F4E0044525952554E004552524F525320
:1002800000494E464F004543484F00627567666916
:10029000782D322E312E780057616E68616F2044C0
:1002A00039204D4B320053544F505045442E2000BE
:1002B0005072696E7465722073746F70706564201B
:1002C00064756520746F206572726F72732E20469C
:1002D000697820746865206572726F7220616E643F
:1002E00020757365204D39393920746F207265731C
:1002F000746172742E202854656D70657261747516
:1003000072652069732072657365742E205365745D
:1003100020697420616674657220726573746172FD
:1003200074696E67290A004E6F20436865636B73BA
:10033000756D2077697468206C696E65206E756DC7
:100340006265722C204C617374204C696E653A2092
:10035000004E6F20436865636B73756D2077697419
:1003600068206C696E65206E756D6265722C204C1C
:10037000617374204C696E653A2000636865636B35
:1003800073756D206D69736D617463682C204C61A9
:100390007374204C696E653A20004C696E65204E7E
:1003A000756D626572206973206E6F74204C617385
:1003B00074204C696E65204E756D6265722B312C10
:1003C000204C617374204C696E653A20004D3131C8
:1003D000300053657269616C2073746174757320A9
:1003E0006D69736D617463680A00534420726561BE
:1003F00064206572726F720A00746F6F206D75638E
:100400006820696E6163746976652074696D652022
:100410002D2063757272656E7420636F6D6D616EF1
:10042000643A20002121204B494C4C2063617573B4
:1004300065642062792000627573793A2070617575
:1004400073656420666F7220696E7075740A00624D
:100450007573793A2070617573656420666F7220D8
:10046000757365720A00627573793A2070726F63F2
:10047000657373696E670A00534420436172642098
:1004800072656164206572726F72004D3130303078
:100490005300506F776572204F7574616765004631
:1004A000696C616D656E742072756E6F7574204530
:1004B0002564004D363030002066696C616D656ED4
:1004C000745F72756E6F7574200066696C616D651E
:1004D0006E745F72756E6F757420540046696C613E
:1004E0006D656E7452756E6F7574205400506C6536
:1004F00061736520526573657400706F7765726F04
:100500006666004B494C4C45442E20005072696E83
:100510007465722068616C7465642E206B696C6C04
:1005200028292063616C6C6564210A006563686F2B
:100530003A004572726F723A0042696C696E656189
:1005400072204C6576656C696E6720477269643A03
:100550000A005072696E74204F626A002F2F616327
:1005600074696F6E3A006E6F74696669636174696D
:100570006F6E20006E6F74696669636174696F6E77
:10058000200070726F6D70745F00626567696E0045
:10059000656E640073686F7700627574746F6E00C7
:1005A000486F74656E6420746F6F20636F6C640AAB
:1005B000004D323453004D323320004739322E394A
:1005C0004500473146004731463630305A00473102
:1005D000463330303058004D31303650004D3130D8
:1005E0003953004D32303044004739322E395A00E9
:1005F0004D34323053004732385230585900473169
:10060000463630305A004739322E395A004739328F
:100610002E394530004D31303953004D313930538A
:10062000004D3432305330004F46460A0046616474
:1006300065204865696768742000426564204C65E0
:1006400076656C696E6720004661696C656420742C
:100650006F20656E61626C6520426564204C657632
:10066000656C696E670A00496E76616C6964206D1D
:100670006573682E0A0050726F62696E6720506F52
:10068000696E740025532025692F2569002E0A0004
:100690002F0050726F62696E67206D6573682070FD
:1006A0006F696E742000202844525952554E29001B
:1006B000473239204175746F20426564204C65765D
:1006C000656C696E67003F20284C2C522C462C42EA
:1006D00029206F7574206F6620626F756E64732EAB
:1006E0000A0020756E6974732F6D696E290A003FC8
:1006F00046656564726174652028532920746F6FA4
:10070000206C6F772E20285573696E6720003F2874
:1007100056296572626F7365206C6576656C206919
:100720006D706C61757369626C652028302D342999
:100730002E0A00426164205A2076616C75650A00B9
:100740004E6F2062696C696E6561722067726964C0
:100750000A007061757365640048656164206361B7
:100760006E6E6F74206265207061726B65640050FC
:100770006175736500496E736572742066696C619A
:100780006D656E7420616E64207072657373206293
:100790007574746F6E0A0052656865617420446FE9
:1007A0006E6500526568656174696E672E2E2E0055
:1007B00052656865617400486561746572205469AA
:1007C0006D656F7574005072657373206275747413
:1007D0006F6E20746F2068656174206E6F7A7A6C1A
:1007E000650A004E6F7A7A6C65205061726B6564A1
:1007F0000044697361626C6552756E6F7574005068
:10080000757267654D6F7265005061757365640040
:100810004C6F61642046696C616D656E7420540094
:100820004C6F61642046696C616D656E7400496E41
:10083000736572742066696C616D656E7420616E9B
:100840006420707265737320627574746F6E0A0031
:10085000726573756D656400526573756D696E6759
:100860000020496E76616C696420657874727564E5
:1008700065722000536C6565702E2E2E005B505DF6
:1008800061726B696E67207374796C652028302EF5
:100890002E34292E003F496E76616C696420005A1F
:1008A0002050726F62652050617374204265640A43
:1008B000005A2050726F6265205061737420426547
:1008C0006400473238004D65736820706F696E743C
:1008D000206F7574206F662072616E67650A006212
:1008E0006567696E00436F6E74696E7565004D30A3
:1008F0002053746F70004D312053746F7000436C3F
:1009000069636B20746F20526573756D652E2E2E92
:10091000004E6F204D6F76652E00456E642066692F
:100920006C65206C6973740A00426567696E2066A5
:10093000696C65206C6973740A004E6F206D656484
:1009400069610A00534420636172642072656C65BA
:10095000617365640A00526573756D696E67205333
:100960004400526573756D65005061757365205361
:100970004400286E6F2066696C65290043757272A9
:10098000656E742066696C653A20004E6F74205362
:1009900044207072696E74696E670A005344207057
:1009A00072696E74696E6720627974652000507296
:1009B000696E742074696D653A20007061757365A5
:1009C000006F6B004C696E653A20006F66660086AA
:1009D0000281027A027302650244454255473A0099
:1009E0004D3131322053687574646F776E004D312C
:1009F000313320530057616E68616F204439204DB8
:100A00004B32204F46462E0020732E0A00496E615D
:100A1000637469766974792074696D656F75742083
:100A20000020204D39322058002F2F002044002074
:100A3000204D32303020530020204D3230312058AC
:100A40000020450020204D32303320580020520035
:100A500020204D323034205000204A002054002005
:100A6000530020204D3230352042003F4A206F7520
:100A700074206F662072616E67652028302E3031D9
:100A800020746F20302E33290A0020204D3230365A
:100A900020580020580020204D61783A2000200086
:100AA00020204D696E3A2000203B200020204D324E
:100AB0003131205300250A0046523A0020466C6F1F
:100AC000773A20003A200020536572766F2000208C
:100AD0006F7574206F662072616E67650A005365DA
:100AE00072766F200050726F6265204F6666736584
:100AF00074205A0050726F6265204F666673657489
:100B0000205A0020440020490020204D333031205D
:100B1000500064697300656E0043290061626C6572
:100B20006420286D696E2074656D702000436F6CC1
:100B30006420657874727564657320617265200045
:100B4000203B20486F73742068616E646C696E6727
:100B5000200046696C616D656E742072756E6F75EC
:100B60007420004D34323120696E636F7272656398
:100B70007420706172616D65746572207573616750
:100B8000650A004D65736820706F696E74206F751B
:100B900074206F662072616E67650A004F66667327
:100BA000657473204170706C696564004D494E2F07
:100BB0004D415820546F6F2046617200546F6F2072
:100BC0006661722066726F6D204D494E2F4D4158FF
:100BD0000A00454550524F4D204F4B0A00203B0024
:100BE00020550020204D363033204C004F46460023
:100BF0004F4E00203B200020204D34313320530045
:100C00004D383400446F6E65207072696E74696E81
:100C1000672066696C650A004D3737004D33310037
:100C20004361703A00434F4E4649475F4558504F25
:100C30005254004D4541545041434B00434F4F4C9B
:100C400045525F54454D504552415455524500431D
:100C500048414D4245525F54454D504552415455CF
:100C600052450045505F424142595354455000425D
:100C70004142595354455050494E47004152435305
:100C8000004D4F54494F4E5F4D4F4445530054481B
:100C900045524D414C5F50524F54454354494F4E7D
:100CA00000455854454E4445445F4D32300043554D
:100CB00053544F4D5F4649524D574152455F555031
:100CC0004C4F4144004C464E5F5752495445004CEE
:100CD0004F4E475F46494C454E414D4500415554A6
:100CE0004F5245504F52545F53445F5354415455F3
:100CF000530053445F5752495445005245504541B3
:100D000054004D554C54495F564F4C554D4500537A
:100D100044434152440050524F4D50545F5355503C
:100D2000504F525400484F53545F414354494F4E23
:100D30005F434F4D4D414E445300454D455247454D
:100D40004E43595F50415253455200434153455F12
:100D50004C494748545F4252494748544E455353C3
:100D600000544F47474C455F4C4947485453005344
:100D70004F4654574152455F504F574552004255D8
:100D8000494C445F50455243454E54004C455645EE
:100D90004C494E475F44415441005A5F50524F42C4
:100DA000450052554E4F5554004155544F4C4556F1
:100DB000454C005052494E545F4A4F420050524FEA
:100DC0004752455353004155544F5245504F52548A
:100DD0005F54454D50004155544F5245504F525469
:100DE0005F504F5300564F4C554D455452494300A8
:100DF000454550524F4D0042494E4152595F464978
:100E00004C455F5452414E5346455200534552495A
:100E1000414C5F584F4E5F584F4646004649524D31
:100E2000574152455F4E414D453A4D61726C696E76
:100E3000206275676669782D322E312E782028530E
:100E4000657020313420323032362031353A31313C
:100E50003A30362920534F555243455F434F44455E
:100E60005F55524C3A6769746875622E636F6D2FD7
:100E70004D61726C696E4669726D776172652F4D56
:100E800061726C696E2050524F544F434F4C5F5605
:100E9000455253494F4E3A312E30204D4143484937
:100EA0004E455F545950453A57616E68616F204412
:100EB00039204D4B32204B494E454D415449435307
:100EC0003A43617274657369616E20455854525596
:100ED0004445525F434F554E543A3120555549448D
:100EE0003A63656465326132662D343161322D3486
:100EF0003734382D396231322D63353563363266F9
:100F000033363766660047322F47332062616420EC
:100F1000706172616D65746572730A005A20507257
:100F20006F626520506173742042656400205A3AF4
:100F30000020593A0042656420583A004732384F41
:100F40000020286D6D2900203B00205A0020590008
:100F500020204D383531205800290A0020746F2098
:100F6000003F5A206F7574206F662072616E67654E
:100F7000202800290A0020746F20003F59206F7537
:100F800074206F662072616E6765202800290A0050
:100F900020746F20003F58206F7574206F66207298
:100FA000616E6765202800220A00656E717565759F
:100FB00065696E672022006F6B0A00526573656E6B
:100FC000643A20002569730025696D202569730046
:100FD0002569682025696D202569730025696420CD
:100FE0002569682025696D202569730025697920A8
:100FF000256964202569682025696D2025697300AD
:1010000020460020420020204D3130342053004340
:101010006F6F6C696E672E2E2E00453120255300B0
:1010200020573A0042656420436F6F6C696E672EEB
:101030002E2E004265642048656174696E672E2E0D
:101040002E0023646566696E652044454641554C13
:10105000545F005049442074756E696E6720646F58
:101060006E65004175746F74756E65206661696C9C
:101070006564212054696D656F75742E0041757427
:101080006F74756E65206661696C656421205465B6
:101090006D706572617475726520746F6F20686918
:1010A00067682E004175746F74756E65206661699E
:1010B0006C65642120426164206578747275646592
:1010C000722E00504944204175746F74756E65002E
:1010D0004B4420004B4920004B50200050494420F5
:1010E00074756E696E6720646F6E65002066696E48
:1010F0006973686564212050757420746865206C7C
:10110000617374204B702C204B6920616E64204BFE
:101110006420636F6E7374616E74732066726F6D9A
:101120002062656C6F7720696E746F20436F6E6606
:10113000696775726174696F6E2E680A0050494460
:10114000204175746F74756E6500206661696C6509
:1011500064212074696D656F75740A0050494420DC
:101160004175746F74756E65004175746F74756E3A
:1011700065206661696C6564212054696D656F75D1
:10118000742E00206661696C6564212054656D7061
:101190006572617475726520746F6F206869676825
:1011A0000A00504944204175746F74756E65005093
:1011B0004944204379636C65730025532025692FCA
:1011C000256900204B643A2000204B693A2000201A
:1011D0004B703A200020436C61737369632050495F
:1011E00044200A002054753A2000204B753A200014
:1011F000206D61783A2000206D696E3A20002064ED
:101200003A200020626961733A2000486561746980
:101210006E672E2E2E002073746172740A0050497E
:1012200044204175746F74756E65004175746F74F8
:10123000756E65206661696C6564212054656D700A
:101240006572617475726520746F6F206869676874
:101250002E00206661696C6564212054656D70659F
:1012600072617475726520746F6F20686967680AAF
:1012700000504944204175746F74756E6500504983
:1012800044204175746F74756E65003F2843297959
:10129000636C6573206E6F7420706C617573696226
:1012A0006C6520283E3D33292E0A00206661696C5A
:1012B00065642120426164206865617465722069FB
:1012C000640A00504944204175746F74756E65005E
:1012D000002002000000831E000001200200000028
:1012E000831E0000022002000000831E0000032075
:1012F00002000000831E000004200200000044548D
:101300000000052002000000471E0000062000002B
:101310000000241E0000072002000000F11D000054
:10132000082002000000051E000009200200000045
:10133000E93700000A2002000000821800000B209C
:1013400002000000531A00000E2002000000BB1D26
:1013500000000F2002000000A11D0000102002006C
:10136000000028550000112002000000FB5400007E
:10137000122002000000FB540000142002000000B4
:10138000D3540000152002000000E11D00001620CB
:1013900002000000701D00001720020000003B1D2D
:1013A00000001820020000007A1800001920020036
:1013B00000002D1C00001A20000000005243000015
:1013C0001B20000000006D2800001C20020000000F
:1013D0006E1800001D20020000005B1800001E2097
:1013E00002000000CF1C00001F20020000002D435F
:1013F0000000202002000000FE1B0000212002004F
:101400000000FE1B0000222002000000FE1B000066
:10141000232002000000BD1B000024200200000069
:1014200053180000252000000000B21B00002620F9
:1014300000000000024200002720020000001C43C0
:1014400000002820020000000843000029200200BC
:101450000000341800002A20020000007B1B00005E
:101460002B2000000000A64200002C2002000000FB
:10147000924200002D2002000000704200002E2049
:10148000020000006B1B00002F20000000002E183F
:10149000000020300200000000003A7C25302000CF
:1014A00000000000E37B4530200000000000E37BEB
:1014B0006530200000000000E37B85302000000044
:1014C0000000E37BA530200000000000E37BC53076
:1014D0000200000000008F7CC630200000000000E9
:1014E000AA7BE630020100000000AC84E8300F0166
:1014F000000000002295F73002010000000083790F
:10150000BE310200000000006498F83002011102B0
:1015100000008F78F9300201000000007279FC3081
:101520000201F40700002578FD300201F8070000F1
:101530008F78FE300200000000005E79FF3002016B
:10154000A70D0000257800310201AB0D00008F7857
:1015500001310200000000005E7905310201000047
:101560000000527906310201210E0000BB770731DD
:101570000200090200003A7908310201000000006F
:101580006E7B0931020000000000487A223102001F
:101590008F060000707723310200910600007077FB
:1015A00024310200000000002679253102000A02E1
:1015B00000007077263102012F0A000025782731BC
:1015C0000201330A0000257828310201370A0000A1
:1015D000257829310200930600003A792A31020069
:1015E000000000005F7B2B310200000000000E793C
:1015F0002C3102000C02000070772D310401000034
:101600000000127A2F31040100000000D679313138
:101610000401000000009B7933311800980200009B
:10162000AD7A4B311800000000000A7B63311000D6
:101630008B020000AD7A7331020000000000EA71F5
:101640007431020000000000EB71753118000000D9
:101650000000E47A8D31180000000000D37AA53133
:10166000180000000000C27ABD3102000000000036
:1016700034980040020100000018F5780140200273
:1016800094065F1BF57A214002000802C07124779E
:101690002240020000007C24E67823400200000083
:1016A000B424DC780050020000000000837901506F
:1016B00000000000F517000000000000000000001E
:1016C00000004E6F7420616C6C6F776564207768E2
:1016D000696C652069646C65004E6F7420616C6C88
:1016E0006F77656420647572696E67207072696EC9
:1016F00074004E6F2053442043617264204465742B
:1017000065637465640043616E6E6F7420656E740A
:101710006572207375626469723A20004E6F2066AC
:10172000696C652073656C6563746564004D323562
:1017300000526573756D650055492050617573657C
:1017400000726573756D65004D323400436F6F6CC8
:10175000696E672E2E2E004D35303000473239002D
:10176000486F6D696E672072657175697265640096
:1017700054656D706572617475726520746F6F2049
:101780006C6F77004732385A004732385859004753
:10179000323858595A00486F6D696E672E2E2E00E8
:1017A000457865637574696E6720636F6D6D616EF2
:1017B000642E2E2E004D353030004D353032004D28
:1017C0003939390A4D323830503053313630004DC6
:1017D00035303000504944206175746F74756E69FE
:1017E0006E672E2E2E004D3330334325644525641D
:1017F0005325645531004265642050494420646992
:101800007361626C6564004D313030304300496E65
:1018100076616C6964207265636F766572792064A5
:10182000617461004D31303030004275737900BD14
:1018300031000033314B3163317331743175318D87
:1018400031A531000023400000224000002B312C44
:101850003121402D312F31313100002A310000017A
:1018600040000026312731283129310000FF3000A7
:1018700031243125310000223123310000FF3000B6
:1018800031FC30FD30083109310000FF300031FCFF
:1018900030FD300000063107310000053100000046
:1018A000400000FF3000310131FC30FD30FE3000DF
:1018B00000FF300031FC30FD300000FF300031FC13
:1018C00030FD30E630E830005000000031FD3000DF
:1018D00040F830F93006310000FF300031FC30FDB7
:1018E00030E630E830F730BE31000020302530459A
:1018F0003065308530A530C530C6300000FF30007F
:1019000031FC30FD30000002DC7C039398049F988A
:101910000A95A00B29A00CF59F0DC6760E05720F37
:10192000FA711018A011DB9F13F07116EC71000012
:101930000001FD1802EB1803D91804CB1805BB18D9
:1019400006B11807A318089F18099B180B95180CC7
:101950008B180D7D180E77180F6D18106318115F16
:1019600018125B18134D181449181545181633181A
:10197000F92F1800000047305A3130004732380044
:101980004732380047305A300047305825645925CF
:10199000640047305A340047323800486F6D696E32
:1019A000672E2E2E0042757379004457494E20470A
:1019B00055492F4F532075706461746520726571AD
:1019C0007569726564002564782564782564002D46
:1019D000002D002D004D3530300050726F62696E61
:1019E00067206661696C65640050726F62696E673A
:1019F000207375636365737366756C0063616E63F2
:101A0000656C005072696E742041626F7274656417
:101A1000004469736D6973730055492041626F72A8
:101A2000746564006F70656E0054524947474552B3
:101A30004544003A200066696C616D656E74007AF9
:101A40005F6D696E00795F6D696E00785F6D696EBC
:101A5000005265706F7274696E6720656E6473748E
:101A60006F70207374617475730A0020746F6F2037
:101A70006C6F6E6720657874727573696F6E207015
:101A8000726576656E7465640A0020636F6C64200D
:101A9000657874727573696F6E2070726576656EA5
:101AA0007465640A00486F6D65202573204669726D
:101AB00073740000000000000000000000000057E8
:101AC00061726E696E673A20486F6D696E67204279
:101AD000756D702044697669736F72203C20310AFD
:101AE0000002020400009643000096430000C84331
:101AF0000000A0400000A0400000004053544F50A0
:101B00005045442E20005072696E746572207374C3
:101B10006F707065642064756520746F20657272E3
:101B20006F72732E20466978207468652065727222
:101B30006F7220616E6420757365204D39393920CC
:101B4000746F20726573746172742E202854656DF1
:101B50007065726174757265206973207265736552
:101B6000742E205365742069742061667465722038
:101B700072657374617274696E67290A00206572F8
:101B8000726F72202D207265737461727420776990
:101B90007468204D3939390A00424C546F756368B6
:101BA0000021212053544F502063616C6C656420E8
:101BB00062656361757365206F662000000096435F
:101BC000000096430000C843000000000000000031
:101BD00000000000454550524F4D207772697465F2
:101BE000206661696C65640053657474696E67731F
:101BF0002053746F72656400290A0020627974654D
:101C0000733B20637263200053657474696E67735D
:101C10002053746F726564202800204D61726C69D6
:101C20006E3D563930290A00454550524F4D2076B9
:101C3000657273696F6E206D69736D61746368207E
:101C400028454550524F4D3D00454550524F4D207F
:101C50006461746173697A65206572726F722E0AAD
:101C6000004572723A20454550524F4D2043524331
:101C700000202863616C63756C6174656429210AB6
:101C80000020213D2000454550524F4D20435243F6
:101C9000206D69736D61746368202D202873746FE3
:101CA000726564292000454550524F4D20436F72A4
:101CB000727570740A002053697A653A2000496E83
:101CC0006465783A200053746F726564207365749C
:101CD00074696E67732072657472696576656400F5
:101CE0002062797465733B206372632000207374F3
:101CF0006F7265642073657474696E6773207265B2
:101D000074726965766564202800454550524F4DD0
:101D10002072656164206661696C656400454550A8
:101D2000524F4D20496E697469616C697A65640A25
:101D300000454550524F4D20496E697469616C6988
:101D40007A656400454550524F4D20726573657445
:101D50000048617264636F64656420446566617500
:101D60006C742053657474696E6773204C6F616482
:101D700065640000009643000096430000A0400008
:101D800000C8410000A0420000A0420000C843007B
:101D900000C842B80B0000B80B000064000000103F
:101DA00027000024F4D43050C38D20C3A2411782F1
:101DB0008B7011127A900D826CDA0AA861E108C763
:101DC000586607615142061F4B5E05C145A6041BBC
:101DD000411204093D9703723931034136DB026633
:101DE000339202D4305302812E1D02642CEE017610
:101DF0002AC501B128A101102781018F2564012B7B
:101E0000244A01E1223401AD2120018D200C018101
:101E10001FFC00851EED00981DDF00B91CD200E7F5
:101E20001BC700201BBB00651AB200B319A9000A2A
:101E300019A0006A189800D217920040178A00B6BD
:101E400016840032167E00B41579003B157400C765
:101E5000146F0058146A00EE13660088136200269F
:101E6000135E00C8125B006D12570016125500C1B8
:101E700011510070114E0022114C00D61049008DF6
:101E80001046004710450002104200C00F4000807D
:101E90000F3E00420F3C00060F3A00CC0E39009373
:101EA0000E37005C0E3500270E3400F30D3200C1F2
:101EB0000D3100900D2F00610D2F00320D2D00050A
:101EC0000D2C00D90C2A00AF0C2A00850C28005DCF
:101ED0000C2800350C27000E0C2500E90B2500C44A
:101EE0000B2400A00B23007D0B22005B0B21003A8A
:101EF0000B2100190B2000F90A1F00DA0A1F00BB92
:101F00000A1E009D0A1D00800A1C00640A1C00486D
:101F10000A1C002C0A1B00110A1A00F7091A00DD1E
:101F2000091900C4091900AB091800930918007BAE
:101F3000091700640917004D09170036091600201B
:101F40000915000B091500F6081500E1081500CC6D
:101F5000081400B8081400A4081300910813007EA8
:101F60000813006B081200590812004708120035C8
:101F7000081200230811001208110001081000F1D6
:101F8000071100E0071000D0071000C0070F00B1D4
:101F9000071000A1070F0092070F0083070F0074BE
:101FA000070E0066070E0058070E004A070E003C99
:101FB000070E002E070D0021070D0014070D000766
:101FC000070D00FA060D00ED060C00E1060D00D429
:101FD000060C00C8060C00BC060C00B0060B00A5E1
:101FE000060C0099060B008E060B0083060B00788A
:101FF000060B006D060B0062060B0057060A004D2B
:10200000060A0043060B0038060A002E060A0024C2
:102010000609001B060A0011060A0007060900FE51
:10202000050A00F4050900EB050900E2050900D9DD
:10203000050900D0050900C7050800BF050900B65D
:10204000050900AD050800A50508009D05080095D7
:102050000509008C050800840508007C050700754B
:102060000508006D050800650507005E05080056B7
:102070000507004F05080047050700400507003920
:10208000050700320507002B050700240507001D82
:10209000050700160507000F0506000905070002E1
:1020A000050600FC040700F5040600EF040700E83D
:1020B000040600E2040600DC040600D6040600D094
:1020C000040700C9040500C4040600BE040600B8E5
:1020D000040600B2040600AC040600A6040500A134
:1020E0000406009B04050096040600900405008B7E
:1020F00004060085040500800405007B04050076C5
:10210000040600700405006B040500660405006108
:102110000405005C04050057040500520405004D49
:1021200004050048040400440405003F0405003A87
:1021300004040036040500310405002C04040028C2
:10214000040500230404001F0405001A04040016FB
:10215000040400120405000D040400090404000531
:1021600004040001040500FC030400F8030400F467
:10217000030400F0030400EC030400E8030400E49B
:10218000030400E0030400DC030400D8030400D4CB
:10219000030300D1030400CD030400C9030400C5F8
:1021A0000304000000000000000000000000000028
:1021B0000000000000000000000000D1036D640377
:1021C000570D0347C6023B8B023259022B2E0225C4
:1021D000090221E8011CCC011AB201179B011487E6
:1021E000011374011163010F54010E46010D3901F1
:1021F0000D2C010B21010A17010A0D010904010828
:10220000FC0008F40007ED0007E60007DF0006D930
:102210000006D30005CE0006C80005C30004BF00B9
:1022200005BA0004B60004B20004AE0004AA00041B
:10223000A60003A300049F00039C000399000396DB
:1022400000039300029100038E00028C00038900BA
:10225000028700038400028200028000027E0002E6
:102260007C00027A00027800027600017500027399
:1022700000027100017000026E00016D00026B002F
:10228000016A000268000167000265000164000144
:102290006300016200026000015F00015E00015DF9
:1022A00000015C00015B00015A0001590001580067
:1022B000015700015600015500015400015300016F
:1022C0005200015100005100015000014F00014E29
:1022D00000014D00004D00014C00014B00014A007F
:1022E000004A000149000148000048000147000180
:1022F000460000460001450000450001440001433E
:102300000000430001420000420001410000410082
:10231000014000004000013F00003F00013E00007E
:102320003E00013D00003D00013C00003C00013B3F
:1023300000003B00013A00003A000139000039007A
:102340000039000138000038000137000037000074
:102350003700013600003600003600013500003538
:102360000001340000340000340001330000330069
:102370000033000132000032000032000131000061
:102380003100003100003100013000003000003029
:1023900000012F00002F00002F00002F00012E0051
:1023A000002E00002E00012D00002D00002D000049
:1023B0002D00012C00002C00002C00002C00012B13
:1023C00000002B00002B00002B00012A00002A0037
:1023D000002A00002A00002A00012900002900002C
:1023E00029000029000128000028000028000028FA
:1023F0000000280001270000270000270000270018
:10240000002700012600002600002600002600000C
:1024100026000026000125000025000025000025DB
:1024200000002500002500012400002400002400F5
:1024300000240000240000240001230000230000E9
:1024400023000023000023000023000122000022BB
:1024500000002200002200002200002200002200D2
:1024600001210000210000210000210000210000C6
:102470002100002100012000002000002000002099
:1024800000002000002000002000002000011F00AC
:10249000001F00001F00001F00001F00001F0000A1
:1024A0001F000020436F756E7420583A0042656427
:1024B00000453100626564002C2073797374656D8A
:1024C0002073746F70706564212048656174657253
:1024D0005F49443A20004572723A204D41585445B4
:1024E0004D50004D415854454D50207472696767F6
:1024F000657265640048656174696E67204661694C
:102500006C65640048656174696E67206661696C1A
:102510006564004572723A204D494E54454D500055
:102520004D494E54454D5020747269676765726518
:102530006400544845524D414C2052554E4157413C
:102540005900546865726D616C2052756E617761D7
:102550007900202F002042403A0020403A002057C6
:102560003A000009121B242D363F48415A536C652E
:102570007E7719100B023D342F265158434A757C43
:10258000676E323B2029161F040D7A7368615E570F
:102590004C452B2239300F061D14636A7178474E63
:1025A000555C646D767F4049525B2C253E370801AF
:1025B0001A137D746F6659504B42353C272E111803
:1025C000030A565F444D727B60691E170C053A334F
:1025D00028214F465D546B627970070E151C232A23
:1025E00031384148535A656C777E09001B122D24FF
:1025F0003F3658514A437C756E671019020B343DC3
:10260000262F737A6168575E454C3B3229201F168E
:102610000D046A6378714E475C55222B3039060FE2
:10262000141D252C373E0108131A6D647F7649402E
:102630005B523C352E2718110A03747D666F505982
:10264000424B171E050C333A21285F564D447B72CE
:1026500069600E071C152A233831464F545D626BA2
:10266000707900002110422063308440A550C6607C
:10267000E770088129914AA16BB18CC1ADD1CEE13F
:10268000EFF13112100273325222B5529442F772B6
:10269000D662399318837BB35AA3BDD39CC3FFF38F
:1026A000DEE36224433420040114E664C774A444C6
:1026B00085546AA54BB528850995EEE5CFF5ACC5DF
:1026C0008DD55336722611163006D776F666955696
:1026D000B4465BB77AA719973887DFF7FEE79DD72F
:1026E000BCC7C448E5588668A77840086118022826
:1026F0002338CCC9EDD98EE9AFF9488969990AA97F
:102700002BB9F55AD44AB77A966A711A500A333AF5
:10271000122AFDDBDCCBBFFB9EEB799B588B3BBBCE
:102720001AABA66C877CE44CC55C222C033C600C85
:10273000411CAEED8FFDECCDCDDD2AAD0BBD688D1E
:10274000499D977EB66ED55EF44E133E322E511ED5
:10275000700E9FFFBEEFDDDFFCCF1BBF3AAF599F6E
:10276000788F8891A981CAB1EBA10CD12DC14EF10E
:102770006FE18010A100C230E32004502540467074
:102780006760B9839893FBA3DAB33DC31CD37FE39F
:102790005EF3B1029012F322D232354214527762C4
:1027A0005672EAB5CBA5A89589856EF54FE52CD56F
:1027B0000DC5E234C324A014810466744764245414
:1027C0000544DBA7FAB79987B8975FE77EF71DC77F
:1027D0003CD7D326F2369106B01657667676154664
:1027E00034564CD96DC90EF92FE9C899E9898AB9CF
:1027F000ABA94458654806782768C018E1088238B4
:10280000A3287DCB5CDB3FEB1EFBF98BD89BBBABDE
:102810009ABB754A545A376A167AF10AD01AB32A03
:10282000923A2EFD0FED6CDD4DCDAABD8BADE89D2E
:10283000C98D267C076C645C454CA23C832CE01C53
:10284000C10C1FEF3EFF5DCF7CDF9BAFBABFD98FBE
:10285000F89F176E367E554E745E932EB23ED10EA3
:10286000F01E7C3C3E5E2B3D3F2F5B5D3B2C2A22C5
:102870005C005761726E696E673A00534420436191
:10288000726420496E6974204661696C005344206B
:1028900063617264206F6B0A006F70656E526F6FB8
:1028A00074206661696C65640A00766F6C756D658D
:1028B0002E696E6974206661696C65640A004E6FEA
:1028C00020534420636172640A000A4D3234004D83
:1028D0003233202573002E0A006F70656E2066610A
:1028E000696C65642C2046696C653A200046696C09
:1028F000652073656C65637465640A002053697AAA
:10290000653A200046696C65206F70656E65643AB3
:102910002000454E4420535542524F5554494E4590
:102920000A002220706F73002220706172656E743D
:102930003A2200535542524F5554494E4520434187
:102940004C4C207461726765743A2200537562635F
:10295000616C6C204F766572666C6F7700457863AA
:102960006565646564206D617820535542524F550A
:1029700054494E452064657074683A002E0A00443C
:10298000656C6574696F6E206661696C65642C2086
:1029900046696C653A200046696C652064656C6523
:1029A0007465643A0057726974696E6720746F20A9
:1029B00066696C653A2000667265736800646F69C9
:1029C0006E67002066696C653A20004E6F772000C4
:1029D0002F6175746F25632E67002001400130015F
:1029E0003B01400136016001310170012C01900171
:1029F0002701B0012201C0011D01F00118011002E0
:102A0000130130020E016002090190020401C002AC
:102A1000FF000003FA004003F5008003F000D0033C
:102A2000EB002004E6007004E100E004DC00400557
:102A3000D700C005D2004006CD00D006C8008007F0
:102A4000C3003008BE00F008B900C009B400B00AE5
:102A5000AF00B00BAA00D00CA500000EA000500FD4
:102A60009B00C01096005012910000148C00C015FD
:102A70008700B0178200B0197D00D01B7800001EBF
:102A8000730040206E0090226900F024640040270B
:102A90005F0090295A00E02B5500102E5000203086
:102AA0004B0010324600E033410090353C001037B7
:102AB000370070383200A0392D00B03A2800A03B12
:102AC0002300603C1E00103D1900903D1400103E94
:102AD0000F00703E0A00C03E0500003F0000403F6E
:102AE000FBFF803FF6FFC03FF1FF2020506C616E7E
:102AF0006E657242756666657242797465733A20D6
:102B0000002046726565204D656D6F72793A200030
:102B100020436F6D70696C65643A20536570203195
:102B20003420323032360A00204C617374205570E4
:102B300064617465643A20323032362D30392D307C
:102B400038207C20417574686F723A2053796C325A
:102B500031202B20436C617564650A004D61726CF5
:102B6000696E206275676669782D322E312E780A7B
:102B70000020536F667477617265205265736574C7
:102B80000A00205761746368646F6720526573653B
:102B9000740A002042726F776E206F757420526540
:102BA0007365740A002045787465726E616C2052FA
:102BB000657365740A00506F77657255700A00730B
:102BC000746172740A004732385859004D31303000
:102BD00031006572726F722077726974696E672056
:102BE000746F2066696C650A00446F6E65207361BE
:102BF00076696E672066696C652E0A004D32390071
:102C0000456E6473746F707300255320256320250F
:102C10006320256320256300205A3A0020593A009A
:102C200020583A00656E6473746F7073206869741D
:102C30003A200000000A0B02090C0D0E08070304DD
:102C40000100000000000000000000000000000083
:102C50000000000000000000000000000000001262
:102C60001110000000000000000000000000000043
:102C700000000000000000000000486F6D696E67F2
:102C8000204661696C656400FFFFFF205A3A20000E
:102C900020793A200042656420583A200050726F33
:102CA00062696E67204661696C65640A0050726FE4
:102CB00062696E67204661696C65640043616E6E8F
:102CC0006F74206F70656E20737562646972200086
:102CD000524553554D45204F5054494F4E533A009D
:102CE00048656174696E672E2E2E000000436C6982
:102CF000636B20746F206865617400000052657317
:102D0000756D696E672E2E2E000000507572676912
:102D10006E672E2E2E0000004C6F6164696E672E68
:102D20002E2E000000496E7365727420616E64205F
:102D3000436C69636B000000436C69636B20746FC4
:102D400020636F6E74696E7565000000456A656387
:102D500074696E672E2E2E000000506C65617365DD
:102D600020776169742E2E2E0000005061726B690D
:102D70006E672E2E2E000000220A00556E6B6E6FBD
:102D8000776E20636F6D6D616E643A2022006F6B09
:102D90000057616E68616F204439204D4B322052DC
:102DA000656164792E005072696E74696E672E2EAB
:102DB0002E005072696E7420506175736564000056
:102DC000002200250028002B002E003100340002D4
:102DD000010000050108010B01000021002400276B
:102DE000002A002D0030003300010100000401071B
:102DF000010A010505050507050808080802020281
:102E0000020A0A0808040404040101010101010185
:102E1000010303030303030303040707070C0C0C5C
:102E20000C0C0C0C0C020202020606060606060634
:102E3000060B0B0B0B0B0B0B0B01021020200808D1
:102E4000102040102040800201020108040201010C
:102E500002040810204080804020100804020180F5
:102E6000040201804020100804020108040201014C
:102E70000204081020408001020408102040804510
:102E800072726F722077726974696E6720746F2036
:102E9000454550524F4D210A00DB0FC93F45BCDA72
:102EA0003F8FB30240FCF0274056946140FE4B9B9D
:102EB0004084A5D840E0231841346A5641E8599728
:102EC0004164DBD5416E271742B4B75542CE1A97FD
:102ED00042C8AED542B5885A43D40684BFA65FA780
:102EE000BF7443E0BF10B11AC01C2C58C0E8F6975D
:102EF000C0B849D6C04E4E17C124D355C1802497BF
:102F0000C1A0B5D5C1121A17C244AE55C2781797E1
:102F1000C26CACD5C267885AC320746F6F206C6FC7
:102F20006E6720657874727573696F6E2070726554
:102F300076656E7465640A0020636F6C6420657842
:102F400074727573696F6E2070726576656E7465E4
:102F5000640A0020453A00205A3A0020593A0058A5
:102F60003A00B8E49AE411241FBECFEFD1E2DEBFED
:102F7000CDBF00E00CBF84B78093931714BE0FB68B
:102F8000F894A89580916000886180936000109209
:102F900060000FBE14E0A0E0B2E0E0EDF7EF01E06A
:102FA0000BBF02C007900D92AE3FB107D9F727E1E2
:102FB000AEEFB4E001C01D92A339B207E1F717E10B
:102FC000C2EBD7E100E006C021970109802FFE0186
:102FD0000E945BF8C13BD10780E00807A9F70E9477
:102FE0000DE60C94D7FB0C9400008091B5068F5F22
:102FF0008093B5068A3018F080EF809375090895A4
:10300000CF93FC01808191818115904429F5FB01CA
:10301000C1816C2F70E090E080E00E94ABF120E075
:1030200030E048EC52E40E949DFA18160CF4C4E615
:103030002C2F30E0AFEFB0E00E9419F824E630E02A
:1030400040E050E00E94F3F72F3F310519F010F0F7
:103050002FEF30E020937C14CF91089510923E071B
:1030600081E0809340070895FB0181818F3F19F033
:10307000882381F008952CE330E030930D022093F3
:103080000C028093B80685E08093080281E080936B
:103090004007089588EC90E090930D0280930C0215
:1030A0001092B806F0CFFB0181818093930681E0F6
:1030B000809340070895FB0180819181982789279B
:1030C0009827893C910510F088EC90E090930B02D2
:1030D00080930A0281E0809340070895FB0181817B
:1030E00091E0980F923028F48093100281E0809351
:1030F00040070895FB0181818093090281E080935C
:1031000040070895CF92DF92EF92FF92CF93DF9323
:10311000FB01C081D181DC27CD27DC27BE010D2E2C
:10312000000C880B990B0E94ADF16B017C0120E033
:1031300030E040E251E40E94A7F187FD0DC020E09D
:1031400030E04AEF53E4C701B6010E949DFA181619
:103150002CF4C4EFD1E002C0CAE0D0E0D093120258
:10316000C093110281E080934007DF91CF91FF90DF
:10317000EF90DF90CF900895CF93DF93C091F80741
:10318000D091F90781E0CE31D105E4F020E030E0C4
:1031900040E05FE36091F4077091F5078091F607D6
:1031A0009091F7070E9476F80E94BAF96C1B7D0B8C
:1031B00077FF03C071956195710981E063307105F6
:1031C0000CF080E0DF91CF91089587FD26C081113A
:1031D00011C08091C10A2091C20A8217F1F0E22F3A
:1031E000F0E0EF53F54F828190E02F5F2F7720932F
:1031F000C20A0895813089F480913F0A2091400AE3
:10320000821759F0E22FF0E0E15CF54F828190E007
:103210002F5F2F772093400A08958FEF9FEF089537
:10322000CF93DF93DB01F9019C919130C1F0943091
:1032300080F094509C938830D1F4808191810097E4
:1032400071F0019791838083480F591FEA0118821A
:1032500006C08C3539F49C5F9C93943041F4DF9127
:10326000CF9108958B3339F781E08C93F8CF20818B
:103270003181B9016F5F7F4F71836083420F531FAC
:10328000EA018883808191818F3591056CF7E7CFC2
:103290000F931F9381E00091860D1091870D20916F
:1032A000880D3091890D4091820D5091830D609170
:1032B000840D7091850D041715072607370708F44C
:1032C00080E01F910F91089590E080E00895209193
:1032D000BF14833021F425FD0CC024FD0CC030E068
:1032E000A90102C0559547958A95E2F7CA018170F8
:1032F000089581E0089580E008950F931F93CF9380
:10330000DF93EC010AE719E0F80120813181428165
:103310005381688179818A819B810E9476F86883D4
:1033200079838A839B83F801248135814681578183
:103330006C817D818E819F810E9476F86C837D8374
:103340008E839F83F801208531854285538568856A
:1033500079858A859B850E9476F8688779878A8730
:103360009B87DF91CF911F910F910895809158060F
:1033700084FD0BC080915A0687FD07C090915B06C3
:10338000937081E019F480E0089581E008952FEBB7
:10339000280F2A3108F047C0E22FF0E0809158064C
:1033A00090915906A0915A06B0915B0604C0B6955B
:1033B000A795979587952A95D2F780FD02C08170D1
:1033C0000895E659FA4FE081EE2341F1809190098A
:1033D00090919109E80FF92FF11D808190ED980FE0
:1033E0009A3030F08E3251F4818180538A3098F4D3
:1033F000F0936105E093600581E008958D3211F04E
:103400008B3249F4818190ED980F9A3088F38E3297
:1034100011F48281EACFF0E0E0E0EACF109261059A
:1034200010926005E9CF80E00895B1DF882341F074
:1034300081E02091600530916105232B09F480E043
:1034400008950F931F93CF93DF93C82FD0E0FE0111
:10345000EE0FFF1FE95EFD4F71836083CC0FDD1F10
:10346000CC0FDD1F8E010B5A1D4F072E000C880B51
:10347000990B0E94ADF12AE037ED43E25CE30E9434
:103480000CF2CA5AD84F288139814A815B810E9447
:103490000CF2F8016083718382839383DF91CF9173
:1034A0001F910F910895FC01808191818B30904292
:1034B00059F4FB016081718176276727762780E0C8
:1034C000C0DF81E080934007089580915A07811101
:1034D0000EC020911D0230911E022150310981E061
:1034E0004091AB0D5091AC0D421753070CF080E0AA
:1034F00008958F929F92AF92BF92CF92DF92EF92F8
:10350000FF92FC01828158E5C52E52E0D52EC81AE3
:10351000D10887FDD394CC0CDD1CCC0CDD1C0D2C0C
:10352000000CEE08FF08818178E8872E912C881A1C
:10353000910887FD9394880C991C880C991C092C80
:10354000000CAA08BB0880818F3FD1F190E0FC01FC
:10355000EE0FFF1FE80FF91FE353F24F81819281B5
:1035600033E0880F991F3A95E1F7B0E0A0E044E01E
:10357000B595A795979587954A95D1F702969C01A1
:103580002F5F3F4F032E000C440B550B28193909B0
:103590004A095B09A4EBB0E00E940FF8A70196016D
:1035A000281939094A095B090E94F3F7C901FF90FC
:1035B000EF90DF90CF90BF90AF909F908F90089545
:1035C00090E080E0DCCF91E090935C069091D10098
:1035D00095FD0CC09091D00095FF08C08093D60057
:1035E0008091D00080648093D000089520915D0682
:1035F0002F5F2F720FB607FC27C090915E069213C3
:1036000028C09091D00095FF1EC090915E06409119
:103610005D06941306C09091D1009F7D9093D100D8
:1036200012C0E92FF0E0E35AF94F32819F5F9F7299
:103630003093D60090935E063091D0003064309382
:10364000D000491741F3D9CF90915E06921301C083
:10365000FBCFE0915D06F0E0E35AF94F82832093BF
:103660005D068091D10080628093D10008950F9310
:103670001F93CF93DF93EC01162F042F8AE5A3DF6E
:1036800085EAA1DF83E0800F9EDF812F9CDF8D2FF5
:103690009ADF8C2FDF91CF911F910F9194CF40E350
:1036A00055E760E070E08AE298E10C947B9940E392
:1036B00055E760E070E08AE298E10C947B99FC01A8
:1036C0004281442339F084819581009719F050E0BC
:1036D0000C9459FB0895CF93FB01C181C13031F4A3
:1036E0000E942698811104C0C0934007CF9108958D
:1036F0000E94E496F9CFCF93DF93EB010E945A9991
:1037000081110AC040E355E760E070E08AE298E189
:10371000DF91CF910C947B99888199819827892793
:1037200098272091B8062F3F29F02223A9F0DF9196
:10373000CF9108958536910514F084E690E08530A8
:10374000910514F485E090E090930D0280930C02B3
:1037500081E080934007EBCF863F910584F385EFAE
:1037600090E0EDCFE4E9F6E081E2DF011D928A9579
:10377000E9F781E0809340070895CF93FB018091A2
:103780009306813029F050F1823019F1CF910895DC
:1037900060E070E080E89FE32181223069F118F554
:1037A000222319F09058213089F7C0E024E0C29F0D
:1037B000F0011124E15DF54F208131814281538177
:1037C0000E9476F84C2F0E949FCE81E080934007A4
:1037D000DDCF6DEC7CEC8CEC9DE3DECF60E070E047
:1037E00080E291E4D9CF243021F028F090582530A0
:1037F00069F6C2E0DBCF9058C1E0D8CFCF93DF931A
:10380000EC01FB0160817181762767277627072EFF
:10381000000C880B990B0E94ADF120E030E040E2F3
:1038200051E40E9452F9288139812132F0E23F07A8
:1038300049F0223240E2340771F02032304241F444
:1038400040E001C041E00E949FCE81E080934007AC
:10385000DF91CF91089542E0F6CF8F929F92AF9281
:10386000BF92CF92DF92EF92FF92CF93DF9380913E
:1038700078098770873091F040E355E760E070E0A9
:1038800080E697E1DF91CF91FF90EF90DF90CF90AE
:10389000BF90AF909F908F900C947B99EB010E940A
:1038A0005A99811107C040E355E760E070E08AE271
:1038B00098E1E8CF8981833009F454C0B8F48130AD
:1038C00009F466C0C12CD12C60EFE62E61E4F62E1F
:1038D000823009F45AC0DF91CF91FF90EF90DF90D2
:1038E000CF90BF90AF909F908F900895843009F44F
:1038F00046C0C12CD12C97E8E92E93E4F92E812CF7
:10390000912C20EFA22E21E4B22E853021F720E069
:1039100030E040E850E46091370A7091380A8091B5
:10392000390A90913A0A0E9476F842E00E949FCEAE
:1039300040E0C501B4010E949FCE41E0C701B6013D
:103940000E949FCE42E060E070E0CB01DF91CF911A
:10395000FF90EF90DF90CF90BF90AF909F908F90AF
:103960000C949FCEC12CD12C40EFE42E41E4F42ED8
:10397000812C912C57E8A52E53E4B52EC8CFC12C2D
:10398000D12C37E8E32E33E4F32E46015701BFCFA5
:10399000C12CD12C86E1E82E83E4F82EF6CFCF930C
:1039A000DF93EB010E945A9981110AC040E355E769
:1039B00060E070E08AE298E1DF91CF910C947B990E
:1039C000809110028F5F8230E0F420E030E04AE224
:1039D00053E46091A70D7091A80D8091A90D90916D
:1039E000AA0D0E94A7F187FF07C040E355E760E0FA
:1039F00070E080E797E1E0CF8981882329F081306A
:103A000039F1DF91CF91089560910A0270910B0214
:103A100090E080E00E94ABF19B01AC0160913B0A19
:103A200070913C0A80913D0A90913E0A0E9475F87F
:103A300060933B0A70933C0A80933D0A90933E0A40
:103A400060E070E080E090E4DF91CF910C944C8FC7
:103A500060910A0270910B0290E080E00E94ABF14D
:103A600020913B0A30913C0A40913D0A50913E0A18
:103A70000E9476F8DDCFCF93DF93EB010E945A9935
:103A8000811103C0DF91CF9112CE898190910902FB
:103A9000923029F09330C1F0DF91CF9108958823BF
:103AA00071F06DEC7CEC8CEC9DEB0E9441CF0E94A0
:103AB00042D10E946C9981E080934007EDCF6DEC7C
:103AC0007CEC8CEC9DE3F1CF882329F06AE077ED64
:103AD00083E29CEBEACF6AE077ED83E29CE3E5CFFB
:103AE000CF93DF93EB010E945A99811103C0DF91BC
:103AF000CF91D5CD68817981762767277627072EE4
:103B0000000C880B990B0E94ADF120E030E048ECEE
:103B100052E40E9452F92091210E3091220E4091E0
:103B2000230E5091240E0E9475F80E9441CF0E94EE
:103B300042D10E946C9981E080934007DF91CF9140
:103B40000895FB018181882319F0813079F008956F
:103B50006AE077ED83E29CE30E9441CF0E9442D16C
:103B60000E946C9981E08093400708956AE077EDA8
:103B700083E29CEBF1CFFB0160817181762767279F
:103B80007627072E000C880B990B0E94ADF120E0E0
:103B900030E048EC52E40E9452F92091210E30911D
:103BA000220E4091230E5091240E0E9475F80E941F
:103BB00041CF0E9442D10E946C9981E080934007DE
:103BC0000895FB018181813031F0823039F081E04C
:103BD0008093400708950E940482F9CF0E94DC81FF
:103BE000F6CFCF93FB01C181C13051F40E940C98F4
:103BF000811108C00E942698811104C0C09340071B
:103C0000CF910895CF910C94E496CF93FB01C1819D
:103C1000C13031F40E940C98811104C0C093400758
:103C2000CF91089541E357E168E377E184E00E9492
:103C3000C3CA82EB9DE20E9470C78DE297E1909328
:103C4000330980933209ECCF80910E0290910F02DC
:103C500097FF08C040E355E760E070E08CE197E132
:103C60000C947B990E94CFDB882381F080918A0D90
:103C700085FD0CC00E945A99811101C010CD82E9C6
:103C800099E00E949AD283E0809375090895CF93BA
:103C9000DF93FB0181818130D1F040F0823019F156
:103CA00081E080934007DF91CF91089580918A0D44
:103CB00086FDF9CF1092B7061092B6068FEF9FEFF0
:103CC00090930F0280930E020E940ED2E9CF809152
:103CD000B6069091B706009731F301979093B70617
:103CE0008093B606DDCFC091B606D091B706269672
:103CF0000E9481DB8C179D07B0F28091B6069091EF
:103D0000B7060196EBCF1F93CF93DF93EC01FB0136
:103D10001181888199818130904289F480918A0D46
:103D200084FD0BC040E355E760E070E082EF96E170
:103D3000DF91CF911F910C947B990E94F7D18881DC
:103D400099818230904279F40E940C98882339F04E
:103D500040E355E760E070E089ED96E1E9CF0E942D
:103D600026988111F5CF888199818330904231F076
:103D700010937509DF91CF911F9108950E940C98BF
:103D80008111F6CF0E9426988111F2CF40E355E7CA
:103D900060E070E082EC96E1CBCFFC010190002066
:103DA000E9F79F0121503109281B390B2F333105C9
:103DB00040F4FC01E20FF31F60832E33310509F05C
:103DC00011820895CF93DF93EC0140E450E00E940C
:103DD000A1F0CE01DF91CF910895AB01BC014093DA
:103DE000860D5093870D6093880D7093890D8FED2C
:103DF00096E10C9492D6EF92FF920F931F93CF937C
:103E0000DF93CDB7DEB764970FB6F894DEBF0FBE71
:103E1000CDBF7C01FB0160817181828193818E0124
:103E20000F5F1F4F248141E00E94D3ECF701019006
:103E30000020E9F79F01215031092E193F092E3149
:103E4000310550F44FE150E0421B530BBC01C70158
:103E5000820F931F0E94F0F0C70164960FB6F8948A
:103E6000DEBF0FBECDBFDF91CF911F910F91FF90AD
:103E7000EF900895CF93DF93EC01FC0101900020B7
:103E8000E9F7CF0101978C1B9D0B8F33910540F40F
:103E900040E450E0481B590B8C0F9D1F0E94F0F02E
:103EA000CE01DF91CF910895EF92FF920F931F9370
:103EB000CF93DF93CDB7DEB764970FB6F894DEBF2C
:103EC0000FBECDBF7C01FB01608171818281938136
:103ED0008E010F5F1F4F248141E00E94D3ECBC0193
:103EE000C701C8DF64960FB6F894DEBF0FBECDBF22
:103EF000DF91CF911F910F91FF90EF9008950C9457
:103F000008C6682F70E090E080E00C94EFC68091C6
:103F1000600590916105009731F04AE050E070E053
:103F200060E00C9473EF60E070E0CB010895809145
:103F3000600590916105009731F04AE050E070E033
:103F400060E00C9446EE60E070E0CB010895EFDF96
:103F500097FD0AC0ECDF6F3F71058105910509F0FF
:103F60002CF4E5DF862F089580E008958FEF089503
:103F7000CF93C62F5ADA882311F0CF91E8CF8C2F38
:103F8000CF9108958091600590916105892B39F05A
:103F9000DEDF91E0811101C090E0892F089591E06A
:103FA000FCCFCF93DF93C82FD62F3FDA882319F0A9
:103FB000DF91CF91E7CF8C2FEAD9811101C08D2FEE
:103FC000DF91CF910895B3DFCB010895CF93DF93B5
:103FD000EB012BDA882319F0DF91CF91F4CFCE01DA
:103FE000DF91CF9108950F931F93CF938091600538
:103FF00090916105009709F1FC018F01C1912C2F6F
:104000002F7DA1F0C53431F0C53621F0C83511F04F
:10401000C83799F7F801108270E060E00E94F0EC78
:10402000F801C083CF911F910F91089570E060E077
:10403000CF911F910F910C94F0EC60E070E0CB01F8
:10404000F1CFCF92DF92EF92FF926A017B01EDD91F
:10405000882329F0FF90EF90DF90CF90C4CFC70165
:10406000B601FF90EF90DF90CF9008954F925F924E
:104070006F927F92AF92BF92CF92DF92EF92FF92B8
:104080000F931F93CF93DF938FE0A82E84E0B82E79
:104090000FE21AE0C6E4D7E09AE7C92E99E0D92EDC
:1040A000F12CF50181915F01C0D9882321F0809125
:1040B000DC09882351F0F80180819181A281B381CC
:1040C00088839983AA83BB8315C08DDF2B013C01B4
:1040D0008F2DFDD8882309F463C0F8012081318138
:1040E00042815381C301B2010E9476F868837983CB
:1040F0008A839B83F3940C5F1F4F2496F4E0CF0ECA
:10410000D11C83E0F812CDCF85E48FD9882309F440
:1041100051C069DF6B017C0183E0D9D8882371F03D
:1041200020913B0A30913C0A40913D0A50913E0A51
:10413000C701B6010E9476F86B017C01C09252075C
:10414000D0925307E0925407F092550740E050E0B8
:10415000BA0186E476DF20E030E0A9010E949DFAF2
:1041600018167CF440DF20E030E040E752E40E9483
:1041700052F9609313027093140280931502909386
:104180001602DF91CF911F910F91FF90EF90DF907A
:10419000CF90BF90AF907F906F905F904F900895B9
:1041A000F6012081318142815381C301B2010E9415
:1041B00075F89CCF80913B0A90913C0AA0913D0AF2
:1041C000B0913E0A8093520790935307A0935407EF
:1041D000B0935507BBCF80917409833018F046DF48
:1041E0000C94D4B00895EF92FF920F931F93CF9346
:1041F000DF93CDB7DEB72C970FB6F894DEBF0FBEB6
:10420000CDBF7C017F936F9387EE94E09F938F9354
:104210008E010F5F1F4F1F930F930E94A7FBB801E2
:10422000C70128DE0F900F900F900F900F900F9006
:104230002C960FB6F894DEBF0FBECDBFDF91CF91A5
:104240001F910F91FF90EF900895EF92FF920F93BF
:104250001F93CF93DF93CDB7DEB7A4970FB6F89433
:10426000DEBF0FBECDBFF82E8093DE098FE18F1524
:1042700008F489C08091DD09F81624F081E08F0DE3
:104280008093DD0981E090E00F2C02C0880F991F18
:104290000A94E2F7092E000CAA0BBB0B4091DF0930
:1042A0005091E0096091E1097091E209842395231E
:1042B000A623B72321E0892B8A2B8B2B09F420E03E
:1042C0002093DC09F7FC62C04FE150E062E575E045
:1042D0008E010F5F1F4FC8010E94A1F0F8010190ED
:1042E0000020E9F7CF010197801B910B8E319105DA
:1042F00060F420E2F801E80FF91F20838D31910569
:1043000021F08C0F9D1FFC0112828F2D0F2C000CB1
:10431000990B9F93FF9287EE94E09F938F937E017A
:10432000F0E2EF0EF11CFF92EF920E94A7FBF80162
:1043300001900020E9F7CF010197801B910B0F90AE
:104340000F900F900F900F900F908E31910548F4C1
:104350004FE150E0481B590BB701800F911F0E949D
:10436000F0F040E060E0C8010E940C97A4960FB600
:10437000F894DEBF0FBECDBFDF91CF911F910F919B
:10438000FF90EF9008951092DC099CCF0E943DCAE7
:10439000EDCFCF92DF92EF92FF92CF936B017C0132
:1043A000C42F8091C0148F5F09F4CEC08093C014D5
:1043B0008091C01480937A1520E030E040E752E409
:1043C000609113027091140280911502909116026F
:1043D0000E940CF20E94BFF97093D2146093D11422
:1043E00080911102909112029093D4148093D3146F
:1043F00080911702909118029093D6148093D5144F
:10440000C092D714D092D814E092D914F092DA1452
:1044100080917915C0FB80F98093791587E0ECEDE8
:10442000F9E0ABEDB4E101900D928A95E1F78CE0F3
:10443000E5E2F9E0A2EEB4E101900D928A95E1F790
:104440008CE0EAE7F9E0AEEEB4E101900D928A95D6
:10445000E1F78091DC079091791580FB94F99093B6
:104460007915882381F08091D8079091D907A09180
:10447000DA07B091DB078093FA149093FB14A093B2
:10448000FC14B093FD148091AB0D9091AC0D909302
:10449000FF148093FE148091F8079091F907909390
:1044A00001158093001580917C14809302158091F2
:1044B00079159091A80990FB83F9809379158091E3
:1044C000A9099091AA09A091AB09B091AC09809378
:1044D000031590930415A0930515B09306150E943B
:1044E000F09460937415709375158093761590937E
:1044F00077158091BF14809378159091E30980918E
:10450000791593FB81F990915A0790FB82F980937A
:10451000791580E00E9489DF40E050E0BA0180E830
:1045200095E10E9492D64BEB50E060EC74E180E89C
:1045300095E10E94B4D780E895E1CF91FF90EF908C
:10454000DF90CF900C948A7D81E030CFAF92BF9204
:10455000CF92DF92EF92FF920F931F93CF935C0164
:104560006B018A01895F9A4F7C01DC01CC91C7FF06
:104570003DC0FB0111821082CF5FD701CC93CC30BC
:104580000CF053C08CE08A9DF0018B9DF00D11243E
:10459000CF018C0F911DC7FD9A952091150E2817FC
:1045A000190609F00CF441C0F60120813181FC01AB
:1045B000EE0FFF1FE80FF91FE353F24F8181928145
:1045C000820F931FD80111969C938E93808187FF51
:1045D0003DC061E08F77CF911F910F91FF90EF90D9
:1045E000DF90CF90BF90AF900C949DCF8CE08A9DD0
:1045F000F0018B9DF00D1124CF018C0F911DC7FD93
:104600009A952091150E2817190609F00CF4B4CFCD
:10461000FC01EE0FFF1FE80FF91FE353F24F8081FB
:1046200060E08F770E949DCFA7CFF60180819181B6
:1046300004968034FCE99F0710F480E49CE9D801DB
:1046400011969C938E938FEFF7018083CF911F91EA
:104650000F91FF90EF90DF90CF90BF90AF900895B3
:10466000AF92BF92CF92DF92EF920F931F93CF93AF
:104670005B01C42F122F62E80E94371BC5010E9404
:10468000B5F06C018C2F90E0C816D90630F5C11436
:10469000D10441F1CC19112381F0011111C010E0B6
:1046A00000E00C151D05F1F0F501E00FF11F8491FC
:1046B0000E94E31A0F5F1F4FF4CF10E0011107C0F3
:1046C0008C199D09969587951C2F181BC82FC150D2
:1046D00038F080E20E94E31AFACF6C01C0E0DFCF2D
:1046E000C12FDDCF10E2E11001C010E0C15020F079
:1046F000812F0E94E31AFACFCF911F910F91EF9073
:10470000DF90CF90BF90AF900895AF92BF92CF92BD
:10471000DF92EF920F931F93CF935B01C42F122F61
:1047200062E80E94371BF50101900020E9F73197FC
:104730006F01CA18DB088C2F90E0C816D90618F54F
:10474000C114D10429F1CC19112369F001110EC053
:10475000CA0CDB1CCA14DB04D9F0F50181915F019E
:104760000E94E31AF7CF10E0011107C08C199D09D0
:10477000969587951C2F181BC82FC15038F080E2E2
:104780000E94E31AFACF6C01C0E0E2CFC12FE0CF64
:1047900010E2E11001C010E0C15020F0812F0E9412
:1047A000E31AFACFCF911F910F91EF90DF90CF9046
:1047B000BF90AF900895EF920F93CF93DF93EC01EA
:1047C00089E79CE20E94EC98209749F0EE24E3945C
:1047D00001E021E040E2BE0180E291E196DF89E75D
:1047E0009CE2009781F0EE24E39401E021E040E2B6
:1047F000BC0180E491E134DF21E040E269E77CE242
:1048000080E691E12DDF60E083E00E941DC680918B
:104810003F07893F11F08093340281E0809376094D
:1048200089EF80937509DF91CF910F91EF900895F3
:10483000FF920F931F93CF93DF93F62E072F142F22
:1048400062E80E94371BCF2DD02F115020F08991A4
:104850000E94E31AFACFDF91CF911F910F91FF9041
:10486000089520ED32E1F90145915491411551052A
:1048700071F04817590741F4CB014AE050E0B90103
:104880000E947BF081E00895265F3F4F61F780E052
:104890000895CF93DF931F921F92CDB7DEB7853671
:1048A00008F084E6682F70E090E080E00E94ADF1AF
:1048B00020E030E04FE753E40E940CF220E030E0CB
:1048C00048EC52E40E9452F920E030E0A9010E9435
:1048D00076F80E94A9FA6093E4031A821982698328
:1048E00042E0BE016F5F7F4F81EA90E0A1DF0F9051
:1048F0000F90DF91CF910895FB018181CADF0C9465
:104900006C99CF93DF931F921F92CDB7DEB7853698
:1049100008F084E680931F02682F70E090E080E04A
:104920000E94ABF120E030E04EEB52E40E940CF22A
:1049300020E030E048EC52E40E9452F920E030E000
:1049400040EA50E40E9476F80E94A9FA69836A83DB
:1049500042E0BE016F5F7F4F82E890E069DF0F9019
:104960000F90DF91CF910895FB018181CADF0C94F4
:104970006C996091E40370E090E080E00E94ABF1FC
:1049800020E030E048EC52E40E940CF220E030E0FD
:104990004FE753E40E9452F920E030E0A9010E9461
:1049A00076F80E94A9FA862F089580913C07882303
:1049B00021F080913B07811109C041E063E88FE05D
:1049C00090E00E94371B81E00C94E31A0895109246
:1049D000D0008091D00082608093D0001092D500EA
:1049E00080E18093D4008091D10080618093D100D8
:1049F0008091D10088608093D1008091D10080683F
:104A00008093D1008091D1008F7D8093D10010924E
:104A10005C06CBDF80913D07882321F081E0809305
:104A20004007089561E080E00C94FD98CF93DF93F8
:104A3000C091F807D091F907209729F16091F40708
:104A40007091F5078091F6079091F7070E94BAF9E7
:104A50006E5F7F4F24976C177D07ACF47093E0076F
:104A60006093DF070E94C3D0605A75418F4F9F4FFC
:104A70006093E1077093E2078093E3079093E40764
:104A8000DF91CF9108951092E1071092E207109202
:104A9000E3071092E407F4CF2F923F924F925F9278
:104AA0006F927F928F929F92AF92BF92CF92DF923E
:104AB000EF92FF920F931F93CF93DF93D62FC72FC1
:104AC000FC0180809180A280B380C501B40120E800
:104AD00031E541E050E00E94D1F7C9016DE671E097
:104AE0000E9434F86B017C01C501B40120E13EE075
:104AF00040E050E00E94D1F7CA01B90128E130E05E
:104B000040E050E00E94D1F7362E272E062F172FB7
:104B10008CE3482E512C612C712CC501B401A301EA
:104B200092010E94D1F7B62EA72ECA01B901A301A6
:104B300092010E94D1F7CB01C114D10479F1AF9257
:104B4000BF927F936F932F923F92FF92EF92DF92EB
:104B5000CF928CEE9FE09F938F93CF93DF930E9431
:104B600040F18DB79EB70E960FB6F8949EBF0FBE5C
:104B70008DBF8D2F9C2FDF91CF911F910F91FF90B3
:104B8000EF90DF90CF90BF90AF909F908F907F90ED
:104B90006F905F904F903F902F900895E114F10433
:104BA000C9F0AF92BF927F936F932F923F92FF9283
:104BB000EF928CED9FE09F938F93CF93DF930E94B2
:104BC00040F1EDB7FEB73C960FB6F894FEBF0FBEAE
:104BD000EDBFCFCF012BB9F0AF92BF927F936F9310
:104BE0002F923F9280ED9FE09F938F93CF93DF931F
:104BF0000E9440F18DB79EB70A960FB6F8949EBFFB
:104C00000FBE8DBFB6CF892BA9F0AF92BF927F9315
:104C10006F9388EC9FE09F938F93CF93DF930E94D5
:104C200040F1EDB7FEB738960FB6F894FEBF0FBE51
:104C3000EDBF9FCFAF92BF9284EC9FE09F938F9385
:104C4000CF93DF930E9440F10F900F900F900F9041
:104C50000F900F908ECF8F929F92AF92BF92CF9274
:104C6000DF92EF92FF920F931F93CF93DF931092F7
:104C70008505109284052FE32093890510928805FD
:104C800010928705109286051092580610925906C8
:104C900010925A0610925B069C01F90190812F5FD9
:104CA0003F4F9032D1F39E34C9F4818190ED980F3B
:104CB0009A3020F08D3211F08B3281F432969F01C0
:104CC0002F5F3F4F808180538A3008F44CC09F0192
:104CD0002F5F3F4F8081803209F447C0F0939109E4
:104CE000E09390098F010F5F1F4FC0816AE270E06F
:104CF000C8010E947CFB009731F0FC013197808154
:104D00008032E1F31182CD3421F0C43511F0C73483
:104D1000E9F4D8018C910F5F1F4F8032D1F380539B
:104D20008A30A0F4C093890530E020E06AE0FD01FC
:104D300031968C9180532A3999E13907D0F030931C
:104D40008805209387058FE380938905DF91CF91B4
:104D50001F910F91FF90EF90DF90CF90BF90AF9099
:104D60009F908F900895F901AACFF901B0CFDF018C
:104D7000DECF293999E1390711F4863000F7629FB7
:104D8000A001639F500D11249A01280F311D8081CD
:104D900090ED980F9A3058F330938805209387054B
:104DA0008E3261F4129690E04AE0FD011196808106
:104DB00050ED580F5A30C0F090938605DF013196C0
:104DC0008C918032D9F3CD34F9F42E31310539F09C
:104DD00088F42731310519F02C313105A9F4B0934D
:104DE0008505A0938405B2CF949F800D112490ED8A
:104DF000980FDBCF2537310538F02737310578F3A9
:104E0000203AE3E03E0759F3D091900940E050E0AA
:104E1000BA0110E000E0C12CD12C7601C394FD0151
:104E200031968C91882309F47FC08132E1F4CD342E
:104E3000D1F420323105B9F4409358065093590605
:104E400060935A0670935B06F0938505E0938405A2
:104E500063E270E0CF010E947CFB009709F476CFFB
:104E6000FC01108273CF81548A3108F058C0DF01F1
:104E70009D91903291F0A0EDA90FAA30E8F09E32FA
:104E800071F4918190539A30B8F00115110519F41D
:104E90008F010150110990E013C0FD01E8CF9D3250
:104EA00011F09B3291F79181A0EDA90FAA3020F06B
:104EB0009E3259F79281E6CF9E2F9D1B309759F372
:104EC000A82FB0E04601570104C0880C991CAA1C09
:104ED000BB1C8A95D2F7482959296A297B29A659EA
:104EE000BA4F9C9380818154DF018A3108F497CFB7
:104EF000DF018191882309F492CF90ED980F9A30C9
:104F0000B8F393ED980F923098F38B3289F3CD017B
:104F10000196EC91E03209F082CFDC01F8CF011567
:104F2000110501F78D01DECF1093850500938405EF
:104F3000409358065093590660935A0670935B0647
:104F400005CFCF93DF93EC018991882319F00E945C
:104F500008C6FACF8DE00E9408C68AE0DF91CF91A3
:104F60000C9408C60C94EFC690917909992321F00E
:104F7000682F80E00E94149380E008951F93CF93E0
:104F8000DF931BEBC0ECD4E1FE01812F11928A95D7
:104F9000E9F70E94E3D1882359F0FE0111921A9596
:104FA000E9F784EB94E0DF91CF911F910C94AEDF91
:104FB000DF91CF911F9108958091C014882361F0F3
:104FC00090917A15891308C080918A0D84FF04C0DE
:104FD00087E095E10C949BDD80E00895FC0123813E
:104FE00021110C948A7D0895CF93DF93C091AB0D6E
:104FF000D091AC0D209729F16091A70D7091A80D6B
:105000008091A90D9091AA0D0E94BAF96E5F7F4F11
:1050100024976C177D07ACF470930508609304081F
:105020000E94C3D0605C73468F4F9F4F6093060809
:10503000709307088093080890930908DF91CF9137
:10504000089510920608109207081092080810920E
:105050000908F4CFCF93DF93EC018991882319F0ED
:105060000E9408C6FACFDF91CF910895CF93C1E097
:1050700020E030E0A901609163077091640780919E
:105080006507909166070E94A7F1811101C0C0E0F9
:105090008C2FCF910895CF93C82F882319F0E6DF86
:1050A0008823C9F08091A8098C17A9F00E942E834B
:1050B0008FE29AE00E942B858091A80991E08927D0
:1050C0008093A809882321F08FE29AE00E940B8246
:1050D000CF910C942E91CF9108950E945A998111ED
:1050E00002C00C944F1B80E0D6DF0E946C9981E0D7
:1050F0008093400708954F925F926F927F928F92B4
:105100009F92AF92BF92CF92DF92EF92FF920F9356
:105110001F93CF93DF93EC0120915B0730915C07E5
:1051200040915D0750915E07688179818A819B81FA
:105130000E9475F86B017C0120915F073091600738
:1051400040916107509162076C817D818E819F81C2
:105150000E9475F84B015C01A7019601609148051A
:105160007091490580914A0590914B050E94A7F1E5
:10517000882309F45AC0C0924805D0924905E092AC
:105180004A05F0924B052091400530914105409130
:10519000420550914305C701B6010E940CF22B0154
:1051A0003C010E94EBF96B017C0120E030E0A90199
:1051B0000E94A7F187FD7AC020E030E040E850E48B
:1051C000C701B6010E949DFA181634F4C12CD12CE7
:1051D000C0E8EC2EC0E4FC2EA7019601C301B20189
:1051E0000E9475F82B013C0120E030E0A9010E94EB
:1051F000A7F187FD5FC04092380550923905609253
:105200003A0570923B05C701B6010E94BAF9609356
:105210003605062E000C770B6F5F7F4F64307105EB
:1052200014F064E070E060933405D0913205109181
:105230003605A501940160914C0570914D05809152
:105240004E0590914F050E94A7F181113CC0D113EA
:1052500094C020911A0530911B0540911C05509176
:105260001D05609138057091390580913A0590913E
:105270003B050E940CF220911E0530911F054091C4
:105280002005509121050E9476F8DF91CF911F9162
:105290000F91FF90EF90DF90CF90BF90AF909F90D5
:1052A0008F907F906F905F904F900895C12CD12C7C
:1052B000760192CF109238051092390510923A0576
:1052C00010923B05A0CF80924C0590924D05A09284
:1052D0004E05B0924F05209144053091450540910F
:1052E000460550914705C501B4010E940CF24B01DF
:1052F0005C010E94EBF96B017C0120E030E0A90128
:105300000E94A7F187FDFDC020E030E040E850E4B6
:10531000C701B6010E949DFA181634F4C12CD12C95
:10532000B0E8EB2EB0E4FB2EA7019601C501B40155
:105330000E9475F84B015C0120E030E0A9010E9459
:10534000A7F187FDE2C080923C0590923D05A092B6
:105350003E05B0923F05C701B6010E94BAF96093BD
:105360003705062E000C770B6F5F7F4F6430710599
:1053700014F064E070E060933505C0913705D113F7
:1053800005C0809133058C1709F470C080913605F3
:105390009091370590933305809332050C2E000CC5
:1053A000DD0B25E01203C0011124FC01EC0FFD1FF1
:1053B000EE0FFF1FEE0FFF1FE559F84F20813181DF
:1053C0004281538120932E0530932F054093300561
:1053D0005093310500913505002E000C110BFC0196
:1053E000E00FF11FEE0FFF1FEE0FFF1FE559F84F03
:1053F00060817181828193810E9475F860932A0592
:1054000070932B0580932C0590932D0520913405E6
:1054100035E02303F0011124CE0FDF1FCC0FDD1F79
:10542000CC0FDD1FC559D84F288139814A815B8156
:10543000209326053093270540932805509329058E
:10544000E00FF11FEE0FFF1FEE0FFF1FE559F84FA2
:1054500060817181828193810E9475F86093220539
:1054600070932305809324059093250580903C0537
:1054700090903D05A0903E05B0903F0520912A05F3
:1054800030912B0540912C0550912D05C501B4019B
:105490000E940CF220912E0530912F05409130058D
:1054A000509131050E9476F86B017C01C0921E0577
:1054B000D0921F05E0922005F0922105209122054F
:1054C000309123054091240550912505C501B40173
:1054D0000E940CF220912605309127054091280565
:1054E000509129050E9476F8A70196010E9475F84F
:1054F00060931A0570931B0580931C0590931D05FE
:10550000A8CEC12CD12C76010FCF10923C05109261
:105510003D0510923E0510923F051DCFE8E4F5E0F1
:1055200080EF9FEFA9E7B4EC84839583A683B783CC
:1055300080839183A283B383E2E3F5E08DE98183E5
:10554000808308958F929F92AF92BF92CF92DF9205
:10555000EF92FF92FC0198E0A3E6B7E001900D9274
:105560009A95E1F788E0FB01ABE5B7E001900D9279
:105570008A95E1F7C0906307D0906407E0906507D3
:10558000F090660720E030E0A901C701B6010E9453
:10559000A7F18823E1F1A701960160E070E080E8BF
:1055A0009FE30E9452F96B017C0180906707909005
:1055B0006807A0906907B0906A0720E030E0A90171
:1055C000C501B4010E94A7F1882329F1A501940126
:1055D00060E070E080E89FE30E9452F9C0924005CD
:1055E000D0924105E0924205F09243056093440554
:1055F000709345058093460590934705FF90EF9083
:10560000DF90CF90BF90AF909F908F900895C12C66
:10561000D12C7601CACF60E070E0CB01DFCF8F9252
:105620009F92AF92BF92EF92FF920F931F93CF93EF
:10563000DF9310925F07109260071092610710923B
:10564000620710925B0710925C0710925D07109240
:105650005E07109267071092680710926907109210
:105660006A07109263071092640710926507109200
:1056700066070BE617E0C0E0812C912C80ECA82E89
:105680008FE7B82E7801D0E0F70181929192A19234
:10569000B1927F016D2F8C2F0E94CDA0DF5FD5309E
:1056A00099F7CF5F0C5E1F4FC53061F7DF91CF9147
:1056B0001F910F91FF90EF90BF90AF909F908F90B0
:1056C0000895EFE6F0E08081826080830895809104
:1056D0008A0990918B09892B79F480918A0990919C
:1056E0008B09892B49F420918A0930918B0981E03B
:1056F000232B19F480E0089581E00895CF93DF9380
:10570000EC01FE0184912196882319F00E947F1FED
:10571000F8CFDF91CF910895CF93DF93EB01EEDFC8
:10572000CE01DF91CF9196CCCF92DF92EF92FF9294
:105730006A017B01E3DF42E0C701B601FF90EF9011
:10574000DF90CF900C9483C782E395E0D7CF8CE2B3
:1057500095E0D4CF8AE00C947F1F0F931F93CF93D3
:105760008C01C62F80E29CE0C9DFC801C7DF8AE355
:105770000E9408C680E38C0F0E947F1FCF911F916B
:105780000F91E8CFCF938CE19EE0B8DFE3DFE091AB
:105790005A0282E6E89FF0011124E354FD4FC081D4
:1057A00060E08CE09EE0D9DF60E087EF9DE0D5DF30
:1057B00061E080EF9DE0D1DF61E085EE9DE0CDDF2F
:1057C00060E086ED9DE0C9DF61E086EC9DE0C5DF2D
:1057D00060E08DEB9DE0C1DF61E083EB9DE0BDDF2C
:1057E00061E089EA9DE0B9DF61E082EA9DE0B5DF32
:1057F00061E08AE99DE0B1DF61E08CE89DE0ADDF2A
:1058000060E08EE79DE0A9DF60E08FE69DE0A5DF28
:1058100060E081E69DE0A1DF60E08BE49DE09DDF3C
:1058200060E08AE39DE099DF61E085E29DE095DF3D
:1058300061E086E19DE091DF61E08FE09DE08DDF3A
:1058400060E082E09DE089DF60E08BEF9CE085DF37
:1058500061E082EF9CE081DF60E08DED9CE07DDF28
:1058600060E08FEC9CE079DF60E085EC9CE075DF28
:1058700060E08EEA9CE071DF60E081EA9CE06DDF31
:1058800061E08EE89CE069DF60E081E89CE065DF34
:1058900061E08CE79CE061DF61E08FE69CE05DDF2A
:1058A00060E083E69CE059DF60E08FE49CE055DF38
:1058B00060E08CE39CE051DFC7FD1AC060E080919E
:1058C0007C1590917D15CC2339F0C13089F461E0CD
:1058D00080917E1590917F150E946419682F6170E8
:1058E00083E39CE03ADF60E085E29CE0CF9135CF36
:1058F00080E0F4CFCF92DF92EF92FF926A017B01BA
:10590000FDDEC701B6010E9457C7FF90EF90DF9000
:10591000CF9020CF0F931F93CF93883038F5082F67
:10592000082E000C110BC0917B1591E001C0990F5E
:105930008A95EAF790937B150E9474C787E6809F4B
:10594000F001819FF00D1124E657FA4F40815181FB
:10595000628173814F5F5F4F6F4F7F4F8BEB9FE093
:10596000C9DF87EB9FE0CADEC0937B15CF911F9103
:105970000F910895EF92FF920F931F93CF93DF93B0
:105980007C01C62F062F062E000C110B80E068301C
:1059900028F481E001C0880F6A95EAF7D0917B1561
:1059A00080937B15D1DE87E6809FF001819FF00D0B
:1059B0001124E657FA4F4081518162817381C701FA
:1059C00099DF8C2F0E94E5180196D9F78C2FA2DF62
:1059D00087E6809FF001819FF00D1124E657FA4F72
:1059E00015821482D0937B15DF91CF911F910F9177
:1059F000FF90EF900895CF92DF92EF92FF926A01AD
:105A00007B017CDE42E0C701B6010E9483C7FF90A4
:105A1000EF90DF90CF909ECECF93DF93EB016EDEC1
:105A2000CE016CDEDF91CF9195CE0F931F93CF9374
:105A3000DF938C01D62FC0917B158FEF80937B1560
:105A40008CE595E05BDEC80159DED11183DEC093A1
:105A50007B15DF91CF911F910F9108950F931F93A5
:105A6000CF93DF938C01D62FC0917B158FEF80935E
:105A70007B1560E082E895E0D8DFC8013FDED111F8
:105A800069DEC0937B15DF91CF911F910F9108952F
:105A9000EF92FF921F93CF93DF937C0160E089E93F
:105AA00095E0DCDFCBE7D5E118818FEF888380E2DA
:105AB0000E947F1FC70122DE4DDE1883DF91CF9148
:105AC0001F91FF90EF90089561E084E995E0C6CFC3
:105AD00061E080E995E0C2CF0F931F93CF93DF93EE
