:100000000C94ED180C942D190C942D190C942D1999
:100010000C942D190C942D190C942D190C942D1948
:100020000C942D190C942D190C942D190C942D1938
:100030000C942D190C942D190C942D190C942D1928
:100040000C942D190C9465810C942D190C942D1978
:100050000C942D190C945C800C942D190C9457D28F
:100060000C942D190C94A94E0C94954E0C942D19AA
:100070000C942D190C942D190C942D190C942D19E8
:100080000C942B4C0C942D190C942D190C942D19A7
:100090000C946B4E0C949F4E0C942D190C942D19AE
:1000A0000C942D190C942D190C94FD4B0C942D19B6
:1000B0000C942D190C942D190C942D190C942D19A8
:1000C0000C942D190C942D190C942D190C94414E4F
:1000D0000C940B4E0C942D190C942D190C942D1975
:1000E0000C942D19084AD73B3BCE016E84BCBFFD52
:1000F000C12F3D6C74319ABD56833DDA3D00C77FF8
:1001000011BED9E4BB4C3E916BAAAABE0000008090
:100110003F05A84CCDB2D44EB93836A9020C50B91F
:10012000918688083CA6AAAA2ABE000000803F004B
:100130004E414E494E495459494E46CDCCCC3D0ACC
:10014000D7233C17B7D13877CC2B329595E6241FAF
:10015000B14F0A000020410000C84200401C462068
:10016000BCBE4CCA1B0E5AAEC59D7400407A10F33B
:100170005A00A0724E18090010A5D4E80000E876D5
:1001800048170000E40B54020000CA9A3B0000002C
:10019000E1F505000080969800000040420F000045
:1001A00000A08601000000102700000000E8030006
:1001B0000000006400000000000A000000000001D0
:1001C00000000000002C76D888DC674F0823DFC1D0
:1001D000DFAE59E1B1B796E5E3E453C63AE651998B
:1001E0007696E8E6C28426EB898C9B62ED407C6FB4
:1001F000FCEFBC9C9F40F2BAA56FA5F490055A2A6B
:10020000F75C936B6CF9676DC11BFCE0E40D47FE76
:10021000F520E6B500D0ED902E030094357705006B
:1002200080841E080000204E0A000000C80C3333F2
:1002300033330F986E12831141EF8D2114893BE601
:100240005516CFFEE6DB18D1844B381BF77C1D908A
:100250001DA4BBE424203284725E228100C9F124F3
:10026000ECA1E53D27434F4D4D554E49434154497F
:100270004F4E0044525952554E004552524F525320
:1002800000494E464F004543484F00322E312E78EC
:10029000202876322E302E39290057616E68616F22
:1002A000204439204D4B32203530300053544F50CC
:1002B0005045442E20005072696E7465722073742C
:1002C0006F707065642064756520746F206572724C
:1002D0006F72732E2046697820746865206572728B
:1002E0006F7220616E6420757365204D3939392035
:1002F000746F20726573746172742E202854656D5A
:1003000070657261747572652069732072657365BA
:10031000742E2053657420697420616674657220A0
:1003200072657374617274696E67290A004E6F207A
:10033000436865636B73756D2077697468206C69B9
:100340006E65206E756D6265722C204C6173742031
:100350004C696E653A20004E6F20436865636B738D
:10036000756D2077697468206C696E65206E756D97
:100370006265722C204C617374204C696E653A2062
:1003800000636865636B73756D206D69736D61746F
:1003900063682C204C617374204C696E653A2000B0
:1003A0004C696E65204E756D626572206973206EB2
:1003B0006F74204C617374204C696E65204E756DAE
:1003C0006265722B312C204C617374204C696E6510
:1003D0003A20004D3131300053657269616C2073F1
:1003E0007461747573206D69736D617463680A005C
:1003F00053442072656164206572726F720A0074E2
:100400006F6F206D75636820696E616374697665CE
:100410002074696D65202D2063757272656E74207D
:10042000636F6D6D616E643A20002121204B494C51
:100430004C20636175736564206279200062757376
:10044000793A2070617573656420666F7220696EF9
:100450007075740A00627573793A207061757365FE
:100460006420666F7220757365720A006275737915
:100470003A2070726F63657373696E670A00534444
:1004800020436172642072656164206572726F72CC
:10049000004D31303030530046696C616D656E74CB
:1004A0002072756E6F757420452564004D363030AE
:1004B000002066696C616D656E745F72756E6F7534
:1004C00074200066696C616D656E745F72756E6F25
:1004D000757420540046696C616D656E7452756E5A
:1004E0006F7574205400506C65617365205265739C
:1004F000657400706F7765726F6666004B494C4C8F
:1005000045442E20005072696E7465722068616CDB
:100510007465642E206B696C6C28292063616C6C97
:100520006564210A006563686F3A004572726F72F4
:100530003A0042696C696E656172204C6576656C43
:10054000696E6720477269643A0A005072696E7476
:10055000204F626A002F2F616374696F6E3A006EDC
:100560006F74696669636174696F6E20006E6F7481
:10057000696669636174696F6E200070726F6D7077
:10058000745F00626567696E00656E640073686F12
:100590007700627574746F6E00486F74656E6420C6
:1005A000746F6F20636F6C640A004D323453004DDA
:1005B000323320004739322E394500473146004753
:1005C00031463630305A00473146333030305800EB
:1005D0004D31303650004D31303953004D323030CE
:1005E00044004739322E395A004D343230530047D7
:1005F000323852305859004731463630305A004769
:1006000039322E395A004739322E394530004D31B2
:10061000303953004D31393053004D34323053307E
:10062000004F46460A004661646520486569676870
:10063000742000426564204C6576656C696E6720A5
:10064000004661696C656420746F20656E61626C40
:100650006520426564204C6576656C696E670A00AA
:10066000496E76616C6964206D6573682E0A004777
:1006700031205A31302046313230300A473120584B
:100680003235302059323530204636303030005047
:10069000726F62696E6720506F696E740025532017
:1006A00025692F2569002E0A002F0050726F62699C
:1006B0006E67206D65736820706F696E742000200E
:1006C0002844525952554E290047323920417574F9
:1006D0006F20426564204C6576656C696E67003FEB
:1006E00020284C2C522C462C4229206F7574206FE8
:1006F0006620626F756E64732E0A0020756E6974D1
:10070000732F6D696E290A003F46656564726174D6
:10071000652028532920746F6F206C6F772E202856
:100720005573696E6720003F2856296572626F73A2
:1007300065206C6576656C20696D706C6175736998
:10074000626C652028302D34292E0A004261642015
:100750005A2076616C75650A004E6F2062696C697B
:100760006E65617220677269640A0020440020206F
:100770004D323030205300202844697361626C652B
:1007800064293A0046696C616D656E742073657406
:1007900074696E67730020204D3230312058004D4F
:1007A000617820416363656C65726174696F6E2066
:1007B00028756E6974732F7332290020204D3230F2
:1007C000332058004D6178206665656472617465F8
:1007D000732028756E6974732F73290020520020CE
:1007E000204D323034205000416363656C65726186
:1007F00074696F6E2028756E6974732F73322920A7
:1008000028503C7072696E742D616363656C3E2084
:10081000523C726574726163742D616363656C3EF2
:1008200020543C74726176656C2D616363656C3E27
:10083000290020540020530020204D323035204222
:1008400000416476616E6365642028423C6D696E88
:100850005F7365676D656E745F74696D655F7573F1
:100860003E20533C6D696E5F6665656472617465B8
:100870003E20543C6D696E5F74726176656C5F6694
:10088000656564726174653E20583C6D61785F6A8D
:1008900065726B3E20593C6D61785F6A65726B3E94
:1008A000205A3C6D61785F6A65726B3E20453C6DF5
:1008B00061785F6A65726B3E290020440020490020
:1008C00020204D333031205000486F74656E642015
:1008D0005049440070617573656400486561642027
:1008E00063616E6E6F74206265207061726B656407
:1008F00000506175736500496E7365727420666996
:100900006C616D656E7420616E64207072657373C6
:1009100020627574746F6E0A005265686561742098
:10092000446F6E6500526568656174696E672E2E4E
:100930002E005265686561740048656174657220B7
:1009400054696D656F7574005072657373206275BC
:1009500074746F6E20746F2068656174206E6F7A96
:100960007A6C650A004E6F7A7A6C65205061726B02
:1009700065640044697361626C6552756E6F75746D
:100980000050757267654D6F7265005061757365D3
:1009900064004C6F61642046696C616D656E742003
:1009A00054004C6F61642046696C616D656E740023
:1009B000496E736572742066696C616D656E742032
:1009C000616E6420707265737320627574746F6EEB
:1009D0000A00726573756D656400526573756D69A3
:1009E0006E6700203B0020550020204D363033201C
:1009F0004C0046696C616D656E74206C6F61642F8C
:100A0000756E6C6F616400203B200020204D3431F6
:100A100033205300506F7765722D6C6F73732072A3
:100A200065636F766572790020496E76616C6964E2
:100A30002065787472756465722000536C6565700A
:100A40002E2E2E005B505D61726B696E6720737491
:100A5000796C652028302E2E34292E003F496E7681
:100A6000616C696420005A2050726F626520506189
:100A70007374204265640A005A2050726F626520C8
:100A8000506173742042656400473238004D6573CD
:100A90006820706F696E74206F7574206F662072A5
:100AA000616E67650A00626567696E00436F6E7408
:100AB000696E7565004D302053746F70004D3120A4
:100AC00053746F7000436C69636B20746F205265C0
:100AD00073756D652E2E2E004E6F204D6F76652E30
:100AE00000456E642066696C65206C6973740A0049
:100AF000426567696E2066696C65206C6973740A6B
:100B0000004E6F206D656469610A00534420636183
:100B100072642072656C65617365640A0052657366
:100B2000756D696E6720534400526573756D65007D
:100B3000506175736520534400286E6F2066696CA0
:100B400065290043757272656E742066696C653A3A
:100B500020004E6F74205344207072696E74696E69
:100B6000670A005344207072696E74696E67206270
:100B700079746520005072696E742074696D653AED
:100B800020007061757365006F6B004C696E653A8B
:100B900020006F666600860281027A027302650297
:100BA00044454255473A004D3131322053687574FF
:100BB000646F776E004D31313320530057616E689A
:100BC000616F204439204D4B3220353030204F4664
:100BD000462E0020732E0A00496E6163746976699F
:100BE00074792074696D656F757420002F2F00571C
:100BF00041524E494E4721204C6F77205A204A657A
:100C0000726B206D6179206C65616420746F207552
:100C10006E77616E746564207061757365732E0AFA
:100C2000002058003B200020204D61783A20002011
:100C30000020204D696E3A2000203B200020204DEE
:100C4000323131205300250A0046523A0020466CCA
:100C50006F773A20003A200020536572766F2000AB
:100C6000206F7574206F662072616E67650A00538D
:100C70006572766F200050726F6265204F666673F2
:100C80006574205A0050726F6265204F6666736506
:100C900074205A0064697300656E00432900616224
:100CA0006C656420286D696E2074656D702000434A
:100CB0006F6C642065787472756465732061726509
:100CC0002000203B20486F73742068616E646C695B
:100CD0006E6720006D6D00203B204D6F74696F6E54
:100CE0002064697374616E636520006D6D00203B44
:100CF0002044697374616E6365200046696C616DA0
:100D0000656E742072756E6F757420004D343231CB
:100D100020696E636F727265637420706172616DB9
:100D2000657465722075736167650A004D65736847
:100D300020706F696E74206F7574206F6620726109
:100D40006E67650A004F6666736574732041707044
:100D50006C696564004D494E2F4D415820546F6FAA
:100D60002046617200546F6F206661722066726F58
:100D70006D204D494E2F4D41580A00454550524F68
:100D80004D204F4B0A00290A0020746F20003F5A63
:100D9000206F7574206F662072616E676520280071
:100DA000290A0020746F20003F59206F7574206F4E
:100DB000662072616E6765202800290A0020746F22
:100DC00020003F58206F7574206F662072616E6737
:100DD000652028004D383400446F6E6520707269BC
:100DE0006E74696E672066696C650A004D3737005E
:100DF0004D33310020204D323036205800486F6D81
:100E000065206F6666736574004361703A00434FF6
:100E10004E4649475F4558504F5254004D45415446
:100E20005041434B00434F4F4C45525F54454D504A
:100E300045524154555245004348414D4245525F49
:100E400054454D50455241545552450045505F421E
:100E50004142595354455000424142595354455020
:100E600050494E470041524353004D4F54494F4E55
:100E70005F4D4F44455300544845524D414C5F50DF
:100E8000524F54454354494F4E00455854454E44E3
:100E900045445F4D323000435553544F4D5F4649F2
:100EA000524D574152455F55504C4F4144004C46BE
:100EB0004E5F5752495445004C4F4E475F46494C90
:100EC000454E414D45004155544F5245504F5254A7
:100ED0005F53445F5354415455530053445F57523A
:100EE00049544500524550454154004D554C5449D4
:100EF0005F564F4C554D45005344434152440050BA
:100F0000524F4D50545F535550504F525400484F1C
:100F100053545F414354494F4E5F434F4D4D414EF3
:100F2000445300454D455247454E43595F50415249
:100F300053455200434153455F4C494748545F4233
:100F400052494748544E45535300544F47474C4528
:100F50005F4C494748545300534F465457415245FC
:100F60005F504F574552004255494C445F504552DF
:100F700043454E54004C4556454C494E475F44410D
:100F80005441005A5F50524F42450052554E4F5502
:100F900054004155544F4C4556454C005052494E13
:100FA000545F4A4F420050524F47524553530041FD
:100FB00055544F5245504F52545F54454D50004187
:100FC00055544F5245504F52545F504F5300564F57
:100FD0004C554D455452494300454550524F4D00E4
:100FE00042494E4152595F46494C455F5452414E29
:100FF000534645520053455249414C5F584F4E5F4E
:10100000584F4646004649524D574152455F4E4162
:101010004D453A4D61726C696E20627567666978FC
:101020002D322E312E782044392076322E302E3932
:101030002028536570203137203230323620313647
:101040003A31313A33352920534F555243455F43A6
:101050004F44455F55524C3A6769746875622E6318
:101060006F6D2F4C652D53796C32312F57414E489F
:10107000414F2D4475706C696361746F722D392016
:1010800050524F544F434F4C5F56455253494F4E69
:101090003A312E30204D414348494E455F54595016
:1010A000453A57616E68616F204439204D4B3220BC
:1010B000353030204B494E454D41544943533A4316
:1010C000617274657369616E204558545255444588
:1010D000525F434F554E543A3120555549443A6377
:1010E000656465326132662D343161322D343734B6
:1010F000382D396231322D633535633632663336F9
:101100003766660047322F47332062616420706182
:1011100072616D65746572730A005A2050726F6255
:101120006520506173742042656400205A3A0020A3
:10113000593A0042656420583A004732384F00203F
:101140003B0020204D3835312058005A2D50726F09
:101150006265204F666673657400220A00656E71D1
:1011600075657565696E672022006F6B0A005265B0
:1011700073656E643A20002569730025696D20252A
:101180006973002569682025696D2025697300252C
:101190006964202569682025696D2025697300250B
:1011A000697920256964202569682025696D2025D5
:1011B000697300436F6F6C696E672E2E2E00453188
:1011C0002025530020460020420020204D3130349D
:1011D0002053004175746F2054656D7020436F6E0D
:1011E00074726F6C0020573A0042656420436F6F41
:1011F0006C696E672E2E2E0042656420486561740E
:10120000696E672E2E2E0023646566696E65204424
:10121000454641554C545F005049442074756E69F1
:101220006E6720646F6E65004175746F74756E65CE
:10123000206661696C6564212054696D656F757401
:101240002E004175746F74756E65206661696C65FA
:1012500064212054656D70657261747572652074C7
:101260006F6F20686967682E004175746F74756EC2
:1012700065206661696C656421204261642065783F
:101280007472756465722E00504944204175746F04
:1012900074756E65004B4420004B4920004B502074
:1012A000005049442074756E696E6720646F6E65E6
:1012B000002066696E69736865642120507574202A
:1012C000746865206C617374204B702C204B69200E
:1012D000616E64204B6420636F6E7374616E74730F
:1012E0002066726F6D2062656C6F7720696E746F17
:1012F00020436F6E66696775726174696F6E2E68E0
:101300000A00504944204175746F74756E65002061
:101310006661696C6564212074696D656F75740A16
:1013200000504944204175746F74756E65004175B5
:10133000746F74756E65206661696C6564212054F4
:10134000696D656F75742E00206661696C65642136
:101350002054656D706572617475726520746F6F6D
:1013600020686967680A00504944204175746F74A9
:10137000756E6500504944204379636C65730025A0
:10138000532025692F256900204B643A2000204B0B
:10139000693A2000204B703A200020436C6173733F
:1013A000696320504944200A002054753A200020E7
:1013B0004B753A2000206D61783A2000206D696EEF
:1013C0003A200020643A200020626961733A2000CC
:1013D00048656174696E672E2E2E002073746172E9
:1013E000740A00504944204175746F74756E65002D
:1013F0004175746F74756E65206661696C656421F2
:101400002054656D706572617475726520746F6FBC
:1014100020686967682E00206661696C6564212018
:1014200054656D706572617475726520746F6F209C
:10143000686967680A00504944204175746F747583
:101440006E6500504944204175746F74756E650077
:101450003F28432979636C6573206E6F7420706C2C
:1014600061757369626C6520283E3D33292E0A0040
:10147000206661696C656421204261642068656151
:101480007465722069640A00504944204175746F84
:1014900074756E6500002002000000291F00000125
:1014A0002002000000291F00000220020000002985
:1014B0001F0000032002000000291F00000420027A
:1014C000000000F04E0000052002000000ED1E00AC
:1014D00000062000000000CD1E00000720020000D2
:1014E00000681E00000820020000007C1E000009A9
:1014F0002002000000143700000A2002000000BC97
:101500001900000B20020000008D1B00000E2002BD
:10151000000000FC1D00000F2002000000E21D0082
:1015200000102002000000D04F0000112002000037
:1015300000A34F0000122002000000A34F0000147F
:1015400020020000007F4F0000152002000000581C
:101550001E00001620020000009B1E000017200243
:10156000000000221E0000182002000000B4190034
:1015700000192002000000E41C00001A20000000F6
:1015800000484200001B2000000000A52600001CAF
:101590002002000000A81900001D20020000009594
:1015A0001900001E20020000007E1D00001F200206
:1015B00000000023420000202002000000B51C00B3
:1015C00000212002000000B51C00002220020000C3
:1015D00000B51C0000232002000000741C00002441
:1015E00020020000008D1900002520000000006985
:1015F0001C000026200000000008410000272002F7
:1016000000000012420000282002000000FE4100FD
:10161000002920020000006E1900002A20020000AC
:1016200000351C00002B2000000000A44100002C0D
:101630002002000000904100002D200200000076F2
:101640004100002E2002000000251C00002F200079
:10165000000000681900003020020000003A350048
:1016600000322000000000231C0000203002000097
:101670000000008B7C25302000000000003A7C45F3
:10168000302000000000003A7C653020000000009F
:10169000003A7C85302000000000003A7CA5302014
:1016A00000000000003A7CC530020000000000E0AD
:1016B0007CC630200000000000077CE630020100FC
:1016C000000000D188E8300F0100000000779BF790
:1016D000300201000000002D7ABE3102000000003F
:1016E00000839EF830020113020000D978F930021D
:1016F00001000000001C7AFC300201D60700006FD8
:1017000078FD300201DA070000D978FE30020000CF
:10171000000000087AFF300201C70D00006F78005A
:10172000310201CB0D0000D9780131020000000028
:1017300000087A0531020100000000FC7906310240
:1017400001410E000005780731020009020000E4A3
:10175000790831020100000000CB7B093102000052
:10176000000000BD7A22310200F1060000BA7723A2
:10177000310200F3060000BA7724310200000000B5
:1017800000D079253102000A020000BA7726310222
:10179000011F0A00006F7827310201230A00006F41
:1017A0007828310201270A00006F7829310200F5FC
:1017B000060000E4792A31020000000000BC7B2B07
:1017C00031020000000000B8792C3102000C020048
:1017D00000BA772D3104010000000026772F310474
:1017E0000100000000817A31310401000000004551
:1017F0007A333118009A020000227B4B3118000026
:101800000000006D7B633110008B020000227B73AF
:1018100031020000000000C37174310200000000BA
:1018200000C47175311800000000004E7B8D311826
:101830000000000000417BA53118000000000034CA
:101840007BBD31020000000000539EBF310200004A
:1018500000000092790040020100003A193F79012E
:10186000402002F806E6715B7B21400200080299E5
:10187000716E772240020000004E4D307923400205
:10188000000000864D26792540020100001C3562CB
:10189000792440020100001D1C587900500200000C
:1018A0000000002D7A0150000000002F19000000F8
:1018B0000000000000000000004E6F7420616C6C9E
:1018C0006F776564207768696C652069646C650072
:1018D0004E6F7420616C6C6F7765642064757269FB
:1018E0006E67207072696E74004E6F2053442043FF
:1018F0006172642044657465637465640043616E5D
:101900006E6F7420656E746572207375626469729F
:101910003A20004E6F2066696C652073656C6563C4
:10192000746564004D323500526573756D65005500
:101930004920506175736500726573756D65004D62
:10194000323400436F6F6C696E672E2E2E004D355A
:1019500030300047323900486F6D696E672072651C
:101960007175697265640054656D70657261747536
:10197000726520746F6F206C6F77004732385A00A1
:1019800047323858590047323858595A00486F6D15
:10199000696E672E2E2E00457865637574696E67D3
:1019A00020636F6D6D616E642E2E2E004D353030CC
:1019B000004D353032004D3939390A4D323830500A
:1019C0003053313630004D353030005049442061BD
:1019D00075746F74756E696E672E2E2E004D3330E0
:1019E00033432564452564532564553100426564BD
:1019F000205049442064697361626C6564004D3114
:101A00003030304300496E76616C696420726563E2
:101A10006F766572792064617461004D31303030C9
:101A200000BF3125400000BD31000033314B316330
:101A3000317331743175318D31A53100002340008F
:101A400000224000002B312C3121402D312F31312B
:101A50003100002A310000014000002631273128E2
:101A60003129310000FF30003124312531000022BE
:101A70003123310000FF300031FC30FD30083109E6
:101A8000310000FF300031FC30FD3000000631072E
:101A90003100000531000000400000FF300031013E
:101AA00031FC30FD30FE300000FF300031FC30FDF5
:101AB000300000FF300031FC30FD30E630E830000F
:101AC0005000000031FD300040F830F930063100A0
:101AD00000FF300031FC30FD30E630E830F730BE3A
:101AE00031000020302530453065308530A530C5C7
:101AF00030C630000033312440FF300031FC30FD6F
:101B000030000042757379004D3530300050726FEF
:101B100062696E67206661696C65640050726F620D
:101B2000696E67207375636365737366756C000215
:101B30002D7D03B29E04BE9E0A1EA00B959F0CFE37
:101B40009F0DEB760EDE710FD37110879F11D47647
:101B500013C97116C57100000001F51A02E31A03DA
:101B6000D11A04C31A05B31A06A91A079B1A0897B3
:101B70001A09931A0B8D1A0C831A0D751A0E6F1A07
:101B80000F651A105B1A11571A12531A13451A14BB
:101B9000411A153D1A162B1AF9271A17211A000097
:101BA0000047305A3130004732380047323800475A
:101BB000305A300047305825645925640047305A60
:101BC000340047323800486F6D696E672E2E2E0044
:101BD00042757379004457494E204755492F4F535A
:101BE00020757064617465207265717569726564D1
:101BF000002564782564782564002D002D002D00D3
:101C000063616E63656C005072696E742041626F2F
:101C100072746564004469736D697373005549207B
:101C200041626F72746564006F70656E0054524952
:101C3000474745524544003A200066696C616D652E
:101C40006E74007A5F6D696E00795F6D696E007801
:101C50005F6D696E005265706F7274696E672065A2
:101C60006E6473746F70207374617475730A0020EE
:101C7000746F6F206C6F6E6720657874727573690E
:101C80006F6E2070726576656E7465640A002063FD
:101C90006F6C6420657874727573696F6E207072F2
:101CA0006576656E7465640A00486F6D65202573FE
:101CB00020466972737400000000000000000000FC
:101CC0000000005761726E696E673A20486F6D6957
:101CD0006E672042756D702044697669736F72205B
:101CE0003C20310A000202020000FA430000FA43DD
:101CF0000000FA430000A0400000A04000000040A7
:101D000053544F505045442E20005072696E7465F4
:101D1000722073746F707065642064756520746FD1
:101D2000206572726F72732E204669782074686520
:101D3000206572726F7220616E6420757365204D2C
:101D400039393920746F20726573746172742E2072
:101D50002854656D706572617475726520697320B1
:101D600072657365742E20536574206974206166F2
:101D70007465722072657374617274696E67290A82
:101D800000206572726F72202D207265737461720B
:101D9000742077697468204D3939390A00424C54EF
:101DA0006F7563680021212053544F502063616C8C
:101DB0006C65642062656361757365206F662000E1
:101DC0000000FA430000FA430000FA43000000005C
:101DD0000000000000000000454550524F4D2077A4
:101DE00072697465206661696C656400536574741A
:101DF000696E67732053746F72656400290A00204E
:101E000062797465733B2063726320005365747458
:101E1000696E67732053746F726564202800204DCB
:101E200061726C696E3D563930290A004545505241
:101E30004F4D2076657273696F6E206D69736D61A9
:101E40007463682028454550524F4D3D004545502C
:101E5000524F4D206461746173697A6520657272B6
:101E60006F722E0A004572723A20454550524F4D0E
:101E70002043524300202863616C63756C61746574
:101E80006429210A0020213D2000454550524F4D34
:101E900020435243206D69736D61746368202D2067
:101EA0002873746F726564292000454550524F4D68
:101EB00020436F72727570740A002053697A653A14
:101EC0002000496E6465783A200053746F7265642F
:101ED0002073657474696E677320726574726965C6
:101EE000766564002062797465733B2063726320B9
:101EF000002073746F7265642073657474696E6713
:101F000073207265747269657665642028004545A2
:101F100050524F4D2072656164206661696C656442
:101F200000454550524F4D20496E697469616C6996
:101F30007A65640A00454550524F4D20496E6974D8
:101F400069616C697A656400454550524F4D207255
:101F5000657365740048617264636F6465642044EE
:101F6000656661756C742053657474696E6773205F
:101F70004C6F616465640000009643000096430066
:101F800000A0400000C8416666A0426666A04266A6
:101F900026C8439A99BC42B80B0000B80B000064F5
:101FA000000000B80B000020286D6D2900203B20A8
:101FB0004C6576656C696E67200020204D343230A8
:101FC0002053004175746F20426564204C6576652E
:101FD0006C696E67004F4646004F4E00203B205311
:101FE000656E736F722000204C0020440020204D4D
:101FF00034313220530046696C616D656E74207215
:10200000756E6F75742073656E736F7200204A0071
:102010002020473239205720490020204D313439C3
:102020002043203B20556E69747320696E20436500
:102030006C736975730A0054656D706572617475AF
:10204000726520556E697473002020473231203B41
:10205000004C696E65617220556E6974730024F4DA
:10206000D43050C38D20C3A24117828B7011127AD5
:10207000900D826CDA0AA861E108C75866076151C1
:1020800042061F4B5E05C145A6041B411204093DD3
:102090009703723931034136DB0266339202D43042
:1020A0005302812E1D02642CEE01762AC501B1284F
:1020B000A101102781018F2564012B244A01E1220F
:1020C0003401AD2120018D200C01811FFC00851EF3
:1020D000ED00981DDF00B91CD200E71BC700201BD4
:1020E000BB00651AB200B319A9000A19A0006A184A
:1020F0009800D217920040178A00B6168400321654
:102100007E00B41579003B157400C7146F00581495
:102110006A00EE1366008813620026135E00C81280
:102120005B006D12570016125500C111510070115D
:102130004E0022114C00D61049008D104600471069
:10214000450002104200C00F4000800F3E00420FC9
:102150003C00060F3A00CC0E3900930E37005C0E9F
:102160003500270E3400F30D3200C10D3100900D03
:102170002F00610D2F00320D2D00050D2C00D90C04
:102180002A00AF0C2A00850C28005D0C2800350CB5
:1021900027000E0C2500E90B2500C40B2400A00B22
:1021A00023007D0B22005B0B21003A0B2100190B51
:1021B0002000F90A1F00DA0A1F00BB0A1E009D0A50
:1021C0001D00800A1C00640A1C00480A1C002C0A1E
:1021D0001B00110A1A00F7091A00DD091900C409C9
:1021E0001900AB091800930918007B09170064094E
:1021F00017004D09170036091600200915000B09B4
:102200001500F6081500E1081500CC081400B80800
:102210001400A4081300910813007E0813006B0833
:10222000120059081200470812003508120023084E
:1022300011001208110001081000F1071100E00759
:102240001000D0071000C0070F00B1071000A10751
:102250000F0092070F0083070F0074070E00660738
:102260000E0058070E004A070E003C070E002E070E
:102270000D0021070D0014070D0007070D00FA06D9
:102280000D00ED060C00E1060D00D4060C00C8069A
:102290000C00BC060C00B0060B00A5060C0099064D
:1022A0000B008E060B0083060B0078060B006D06F4
:1022B0000B0062060B0057060A004D060A00430693
:1022C0000B0038060A002E060A00240609001B0629
:1022D0000A0011060A0007060900FE050A00F405B7
:1022E0000900EB050900E2050900D9050900D00540
:1022F0000900C7050800BF050900B6050900AD05BE
:102300000800A50508009D050800950509008C0535
:102310000800840508007C050700750508006D05A8
:102320000800650507005E050800560507004F0513
:10233000080047050700400507003905070032057A
:1023400007002B050700240507001D0507001605DB
:1023500007000F0506000905070002050600FC043A
:102360000700F5040600EF040700E8040600E20495
:102370000600DC040600D6040600D0040700C904E9
:102380000500C4040600BE040600B8040600B2043A
:102390000600AC040600A6040500A10406009B0488
:1023A000050096040600900405008B0406008504D1
:1023B0000500800405007B04050076040600700417
:1023C00005006B04050066040500610405005C045B
:1023D000050057040500520405004D04050048049B
:1023E0000400440405003F0405003A0404003604D8
:1023F0000500310405002C04040028040500230412
:1024000004001F0405001A0404001604040012044A
:1024100005000D040400090404000504040001047F
:102420000500FC030400F8030400F4030400F003B7
:102430000400EC030400E8030400E4030400E003E8
:102440000400DC030400D8030400D4030300D10318
:102450000400CD030400C9030400C5030400000008
:10246000000000000000000000000000000000006C
:10247000000000000000D1036D6403570D0347C640
:10248000023B8B023259022B2E0225090221E80160
:102490001CCC011AB201179B01148701137401119E
:1024A00063010F54010E46010D39010D2C010B2162
:1024B000010A17010A0D0109040108FC0008F400D3
:1024C00007ED0007E60007DF0006D90006D3000588
:1024D000CE0006C80005C30004BF0005BA0004B65C
:1024E0000004B20004AE0004AA0004A60003A30086
:1024F000049F00039C0003990003960003930002CD
:102500009100038E00028C0003890002870003847F
:1025100000028200028000027E00027C00027A003B
:10252000027800027600017500027300027100015A
:102530007000026E00016D00026B00016A0002680B
:102540000001670002650001640001630001620090
:10255000026000015F00015E00015D00015C00019E
:102560005B00015A00015900015800015700015653
:1025700000015500015400015300015200015100B7
:10258000005100015000014F00014E00014D0000BC
:102590004D00014C00014B00014A00004A00014976
:1025A00000014800004800014700014600004600C5
:1025B00001450000450001440001430000430001C3
:1025C0004200004200014100004100014000004083
:1025D00000013F00003F00013E00003E00013D00C1
:1025E000003D00013C00003C00013B00003B0001BD
:1025F0003A00003A00013900003900003900013882
:1026000000003800013700003700003700013600B5
:1026100000360000360001350000350001340000AE
:102620003400003400013300003300003300013275
:1026300000003200003200013100003100003100A2
:10264000003100013000003000003000012F000098
:102650002F00002F00002F00012E00002E00002E62
:1026600000012D00002D00002D00002D00012C0088
:10267000002C00002C00002C00012B00002B00007F
:102680002B00002B00012A00002A00002A00002A4B
:1026900000002A000129000029000029000029006B
:1026A0000128000028000028000028000028000160
:1026B0002700002700002700002700002700012630
:1026C000000026000026000026000026000026004C
:1026D0000125000025000025000025000025000040
:1026E0002500012400002400002400002400002410
:1026F0000000240001230000230000230000230029
:10270000002300002300012200002200002200001C
:1027100022000022000022000022000121000021EE
:102720000000210000210000210000210000210004
:1027300001200000200000200000200000200000F8
:102740002000002000002000011F00001F00001FCB
:1027500000001F00001F00001F00001F000020439A
:102760006F756E7420583A0042656400453100620E
:102770006564002C2073797374656D2073746F70B9
:1027800070656421204865617465725F49443A2030
:10279000004572723A204D415854454D50004D410C
:1027A0005854454D502074726967676572656400BE
:1027B00048656174696E67204661696C65640048AC
:1027C000656174696E67206661696C656400457255
:1027D000723A204D494E54454D50004D494E544596
:1027E0004D5020747269676765726564005448458E
:1027F000524D414C2052554E415741590054686545
:10280000726D616C2052756E6177617900202F00C6
:102810002042403A0020403A0020573A0000091276
:102820001B242D363F48415A536C657E7719100B97
:10283000023D342F265158434A757C676E323B2047
:1028400029161F040D7A7368615E574C452B223997
:10285000300F061D14636A7178474E555C646D76BF
:102860007F4049525B2C253E3708011A137D746F57
:102870006659504B42353C272E1118030A565F44C7
:102880004D727B60691E170C053A3328214F465D57
:10289000546B627970070E151C232A313841485356
:1028A0005A656C777E09001B122D243F3658514A19
:1028B000437C756E671019020B343D262F737A61C5
:1028C00068575E454C3B3229201F160D046A637819
:1028D000714E475C55222B3039060F141D252C37BD
:1028E0003E0108131A6D647F7649405B523C352ED9
:1028F0002718110A03747D666F5059424B171E0545
:102900000C333A21285F564D447B7269600E071CD8
:10291000152A233831464F545D626B7079000021CF
:1029200010422063308440A550C660E770088129BA
:10293000914AA16BB18CC1ADD1CEE1EFF131121052
:102940000273325222B5529442F772D6623993180A
:10295000837BB35AA3BDD39CC3FFF3DEE36224435E
:102960003420040114E664C774A44485546AA54B5A
:10297000B528850995EEE5CFF5ACC58DD5533672F2
:102980002611163006D776F6669556B4465BB77AAA
:10299000A719973887DFF7FEE79DD7BCC7C448E57E
:1029A000588668A7784008611802282338CCC9EDFA
:1029B000D98EE9AFF9488969990AA92BB9F55AD492
:1029C0004AB77A966A711A500A333A122AFDDBDC4A
:1029D000CBBFFB9EEB799B588B3BBB1AABA66C879E
:1029E0007CE44CC55C222C033C600C411CAEED8F9A
:1029F000FDECCDCDDD2AAD0BBD688D499D977EB632
:102A00006ED55EF44E133E322E511E700E9FFFBEE9
:102A1000EFDDDFFCCF1BBF3AAF599F788F8891A9BC
:102A200081CAB1EBA10CD12DC14EF16FE18010A193
:102A300000C230E3200450254046706760B9839897
:102A400093FBA3DAB33DC31CD37FE35EF3B10290E3
:102A500012F322D2323542145277625672EAB5CB63
:102A6000A5A89589856EF54FE52CD50DC5E234C333
:102A700024A01481046674476424540544DBA7FA37
:102A8000B79987B8975FE77EF71DC73CD7D326F283
:102A9000369106B01657667676154634564CD96D83
:102AA000C90EF92FE9C899E9898AB9ABA9445865D3
:102AB0004806782768C018E1088238A3287DCB5CD7
:102AC000DB3FEB1EFBF98BD89BBBAB9ABB754A5423
:102AD0005A376A167AF10AD01AB32A923A2EFD0FA3
:102AE000ED6CDD4DCDAABD8BADE89DC98D267C0773
:102AF0006C645C454CA23C832CE01CC10C1FEF3E77
:102B0000FF5DCF7CDF9BAFBABFD98FF89F176E36C2
:102B10007E554E745E932EB23ED10EF01E7C3C3E2E
:102B20005E2B3D3F2F5B5D3B2C2A225C0057617280
:102B30006E696E673A005344204361726420496EA7
:102B40006974204661696C0053442063617264209B
:102B50006F6B0A006F70656E526F6F7420666169EB
:102B60006C65640A00766F6C756D652E696E6974AC
:102B7000206661696C65640A004E6F2053442063CF
:102B80006172640A000A4D3234004D3233202573DD
:102B9000002E0A006F70656E206661696C65642C9A
:102BA0002046696C653A200046696C652073656C47
:102BB00065637465640A002053697A653A200046AB
:102BC000696C65206F70656E65643A2000454E44FF
:102BD00020535542524F5554494E450A0022207009
:102BE0006F73002220706172656E743A2200535533
:102BF00042524F5554494E452043414C4C2074613C
:102C0000726765743A220053756263616C6C204F81
:102C1000766572666C6F7700457863656564656498
:102C2000206D617820535542524F5554494E4520EE
:102C300064657074683A002E0A0044656C657469B6
:102C40006F6E206661696C65642C2046696C653A1C
:102C5000200046696C652064656C657465643A00A3
:102C600057726974696E6720746F2066696C653A83
:102C70002000667265736800646F696E6700206685
:102C8000696C653A20004E6F7720002F6175746F74
:102C900025632E67002001400130013B01400136D1
:102CA000016001310170012C0190012701B0012266
:102CB00001C0011D01F00118011002130130020EC4
:102CC000016002090190020401C002FF000003FA42
:102CD000004003F5008003F000D003EB002004E681
:102CE000007004E100E004DC004005D700C005D21C
:102CF000004006CD00D006C8008007C3003008BEE3
:102D000000F008B900C009B400B00AAF00B00BAAC7
:102D100000D00CA500000EA000500F9B00C0109624
:102D2000005012910000148C00C0158700B017826B
:102D300000B0197D00D01B7800001E730040206E8B
:102D40000090226900F024640040275F0090295A17
:102D500000E02B5500102E500020304B0010324662
:102D600000E033410090353C0010373700703832B6
:102D700000A0392D00B03A2800A03B2300603C1E83
:102D800000103D1900903D1400103E0F00703E0AE7
:102D900000C03E0500003F0000403FFBFF803FF6C3
:102DA000FFC03FF1FF2020506C616E6E657242756E
:102DB0006666657242797465733A200020467265D2
:102DC00065204D656D6F72793A200020436F6D70FC
:102DD000696C65643A205365702031372032303297
:102DE000360A00204C617374205570646174656408
:102DF0003A20323032362D30392D3038207C204187
:102E00007574686F723A2053796C3231202B2043ED
:102E10006C617564650A004D61726C696E20322EBA
:102E2000312E78202876322E302E39290A00205370
:102E30006F6674776172652052657365740A00204D
:102E40005761746368646F672052657365740A0024
:102E50002042726F776E206F7574205265736574AF
:102E60000A002045787465726E616C205265736546
:102E7000740A00506F77657255700A00737461723E
:102E8000740A004732385859004D313030310065EE
:102E900072726F722077726974696E6720746F2026
:102EA00066696C650A00446F6E6520736176696EB1
:102EB000672066696C652E0A004D323900456E64E4
:102EC00073746F70730025532025632025632025BC
:102ED0006320256300205A3A0020593A0020583ACE
:102EE00000656E6473746F7073206869743A2000B3
:102EF00000000A0B02090C0D0E0807030401000074
:102F000000000000000000000000000000000000C1
:102F1000000000000000000000000000121110007E
:102F200000000000000000000000000000000000A1
:102F300000000000000000486F6D696E6720466168
:102F4000696C656400FFFFFF205A3A200020793A3F
:102F5000200042656420583A200050726F62696E0A
:102F600067204661696C65640A0050726F62696E21
:102F700067204661696C65640043616E6E6F742002
:102F80006F70656E207375626469722000524553DC
:102F9000554D45204F5054494F4E533A00486561B6
:102FA00074696E672E2E2E000000436C69636B20DF
:102FB000746F2068656174000000526573756D69F7
:102FC0006E672E2E2E00000050757267696E672E98
:102FD0002E2E0000004C6F6164696E672E2E2E004D
:102FE0000000496E7365727420616E6420436C69E1
:102FF000636B000000436C69636B20746F20636F28
:103000006E74696E7565000000456A656374696E6B
:10301000672E2E2E000000506C656173652077616D
:1030200069742E2E2E0000005061726B696E672E3F
:103030002E2E000000220A00556E6B6E6F776E20F8
:10304000636F6D6D616E643A2022006F6B00576193
:103050006E68616F204439204D4B3220353030206E
:1030600052656164792E005072696E74696E672EC4
:103070002E2E005072696E74205061757365640065
:10308000204500205A0020590020204D3932205878
:103090000053746570732070657220756E697400DA
:1030A00000002200250028002B002E0031003400F3
:1030B00002010000050108010B01000021002400AD
:1030C00027002A002D003000330001010000040118
:1030D00007010A0105050505070508080808020299
:1030E00002020A0A080804040404010101010101A2
:1030F00001010303030303030303040707070C0C85
:103100000C0C0C0C0C0C020202020606060606064B
:1031100006060B0B0B0B0B0B0B0B010210202008F0
:103120000810204010204080020102010804020122
:103130000102040810204080804020100804020191
:1031400080040201804020100804020108040201EA
:103150000102040810204080010204081020408071
:103160004572726F722077726974696E6720746F2E
:1031700020454550524F4D210A0020746F6F206C3E
:103180006F6E6720657874727573696F6E207072E8
:103190006576656E7465640A0020636F6C642065F3
:1031A0007874727573696F6E2070726576656E746F
:1031B00065640A0020453A00205A3A0020593A0036
:1031C000583A0057616E68616F204439204D4B3288
:1031D00020353030000076E558E511241FBECFEFD2
:1031E000D1E2DEBFCDBF00E00CBF84B78093B5173E
:1031F00014BE0FB6F894A895809160008861809302
:103200006000109260000FBE14E0A0E0B2E0E4E3C2
:10321000FAEF01E00BBF02C007900D92AE3DB1077F
:10322000D9F727E1AEEDB4E001C01D92A53BB2078E
:10323000E1F718E1CCEED8E100E006C021970109E2
:10324000802FFE010E9490F9CB3ED10780E0080755
:10325000A9F70E94EBE60C9409FD0C940000809104
:1032600019078F5F809319078A3018F080EF8093D9
:1032700059090895CF93FC01808191818115904473
:1032800029F5FB01C1816C2F70E090E080E00E9485
:10329000E0F220E030E048EC52E40E94C0FB181657
:1032A0000CF4C4E62C2F30E0AFEFB0E00E944EF9F2
:1032B00024E630E040E050E00E9428F92F3F31053D
:1032C00019F010F02FEF30E020939E14CF91089565
:1032D00010921D0781E080931F070895FB018181F3
:1032E0008F3F19F0882381F008952CE330E030936C
:1032F0000D0220930C0280931C0785E08093080246
:1033000081E080931F07089588EC90E090930D0270
:1033100080930C0210921C07F0CFFB0181818093F7
:10332000F50681E080931F070895FB01808191815C
:10333000982789279827893C910510F088EC90E020
:1033400090930B0280930A0281E080931F070895F7
:10335000FB01818191E0980F923028F48093100254
:1033600081E080931F070895FB018181809309020A
:1033700081E080931F070895CF92DF92EF92FF9232
:10338000CF93DF93FB01C081D181DC27CD27DC27E0
:10339000BE010D2E000C880B990B0E94E2F26B010E
:1033A0007C0120E030E040E251E40E94DCF287FD45
:1033B0000DC020E030E04AEF53E4C701B6010E949F
:1033C000C0FB18162CF4C4EFD1E002C0CAE0D0E074
:1033D000D0931402C093130281E080931F07DF9102
:1033E000CF91FF90EF90DF90CF900895CF93DF9330
:1033F000C091DA07D091DB0781E0CE31D105E4F04E
:1034000020E030E040E05FE36091D6077091D7079D
:103410008091D8079091D9070E9499F90E94DDFA0E
:103420006C1B7D0B77FF03C071956195710981E07D
:10343000633071050CF080E0DF91CF91089587FD36
:1034400026C0811111C08091B10A2091B20A821761
:10345000F1F0E22FF0E0EF54F54F828190E02F5F22
:103460002F772093B20A0895813089F480912F0A32
:103470002091300A821759F0E22FF0E0E15DF54F1C
:10348000828190E02F5F2F772093300A08958FEF8D
:103490009FEF0895CF93DF93DB01F9019C91913069
:1034A000C1F0943080F094509C938830D1F48081A6
:1034B0009181009771F0019791838083480F591F84
:1034C000EA01188206C08C3539F49C5F9C939430D5
:1034D00041F4DF91CF9108958B3339F781E08C93DC
:1034E000F8CF20813181B9016F5F7F4F7183608395
:1034F000420F531FEA018883808191818F359105A6
:103500006CF7E7CF0F931F9381E00091A60D109108
:10351000A70D2091A80D3091A90D4091A20D5091B9
:10352000A30D6091A40D7091A50D04171507260732
:10353000370708F480E01F910F91089590E080E034
:1035400008952091E114833021F425FD0CC024FD61
:103550000CC030E0A90102C0559547958A95E2F765
:10356000CA018170089581E0089580E008950F9365
:103570001F93CF93DF93EC010EE519E0F801208152
:10358000318142815381688179818A819B810E9446
:1035900099F9688379838A839B83F8012481358133
:1035A000468157816C817D818E819F810E9499F92E
:1035B0006C837D838E839F83F801208531854285CE
:1035C0005385688579858A859B850E9499F96887E6
:1035D00079878A879B87DF91CF911F910F910895FB
:1035E0008091370684FD0BC08091390687FD07C0A6
:1035F00090913A06937081E019F480E0089581E09B
:1036000008952FEB280F2A3108F047C0E22FF0E091
:103610008091370690913806A0913906B0913A060C
:1036200004C0B695A795979587952A95D2F780FD02
:1036300002C081700895E75BFA4FE081EE2341F10B
:103640008091740990917509E80FF92FF11D80811F
:1036500090ED980F9A3030F08E3251F48181805382
:103660008A3098F4F0934005E0933F0581E0089597
:103670008D3211F08B3249F4818190ED980F9A30A0
:1036800088F38E3211F48281EACFF0E0E0E0EACFF5
:103690001092400510923F05E9CF80E00895B1DF18
:1036A000882341F081E020913F0530914005232B94
:1036B00009F480E008950F931F93CF93DF93C82FF1
:1036C000D0E0FE01EE0FFF1FE75EFD4F71836083C8
:1036D000CC0FDD1FCC0FDD1F8E01095A1D4F072EA9
:1036E000000C880B990B0E94E2F22AE037ED43E2CE
:1036F0005CE30E9441F3CB5CD84F288139814A8139
:103700005B810E9441F3F80160837183828393831C
:10371000DF91CF911F910F910895FC0180819181DC
:103720008B30904259F4FB016081718176276727C5
:10373000762780E0C0DF81E080931F0708958091A5
:10374000390781110EC020911F02309120022150B3
:10375000310981E04091CB0D5091CC0D42175307B8
:103760000CF080E008958F929F92AF92BF92CF921B
:10377000DF92EF92FF92FC01828158E5C52E52E064
:10378000D52EC81AD10887FDD394CC0CDD1CCC0CE7
:10379000DD1C0D2C000CEE08FF08818178E8872ED7
:1037A000912C881A910887FD9394880C991C880C99
:1037B000991C092C000CAA08BB0880818F3FD1F10D
:1037C00090E0FC01EE0FFF1FE80FF91FE351F24FED
:1037D0008181928133E0880F991F3A95E1F7B0E03B
:1037E000A0E044E0B595A795979587954A95D1F7C0
:1037F00002969C012F5F3F4F032E000C440B550B8C
:10380000281939094A095B09A4EBB0E00E9444F980
:10381000A7019601281939094A095B090E9428F96C
:10382000C901FF90EF90DF90CF90BF90AF909F9035
:103830008F90089590E080E0DCCFFB018181809340
:103840004A070C9453A00C9453A0CF93FB01C18161
:10385000C13031F40E94459E811104C0C0931F07FE
:10386000CF9108950E94389DF9CFCF93DF93EB015C
:103870000E94759F811106C083E09BE1DF91CF918B
:103880000C94ACD188819981982789279827209119
:103890001C072F3F29F02223A9F0DF91CF91089533
:1038A0008437910514F083E790E08530910514F496
:1038B00085E090E090930D0280930C0281E080936C
:1038C0001F07EBCF833221E092077CF382E291E085
:1038D000ECCFE8EFF6E081E2DF011D928A95E9F78F
:1038E00081E080931F070895CF93FB018091F50637
:1038F000813029F050F1823019F1CF91089560E0C4
:1039000070E080E89FE32181223069F118F52223DD
:1039100019F09058213089F7C0E024E0C29FF001EF
:103920001124E15EF54F20813181428153810E9453
:1039300099F94C2F0E9480CF81E080931F07DDCF43
:103940006DEC7CEC8CEC9DE3DECF60E070E080E21F
:1039500091E4D9CF243021F028F09058253069F631
:10396000C2E0DBCF9058C1E0D8CFCF93DF93EC011A
:10397000FB0160817181762767277627072E000C6F
:10398000880B990B0E94E2F220E030E040E251E423
:103990000E9475FA288139812132F0E23F0749F00F
:1039A000223240E2340771F02032304241F440E0EC
:1039B00001C041E00E9480CF81E080931F07DF912A
:1039C000CF91089542E0F6CF8F929F92AF92BF922F
:1039D000CF92DF92EF92FF92CF93DF9380915C09B9
:1039E0008770873071F087E599E1DF91CF91FF9083
:1039F000EF90DF90CF90BF90AF909F908F900C94FE
:103A0000ACD1EB010E94759F811103C083E09BE163
:103A1000ECCF8981833009F454C0B8F4813009F4C3
:103A200066C0C12CD12C60EFE62E61E4F62E823008
:103A300009F45AC0DF91CF91FF90EF90DF90CF90C3
:103A4000BF90AF909F908F900895843009F446C046
:103A5000C12CD12C9BEEE92E93E4F92E812C912CD4
:103A600020EFA22E21E4B22E853021F720E030E0B5
:103A700040E850E46091270A7091280A8091290A51
:103A800090912A0A0E9499F942E00E9480CF40E07A
:103A9000C501B4010E9480CF41E0C701B6010E9478
:103AA00080CF42E060E070E0CB01DF91CF91FF90EA
:103AB000EF90DF90CF90BF90AF909F908F900C943D
:103AC00080CFC12CD12C40EFE42E41E4F42E812C88
:103AD000912C5BEEA52E53E4B52EC8CFC12CD12C72
:103AE0003BEEE32E33E4F32E46015701BFCFC12C4A
:103AF000D12C8AE7E82E83E4F82EF6CFCF93DF931C
:103B0000EB010E94759F811106C083E09BE1DF916C
:103B1000CF910C94ACD1809110028F5F8230C0F4B1
:103B200020E030E04AE253E46091C70D7091C80D87
:103B30008091C90D9091CA0D0E94DCF287FF03C0ED
:103B400087E699E1E4CF8981882329F0813039F132
:103B5000DF91CF91089560910A0270910B0290E07D
:103B600080E00E94E0F29B01AC0160912B0A709111
:103B70002C0A80912D0A90912E0A0E9498F9609348
:103B80002B0A70932C0A80932D0A90932E0A60E0E2
:103B900070E080E090E4DF91CF910C94F993609114
:103BA0000A0270910B0290E080E00E94E0F2209106
:103BB0002B0A30912C0A40912D0A50912E0A0E9416
:103BC00099F9DDCFFB018181882319F0813079F0EB
:103BD00008956AE077ED83E29CE30E9422D00E9480
:103BE00000D20E9453A081E080931F0708956AE0ED
:103BF00077ED83E29CEBF1CFFB0160817181762749
:103C000067277627072E000C880B990B0E94E2F29B
:103C100020E030E048EC52E40E9475FA2091410E19
:103C20003091420E4091430E5091440E0E9498F9FB
:103C30000E9422D00E9400D20E9453A081E0809373
:103C40001F070895CF93DF93EB010E94759F8111A9
:103C500004C0DF91CF910C9435A389819091090222
:103C6000923029F09330C1F0DF91CF9108958823ED
:103C700071F06DEC7CEC8CEC9DEB0E9422D00E94EC
:103C800000D20E9453A081E080931F07EDCF6DEC1E
:103C90007CEC8CEC9DE3F1CF882329F06AE077ED92
:103CA00083E29CEBEACF6AE077ED83E29CE3E5CF29
:103CB000FB018181813031F0823039F081E08093E5
:103CC0001F0708950E947282F9CF0E944A82F6CFA0
:103CD000CF93FB01C181C13051F40E942B9E811111
:103CE00008C00E94459E811104C0C0931F07CF9158
:103CF0000895CF910C94389DCF93FB01C181C130C1
:103D000031F40E942B9E811104C0C0931F07CF91F4
:103D1000089548E259E16FE279E184E00E94A4CB82
:103D200083E790E30E94FFC784E299E1909317092B
:103D300080931609ECCFCF93DF93EB010E94759F20
:103D4000811104C0DF91CF910C9431A368817981F6
:103D5000762767277627072E000C880B990B0E9481
:103D6000E2F220E030E048EC52E40E9475FA209143
:103D7000410E3091420E4091430E5091440E0E94EC
:103D800098F90E9422D00E9400D20E9453A081E0A4
:103D900080931F07DF91CF91089580910E0290913B
:103DA0000F0297FF04C083E199E10C94ACD10E940B
:103DB0008DDC882389F08091AA0D85FD0DC00E94BD
:103DC000759F811102C00C9431A386E799E00E948F
:103DD00058D383E0809359090895CF93DF93FB0173
:103DE00081818130D1F040F0823019F181E08093FF
:103DF0001F07DF91CF9108958091AA0D86FDF9CF1D
:103E000010921B0710921A078FEF9FEF90930F02EB
:103E100080930E020E94CCD2E9CF80911A07909134
:103E20001B07009731F3019790931B0780931A07A4
:103E3000DDCFC0911A07D0911B0726960E943FDC68
:103E40008C179D07B0F280911A0790911B0701967D
:103E5000EBCF1F93CF93DF93EC01FB01118188819E
:103E600099818130904269F48091AA0D84FD07C048
:103E700089EE98E1DF91CF911F910C94ACD10E9413
:103E8000B5D2888199818230904259F40E942B9E4C
:103E9000882319F080ED98E1EDCF0E94459E8111B5
:103EA000F9CF888199818330904231F0109359097C
:103EB000DF91CF911F9108950E942B9E8111F6CF23
:103EC0000E94459E8111F2CF89EB98E1D3CFFC018E
:103ED00001900020E9F79F0121503109281B390B7F
:103EE0002F33310540F4FC01E20FF31F60832E33C2
:103EF000310509F011820895CF93DF93EC0140E47E
:103F000050E00E94C8F1CE01DF91CF910895AB013E
:103F1000BC014093A60D5093A70D6093A80D70931C
:103F2000A90D81E097E10C9450D7EF92FF920F9387
:103F30001F93CF93DF93CDB7DEB764970FB6F89496
:103F4000DEBF0FBECDBF7C01FB016081718182812C
:103F500093818E010F5F1F4F248141E00E94FAED93
:103F6000F70101900020E9F79F01215031092E1936
:103F70003F092E31310550F44FE150E0421B530B05
:103F8000BC01C701820F931F0E9425F2C7016496EE
:103F90000FB6F894DEBF0FBECDBFDF91CF911F915A
:103FA0000F91FF90EF900895CF93DF93EC01FC0108
:103FB00001900020E9F7CF0101978C1B9D0B8F33F7
:103FC000910540F440E450E0481B590B8C0F9D1FB5
:103FD0000E9425F2CE01DF91CF910895EF92FF92DA
:103FE0000F931F93CF93DF93CDB7DEB764970FB6D0
:103FF000F894DEBF0FBECDBF7C01FB0160817181F3
:10400000828193818E010F5F1F4F248141E00E94C6
:10401000FAEDBC01C701C8DF64960FB6F894DEBFA5
:104020000FBECDBFDF91CF911F910F91FF90EF9009
:1040300008950C946EC580913F05909140050097BE
:1040400031F04AE050E070E060E00C949AF060E0FB
:1040500070E0CB01089580913F0590914005009755
:1040600031F04AE050E070E060E00C946DEF60E009
:1040700070E0CB010895EFDF97FD0AC0ECDF6F3FE2
:1040800071058105910509F02CF4E5DF862F08956F
:1040900080E008958FEF0895CF93C62F00DB88232B
:1040A00011F0CF91E8CF8C2FCF91089580913F05EB
:1040B00090914005892B39F0DEDF91E0811101C03C
:1040C00090E0892F089591E0FCCFCF93DF93C82F24
:1040D000D62FE5DA882319F0DF91CF91E7CF8C2F27
:1040E00090DA811101C08D2FDF91CF910895B3DF58
:1040F000CB010895CF93DF93EB01D1DA882319F038
:10410000DF91CF91F4CFCE01DF91CF9108950F933E
:104110001F93CF9380913F0590914005009709F13F
:10412000FC018F01C1912C2F2F7DA1F0C53431F0FE
:10413000C53621F0C83511F0C83799F7F80110825B
:1041400070E060E00E9417EEF801C083CF911F91EC
:104150000F91089570E060E0CF911F910F910C9442
:1041600017EE60E070E0CB01F1CFCF92DF92EF92DB
:10417000FF926A017B0193DA882329F0FF90EF9088
:10418000DF90CF90C4CFC701B601FF90EF90DF90D2
:10419000CF900895EF92FF920F931F93CF93DF93E9
:1041A000CDB7DEB72C970FB6F894DEBF0FBECDBFEC
:1041B0007C017F936F9387EC94E09F938F938E01A4
:1041C0000F5F1F4F1F930F930E94D9FCB801C701C7
:1041D000EBDE0F900F900F900F900F900F902C969A
:1041E0000FB6F894DEBF0FBECDBFDF91CF911F9108
:1041F0000F91FF90EF900895EF92FF920F931F930E
:10420000CF93DF93CDB7DEB7A4970FB6F894DEBF98
:104210000FBECDBFF82E8093CE098FE18F1508F425
:1042200089C08091CD09F81624F081E08F0D80932C
:10423000CD0981E090E00F2C02C0880F991F0A94ED
:10424000E2F7092E000CAA0BBB0B4091CF0950914D
:10425000D0096091D1097091D20984239523A623B6
:10426000B72321E0892B8A2B8B2B09F420E02093A4
:10427000CC09F7FC62C04FE150E06BE475E08E01C1
:104280000F5F1F4FC8010E94C8F1F8010190002084
:10429000E9F7CF010197801B910B8E31910560F4F6
:1042A00020E2F801E80FF91F20838D31910521F0FC
:1042B0008C0F9D1FFC0112828F2D0F2C000C990B6F
:1042C0009F93FF9287EC94E09F938F937E01F0E29F
:1042D000EF0EF11CFF92EF920E94D9FCF8010190C1
:1042E0000020E9F7CF010197801B910B0F900F90F1
:1042F0000F900F900F900F908E31910548F44FE181
:1043000050E0481B590BB701800F911F0E9425F206
:1043100040E060E0C8010E94609DA4960FB6F8944A
:10432000DEBF0FBECDBFDF91CF911F910F91FF90E8
:10433000EF9008951092CC099CCF0E941ECBEDCF38
:10434000CF92DF92EF92FF92CF936B017C01C42F4B
:104350008091E2148F5F09F4CEC08093E2148091C3
:10436000E21480939C1520E030E040E752E4609135
:1043700015027091160280911702909118020E9406
:1043800041F30E94E2FA7093F4146093F314809165
:104390001302909114029093F6148093F514809177
:1043A000190290911A029093F8148093F714C09216
:1043B000F914D092FA14E092FB14F092FC1480915C
:1043C0009B15C0FB80F980939B1587E0ECECF9E02E
:1043D000ADEFB4E101900D928A95E1F78CE0E9E050
:1043E000F9E0A4E0B5E101900D928A95E1F78CE047
:1043F000EEE5F9E0A0E1B5E101900D928A95E1F7D3
:104400008091580790919B1580FB94F990939B1590
:10441000882381F08091540790915507A091560709
:10442000B091570780931C1590931D15A0931E15EE
:10443000B0931F158091CB0D9091CC0D90932115C9
:10444000809320158091DA079091DB0790932315D4
:104450008093221580919E148093241580919B1542
:1044600090918C0990FB83F980939B1580918D0925
:1044700090918E09A0918F09B09190098093251594
:1044800090932615A0932715B09328150E94459B5D
:10449000609396157093971580939815909399153E
:1044A0008091E11480939A159091D30980919B1586
:1044B00093FB81F99091390790FB82F980939B15CA
:1044C00080E00E9447E040E050E0BA0182EA95E1D6
:1044D0000E9450D74BEB50E062EE74E182EA95E126
:1044E0000E9472D882EA95E1CF91FF90EF90DF9021
:1044F000CF900C94DB7D81E030CF0E946FC60E948C
:104500003EC61092BF070895AF92BF92CF92DF923E
:10451000EF92FF920F931F93CF935C016B018A017F
:1045200089519B4F7C01DC01CC91C7FF3DC0FB0151
:1045300011821082CF5FD701CC93CC300CF053C0E6
:104540008CE08A9DF0018B9DF00D1124CF018C0F22
:10455000911DC7FD9A952091350E2817190609F06F
:104560000CF441C0F60120813181FC01EE0FFF1FE8
:10457000E80FF91FE351F24F81819281820F931F5F
:10458000D80111969C938E93808187FF3DC061E096
:104590008F77CF911F910F91FF90EF90DF90CF9089
:1045A000BF90AF900C947AD08CE08A9DF0018B9DE7
:1045B000F00D1124CF018C0F911DC7FD9A9520910C
:1045C000350E2817190609F00CF4B4CFFC01EE0FD4
:1045D000FF1FE80FF91FE351F24F808160E08F77F2
:1045E0000E947AD0A7CFF601808191810496803411
:1045F000FCE99F0710F480E49CE9D80111969C9394
:104600008E938FEFF7018083CF911F910F91FF90D1
:10461000EF90DF90CF90BF90AF90089525E934E1FF
:10462000F901459154914115510571F04817590709
:1046300041F4CB014AE050E0B9010E94A2F181E0CF
:104640000895265F3F4F61F780E008956091EA0387
:1046500070E090E080E00E94E0F220E030E048EC82
:1046600052E40E9441F320E030E04FE753E40E941F
:1046700075FA20E030E0A9010E9499F90E94CCFB74
:10468000862F0895CF93DF93C091DA07D091DB078F
:10469000209729F16091D6077091D7078091D807AC
:1046A0009091D9070E94DDFA6E5F7F4F24976C17B7
:1046B0007D07ACF47093C2076093C1070E94A0D13C
:1046C000605679478E4F9F4F6093C3077093C4071E
:1046D0008093C5079093C607DF91CF9108951092FC
:1046E000C3071092C4071092C5071092C607F4CFF3
:1046F0002F923F924F925F926F927F928F929F92F2
:10470000AF92BF92CF92DF92EF92FF920F931F93DF
:10471000CF93DF93D62FC72FFC0180809180A2809A
:10472000B380C501B40120E831E541E050E00E94CA
:1047300006F9C9016DE671E00E9469F96B017C011F
:10474000C501B40120E13EE040E050E00E9406F9DE
:10475000CA01B90128E130E040E050E00E9406F9CA
:10476000362E272E062F172F8CE3482E512C612C26
:10477000712CC501B401A30192010E9406F9B62E65
:10478000A72ECA01B901A30192010E9406F9CB012B
:10479000C114D10479F1AF92BF927F936F932F929E
:1047A0003F92FF92EF92DF92CF928FE991E19F9338
:1047B0008F93CF93DF930E9475F28DB79EB70E96BD
:1047C0000FB6F8949EBF0FBE8DBF8D2F9C2FDF912B
:1047D000CF911F910F91FF90EF90DF90CF90BF90FE
:1047E000AF909F908F907F906F905F904F903F9091
:1047F0002F900895E114F104C9F0AF92BF927F9316
:104800006F932F923F92FF92EF928FE891E19F93E7
:104810008F93CF93DF930E9475F2EDB7FEB73C966E
:104820000FB6F894FEBF0FBEEDBFCFCF012BB9F08E
:10483000AF92BF927F936F932F923F9283E891E163
:104840009F938F93CF93DF930E9475F28DB79EB79E
:104850000A960FB6F8949EBF0FBE8DBFB6CF892BB8
:10486000A9F0AF92BF927F936F938BE791E19F93F3
:104870008F93CF93DF930E9475F2EDB7FEB7389612
:104880000FB6F894FEBF0FBEEDBF9FCFAF92BF92A1
:1048900087E791E19F938F93CF93DF930E9475F207
:1048A0000F900F900F900F900F900F908ECF8F92D0
:1048B0009F92AF92BF92CF92DF92EF92FF920F93AF
:1048C0001F93CF93DF9310926405109263052FE33B
:1048D0002093680510926705109266051092650591
:1048E00010923706109238061092390610923A0646
:1048F0009C01F90190812F5F3F4F9032D1F39E349C
:10490000C9F4818190ED980F9A3020F08D3211F02A
:104910008B3281F432969F012F5F3F4F808180530D
:104920008A3008F44CC09F012F5F3F4F8081803256
:1049300009F447C0F0937509E09374098F010F5F84
:104940001F4FC0816AE270E0C8010E949FFC00977F
:1049500031F0FC01319780818032E1F31182CD3456
:1049600021F0C43511F0C734E9F4D8018C910F5F00
:104970001F4F8032D1F380538A30A0F4C093680572
:1049800030E020E06AE0FD0131968C9180532A39B5
:1049900099E13907D0F030936705209366058FE3DE
:1049A00080936805DF91CF911F910F91FF90EF9059
:1049B000DF90CF90BF90AF909F908F900895F901B6
:1049C000AACFF901B0CFDF01DECF293999E139074C
:1049D00011F4863000F7629FA001639F500D1124EF
:1049E0009A01280F311D808190ED980F9A3058F36D
:1049F00030936705209366058E3261F4129690E03D
:104A00004AE0FD011196808150ED580F5A30C0F0F8
:104A100090936505DF0131968C918032D9F3CD34C6
:104A2000F9F42E31310539F088F42731310519F0C8
:104A30002C313105A9F4B0936405A0936305B2CF7E
:104A4000949F800D112490ED980FDBCF2537310511
:104A500038F02737310578F3203AE3E03E0759F381
:104A6000D091740940E050E0BA0110E000E0C12CA0
:104A7000D12C7601C394FD0131968C91882309F4E1
:104A80007FC08132E1F4CD34D1F420323105B9F464
:104A900040933706509338066093390670933A0670
:104AA000F0936405E093630563E270E0CF010E9438
:104AB0009FFC009709F476CFFC01108273CF8154DC
:104AC0008A3108F058C0DF019D91903291F0A0ED3D
:104AD000A90FAA30E8F09E3271F4918190539A3078
:104AE000B8F00115110519F48F010150110990E07A
:104AF00013C0FD01E8CF9D3211F09B3291F79181F7
:104B0000A0EDA90FAA3020F09E3259F79281E6CF8E
:104B10009E2F9D1B309759F3A82FB0E046015701F7
:104B200004C0880C991CAA1CBB1C8A95D2F7482982
:104B300059296A297B29A75BBA4F9C9380818154AC
:104B4000DF018A3108F497CFDF018191882309F4CE
:104B500092CF90ED980F9A30B8F393ED980F923072
:104B600098F38B3289F3CD010196EC91E03209F094
:104B700082CFDC01F8CF0115110501F78D01DECFE1
:104B800010936405009363054093370650933806ED
:104B90006093390670933A0605CFCF93DF93EC010B
:104BA0008991882319F00E946EC5FACF8DE00E948A
:104BB0006EC58AE0DF91CF910C946EC50C947EC7D0
:104BC00090915D09992321F0682F80E00E946999F6
:104BD00080E00895682F70E090E080E00C94E6C7D4
:104BE0001F93CF93DF931BEBC2EED4E1FE01812F25
:104BF00011928A95E9F70E94A1D2882359F0FE010B
:104C000011921A95E9F784E994E0DF91CF911F9111
:104C10000C946CE0DF91CF911F9108958091E21484
:104C2000882361F090919C15891308C08091AA0D8A
:104C300084FF04C089E295E10C9459DE80E0089578
:104C4000FC01238121110C94DB7D0895CF93DF9328
:104C5000C091CB0DD091CC0D209729F16091C70D5B
:104C60007091C80D8091C90D9091CA0D0E94DDFA16
:104C70006E5F7F4F26976C177D07ACF47093E70744
:104C80006093E6070E94A0D160547B428E4F9F4FF5
:104C90006093E8077093E9078093EA079093EB0726
:104CA000DF91CF9108951092E8071092E9071092D2
:104CB000EA071092EB07F4CFCF93DF93EC018991D1
:104CC000882319F00E946EC5FACFDF91CF91089525
:104CD000682F70E090E080E00C947EC7CF93C1E035
:104CE00020E030E0A9016091420770914307809174
:104CF0004407909145070E94DCF2811101C0C0E099
:104D00008C2FCF910895CF93C82F882319F0E6DF19
:104D10008823C9F080918C098C17A9F00E945387D1
:104D20008FE19AE00E94508980918C0991E0892757
:104D300080938C09882321F08FE19AE00E943086CD
:104D4000CF910C94DB95CF9108950E94759F8111AE
:104D500002C00C9431A380E0D6DF0E9453A081E012
:104D600080931F0708954F925F926F927F928F9268
:104D70009F92AF92BF92CF92DF92EF92FF920F93EA
:104D80001F93CF93DF93EC0120913A0730913B07BB
:104D900040913C0750913D07688179818A819B81D0
:104DA0000E9498F96B017C0120913E0730913F07EA
:104DB00040914007509141076C817D818E819F8198
:104DC0000E9498F94B015C01A701960160912705AB
:104DD000709128058091290590912A050E94DCF2A6
:104DE000882309F45AC0C0922705D0922805E09282
:104DF0002905F0922A0520911F0530912005409148
:104E0000210550912205C701B6010E9441F32B01F3
:104E10003C010E940EFB6B017C0120E030E0A90107
:104E20000E94DCF287FD7AC020E030E040E850E4E8
:104E3000C701B6010E94C0FB181634F4C12CD12C56
:104E4000C0E8EC2EC0E4FC2EA7019601C301B2011C
:104E50000E9498F92B013C0120E030E0A9010E945A
:104E6000DCF287FD5FC040921705509218056092F2
:104E7000190570921A05C701B6010E94DDFA609308
:104E80001505062E000C770B6F5F7F4F64307105A0
:104E900014F064E070E060931305D0911105109157
:104EA0001505A501940160912B0570912C05809149
:104EB0002D0590912E050E94DCF281113CC0D1138A
:104EC00094C02091F9043091FA044091FB04509170
:104ED000FC04609117057091180580911905909157
:104EE0001A050E9441F32091FD043091FE04409187
:104EF000FF04509100050E9499F9DF91CF911F9115
:104F00000F91FF90EF90DF90CF90BF90AF909F9068
:104F10008F907F906F905F904F900895C12CD12C0F
:104F2000760192CF1092170510921805109219056C
:104F300010921A05A0CF80922B0590922C05A0927A
:104F40002D05B0922E052091230530912405409126
:104F5000250550912605C501B4010E9441F34B017E
:104F60005C010E940EFB6B017C0120E030E0A90196
:104F70000E94DCF287FDFDC020E030E040E850E414
:104F8000C701B6010E94C0FB181634F4C12CD12C05
:104F9000B0E8EB2EB0E4FB2EA7019601C501B401E9
:104FA0000E9498F94B015C0120E030E0A9010E94C9
:104FB000DCF287FDE2C080921B0590921C05A09256
:104FC0001D05B0921E05C701B6010E94DDFA60936F
:104FD0001605062E000C770B6F5F7F4F643071054E
:104FE00014F064E070E060931405C0911605D113CD
:104FF00005C0809112058C1709F470C080911505C9
:105000009091160590931205809311050C2E000CBB
:10501000DD0B25E01203C0011124FC01EC0FFD1F84
:10502000EE0FFF1FEE0FFF1FE75AF84F208131816F
:105030004281538120930D0530930E0540930F0557
:105040005093100500911405002E000C110BFC016B
:10505000E00FF11FEE0FFF1FEE0FFF1FE75AF84F93
:1050600060817181828193810E9498F96093090522
:1050700070930A0580930B0590930C0520911305FE
:1050800035E02303F0011124CE0FDF1FCC0FDD1F0D
:10509000CC0FDD1FC75AD84F288139814A815B81E7
:1050A00020930505309306054093070550930805A6
:1050B000E00FF11FEE0FFF1FEE0FFF1FE75AF84F33
:1050C00060817181828193810E9498F960930105CA
:1050D00070930205809303059093040580901B054F
:1050E00090901C05A0901D05B0901E05209109050B
:1050F00030910A0540910B0550910C05C501B40192
:105100000E9441F320910D0530910E0540910F054D
:10511000509110050E9499F96B017C01C092FD0429
:10512000D092FE04E092FF04F09200052091010568
:10513000309102054091030550910405C501B40169
:105140000E9441F320910505309106054091070525
:10515000509108050E9499F9A70196010E9498F9BB
:105160006093F9047093FA048093FB049093FC0419
:10517000A8CEC12CD12C76010FCF10921B05109216
:105180001C0510921D0510921E051DCFE7E2F5E0EB
:1051900080EF9FEFA9E7B4EC84839583A683B78360
:1051A00080839183A283B383E1E1F5E08DE981837C
:1051B000808308958F929F92AF92BF92CF92DF9299
:1051C000EF92FF92FC0198E0A2E4B7E001900D920B
:1051D0009A95E1F788E0FB01AAE3B7E001900D9210
:1051E0008A95E1F7C0904207D0904307E0904407CA
:1051F000F090450720E030E0A901C701B6010E9408
:10520000DCF28823E1F1A701960160E070E080E81C
:105210009FE30E9475FA6B017C0180904607909095
:105220004707A0904807B090490720E030E0A90167
:10523000C501B4010E94DCF2882329F1A501940183
:1052400060E070E080E89FE30E9475FAC0921F055D
:10525000D0922005E0922105F0922205609323056B
:10526000709324058093250590932605FF90EF9079
:10527000DF90CF90BF90AF909F908F900895C12CFA
:10528000D12C7601CACF60E070E0CB01DFCF8F92E6
:105290009F92AF92BF92EF92FF920F931F93CF9383
:1052A000DF9310923E0710923F0710924007109232
:1052B000410710923A0710923B0710923C07109258
:1052C0003D07109246071092470710924807109228
:1052D0004907109242071092430710924407109218
:1052E000450709E517E0C0E0812C912C80ECA82E41
:1052F0008FE7B82E7801D0E0F70181929192A192C8
:10530000B1927F016D2F8C2F0E9462A0DF5FD5309C
:1053100099F7CF5F0C5E1F4FC53061F7DF91CF91DA
:105320001F910F91FF90EF90BF90AF909F908F9043
:105330000895EFE6F0E08081826080830895809197
:105340006E0990916F09892B79F480916E09909183
:105350006F09892B49F420916E0930916F0981E022
:10536000232B19F480E0089581E00895CF93DF9313
:10537000EC01FE0184912196882319F00E941920E6
:10538000F8CFDF91CF910895CF93DF93EB01EEDF5C
:10539000CE01DF91CF9190CCCF92DF92EF92FF922E
:1053A0006A017B01E3DF42E0C701B601FF90EF90A5
:1053B000DF90CF900C9412C88BE295E0D7CF85E2B6
:1053C00095E0D4CF8AE00C941920CF93DF936BE45F
:1053D00071E10E9474CAC091450ED091460E488179
:1053E00059816A817B8182E491E1D6DF4C815D81C4
:1053F0006E817F8186E890E3CFDF4091410E50912E
:10540000420E6091430E7091440E83E890E3C4DF36
:105410008FE391E1ABDF87EA9FE1A8DFDF91CF91D6
:10542000D1CF0F931F93CF938C01C62F89E09EE0BD
:105430009DDFC8019BDF8AE30E946EC580E38C0F6D
:105440000E941920CF911F910F91BCCFCF9385E07F
:1054500090E18CDFB7DFE0915C0282E6E89FF0012B
:105460001124E154FD4FC08160E085EF9FE0D9DF5A
:1054700060E080EE9FE0D5DF61E089ED9FE0D1DF65
:1054800061E08EEC9FE0CDDF60E08FEB9FE0C9DF55
:1054900061E08FEA9FE0C5DF60E086EA9FE0C1DF60
:1054A00061E08CE99FE0BDDF61E082E99FE0B9DF68
:1054B00061E08BE89FE0B5DF61E083E89FE0B1DF6A
:1054C00061E085E79FE0ADDF60E087E69FE0A9DF70
:1054D00060E088E59FE0A5DF60E08AE49FE0A1DF6F
:1054E00060E084E39FE09DDF60E083E29FE099DF7E
:1054F00061E08EE09FE095DF61E08FEF9EE091DF5D
:1055000061E088EF9EE08DDF60E08BEE9EE089DF5A
:1055100060E084EE9EE085DF61E08BED9EE081DF60
:1055200060E086EC9EE07DDF60E088EB9EE079DF66
:1055300060E08EEA9EE075DF60E087E99EE071DF63
:1055400060E08AE89EE06DDF61E087E79EE069DF6A
:1055500060E08AE69EE065DF61E085E69EE061DF6F
:1055600061E088E59EE05DDF60E08CE49EE059DF6D
:1055700060E088E39EE055DF60E085E29EE051DF79
:10558000C7FD1AC060E080919E1590919F15CC23B5
:1055900039F0C13089F461E08091A0159091A11596
:1055A0000E949E1A682F61708CE19EE03ADF60E0F5
:1055B0008EE09EE0CF9135CF80E0F4CFCF92DF92A6
:1055C000EF92FF926A017B01D1DEC701B6010E9412
:1055D000E6C7FF90EF90DF90CF90F4CE0F931F932C
:1055E000CF93883038F5082F082E000C110BC0918E
:1055F0009D1591E001C0990F8A95EAF790939D154A
:105600000E9403C887E6809FF001819FF00D11245E
:10561000E759FA4F40815181628173814F5F5F4F3B
:105620006F4F7F4F8EE691E1C9DF8AE691E19EDE02
:10563000C0939D15CF911F910F910895EF92FF9206
:105640000F931F93CF93DF937C01C62F062F062E57
:10565000000C110B80E0683028F481E001C0880F55
:105660006A95EAF7D0919D1580939D15A5DE87E692
:10567000809FF001819FF00D1124E759FA4F40817E
:10568000518162817381C70199DF8C2F0E941F1A9B
:105690000196D9F78C2FA2DF87E6809FF001819FCA
:1056A000F00D1124E759FA4F15821482D0939D15FD
:1056B000DF91CF911F910F91FF90EF9008950F937D
:1056C0001F93CF93811111C0C42F8B0178DE84E228
:1056D0009CE04CDEC8014ADECC2339F08AE30E940C
:1056E0001920CF911F910F916DCECF911F910F91E6
:1056F0000895CF93C82F41E062EF79E0E0DFC11158
:1057000001C05DDE40914C0750914D0760914E07FE
:1057100070914F0789EE99E03FDE4091500750911C
:105720005107609152077091530786EE99E034DE7D
:1057300083EE99E01BDE87EA9FE118DECF9142CE2F
:10574000CF93C82F41E069EC78E0B9DFC11101C007
:1057500036DE4091DF0D5091E00D6091E10D7091CA
:10576000E20D80EC98E018DE21E732EB47E25EE3E1
:105770006091E30D7091E40D8091E50D9091E60D3F
:105780000E9475FAAB01BC018DEB98E005DE21E7C4
:1057900032EB47E25EE36091E70D7091E80D809196
:1057A000E90D9091EA0D0E9441F3AB01BC018AEB37
:1057B00098E0F2DDCF9106CECF92DF92EF92FF928A
:1057C0006A017B01D3DD42E0C701B6010E9412C825
:1057D000FF90EF90DF90CF90F5CDCF93DF936DEFFB
:1057E0007DE00E9474CAC9E0D9E0488159816A818C
:1057F0007B8184EF9DE0D0DD4C815D816E817F8176
:1058000086E890E3C9DD488559856A857B8583E80C
:1058100090E3DF91CF91D0CFCF93DF9361E478E035
:105820000E9474CA6091E4097091E5098091E609CB
:105830009091E7090E94E0F2AB01BC0188E398E097
:10584000ABDD4091140A5091150A6091160A7091CF
:10585000170A85E398E0A0DD4091180A5091190AD3
:1058600060911A0A70911B0A82E398E095DDC6E9FF
:10587000D9E0488159816A817B8181E29CE08CDD9D
:105880004C815D816E817F8186E890E385DD48856E
:1058900059856A857B8583E890E37EDD4C855D854F
:1058A0006E857F8580E890E3DF91CF9185CFCF93A0
:1058B000DF9368EE77E00E9474CAC4EDD9E04CA98A
:1058C0005DA96EA97FA98FED97E066DD48AD59AD62
:1058D0006AAD7BAD8CED97E05FDD4CAD5DAD6EAD3F
:1058E0007FAD82E398E0DF91CF9166CFCF93DF93D6
:1058F00064EC77E00E9474CAC4EDD9E04CA15DA1CC
:105900006EA17FA18BEB97E047DD48A559A56AA55D
:105910007BA586E890E340DD4CA55DA56EA57FA53F
:1059200083E890E339DD48A959A96AA97BA980E8F1
:1059300090E332DDDF91CF9145CDCF93DF936FE9D7
:1059400077E00E9474CAC4EDD9E0688179818A81C8
:105950009B810E94E0F2AB01BC0186E997E01CDD6F
:105960006C817D818E819F810E94E0F2AB01BC0140
:1059700086E890E311DD688579858A859B850E949C
:10598000E0F2AB01BC0183E890E306DD6C857D8528
:105990008E859F850E94E0F2AB01BC0180E890E318
:1059A000FBDCDF91CF910ECDCF93811110C007DDCD
:1059B00084E29CE0DBDC84E897E0D8DC8091580747
:1059C000811103C087E797E0D1DCFCDCF8DCC091F3
:1059D00058078EE697E0CADC8C2FFCD8409154071C
:1059E0005091550760915607709157078BE697E0E5
:1059F000CF91E2CECF93DF93EB01B8DCCE01B6DCE2
:105A0000DF91CF91DFCCCF9364E17AE00E9474CA3A
:105A1000C0914B07C05D8BE09AE0A8DC8C2F0E9400
:105A20006EC580914B0765ED7FE1882311F069ED2C
:105A30007FE187E09AE0CF91DDCF0F931F93CF9363
:105A4000DF938C01D62FC0919D158FEF80939D150C
:105A500085E595E08BDCC80189DCD111B3DCC0930E
:105A60009D15DF91CF911F910F9108950F931F9373
:105A7000CF93DF938C01D62FC0919D158FEF80932C
:105A80009D1560E08BE795E0D8DFC8016FDCD11190
:105A900099DCC0939D15DF91CF911F910F910895CF
:105AA000EF92FF921F93CF93DF937C0160E082E936
:105AB00095E0DCDFCDE9D5E118818FEF888380E2C6
:105AC0000E941920C70152DC7DDC1883DF91CF9141
:105AD0001F91FF90EF90089561E08DE895E0C6CFAB
