:100000000C9437170C9477170C9477170C94771778
:100010000C9477170C9477170C9477170C94771728
:100020000C9477170C9477170C9477170C94771718
:100030000C9477170C9477170C9477170C94771708
:100040000C9477170C94BC7B0C9477170C9477174F
:100050000C9477170C94B37A0C9477170C942EC7E2
:100060000C9477170C94EE4E0C94DA4E0C94771790
:100070000C9477170C9477170C9477170C947717C8
:100080000C94714D0C9477170C9477170C94771788
:100090000C94B04E0C94E44E0C9477170C94771794
:1000A0000C9477170C9477170C94434D0C94771796
:1000B0000C9477170C9477170C9477170C94771788
:1000C0000C9477170C9477170C9477170C94864E32
:1000D0000C94504E0C9477170C9477170C94771758
:1000E0000C947717084AD73B3BCE016E84BCBFFD0A
:1000F000C12F3D6C74319ABD56833DDA3D00C77FF8
:1001000011BED9E4BB4C3E916BAAAABE0000008090
:100110003F05A84CCDB2D44EB93836A9020C50B91F
:10012000918688083CA6AAAA2ABE000000803F004B
:100130004E414E494E495459494E46CDCCCC3D0ACC
:10014000D7233C17B7D13877CC2B329595E6241FAF
:10015000B14F0A000020410000C84200401C462068
:10016000BCBE4CCA1B0E5AAEC59D7400407A10F33B
:100170005A00A0724E18090010A5D4E80000E876D5
:1001800048170000E40B54020000CA9A3B0000002C
:10019000E1F505000080969800000040420F000045
:1001A00000A08601000000102700000000E8030006
:1001B0000000006400000000000A000000000001D0
:1001C00000000000002C76D888DC674F0823DFC1D0
:1001D000DFAE59E1B1B796E5E3E453C63AE651998B
:1001E0007696E8E6C28426EB898C9B62ED407C6FB4
:1001F000FCEFBC9C9F40F2BAA56FA5F490055A2A6B
:10020000F75C936B6CF9676DC11BFCE0E40D47FE76
:10021000F520E6B500D0ED902E030094357705006B
:1002200080841E080000204E0A000000C80C3333F2
:1002300033330F986E12831141EF8D2114893BE601
:100240005516CFFEE6DB18D1844B381BF77C1D908A
:100250001DA4BBE424203284725E228100C9F124F3
:10026000ECA1E53D27434F4D4D554E49434154497F
:100270004F4E0044525952554E004552524F525320
:1002800000494E464F004543484F00627567666916
:10029000782D322E312E780057616E68616F2044C0
:1002A00039204D4B320053544F505045442E2000BE
:1002B0005072696E7465722073746F70706564201B
:1002C00064756520746F206572726F72732E20469C
:1002D000697820746865206572726F7220616E643F
:1002E00020757365204D39393920746F207265731C
:1002F000746172742E202854656D70657261747516
:1003000072652069732072657365742E205365745D
:1003100020697420616674657220726573746172FD
:1003200074696E67290A004E6F20436865636B73BA
:10033000756D2077697468206C696E65206E756DC7
:100340006265722C204C617374204C696E653A2092
:10035000004E6F20436865636B73756D2077697419
:1003600068206C696E65206E756D6265722C204C1C
:10037000617374204C696E653A2000636865636B35
:1003800073756D206D69736D617463682C204C61A9
:100390007374204C696E653A20004C696E65204E7E
:1003A000756D626572206973206E6F74204C617385
:1003B00074204C696E65204E756D6265722B312C10
:1003C000204C617374204C696E653A20004D3131C8
:1003D000300053657269616C2073746174757320A9
:1003E0006D69736D617463680A00534420726561BE
:1003F00064206572726F720A00746F6F206D75638E
:100400006820696E6163746976652074696D652022
:100410002D2063757272656E7420636F6D6D616EF1
:10042000643A20002121204B494C4C2063617573B4
:1004300065642062792000627573793A2070617575
:1004400073656420666F7220696E7075740A00624D
:100450007573793A2070617573656420666F7220D8
:10046000757365720A00627573793A2070726F63F2
:10047000657373696E670A00534420436172642098
:1004800072656164206572726F720046696C616D9D
:10049000656E742072756E6F757420452564004D0D
:1004A000363030002066696C616D656E745F727500
:1004B0006E6F7574200066696C616D656E745F7235
:1004C000756E6F757420540046696C616D656E744D
:1004D00052756E6F7574205400506C6561736520A1
:1004E000526573657400706F7765726F6666004B56
:1004F000494C4C45442E20005072696E7465722040
:1005000068616C7465642E206B696C6C28292063AB
:10051000616C6C6564210A006563686F3A0045721E
:10052000726F723A0042696C696E656172204C6547
:1005300076656C696E6720477269643A0A0050728A
:10054000696E74204F626A002F2F616374696F6E49
:100550003A006E6F74696669636174696F6E20003A
:100560006E6F74696669636174696F6E2000707282
:100570006F6D70745F00626567696E00656E640020
:1005800073686F7700627574746F6E00486F74657E
:100590006E6420746F6F20636F6C640A004F464670
:1005A0000A004661646520486569676874200042F6
:1005B0006564204C6576656C696E672000466169EC
:1005C0006C656420746F20656E61626C65204265A5
:1005D00064204C6576656C696E670A00496E7661C9
:1005E0006C6964206D6573682E0A0050726F6269D1
:1005F0006E6720506F696E740025532025692F2582
:1006000069002E0A002F0050726F62696E67206DBC
:1006100065736820706F696E7420002028445259F9
:1006200052554E2900473239204175746F2042657A
:1006300064204C6576656C696E67003F20284C2C01
:10064000522C462C4229206F7574206F6620626FF1
:10065000756E64732E0A00290A003F466565647250
:100660006174652028532920746F6F206C6F772E7A
:1006700020285573696E6720003F285629657262ED
:100680006F7365206C6576656C20696D706C617543
:100690007369626C652028302D34292E0A0042616E
:1006A00064205A2076616C75650A004E6F2062697D
:1006B0006C696E65617220677269640A00706175A9
:1006C00073656400486561642063616E6E6F7420B9
:1006D0006265207061726B656400506175736500BE
:1006E000496E736572742066696C616D656E742005
:1006F000616E6420707265737320627574746F6EBE
:100700000A0052656865617420446F6E6500526529
:1007100068656174696E672E2E2E0052656865618A
:1007200074004865617465722054696D656F7574F5
:1007300000507265737320627574746F6E20746FED
:100740002068656174206E6F7A7A6C650A004E6F5E
:100750007A7A6C65205061726B65640044697361DC
:10076000626C6552756E6F75740050757267654D79
:100770006F726500506175736564004C6F61642031
:1007800046696C616D656E742054004C6F61642025
:1007900046696C616D656E7400496E736572742094
:1007A00066696C616D656E7420616E64207072653F
:1007B000737320627574746F6E0A00726573756D61
:1007C000656400526573756D696E670020496E76C9
:1007D000616C696420657874727564657220005379
:1007E0006C6565702E2E2E005B505D61726B696EBC
:1007F00067207374796C652028302E2E34292E00E2
:100800003F496E76616C696420005A2050726F62B5
:10081000652050617374204265640A005A2050724A
:100820006F626520506173742042656400473238FE
:10083000004D65736820706F696E74206F75742049
:100840006F662072616E67650A00626567696E0097
:10085000436F6E74696E7565004D302053746F7010
:10086000004D312053746F7000436C69636B2074CA
:100870006F20526573756D652E2E2E004E6F204DC4
:100880006F76652E00456E642066696C65206C6924
:1008900073740A00426567696E2066696C65206C36
:1008A0006973740A004E6F206D656469610A0053B4
:1008B0004420636172642072656C65617365640ACB
:1008C00000526573756D696E6720534400526573FD
:1008D000756D6500506175736520534400286E6F17
:1008E0002066696C65290043757272656E742066B6
:1008F000696C653A20004E6F742053442070726911
:100900006E74696E670A005344207072696E746970
:100910006E67206279746520002E0A0044656C655C
:1009200074696F6E206661696C65642C2046696C21
:10093000653A200046696C652064656C6574656481
:100940003A005072696E742074696D653A200070C7
:1009500061757365006F6B004C696E653A20006FBE
:10096000666600860281027A02730265024445428D
:1009700055473A004D3131322053687574646F77B2
:100980006E004D31313320530057616E68616F2026
:100990004439204D4B32204F46462E0020732E0AFC
:1009A00000496E61637469766974792074696D6554
:1009B0006F7574200020204D39322058002F2F00F1
:1009C00020440020204D32303020530020204D3272
:1009D000303120580020450020204D32303320583F
:1009E0000020520020204D323034205000204A0098
:1009F00020540020530020204D3230352042003F4B
:100A00004A206F7574206F662072616E67652028BA
:100A1000302E303120746F20302E33290A002020F0
:100A20004D32303620580020580020204D61783A51
:100A30002000200020204D696E3A2000203B20003D
:100A400020204D323131205300250A0046523A0011
:100A500020466C6F773A20003A200020536572766A
:100A60006F2000206F7574206F662072616E67655D
:100A70000A00536572766F200050726F6265204FD6
:100A80006666736574205A0050726F6265204F6607
:100A900066736574205A0020440020490020204DD0
:100AA00033303120500064697300656E00432900C3
:100AB00061626C656420286D696E2074656D7020BC
:100AC00000436F6C6420657874727564657320618F
:100AD00072652000203B20486F73742068616E644B
:100AE0006C696E6720004F4646004F4E0046696CA9
:100AF000616D656E742072756E6F757420004D3473
:100B0000323120696E636F72726563742070617236
:100B1000616D657465722075736167650A004D6566
:100B2000736820706F696E74206F7574206F662013
:100B300072616E67650A004F666673657473204163
:100B400070706C696564004D494E2F4D41582054BA
:100B50006F6F2046617200546F6F2066617220666D
:100B6000726F6D204D494E2F4D41580A004545503A
:100B7000524F4D204F4B0A00203B002055002020B3
:100B80004D363033204C0020286D6D2900203B006D
:100B9000205A0020590020204D3835312058002996
:100BA0000A0020746F20003F5A206F7574206F6612
:100BB0002072616E6765202800290A0020746F206A
:100BC000003F59206F7574206F662072616E6765F3
:100BD000202800290A0020746F20003F58206F75DC
:100BE00074206F662072616E67652028004D38346E
:100BF00000446F6E65207072696E74696E6720665E
:100C0000696C650A004D3737004D33310043617020
:100C10003A00434F4E4649475F4558504F525400A3
:100C20004D4541545041434B00434F4F4C45525F5B
:100C300054454D5045524154555245004348414D4D
:100C40004245525F54454D5045524154555245001E
:100C500045505F4241425953544550004241425928
:100C60005354455050494E470041524353004D4F55
:100C700054494F4E5F4D4F44455300544845524DE3
:100C8000414C5F50524F54454354494F4E004558D4
:100C900054454E4445445F4D323000435553544F04
:100CA0004D5F4649524D574152455F55504C4F415B
:100CB00044004C464E5F5752495445004C4F4E47F6
:100CC0005F46494C454E414D45004155544F5245B4
:100CD000504F52545F53445F535441545553005343
:100CE000445F575249544500524550454154004DC8
:100CF000554C54495F564F4C554D45005344434164
:100D000052440050524F4D50545F535550504F5223
:100D10005400484F53545F414354494F4E5F434F33
:100D20004D4D414E445300454D455247454E435964
:100D30005F50415253455200434153455F4C494730
:100D400048545F4252494748544E45535300544F0C
:100D500047474C455F4C494748545300534F46540E
:100D6000574152455F504F574552004255494C44F8
:100D70005F50455243454E54004C4556454C494EF4
:100D8000475F44415441005A5F50524F4245005220
:100D9000554E4F5554004155544F4C4556454C0007
:100DA0005052494E545F4A4F420050524F475245AD
:100DB0005353004155544F5245504F52545F544580
:100DC0004D50004155544F5245504F52545F504F73
:100DD0005300564F4C554D455452494300454550DC
:100DE000524F4D0042494E4152595F46494C455F72
:100DF0005452414E534645520053455249414C5F6F
:100E0000584F4E5F584F4646004649524D57415243
:100E1000455F4E414D453A4D61726C696E20627579
:100E2000676669782D322E312E7820284D61722028
:100E3000313320323032362032313A30393A343898
:100E40002920534F555243455F434F44455F555208
:100E50004C3A6769746875622E636F6D2F4D6172CD
:100E60006C696E4669726D776172652F4D61726C47
:100E7000696E2050524F544F434F4C5F564552536A
:100E8000494F4E3A312E30204D414348494E455F3F
:100E9000545950453A57616E68616F204439204D6E
:100EA0004B32204B494E454D41544943533A4361DF
:100EB0007274657369616E204558545255444552A9
:100EC0005F434F554E543A3120555549443A636576
:100ED0006465326132662D343161322D34373438F5
:100EE0002D396231322D633535633632663336370C
:100EF00066660047322F473320626164207061725A
:100F0000616D65746572730A005A2050726F626574
:100F100020506173742042656400205A3A002059C1
:100F20003A0042656420583A004732384F00220A9E
:100F300000656E7175657565696E672022006F6B5F
:100F40000A00526573656E643A20002569730025B6
:100F5000696D20256973002569682025696D202544
:100F6000697300256964202569682025696D20253D
:100F70006973002569792025696420256968202521
:100F8000696D202569730020460020420020204D15
:100F9000313034205300436F6F6C696E672E2E2EF4
:100FA0000045312025530020573A00426564204314
:100FB0006F6F6C696E672E2E2E0042656420486547
:100FC0006174696E672E2E2E0023646566696E65F6
:100FD0002044454641554C545F00504944207475A7
:100FE0006E696E6720646F6E65004175746F74750D
:100FF0006E65206661696C6564212054696D656F5A
:1010000075742E004175746F74756E652066616924
:101010006C6564212054656D7065726174757265CC
:1010200020746F6F20686967682E004175746F7453
:10103000756E65206661696C65642120426164207B
:1010400065787472756465722E005049442041754C
:10105000746F74756E65004B4420004B4920004B43
:101060005020005049442074756E696E6720646F8B
:101070006E65002066696E6973686564212050752D
:101080007420746865206C617374204B702C204B45
:101090006920616E64204B6420636F6E7374616EAF
:1010A00074732066726F6D2062656C6F7720696E55
:1010B000746F20436F6E66696775726174696F6ED5
:1010C0002E680A00504944204175746F74756E652E
:1010D00000206661696C6564212074696D656F75B7
:1010E000740A00504944204175746F74756E650030
:1010F0004175746F74756E65206661696C656421F5
:101100002054696D656F75742E00206661696C6589
:1011100064212054656D7065726174757265207408
:101120006F6F20686967680A0050494420417574F0
:101130006F74756E6500504944204379636C657324
:101140000025532025692F256900204B643A200093
:10115000204B693A2000204B703A200020436C61FC
:101160007373696320504944200A002054753A2063
:1011700000204B753A2000206D61783A2000206DE8
:10118000696E3A200020643A200020626961733A57
:10119000200048656174696E672E2E2E00207374DE
:1011A0006172740A00504944204175746F74756E01
:1011B00065004175746F74756E65206661696C6554
:1011C00064212054656D7065726174757265207458
:1011D0006F6F20686967682E00206661696C6564BE
:1011E000212054656D706572617475726520746F2D
:1011F0006F20686967680A00504944204175746F20
:1012000074756E6500504944204175746F74756E35
:101210006500206661696C65642120426164206814
:1012200065617465722069640A0050494420417503
:10123000746F74756E6500002002000000F51D00DB
:1012400000012002000000F51D0000022002000045
:1012500000F51D0000032002000000F51D00000441
:101260002002000000354F0000052002000000B9F8
:101270001D0000062000000000961D00000720024F
:10128000000000631D0000082002000000771D0020
:1012900000092002000000A43300000A2002000020
:1012A00000381800000B2002000000061800000E95
:1012B00020020000002D1D00000F2002000000137E
:1012C0001D00001020020000001950000011200233
:1012D000000000EC4F0000122002000000EC4F0064
:1012E00000142002000000C44F000015200200007E
:1012F00000531D0000162002000000E21C00001731
:101300002002000000AD1C0000182002000000FEBA
:101310001700001920020000009F1B00001A200087
:10132000000000413E00001B2000000000AA250034
:10133000001C2002000000F21700001D2002000027
:1013400000DF1700001E2002000000411C00001FEB
:1013500020020000001C3E0000202002000000705F
:101360001B0000212002000000701B000022200250
:10137000000000701B00002320020000002F1B0053
:1013800000242002000000D71700002520000000E4
:1013900000241B0000262000000000273D0000273D
:1013A00020020000000B3E0000282002000000F791
:1013B0003D0000292002000000B81700002A20028A
:1013C000000000ED1A00002B2000000000953D00F9
:1013D000002E2002000000DD1A00002F2000000077
:1013E00000B21700002030020000000000557725F1
:1013F00030200000000000FE764530200000000094
:1014000000FE766530200000000000FE768530206A
:101410000000000000FE76A530200000000000FE65
:1014200076C530020000000000AA77C63020000018
:10143000000000C576E630020100000000697FE888
:10144000300F0100000000EF8EF7300201000000B5
:10145000000475BE31020000000000FF91F8300268
:1014600001120200001074F930020100000000F3C4
:1014700074FC300201DE070000A673FD300201E2B9
:101480000700001074FE30020000000000DF74FF4F
:10149000300201DA0C0000A67300310201DE0C00FC
:1014A0000010740131020000000000DF74053102F9
:1014B0000100000000D37406310201540D00003C0D
:1014C00073073102000A020000BB740831020100F8
:1014D000000000897609310200000000002D722210
:1014E00031020002070000F17223310200040700FC
:1014F00000F1722431020000000000A774253102BF
:10150000000B020000F172263102011E0A0000A643
:101510007327310201220A0000A673283102012636
:101520000A0000A6732931020006070000BB742AD6
:10153000310200000000007A762B3102000000002A
:10154000008F742C3102000D020000F1722D310465
:10155000010000000094752F3104010000000058C4
:101560007531310401000000001C753331180098FA
:10157000020000CA754B3118000000000027766396
:101580003110008B020000CA7573310200000000A8
:1015900000EF6C7431020000000000F06C7531182F
:1015A000000000000001768D31180000000000F0FE
:1015B00075A531180000000000DF75BD3102000084
:1015C000000000CF910040020100008417767401F2
:1015D0004020020907D11A1276214002000902C5F3
:1015E0006CA572224002000000252267742340028D
:1015F0000000005D225D7400500200000000000445
:101600007501500000000079170000000000000084
:1016100000000000004E6F7420616C6C6F77656491
:10162000207768696C652069646C65004E6F742072
:10163000616C6C6F77656420647572696E67207089
:1016400072696E74004E6F205344204361726420AF
:1016500044657465637465640043616E6E6F7420E5
:10166000656E746572207375626469723A20004E0B
:101670006F2066696C652073656C656374656400D2
:101680004D323500526573756D65005549205061C6
:1016900075736500726573756D65004D3234004376
:1016A0006F6F6C696E672E2E2E004D3530300047FF
:1016B000323900486F6D696E6720726571756972A5
:1016C00065640054656D706572617475726520742F
:1016D0006F6F206C6F77004732385A0047323858A6
:1016E000590047323858595A00486F6D696E672E55
:1016F0002E2E00457865637574696E6720636F6D83
:101700006D616E642E2E2E004D353030004D35301B
:1017100032004D3939390A4D323830503053313674
:1017200030004D35303000504944206175746F747D
:10173000756E696E672E2E2E004D3330334325644F
:101740004525645325645531004265642050494461
:101750002064697361626C6564004275737900BDD1
:1017600031000033314B3163317331743175318D58
:1017700031A531000023400000224000002B312C15
:101780003121402D312F31313100002A310000014B
:1017900040000026312731283129310000FF300078
:1017A00031243125310000223123310000FF300087
:1017B00031FC30FD30083109310000FF300031FCD0
:1017C00030FD300000063107310000053100000017
:1017D000400000FF3000310131FC30FD30FE3000B0
:1017E00000FF300031FC30FD300000FF300031FCE4
:1017F00030FD30E630E830005000000031FD3000B0
:1018000040F830F93006310000FF300031FC30FD87
:1018100030E630E830F730BE31000020302530456A
:101820003065308530A530C530C6300000FF30004F
:1018300031FC30FD3000004D3530300050726F62A9
:10184000696E67206661696C65640050726F6269D9
:101850006E67207375636365737366756C0002F75A
:1018600077032E92043A920A2E980BC2970C8E9709
:101870000DF2710E0A6D0FFF6C10B1971174971372
:10188000F56C16F16C000000012D18021B180309FD
:101890001804FB1705EB1706E11707D31708CF1736
:1018A00009CB170BC5170CBB170DAD170EA7170FDC
:1018B0009D17109317118F17128B17137D1714791B
:1018C00017157517166317F95F1700000047305A90
:1018D000313000473238004732380047305A300044
:1018E00047305825645925640047305A3400473240
:1018F0003800486F6D696E672E2E2E004275737921
:10190000004457494E204755492F4F532075706466
:10191000617465207265717569726564002564780B
:101920002564782564002D002D002D0063616E6311
:10193000656C005072696E742041626F72746564E8
:10194000004469736D6973730055492041626F7279
:10195000746564006F70656E005452494747455284
:101960004544003A200066696C616D656E74007ACA
:101970005F6D696E00795F6D696E00785F6D696E8D
:10198000005265706F7274696E6720656E6473745F
:101990006F70207374617475730A0020746F6F2008
:1019A0006C6F6E6720657874727573696F6E2070E6
:1019B000726576656E7465640A0020636F6C6420DE
:1019C000657874727573696F6E2070726576656E76
:1019D0007465640A00486F6D65202573204669723E
:1019E00073740000000000000000000000000057B9
:1019F00061726E696E673A20486F6D696E6720424A
:101A0000756D702044697669736F72203C20310ACD
:101A1000000202040000FA430000FA430000FA4307
:101A20000000A0400000A0400000004053544F5070
:101A30005045442E20005072696E74657220737494
:101A40006F707065642064756520746F20657272B4
:101A50006F72732E204669782074686520657272F3
:101A60006F7220616E6420757365204D393939209D
:101A7000746F20726573746172742E202854656DC2
:101A80007065726174757265206973207265736523
:101A9000742E205365742069742061667465722009
:101AA00072657374617274696E67290A00206572C9
:101AB000726F72202D207265737461727420776961
:101AC0007468204D3939390A00424C546F75636887
:101AD0000021212053544F502063616C6C656420B9
:101AE00062656361757365206F6620000000FA43CC
:101AF0000000FA430000FA4300000000000000006C
:101B000000000000454550524F4D207772697465C2
:101B1000206661696C65640053657474696E6773EF
:101B20002053746F72656400290A0020627974651D
:101B3000733B20637263200053657474696E67732E
:101B40002053746F726564202800204D61726C69A7
:101B50006E3D563930290A00454550524F4D20768A
:101B6000657273696F6E206D69736D61746368204F
:101B700028454550524F4D3D00454550524F4D2050
:101B80006461746173697A65206572726F722E0A7E
:101B9000004572723A20454550524F4D2043524302
:101BA00000202863616C63756C6174656429210A87
:101BB0000020213D2000454550524F4D20435243C7
:101BC000206D69736D61746368202D202873746FB4
:101BD000726564292000454550524F4D20436F7275
:101BE000727570740A002053697A653A2000496E54
:101BF0006465783A200053746F726564207365746D
:101C000074696E67732072657472696576656400C5
:101C10002062797465733B206372632000207374C3
:101C20006F7265642073657474696E677320726582
:101C300074726965766564202800454550524F4DA1
:101C40002072656164206661696C65640045455079
:101C5000524F4D20496E697469616C697A65640AF6
:101C600000454550524F4D20496E697469616C6959
:101C70007A656400454550524F4D20726573657416
:101C80000048617264636F646564204465666175D1
:101C90006C742053657474696E6773204C6F616453
:101CA00065640000009643000096430000A04000D9
:101CB00000C8410000A0420000A0420000C843004C
:101CC00000C842B80B0000B80B0000640000001010
:101CD00027000024F4D43050C38D20C3A2411782C2
:101CE0008B7011127A900D826CDA0AA861E108C734
:101CF000586607615142061F4B5E05C145A6041B8D
:101D0000411204093D9703723931034136DB026603
:101D1000339202D4305302812E1D02642CEE0176E0
:101D20002AC501B128A101102781018F2564012B4B
:101D3000244A01E1223401AD2120018D200C0181D2
:101D40001FFC00851EED00981DDF00B91CD200E7C6
:101D50001BC700201BBB00651AB200B319A9000AFB
:101D600019A0006A189800D217920040178A00B68E
:101D700016840032167E00B41579003B157400C736
:101D8000146F0058146A00EE136600881362002670
:101D9000135E00C8125B006D12570016125500C189
:101DA00011510070114E0022114C00D61049008DC7
:101DB0001046004710450002104200C00F4000804E
:101DC0000F3E00420F3C00060F3A00CC0E39009344
:101DD0000E37005C0E3500270E3400F30D3200C1C3
:101DE0000D3100900D2F00610D2F00320D2D0005DB
:101DF0000D2C00D90C2A00AF0C2A00850C28005DA0
:101E00000C2800350C27000E0C2500E90B2500C41A
:101E10000B2400A00B23007D0B22005B0B21003A5A
:101E20000B2100190B2000F90A1F00DA0A1F00BB62
:101E30000A1E009D0A1D00800A1C00640A1C00483E
:101E40000A1C002C0A1B00110A1A00F7091A00DDEF
:101E5000091900C4091900AB091800930918007B7F
:101E6000091700640917004D0917003609160020EC
:101E70000915000B091500F6081500E1081500CC3E
:101E8000081400B8081400A4081300910813007E79
:101E90000813006B08120059081200470812003599
:101EA000081200230811001208110001081000F1A7
:101EB000071100E0071000D0071000C0070F00B1A5
:101EC000071000A1070F0092070F0083070F00748F
:101ED000070E0066070E0058070E004A070E003C6A
:101EE000070E002E070D0021070D0014070D000737
:101EF000070D00FA060D00ED060C00E1060D00D4FA
:101F0000060C00C8060C00BC060C00B0060B00A5B1
:101F1000060C0099060B008E060B0083060B00785A
:101F2000060B006D060B0062060B0057060A004DFB
:101F3000060A0043060B0038060A002E060A002493
:101F40000609001B060A0011060A0007060900FE22
:101F5000050A00F4050900EB050900E2050900D9AE
:101F6000050900D0050900C7050800BF050900B62E
:101F7000050900AD050800A50508009D05080095A8
:101F80000509008C050800840508007C050700751C
:101F90000508006D050800650507005E0508005688
:101FA0000507004F050800470507004005070039F1
:101FB000050700320507002B050700240507001D53
:101FC000050700160507000F0506000905070002B2
:101FD000050600FC040700F5040600EF040700E80E
:101FE000040600E2040600DC040600D6040600D065
:101FF000040700C9040500C4040600BE040600B8B6
:10200000040600B2040600AC040600A6040500A104
:102010000406009B04050096040600900405008B4E
:1020200004060085040500800405007B0405007695
:10203000040600700405006B0405006604050061D9
:102040000405005C04050057040500520405004D1A
:1020500004050048040400440405003F0405003A58
:1020600004040036040500310405002C0404002893
:10207000040500230404001F0405001A04040016CC
:10208000040400120405000D040400090404000502
:1020900004040001040500FC030400F8030400F438
:1020A000030400F0030400EC030400E8030400E46C
:1020B000030400E0030400DC030400D8030400D49C
:1020C000030300D1030400CD030400C9030400C5C9
:1020D00003040000000000000000000000000000F9
:1020E0000000000000000000000000D1036D640348
:1020F000570D0347C6023B8B023259022B2E022595
:10210000090221E8011CCC011AB201179B011487B6
:10211000011374011163010F54010E46010D3901C1
:102120000D2C010B21010A17010A0D0109040108F8
:10213000FC0008F40007ED0007E60007DF0006D901
:102140000006D30005CE0006C80005C30004BF008A
:1021500005BA0004B60004B20004AE0004AA0004EC
:10216000A60003A300049F00039C000399000396AC
:1021700000039300029100038E00028C000389008B
:10218000028700038400028200028000027E0002B7
:102190007C00027A0002780002760001750002736A
:1021A00000027100017000026E00016D00026B0000
:1021B000016A000268000167000265000164000115
:1021C0006300016200026000015F00015E00015DCA
:1021D00000015C00015B00015A0001590001580038
:1021E0000157000156000155000154000153000140
:1021F0005200015100005100015000014F00014EFA
:1022000000014D00004D00014C00014B00014A004F
:10221000004A000149000148000048000147000150
:10222000460000460001450000450001440001430E
:102230000000430001420000420001410000410053
:10224000014000004000013F00003F00013E00004F
:102250003E00013D00003D00013C00003C00013B10
:1022600000003B00013A00003A000139000039004B
:102270000039000138000038000137000037000045
:102280003700013600003600003600013500003509
:10229000000134000034000034000133000033003A
:1022A0000033000132000032000032000131000032
:1022B00031000031000031000130000030000030FA
:1022C00000012F00002F00002F00002F00012E0022
:1022D000002E00002E00012D00002D00002D00001A
:1022E0002D00012C00002C00002C00002C00012BE4
:1022F00000002B00002B00002B00012A00002A0008
:10230000002A00002A00002A0001290000290000FC
:1023100029000029000128000028000028000028CA
:1023200000002800012700002700002700002700E8
:1023300000270001260000260000260000260000DD
:1023400026000026000125000025000025000025AC
:1023500000002500002500012400002400002400C6
:1023600000240000240000240001230000230000BA
:10237000230000230000230000230001220000228C
:1023800000002200002200002200002200002200A3
:102390000121000021000021000021000021000097
:1023A000210000210001200000200000200000206A
:1023B00000002000002000002000002000011F007D
:1023C000001F00001F00001F00001F00001F000072
:1023D0001F000020436F756E7420583A00426564F8
:1023E00000453100626564002C2073797374656D5B
:1023F0002073746F70706564212048656174657224
:102400005F49443A20004572723A204D4158544584
:102410004D50004D415854454D50207472696767C6
:10242000657265640048656174696E67204661691C
:102430006C65640048656174696E67206661696CEB
:102440006564004572723A204D494E54454D500026
:102450004D494E54454D50207472696767657265E9
:102460006400544845524D414C2052554E4157410D
:102470005900546865726D616C2052756E617761A8
:102480007900202F002042403A0020403A00205797
:102490003A000009121B242D363F48415A536C65FF
:1024A0007E7719100B023D342F265158434A757C14
:1024B000676E323B2029161F040D7A7368615E57E0
:1024C0004C452B2239300F061D14636A7178474E34
:1024D000555C646D767F4049525B2C253E37080180
:1024E0001A137D746F6659504B42353C272E1118D4
:1024F000030A565F444D727B60691E170C053A3320
:1025000028214F465D546B627970070E151C232AF3
:1025100031384148535A656C777E09001B122D24CF
:102520003F3658514A437C756E671019020B343D93
:10253000262F737A6168575E454C3B3229201F165F
:102540000D046A6378714E475C55222B3039060FB3
:10255000141D252C373E0108131A6D647F764940FF
:102560005B523C352E2718110A03747D666F505953
:10257000424B171E050C333A21285F564D447B729F
:1025800069600E071C152A233831464F545D626B73
:10259000707900002110422063308440A550C6604D
:1025A000E770088129914AA16BB18CC1ADD1CEE110
:1025B000EFF13112100273325222B5529442F77287
:1025C000D662399318837BB35AA3BDD39CC3FFF360
:1025D000DEE36224433420040114E664C774A44497
:1025E00085546AA54BB528850995EEE5CFF5ACC5B0
:1025F0008DD55336722611163006D776F666955667
:10260000B4465BB77AA719973887DFF7FEE79DD7FF
:10261000BCC7C448E5588668A778400861180228F6
:102620002338CCC9EDD98EE9AFF9488969990AA94F
:102630002BB9F55AD44AB77A966A711A500A333AC6
:10264000122AFDDBDCCBBFFB9EEB799B588B3BBB9F
:102650001AABA66C877CE44CC55C222C033C600C56
:10266000411CAEED8FFDECCDCDDD2AAD0BBD688DEF
:10267000499D977EB66ED55EF44E133E322E511EA6
:10268000700E9FFFBEEFDDDFFCCF1BBF3AAF599F3F
:10269000788F8891A981CAB1EBA10CD12DC14EF1DF
:1026A0006FE18010A100C230E32004502540467045
:1026B0006760B9839893FBA3DAB33DC31CD37FE370
:1026C0005EF3B1029012F322D23235421452776295
:1026D0005672EAB5CBA5A89589856EF54FE52CD540
:1026E0000DC5E234C324A0148104667447642454E5
:1026F0000544DBA7FAB79987B8975FE77EF71DC750
:102700003CD7D326F2369106B01657667676154634
:1027100034564CD96DC90EF92FE9C899E9898AB99F
:10272000ABA94458654806782768C018E108823884
:10273000A3287DCB5CDB3FEB1EFBF98BD89BBBABAF
:102740009ABB754A545A376A167AF10AD01AB32AD4
:10275000923A2EFD0FED6CDD4DCDAABD8BADE89DFF
:10276000C98D267C076C645C454CA23C832CE01C24
:10277000C10C1FEF3EFF5DCF7CDF9BAFBABFD98F8F
:10278000F89F176E367E554E745E932EB23ED10E74
:10279000F01E7C3C3E5E2B3D3F2F5B5D3B2C2A2296
:1027A0005C005761726E696E673A00534420436162
:1027B000726420496E6974204661696C005344203C
:1027C00063617264206F6B0A006F70656E526F6F89
:1027D00074206661696C65640A00766F6C756D655E
:1027E0002E696E6974206661696C65640A004E6FBB
:1027F00020534420636172640A000A4D3234004D54
:102800003233202573002E0A006F70656E206661DA
:10281000696C65642C2046696C653A200046696CD9
:10282000652073656C65637465640A002053697A7A
:10283000653A200046696C65206F70656E65643A84
:102840002000454E4420535542524F5554494E4561
:102850000A002220706F73002220706172656E740E
:102860003A2200535542524F5554494E4520434158
:102870004C4C207461726765743A22005375626330
:10288000616C6C204F766572666C6F77004578637B
:102890006565646564206D617820535542524F55DB
:1028A00054494E452064657074683A0057726974E3
:1028B000696E6720746F2066696C653A20006672E5
:1028C00065736800646F696E67002066696C653ABD
:1028D00020004E6F7720002F6175746F25632E677F
:1028E000002001400130013B01400136016001310F
:1028F0000170012C0190012701B0012201C0011DCE
:1029000001F00118011002130130020E01600209EA
:102910000190020401C002FF000003FA004003F529
:10292000008003F000D003EB002004E6007004E117
:1029300000E004DC004005D700C005D2004006CD11
:1029400000D006C8008007C3003008BE00F008B9F8
:1029500000C009B400B00AAF00B00BAA00D00CA5AB
:1029600000000EA000500F9B00C010960050129166
:102970000000148C00C0158700B0178200B0197DCC
:1029800000D01B7800001E730040206E009022696A
:1029900000F024640040275F0090295A00E02B5586
:1029A00000102E500020304B0010324600E0334122
:1029B0000090353C001037370070383200A0392DB8
:1029C00000B03A2800A03B2300603C1E00103D19D7
:1029D00000903D1400103E0F00703E0A00C03E05FE
:1029E00000003F0000403FFBFF803FF6FFC03FF18B
:1029F000FF2020506C616E6E65724275666665726E
:102A000042797465733A20002046726565204D65F1
:102A10006D6F72793A200020436F6D70696C656448
:102A20003A204D617220313320323032360A002094
:102A30004C61737420557064617465643A2032305F
:102A400032362D30332D3133207C20417574686F40
:102A5000723A2053796C3231202B20436C617564BB
:102A6000650A004D61726C696E20627567666978EF
:102A70002D322E312E780A0020536F6674776172E2
:102A8000652052657365740A002057617463686439
:102A90006F672052657365740A002042726F776E0B
:102AA000206F75742052657365740A002045787430
:102AB00065726E616C2052657365740A00506F77A1
:102AC000657255700A0073746172740A0047323877
:102AD0005859004D31303031006572726F72207775
:102AE000726974696E6720746F2066696C650A008C
:102AF000446F6E6520736176696E672066696C65E8
:102B00002E0A004D323900456E6473746F70730085
:102B1000255320256320256320256320256300207D
:102B20005A3A0020593A0020583A00656E6473748E
:102B30006F7073206869743A200000000A0B020964
:102B40000C0D0E0807030401000000000000000047
:102B50000000000000000000000000000000000075
:102B60000000000000001211100000000000000032
:102B70000000000000000000000000000000000055
:102B800000486F6D696E67204661696C656400FF7F
:102B9000FFFF205A3A200020793A20004265642045
:102BA000583A200050726F62696E67204661696C06
:102BB00065640A0050726F62696E67204661696CD5
:102BC00065640043616E6E6F74206F70656E207374
:102BD00075626469722000524553554D45204F502F
:102BE00054494F4E533A0048656174696E672E2E02
:102BF0002E000000436C69636B20746F2068656170
:102C000074000000526573756D696E672E2E2E007C
:102C1000000050757267696E672E2E2E0000004C02
:102C20006F6164696E672E2E2E000000496E736519
:102C3000727420616E6420436C69636B0000004312
:102C40006C69636B20746F20636F6E74696E756559
:102C5000000000456A656374696E672E2E2E0000C1
:102C600000506C6561736520776169742E2E2E00AB
:102C700000005061726B696E672E2E2E00000022DC
:102C80000A00556E6B6E6F776E20636F6D6D616EAF
:102C9000643A2022006F6B0057616E68616F2044B8
:102CA00039204D4B322052656164792E0050726993
:102CB0006E74696E672E2E2E005072696E742050ED
:102CC00061757365640000002200250028002B0058
:102CD0002E003100340002010000050108010B0143
:102CE00000002100240027002A002D0030003300BE
:102CF00001010000040107010A010505050507059A
:102D000008080808020202020A0A08080404040467
:102D10000101010101010101030303030303030393
:102D2000040707070C0C0C0C0C0C0C0C0202020222
:102D300006060606060606060B0B0B0B0B0B0B0B0B
:102D400001021020200808102040102040800201BD
:102D500002010804020101020408102040808040A2
:102D600020100804020180040201804020100804A1
:102D7000020108040201010204081020408001023F
:102D80000408102040804572726F72207772697457
:102D9000696E6720746F20454550524F4D210A00DF
:102DA000DB0FC93F45BCDA3F8FB30240FCF0274040
:102DB00056946140FE4B9B4084A5D840E0231841C7
:102DC000346A5641E859974164DBD5416E27174272
:102DD000B4B75542CE1A9742C8AED542B5885A43C9
:102DE000D40684BFA65FA7BF7443E0BF10B11AC06A
:102DF0001C2C58C0E8F697C0B849D6C04E4E17C133
:102E000024D355C1802497C1A0B5D5C1121A17C2C9
:102E100044AE55C2781797C26CACD5C267885AC306
:102E200020746F6F206C6F6E672065787472757395
:102E3000696F6E2070726576656E7465640A002035
:102E4000636F6C6420657874727573696F6E20703F
:102E5000726576656E7465640A0020453A00205AF2
:102E60003A0020593A00583A00007FD7BBE01124BD
:102E70001FBECFEFD1E2DEBFCDBF00E00CBF84B7F5
:102E80008093451514BE0FB6F894A8958091600004
:102E9000886180936000109260000FBE14E0A0E093
:102EA000B2E0E4EDFFED01E00BBF02C007900D9230
:102EB000A03FB107D9F725E1A0EFB4E001C01D9212
:102EC000A534B207E1F717E1C6E3D7E100E006C099
:102ED00021970109802FFE010E945DECC533D107C7
:102EE00080E00807A9F70E949CD80C94D9EF0C94B5
:102EF000000080912A078F5F80932A078A3018F09C
:102F000080EF809364090895CF93FC0180819181C3
:102F10008115904429F5FB01C1816C2F70E090E090
:102F200080E00E94ADE520E030E048EC52E40E94F1
:102F30009FEE18160CF4C4E62C2F30E0AFEFB0E093
:102F40000E941BEC24E630E040E050E00E94F5EBEC
:102F50002F3F310519F010F02FEF30E02093AC092E
:102F6000CF91089510922E0781E080933007089545
:102F7000FB0181818F3F19F0882381F008952CE3B4
:102F800030E030930E0220930D0280932D0785E0F0
:102F90008093090281E080933007089588EC90E0E7
:102FA00090930E0280930D0210922D07F0CFFB013B
:102FB00081818093060781E0809330070895FB01AB
:102FC00080819181982789279827893C910510F065
:102FD00088EC90E090930C0280930B0281E0809348
:102FE00030070895FB01818191E0980F923028F419
:102FF0008093110281E0809330070895FB01818165
:1030000080930A0281E0809330070895FC0180815B
:1030100091818B30904259F5FB0160817181762757
:10302000672776277093190260931802072E000C09
:10303000880B990B0E94AFE52AE037ED43E25CE391
:103040000E940EE6209141073091420740914307CC
:10305000509144070E940EE6609356027093570207
:10306000809358029093590281E08093300708952D
:10307000CF92DF92EF92FF92CF93DF93FB01C0815B
:10308000D181DC27CD27DC27BE010D2E000C880B5B
:10309000990B0E94AFE56B017C0120E030E040E23B
:1030A00051E40E94A9E587FD0DC020E030E04AEF21
:1030B00053E4C701B6010E949FEE18162CF4C4EF2A
:1030C000D1E002C0CAE0D0E0D0931302C093120254
:1030D00081E080933007DF91CF91FF90EF90DF90F8
:1030E000CF900895CF93DF93C091E207D091E3078B
:1030F00081E0CE31D105E4F020E030E040E05FE354
:103100006091DE077091DF078091E0079091E10701
:103110000E9478EC0E94BCED6C1B7D0B77FF03C016
:1031200071956195710981E0633071050CF080E063
:10313000DF91CF91089587FD26C0811111C0809144
:10314000B00A2091B10A8217F1F0E22FF0E0E055C9
:10315000F54F828190E02F5F2F772093B10A089579
:10316000813089F480912E0A20912F0A821759F01C
:10317000E22FF0E0E25DF54F828190E02F5F2F7744
:1031800020932F0A08958FEF9FEF0895CF93DF9339
:10319000DB01F9019C919130C1F0943080F09450A2
:1031A0009C938830D1F480819181009771F00197D0
:1031B00091838083480F591FEA01188206C08C351D
:1031C00039F49C5F9C93943041F4DF91CF91089542
:1031D0008B3339F781E08C93F8CF20813181B901AD
:1031E0006F5F7F4F71836083420F531FEA018883B3
:1031F000808191818F3591056CF7E7CF0F931F93F5
:1032000081E000915A0B10915B0B20915C0B309187
:103210005D0B4091560B5091570B6091580B70917C
:10322000590B041715072607370708F480E01F918C
:103230000F91089590E080E0089520919F128330CF
:1032400021F425FD0CC024FD0CC030E0A90102C012
:10325000559547958A95E2F7CA018170089581E0F6
:10326000089580E008950F931F93CF93DF93EC01AF
:1032700002E11AE0F80120813181428153816881A5
:1032800079818A819B810E9478EC688379838A8323
:103290009B83F80124813581468157816C817D8132
:1032A0008E819F810E9478EC6C837D838E839F83C7
:1032B000F8012085318542855385688579858A8521
:1032C0009B850E9478EC688779878A879B87DF9146
:1032D000CF911F910F9108958091480684FD0BC0F6
:1032E00080914A0687FD07C090914B06937081E05C
:1032F00019F480E0089581E008952FEB280F2A311A
:1033000008F047C0E22FF0E080914806909149060E
:10331000A0914A06B0914B0604C0B695A795979523
:1033200087952A95D2F780FD02C081700895E55AED
:10333000FA4FE081EE2341F1809173099091740975
:10334000E80FF92FF11D808190ED980F9A3030F041
:103350008E3251F4818180538A3098F4F093520573
:10336000E093510581E008958D3211F08B3249F4DC
:10337000818190ED980F9A3088F38E3211F482811A
:10338000EACFF0E0E0E0EACF10925205109251054A
:10339000E9CF80E00895B1DF882341F081E02091FA
:1033A000510530915205232B09F480E00895809156
:1033B000450781110EC020911E0230911F0221503D
:1033C000310981E04091DE0C5091DF0C4217530728
:1033D0000CF080E008958F929F92AF92BF92CF92AF
:1033E000DF92EF92FF92FC01828158E5C52E52E0F8
:1033F000D52EC81AD10887FDD394CC0CDD1CCC0C7B
:10340000DD1C0D2C000CEE08FF08818178E8872E6A
:10341000912C881A910887FD9394880C991C880C2C
:10342000991C092C000CAA08BB0880818F3FD1F1A0
:1034300090E0FC01EE0FFF1FE80FF91FE050F34F83
:103440008181928133E0880F991F3A95E1F7B0E0CE
:10345000A0E044E0B595A795979587954A95D1F753
:1034600002969C012F5F3F4F032E000C440B550B1F
:10347000281939094A095B09A4EBB0E00E9411EC54
:10348000A7019601281939094A095B090E94F5EB41
:10349000C901FF90EF90DF90CF90BF90AF909F90C9
:1034A0008F90089590E080E0DCCF91E090934D06FE
:1034B0009091D10095FD0CC09091D00095FF08C06F
:1034C0008093D6008091D00080648093D0000895CE
:1034D0002091D0062F5F2F720FB607FC27C0909166
:1034E000D106921328C09091D00095FF1EC09091F4
:1034F000D1064091D006941306C09091D1009F7DD3
:103500009093D10012C0E92FF0E0E053F94F3281DF
:103510009F5F9F723093D6009093D1063091D00078
:1035200030643093D000491741F3D9CF9091D10640
:10353000921301C0FBCFE091D006F0E0E053F94FC9
:1035400082832093D0068091D10080628093D10045
:1035500008950F931F93CF93DF93EC01162F042F41
:103560008AE5A3DF85EAA1DF83E0800F9EDF812F5C
:103570009CDF8D2F9ADF8C2FDF91CF911F910F91C0
:1035800094CF40E355E760E070E08AE597E10C9462
:10359000169340E355E760E070E08AE597E10C940C
:1035A0001693FC014281442339F084819581009770
:1035B00019F050E00C945BEF0895CF93FB01C181AB
:1035C000C13031F40E94C191811104C0C093300711
:1035D000CF9108950E94B190F9CFCF93DF93EB0183
:1035E0000E94F59281110AC040E355E760E070E067
:1035F0008AE597E1DF91CF910C94169388819981A8
:1036000098278927982720912D072F3F29F02223DB
:10361000A9F0DF91CF9108958536910514F084E6E5
:1036200090E08530910514F485E090E090930E02CF
:1036300080930D0281E080933007EBCF863F9105A8
:1036400084F385EF90E0EDCFE9E0F7E081E2DF0180
:103650001D928A95E9F781E0809330070895CF9312
:10366000FB0180910607813029F050F1823019F179
:10367000CF91089560E070E080E89FE321812230DF
:1036800069F118F5222319F09058213089F7C0E02C
:1036900024E0C29FF0011124E25EF54F20813181C8
:1036A000428153810E9478EC4C2F0E9434C481E007
:1036B00080933007DDCF6DEC7CEC8CEC9DE3DECFAE
:1036C00060E070E080E291E4D9CF243021F028F06E
:1036D0009058253069F6C2E0DBCF9058C1E0D8CFD2
:1036E000CF93DF93EC01FB0160817181762767271F
:1036F0007627072E000C880B990B0E94AFE520E07F
:1037000030E040E251E40E9454ED288139812132B9
:10371000F0E23F0749F0223240E2340771F02032F4
:10372000304241F440E001C041E00E9434C481E0F5
:1037300080933007DF91CF91089542E0F6CF8F92CA
:103740009F92AF92BF92CF92DF92EF92FF92CF9370
:10375000DF93809167098770873091F040E355E7E8
:1037600060E070E083EB96E1DF91CF91FF90EF9006
:10377000DF90CF90BF90AF909F908F900C94169356
:10378000EB010E94F592811107C040E355E760E02C
:1037900070E08AE597E1E8CF8981833009F454C06D
:1037A000B8F4813009F466C0C12CD12C60EFE62E4C
:1037B00061E4F62E823009F45AC0DF91CF91FF9078
:1037C000EF90DF90CF90BF90AF909F908F90089533
:1037D000843009F446C0C12CD12C9BEEE92E93E431
:1037E000F92E812C912C20EFA22E21E4B22E8530CF
:1037F00021F720E030E040E850E46091260A709123
:10380000270A8091280A9091290A0E9478EC42E0C8
:103810000E9434C440E0C501B4010E9434C441E0B8
:10382000C701B6010E9434C442E060E070E0CB0101
:10383000DF91CF91FF90EF90DF90CF90BF90AF904E
:103840009F908F900C9434C4C12CD12C40EFE42E67
:1038500041E4F42E812C912C5BEEA52E53E4B52E81
:10386000C8CFC12CD12C3BEEE32E33E4F32E46011E
:103870005701BFCFC12CD12C8AE7E82E83E4F82E64
:10388000F6CFCF93DF93EB010E94F59281110AC02E
:1038900040E355E760E070E08AE597E1DF91CF9182
:1038A0000C941693809111028F5F8230E0F420E037
:1038B00030E04AE253E46091DA0C7091DB0C8091C5
:1038C000DC0C9091DD0C0E94A9E587FF07C040E366
:1038D00055E760E070E083EC96E1E0CF89818823D2
:1038E00029F0813039F1DF91CF91089560910B0279
:1038F00070910C0290E080E00E94ADE59B01AC016C
:1039000060912A0A70912B0A80912C0A90912D0ABD
:103910000E9477EC60932A0A70932B0A80932C0AFA
:1039200090932D0A60E070E080E090E4DF91CF9109
:103930000C94D98960910B0270910C0290E080E0A8
:103940000E94ADE520912A0A30912B0A40912C0A61
:1039500050912D0A0E9478ECDDCFCF93DF93EB01DD
:103960000E94F592811103C0DF91CF9112CE89811F
:1039700090910A02923029F09330C1F0DF91CF91FB
:103980000895882371F06DEC7CEC8CEC9DEB0E942B
:10399000D6C40E94D7C60E94079381E08093300767
:1039A000EDCF6DEC7CEC8CEC9DE3F1CF882329F01E
:1039B0006AE077ED83E29CEBEACF6AE077ED83E2A1
:1039C0009CE3E5CFCF93DF93EB010E94F592811149
:1039D00003C0DF91CF91D5CD6881798176276727A4
:1039E0007627072E000C880B990B0E94AFE520E08C
:1039F00030E048EC52E40E9454ED2091540D309197
:103A0000550D4091560D5091570D0E9477EC0E9434
:103A1000D6C40E94D7C60E94079381E080933007E6
:103A2000DF91CF910895FB018181882319F08130C6
:103A300079F008956AE077ED83E29CE30E94D6C4B2
:103A40000E94D7C60E94079381E0809330070895B3
:103A50006AE077ED83E29CEBF1CFFB01608171813D
:103A6000762767277627072E000C880B990B0E9474
:103A7000AFE520E030E048EC52E40E9454ED2091A4
:103A8000540D3091550D4091560D5091570D0E9497
:103A900077EC0E94D6C40E94D7C60E94079381E0AB
:103AA000809330070895FB018181813031F08230AD
:103AB00039F081E08093300708950E94C97CF9CFE6
:103AC0000E94A17CF6CFCF93FB01C181C13051F49C
:103AD0000E94A791811108C00E94C191811104C068
:103AE000C0933007CF910895CF910C94B190CF93AC
:103AF000FB01C181C13031F40E94A791811104C042
:103B0000C0933007CF91089544E856E16BE876E121
:103B100084E00E94F6BF89EB9CE20E9497BC80E89B
:103B200096E19093220980932109ECCF80910F02B6
:103B30009091100297FF08C040E355E760E070E005
:103B40008FE696E10C9416930E9457D4882381F057
:103B500080915E0B85FD0CC00E94F592811101C021
:103B600010CD85E799E00E94C4C783E08093640983
:103B70000895CF93DF93FB0181818130D1F040F034
:103B8000823019F181E080933007DF91CF91089561
:103B900080915E0B86FDF9CF10922C0710922B07B7
:103BA0008FEF9FEF9093100280930F020E948FC7B8
:103BB000E9CF80912B0790912C07009731F3019763
:103BC00090932C0780932B07DDCFC0912B07D091CA
:103BD0002C0726960E9409D48C179D07B0F280917D
:103BE0002B0790912C070196EBCF1F93CF93DF9378
:103BF000EC01FB011181888199818130904289F427
:103C000080915E0B84FD0BC040E355E760E070E0FF
:103C100085E496E1DF91CF911F910C9416930E9459
:103C200078C7888199818230904279F40E94A79167
:103C3000882339F040E355E760E070E08CE296E1DC
:103C4000E9CF0E94C1918111F5CF8881998183309C
:103C5000904231F010936409DF91CF911F91089544
:103C60000E94A7918111F6CF0E94C1918111F2CFDC
:103C700040E355E760E070E085E196E1CBCFEF925D
:103C8000FF920F931F93CF93DF93CDB7DEB7649767
:103C90000FB6F894DEBF0FBECDBF7C01FB01608183
:103CA0007181828193818E010F5F1F4F248141E0DA
:103CB0000E94D5E0F70101900020E9F79F01215013
:103CC00031092E193F092E31310550F44FE150E0F2
:103CD000421B530BBC01C701820F931F0E94F2E4E9
:103CE000C70164960FB6F894DEBF0FBECDBFDF915B
:103CF000CF911F910F91FF90EF9008950C9447BBC7
:103D0000682F70E090E080E00C9416BC8091510523
:103D100090915205009731F04AE050E070E060E089
:103D20000C9475E360E070E0CB010895809151053B
:103D300090915205009731F04AE050E070E060E069
:103D40000C9448E260E070E0CB010895EFDF97FD4E
:103D50000AC0ECDF6F3F71058105910509F02CF475
:103D6000E5DF862F089580E008958FEF0895CF93C3
:103D7000C62F11DB882311F0CF91E8CF8C2FCF9184
:103D800008958091510590915205892B39F0DEDF1D
:103D900091E0811101C090E0892F089591E0FCCF5E
:103DA000CF93DF93C82FD62FF6DA882319F0DF914F
:103DB000CF91E7CF8C2FA1DA811101C08D2FDF9138
:103DC000CF910895B3DFCB010895CF93DF93EB013B
:103DD000E2DA882319F0DF91CF91F4CFCE01DF91A1
:103DE000CF9108950F931F93CF9380915105909198
:103DF0005205009709F1FC018F01C1912C2F2F7DF5
:103E0000A1F0C53431F0C53621F0C83511F0C837FE
:103E100099F7F801108270E060E00E94F2E0F8018A
:103E2000C083CF911F910F91089570E060E0CF9112
:103E30001F910F910C94F2E060E070E0CB01F1CFA4
:103E4000CF92DF92EF92FF926A017B01A4DA88237E
:103E500029F0FF90EF90DF90CF90C4CFC701B6015B
:103E6000FF90EF90DF90CF9008954F925F926F9206
:103E70007F92AF92BF92CF92DF92EF92FF920F9319
:103E80001F93CF93DF9380E1A82E84E0B82E0EE13C
:103E90001AE0C1E3D7E092E1C92E9AE0D92EF12CC5
:103EA000F50181915F0177DA882339F09BDF2B01DF
:103EB0003C018091BF09882351F0F80180819181F4
:103EC000A281B38188839983AA83BB8312C08F2D7B
:103ED000B4D9882309F463C0F8012081318142817B
:103EE0005381C301B2010E9478EC688379838A838D
:103EF0009B83F3940C5F1F4F2496F4E0CF0ED11CEC
:103F000083E0F812CDCF85E446DA882309F451C066
:103F100069DF6B017C0183E090D9882371F02091E7
:103F20002A0A30912B0A40912C0A50912D0AC70180
:103F3000B6010E9478EC6B017C01C0923D07D092E3
:103F40003E07E0923F07F092400740E050E0BA01A0
:103F500086E476DF20E030E0A9010E949FEE18168B
:103F60007CF440DF20E030E040E752E40E9454ED72
:103F700060931402709315028093160290931702B7
:103F8000DF91CF911F910F91FF90EF90DF90CF9035
:103F9000BF90AF907F906F905F904F900895F60123
:103FA0002081318142815381C301B2010E9477ECAB
:103FB0009CCF80912A0A90912B0AA0912C0AB09153
:103FC0002D0A80933D0790933E07A0933F07B0933F
:103FD0004007BBCF80916309833018F046DF0C9413
:103FE00001A80895EF92FF920F931F93CF93DF9351
:103FF000CDB7DEB7A4970FB6F894DEBF0FBECDBF26
:10400000F82E8093C1098FE18F1508F489C0809143
:10401000C009F81624F081E08F0D8093C00981E07B
:1040200090E00F2C02C0880F991F0A94E2F7092E26
:10403000000CAA0BBB0B4091C2095091C3096091BF
:10404000C4097091C50984239523A623B72321E0D1
:10405000892B8A2B8B2B09F420E02093BF09F7FCD6
:1040600062C04FE150E06EE375E08E010F5F1F4FBD
:10407000C8010E94A3E4F80101900020E9F7CF01F4
:104080000197801B910B8E31910560F420E2F801BD
:10409000E80FF91F20838D31910521F08C0F9D1FB2
:1040A000FC0112828F2D0F2C000C990B9F93FF9215
:1040B00081EE94E09F938F937E01F0E2EF0EF11C6E
:1040C000FF92EF920E94A9EFF80101900020E9F71A
:1040D000CF010197801B910B0F900F900F900F90C5
:1040E0000F900F908E31910548F44FE150E0481B3E
:1040F000590BB701800F911F0E94F2E440E060E08D
:10410000C8010E94D990A4960FB6F894DEBF0FBEE6
:10411000CDBFDF91CF911F910F91FF90EF90089548
:104120001092BF099CCF0E9470BFEDCFAF92BF929B
:10413000CF92DF92EF92FF920F931F93CF935C0188
:104140006B018A0187509B4F7C01DC01CC91C7FF3A
:104150003DC0FB0111821082CF5FD701CC93CC30E0
:104160000CF053C08CE08A9DF0018B9DF00D112462
:10417000CF018C0F911DC7FD9A952091480D2817EE
:10418000190609F00CF441C0F60120813181FC01CF
:10419000EE0FFF1FE80FF91FE050F34F818192816E
:1041A000820F931FD80111969C938E93808187FF75
:1041B0003DC061E08F77CF911F910F91FF90EF90FD
:1041C000DF90CF90BF90AF900C9432C58CE08A9D69
:1041D000F0018B9DF00D1124CF018C0F911DC7FDB7
:1041E0009A952091480D2817190609F00CF4B4CFC0
:1041F000FC01EE0FFF1FE80FF91FE050F34F808125
:1042000060E08F770E9432C5A7CFF601808191814F
:1042100004968034FCE99F0710F480E49CE9D801FF
:1042200011969C938E938FEFF7018083CF911F910E
:104230000F91FF90EF90DF90CF90BF90AF900895D7
:10424000AF92BF92CF92DF92EF920F931F93CF93D3
:104250005B01C42F122F62E87CD9C5010E94B7E42C
:104260006C018C2F90E0C816D90620F5C114D1043A
:1042700031F1CC19112379F0011110C010E000E0E8
:104280000C151D05E1F0F501E00FF11F84910DD92A
:104290000F5F1F4FF5CF10E0011107C08C199D096A
:1042A000969587951C2F181BC82FC15030F080E2BF
:1042B000FCD8FBCF6C01C0E0E1CFC12FDFCF10E213
:1042C000E11001C010E0C15018F0812FEED8FBCFF3
:1042D000CF911F910F91EF90DF90CF90BF90AF9053
:1042E0000895AF92BF92CF92DF92EF920F931F93F8
:1042F000CF935B01C42F122F62E82BD9F5010190F7
:104300000020E9F731976F01CA18DB088C2F90E085
:10431000C816D90608F5C114D10419F1CC19112316
:1043200061F001110DC0CA0CDB1CCA14DB04C9F01A
:10433000F50181915F01B9D8F8CF10E0011107C0F4
:104340008C199D09969587951C2F181BC82FC15055
:1043500030F080E2AAD8FBCF6C01C0E0E4CFC12FDF
:10436000E2CF10E2E11001C010E0C15018F0812F3F
:104370009CD8FBCFCF911F910F91EF90DF90CF9002
:10438000BF90AF900895FF920F931F93CF93DF9349
:10439000F62E072F142F62E8DCD8CF2DD02F115026
:1043A00018F0899182D8FBCFDF91CF911F910F91A7
:1043B000FF90089527E332E1F901459154914115A9
:1043C000510571F04817590741F4CB014AE050E01C
:1043D000B9010E947DE481E00895265F3F4F61F7B7
:1043E00080E00895CF93DF931F921F92CDB7DEB781
:1043F000853608F084E6682F70E090E080E00E9447
:10440000AFE520E030E04FE753E40E940EE620E005
:1044100030E048EC52E40E9454ED20E030E0A90185
:104420000E9478EC0E94ABEE6093E5031A82198239
:10443000698342E0BE016F5F7F4F81EA90E0A3DFB6
:104440000F900F90DF91CF910895FB018181CADF1A
:104450000C940793CF93DF931F921F92CDB7DEB7D3
:10446000853608F084E680932002682F70E090E0A3
:1044700080E00E94ADE520E030E04EEB52E40E9487
:104480000EE620E030E048EC52E40E9454ED20E0DB
:1044900030E040EA50E40E9478EC0E94ABEE698381
:1044A0006A8342E0BE016F5F7F4F82E890E06BDF7E
:1044B0000F900F90DF91CF910895FB018181CADFAA
:1044C0000C9407936091E50370E090E080E00E9417
:1044D000ADE520E030E048EC52E40E940EE620E03A
:1044E00030E04FE753E40E9454ED20E030E0A901B2
:1044F0000E9478EC0E94ABEE862F08958091080709
:10450000882321F080910707811108C041E063E80A
:104510008FE090E01ED881E00C94551A0895E0EDEC
:10452000F0E010828081826080831092D50080E16B
:104530008093D400E1EDF0E0808180618083808110
:104540008860808380818068808380818F7D808384
:1045500010924D06D3DF61E080E00C949892CF93E7
:10456000DF93C091E207D091E307209729F1609192
:10457000DE077091DF078091E0079091E1070E94CC
:10458000BCED6E5F7F4F24976C177D07ACF4709382
:10459000CA076093C9070E9458C6605A75418F4F79
:1045A0009F4F6093CB077093CC078093CD07909378
:1045B000CE07DF91CF9108951092CB071092CC07D0
:1045C0001092CD071092CE07F4CF2F923F924F92C8
:1045D0005F926F927F928F929F92AF92BF92CF9293
:1045E000DF92EF92FF920F931F93CF93DF93D62F1B
:1045F000C72FFC0180809180A280B380C501B401E7
:1046000020E831E541E050E00E94D3EBC9016DE6BE
:1046100071E00E9436EC6B017C01C501B40120E120
:104620003EE040E050E00E94D3EBCA01B90128E12E
:1046300030E040E050E00E94D3EB362E272E062FCC
:10464000172F8CE3482E512C612C712CC501B4011D
:10465000A30192010E94D3EBB62EA72ECA01B90185
:10466000A30192010E94D3EBCB01C114D10479F1D3
:10467000AF92BF927F936F932F923F92FF92EF92F0
:10468000DF92CF9283E79FE09F938F93CF93DF9347
:104690000E9442E58DB79EB70E960FB6F8949EBF66
:1046A0000FBE8DBF8D2F9C2FDF91CF911F910F914A
:1046B000FF90EF90DF90CF90BF90AF909F908F9042
:1046C0007F906F905F904F903F902F900895E114EE
:1046D000F104C9F0AF92BF927F936F932F923F92F4
:1046E000FF92EF9283E69FE09F938F93CF93DF93A8
:1046F0000E9442E5EDB7FEB73C960FB6F894FEBFB8
:104700000FBEEDBFCFCF012BB9F0AF92BF927F9319
:104710006F932F923F9287E59FE09F938F93CF9364
:10472000DF930E9442E58DB79EB70A960FB6F894C4
:104730009EBF0FBE8DBFB6CF892BA9F0AF92BF929F
:104740007F936F938FE49FE09F938F93CF93DF933B
:104750000E9442E5EDB7FEB738960FB6F894FEBF5B
:104760000FBEEDBF9FCFAF92BF928BE49FE09F93B0
:104770008F93CF93DF930E9442E50F900F900F909D
:104780000F900F900F908ECF8F929F92AF92BF920B
:10479000CF92DF92EF92FF920F931F93CF93DF930D
:1047A00010927605109275052FE3209379051092EB
:1047B00078051092770510924806109249061092DB
:1047C0004A0610924B069C01F90190812F5F3F4FE2
:1047D0009032D1F39E34C9F4818190ED980F9A30D4
:1047E00020F08D3211F08B3281F432969F012F5FD1
:1047F0003F4F808180538A3008F46BC09F012F5F48
:104800003F4F8081803209F466C0F0937409E093D1
:1048100073098F010F5F1F4FC0816AE270E0C8010A
:104820000E947EEF009731F0FC0131978081803249
:10483000E1F31182CD3421F0C43511F0C734E1F534
:10484000F80180810F5F1F4F8032D1F380538A308F
:1048500098F5C093790530E020E06AE0AF014F5F42
:104860005F4F629FC001639F900D11249C012053F4
:1048700031098081280F311D87FD3A95FA01808129
:1048800080538A3058F33093780520937705DF0101
:1048900031968C918032D9F3CD3449F52E313105E2
:1048A00039F0D8F42731310519F02C313105F9F4FC
:1048B000B0937605A0937505DF91CF911F910F916D
:1048C000FF90EF90DF90CF90BF90AF909F908F9030
:1048D0000895F9018BCFF90191CF2537310538F0D3
:1048E0002737310528F3203A83E0380709F3D091C0
:1048F000730940E050E0BA0110E000E0C12CD12C77
:104900007601C394FD0131968C91882309F47FC010
:104910008132E1F4CD34D1F420323105B9F4409341
:1049200048065093490660934A0670934B06F093ED
:104930007605E093750563E270E0CF010E947EEF9B
:10494000009709F4B9CFFC011082B6CF81548A31A7
:1049500008F058C0DF019D91903291F0A0EDA90FB1
:10496000AA30E8F09E3271F4918190539A30B8F0F9
:104970000115110519F48F010150110990E013C0C0
:10498000FD01E8CF9D3211F09B3291F79181A0EDAE
:10499000A90FAA3020F09E3259F79281E6CF9E2FC0
:1049A0009D1B309759F3A82FB0E04601570104C072
:1049B000880C991CAA1CBB1C8A95D2F74829592936
:1049C0006A297B29A55ABA4F9C9380818154DF01C3
:1049D0008A3108F497CFDF018191882309F492CFBF
:1049E00090ED980F9A30B8F393ED980F923098F3BA
:1049F0008B3289F3CD010196EC91E03209F082CF40
:104A0000DC01F8CF0115110501F78D01DECF109300
:104A100076050093750540934806509349066093C8
:104A20004A0670934B0648CFCF93DF93EC018991F0
:104A3000882319F00E9447BBFACF8DE00E9447BB44
:104A40008AE0DF91CF910C9447BB0C9416BC9091F7
:104A50006809992321F0682F80E00E94E18C80E0B2
:104A60000895CF93DF93C091DE0CD091DF0C209797
:104A700029F16091DA0C7091DB0C8091DC0C909143
:104A8000DD0C0E94BCED6E5F7F4F24976C177D0795
:104A9000ACF47093EF076093EE070E9458C6605C19
:104AA00073468F4F9F4F6093F0077093F107809389
:104AB000F2079093F307DF91CF9108951092F007DA
:104AC0001092F1071092F2071092F307F4CFCF93F0
:104AD000DF93EC018991882319F00E9447BBFACF3C
:104AE000DF91CF910895CF93C1E020E030E0A9019C
:104AF00060914E0770914F07809150079091510738
:104B00000E94A9E5811101C0C0E08C2FCF910895CA
:104B1000CF93C82F882319F0E6DF8823C9F080914E
:104B20008B098C17A9F00E94F37D8EE19AE00E9418
:104B3000E87F80918B0991E0892780938B098823F6
:104B400021F08EE19AE00E94D07CCF910C94348BBE
:104B5000CF9108950E94F592811102C00C94C11A60
:104B600080E0D6DF0E94079381E0809330070895AC
:104B70004F925F926F927F928F929F92AF92BF926D
:104B8000CF92DF92EF92FF920F931F93CF93DF9319
:104B9000EC0120914607309147074091480750911A
:104BA0004907688179818A819B810E9477EC6B013A
:104BB0007C0120914A0730914B0740914C0750915E
:104BC0004D076C817D818E819F810E9477EC4B0126
:104BD0005C01A70196016091390570913A058091B9
:104BE0003B0590913C050E94A9E5882309F45AC031
:104BF000C0923905D0923A05E0923B05F0923C050F
:104C000020913105309132054091330550913405A2
:104C1000C701B6010E940EE62B013C010E94EDED9A
:104C20006B017C0120E030E0A9010E94A9E587FD2D
:104C30007AC020E030E040E850E4C701B6010E94AD
:104C40009FEE181634F4C12CD12CC0E8EC2EC0E431
:104C5000FC2EA7019601C301B2010E9477EC2B0143
:104C60003C0120E030E0A9010E94A9E587FD5FC07A
:104C70004092290550922A0560922B0570922C05CE
:104C8000C701B6010E94BCED60932705062E000CFB
:104C9000770B6F5F7F4F6430710514F064E070E054
:104CA00060932505D091230510912705A501940156
:104CB00060913D0570913E0580913F0590914005C2
:104CC0000E94A9E581113CC0D11394C020910B052D
:104CD00030910C0540910D0550910E05609129050C
:104CE00070912A0580912B0590912C050E940EE66B
:104CF00020910F053091100540911105509112053A
:104D00000E9478ECDF91CF911F910F91FF90EF906F
:104D1000DF90CF90BF90AF909F908F907F906F90DB
:104D20005F904F900895C12CD12C760192CF1092B4
:104D3000290510922A0510922B0510922C05A0CF60
:104D400080923D0590923E05A0923F05B0924005AD
:104D50002091350530913605409137055091380541
:104D6000C501B4010E940EE64B015C010E94EDED0D
:104D70006B017C0120E030E0A9010E94A9E587FDDC
:104D8000FDC020E030E040E850E4C701B6010E94D9
:104D90009FEE181634F4C12CD12CB0E8EB2EB0E401
:104DA000FB2EA7019601C501B4010E9477EC4B01CF
:104DB0005C0120E030E0A9010E94A9E587FDE2C086
:104DC00080922D0590922E05A0922F05B09230056D
:104DD000C701B6010E94BCED60932805062E000CA9
:104DE000770B6F5F7F4F6430710514F064E070E003
:104DF00060932605C0912805D11305C08091240534
:104E00008C1709F470C08091270590912805909324
:104E10002405809323050C2E000CDD0B25E01203E6
:104E2000C0011124FC01EC0FFD1FEE0FFF1FEE0F60
:104E3000FF1FEA5AF84F208131814281538120932C
:104E40001F053093200540932105509322050091C2
:104E50002605002E000C110BFC01E00FF11FEE0FD8
:104E6000FF1FEE0FFF1FEA5AF84F608171818281A8
:104E700093810E9477EC60931B0570931C058093CF
:104E80001D0590931E052091250535E02303F001B3
:104E90001124CE0FDF1FCC0FDD1FCC0FDD1FCA5A30
:104EA000D84F288139814A815B812093170530933F
:104EB00018054093190550931A05E00FF11FEE0FE6
:104EC000FF1FEE0FFF1FEA5AF84F60817181828148
:104ED00093810E9477EC609313057093140580937F
:104EE00015059093160580902D0590902E05A090A5
:104EF0002F05B090300520911B0530911C05409185
:104F00001D0550911E05C501B4010E940EE62091B9
:104F10001F053091200540912105509122050E94E6
:104F200078EC6B017C01C0920F05D0921005E092E5
:104F30001105F0921205209113053091140540914E
:104F4000150550911605C501B4010E940EE6209189
:104F50001705309118054091190550911A050E94C6
:104F600078ECA70196010E9477EC60930B05709393
:104F70000C0580930D0590930E05A8CEC12CD12C65
:104F800076010FCF10922D0510922E0510922F054D
:104F9000109230051DCFE9E3F5E080EF9FEFA9E720
:104FA000B4EC84839583A683B78380839183A283A3
:104FB000B383E3E2F5E08DE98183808308958F92E6
:104FC0009F92AF92BF92CF92DF92EF92FF92FC013D
:104FD00098E0AEE4B7E001900D929A95E1F788E091
:104FE000FB01A6E4B7E001900D928A95E1F7C0902D
:104FF0004E07D0904F07E0905007F090510720E007
:1050000030E0A901C701B6010E94A9E58823E1F1BA
:10501000A701960160E070E080E89FE30E9454EDF4
:105020006B017C018090520790905307A090540729
:10503000B090550720E030E0A901C501B4010E94FD
:10504000A9E5882329F1A501940160E070E080E8DA
:105050009FE30E9454EDC0923105D0923205E09258
:105060003305F092340560933505709336058093CF
:10507000370590933805FF90EF90DF90CF90BF9069
:10508000AF909F908F900895C12CD12C7601CACFFC
:1050900060E070E0CB01DFCF8F929F92AF92BF9222
:1050A000EF92FF920F931F93CF93DF9310924A07D3
:1050B00010924B0710924C0710924D071092460722
:1050C0001092470710924807109249071092520712
:1050D00010925307109254071092550710924E07E2
:1050E00010924F07109250071092510706E517E0F3
:1050F000C0E0812C912C80ECA82E8FE7B82E78018F
:10510000D0E0F70181929192A192B1927F016D2F2F
:105110008C2F0E946698DF5FD53099F7CF5F0C5EC9
:105120001F4FC53061F7DF91CF911F910F91FF9015
:10513000EF90BF90AF909F908F900895EFE6F0E0D2
:10514000808182608083089580916D0990916E09BD
:10515000892B79F480916D0990916E09892B49F41E
:1051600020916D0930916E0981E0232B19F480E0C4
:10517000089581E00895CF93DF93EC01FE018491BF
:105180002196882319F00E947E1EF8CFDF91CF91DF
:105190000895CF93DF93EB01EEDFCE01DF91CF9146
:1051A00096CCCF92DF92EF92FF926A017B01E3DF10
:1051B00042E0C701B601FF90EF90DF90CF900C94D2
:1051C000AABC8EE195E0D7CF88E195E0D4CF8AE004
:1051D0000C947E1E0F931F93CF938C01C62F8DE0EE
:1051E0009CE0C9DFC801C7DF8AE30E9447BB80E3B8
:1051F0008C0F0E947E1ECF911F910F91E8CFCF930D
:1052000089E09EE0B8DFE3DFE0915B0282E6E89FA1
:10521000F0011124E254FD4FC08160E089EF9DE070
:10522000D9DF60E084EE9DE0D5DF61E08DED9DE0AB
:10523000D1DF61E082ED9DE0CDDF60E083EC9DE0B9
:10524000C9DF61E083EB9DE0C5DF60E08AEA9DE0B5
:10525000C1DF61E080EA9DE0BDDF61E086E99DE0BD
:10526000B9DF61E08FE89DE0B5DF61E087E89DE0B0
:10527000B1DF61E089E79DE0ADDF60E08BE69DE0B6
:10528000A9DF60E08CE59DE0A5DF60E08EE49DE0B5
:10529000A1DF60E088E39DE09DDF60E087E29DE0C4
:1052A00099DF61E082E19DE095DF61E083E09DE0D0
:1052B00091DF61E08CEF9CE08DDF60E08FEE9CE0A1
:1052C00089DF60E088EE9CE085DF61E08FED9CE0A7
:1052D00081DF60E08AEC9CE07DDF60E08CEB9CE0AD
:1052E00079DF60E082EB9CE075DF60E08BE99CE0B9
:1052F00071DF60E08EE89CE06DDF61E08BE79CE0B1
:1053000069DF60E08EE69CE065DF61E089E69CE0B5
:1053100061DF61E08CE59CE05DDF60E080E59CE0C2
:1053200059DF60E08CE39CE055DF60E089E29CE0BF
:1053300051DFC7FD1AC060E08091A1129091A212C6
:10534000CC2339F0C13089F461E08091A3129091AF
:10535000A4120E941A19682F617080E29CE03ADF63
:1053600060E082E19CE0CF9135CF80E0F4CFCF9236
:10537000DF92EF92FF926A017B01FDDEC701B60169
:105380000E947EBCFF90EF90DF90CF9020CF0F93D4
:105390001F93CF93883038F5082F082E000C110B7F
:1053A000C091A01291E001C0990F8A95EAF79093FD
:1053B000A0120E949BBC87E6809FF001819FF00DA8
:1053C0001124E658FA4F40815181628173814F5F09
:1053D0005F4F6F4F7F4F82E49FE0C9DF8EE39FE016
:1053E000CADEC093A012CF911F910F910895EF9242
:1053F000FF920F931F93CF93DF937C01C62F062F4D
:10540000062E000C110B80E0683028F481E001C00A
:10541000880F6A95EAF7D091A0128093A012D1DE8E
:1054200087E6809FF001819FF00D1124E658FA4F26
:105430004081518162817381C70199DF8C2F0E9465
:105440009B180196D9F78C2FA2DF87E6809FF00189
:10545000819FF00D1124E658FA4F15821482D093E3
:10546000A012DF91CF911F910F91FF90EF900895BF
:10547000CF92DF92EF92FF926A017B017CDE42E0E5
:10548000C701B6010E94AABCFF90EF90DF90CF90B9
:105490009ECE0F931F93CF93DF938C01D62FC09195
:1054A000A0128FEF8093A01288E495E064DEC8011B
:1054B00062DED1118CDEC093A012DF91CF911F91DB
:1054C0000F9108950F931F93CF93DF938C01D62FE5
:1054D000C091A0128FEF8093A01260E08EE695E05D
:1054E000D8DFC80148DED11172DEC093A012DF916F
:1054F000CF911F910F910895EF92FF921F93CF9339
:10550000DF937C0160E085E895E0DCDFC0EAD2E172
:1055100018818FEF888380E20E947E1EC7012BDEF8
:1055200056DE1883DF91CF911F91FF90EF90089581
:1055300061E080E895E0C6CF61E08CE795E0C2CFFE
:105540000F931F93CF93DF93D82F8B01C42FF4DFDA
:10555000D0936F0960E086E795E0B4DFD091A012A8
:105560008FEF8093A01280E20E947E1EC80103DEAE
:10557000CC2319F08C2F0E947E1E29DED093A0121E
:10558000DF91CF911F910F91089540E0BC0182E01F
:10559000D7DF80E598E0B0DFCBCFEF92FF921F938B
:1055A000CF93DF937C01C0EAD2E118818FEF88832B
:1055B00060E080E695E06DDFC701DDDD08DE188381
:1055C000DF91CF911F91FF90EF9008952F923F921E
:1055D0004F925F926F927F928F929F92AF92BF9203
:1055E000CF92DF92EF92FF920F931F93CF93DF93AF
:1055F000CDB7DEB7C454D1090FB6F894DEBF0FBEE5
:10560000CDBF70E060E085E40E94E51E811166C0B8
:1056100083E40E94CB1981118CC025E02BA783E580
:105620000E94CB19882309F488C00E94E21E2296AA
:105630009FAF8EAF229760E085E50E94D01E8BAFB2
:1056400085E092E10E9497BC0E9458C66B877C87D8
:105650008D879E8740E355E760E070E08AE490E143
:105660000E94169360E083E00E945CBB22968EADA0
:105670009FAD2297863F91050CF466C088EF91E1BB
:105680007ADD89ED91E177DD40E355E760E070E098
:1056900084E090E10E94169360E083E00E945CBB8E
:1056A00082EB91E17ADFCC5BDF4F0FB6F894DEBF7F
:1056B0000FBECDBFDF91CF911F910F91FF90EF9063
:1056C000DF90CF90BF90AF909F908F907F906F9022
:1056D0005F904F903F902F900C9470BF8AE292E1C0
:1056E0004ADD82E192E147DD40E355E760E070E0AA
:1056F0008BE290E10E94169360E083E0CC5BDF4F89
:105700000FB6F894DEBF0FBECDBFDF91CF911F91D2
:105710000F91FF90EF90DF90CF90BF90AF909F9050
:105720008F907F906F905F904F903F902F900C9450
:105730005CBB0E94E21E8BA772CF44EB50E0229626
:105740005FAF4EAF229777CF2296AEADBFAD229717
:10575000BD01BB0F880B990B0E94AFE56B8B7C8B57
:105760008D8B9E8B2B853C854D855E85205C3346DD
:105770004F4F5F4F2DAB3EAB4FAB58AF85EA91E13A
:10578000FADC8DE991E1F7DC0E94EA7A8FE78093F9
:10579000E00C82E991E10E9497BC81E080932009AE
:1057A0008B849C84AD84BE848CA69DA6AEA6BFA629
:1057B0001AA21BA21CA21DA21E8E1F8E18A219A225
:1057C00019821A821B821C828FE790E0A0E0B0E071
:1057D0008F87988BA98BBA8B1F8290E49F8BACE14B
:1057E000A88FB6E4B98F1A8E1B8E1C8E1D8EFFE714
:1057F000CF2ED12CE12CF12C18AA19AA1AAA1BAA77
:105800001CAA1FA218A619A61AA621E02EA31E8262
:105810001D82212C312C00E010E04BA5042E000C41
:10582000550B5AAF49AF22968EAD9FAD22974E963B
:105830009C01990F440B550B2CAF3DAF4EAF5FAFA2
:1058400022964EAD5FAD22974E515109CA01092EE5
:10585000000CAA0BBB0B24968CAF9DAFAEAFBFAFB5
:10586000249780912009882309F49EC00E9458C67D
:105870002B013C019091D90725969FAF259799233D
:1058800021F00E9462A41092D90780914C068111E8
:1058900007C0A1E0A0934C060E940F9910924C06FD
:1058A0002596BFAD2597BB2309F45DC02090DA0C87
:1058B0003090DB0C0091DC0C1091DD0C2A8D3B8DBF
:1058C0004C8D5D8DB101C8010E949FEE181624F425
:1058D0002A8E3B8E0C8F1D8F2F813F89488D598DCD
:1058E000B101C8010E94A9E587FF04C02F823F8A49
:1058F000088F198F2EA1222309F494C19101A801C8
:105900006B897C898D899E890E94A9E587FF2BC0C0
:10591000B301A201481959096A097B09483833E1E2
:10592000530761057105F8F08F859889A989BA89AF
:105930008C199D09AE09BF09B595A79597958795CF
:105940008093E00C4FA358A769A77AA74B894A8F89
:105950005C895B8F8D898C8F9E899D8F4B865C8641
:105960006D867E861EA26CAD7DAD8EAD9FAD0E9414
:10597000AFE59101A8010E94A9E587FF33C089E244
:1059800091E1F9DB8AE091E1F6DB40E355E760E085
:1059900070E084E090E10E94169360E083E00E9452
:1059A0005CBB82EB91E1F9DD109220090E94EA7A5A
:1059B0002CC14BEEC42ED12CE12CF12C89C184E1F9
:1059C00090E0A0E0B0E08F87988BA98BBA8B34E190
:1059D000C32ED12CE12CF12C89C1CF86D88AE98A3B
:1059E000FA8A84C18CA59DA5AEA5BFA58419950989
:1059F000A609B709181619061A061B060CF444C0A6
:105A000080E00E9412A0E3DBD301C2018053984FD3
:105A1000AF4FBF4F8CA79DA7AEA7BFA798A9911165
:105A200077C029A93AA94BA95CA9B101C8010E9474
:105A30009FEE18160CF056C020E030E040E050E435
:105A4000B101C8010E9478EC69AB7AAB8BAB9CAB1F
:105A5000A3019201205C33464F4F5F4F2DAB3EAB0D
:105A60004FAB58AF20E030E040EC50E46B897C89CC
:105A70008D899E890E9477EC9101A8010E94A9E579
:105A8000881F8827881F88AB8B859C85AD85BE8540
:105A900088169906AA06BB0610F4D501C401481A57
:105AA000590A6A0A7B0A31E843163FE4530632E199
:105AB0006306710408F441C040E355E760E070E01C
:105AC0008AEE9FE00E94169360E083E00E945CBB38
:105AD00080EF90E162DD83EE90E14DDB81ED90E1BE
