:100000000C94C8180C9408190C9408190C9408192D
:100010000C9408190C9408190C9408190C940819DC
:100020000C9408190C9408190C9408190C940819CC
:100030000C9408190C9408190C9408190C940819BC
:100040000C9408190C9469810C9408190C940819E3
:100050000C9408190C9460800C9408190C94F5D138
:100060000C9408190C940B4F0C94F74E0C9408192F
:100070000C9408190C9408190C9408190C9408197C
:100080000C948E4D0C9408190C9408190C940819B2
:100090000C94CD4E0C94014F0C9408190C94081933
:1000A0000C9408190C9408190C94604D0C940819C0
:1000B0000C9408190C9408190C9408190C9408193C
:1000C0000C9408190C9408190C9408190C94A34E5C
:1000D0000C946D4E0C9408190C9408190C94081982
:1000E0000C940819084AD73B3BCE016E84BCBFFD77
:1000F000C12F3D6C74319ABD56833DDA3D00C77FF8
:1001000011BED9E4BB4C3E916BAAAABE0000008090
:100110003F05A84CCDB2D44EB93836A9020C50B91F
:10012000918688083CA6AAAA2ABE000000803F004B
:100130004E414E494E495459494E46CDCCCC3D0ACC
:10014000D7233C17B7D13877CC2B329595E6241FAF
:10015000B14F0A000020410000C84200401C462068
:10016000BCBE4CCA1B0E5AAEC59D7400407A10F33B
:100170005A00A0724E18090010A5D4E80000E876D5
:1001800048170000E40B54020000CA9A3B0000002C
:10019000E1F505000080969800000040420F000045
:1001A00000A08601000000102700000000E8030006
:1001B0000000006400000000000A000000000001D0
:1001C00000000000002C76D888DC674F0823DFC1D0
:1001D000DFAE59E1B1B796E5E3E453C63AE651998B
:1001E0007696E8E6C28426EB898C9B62ED407C6FB4
:1001F000FCEFBC9C9F40F2BAA56FA5F490055A2A6B
:10020000F75C936B6CF9676DC11BFCE0E40D47FE76
:10021000F520E6B500D0ED902E030094357705006B
:1002200080841E080000204E0A000000C80C3333F2
:1002300033330F986E12831141EF8D2114893BE601
:100240005516CFFEE6DB18D1844B381BF77C1D908A
:100250001DA4BBE424203284725E228100C9F124F3
:10026000ECA1E53D27434F4D4D554E49434154497F
:100270004F4E0044525952554E004552524F525320
:1002800000494E464F004543484F00322E312E78EC
:10029000202876322E302E36290057616E68616F25
:1002A000204439204D4B31753220333030005354C7
:1002B0004F505045442E20005072696E7465722074
:1002C00073746F707065642064756520746F206549
:1002D00072726F72732E204669782074686520658B
:1002E00072726F7220616E6420757365204D3939AA
:1002F0003920746F20726573746172742E202854D3
:10030000656D7065726174757265206973207265C0
:100310007365742E2053657420697420616674655A
:10032000722072657374617274696E67290A004E77
:100330006F20436865636B73756D207769746820FF
:100340006C696E65206E756D6265722C204C6173F0
:1003500074204C696E653A20004E6F2043686563D7
:100360006B73756D2077697468206C696E65206E9B
:10037000756D6265722C204C617374204C696E65DA
:100380003A2000636865636B73756D206D69736DEA
:10039000617463682C204C617374204C696E653AFB
:1003A00020004C696E65204E756D62657220697320
:1003B000206E6F74204C617374204C696E65204E02
:1003C000756D6265722B312C204C617374204C6901
:1003D0006E653A20004D3131300053657269616CB1
:1003E00020737461747573206D69736D61746368D3
:1003F0000A0053442072656164206572726F720A4C
:1004000000746F6F206D75636820696E6163746935
:1004100076652074696D65202D2063757272656E36
:100420007420636F6D6D616E643A20002121204B52
:10043000494C4C20636175736564206279200062C9
:100440007573793A2070617573656420666F7220E8
:10045000696E7075740A00627573793A20706175FF
:1004600073656420666F7220757365720A00627529
:1004700073793A2070726F63657373696E670A00EF
:100480005344204361726420726561642065727216
:100490006F72004D31303030530046696C616D65CC
:1004A0006E742072756E6F757420452564004D362C
:1004B0003030002066696C616D656E745F72756EB8
:1004C0006F7574200066696C616D656E745F72751E
:1004D0006E6F757420540046696C616D656E745260
:1004E000756E6F7574205400506C65617365205291
:1004F0006573657400706F7765726F6666004B494F
:100500004C4C45442E20005072696E746572206810
:10051000616C7465642E206B696C6C2829206361A2
:100520006C6C6564210A006563686F3A00457272FD
:100530006F723A0042696C696E656172204C657633
:10054000656C696E6720477269643A0A0050726987
:100550006E74204F626A002F2F616374696F6E3A68
:10056000006E6F74696669636174696F6E20006EF6
:100570006F74696669636174696F6E200070726F71
:100580006D70745F00626567696E00656E6400730C
:10059000686F7700627574746F6E00486F74656E73
:1005A0006420746F6F20636F6C640A004D323453A3
:1005B000004D323320004739322E3945004731464D
:1005C000004731463630305A0047314633303030FC
:1005D00058004D31303650004D31303953004D32D6
:1005E000303044004739322E395A004D34323053BE
:1005F0000047323852305859004731463630305A69
:10060000004739322E395A004739322E39453000E9
:100610004D31303953004D31393053004D34323083
:100620005330004F46460A004661646520486569BC
:100630006768742000426564204C6576656C696E5D
:100640006720004661696C656420746F20656E6187
:10065000626C6520426564204C6576656C696E67E6
:100660000A00496E76616C6964206D6573682E0AB4
:10067000004731205A31302046313230300A47317C
:100680002058313530205931353020463630303021
:100690000050726F62696E6720506F696E7400253A
:1006A000532025692F2569002E0A002F0050726FF4
:1006B00062696E67206D65736820706F696E742063
:1006C00000202844525952554E29004732392041C2
:1006D00075746F20426564204C6576656C696E6741
:1006E000003F20284C2C522C462C4229206F757438
:1006F000206F6620626F756E64732E0A0020756E1F
:100700006974732F6D696E290A003F4665656472CE
:100710006174652028532920746F6F206C6F772EC9
:1007200020285573696E6720003F2856296572623C
:100730006F7365206C6576656C20696D706C617592
:100740007369626C652028302D34292E0A004261BD
:1007500064205A2076616C75650A004E6F206269CC
:100760006C696E65617220677269640A00204400DA
:1007700020204D32303020530020284469736162BC
:100780006C6564293A0046696C616D656E7420730E
:10079000657474696E67730020204D3230312058C3
:1007A000004D617820416363656C65726174696FA7
:1007B0006E2028756E6974732F7332290020204DC6
:1007C0003230332058004D6178206665656472616F
:1007D0007465732028756E6974732F732900205215
:1007E0000020204D323034205000416363656C6539
:1007F000726174696F6E2028756E6974732F73321D
:10080000292028503C7072696E742D616363656C99
:100810003E20523C726574726163742D616363653E
:100820006C3E20543C74726176656C2D6163636527
:100830006C3E290020540020530020204D323035DA
:10084000204200416476616E6365642028423C6DFD
:10085000696E5F7365676D656E745F74696D655F02
:1008600075733E20533C6D696E5F666565647261A9
:1008700074653E20543C6D696E5F74726176656C80
:100880005F66656564726174653E20583C6D617891
:100890005F6A65726B3E20593C6D61785F6A657274
:1008A0006B3E205A3C6D61785F6A65726B3E2045F5
:1008B0003C6D61785F6A65726B3E290020440020C0
:1008C000490020204D333031205000486F74656E50
:1008D0006420504944007061757365640048656127
:1008E000642063616E6E6F74206265207061726B4C
:1008F000656400506175736500496E73657274209C
:1009000066696C616D656E7420616E6420707265DD
:10091000737320627574746F6E0A00526568656146
:100920007420446F6E6500526568656174696E6716
:100930002E2E2E00526568656174004865617465ED
:10094000722054696D656F75740050726573732001
:10095000627574746F6E20746F2068656174206EA8
:100960006F7A7A6C650A004E6F7A7A6C65205061F6
:10097000726B65640044697361626C6552756E6F79
:1009800075740050757267654D6F726500506175C2
:10099000736564004C6F61642046696C616D656EBF
:1009A000742054004C6F61642046696C616D656E03
:1009B0007400496E736572742066696C616D656E52
:1009C0007420616E64207072657373206275747434
:1009D0006F6E0A00726573756D656400526573759C
:1009E0006D696E6700203B0020550020204D363099
:1009F00033204C0046696C616D656E74206C6F61CC
:100A0000642F756E6C6F616400203B200020204DC8
:100A1000343133205300506F7765722D6C6F7373D0
:100A2000207265636F766572790020496E76616C1D
:100A300069642065787472756465722000536C6512
:100A400065702E2E2E005B505D61726B696E6720A3
:100A50007374796C652028302E2E34292E003F497E
:100A60006E76616C696420005A2050726F62652056
:100A700050617374204265640A005A2050726F629C
:100A80006520506173742042656400473238004D20
:100A900065736820706F696E74206F7574206F665F
:100AA0002072616E67650A00626567696E00436F58
:100AB0006E74696E7565004D302053746F70004D13
:100AC000312053746F7000436C69636B20746F2026
:100AD000526573756D652E2E2E004E6F204D6F760C
:100AE000652E00456E642066696C65206C697374C0
:100AF0000A00426567696E2066696C65206C6973DF
:100B0000740A004E6F206D656469610A00534420C9
:100B1000636172642072656C65617365640A00527A
:100B20006573756D696E6720534400526573756D0A
:100B30006500506175736520534400286E6F206610
:100B4000696C65290043757272656E742066696C04
:100B5000653A20004E6F74205344207072696E74A1
:100B6000696E670A005344207072696E74696E671B
:100B7000206279746520005072696E742074696D0A
:100B8000653A20007061757365006F6B004C696E8B
:100B9000653A20006F666600860281027A0273025F
:100BA000650244454255473A004D31313220536881
:100BB0007574646F776E004D313133205300576187
:100BC0006E68616F204439204D4B317532203330CF
:100BD00030204F46462E0020732E0A00496E616376
:100BE0007469766974792074696D656F7574200015
:100BF0002F2F005741524E494E4721204C6F7720EE
:100C00005A204A65726B206D6179206C65616420A1
:100C1000746F20756E77616E746564207061757392
:100C200065732E0A002058003B200020204D61787B
:100C30003A2000200020204D696E3A2000203B2001
:100C40000020204D323131205300250A0046523A0F
:100C50000020466C6F773A20003A200020536572DE
:100C6000766F2000206F7574206F662072616E674A
:100C7000650A00536572766F200050726F626520BE
:100C80004F6666736574205A0050726F6265204F1C
:100C90006666736574205A0064697300656E00436C
:100CA000290061626C656420286D696E2074656D31
:100CB000702000436F6C642065787472756465738E
:100CC000206172652000203B20486F7374206861AA
:100CD0006E646C696E6720006D6D00203B204D6F67
:100CE00074696F6E2064697374616E636520006D52
:100CF0006D00203B2044697374616E63652000467B
:100D0000696C616D656E742072756E6F757420000C
:100D10004D34323120696E636F7272656374207076
:100D20006172616D657465722075736167650A0033
:100D30004D65736820706F696E74206F7574206FD5
:100D4000662072616E67650A004F6666736574732C
:100D5000204170706C696564004D494E2F4D4158BB
:100D600020546F6F2046617200546F6F206661726D
:100D70002066726F6D204D494E2F4D41580A004537
:100D80004550524F4D204F4B0A00290A0020746FE6
:100D900020003F5A206F7574206F662072616E6765
:100DA00065202800290A0020746F20003F59206F19
:100DB0007574206F662072616E6765202800290AAD
:100DC0000020746F20003F58206F7574206F6620DC
:100DD00072616E67652028004D383400446F6E657F
:100DE000207072696E74696E672066696C650A00AE
:100DF0004D3737004D33310020204D3230362058EA
:100E000000486F6D65206F6666736574004361709E
:100E10003A00434F4E4649475F4558504F525400A1
:100E20004D4541545041434B00434F4F4C45525F59
:100E300054454D5045524154555245004348414D4B
:100E40004245525F54454D5045524154555245001C
:100E500045505F4241425953544550004241425926
:100E60005354455050494E470041524353004D4F53
:100E700054494F4E5F4D4F44455300544845524DE1
:100E8000414C5F50524F54454354494F4E004558D2
:100E900054454E4445445F4D323000435553544F02
:100EA0004D5F4649524D574152455F55504C4F4159
:100EB00044004C464E5F5752495445004C4F4E47F4
:100EC0005F46494C454E414D45004155544F5245B2
:100ED000504F52545F53445F535441545553005341
:100EE000445F575249544500524550454154004DC6
:100EF000554C54495F564F4C554D45005344434162
:100F000052440050524F4D50545F535550504F5221
:100F10005400484F53545F414354494F4E5F434F31
:100F20004D4D414E445300454D455247454E435962
:100F30005F50415253455200434153455F4C49472E
:100F400048545F4252494748544E45535300544F0A
:100F500047474C455F4C494748545300534F46540C
:100F6000574152455F504F574552004255494C44F6
:100F70005F50455243454E54004C4556454C494EF2
:100F8000475F44415441005A5F50524F424500521E
:100F9000554E4F5554004155544F4C4556454C0005
:100FA0005052494E545F4A4F420050524F475245AB
:100FB0005353004155544F5245504F52545F54457E
:100FC0004D50004155544F5245504F52545F504F71
:100FD0005300564F4C554D455452494300454550DA
:100FE000524F4D0042494E4152595F46494C455F70
:100FF0005452414E534645520053455249414C5F6D
:10100000584F4E5F584F4646004649524D57415241
:10101000455F4E414D453A4D61726C696E20627577
:10102000676669782D322E312E7820443920763249
:101030002E302E3620285365702031362032303243
:10104000362032323A31383A34362920534F55520D
:1010500043455F434F44455F55524C3A6769746856
:1010600075622E636F6D2F4C652D53796C32312F65
:1010700057414E48414F2D4475706C696361746FE0
:10108000722D392050524F544F434F4C5F564552AA
:1010900053494F4E3A312E30204D414348494E4539
:1010A0005F545950453A57616E68616F204439204A
:1010B0004D4B31753220333030204B494E454D4138
:1010C000544943533A43617274657369616E2045B4
:1010D000585452554445525F434F554E543A31206F
:1010E000555549443A63656465326132662D343141
:1010F00061322D343734382D396231322D63353534
:101100006336326633363766660047322F47332000
:1011100062616420706172616D65746572730A004A
:101120005A2050726F62652050617374204265646A
:1011300000205A3A0020593A0042656420583A008B
:101140004732384F00203B0020204D3835312058A1
:10115000005A2D50726F6265204F66667365740089
:10116000220A00656E7175657565696E67202200DB
:101170006F6B0A00526573656E643A2000256973CF
:101180000025696D20256973002569682025696D32
:101190002025697300256964202569682025696D0B
:1011A00020256973002569792025696420256968EF
:1011B0002025696D2025697300436F6F6C696E6728
:1011C0002E2E2E00453120255300204600204200BF
:1011D00020204D3130342053004175746F20546508
:1011E0006D7020436F6E74726F6C0020573A00422E
:1011F000656420436F6F6C696E672E2E2E0042650A
:10120000642048656174696E672E2E2E0023646524
:1012100066696E652044454641554C545F0050490F
:10122000442074756E696E6720646F6E6500417549
:10123000746F74756E65206661696C6564212054F5
:10124000696D656F75742E004175746F74756E6588
:10125000206661696C6564212054656D70657261FA
:101260007475726520746F6F20686967682E00411D
:1012700075746F74756E65206661696C6564212094
:101280004261642065787472756465722E005049FD
:1012900044204175746F74756E65004B4420004B9B
:1012A0004920004B5020005049442074756E696EEF
:1012B0006720646F6E65002066696E697368656497
:1012C000212050757420746865206C617374204B04
:1012D000702C204B6920616E64204B6420636F6E1C
:1012E0007374616E74732066726F6D2062656C6FCB
:1012F0007720696E746F20436F6E666967757261DF
:1013000074696F6E2E680A00504944204175746FED
:1013100074756E6500206661696C6564212074696E
:101320006D656F75740A00504944204175746F747F
:10133000756E65004175746F74756E6520666169C0
:101340006C6564212054696D656F75742E0020668C
:1013500061696C6564212054656D70657261747596
:10136000726520746F6F20686967680A005049448D
:10137000204175746F74756E65005049442043793F
:10138000636C65730025532025692F256900204B68
:10139000643A2000204B693A2000204B703A20002C
:1013A00020436C617373696320504944200A002014
:1013B00054753A2000204B753A2000206D61783A30
:1013C0002000206D696E3A200020643A20002062DF
:1013D0006961733A200048656174696E672E2E2E2C
:1013E000002073746172740A00504944204175747E
:1013F0006F74756E65004175746F74756E652066E7
:1014000061696C6564212054656D706572617475E5
:10141000726520746F6F20686967682E00206661AE
:10142000696C6564212054656D70657261747572B4
:101430006520746F6F20686967680A00504944200E
:101440004175746F74756E65005049442041757420
:101450006F74756E65003F28432979636C6573204E
:101460006E6F7420706C61757369626C6520283EC4
:101470003D33292E0A00206661696C656421204293
:101480006164206865617465722069640A0050496E
:1014900044204175746F74756E6500002002000071
:1014A00000991F0000012002000000991F000002A7
:1014B0002002000000991F00000320020000009994
:1014C0001F0000042002000000524F00000520020F
:1014D0000000005D1F00000620000000003A1F0011
:1014E00000072002000000071F0000082002000083
:1014F000001B1F0000092002000000833800000AC2
:101500002002000000971900000B20020000006874
:101510001B00000E2002000000D11E00000F200260
:10152000000000B71E00001020020000003650002E
:1015300000112002000000095000001220020000EB
:101540000009500000142002000000E14F000015C7
:101550002002000000F71E00001620020000008696
:101560001E0000172002000000511E00001820027B
:101570000000008F190000192002000000431D0028
:10158000001A2000000000A74300001B20000000FC
:1015900000612800001C2002000000831900001DCB
:1015A0002002000000701900001E2002000000E56B
:1015B0001D00001F200200000082430000202002C6
:1015C000000000141D0000212002000000141D0076
:1015D00000222002000000141D0000232002000051
:1015E00000D31C0000242002000000681900002520
:1015F0002000000000C81C0000262000000000574A
:101600004200002720020000007143000028200251
:101610000000005D4300002920020000004919007D
:10162000002A2002000000901C00002B2000000077
:1016300000FB4200002C2002000000E74200002DC9
:101640002002000000C54200002E200200000080A1
:101650001C00002F20000000004319000020300271
:1016600000000000008F7C253020000000000038C2
:101670007C4530200000000000387C6530200000F0
:10168000000000387C8530200000000000387CA578
:1016900030200000000000387CC53002000000004F
:1016A00000E47CC630200000000000FF7BE6300232
:1016B00001000000001486E8300F01000000000364
:1016C00097F7300201000000003C7ABE31020000B2
:1016D000000000149AF8300201110200004879F964
:1016E000300201000000002B7AFC300201D7070015
:1016F00000DE78FD300201DB0700004879FE300291
:101700000000000000177AFF300201A30D0000DE88
:101710007800310201A70D00004879013102000074
:10172000000000177A05310201000000000B7A0664
:101730003102011D0E000074780731020009020019
:1017400000F3790831020100000000C37B09310277
:101750000000000000657722310200F30600002936
:101760007823310200F506000029782431020000B8
:10177000000000DF79253102000A020000297826E6
:10178000310201200A0000DE7827310201240A001C
:1017900000DE7828310201280A0000DE78293102B3
:1017A00000F7060000F3792A31020000000000B4BF
:1017B0007B2B31020000000000C7792C3102000CA5
:1017C00002000029782D31040100000000CC7A2F9E
:1017D00031040100000000907A3131040100000062
:1017E00000547A333118009A020000027B4B311802
:1017F00000000000005F7B633110008B02000002DC
:101800007B73310200000000002572743102000079
:1018100000000026727531180000000000397B8D31
:1018200031180000000000287BA5311800000000DE
:1018300000177BBD31020000000000E49900400267
:101840000100001519AE7901402002FA06741C4A05
:101850007B214002000802FB71DD7722400200007C
:101860000093249F79234002000000CB2495790047
:10187000500200000000003C7A0150000000000A05
:10188000190000000000000000000000004E6F740E
:1018900020616C6C6F776564207768696C6520697E
:1018A000646C65004E6F7420616C6C6F77656420AA
:1018B000647572696E67207072696E74004E6F2075
:1018C00053442043617264204465746563746564A5
:1018D0000043616E6E6F7420656E7465722073755F
:1018E000626469723A20004E6F2066696C652073ED
:1018F000656C6563746564004D32350052657375BF
:101900006D6500554920506175736500726573758A
:101910006D65004D323400436F6F6C696E672E2E1B
:101920002E004D3530300047323900486F6D696EFA
:10193000672072657175697265640054656D7065C4
:1019400072617475726520746F6F206C6F770047D9
:1019500032385A0047323858590047323858595AA5
:1019600000486F6D696E672E2E2E00457865637591
:1019700074696E6720636F6D6D616E642E2E2E002C
:101980004D353030004D353032004D3939390A4D42
:10199000323830503053313630004D353030005011
:1019A0004944206175746F74756E696E672E2E2EB2
:1019B000004D333033432564452564532564553148
:1019C00000426564205049442064697361626C651B
:1019D00064004D313030304300496E76616C69648B
:1019E000207265636F766572792064617461004D61
:1019F00031303030004275737900BD310000333131
:101A00004B3163317331743175318D31A531000043
:101A100023400000224000002B312C3121402D3189
:101A20002F31313100002A31000001400000263101
:101A30002731283129310000FF3000312431253190
:101A40000000223123310000FF300031FC30FD3036
:101A5000083109310000FF300031FC30FD3000005A
:101A60000631073100000531000000400000FF3062
:101A700000310131FC30FD30FE300000FF3000311C
:101A8000FC30FD300000FF300031FC30FD30E6302E
:101A9000E830005000000031FD300040F830F930EF
:101AA00006310000FF300031FC30FD30E630E83018
:101AB000F730BE31000020302530453065308530AC
:101AC000A530C530C6300000FF300031FC30FD309D
:101AD00000004D3530300050726F62696E672066CD
:101AE00061696C65640050726F62696E672073751E
:101AF000636365737366756C0002317D03439A04FA
:101B00004F9A0A87A00B1BA00CE79F0D2A770E4067
:101B1000720F3572100AA011CD9F132B7216277207
:101B200000000001C81A02B61A03A41A04961A0586
:101B3000861A067C1A076E1A086A1A09661A0B605A
:101B40001A0C561A0D481A0E421A0F381A102E1A6D
:101B5000112A1A12261A13181A14141A15101A1602
:101B6000FE19F9FA1900000047305A3130004732A7
:101B700038004732380047305A3000473058256423
:101B80005925640047305A340047323800486F6D99
:101B9000696E672E2E2E0042757379004457494EA8
:101BA000204755492F4F532075706461746520722A
:101BB00065717569726564002564782564782564AB
:101BC000002D002D002D0063616E63656C00507266
:101BD000696E742041626F72746564004469736D4C
:101BE0006973730055492041626F72746564006FB8
:101BF00070656E00545249474745524544003A20AB
:101C00000066696C616D656E74007A5F6D696E0067
:101C1000795F6D696E00785F6D696E005265706FF7
:101C20007274696E6720656E6473746F702073746C
:101C3000617475730A0020746F6F206C6F6E67207B
:101C4000657874727573696F6E2070726576656EF3
:101C50007465640A0020636F6C6420657874727523
:101C600073696F6E2070726576656E7465640A00C4
:101C7000486F6D65202573204669727374000000FB
:101C8000000000000000000000005761726E696EE5
:101C9000673A20486F6D696E672042756D70204409
:101CA000697669736F72203C20310A0002020200DB
:101CB000009643000096430000C8430000A0400087
:101CC00000A0400000004053544F505045442E2087
:101CD000005072696E7465722073746F7070656401
:101CE0002064756520746F206572726F72732E2088
:101CF00046697820746865206572726F7220616E23
:101D00006420757365204D39393920746F207265F0
:101D100073746172742E202854656D7065726174DD
:101D20007572652069732072657365742E20536522
:101D300074206974206166746572207265737461C1
:101D40007274696E67290A00206572726F72202DA5
:101D500020726573746172742077697468204D39DC
:101D600039390A00424C546F7563680021212053B1
:101D7000544F502063616C6C6564206265636175CB
:101D80007365206F662000000096430000964300B4
:101D900000C84300000000000000000000000045F3
:101DA0004550524F4D207772697465206661696CA9
:101DB00065640053657474696E67732053746F7241
:101DC000656400290A002062797465733B206372A0
:101DD00063200053657474696E67732053746F7267
:101DE0006564202800204D61726C696E3D56393063
:101DF000290A00454550524F4D2076657273696F30
:101E00006E206D69736D617463682028454550527A
:101E10004F4D3D00454550524F4D206461746173F4
:101E2000697A65206572726F722E0A004572723A85
:101E300020454550524F4D204352430020286361B6
:101E40006C63756C6174656429210A0020213D2052
:101E500000454550524F4D20435243206D69736DEC
:101E600061746368202D202873746F726564292063
:101E700000454550524F4D20436F72727570740A81
:101E8000002053697A653A2000496E6465783A20EB
:101E90000053746F7265642073657474696E677340
:101EA0002072657472696576656400206279746574
:101EB000733B2063726320002073746F726564202B
:101EC00073657474696E6773207265747269657680
:101ED0006564202800454550524F4D20726561646D
:101EE000206661696C656400454550524F4D20493C
:101EF0006E697469616C697A65640A00454550527F
:101F00004F4D20496E697469616C697A656400455A
:101F10004550524F4D20726573657400486172647C
:101F2000636F6465642044656661756C74205365F5
:101F30007474696E6773204C6F616465640000009F
:101F40009643000096430000A0400000C84166662A
:101F5000A0426666A0426626C8439A99BC42B80B66
:101F60000000B80B000064000000B80B000020283F
:101F70006D6D2900203B204C6576656C696E67208D
:101F80000020204D3432302053004175746F2042C0
:101F90006564204C6576656C696E67004F46460047
:101FA0004F4E00203B2053656E736F722000204C13
:101FB0000020440020204D34313220530046696C0B
:101FC000616D656E742072756E6F75742073656EC9
:101FD000736F7200204A0020204732392057204971
:101FE0000020204D3134392043203B20556E697448
:101FF0007320696E2043656C736975730A005465BC
:102000006D706572617475726520556E69747300C8
:102010002020473231203B004C696E6561722055AB
:102020006E6974730024F4D43050C38D20C3A24170
:1020300017828B7011127A900D826CDA0AA861E116
:1020400008C7586607615142061F4B5E05C145A689
:10205000041B411204093D9703723931034136DBF9
:102060000266339202D4305302812E1D02642CEE9C
:1020700001762AC501B128A101102781018F2564AD
:10208000012B244A01E1223401AD2120018D200CD5
:1020900001811FFC00851EED00981DDF00B91CD2D8
:1020A00000E71BC700201BBB00651AB200B319A9CB
:1020B000000A19A0006A189800D217920040178AE7
:1020C00000B616840032167E00B41579003B1574F4
:1020D00000C7146F0058146A00EE1366008813627C
:1020E0000026135E00C8125B006D125700161255D1
:1020F00000C111510070114E0022114C00D6104940
:10210000008D1046004710450002104200C00F40ED
:1021100000800F3E00420F3C00060F3A00CC0E3903
:1021200000930E37005C0E3500270E3400F30D329D
:1021300000C10D3100900D2F00610D2F00320D2DCB
:1021400000050D2C00D90C2A00AF0C2A00850C28A4
:10215000005D0C2800350C27000E0C2500E90B252E
:1021600000C40B2400A00B23007D0B22005B0B217D
:10217000003A0B2100190B2000F90A1F00DA0A1F90
:1021800000BB0A1E009D0A1D00800A1C00640A1C78
:1021900000480A1C002C0A1B00110A1A00F7091A31
:1021A00000DD091900C4091900AB091800930918CA
:1021B000007B091700640917004D0917003609163E
:1021C00000200915000B091500F6081500E1081597
:1021D00000CC081400B8081400A4081300910813D8
:1021E000007E0813006B08120059081200470812FD
:1021F0000035081200230811001208110001081010
:1022000000F1071100E0071000D0071000C0070F11
:1022100000B1071000A1070F0092070F0083070FFE
:102220000074070E0066070E0058070E004A070EDE
:10223000003C070E002E070D0021070D0014070DAE
:102240000007070D00FA060D00ED060C00E1060D73
:1022500000D4060C00C8060C00BC060C00B0060B2F
:1022600000A5060C0099060B008E060B0083060BDA
:102270000078060B006D060B0062060B0057060A7D
:10228000004D060A0043060B0038060A002E060A17
:1022900000240609001B060A0011060A00070609A9
:1022A00000FE050A00F4050900EB050900E2050936
:1022B00000D9050900D0050900C7050800BF0509B8
:1022C00000B6050900AD050800A50508009D050834
:1022D00000950509008C050800840508007C0507A9
:1022E00000750508006D050800650507005E050816
:1022F00000560507004F0508004705070040050781
:102300000039050700320507002B050700240507E3
:10231000001D050700160507000F05060009050743
:102320000002050600FC040700F5040600EF0407A0
:1023300000E8040600E2040600DC040600D60406F9
:1023400000D0040700C9040500C4040600BE04064A
:1023500000B8040600B2040600AC040600A604059A
:1023600000A10406009B04050096040600900405E5
:10237000008B04060085040500800405007B04052D
:102380000076040600700405006B04050066040571
:1023900000610405005C04050057040500520405B3
:1023A000004D04050048040400440405003F0405F2
:1023B000003A04040036040500310405002C04042E
:1023C0000028040500230404001F0405001A040467
:1023D0000016040400120405000D0404000904049E
:1023E000000504040001040500FC030400F80304D4
:1023F00000F4030400F0030400EC030400E8030409
:1024000000E4030400E0030400DC030400D8030438
:1024100000D4030300D1030400CD030400C9030466
:1024200000C50304000000000000000000000000E0
:1024300000000000000000000000000000D1036D5B
:102440006403570D0347C6023B8B023259022B2E01
:102450000225090221E8011CCC011AB201179B01D7
:102460001487011374011163010F54010E46010D0D
:1024700039010D2C010B21010A17010A0D01090474
:102480000108FC0008F40007ED0007E60007DF0084
:1024900006D90006D30005CE0006C80005C3000417
:1024A000BF0005BA0004B60004B20004AE0004AADE
:1024B0000004A60003A300049F00039C00039900EE
:1024C000039600039300029100038E00028C000328
:1024D0008900028700038400028200028000027EDD
:1024E00000027C00027A000278000276000175008A
:1024F000027300027100017000026E00016D0002A3
:102500006B00016A00026800016700026500016457
:1025100000016300016200026000015F00015E00D3
:10252000015D00015C00015B00015A0001590001DE
:102530005800015700015600015500015400015395
:1025400000015200015100005100015000014F00F4
:10255000014E00014D00004D00014C00014B0001F7
:102560004A00004A000149000148000048000147B4
:1025700000014600004600014500004500014400FE
:1025800001430000430001420000420001410000FD
:102590004100014000004000013F00003F00013EBB
:1025A00000003E00013D00003D00013C00003C00F9
:1025B000013B00003B00013A00003A0001390000F5
:1025C00039000039000138000038000137000037B9
:1025D00000003700013600003600003600013500EB
:1025E00000350001340000340000340001330000E5
:1025F00033000033000132000032000032000131AC
:1026000000003100003100003100013000003000D6
:10261000003000012F00002F00002F00002F0001CC
:102620002E00002E00002E00012D00002D00002D98
:1026300000002D00012C00002C00002C00002C00BC
:10264000012B00002B00002B00002B00012A0000B2
:102650002A00002A00002A00002A0001290000297F
:10266000000029000029000128000028000028009F
:102670000028000028000127000027000027000094
:102680002700002700012600002600002600002663
:10269000000026000026000125000025000025007E
:1026A0000025000025000025000124000024000072
:1026B0002400002400002400002400012300002343
:1026C000000023000023000023000023000122005B
:1026D0000022000022000022000022000022000050
:1026E0002200012100002100002100002100002122
:1026F0000000210000210001200000200000200037
:102700000020000020000020000020000020000128
:102710001F00001F00001F00001F00001F00001FFF
:1027200000001F000020436F756E7420583A00426D
:10273000656400453100626564002C207379737410
:10274000656D2073746F70706564212048656174D5
:1027500065725F49443A20004572723A204D4158F3
:1027600054454D50004D415854454D5020747269A8
:102770006767657265640048656174696E672046C5
:1027800061696C65640048656174696E67206661A3
:10279000696C6564004572723A204D494E54454D4E
:1027A00050004D494E54454D50207472696767651D
:1027B00072656400544845524D414C2052554E417B
:1027C00057415900546865726D616C2052756E6195
:1027D00077617900202F002042403A0020403A00E3
:1027E00020573A000009121B242D363F48415A5306
:1027F0006C657E7719100B023D342F265158434AE1
:10280000757C676E323B2029161F040D7A73686150
:102810005E574C452B2239300F061D14636A7178C0
:10282000474E555C646D767F4049525B2C253E37A0
:1028300008011A137D746F6659504B42353C272EA0
:102840001118030A565F444D727B60691E170C0510
:102850003A3328214F465D546B627970070E151C80
:10286000232A31384148535A656C777E09001B1280
:102870002D243F3658514A437C756E671019020B60
:10288000343D262F737A6168575E454C3B322920D0
:102890001F160D046A6378714E475C55222B303940
:1028A000060F141D252C373E0108131A6D647F7620
:1028B00049405B523C352E2718110A03747D666F20
:1028C0005059424B171E050C333A21285F564D4490
:1028D0007B7269600E071C152A233831464F545D00
:1028E000626B707900002110422063308440A55053
:1028F000C660E770088129914AA16BB18CC1ADD146
:10290000CEE1EFF13112100273325222B5529442ED
:10291000F772D662399318837BB35AA3BDD39CC395
:10292000FFF3DEE36224433420040114E664C77439
:10293000A44485546AA54BB528850995EEE5CFF5E5
:10294000ACC58DD55336722611163006D776F6668D
:102950009556B4465BB77AA719973887DFF7FEE735
:102960009DD7BCC7C448E5588668A7784008611859
:1029700002282338CCC9EDD98EE9AFF94889699985
:102980000AA92BB9F55AD44AB77A966A711A500A2D
:10299000333A122AFDDBDCCBBFFB9EEB799B588BD5
:1029A0003BBB1AABA66C877CE44CC55C222C033C79
:1029B000600C411CAEED8FFDECCDCDDD2AAD0BBD25
:1029C000688D499D977EB66ED55EF44E133E322ECD
:1029D000511E700E9FFFBEEFDDDFFCCF1BBF3AAF75
:1029E000599F788F8891A981CAB1EBA10CD12DC1D3
:1029F0004EF16FE18010A100C230E3200450254069
:102A000046706760B9839893FBA3DAB33DC31CD3C8
:102A10007FE35EF3B1029012F322D23235421452B8
:102A200077625672EAB5CBA5A89589856EF54FE514
:102A30002CD50DC5E234C324A01481046674476408
:102A400024540544DBA7FAB79987B8975FE77EF768
:102A50001DC73CD7D326F2369106B0165766767658
:102A6000154634564CD96DC90EF92FE9C899E98934
:102A70008AB9ABA94458654806782768C018E108A8
:102A80008238A3287DCB5CDB3FEB1EFBF98BD89B08
:102A9000BBAB9ABB754A545A376A167AF10AD01AF8
:102AA000B32A923A2EFD0FED6CDD4DCDAABD8BAD54
:102AB000E89DC98D267C076C645C454CA23C832C48
:102AC000E01CC10C1FEF3EFF5DCF7CDF9BAFBABFA8
:102AD000D98FF89F176E367E554E745E932EB23E98
:102AE000D10EF01E7C3C3E5E2B3D3F2F5B5D3B2CB0
:102AF0002A225C005761726E696E673A0053442067
:102B00004361726420496E6974204661696C0053A8
:102B1000442063617264206F6B0A006F70656E52AF
:102B20006F6F74206661696C65640A00766F6C75FE
:102B30006D652E696E6974206661696C65640A0052
:102B40004E6F20534420636172640A000A4D323490
:102B5000004D3233202573002E0A006F70656E2001
:102B60006661696C65642C2046696C653A20004694
:102B7000696C652073656C65637465640A00205335
:102B8000697A653A200046696C65206F70656E65EC
:102B9000643A2000454E4420535542524F55544903
:102BA0004E450A002220706F73002220706172650A
:102BB0006E743A2200535542524F5554494E4520A7
:102BC00043414C4C207461726765743A220053751E
:102BD0006263616C6C204F766572666C6F7700453E
:102BE00078636565646564206D6178205355425251
:102BF0004F5554494E452064657074683A002E0A5A
:102C00000044656C6574696F6E206661696C65640B
:102C10002C2046696C653A200046696C6520646525
:102C20006C657465643A0057726974696E672074E4
:102C30006F2066696C653A2000667265736800648F
:102C40006F696E67002066696C653A20004E6F7789
:102C500020002F6175746F25632E670020014001ED
:102C600030013B01400136016001310170012C014E
:102C700090012701B0012201C0011D01F0011801DE
:102C80001002130130020E016002090190020401DA
:102C9000C002FF000003FA004003F5008003F000CB
:102CA000D003EB002004E6007004E100E004DC0047
:102CB0004005D700C005D2004006CD00D006C800B0
:102CC0008007C3003008BE00F008B900C009B40096
:102CD000B00AAF00B00BAA00D00CA500000EA000F7
:102CE000500F9B00C01096005012910000148C00F1
:102CF000C0158700B0178200B0197D00D01B780086
:102D0000001E730040206E0090226900F0246400D1
:102D100040275F0090295A00E02B5500102E5000EC
:102D200020304B0010324600E033410090353C002B
:102D30001037370070383200A0392D00B03A280023
:102D4000A03B2300603C1E00103D1900903D140084
:102D5000103E0F00703E0A00C03E0500003F00001C
:102D6000403FFBFF803FF6FFC03FF1FF2020506C4B
:102D7000616E6E65724275666665724279746573DE
:102D80003A20002046726565204D656D6F72793A74
:102D9000200020436F6D70696C65643A2053657044
:102DA00020313620323032360A00204C61737420D4
:102DB000557064617465643A20323032362D303992
:102DC0002D3038207C20417574686F723A20537919
:102DD0006C3231202B20436C617564650A004D61B3
:102DE000726C696E20322E312E78202876322E3089
:102DF0002E36290A0020536F66747761726520525F
:102E0000657365740A00205761746368646F672096
:102E100052657365740A002042726F776E206F7579
:102E2000742052657365740A002045787465726E6B
:102E3000616C2052657365740A00506F7765725536
:102E4000700A0073746172740A004732385859006E
:102E50004D31303031006572726F72207772697453
:102E6000696E6720746F2066696C650A00446F6E36
:102E70006520736176696E672066696C652E0A004D
:102E80004D323900456E6473746F707300255320A2
:102E9000256320256320256320256300205A3A00FE
:102EA00020593A0020583A00656E6473746F70734D
:102EB000206869743A200000000A0B02090C0D0E0C
:102EC00008070304010000000000000000000000EB
:102ED00000000000000000000000000000000000F2
:102EE00000000012111000000000000000000000AF
:102EF0000000000000000000000000000000486F1B
:102F00006D696E67204661696C656400FFFFFF2094
:102F10005A3A200020793A200042656420583A202D
:102F20000050726F62696E67204661696C65640A61
:102F30000050726F62696E67204661696C6564005B
:102F400043616E6E6F74206F70656E20737562647E
:102F500069722000524553554D45204F5054494FFA
:102F60004E533A0048656174696E672E2E2E00003C
:102F700000436C69636B20746F20686561740000A6
:102F800000526573756D696E672E2E2E000000501D
:102F9000757267696E672E2E2E0000004C6F61649B
:102FA000696E672E2E2E000000496E7365727420C4
:102FB000616E6420436C69636B000000436C69635D
:102FC0006B20746F20636F6E74696E75650000000E
:102FD000456A656374696E672E2E2E000000506C82
:102FE0006561736520776169742E2E2E0000005094
:102FF00061726B696E672E2E2E000000220A00554A
:103000006E6B6E6F776E20636F6D6D616E643A20CC
:1030100022006F6B0057616E68616F204439204D4C
:103020004B317532203330302052656164792E0087
:103030005072696E74696E672E2E2E005072696E22
:10304000742050617573656400204500205A00208B
:10305000590020204D393220580053746570732078
:1030600070657220756E69740000002200250028CA
:10307000002B002E00310034000201000005010881
:10308000010B0100002100240027002A002D003040
:1030900000330001010000040107010A01050505D4
:1030A00005070508080808020202020A0A080804BF
:1030B00004040401010101010101010303030303ED
:1030C000030303040707070C0C0C0C0C0C0C0C027C
:1030D00002020206060606060606060B0B0B0B0B83
:1030E0000B0B0B010210202008081020401020407C
:1030F00080020102010804020101020408102040BC
:1031000080804020100804020180040201804020D9
:103110001008040201080402010102040810204002
:103120008001020408102040804572726F7220777F
:10313000726974696E6720746F20454550524F4D17
:10314000210A0020746F6F206C6F6E6720657874A1
:10315000727573696F6E2070726576656E746564E2
:103160000A0020636F6C6420657874727573696FF0
:103170006E2070726576656E7465640A0020453A4B
:1031800000205A3A0020593A00583A0014E5F6E473
:1031900011241FBECFEFD1E2DEBFCDBF00E00CBFD8
:1031A00084B78093911714BE0FB6F894A8958091B8
:1031B0006000886180936000109260000FBE14E090
:1031C000A0E0B2E0E6E3F9EF01E00BBF02C0079038
:1031D0000D92A03EB107D9F727E1A0EEB4E001C0FF
:1031E0001D92A139B207E1F718E1C7ECD8E100E080
:1031F00006C021970109802FFE010E9420F9C63CDC
:10320000D10780E00807A9F70E9489E60C948AFCA0
:103210000C94000080911B078F5F80931B078A30FE
:1032200018F080EF80935A090895CF93FC018081B4
:1032300091818115904429F5FB01C1816C2F70E0CB
:1032400090E080E00E9470F220E030E048EC52E430
:103250000E9450FB18160CF4C4E62C2F30E0AFEFA0
:10326000B0E00E94DEF824E630E040E050E00E944A
:10327000B8F82F3F310519F010F02FEF30E0209310
:103280007A14CF91089510921F0781E0809321074F
:103290000895FB0181818F3F19F0882381F0089503
:1032A0002CE330E030930D0220930C0280931E0734
:1032B00085E08093080281E080932107089588ECDF
:1032C00090E090930D0280930C0210921E07F0CFB5
:1032D000FB0181818093F70681E0809321070895A7
:1032E000FB0180819181982789279827893C910546
:1032F00010F088EC90E090930B0280930A0281E03A
:10330000809321070895FB01818191E0980F92300D
:1033100028F48093100281E0809321070895FB0137
:1033200081818093090281E0809321070895CF92E3
:10333000DF92EF92FF92CF93DF93FB01C081D181A7
:10334000DC27CD27DC27BE010D2E000C880B990B46
:103350000E9472F26B017C0120E030E040E251E417
:103360000E946CF287FD0DC020E030E04AEF53E48C
:10337000C701B6010E9450FB18162CF4C4EFD1E02F
:1033800002C0CAE0D0E0D0931202C093110281E0E3
:1033900080932107DF91CF91FF90EF90DF90CF9046
:1033A0000895CF93DF93C091DB07D091DC0781E0D4
:1033B000CE31D105E4F020E030E040E05FE3609101
:1033C000D7077091D8078091D9079091DA070E94AA
:1033D00029F90E946DFA6C1B7D0B77FF03C0719574
:1033E0006195710981E0633071050CF080E0DF9137
:1033F000CF91089587FD26C0811111C08091B20A36
:103400002091B30A8217F1F0E22FF0E0EE54F54F6D
:10341000828190E02F5F2F772093B30A0895813047
:1034200089F48091300A2091310A821759F0E22FF5
:10343000F0E0E05DF54F828190E02F5F2F772093E1
:10344000310A08958FEF9FEF0895CF93DF93DB014B
:10345000F9019C919130C1F0943080F094509C938C
:103460008830D1F480819181009771F00197918328
:103470008083480F591FEA01188206C08C3539F441
:103480009C5F9C93943041F4DF91CF9108958B33EE
:1034900039F781E08C93F8CF20813181B9016F5FDA
:1034A0007F4F71836083420F531FEA0188838081BD
:1034B00091818F3591056CF7E7CF0F931F9381E0D2
:1034C0000091820D1091830D2091840D3091850D16
:1034D00040917E0D50917F0D6091800D7091810D16
:1034E000041715072607370708F480E01F910F918E
:1034F000089590E080E008952091BD14833021F478
:1035000025FD0CC024FD0CC030E0A90102C055957A
:1035100047958A95E2F7CA018170089581E0089580
:1035200080E008950F931F93CF93DF93EC010FE595
:1035300019E0F801208131814281538168817981CC
:103540008A819B810E9429F9688379838A839B837E
:10355000F80124813581468157816C817D818E817E
:103560009F810E9429F96C837D838E839F83F8015C
:103570002085318542855385688579858A859B8537
:103580000E9429F9688779878A879B87DF91CF9185
:103590001F910F9108958091390684FD0BC0809191
:1035A0003B0687FD07C090913C06937081E019F4BB
:1035B00080E0089581E008952FEB280F2A3108F06C
:1035C00047C0E22FF0E08091390690913A06A09131
:1035D0003B06B0913C0604C0B695A7959795879594
:1035E0002A95D2F780FD02C081700895E55BFA4FFD
:1035F000E081EE2341F18091750990917609E80F01
:10360000F92FF11D808190ED980F9A3030F08E32B5
:1036100051F4818180538A3098F4F0934205E0930D
:10362000410581E008958D3211F08B3249F481819A
:1036300090ED980F9A3088F38E3211F48281EACFA0
:10364000F0E0E0E0EACF1092420510924105E9CFA8
:1036500080E00895B1DF882341F081E020914105A9
:1036600030914205232B09F480E008950F931F93B6
:10367000CF93DF93C82FD0E0FE01EE0FFF1FE95E6E
:10368000FD4F71836083CC0FDD1FCC0FDD1F8E01DA
:103690000B5A1D4F072E000C880B990B0E9472F2DB
:1036A0002AE037ED43E25CE30E94D1F2C95CD84FD7
:1036B000288139814A815B810E94D1F2F8016083BF
:1036C000718382839383DF91CF911F910F9108952E
:1036D000FC01808191818B30904259F4FB01608123
:1036E000718176276727762780E0C0DF81E08093AD
:1036F0002107089580913B0781110EC020911D0282
:1037000030911E022150310981E04091A70D509166
:10371000A80D421753070CF080E008958F929F92F6
:10372000AF92BF92CF92DF92EF92FF92FC01828123
:1037300058E5C52E52E0D52EC81AD10887FDD3947E
:10374000CC0CDD1CCC0CDD1C0D2C000CEE08FF0895
:10375000818178E8872E912C881A910887FD9394AF
:10376000880C991C880C991C092C000CAA08BB0811
:1037700080818F3FD1F190E0FC01EE0FFF1FE80F39
:10378000F91FE753F24F8181928133E0880F991F2F
:103790003A95E1F7B0E0A0E044E0B595A79597959C
:1037A00087954A95D1F702969C012F5F3F4F032ED4
:1037B000000C440B550B281939094A095B09A4EB85
:1037C000B0E00E94D4F8A7019601281939094A09E6
:1037D0005B090E94B8F8C901FF90EF90DF90CF908D
:1037E000BF90AF909F908F90089590E080E0DCCFE5
:1037F00091E090933E069091D10095FD0CC0909180
:10380000D00095FF08C08093D6008091D0008064DE
:103810008093D00008952091C1062F5F2F720FB6BC
:1038200007FC27C09091C206921328C09091D00047
:1038300095FF1EC09091C2064091C106941306C028
:103840009091D1009F7D9093D10012C0E92FF0E0BC
:10385000EF53F94F32819F5F9F723093D600909360
:10386000C2063091D00030643093D000491741F344
:10387000D9CF9091C206921301C0FBCFE091C1064F
:10388000F0E0EF53F94F82832093C1068091D1007D
:1038900080628093D10008950F931F93CF93DF939D
:1038A000EC01162F042F8AE5A3DF85EAA1DF83E070
:1038B000800F9EDF812F9CDF8D2F9ADF8C2FDF9171
:1038C000CF911F910F9194CF40E355E760E070E0F6
:1038D00085EF99E10C942B9B40E355E760E070E0A5
:1038E00085EF99E10C942B9BFC014281442339F034
:1038F00084819581009719F050E00C940CFC089598
:10390000CF93FB01C181C13031F40E94D69981115E
:1039100004C0C0932107CF9108950E94C598F9CFA4
:10392000CF93DF93EB010E940A9B81110AC040E311
:1039300055E760E070E085EF99E1DF91CF910C945D
:103940002B9B8881998198278927982720911E078A
:103950002F3F29F02223A9F0DF91CF9108958437DA
:10396000910514F083E790E08530910514F485E02B
:1039700090E090930D0280930C0281E080932107E8
:10398000EBCF833221E092077CF382E291E0ECCF2F
:10399000EAEFF6E081E2DF011D928A95E9F781E026
:1039A000809321070895CF93FB018091F706813022
:1039B00029F050F1823019F1CF91089560E070E064
:1039C00080E89FE32181223069F118F5222319F064
:1039D0009058213089F7C0E024E0C29FF001112403
:1039E000E05EF54F20813181428153810E9429F9A7
:1039F0004C2F0E94FBCE81E080932107DDCF6DEC40
:103A00007CEC8CEC9DE3DECF60E070E080E291E442
:103A1000D9CF243021F028F09058253069F6C2E043
:103A2000DBCF9058C1E0D8CFCF93DF93EC01FB01FF
:103A300060817181762767277627072E000C880B17
:103A4000990B0E9472F220E030E040E251E40E94C3
:103A500005FA288139812132F0E23F0749F022320C
:103A600040E2340771F02032304241F440E001C0BE
:103A700041E00E94FBCE81E080932107DF91CF914E
:103A8000089542E0F6CF8F929F92AF92BF92CF926D
:103A9000DF92EF92FF92CF93DF9380915D09877061
:103AA000873091F040E355E760E070E08BE299E108
:103AB000DF91CF91FF90EF90DF90CF90BF90AF90CC
:103AC0009F908F900C942B9BEB010E940A9B81117D
:103AD00007C040E355E760E070E085EF99E1E8CF8B
:103AE0008981833009F454C0B8F4813009F466C088
:103AF000C12CD12C60EFE62E61E4F62E823009F461
:103B00005AC0DF91CF91FF90EF90DF90CF90BF90A0
:103B1000AF909F908F900895843009F446C0C12CD7
:103B2000D12C97E8E92E93E4F92E812C912C20EFEB
:103B3000A22E21E4B22E853021F720E030E040E8CB
:103B400050E46091280A7091290A80912A0A909184
:103B50002B0A0E9429F942E00E94FBCE40E0C501F9
:103B6000B4010E94FBCE41E0C701B6010E94FBCE2A
:103B700042E060E070E0CB01DF91CF91FF90EF90E9
:103B8000DF90CF90BF90AF909F908F900C94FBCE22
:103B9000C12CD12C40EFE42E41E4F42E812C912C49
:103BA00057E8A52E53E4B52EC8CFC12CD12C37E849
:103BB000E32E33E4F32E46015701BFCFC12CD12CA5
:103BC00086E1E82E83E4F82EF6CFCF93DF93EB0166
:103BD0000E940A9B81110AC040E355E760E070E053
:103BE00085EF99E1DF91CF910C942B9B809110028E
:103BF0008F5F8230E0F420E030E04AE253E46091ED
:103C0000A30D7091A40D8091A50D9091A60D0E9419
:103C10006CF287FF07C040E355E760E070E08BE39C
:103C200099E1E0CF8981882329F0813039F1DF9152
:103C3000CF91089560910A0270910B0290E080E0AC
:103C40000E9470F29B01AC0160912C0A70912D0AC8
:103C500080912E0A90912F0A0E9428F960932C0AD5
:103C600070932D0A80932E0A90932F0A60E070E0E3
:103C700080E090E4DF91CF910C942D9160910A0245
:103C800070910B0290E080E00E9470F220912C0A6B
:103C900030912D0A40912E0A50912F0A0E9429F945
:103CA000DDCFCF93DF93EB010E940A9B811103C00C
:103CB000DF91CF9111CE898190910902923029F044
:103CC0009330C1F0DF91CF910895882371F06DECAE
:103CD0007CEC8CEC9DEB0E949DCF0E949ED10E94BB
:103CE0001C9B81E080932107EDCF6DEC7CEC8CEC8C
:103CF0009DE3F1CF882329F06AE077ED83E29CEB26
:103D0000EACF6AE077ED83E29CE3E5CFCF93DF93E0
:103D1000EB010E940A9B811103C0DF91CF91D4CDAA
:103D200068817981762767277627072E000C880B14
:103D3000990B0E9472F220E030E048EC52E40E94BD
:103D400005FA20911D0E30911E0E40911F0E5091CC
:103D5000200E0E9428F90E949DCF0E949ED10E94B1
:103D60001C9B81E080932107DF91CF910895FB0197
:103D70008181882319F0813079F008956AE077ED28
:103D800083E29CE30E949DCF0E949ED10E941C9BD7
:103D900081E08093210708956AE077ED83E29CEB50
:103DA000F1CFFB0160817181762767277627072E87
:103DB000000C880B990B0E9472F220E030E048EC76
:103DC00052E40E9405FA20911D0E30911E0E409182
:103DD0001F0E5091200E0E9428F90E949DCF0E9434
:103DE0009ED10E941C9B81E0809321070895FB01D6
:103DF0008181813031F0823039F081E08093210778
:103E000008950E947582F9CF0E944D82F6CFCF931C
:103E1000FB01C181C13051F40E94BC99811108C0DD
:103E20000E94D699811104C0C0932107CF910895B3
:103E3000CF910C94C598CF93FB01C181C13031F46F
:103E40000E94BC99811104C0C0932107CF910895AD
:103E50004CEF58E163E079E184E00E941FCB8CE3F2
:103E600090E30E9495C788EF98E19093180980939A
:103E70001709ECCF80910E0290910F0297FF08C0B6
:103E800040E355E760E070E087EE98E10C942B9BEF
:103E90000E942BDC882381F08091860D85FD0CC06B
:103EA0000E940A9B811101C00FCD87E799E00E9413
:103EB000F6D283E080935A090895CF93DF93FB01F4
:103EC00081818130D1F040F0823019F181E080931E
:103ED0002107DF91CF9108958091860D86FDF9CF5E
:103EE00010921D0710921C078FEF9FEF90930F0207
:103EF00080930E020E946AD2E9CF80911C079091B4
:103F00001D07009731F3019790931D0780931C07BD
:103F1000DDCFC0911C07D0911D0726960E94DDDBE6
:103F20008C179D07B0F280911C0790911D07019698
:103F3000EBCF1F93CF93DF93EC01FB0111818881BD
:103F400099818130904289F48091860D84FD0BC067
:103F500040E355E760E070E08DEB98E1DF91CF91B1
:103F60001F910C942B9B0E9453D28881998182309F
:103F7000904279F40E94BC99882339F040E355E7D8
:103F800060E070E084EA98E1E9CF0E94D69981115F
:103F9000F5CF888199818330904231F010935A098E
:103FA000DF91CF911F9108950E94BC998111F6CFA6
:103FB0000E94D6998111F2CF40E355E760E070E0AE
:103FC0008DE898E1CBCFFC0101900020E9F79F013B
:103FD00021503109281B390B2F33310540F4FC01E6
:103FE000E20FF31F60832E33310509F0118208952B
:103FF000CF93DF93EC0140E450E00E9466F1CE01E4
:10400000DF91CF910895AB01BC014093820D509395
:10401000830D6093840D7093850D8DED96E10C9466
:10402000EED6EF92FF920F931F93CF93DF93CDB70E
:10403000DEB764970FB6F894DEBF0FBECDBF7C012C
:10404000FB0160817181828193818E010F5F1F4F1F
:10405000248141E00E9498EDF70101900020E9F7EA
:104060009F01215031092E193F092E31310550F49D
:104070004FE150E0421B530BBC01C701820F931F5D
:104080000E94B5F1C70164960FB6F894DEBF0FBE6B
:10409000CDBFDF91CF911F910F91FF90EF900895C9
:1040A000CF93DF93EC01FC0101900020E9F7CF01F1
:1040B00001978C1B9D0B8F33910540F440E450E039
:1040C000481B590B8C0F9D1F0E94B5F1CE01DF914B
:1040D000CF910895EF92FF920F931F93CF93DF93A9
:1040E000CDB7DEB764970FB6F894DEBF0FBECDBF75
:1040F0007C01FB0160817181828193818E010F5F60
:104100001F4F248141E00E9498EDBC01C701C8DF28
:1041100064960FB6F894DEBF0FBECDBFDF91CF918E
:104120001F910F91FF90EF9008950C94CBC5809153
:10413000410590914205009731F04AE050E070E06F
:1041400060E00C9438F060E070E0CB01089580915D
:10415000410590914205009731F04AE050E070E04F
:1041600060E00C940BEF60E070E0CB010895EFDFAE
:1041700097FD0AC0ECDF6F3F71058105910509F0DD
:104180002CF4E5DF862F089580E008958FEF0895E1
:10419000CF93C62F5FDA882311F0CF91E8CF8C2F11
:1041A000CF9108958091410590914205892B39F076
:1041B000DEDF91E0811101C090E0892F089591E048
:1041C000FCCFCF93DF93C82FD62F44DA882319F082
:1041D000DF91CF91E7CF8C2FEFD9811101C08D2FC7
:1041E000DF91CF910895B3DFCB010895CF93DF9393
:1041F000EB0130DA882319F0DF91CF91F4CFCE01B3
:10420000DF91CF9108950F931F93CF938091410534
:1042100090914205009709F1FC018F01C1912C2F6B
:104220002F7DA1F0C53431F0C53621F0C83511F02D
:10423000C83799F7F801108270E060E00E94B5ED90
:10424000F801C083CF911F910F91089570E060E055
:10425000CF911F910F910C94B5ED60E070E0CB0110
:10426000F1CFCF92DF92EF92FF926A017B01F2D9F8
:10427000882329F0FF90EF90DF90CF90C4CFC70143
:10428000B601FF90EF90DF90CF900895EF92FF92EC
:104290000F931F93CF93DF93CDB7DEB72C970FB655
:1042A000F894DEBF0FBECDBF7C017F936F9389EC86
:1042B00094E09F938F938E010F5F1F4F1F930F9377
:1042C0000E945AFCB801C701EBDE0F900F900F90CF
:1042D0000F900F900F902C960FB6F894DEBF0FBE84
:1042E000CDBFDF91CF911F910F91FF90EF90089577
:1042F000EF92FF920F931F93CF93DF93CDB7DEB76B
:10430000A4970FB6F894DEBF0FBECDBFF82E8093F2
:10431000CF098FE18F1508F489C08091CE09F81676
:1043200024F081E08F0D8093CE0981E090E00F2C86
:1043300002C0880F991F0A94E2F7092E000CAA0BFD
:10434000BB0B4091D0095091D1096091D209709175
:10435000D30984239523A623B72321E0892B8A2B15
:104360008B2B09F420E02093CD09F7FC62C04FE1CC
:1043700050E06DE475E08E010F5F1F4FC8010E9491
:1043800066F1F80101900020E9F7CF010197801B49
:10439000910B8E31910560F420E2F801E80FF91FCE
:1043A00020838D31910521F08C0F9D1FFC0112821D
:1043B0008F2D0F2C000C990B9F93FF9289EC94E0AA
:1043C0009F938F937E01F0E2EF0EF11CFF92EF922C
:1043D0000E945AFCF80101900020E9F7CF010197F3
:1043E000801B910B0F900F900F900F900F900F90DC
:1043F0008E31910548F44FE150E0481B590BB7014D
:10440000800F911F0E94B5F140E060E0C8010E945A
:10441000ED98A4960FB6F894DEBF0FBECDBFDF9126
:10442000CF911F910F91FF90EF9008951092CD09B9
:104430009CCF0E9499CAEDCFCF92DF92EF92FF926C
:10444000CF936B017C01C42F8091BE148F5F09F460
:10445000CEC08093BE148091BE148093781520E066
:1044600030E040E752E460911302709114028091B1
:104470001502909116020E94D1F20E9472FA709376
:10448000D0146093CF1480911102909112029093F6
:10449000D2148093D11480911702909118029093B6
:1044A000D4148093D314C092D514D092D614E09231
:1044B000D714F092D81480917715C0FB80F98093BF
:1044C000771587E0EDECF9E0A9EDB4E101900D92EC
:1044D0008A95E1F78CE0EAE0F9E0A0EEB4E1019022
:1044E0000D928A95E1F78CE0EFE5F9E0ACEEB4E1EE
:1044F00001900D928A95E1F7809159079091771577
:1045000080FB94F990937715882381F0809155076B
:1045100090915607A0915707B09158078093F814CF
:104520009093F914A093FA14B093FB148091A70D03
:104530009091A80D9093FD148093FC148091DB075B
:104540009091DC079093FF148093FE1480917A146D
:10455000809300158091771590918D0990FB83F9D8
:104560008093771580918E0990918F09A091900981
:10457000B09191098093011590930215A0930315B2
:10458000B09304150E94D1966093721570937315C1
:1045900080937415909375158091BD148093761552
:1045A0009091D4098091771593FB81F990913B0705
:1045B00090FB82F98093771580E00E94E5DF40E070
:1045C00050E0BA018EE795E10E94EED64BEB50E049
:1045D0006EEB74E18EE795E10E9410D88EE795E1CD
:1045E000CF91FF90EF90DF90CF900C94DF7D81E032
:1045F00030CF0E9432C60E9401C61092C0070895B3
:10460000AF92BF92CF92DF92EF92FF920F931F93E0
:10461000CF935C016B018A0187519B4F7C01DC01C8
:10462000CC91C7FF3DC0FB0111821082CF5FD70143
:10463000CC93CC300CF053C08CE08A9DF0018B9D64
:10464000F00D1124CF018C0F911DC7FD9A9520917B
:10465000110E2817190609F00CF441C0F60120814B
:104660003181FC01EE0FFF1FE80FF91FE753F24FF6
:1046700081819281820F931FD80111969C938E9312
:10468000808187FF3DC061E08F77CF911F910F91AF
:10469000FF90EF90DF90CF90BF90AF900C94F9CF48
:1046A0008CE08A9DF0018B9DF00D1124CF018C0FC1
:1046B000911DC7FD9A952091110E2817190609F032
:1046C0000CF4B4CFFC01EE0FFF1FE80FF91FE75306
:1046D000F24F808160E08F770E94F9CFA7CFF6017B
:1046E0008081918104968034FCE99F0710F480E476
:1046F0009CE9D80111969C938E938FEFF7018083EC
:10470000CF911F910F91FF90EF90DF90CF90BF90CE
:10471000AF900895AF92BF92CF92DF92EF920F9336
:104720001F93CF935B01C42F122F62E8B5D8C50148
:104730000E947AF16C018C2F90E0C816D90620F502
:10474000C114D10431F1CC19112379F0011110C039
:1047500010E000E00C151D05E1F0F501E00FF11F80
:10476000849146D80F5F1F4FF5CF10E0011107C0AD
:104770008C199D09969587951C2F181BC82FC15021
:1047800030F080E235D8FBCF6C01C0E0E1CFC12F23
:10479000DFCF10E2E11001C010E0C15018F0812F0E
:1047A00027D8FBCFCF911F910F91EF90DF90CF9043
:1047B000BF90AF900895AF92BF92CF92DF92EF92E9
:1047C0000F931F93CF935B01C42F122F62E864D81D
:1047D000F50101900020E9F731976F01CA18DB0855
:1047E0008C2F90E0C816D90618F5C114D10429F110
:1047F000CC19112369F001110EC0CA0CDB1CCA14BC
:10480000DB04D9F0F50181915F010E94F81BF7CF1D
:1048100010E0011107C08C199D09969587951C2FF2
:10482000181BC82FC15038F080E20E94F81BFACF45
:104830006C01C0E0E2CFC12FE0CF10E2E11001C077
:1048400010E0C15020F0812F0E94F81BFACFCF91C9
:104850001F910F91EF90DF90CF90BF90AF90089590
:10486000FF920F931F93CF93DF93F62E072F142FF2
:1048700062E812D8CF2DD02F115020F089910E94DC
:10488000F81BFACFDF91CF911F910F91FF90089500
:104890002BE934E1F901459154914115510571F02D
:1048A0004817590741F4CB014AE050E0B9010E9492
:1048B00040F181E00895265F3F4F61F780E0089561
:1048C000CF93DF931F921F92CDB7DEB7853608F0E6
:1048D00084E6682F70E090E080E00E9472F220E0B1
:1048E00030E04FE753E40E94D1F220E030E048ECA2
:1048F00052E40E9405FA20E030E0A9010E9429F963
:104900000E945CFB6093EC031A821982698342E087
:10491000BE016F5F7F4F81EA90E0A2DF0F900F90A2
:10492000DF91CF910895FB018181CADF0C941C9B1C
:10493000CF93DF931F921F92CDB7DEB7853608F075
:1049400084E680931F02682F70E090E080E00E9470
:1049500070F220E030E04EEB52E40E94D1F220E011
:1049600030E048EC52E40E9405FA20E030E040EAF2
:1049700050E40E9429F90E945CFB69836A8342E04B
:10498000BE016F5F7F4F82E890E06ADF0F900F906B
:10499000DF91CF910895FB018181CADF0C941C9BAC
:1049A0006091EC0370E090E080E00E9470F220E003
:1049B00030E048EC52E40E94D1F220E030E04FE7D2
:1049C00053E40E9405FA20E030E0A9010E9429F991
:1049D0000E945CFB862F08958091F906882321F0C0
:1049E0008091F806811109C041E063E88FE090E012
:1049F0000E944C1C81E00C94F81B0895CF93DF9328
:104A0000C091DB07D091DC07209729F16091D7078F
:104A10007091D8078091D9079091DA070E946DFABA
:104A20006E5F7F4F24976C177D07ACF47093C307BC
:104A30006093C2070E941FD1605679478E4F9F4FE7
:104A40006093C4077093C5078093C6079093C70708
:104A5000DF91CF9108951092C4071092C50710926C
:104A6000C6071092C707F4CF2F923F924F925F92E2
:104A70006F927F928F929F92AF92BF92CF92DF926E
:104A8000EF92FF920F931F93CF93DF93D62FC72FF1
:104A9000FC0180809180A280B380C501B40120E830
:104AA00031E541E050E00E9496F8C9016DE671E001
:104AB0000E94F9F86B017C01C501B40120E13EE0E0
:104AC00040E050E00E9496F8CA01B90128E130E0C8
:104AD00040E050E00E9496F8362E272E062F172F22
:104AE0008CE3482E512C612C712CC501B401A3011B
:104AF00092010E9496F8B62EA72ECA01B901A30111
:104B000092010E9496F8CB01C114D10479F1AF92C1
:104B1000BF927F936F932F923F92FF92EF92DF921B
:104B2000CF9285EA91E19F938F93CF93DF930E9479
:104B300005F28DB79EB70E960FB6F8949EBF0FBEC6
:104B40008DBF8D2F9C2FDF91CF911F910F91FF90E3
:104B5000EF90DF90CF90BF90AF909F908F907F901D
:104B60006F905F904F903F902F900895E114F10463
:104B7000C9F0AF92BF927F936F932F923F92FF92B3
:104B8000EF9285E991E19F938F93CF93DF930E94FA
:104B900005F2EDB7FEB73C960FB6F894FEBF0FBE18
:104BA000EDBFCFCF012BB9F0AF92BF927F936F9340
:104BB0002F923F9289E891E19F938F93CF93DF9358
:104BC0000E9405F28DB79EB70A960FB6F8949EBF65
:104BD0000FBE8DBFB6CF892BA9F0AF92BF927F9346
:104BE0006F9381E891E19F938F93CF93DF930E941E
:104BF00005F2EDB7FEB738960FB6F894FEBF0FBEBC
:104C0000EDBF9FCFAF92BF928DE791E19F938F93BE
:104C1000CF93DF930E9405F20F900F900F900F90AB
:104C20000F900F908ECF8F929F92AF92BF92CF92A4
:104C3000DF92EF92FF920F931F93CF93DF93109227
:104C40006605109265052FE320936A0510926905A9
:104C500010926805109267051092390610923A0674
:104C600010923B0610923C069C01F90190812F5F47
:104C70003F4F9032D1F39E34C9F4818190ED980F6B
:104C80009A3020F08D3211F08B3281F432969F01F0
:104C90002F5F3F4F808180538A3008F44CC09F01C2
:104CA0002F5F3F4F8081803209F447C0F09376092F
:104CB000E09375098F010F5F1F4FC0816AE270E0BA
:104CC000C8010E942FFC009731F0FC0131978081D0
:104CD0008032E1F31182CD3421F0C43511F0C734B4
:104CE000E9F4D8018C910F5F1F4F8032D1F38053CC
:104CF0008A30A0F4C0936A0530E020E06AE0FD014C
:104D000031968C9180532A3999E13907D0F030934C
:104D10006905209368058FE380936A05DF91CF9141
:104D20001F910F91FF90EF90DF90CF90BF90AF90C9
:104D30009F908F900895F901AACFF901B0CFDF01BC
:104D4000DECF293999E1390711F4863000F7629FE7
:104D5000A001639F500D11249A01280F311D8081FD
:104D600090ED980F9A3058F33093690520936805B9
:104D70008E3261F4129690E04AE0FD011196808136
:104D800050ED580F5A30C0F090936705DF0131960F
:104D90008C918032D9F3CD34F9F42E31310539F0CC
:104DA00088F42731310519F02C313105A9F4B0937D
:104DB0006605A0936505B2CF949F800D112490EDF8
:104DC000980FDBCF2537310538F02737310578F3D9
:104DD000203AE3E03E0759F3D091750940E050E0F6
:104DE000BA0110E000E0C12CD12C7601C394FD0182
:104DF00031968C91882309F47FC08132E1F4CD345F
:104E0000D1F420323105B9F44093390650933A0673
:104E100060933B0670933C06F0936605E09365054E
:104E200063E270E0CF010E942FFC009709F476CF77
:104E3000FC01108273CF81548A3108F058C0DF0121
:104E40009D91903291F0A0EDA90FAA30E8F09E322A
:104E500071F4918190539A30B8F00115110519F44D
:104E60008F010150110990E013C0FD01E8CF9D3280
:104E700011F09B3291F79181A0EDA90FAA3020F09B
:104E80009E3259F79281E6CF9E2F9D1B309759F3A2
:104E9000A82FB0E04601570104C0880C991CAA1C39
:104EA000BB1C8A95D2F7482959296A297B29A55B19
:104EB000BA4F9C9380818154DF018A3108F497CFE7
:104EC000DF018191882309F492CF90ED980F9A30F9
:104ED000B8F393ED980F923098F38B3289F3CD01AC
:104EE0000196EC91E03209F082CFDC01F8CF011598
:104EF000110501F78D01DECF10936605009365055E
:104F00004093390650933A0660933B0670933C06F3
:104F100005CFCF93DF93EC018991882319F00E948C
:104F2000CBC5FACF8DE00E94CBC58AE0DF91CF914F
:104F30000C94CBC50C9414C790915E09992321F071
:104F4000682F80E00E94F59480E00895682F70E05B
:104F500090E080E00C947CC71F93CF93DF931BEB12
:104F6000CEEBD4E1FE01812F11928A95E9F70E94E0
:104F70003FD2882359F0FE0111921A95E9F786E98C
:104F800094E0DF91CF911F910C940AE0DF91CF91D3
:104F90001F9108958091BE14882361F09091781537
:104FA000891308C08091860D84FF04C085E095E1D7
:104FB0000C94F7DD80E00895FC01238121110C940D
:104FC000DF7D0895CF93DF93C091A70DD091A80DF9
:104FD000209729F16091A30D7091A40D8091A50DEA
:104FE0009091A60D0E946DFA6E5F7F4F26976C1709
:104FF0007D07ACF47093E8076093E7070E941FD128
:1050000060547B428E4F9F4F6093E9077093EA078D
:105010008093EB079093EC07DF91CF910895109266
:10502000E9071092EA071092EB071092EC07F4CF11
:10503000CF93DF93EC018991882319F00E94CBC5AF
:10504000FACFDF91CF910895682F70E090E080E073
:105050000C9414C7CF93C1E020E030E0A901609127
:1050600044077091450780914607909147070E9439
:105070006CF2811101C0C0E08C2FCF910895CF93C5
:10508000C82F882319F0E6DF8823C9F080918D09A5
:105090008C17A9F00E94968480E29AE00E94938681
:1050A00080918D0991E0892780938D09882321F0D3
:1050B00080E29AE00E947383CF910C940F93CF917A
:1050C00008950E940A9B811102C00C94641C80E028
:1050D000D6DF0E941C9B81E08093210708954F92A8
:1050E0005F926F927F928F929F92AF92BF92CF9278
:1050F000DF92EF92FF920F931F93CF93DF93EC0118
:1051000020913C0730913D0740913E0750913F0769
:10511000688179818A819B810E9428F96B017C01D9
:105120002091400730914107409142075091430739
:105130006C817D818E819F810E9428F94B015C01E9
:10514000A70196016091290570912A0580912B0590
:1051500090912C050E946CF2882309F45AC0C092E9
:105160002905D0922A05E0922B05F0922C0520917A
:105170002105309122054091230550912405C70156
:10518000B6010E94D1F22B013C010E949EFA6B01F4
:105190007C0120E030E0A9010E946CF287FD7AC01A
:1051A00020E030E040E850E4C701B6010E9450FB27
:1051B000181634F4C12CD12CC0E8EC2EC0E4FC2E1F
:1051C000A7019601C301B2010E9428F92B013C01FD
:1051D00020E030E0A9010E946CF287FD5FC04092A0
:1051E000190550921A0560921B0570921C05C701A3
:1051F000B6010E946DFA60931705062E000C770B1E
:105200006F5F7F4F6430710514F064E070E060936D
:105210001505D091130510911705A5019401609112
:105220002D0570912E0580912F05909130050E94DB
:105230006CF281113CC0D11394C02091FB043091D9
:10524000FC044091FD045091FE0460911905709199
:105250001A0580911B0590911C050E94D1F22091A6
:10526000FF043091000540910105509102050E9414
:1052700029F9DF91CF911F910F91FF90EF90DF906F
:10528000CF90BF90AF909F908F907F906F905F90E6
:105290004F900895C12CD12C760192CF1092190510
:1052A00010921A0510921B0510921C05A0CF809237
:1052B0002D0590922E05A0922F05B09230052091D9
:1052C0002505309126054091270550912805C501F7
:1052D000B4010E94D1F24B015C010E949EFA6B0165
:1052E0007C0120E030E0A9010E946CF287FDFDC046
:1052F00020E030E040E850E4C701B6010E9450FBD6
:10530000181634F4C12CD12CB0E8EB2EB0E4FB2EEF
:10531000A7019601C501B4010E9428F94B015C0167
:1053200020E030E0A9010E946CF287FDE2C080928B
:105330001D0590921E05A0921F05B0922005C70181
:10534000B6010E946DFA60931805062E000C770BCB
:105350006F5F7F4F6430710514F064E070E060931C
:105360001605C0911805D11305C0809114058C173E
:1053700009F470C080911705909118059093140559
:10538000809313050C2E000CDD0B25E01203C001E9
:105390001124FC01EC0FFD1FEE0FFF1FEE0FFF1F8E
:1053A000E65AF84F208131814281538120930F05C5
:1053B0003093100540931105509312050091160586
:1053C000002E000C110BFC01E00FF11FEE0FFF1F70
:1053D000EE0FFF1FE65AF84F608171818281938141
:1053E0000E9428F960930B0570930C0580930D05BE
:1053F00090930E052091150535E02303F00111244B
:10540000CE0FDF1FCC0FDD1FCC0FDD1FC65AD84FCC
:10541000288139814A815B812093070530930805F3
:105420004093090550930A05E00FF11FEE0FFF1F8F
:10543000EE0FFF1FE65AF84F6081718182819381E0
:105440000E9428F960930305709304058093050575
:105450009093060580901D0590901E05A0901F0555
:10546000B090200520910B0530910C0540910D0561
:1054700050910E05C501B4010E94D1F220910F0593
:105480003091100540911105509112050E9429F9A3
:105490006B017C01C092FF04D0920005E0920105EF
:1054A000F092020520910305309104054091050515
:1054B00050910605C501B4010E94D1F22091070563
:1054C000309108054091090550910A050E9429F97B
:1054D000A70196010E9428F96093FB047093FC04D5
:1054E0008093FD049093FE04A8CEC12CD12C7601AC
:1054F0000FCF10921D0510921E0510921F051092DD
:1055000020051DCFE9E2F5E080EF9FEFA9E7B4ECBD
:1055100084839583A683B78380839183A283B38397
:10552000E3E1F5E08DE98183808308958F929F9276
:10553000AF92BF92CF92DF92EF92FF92FC0198E080
:10554000A4E4B7E001900D929A95E1F788E0FB01A1
:10555000ACE3B7E001900D928A95E1F7C090440763
:10556000D0904507E0904607F090470720E030E0F4
:10557000A901C701B6010E946CF28823E1F1A701DD
:10558000960160E070E080E89FE30E9405FA6B01FD
:105590007C018090480790904907A0904A07B090FE
:1055A0004B0720E030E0A901C501B4010E946CF274
:1055B000882329F1A501940160E070E080E89FE371
:1055C0000E9405FAC0922105D0922205E09223059F
:1055D000F092240560932505709326058093270596
:1055E00090932805FF90EF90DF90CF90BF90AF9001
:1055F0009F908F900895C12CD12C7601CACF60E086
:1056000070E0CB01DFCF8F929F92AF92BF92EF926B
:10561000FF920F931F93CF93DF9310924007109246
:105620004107109242071092430710923C071092D4
:105630003D0710923E0710923F07109248071092C4
:10564000490710924A0710924B0710924407109294
:10565000450710924607109247070AE517E0C0E099
:10566000812C912C80ECA82E8FE7B82E7801D0E009
:10567000F70181929192A192B1927F016D2F8C2FAF
:105680000E94BFA0DF5FD53099F7CF5F0C5E1F4F40
:10569000C53061F7DF91CF911F910F91FF90EF908F
:1056A000BF90AF909F908F900895EFE6F0E08081DB
:1056B00082608083089580916F0990917009892B91
:1056C00079F480916F0990917009892B49F42091A8
:1056D0006F093091700981E0232B19F480E008955F
:1056E00081E00895CF93DF93EC01FE018491219630
:1056F000882319F00E949520F8CFDF91CF9108956B
:10570000CF93DF93EB01EEDFCE01DF91CF9190CC11
:10571000CF92DF92EF92FF926A017B01E3DF42E0DA
:10572000C701B601FF90EF90DF90CF900C94A8C70F
:105730008DE295E0D7CF87E295E0D4CF8AE00C9454
:105740009520CF93DF9361E571E10E94EFC9C0918D
:10575000210ED091220E488159816A817B8188E493
:1057600091E1D6DF4C815D816E817F818FE490E392
:10577000CFDF40911D0E50911E0E60911F0E709153
:10578000200E8CE490E3C4DF85E491E1ABDF8EE68C
:105790009FE1A8DFDF91CF91D1CF0F931F93CF93DC
:1057A0008C01C62F8DE09EE09DDFC8019BDF8AE360
:1057B0000E94CBC580E38C0F0E949520CF911F9152
:1057C0000F91BCCFCF9389E090E18CDFB7DFE09100
:1057D0005A0282E6E89FF0011124E354FD4FC08194
:1057E00060E089EF9FE0D9DF60E084EE9FE0D5DFE5
:1057F00061E08DED9FE0D1DF61E082ED9FE0CDDFE4
:1058000060E083EC9FE0C9DF61E083EB9FE0C5DFF0
:1058100060E08AEA9FE0C1DF61E080EA9FE0BDDFEF
:1058200061E086E99FE0B9DF61E08FE89FE0B5DFE6
:1058300061E087E89FE0B1DF61E089E79FE0ADDFED
:1058400060E08BE69FE0A9DF60E08CE59FE0A5DFEC
:1058500060E08EE49FE0A1DF60E088E39FE09DDFF1
:1058600060E087E29FE099DF61E082E19FE095DF01
:1058700061E083E09FE091DF61E08CEF9EE08DDFEF
:1058800060E08FEE9EE089DF60E088EE9EE085DFDD
:1058900061E08FED9EE081DF60E08AEC9EE07DDFDD
:1058A00060E08CEB9EE079DF60E082EB9EE075DFEC
:1058B00060E08BE99EE071DF60E08EE89EE06DDFE6
:1058C00061E08BE79EE069DF60E08EE69EE065DFE9
:1058D00061E089E69EE061DF61E08CE59EE05DDFEE
:1058E00060E080E59EE059DF60E08CE39EE055DFFC
:1058F00060E089E29EE051DFC7FD1AC060E0809160
:105900007A1590917B15CC2339F0C13089F461E090
:1059100080917C1590917D150E94791A682F617095
:1059200080E29EE03ADF60E082E19EE0CF9135CFF9
:1059300080E0F4CFCF92DF92EF92FF926A017B0179
:10594000D1DEC701B6010E947CC7FF90EF90DF90C7
:10595000CF90F4CE0F931F93CF93883038F5082F54
:10596000082E000C110BC091791591E001C0990F20
:105970008A95EAF7909379150E9499C787E6809FE8
:10598000F001819FF00D1124E559FA4F40815181BA
:10599000628173814F5F5F4F6F4F7F4F84E791E16B
:1059A000C9DF80E791E19EDEC0937915CF911F9109
:1059B0000F910895EF92FF920F931F93CF93DF9370
:1059C0007C01C62F062F062E000C110B80E06830DC
:1059D00028F481E001C0880F6A95EAF7D091791523
:1059E00080937915A5DE87E6809FF001819FF00DF9
:1059F0001124E559FA4F4081518162817381C701B9
:105A000099DF8C2F0E94FA190196D9F78C2FA2DF0B
:105A100087E6809FF001819FF00D1124E559FA4F30
:105A200015821482D0937915DF91CF911F910F9138
:105A3000FF90EF9008950F931F93CF93811111C0A2
:105A4000C42F8B0178DE88E29CE04CDEC8014ADE80
:105A5000CC2339F08AE30E949520CF911F910F91BA
:105A60006DCECF911F910F910895CF93C82F41E034
:105A700064EF79E0E0DFC11101C05DDE40914D07C8
:105A800050914E0760914F07709150078BEE99E04F
:105A90003FDE40915107509152076091530770913A
:105AA000540788EE99E034DE85EE99E01BDE8EE641
:105AB0009FE118DECF9142CECF93C82F41E06BEC2F
:105AC00078E0B9DFC11101C036DE4091BB0D5091C5
:105AD000BC0D6091BD0D7091BE0D82EC98E018DE9A
