:100000000C94AF150C94E0150C94E0150C94E015CD
:100010000C94E0150C94E0150C94E0150C94E0158C
:100020000C94E0150C94F5840C94EB840C947B8474
:100030000C94E0150C94E0150C94E0150C94E0156C
:100040000C94E0150C94399F0C94E0150C94E01579
:100050000C94E0150C94E0150C94E9C10C94D5B700
:100060000C94E0150C94BFB40C94E0150C94E015BE
:100070000C94E0150C94E0150C94E0150C94E0152C
:100080000C94AE5C0C94E0150C94E0150C94E01507
:100090000C94B1B40C94E0150C94E0150C94E0159C
:1000A0000C94E0150C94E0150C94815C0C94E01514
:1000B0000C94E0150C94E0150C94E0150C94545C31
:1000C0000C94E0150C94E0150C94E0150C9404B518
:1000D0000C94E0150C94E0150C94A3B40C94E0156A
:1000E0000C94E015922E972E9C2EA62EB02E292F22
:1000F000BA2EC22ECA2ED42EDE2EE82EF72E012FB7
:10010000292F0B2F152F1F2F67317C36DB38A53B8E
:100110003C3B5D3B283B283BA53BA53BA53BA53B8A
:10012000A53BA53BA53BA53B7E3B873B903B9E3B30
:10013000A23B74317D318131873191319B31A531C1
:10014000A53BB931C331CC31D531E931EF311A3268
:1001500032324A326B32A53B733279329432A53B4C
:10016000C232A53BA53BA53BA53B26358135A53B2A
:10017000A53BA53BA53BA53BDC35E535EE35F73585
:10018000003609361B361236A53BA53BA53BA53BE1
:10019000A53BA53B2436AF312F363D36A53B4B362C
:1001A0005C366D36A53BA53BA53BA53BA53BA53BDA
:1001B000A53B9C33A633AD338E34BD34EB32413393
:1001C0009CB69FB68EB692B698B6D6B6A3B6A7B66C
:1001D000ADB6B1B6B5B6BBB6BFB6C3B6D6B6C9B680
:1001E000CDB6D1B6084AD73B3BCE016E84BCBFFD2D
:1001F000C12F3D6C74319ABD56833DDA3D00C77FF7
:1002000011BED9E4BB4C3E916BAAAABE000000808F
:100210003F05A84CCDB2D44EB93836A9020C50B91E
:10022000918688083CA6AAAA2ABE000000803F004A
:10023000434F4D4D554E49434154494F4E00445252
:100240005952554E004552524F525300494E464F57
:10025000004543484F0047322F47332062616420F6
:10026000706172616D65746572730A00205A3A207C
:100270000020593A200042656420583A20004D651C
:10028000736820706F696E742063616E6E6F742086
:100290006265207265736F6C7665640A00456E64F2
:1002A0002066696C65206C6973740A004265676931
:1002B0006E2066696C65206C6973740A0053442073
:1002C0007072696E74696E67206279746520004E81
:1002D0006F74205344207072696E74696E670A00EF
:1002E00046696C652064656C657465643A004465B4
:1002F0006C6574696F6E206661696C65642C20465C
:10030000696C653A20006F70656E206661696C6586
:10031000642C2046696C653A2000256973002569C4
:100320006D20256973002569682025696D20256980
:100330007300256964202569682025696D20256979
:10034000730025697920256964202569682025695D
:100350006D20256973005072696E742074696D6533
:100360003A200050726F7465637465642050696E42
:100370000A0051024C0245023E0230026F666600DE
:1003800044454255473A004B494C4C45442E2000C9
:100390004D3131332053006F6B004361703A454D4E
:1003A000455247454E43595F5041525345523A30AA
:1003B0000A004361703A434153455F4C49474854F2
:1003C0005F4252494748544E4553533A300A00431E
:1003D00061703A544F47474C455F4C494748545326
:1003E0003A300A004361703A534F465457415245E0
:1003F0005F504F5745523A300A004361703A4C45BE
:1004000056454C494E475F444154413A310A0043F6
:1004100061703A5A5F50524F42453A310A00436187
:10042000703A4155544F4C4556454C3A310A0043B9
:1004300061703A5052494E545F4A4F423A310A0075
:100440004361703A50524F47524553533A300A0075
:100450004361703A4155544F5245504F52545F5486
:10046000454D503A310A004361703A454550524F6C
:100470004D3A310A004649524D574152455F4E416F
:100480004D453A4D61726C696E20312E312E34200B
:10049000284769746875622920534F555243455F58
:1004A000434F44455F55524C3A68747470733A2F09
:1004B0002F6769746875622E636F6D2F4D61726C62
:1004C000696E4669726D776172652F4D61726C69F4
:1004D0006E2050524F544F434F4C5F564552534934
:1004E0004F4E3A312E30204D414348494E455F54DE
:1004F0005950453A4933504C55532045585452555C
:100500004445525F434F554E543A31205555494466
:100510003A63656465326132662D343161322D345F
:100520003734382D396231322D63353563363266D2
:1005300033363766660A002F2F200066696C616DBE
:10054000656E743A20007A5F6D696E3A2000795FBB
:100550006D696E3A2000785F6D696E3A20005265D1
:10056000706F7274696E6720656E6473746F70204B
:100570007374617475730A0053657474696E6720CF
:1005800054726176656C20416363656C6572617459
:10059000696F6E3A200053657474696E6720526506
:1005A000747261637420416363656C657261746920
:1005B0006F6E3A200053657474696E6720507269DB
:1005C0006E7420416363656C65726174696F6E3A25
:1005D000200053657474696E67205072696E7420D0
:1005E000616E642054726176656C20416363656C52
:1005F00065726174696F6E3A200000013D3E3C36C1
:10060000FF40410218FF43454206FFFFFF0305FF7D
:10061000FFFF3A3B39FFFF034404FF37FFFFFFFFB3
:10062000FFFF206F7574206F662072616E67650A28
:1006300000536572766F20003A2000205365727671
:100640006F200020643A0020693A0020703A00428E
:100650006564204C6576656C696E6720004661694B
:100660006C656420746F20656E61626C6520426504
:1006700064204C6576656C696E670A004D65736829
:1006800020706F696E742063616E6E6F7420626596
:10069000207265736F6C7665640A004D34323120C8
:1006A000696E636F727265637420706172616D65EB
:1006B0007465722075736167650A000000000000B0
:1006C00000000000000000546F6F20666172206619
:1006D000726F6D207265666572656E636520706FFE
:1006E000696E740A00204A756C202039203230313E
:1006F000392031363A34343A343200646576656CE8
:100700006F00706572202D592E00532E5A2E0061F5
:10071000626C5F656E61626C65640061626C5F64EF
:10072000697361626C65003A20007A5F6D696E3AA8
:1007300020202D3230207A5F6D61783A20203230CF
:10074000005A204F666673657420004E6F20636107
:100750007365206C696768740A00556E6B6E6F77FD
:100760006E20636F6D6D616E643A202200207A3ACC
:100770000020793A00783A00534420636172642083
:1007800072656D6F7665642E0053442063617264F8
:1007900020696E7365727465642E005461726765BA
:1007A000742066696C65206F70656E206661696C87
:1007B0002E0052656672657368206F6B2E0A000A00
:1007C0004C6576656C696E6720697320696E207070
:1007D000726F67726573732E004D3530300047328B
:1007E000380047323900473238000A4C6576656C6C
:1007F000696E6720697320696E2070726F67726519
:1008000073732E004D393939206F6B2E0A00473231
:100810003820583020593000473238205A300047AD
:1008200032382059300047323820583000473238AB
:1008300000556E6B6E6F776E2E004D353030004B6D
:10084000494C4C45442E2000202D20496E76616C89
:100850006964206578747275646572206E756D6266
:100860006572202100202D20496E76616C6964201C
:100870006578747275646572206E756D626572203C
:10088000210A002020506C616E6E657242756666AA
:10089000657242797465733A20002046726565205E
:1008A0004D656D6F72793A2000436F6D70696C65AC
:1008B000643A204A756C20203920323031390A00E0
:1008C000207C20417574686F723A20286E6F6E65C7
:1008D0002C2064656661756C7420636F6E66696751
:1008E000290A00323031372D30372D303420313263
:1008F0003A303000204C6173742055706461746527
:10090000643A2000312E312E340A004D61726C6938
:100910006E0020536F66747761726520526573654F
:10092000740A00205761746368646F6720526573AE
:1009300065740A002042726F776E206F75742052C2
:10094000657365740A002045787465726E616C2069
:1009500052657365740A00506F77657255700A00AE
:1009600073746172740A006572726F7220777269B3
:1009700074696E6720746F2066696C650A00205A7E
:100980003A0020593A0020583A00656E6473746F3B
:100990007073206869743A200053544F502070726D
:1009A000696E74696E670A004D6F766520617761C4
:1009B00079204F4B2E0A004D6F7665206177617963
:1009C000205820592E0A004D6F7665206177617995
:1009D00020582C592E2E2E0053797374656D207378
:1009E000746F7020666F722073687574646F776EB1
:1009F0002E00446F6E6520736176696E67206669AC
:100A00006C652E0A004D3239004572726F72207784
:100A1000726974696E6720746F20454550524F4D5E
:100A2000210A00290A002062797465733B206372F1
:100A300063200053657474696E67732053746F721A
:100A400065642028007A70726F62655F7A6F6666EF
:100A500073657400202863616C63756C61746564F0
:100A600029210A0020213D2000454550524F4D20AC
:100A7000435243206D69736D61746368202D202893
:100A800073746F726564292000290A0020627974EA
:100A900065733B2063726320002073746F7265641A
:100AA0002073657474696E6773207265747269650A
:100AB000766564202800204D61726C696E3D563069
:100AC00037290A0028454550524F4D3D00454550B5
:100AD000524F4D2076657273696F6E206D69736D2C
:100AE0006174636820004E6F204C696E65204E75FE
:100AF0006D626572207769746820636865636B73E3
:100B0000756D2C204C617374204C696E653A200021
:100B10004B494C4C45442E20005072696E746572EE
:100B20002073746F707065642064756520746F2025
:100B30006572726F72732E20466978207468652022
:100B40006572726F7220616E6420757365204D3915
:100B5000393920746F20726573746172742E202885
:100B600054656D7065726174757265206973207269
:100B7000657365742E2053657420697420616674F2
:100B800065722072657374617274696E67290A00F8
:100B90004E6F20436865636B73756D207769746869
:100BA000206C696E65206E756D6265722C204C61DB
:100BB0007374204C696E653A2000636865636B73DB
:100BC000756D206D69736D617463682C204C617361
:100BD00074204C696E653A20004C696E65204E7534
:100BE0006D626572206973206E6F74204C6173743E
:100BF000204C696E65204E756D6265722B312C201C
:100C00004C617374204C696E653A20004D3131306F
:100C1000004D3331004D383420582059205A20459A
:100C20000053442072656164206572726F720A001D
:100C3000446F6E65207072696E74696E67206669B4
:100C40006C650A0020496E76616C69642065787471
:100C50007275646572200000000000000000000052
:100C60000000000000FA430000FA430000FA43428B
:100C70006C746F756368206572726F722E005354C6
:100C80004F502063616C6C656420626563617573AD
:100C900065206F6620424C546F75636820657272E0
:100CA0006F72202D2072657374617274207769747D
:100CB00068204D3939390A00426C746F75636820B9
:100CC0006572726F722E0053544F502063616C6CCA
:100CD00065642062656361757365206F6620424CB0
:100CE000546F756368206572726F72202D20726573
:100CF00073746172742077697468204D3939390AC8
:100D00000042696C696E656172204C6576656C693C
:100D10006E6720477269643A0A00416374697665B8
:100D20002045787472756465723A20005072696E5D
:100D30007420726573746F72653A7265736574209E
:100D4000656E7669726F6E6D656E74207369676E1D
:100D5000206F6B2E0A005344207265616420657217
:100D6000726F720A00206C653A00206C7A3A00209B
:100D70006C793A006C783A00206C653A00206C7A05
:100D80003A00206C793A006C783A00206C653A00A1
:100D9000206C7A3A00206C793A006C783A006D6FDA
:100DA0007665207A206178697320616E6420652001
:100DB000617869732E0A00536420696E6974206635
:100DC00061696C2120536F2063616E277420726506
:100DD00073756D65207072696E742E00536420699E
:100DE0006E6974206661696C212E0A536F206361FD
:100DF0006E277420726573756D65207072696E74EC
:100E00002E0046696C616D656E742072756E6F752B
:100E10007431323A726573756D6520646F6E652149
:100E20000A0046696C616D656E742072756E6F752F
:100E3000743131210A0020202046696C616D656E95
:100E4000742072756E6F75743131210A576169743F
:100E500020666F72207072696E7420746F207265E4
:100E600073756D652E0046696C616D656E742072D8
:100E7000756E6F757431303A726573756D65206F7C
:100E80007074696F6E210A0046696C616D656E74DD
:100E90002072756E6F75743130210D0A0A00434857
:100EA000414E4745204F5054494F4E533A004669F2
:100EB0006C616D656E742072756E6F757439210A80
:100EC000002020202020202046696C616D656E7412
:100ED0002072756E6F757439210A576169742066C6
:100EE0006F722066696C616D656E742065787472CE
:100EF0007564652E0045584520524553554D452093
:100F000052454C4F41442046494C414D454E54209A
:100F100057414954205741495420574149540A00E8
:100F200045584520524553554D45205052494E5441
:100F30002052454C4F41442046494C414D454E546A
:100F40000A0050415553452046494C414D454E54A9
:100F500020444F4E450A00455845204C4344204903
:100F60004E534552542046494C414D454E54320A49
:100F700000455845204C434420494E534552542087
:100F800046494C414D454E54310A0046696C616DED
:100F9000656E742072756E6F757434210A0020209E
:100FA000202020202046696C616D656E742072756A
:100FB0006E6F757434210A496E73657274206669A8
:100FC0006C616D656E7420616E6420707265737300
:100FD00020627574746F6E20746F20636F6E746915
:100FE0006E75652E0A2057616974696E6720666F99
:100FF00072206368616E67696E672066696C616DF7
:10100000656E742E004361726420696E6974206697
:1010100061696C005072696E7420726573746F72CE
:1010200065203A206F6B20746F2072657072696E54
:101030007420005072696E7420726573746F7265EB
:101040003A207461726765742066696C65206F7000
:10105000656E206661696C2E0A0054617267657462
:101060002066696C65206F70656E206661696C2E04
:10107000005072696E7420726573746F72653A20E5
:101080006661696C206173206361726420696E69B6
:1010900074206661696C2E0A005072696E74207249
:1010A0006573746F72652066726F6D206C61737406
:1010B00020627265616B2E0A0046696C616D656E17
:1010C000742072756E6F7574210A4D616368696E64
:1010D0006520697320686F6D696E672C706C65613F
:1010E000736520776169742E0D0A0A002020202084
:1010F00020202046696C616D656E742072756E6F7C
:101100007574210A4D616368696E65206973206892
:101110006F6D696E672C706C6561736520776169AE
:10112000742E0046696C616D656E742072756E6F09
:101130007574206E6F7420646574656374210D0A84
:101140000A004E6F207072696E74206E656564656A
:10115000642E005072696E7420726573746F7265CC
:101160003A204E4F206E6565642E0A005072696EFB
:101170007420726573746F72653A2071756573744B
:10118000696F6E20746F20726573746F726520468C
:10119000696C653A005072696E7420726573746F81
:1011A00072653A204E4F206E6565640A0020706FAC
:1011B000736974696F6E206F7574206F6620726139
:1011C0006E67652E0A003F50726F626520002066D0
:1011D000697273740A005A0059005800486F6D65AF
:1011E00020004D6172747269782073617665206F9A
:1011F0006B2E0A0052756E6E696E6720696E204410
:1012000052592D52554E206D6F64650A0047323990
:10121000204175746F20426564204C6576656C6969
:101220006E670A0028422961636B00284629726FA5
:101230006E74002852296967687400284C29656615
:1012400074003F2856296572626F7365206C65765D
:10125000656C20697320696D706C61757369626C6F
:10126000652028302D34292E0A00426164205A203E
:1012700076616C75650A004E6F2062696C696E65F7
:10128000617220677269640A0046696C616D656EFF
:10129000742072756E6F757431210A002020202031
:1012A0002046696C616D656E742072756E6F757421
:1012B00031210A202020202048656174696E672052
:1012C0006E6F7A7A6C650A2020202020506C656150
:1012D000736520776169742E2E2E00202F00204226
:1012E000403A0020403A0020573A0020573A007C0C
:1012F0003C3E5E2B3D3F2F5B5D3B2C2A225C006217
:101300007573793A2070617573656420666F722019
:10131000696E7075740A00627573793A2070617530
:1013200073656420666F7220757365720A0062755A
:1013300073793A2070726F63657373696E670A0020
:101340004D363030004B494C4C45442E20004B6903
:101350006C6C2063617573656420627920746F6FB3
:10136000206D75636820696E6163746976652074A9
:10137000696D652E004B494C4C2063617573656443
:1013800020627920746F6F206D75636820696E61CB
:1013900063746976652074696D65202D20637572AC
:1013A00072656E7420636F6D6D616E643A200050DB
:1013B00072696E7465722068616C7465642E206B4E
:1013C000696C6C28292063616C6C6564210A005388
:1013D00061766520656E7669726F6E6D656E7420DC
:1013E0004F4B2E2E2E005361766520656E76697206
:1013F0006F6E6D656E74204F4B2E2E2E00506F77E2
:10140000657220627265616B210A00506F776572A8
:1014100020627265616B21005741495420464F524A
:101420002052454C4F414420444F4E450A004669E6
:101430006C616D656E742072756E6F757436210AFD
:10144000002020202020202046696C616D656E748C
:101450002072756E6F757436210A496E73657274E9
:101460002066696C616D656E7420616E64207072B7
:1014700065737320627574746F6E20746F20636F70
:101480006E74696E75652E0A2057616974696E679E
:1014900020666F72206368616E67696E6720666997
:1014A0006C616D656E742E0046696C616D656E745D
:1014B0002072756E6F757435210A0020202020205F
:1014C000202046696C616D656E742072756E6F7553
:1014D0007435210A546865206E6F7A7A6C652068CD
:1014E000617320636F6F6C20646F776E2C70726510
:1014F000737320627574746F6E20746F20726568E8
:1015000065617420746865206E6F7A7A6C652E0050
:10151000455845205741495420464F522046494C92
:10152000414D454E542052454C4F41440A005072A3
:10153000696E7465722073746F7070656420647571
:101540006520746F206572726F72732E2046697801
:1015500020746865206572726F7220616E642075F8
:101560007365204D39393920746F20726573746149
:1015700072742E202854656D706572617475726581
:101580002069732072657365742E20536574206919
:101590007420616674657220726573746172746917
:1015A0006E67290A005761726E696E673A20486F4C
:1015B0006D696E672042756D702044697669736F3E
:1015C00072203C20310A000202020000A04000000C
:1015D000A04000000040FFFFFF48617264636F6439
:1015E00065642044656661756C7420536574746924
:1015F0006E6773204C6F616465640A00B80B00006D
:10160000B80B000064000000B80B00000000964317
:10161000000096430000A0400000C8416666A0425A
:101620006666A0426626C8439A99BC4220204D387F
:101630003531205A005A2D50726F6265204F666610
:1016400073657420286D6D293A0A002044002049F2
:101650000020204D33303120500050494420736524
:101660007474696E67733A0A0020460020420020B5
:10167000480020204D3134352053004D617465728F
:1016800069616C2068656174757020706172616D4C
:1016900065746572733A0A0020204D34323020534D
:1016A000004175746F20426564204C6576656C69F5
:1016B0006E673A0A00205A0020590020204D32302F
:1016C00036205800486F6D65206F66667365743A02
:1016D0000A00204500205A002059002058002042CE
:1016E0000020540020204D323035205300416476D4
:1016F000616E6365643A20533C6D696E5F66656533
:1017000064726174653E20543C6D696E5F747261F1
:1017100076656C5F66656564726174653E20423C07
:101720006D696E5F7365676D656E745F74696D6515
:101730005F6D733E20583C6D61785F78795F6A65B4
:10174000726B3E205A3C6D61785F7A5F6A65726B9E
:101750003E20453C6D61785F655F6A65726B3E0A4D
:101760000020540020520020204D32303420500000
:10177000416363656C65726174696F6E2028756E74
:101780006974732F7332293A20503C7072696E74F9
:101790005F616363656C3E20523C72657472616385
:1017A000745F616363656C3E20543C74726176655E
:1017B0006C5F616363656C3E0A00204500205A003F
:1017C00020590020204D3230312058004D61786979
:1017D0006D756D20416363656C65726174696F6ED0
:1017E0002028756E6974732F7332293A0A002045D8
:1017F00000205A0020590020204D3230332058005C
:101800004D6178696D756D2066656564726174659A
:10181000732028756E6974732F73293A0A00204566
:1018200000205A0020590020204D39322058005302
:10183000746570732070657220756E69743A0A0061
:1018400020204D3230302044300A0020204D3230EC
:10185000302044002044697361626C65640A00466C
:10186000696C616D656E742073657474696E6773FD
:101870003A0020204D3134392043203B20556E69F9
:10188000747320696E2043656C736975730A002058
:1018900020473231202020203B20556E6974732070
:1018A000696E206D6D0A00205A3A0020593A0020D6
:1018B000436F756E7420583A0020453A00205A3A1A
:1018C0000020593A00583A00205A00205900580088
:1018D00020204D61783A2000205A002059005800FD
:1018E00020204D696E3A20004F6E20004F66660042
:1018F000536F667420656E6473746F70733A200062
:1019000023646566696E65202044454641554C5404
:101910005F4B64200023646566696E652020444542
:101920004641554C545F4B69200023646566696EDF
:1019300065202044454641554C545F4B7020005073
:101940004944204175746F74756E652066696E69CF
:1019500073686564212050757420746865206C611B
:101960007374204B702C204B6920616E64204B6493
:1019700020636F6E7374616E74732066726F6D2076
:1019800062656C6F7720696E746F20436F6E666955
:101990006775726174696F6E2E680A005049442041
:1019A0004175746F74756E65206661696C6564213C
:1019B0002074696D656F75740050494420417574D9
:1019C0006F74756E65206661696C65642120746949
:1019D0006D656F75740A00504944204175746F74C9
:1019E000756E65206661696C6564212054656D7053
:1019F0006572617475726520746F6F2068696768BD
:101A000000504944204175746F74756E652066619D
:101A1000696C6564212054656D70657261747572BE
:101A20006520746F6F20686967680A00204B643A0C
:101A30002000204B693A2000204B703A20000A20F9
:101A4000436C617373696320504944200A00205439
:101A5000753A2000204B753A2000206D61783A20BD
:101A600000206D696E3A200020643A2000206269EF
:101A700061733A20005041555345205052494E540D
:101A800020444F4E450A00455845204C43442049C8
:101A90004E534552542046494C414D454E54320A0E
:101AA00000455845204C434420494E53455254204C
:101AB00046494C414D454E54310A002020202020FB
:101AC000202046696C616D656E742072756E6F754D
:101AD0007434210A496E736572742066696C616D95
:101AE000656E7420616E6420707265737320627518
:101AF00074746F6E20746F20636F6E74696E756599
:101B00002E0A2057616974696E6720666F722063C0
:101B100068616E67696E672066696C616D656E7479
:101B20002E0046696C616D656E742072756E6F75FE
:101B30007433210A002020202020202046696C6177
:101B40006D656E742072756E6F757433210A5761FE
:101B5000697420666F722066696C616D656E7420B1
:101B6000756E6C6F61642E0046696C616D656E7494
:101B70002072756E6F757432210A0020202020209B
:101B8000202046696C616D656E742072756E6F758C
:101B90007432210A5761697420666F722073746110
:101BA0007274206F662066696C616D656E74206367
:101BB00068616E67652E0046696C616D656E7420A4
:101BC00072756E6F757431323A726573756D65201A
:101BD000646F6E65210A0046696C616D656E7420E4
:101BE00072756E6F75743131210A002020204669AC
:101BF0006C616D656E742072756E6F757431312114
:101C00000A5761697420666F72207072696E742061
:101C1000746F20726573756D652E0046696C616D19
:101C2000656E742072756E6F757431303A726573BB
:101C3000756D65206F7074696F6E210A00434841AD
:101C40004E4745204F5054494F4E533A0046696C19
:101C5000616D656E742072756E6F757439210A003E
:101C60002020202020202046696C616D656E742044
:101C700072756E6F757439210A5761697420666FC9
:101C8000722066696C616D656E742065787472751A
:101C900064652E0045584520524553554D45205703
:101CA000414954205741495420574149540A00465C
:101CB000696C616D656E742072756E6F7574382114
:101CC0000A002020202020202046696C616D656E6E
:101CD000742072756E6F757438210A5761697420AB
:101CE000666F722066696C616D656E74206C6F61E1
:101CF000642E0046696C616D656E742072756E6F3E
:101D0000757437210A002020202020202046696C8D
:101D1000616D656E742072756E6F757437210A4936
:101D20006E736572742066696C616D656E74206196
:101D30006E6420707265737320627574746F6E20A8
:101D4000746F20636F6E74696E75652E0A2057611B
:101D50006974696E6720666F72206368616E676977
:101D60006E672066696C616D656E742E004558451E
:101D700020524553554D45205052494E540A002497
:101D8000F4D43050C38E20C2A24017828B7011123F
:101D90007A910D816CD90AA861E108C7586607617C
:101DA0005143061E4B5D05C145A7041A41110409A4
:101DB0003D9803713931034036DB0265339102D41B
:101DC000305402802E1D02632CEE01752AC501B02D
:101DD00028A001102781018F2564012B244B01E0ED
:101DE000223401AC211F018D200D01801FFC0084D5
:101DF0001EED00971DDF00B81CD200E61BC60020B8
:101E00001BBC00641AB200B219A8000A19A0006A2B
:101E1000189900D117910040178B00B51684003136
:101E2000167E00B31579003A157300C7146F005879
:101E3000146A00EE1366008813630025135E00C762
:101E4000125B006C12570015125400C11151007042
:101E5000114F0021114B00D61049008D104700464C
:101E600010440002104200C00F4000800F3E0042AC
:101E70000F3C00060F3B00CB0E3800930E37005C82
:101E80000E3500270E3400F30D3200C10D310090E5
:101E90000D3000600D2E00320D2D00050D2C00D9E7
:101EA0000C2B00AE0C2900850C29005C0C2700359A
:101EB0000C27000E0C2600E80B2400C40B2400A005
:101EC0000B23007D0B23005A0B2100390B21001836
:101ED0000B2000F80A1F00D90A1E00BB0A1E009D35
:101EE0000A1D00800A1D00630A1C00470A1B002C03
:101EF0000A1B00110A1A00F7091A00DD091900C4AB
:101F0000091900AB091900920917007B0918006331
:101F10000917004C09160036091600200916000A98
:101F2000091500F5081500E0081400CC081400B8E5
:101F3000081400A4081400900813007D0812006B18
:101F40000813005808120046081200340811002334
:101F50000811001208110001081100F0071000E03C
:101F6000071000D0071000C0071000B0070F00A135
:101F700007100091070E0083070F0074070F00651C
:101F8000070E0057070E0049070E003B070D002EF5
:101F9000070E0020070D0013070D0006070D00F9BE
:101FA000060C00ED060D00E0060C00D4060C00C87F
:101FB000060C00BC060C00B0060C00A4060B009931
:101FC000060C008D060B0082060B0077060B006CDA
:101FD000060B0061060A0057060B004C060A004279
:101FE000060A0038060A002E060A0024060A001A0D
:101FF000060A001006090007060A00FD050900F49C
:10200000050900EB050900E2050900D9050900D022
:10201000050900C7050900BE050900B5050800ADA2
:10202000050800A50509009C050800940508008C1A
:10203000050800840508007C050800740508006C8C
:10204000050700650508005D050700560508004EF8
:10205000050700470507004005080038050700315F
:102060000507002A050700230507001C05060016C2
:102070000507000F0507000805060002050700FB1D
:10208000040600F5040700EE040600E8040600E27A
:10209000040700DB040600D5040600CF040600C9CF
:1020A000040600C3040600BD040600B7040600B120
:1020B000040500AC040600A6040600A00405009B6D
:1020C00004060095040500900406008A04050085B6
:1020D000040500800406007A0405007504050070FC
:1020E0000405006B04050066040500610405005C3E
:1020F00004050057040500520405004D040500487E
:10210000040500430405003E0404003A04050035BC
:10211000040500300404002C0405002704040023F7
:102120000405001E0404001A04040016040500112E
:102130000404000D04040009040500040404000064
:10214000040400FC030400F8030400F4030400F09A
:10215000030400EC030400E8030400E4030400E0CB
:10216000030400DC030400D8030400D4030400D0FB
:10217000030400CC030400C8030300C503030024C8
:10218000F404D9201BC40C5C0E9804C4095F0265DA
:10219000077101F405F900FB04B30048048700C18E
:1021A0000369005803550003034500BE023A00844A
:1021B00002310053022A002902250004022000E413
:1021C000011C00C8011900AF011700980114008418
:1021D000011300710110006101100051010E004354
:1021E000010D0036010B002B010B0020010B001527
:1021F0000109000C01090003010800FB000800F3BD
:10220000000800EB000700E4000600DE000600D82E
:10221000000600D2000600CC000500C7000500C281
:10222000000500BD000400B9000400B5000400B1C1
:10223000000400AD000400A9000400A5000300A2F2
:102240000003009F0004009B00030098000300951A
:1022500000020093000300900003008D0002008B39
:102260000003008800020086000200840003008151
:102270000002007F0002007D0002007B0002007966
:102280000002007700010076000200740002007274
:10229000000100710002006F0002006D0001006C7F
:1022A0000002006A00010069000200670001006688
:1022B000000100650001006400020062000100618D
:1022C000000100600001005F0002005D0001005C91
:1022D0000001005B0001005A000100590001005894
:1022E0000001005700010056000100550001005494
:1022F0000001005300000053000100520001005192
:10230000000100500001004F0001004E0000004E8F
:102310000001004D0001004C0001004B0000004B8B
:102320000001004A00010049000100480000004887
:102330000001004700010046000000460001004582
:10234000000000450001004400010043000000437C
:102350000001004200000042000100410000004175
:10236000000100400001003F0000003F0001003E6E
:102370000000003E0001003D0000003D0001003C67
:102380000000003C0000003C0001003B0000003B5E
:102390000001003A0000003A000100390000003955
:1023A000000100380000003800000038000100374C
:1023B0000000003700010036000000360000003643
:1023C0000001003500000035000000350001003438
:1023D000000000340000003400010033000000332E
:1023E0000000003300010032000000320000003223
:1023F0000001003100000031000000310001003018
:1024000000000030000000300001002F0000002F0D
:102410000000002F0000002F0001002E0000002E01
:102420000000002E0001002D0000002D0000002DF6
:102430000000002D0001002C0000002C0000002CEA
:102440000000002C0001002B0000002B0000002BDE
:102450000000002B0001002A0000002A0000002AD2
:102460000000002A000100290000002900000029C6
:1024700000000029000000290001002800000028B9
:1024800000000028000000280000002800010027AC
:1024900000000027000000270000002700000027A0
:1024A0000001002600000026000000260000002693
:1024B0000000002600010025000000250000002586
:1024C0000000002500000025000000250001002478
:1024D000000000240000002400000024000000246C
:1024E000000100230000002300000023000000235F
:1024F0000000002300000023000000230001002250
:102500000000002200000022000000220000002243
:102510000000002200010021000000210000002135
:102520000000002100000021000000210000002127
:10253000000100200000002000000020000000201A
:10254000000000200000002000000020000000200B
:102550000001001F0000001F0000001F0000001FFE
:102560000000001F0000001F0000001F0001001EEF
:102570000000001E0000001E0000001E0000004DB4
:10258000383420582059205A20450042656420687C
:10259000656174206661696C2E0A53797374656D88
:1025A0002073746F702E0A506C65617365207265BC
:1025B0007374617274206D616368696E652E004585
:1025C00078747275646572206865617420666169EB
:1025D0006C2E0A53797374656D2073746F702E0AB4
:1025E000506C656173652072657374617274206DDF
:1025F000616368696E652E006265640A002C207351
:10260000797374656D2073746F70706564212048F0
:1026100065617465725F49443A20004D3234004D63
:102620003233202573006175746F25692E6700535E
:10263000442063617264206F6B0A006F70656E5294
:102640006F6F74206661696C65640A00766F6C75E3
:102650006D652E696E6974206661696C65640A0037
:10266000534420696E6974206661696C0A00577270
:102670006974696E6720746F2066696C653A200022
:102680006F70656E206661696C65642C2046696CAC
:10269000653A20006F70656E206661696C65642C18
:1026A0002046696C653A200046696C652073656C4C
:1026B00065637465640A002053697A653A200046B0
:1026C000696C65206F70656E65643A20006F706597
:1026D0006E206661696C65642C2046696C653A20E1
:1026E000002066696C653A20004E6F77200022203A
:1026F000706F73002220706172656E743A2200530D
:102700005542524F5554494E452043414C4C20743C
:1027100061726765743A22004B494C4C45442E2047
:1027200000547279696E6720746F2063616C6C204D
:102730007375622D67636F64652066696C657320CD
:102740007769746820746F6F206D616E79206C6595
:1027500076656C732E00747279696E6720746F20D1
:1027600063616C6C207375622D67636F64652066AE
:10277000696C6573207769746820746F6F206D6170
:102780006E79206C6576656C732E204D4158206CF7
:102790006576656C2069733A004572726F723A0013
:1027A00043616E6E6F74206F70656E207375626426
:1027B000697220006563686F3A00656E71756575B2
:1027C00065696E67202200457874727564650052F1
:1027D0006573756D650000002100240027002A0044
:1027E0002D003000330001010000040107010A013F
:1027F00000002200250028002B002E0031003400AC
:1028000002010000050108010B0100002000230067
:10281000260029002C002F003200000100000301D7
:102820000601090105050505070508080808020253
:1028300002020A0A0808040404040101010101015A
:1028400001010303030303030303040707070C0C3D
:102850000C0C0C0C0C0C0202020206060606060604
:1028600006060B0B0B0B0B0B0B0B010210202008A9
:1028700008102040102040800201020108040201DB
:10288000010204081020408080402010080402014A
:1028900080040201804020100804020108040201A3
:1028A000010204081020408001020408102040802A
:1028B00000000A0B02090C0D0E08070304010000BA
:1028C0000000000000000000000000000000000008
:1028D00000000000000000000000000012111000C5
:1028E00000000000000000000000000000000000E8
:1028F000000000000000205A3A200020593A200031
:1029000042656420583A200048656174696E67200A
:102910006661696C65640048656174696E6720660C
:1029200061696C65640048656174696E6720666101
:10293000696C65642E0A53797374656D2073746FC6
:10294000702E0048656174696E67206661696C6508
:10295000640048656174696E67206661696C6564CE
:102960000048656174696E67206661696C65642EF4
:102970000A53797374656D2073746F702E00700143
:102980002C0190012701B0012201C0011D01F001BD
:1029900018011002130130020E01600209019002B9
:1029A0000401C002FF000003FA004003F5008003A9
:1029B000F000D003EB002004E6007004E100E00426
:1029C000DC004005D700C005D2004006CD00D0068F
:1029D000C8008007C3003008BE00F008B900C00975
:1029E000B400B00AAF00B00BAA00D00CA500000ED6
:1029F000A000500F9B00C0109600501291000014D0
:102A00008C00C0158700B0178200B0197D00D01B64
:102A10007800001E730040206E0090226900F024B0
:102A2000640040275F0090295A00E02B5500102ECB
:102A3000500020304B0010324600E033410090350A
:102A40003C001037370070383200A0392D00B03A02
:102A50002800A03B2300603C1E00103D1900903D63
:102A60001400103E0F00703E0A00C03E0500003FFB
:102A70000000403FFBFF803FF6FFC03FF1FF54489E
:102A800045524D414C2052554E41574159005468D2
:102A900065726D616C2052756E6177617900457267
:102AA000723A204D494E54454D5020424544004510
:102AB00072723A204D494E54454D50004D494E5486
:102AC000454D502074726967676572656400457290
:102AD000723A204D415854454D50204245440045DE
:102AE00072723A204D415854454D50004D41585452
:102AF000454D5020747269676765726564004D3595
:102B0000303000000070420000704200002042009F
:102B1000000000526573656E643A20006F6B004ED2
:102B2000414E494E495459494E46CDCCCC3D0AD729
:102B3000233C17B7D13877CC2B329595E6241FB1BB
:102B40004F0A000020410000C84200401C4620BC43
:102B5000BE4CCA1B0E5AAEC59D74D0D4AFD411243E
:102B60001FBECFEFD1E2DEBFCDBF00E00CBF13E050
:102B7000A0E0B2E0ECECF7EC01E00BBF02C0079084
:102B80000D92AA3AB107D9F725E1AAEAB3E001C04C
:102B90001D92A734B207E1F715E1CEEAD5E100E0D6
:102BA00006C021970109802FFE010E948CD6CD3AE4
:102BB000D10780E00807A9F70E9457CC0C94D4E312
:102BC0000C9400002F923F924F925F926F927F92EF
:102BD0008F929F92AF92BF92CF92DF92EF92FF922D
:102BE0000F931F93CF93DF93CDB7DEB7C657D109AD
:102BF0000FB6F894DEBF0FBECDBFE091390620E4DA
:102C0000E29FF0011124E75CFB4F8081813091F459
:102C1000BF016F5F7F4F80E090E0DB014D91BD0110
:102C20009C01255A394FD9014C9301968430910566
:102C3000A1F708C010925B0610925C0610925D0628
:102C400010925E0610828581181614F0809300029F
:102C50008F010A5F1F4F80915F0680FF2EC0E4EB5B
:102C6000F7E284917F01BFEFEB1AFB0A882321F082
:102C70000E949FB2F701F5CF809100020E949FB29F
:102C80008AE00E949FB2E4EBF7E284917F012FEF8C
:102C9000E21AF20A811102C0780104C00E949FB2B8
:102CA000F701F3CFD7018D917D01882319F00E94A0
:102CB0009FB2F8CF8AE00E949FB281E090E09093AB
:102CC000950680939406C8010E94E38B8091E506E7
:102CD0008D3411F40C94A11E843511F40C94B82D8C
:102CE000873411F00C94BD2D8091E3069091E40699
:102CF0008D31910509F44BC6C4F48430910544F438
:102D0000823091050CF055C097FF47C00C94D72D29
:102D10008430910509F4FDC54C9711F00C94D72D22
:102D200080E00E94F7740C94D72D8A32910509F443
:102D300037C714F58E31910509F42DC6829711F02D
:102D40000C94D72D6091531270E085E797E00E94B4
:102D5000325D6091541270E081E797E00E94325D2D
:102D60006091551270E08DE697E00E94325D8AE036
:102D70000E949FB20C94D72D8B35910509F492C611
:102D80008C35910509F493C68A35910511F00C94A0
:102D9000D72D1092C0030C94D72D80910302882365
:102DA00011F40C94D72D0E94B2490E949E880C9475
:102DB000D72D20910302222311F40C94D72D11E07A
:102DC000029709F010E00E94B24982E50E9465B2C4
:102DD000882309F452C10E9403B26B017C01409028
:102DE0003112509032126090331270903412209150
:102DF00035123091361240913712509138122BAF64
:102E00003CAF4DAF5EAF80919A0690919B06A0912A
:102E10009C06B0919D0623968CAF9DAFAEAFBFAF21
:102E2000239720919E0630919F064091A0065091D5
:102E3000A1062B962CAF3DAF4EAF5FAF2B9720E096
:102E400030E0A901C701B6010E94A2DF882309F47E
:102E500046C5A301920123966CAD7DAD8EAD9FADAD
:102E600023970E94A2DF81110FC02BAD3CAD4DAD69
:102E70005EAD2B966CAD7DAD8EAD9FAD2B970E9458
:102E8000A2DF882309F42BC520E030E0A901C701A7
:102E9000B6010E94A2DF881F8827881F18130BC065
:102EA00080E090E0A0E8BFE367968CAF9DAFAEAF47
:102EB000BFAF67970AC020E030E040E85FEB67965D
:102EC0002CAF3DAF4EAF5FAF6797A3019201239642
:102ED0006CAD7DAD8EAD9FAD23970E949BD62F9696
:102EE0006CAF7DAF8EAF9FAF2F972BAD3CAD4DAD8F
:102EF0005EAD2B966CAD7DAD8EAD9FAD2B970E94D8
:102F00009BD663966CAF7DAF8EAF9FAF63972F96C6
:102F10002CAD3DAD4EAD5FAD2F97CA01B9010E94FA
:102F200007E04B015C0163962CAD3DAD4EAD5FAD4E
:102F30006397CA01B9010E9407E09B01AC01C5017A
:102F4000B4010E949CD60E942ED927966CAF7DAF0B
:102F50008EAF9FAF279720E030E040E05FE30E9414
:102F600007E04B015C01A7019601C701B6010E9471
:102F700007E06B017C01A5019401C501B4010E9429
:102F800007E09B01AC01C701B6010E949BD60E94DD
:102F90002ED99B01AC0167966CAD7DAD8EAD9FAD1A
:102FA00067970E9407E04B015C0123962CAD3DAD75
:102FB0004EAD5FAD2397C301B2010E949CD620E0C5
:102FC00030E040E05FE30E9407E06B017C01639624
:102FD0006CAD7DAD8EAD9FAD6397905827962CADAF
:102FE0003DAD4EAD5FAD27970E9489D79B01AC01E7
:102FF000C501B4010E9407E09B01AC01C701B60105
:103000000E949CD6A30192010E949BD66B017C0179
:103010002B962CAD3DAD4EAD5FAD2B976BAD7CAD22
:103020008DAD9EAD0E949CD620E030E040E05FE395
:103030000E9407E02B013C0127962CAD3DAD4EAD23
:103040005FAD27972F966CAD7DAD8EAD9FAD2F9761
:103050000E9489D79B01AC01C501B4010E9407E021
:103060009B01AC01C301B2010E949CD62BAD3CADCB
:103070004DAD5EAD0E949BD614C089E40E9465B23E
:10308000882329F00E9403B26B017C0103C0C12C8C
:10309000D12C76018AE40E9465B28823F9F00E945F
:1030A00003B22B966CAF7DAF8EAF9FAF2B9720E016
:1030B00030E0A901C701B6010E94A2DF81111EC044
:1030C00020E030E0A9012B966CAD7DAD8EAD9FADBB
:1030D0002B970E94A2DF811111C001C420E030E0D3
:1030E000A901C701B6010E94A2DF882309F4F7C332
:1030F0002B961CAE1DAE1EAE1FAE2B97D701C60180
:10310000B0588BAF9CAFADAFBEAF2B962CAD3DADE5
:103110004EAD5FAD2B97505823962CAF3DAF4EAFC1
:103120005FAF23979C01AD01BC01CD010E9407E078
:103130004B015C0123962CAD3DAD4EAD5FAD2397A9
:10314000CA01B9010E9407E09B01AC01C501B401AD
:103150000E949CD60E942ED9A3966CAF7DAF8EAFF5
:103160009FAFA3978091311290913212A0913312A8
:10317000B091341227968CAF9DAFAEAFBFAF2797FB
:10318000A7019601BC01CD010E949CD667966CAF49
:103190007DAF8EAF9FAF6797209135123091361279
:1031A00040913712509138122F962CAF3DAF4EAF51
:1031B0005FAF2F972B962CAD3DAD4EAD5FAD2B97EE
:1031C0002F966CAD7DAD8EAD9FAD2F970E949CD696
:1031D000AB966CAF7DAF8EAF9FAFAB9780919A06E9
:1031E00090919B06A0919C06B0919D066B968CAF2A
:1031F0009DAFAEAFBFAF6B9767962CAD3DAD4EADFB
:103200005FAD6797BC01CD010E949BD66B017C012D
:1032100020919E0630919F064091A0065091A106F4
:103220006F962CAF3DAF4EAF5FAF6F97AB962CADA7
:103230003DAD4EAD5FADAB976F966CAD7DAD8EADD8
:103240009FAD6F970E949BD64B015C018091391214
:1032500090913A12A0913B12B0913C12AF968CAF74
:103260009DAFAEAFBFAFAF979C01AD016091A2061D
:103270007091A3068091A4069091A5060E949BD60A
:1032800063966CAF7DAF8EAF9FAF63972091A6061C
:103290003091A7064091A8065091A906A7962CAF99
:1032A0003DAF4EAF5FAFA79780913D1290913E1218
:1032B000A0913F12B0914012E3968CAF9DAFAEAF9C
:1032C000BFAFE397A70196016BAD7CAD8DAD9EAD11
:1032D0000E9407E02B013C01A501940123966CADEF
:1032E0007DAD8EAD9FAD23970E9407E09B01AC01A1
:1032F000C301B2010E949CD62B013C01A50194019F
:103300006BAD7CAD8DAD9EAD0E9407E04B015C01C5
:10331000A701960123966CAD7DAD8EAD9FAD239731
:103320000E9407E09B01AC01C501B4010E949BD63D
:10333000A30192010E941AD76B017C0120E030E0CA
:10334000A9010E94A2DF87FF0AC02BED3FE049ECF4
:1033500050E4C701B6010E949CD66B017C01112389
:1033600051F02BED3FE049EC50E4C701B6010E945B
:103370009BD66B017C0120E030E0A901C701B601BA
:103380000E94A2DF811128C06B962CAD3DAD4EADE1
:103390005FAD6B9727966CAD7DAD8EAD9FAD2797DA
:1033A0000E94A2DF811118C06F962CAD3DAD4EADCD
:1033B0005FAD6F972F966CAD7DAD8EAD9FAD2F97A6
:1033C0000E94A2DF811108C06BEDC62E6FE0D62EE1
:1033D00069ECE62E60E4F62EA3962CAD3DAD4EAD25
:1033E0005FADA397C701B6010E9407E09B01AC0146
:1033F0000E9407E04B015C0163962CAD3DAD4EADE4
:103400005FAD6397CA01B9010E9407E09B01AC015F
:10341000C501B4010E949CD60E942ED94B015C01CB
:103420002FE632E143E85AE30E94A2DF87FD53C250
:10343000C501B4010E942FD80E9400D82D967FAFFD
:103440006EAF2D97DB01AB2B31F4E1E0F0E02D9670
:10345000FFAFEEAF2D972D962EAD3FAD2D97B90155
:1034600080E090E00E94A6DF4B015C019B01AC0173
:10347000C701B6010E9489D727966CAF7DAF8EAF8A
:103480009FAF2797A501940163966CAD7DAD8EAD7E
:103490009FAD63970E9489D7A3966CAF7DAF8EAF27
:1034A0009FAFA397E3962CAD3DAD4EAD5FADE397D7
:1034B000A7966CAD7DAD8EAD9FADA7970E949BD6B4
:1034C000A50194010E9489D7A7966CAF7DAF8EAFFE
:1034D0009FAFA79727962CAD3DAD4EAD5FAD27971B
:1034E000CA01B9010E9407E020E030E040E05FE35C
:1034F0000E9407E09B01AC0160E070E080E89FE380
:103500000E949BD663966CAF7DAF8EAF9FAF6397E3
:10351000AF968CAD9DADAEADBFADAF9789879A87A5
:10352000AB87BC87E3962CAD3DAD4EAD5FADE39769
:103530002D873E874F87588B6091320270913302FE
:10354000072E000C880B990B0E94A8DF20915002D7
:103550003091510240915202509153020E9407E073
:103560002AE037ED43E25CE30E9407E06B966CAF24
:103570007DAF8EAF9FAF6B970E94C9B79B01AC0127
:1035800028533F4F4F4F5F4F6F962CAF3DAF4EAF1D
:103590005FAF6F974BAC5CAC6DAC7EAC22242394D8
:1035A000312C59E1D52E2D964EAD5FAD2D972416B9
:1035B000350609F44CC10E9415C50E94C9B7DC014B
:1035C000CB016F962CAD3DAD4EAD5FAD6F97821BBD
:1035D000930BA40BB50BB7FD11C00E94C9B79B019B
:1035E000AC0128533F4F4F4F5F4F6F962CAF3DAF0D
:1035F0004EAF5FAF6F9780E00E944185DA94DD2087
:1036000009F44BC063962CAD3DAD4EAD5FAD6397F5
:1036100023966CAD7DAD8EAD9FAD23970E9407E0E4
:103620004B015C0127962CAD3DAD4EAD5FAD2797AC
:10363000B201C3010E9407E0A50194010E949CD63B
:103640007B018C0163962CAD3DAD4EAD5FAD6397B4
:10365000B201C3010E9407E04B015C0127962CAD2B
:103660003DAD4EAD5FAD279723966CAD7DAD8EAD74
:103670009FAD23970E9407E09B01AC01C501B401F7
:103680000E949BD62B013C01C701D80123968CAF29
:103690009DAFAEAFBFAF239757C0B10180E090E0C0
:1036A0000E94A6DF27962CAD3DAD4EAD5FAD2797AE
:1036B0000E9407E04B015C010E9486D76B017C01F0
:1036C000C501B4010E9423D94B015C01A7019601F9
:1036D0006BAD7CAD8DAD9EAD0E9407E02B013C0132
:1036E000A50194012B966CAD7DAD8EAD9FAD2B9752
:1036F0000E9407E09B01AC01C301B2010E949CD66D
:103700002B013C01A50194016BAD7CAD8DAD9EAD4F
:103710000E9407E04B015C01A70196012B966CAD5E
:103720007DAD8EAD9FAD2B970E9407E09B01AC0154
:10373000C501B4010E949BD623966CAF7DAF8EAFBE
:103740009FAF239739E1D32E9201A30167966CAD09
:103750007DAD8EAD9FAD67970E949CD669837A83BD
:103760008B839C8323962CAD3DAD4EAD5FAD2397EF
:10377000AB966CAD7DAD8EAD9FADAB970E949CD6E8
:103780006D837E838F839887A3962CAD3DAD4EAD20
:103790005FADA39769857A858B859C850E949CD6B1
:1037A00069877A878B879C87A7962CAD3DAD4EADF8
:1037B0005FADA7976D857E858F8598890E949CD681
:1037C0006D877E878F87988B80916802882321F090
:1037D000CE0101960E94C383C090241289819A81F0
:1037E000AB81BC8188A399A3AAA3BBA38D819E8131
:1037F000AF81B8858CA39DA3AEA3BFA389859A850D
:10380000AB85BC8588A799A7AAA7BBA7AE01485DD1
:103810005F4FBE016C5D7F4FCE0180960E944C8948
:103820006B96ECACFDAC0EAD1FAD6B979E01235FAC
:103830003F4FAE01485D5F4FBE016C5D7F4FCE01D3
:1038400080960E94555F3FEF231A330AACCEC0909A
:10385000241280919A0690919B06A0919C06B091AB
:103860009D0688A399A3AAA3BBA380919E069091CD
:103870009F06A091A006B091A1068CA39DA3AEA324
:10388000BFA38091A2069091A306A091A406B09137
:10389000A50688A799A7AAA7BBA7AE01485D5F4F59
:1038A000BE016C5D7F4FCE0180960E944C896B9665
:1038B000ECACFDAC0EAD1FAD6B9726EA36E0AE0169
:1038C000485D5F4FBE016C5D7F4FCE0180960E94C8
:1038D000555F0E94564C0E9495B20C94D72DE9E991
:1038E000F7E284918F010F5F1F4F882321F00E9420
:1038F0009FB2F801F6CFE6E5F2E084918F010F5F09
:103900001F4F882311F40C94D72D0E949FB2F80109
:10391000F4CF80E50E9465B2882329F00E94C3B1EC
:103920006B017C0103C0C12CD12C760183E50E9480
:1039300065B2882361F00E9403B220E030E04AE7DC
:1039400054E40E9407E00E9400D86B017C010E94B1
:10395000DC9E0E9495B280918A0690918B06A09180
:103960008C06B0918D06C80ED91EEA1EFB1E0E9461
:10397000C9B7DC01CB018C199D09AE09BF09B7FDA0
:1039800002C00C94D72D80E00E944185F0CF0E94A8
:10399000F66E0C94D72DC0903112D0903212E09078
:1039A0003312F090341288E50E9465B2811109C08B
:1039B00020E030E048EC51E4C701B6010E949CD6FB
:1039C00002C00E9403B268A379A38AA39BA3C090FC
:1039D0003512D0903612E0903712F090381289E507
:1039E0000E9465B2811108C020E030E0A901C70142
:1039F000B6010E949CD602C00E9403B26B017C01FA
:103A000069837A838B839C83409045125090461241
:103A100060904712709048122091411230914212EA
:103A2000409143125091441268A179A18AA19BA1AF
:103A30000E949BD64B015C0124EF3DEF47EC51E423
:103A40000E94E5D887FF02C00C94D72D21E230E018
:103A50004AEF53E4C501B4010E94A2DF181614F422
:103A60000C94D72DA3019201C701B6010E949BD6E9
:103A70006B017C012FE632E143E85AEB0E94E5D866
:103A800087FF02C00C94D72D21E230E04AEF53E4C7
:103A9000C701B6010E94A2DF181614F40C94D72DAA
:103AA0000C94DE2D81E08093C0030C94D72D85E427
:103AB0000E9465B2B82E811102C00E94DC9E8DE783
:103AC000882E82E0982E91E3C92E92E1D92E2AEA1F
:103AD000E22E23E0F22E00E010E0A12CD4018D9123
:103AE0004D010E9465B28823F1F1F60120813181F8
:103AF00042815381E4962FAFE497E5963FAFE59777
:103B0000E6964FAFE697E7965FAFE7970E9403B25E
:103B1000D6016D937D938D939C931397E4962FAD6F
:103B2000E497E5963FADE597E6964FADE697E796C5
:103B30005FADE79703301105B1F00E949BD69B0162
:103B4000AC01F70160817181828193810E949CD6D2
:103B5000D7016D937D938D939C931397C8010E9419
:103B6000F24EAA24A3940F5F1F4FB4E0CB0ED11CDA
:103B7000E4E0EE0EF11C0430110509F0AFCFAA20ED
:103B800019F00E947CB108C0BB2031F06DE372E1F6
:103B900083E090E00E94DD5D0E94449B0C94D72D51
:103BA00080910302882311F40C94D72D89E40E949C
:103BB00065B2182F882321F00E94D3B1E62E01C0F0
:103BC000E12C8AE40E9465B2F82E882331F00E942D
:103BD000D3B1062F111104C00BC000E01123B9F0BE
:103BE000FBE0FE1510F00C94882FEEE7F2E003C026
:103BF0000A30D8F70CC084918F010F5F1F4F8823C4
:103C000011F40C94D72D0E949FB2F801F4CF0E94BA
:103C10004C4C112341F120913F06309140064E2D2E
:103C20004203B001439F700D112420913B06309157
:103C30003C06620F731F072E000C880B990B0E9425
:103C4000A8DF2091411230914212409143125091CD
:103C500044120E949CD660939A0670939B068093B0
:103C60009C0690939D06FF2039F1209141063091EA
:103C700042060203B001039F700D112480913D069E
:103C800090913E06680F791F072E000C880B990B48
:103C90000E94A8DF209145123091461240914712B0
:103CA000509148120E949CD660939E0670939F0686
:103CB0008093A0069093A10680E50E9436B28823E7
:103CC000E1F00E94F4B18823C1F01123B1F020E0AB
:103CD00030E048EC51E460919A0670919B06809127
:103CE0009C0690919D060E949BD660939A067093C5
:103CF0009B0680939C0690939D0686E40E9465B285
:103D00008823D9F00E9403B26B017C0120E030E0EF
:103D1000A9010E94E5D8181684F420E030E040E7BD
:103D200052E4C701B6010E9489D760935002709394
:103D3000510280935202909353020E949E880C94E9
:103D4000D72D2091E3063091E4062737310511F491
:103D50000C949C270CF0D2C02D34310509F47BC59E
:103D60000CF058C02931310509F4D9C234F5243199
:103D7000310509F46AC28CF42131310509F461C2BC
:103D800034F42230310508F4D6C10C94D72D2231F9
:103D9000310509F437C70C94D72D2631310509F4C4
:103DA0009DC20CF497C22731310509F49DC2283118
:103DB000310509F4A9C20C94D72D2F31310509F42E
:103DC00062C484F42B31310509F4BDC20CF4ADC2D8
:103DD0002C31310509F4F3C22E31310509F4F9C251
:103DE0000C94D72D2A32310509F4F0C434F4203272
:103DF000310509F405C40C94D72D2B34310509F491
:103E000026C52C34310511F00C94D72D0E9418BE14
:103E10000C94D72D2B36310509F4DDC60CF049C0C2
:103E20002535310509F423C734F52235310509F468
:103E3000E2C6BCF42135310511F00C94D72D0E9457
:103E400023C40E94DC9E0E940185109231041092CE
:103E5000300468EE73E080E090E00E941FB80C949C
:103E6000D72D2335310509F4C9C62435310509F4A8
:103E7000C9C60C94D72D2836310509F4F0C47CF45A
:103E80002C35310511F00C94D72DFDE7CF2EF2E043
:103E9000DF2EA6E5EA2EA2E1FA2E10E001C72936B0
:103EA000310509F406C62A36310509F477C60C94A3
:103EB000D72D2037310509F4AAC584F42D363105F4
:103EC00009F43DC60CF49FC52E36310509F4E6C44D
:103ED0002F36310509F4F5C40C94D72D223731055E
:103EE00009F45DC70CF4A3C52337310509F45CC799
:103EF0002637310509F4E9C70C94D72D203951E054
:103F0000350711F40C940E2B0CF076C02D3C3105C6
:103F100011F40C941F2984F52E3B310509F42AC6AF
:103F200094F42937310511F40C94282814F40C94D6
:103F300022282C38310509F4A6C52B39310509F49E
:103F4000D5C50C94D72D293C310511F40C94752856
:103F50003CF4283C310511F40C942D280C94D72DF9
:103F60002B3C310511F40C9497282C3C310511F4AD
:103F70000C94B5280C94D72D223E310511F40C94E5
:103F80009A29ECF4233D310511F40C948A294CF460
:103F90002E3C310511F00C94D72D0E94039C0C94FB
:103FA000D72D2C3D310511F40C948D292D3D310573
:103FB00011F00C94D72D0E94939A0C94D72D2D328A
:103FC00091E0390711F40C946D2A3CF4283131400A
:103FD00011F40C94C3290C94D72D2F32E1E03E0745
:103FE00011F40C940B2B2336314011F00C94D72D87
:103FF000E9E9F7E20C945A2D273F41E0340711F428
:104000000C94BA2C0CF047C0253A81E0380711F423
:104010000C94762BACF42239A1E03A0711F40C94FD
:10402000152B14F40C94112B2A39E1E03E0709F406
:10403000F2C4243A314011F40C94192B0C94D72D6E
:10404000243F41E0340711F40C94B42CACF42C3A26
:10405000314011F00C94D72D9EEFC92E93E0D92E4C
:1040600021E3E22E22E1F22E39EB232E33E0332E30
:1040700000E010E00C940D2C253F91E0390711F47D
:104080000C94B72C263F314011F00C94D72D0E9490
:10409000BD910C94D72D273EB3E03B0711F40C944F
:1040A000712D44F52235F3E03F0711F40C94C82C30
:1040B0004CF42835324011F00C94D72D0E94E9922F
:1040C0000C94D72D233583E0380711F40C94062D7A
:1040D000203A334011F00C94D72D8091E106909155
:1040E000E20621E02093160F40E060E00E94BCA7AA
:1040F0000C94D72D2E34A4E03A0711F40C94812DA2
:104100004CF42D34344011F00C94D72D0E94EA5514
:104110000C94D72D2F34F4E03F0711F40C94842D28
:10412000203B344011F00C94D72DE090E106F09044
:10413000E2060C948D2D0091E1061091E20680E5D7
:104140000E9465B2882361F00E94C3B16B017C01BB
:10415000BB24B394672B682B692B31F4B12C04C0BA
:10416000B12CC12CD12C760183E50E9465B2882345
:1041700099F00E9403B220E030E04AE754E40E9444
:1041800007E00E9400D86B017C01B1100CC0672BC6
:10419000682B692B41F43BC0B11005C00115110516
:1041A00011F00C94342E83E090E090939506809368
:1041B000940681E08093CF030E94DC9E0E9495B21A
:1041C000C114D104E104F104A1F180918A06909117
:1041D0008B06A0918C06B0918D06C80ED91EEA1EE2
:1041E000FB1E0E94C9B7DC01CB018C199D09AE09E9
:1041F000BF09B7FD04C01092CF030C94D72D809156
:10420000CF038823C1F380E00E944185EACF0115E6
:10421000110511F00C94342E83E090E090939506F4
:104220008093940681E08093CF030E94DC9E0E94DD
:1042300095B28091CF038823F1F280E00E944185FE
:10424000F8CF0E944D880C94D72DECEAF2E08491CF
:104250008F010F5F1F4F882321F00E949FB2F8014A
:10426000F6CF10929D1110929C1140E050E0BA01DF
:1042700087E69FE00E941E798BE1E7E6FFE0DE0122
:10428000159601900D928A95E1F78091650F9091B6
:10429000660F9C838B8389ED92E09A83898340E04B
:1042A00050E0BE016F5F7F4F8AE993E00E9469AFE3
:1042B000CE0101960E947384EDE9F2E084918F01B2
:1042C0000F5F1F4F882311F40C94D72D0E949FB2CB
:1042D000F801F4CF0E94DDA90C94D72D1092170F8E
:1042E0001092180F0C94D72D40E061E08091E10608
:1042F0009091E2060E94BCA76AE17FE081EC93E026
:104300000E94E8D90C94D72D8091180F882319F0BA
:1043100081E08093170F0E94D9BD0C94D72D109285
:10432000170F0E9418BE0C94D72D8091180F882368
:1043300011F40C94D72D83E50E9465B281110C9481
:10434000542E0C94D72D8091180F882351F1EDEB4A
:10435000F2E084918F010F5F1F4F882321F00E94AC
:104360009FB2F801F6CF60919311709194118091F2
:104370009511909196114AE00E9423B38FE20E941A
:104380009FB260918F1170919011809191119091D5
:1043900092114AE00E9423B38AE00E949FB20C94DB
:1043A000D72DEFECF2E084918F010F5F1F4F882330
:1043B00011F40C94D72D0E949FB2F801F4CF40E085
:1043C00060E08091E1069091E2060E94BCA70C9407
:1043D000D72D8091180F882311F40C94D72D88E4E1
:1043E0009FE00E94DC7888E49FE00E94D37D1092D9
:1043F000160F1092150FE090E106F090E206809102
:10440000180F882311F40C94D72D0E9473AE1D82CF
:1044100018861C821B8289ED92E09A83898383E649
:104420009FE09093830F8093820FD7018C918F32FE
:1044300009F067C06FE270E0C7010E94D4D98C0117
:104440000F5F1F4FFE0131964F010115110509F451
:104450005EC06FE270E0C8010E94D4D96C01009781
:1044600009F456C00817190708F052C05C01A01AD9
:10447000B10AA501B801CE0180960E94FDD9E0E203
:10448000F0E0EC0FFD1FEA0DFB1D10828E01005EB7
:104490001F4FD8018D918D01882319F00E949FB282
:1044A000F8CF8AE00E949FB26091820F7091830FD3
:1044B0006115710511F06C5F7F4F21E0AE01405E28
:1044C0005F4FCE0105960E94DB7D811112C0BE01B7
:1044D000605E7F4F86E093E00E944B5D8EE20E941B
:1044E0009FB28AE00E949FB2C4010E9473840C9420
:1044F000D72D9092830F8092820F86010F5F1F4FFE
:10450000A4CF84E89FE09093830F8093820F87016C
:104510006091820F7091830F6115710511F06C5FCE
:104520007F4F18A21BA222E0A801CE0180960E9414
:10453000DB7D811102C0F12C1EC0CE0180960E944D
:10454000E1AD8823C1F36CA57DA58EA59FA541E0B3
:104550000E940148882379F3E8A9B0E2EB9FF001BB
:104560001124EF59F34F309731F385EE80831BA26E
:104570000E943D78F82ECE0180960E9471B2FF20F5
:1045800009F1E0EEF2E084917F012FEFE21AF20AE6
:10459000882321F00E949FB2F701F5CFD8018D91B9
:1045A0008D01882319F00E949FB2F8CF8AE00E9403
:1045B0009FB2109293111092941110929511109233
:1045C000961118C0EEEEF2E084917F01BFEFEB1A76
:1045D000FB0A882321F00E949FB2F701F5CFF80172
:1045E00081918F01882319F00E949FB2F8CF8EE24B
:1045F0000E949FB2CE0101960E9473840C94D72D25
:104600008091170F81110E94DC9EE090E106F090EE
:10461000E20680E50E9436B2182F882319F00E9426
:10462000F4B1182F8091180F882311F40C94D72D12
:10463000412F61E0C7010E94BCA783E50E9465B2DB
:10464000882381F00E94D3B1AB01BC014093931148
:1046500050939411609395117093961188E49FE0A4
:104660000E941E796AE17FE081EC93E00E94E8D924
:104670008091180F882319F081E08093170F111192
:104680000C94D72D48CE0E9433AF0CE3C02ED12C12
:10469000E12CF12CA70196010E947DE3762E672E76
:1046A000CA01B901A70196010E947DE36B017C015B
:1046B000CA01B90128E130E040E050E00E947DE30A
:1046C0004B015C01C9016DE671E00E9465D68E0167
:1046D0000F5F1F4F6115710599F06F927F92DF9206
:1046E000CF929F928F929F938F937F936F9382E449
:1046F00093E09F938F931F930F930E9473DF26C0C5
:10470000009789F06F927F92DF92CF929F928F9263
:104710009F938F9382E393E09F938F931F930F93C5
:104720000E9473DF13C081149104A104B104B1F09D
:104730006F927F92DF92CF929F928F9286E293E068
:104740009F938F931F930F930E9473DF0FB6F8947C
:10475000DEBF0FBECDBFE4EBF7E223C0C114D1042E
:10476000E104F10469F06F927F92DF92CF928EE1C3
:1047700093E09F938F931F930F930E9473DFE6CF75
:104780006F927F928AE193E09F938F931F930F9391
:104790000E9473DF0F900F900F900F900F900F906B
:1047A000DACF84917F01BFEFEB1AFB0A882321F057
:1047B0000E949FB2F701F5CFB80186E593E00E9411
:1047C0004B5D8AE00E949FB20C94D72D83E50E9436
:1047D00065B2882311F40C94D72D0E94E3B1D82E32
:1047E00080E50E9465B2882341F00E94D3B17B012D
:1047F00077FF02C00C94D72D03C01DE0E12EF12CF1
:104800009E2DEAEFF5E088E28E0F2491921729F0B1
:1048100031968E13FACF0C94652EE9E9F7E2849174
:104820008F010F5F1F4F882321F00E949FB2F80174
:10483000F6CFE3E6F3E084918F010F5F1F4F8823EB
:1048400011F40C94D72D0E949FB2F801F4CF0E946E
:10485000D9BD0C94D72D0E9496AE0C94D72D88E626
:1048600090E00E94A44F81110C94D72D80915F0697
:1048700083FF02C00C94D72D83E50E9465B2882384
:1048800049F00E9403B20E94FAD7CB010E946284D1
:104890000E9403B20E947FD40C94D72D8EE40E9414
:1048A00065B2882311F40C94D72D0E94D3B1609384
:1048B00096067093970680939806909399060C94A9
:1048C000D72D83E50E9465B2882319F00E94E3B1D9
:1048D00001C080E080935F06E4EBF7E284918F01F2
:1048E0000F5F1F4F882321F00E949FB2F801F6CF7F
:1048F000E0E8F3E084918F010F5F1F4F882321F0E0
:104900000E949FB2F801F6CF80915F068823A1F143
:10491000B2E7CB2EB3E0DB2EE12CF12C20E080912E
:104920005F0690E00E2C02C0959587950A94E2F7F9
:1049300080FF17C0BB24B394B20E222319F08CE27F
:104940000E949FB2F60125913491F9018491890169
:104950000F5F1F4F882321F00E949FB29801F5CF6F
:104960002B2DFFEFEF1AFF0A32E0C30ED11C45E0FA
:10497000E416F104A1F642C0ECE7F3E084918F0164
:104980000F5F1F4F8823D1F10E949FB2F801F6CF2D
:104990008AE50E9436B2882311F40C942E2D0E94D1
:1049A00003B26B017C0120E030E040EA51EC0E9450
:1049B000E5D887FF02C00C94202D20E030E040EACB
:1049C00051E4C701B6010E94A2DF181614F40C943A
:1049D000202DC0924714D0924814E0924914F092CE
:1049E0004A140E940EBC6091471470914814809143
:1049F000491490914A1442E00E94F6B38AE00E9462
:104A00009FB20C94D72D109217020C94D72D87E8E3
:104A100093E00E9411850E94A29E0E94DC9E84E683
:104A200090E00E9400890E947CB10C94D72D83E510
:104A30000E9465B2882369F00E94E3B18D3320F4AF
:104A4000809328020C94D72D8CE3809328020C9439
:104A5000D72DE4EBF7E284918F010F5F1F4F88237E
:104A600021F00E949FB2F801F6CF4091280250E059
:104A700060E070E080E993E00E94DB5C8AE00E94E5
:104A80009FB20C94D72D80915F0683FF02C00C94D7
:104A9000D72D83E50E9465B2882311F40C94D72D9D
:104AA0000E9403B20E94FAD7CB010E9477B20C9405
:104AB000D72D89E690E00E94A44F811111C0E7E94B
:104AC000F3E084918F010F5F1F4F882321F00E9434
:104AD0009FB2F801F6CF0E94C96B8AE00E949FB294
:104AE00010929506109294060C94B82F83E50E94BC
:104AF00065B2882311F40C94D72D0E94E3B18D3355
:104B000008F08CE3809388060E94C9B76B017C0192
:104B10002091880630E0A8EEB3E00E94C5E3DC01F6
:104B2000CB018C0D9D1DAE1DBF1D809384069093FF
:104B30008506A0938606B09387060C94D72D8DE644
:104B400090E00E94A44F81110C94D72D80915F06B4
:104B500083FF02C00C94D72D83E50E9465B28111BA
:104B60000C943C2F82E50E9465B281110C943C2F7D
:104B70000C94D72D80915F0683FF02C00C94D72D33
:104B800083E50E9465B281110C944E2F82E50E944C
:104B900065B281110C944E2F0C94D72D83E50E94A1
:104BA00065B2882339F00E94D3B18B016F3F710544
:104BB00019F010F00FEF10E080E50E9465B281114E
:104BC00005C01093310400933004F1C70E94E3B193
:104BD0008111EDC7F6CF80E50E9465B2811105C055
:104BE0001092310410923004E2C70E94D3B1672BB7
:104BF00009F0DDC7F5CF1092BF03D9C781E08093DC
:104C0000BF03D5C783E50E9465B2882399F00E944F
:104C100003B220E030E04AE754E40E9407E00E943B
:104C200000D86093290270932A0280932B029093FC
:104C30002C02BDC788E50E9436B281110C945E2F0C
:104C400089E50E9436B281110C945E2F8AE50E949C
:104C500036B281110C945E2F85E40E9436B2811128
:104C60000C945E2F0E94DC9E0E940185A0C783E504
:104C70000E9436B2882309F49AC70E9403B220E04A
:104C800030E04AE754E40E9407E00E9400D86093B5
:104C90008E0670938F06809390069093910687C737
:104CA000D6018D916D010E9436B2882309F46DC042
:104CB000133009F063C00E9403B24B015C0120E095
:104CC00030E040EA51E40E94A2DF87FF4EC0A50118
:104CD00094016091621270916312809164129091BC
:104CE00065120E9489D72B013C019B01AC016091A8
:104CF000E0117091E1118091E2119091E3110E9415
:104D000007E06093E0117093E1118093E2119093BA
:104D1000E311A30192016091181270911912809110
:104D20001A1290911B120E9407E060931812709360
:104D3000191280931A1290931B1260916C06709155
:104D40006D0680916E0690916F060E94A6DFA3010A
:104D500092010E9407E00E9400D860936C06709355
:104D60006D0680936E0690936F0680926212909209
:104D70006312A0926412B092651207C00E9403B23F
:104D8000F70160837183828393831F5FF4E0EF0EEA
:104D9000F11C143009F084CF0E94E45E08C70E9421
:104DA000DC9E0E94449B03C7E5E7F4E084918F01F9
:104DB0000F5F1F4F882321F00E949FB2F801F6CFAA
:104DC000E7E6F4E084918F010F5F1F4F882321F005
:104DD0000E949FB2F801F6CFE0E5F4E084918F01E4
:104DE0000F5F1F4F882321F00E949FB2F801F6CF7A
:104DF000E0E4F4E084918F010F5F1F4F882321F0DE
:104E00000E949FB2F801F6CFEFE2F4E084918F01A7
:104E10000F5F1F4F882321F00E949FB2F801F6CF49
:104E2000EEE1F4E084918F010F5F1F4F882321F0A2
:104E30000E949FB2F801F6CFEFE0F4E084918F0179
:104E40000F5F1F4F882321F00E949FB2F801F6CF19
:104E5000EAEFF3E084918F010F5F1F4F882321F069
:104E60000E949FB2F801F6CFE4EEF3E084918F0147
:104E70000F5F1F4F882321F00E949FB2F801F6CFE9
:104E8000EFECF3E084918F010F5F1F4F882321F037
:104E90000E949FB2F801F6CFE2EBF3E084918F011C
:104EA0000F5F1F4F882321F00E949FB2F801F6CFB9
:104EB000EAE9F3E084918F010F5F1F4F882309F423
:104EC00076C60E949FB2F801F5CF85E40E9436B203
:104ED000882381F00E94F4B1882361F0E4EBF7E2CB
:104EE00084918F010F5F1F4F882321F00E949FB292
:104EF000F801F6CF81E40E9436B2882381F00E9447
:104F0000F4B1882361F0E7E3F5E084918F010F5F4E
:104F10001F4F882321F00E949FB2F801F6CF009125
:104F2000E1061091E206D8018D918D01882309F4E4
:104F300065CD0E949FB2F7CFEEE5F5E084918F0139
:104F40000F5F1F4F882321F00E949FB2F801F6CF18
:104F5000E6E5F5E084918F010F5F1F4F882321F074
:104F60000E949FB2F801F6CF789B03C005EF12E0D4
:104F700002C00AEF12E0F80181918F01882319F035
:104F80000E949FB2F8CF8AE00E949FB2EEE4F5E063
:104F900084918F010F5F1F4F882321F00E949FB2E1
:104FA000F801F6CF029B03C005EF12E002C00AEF42
:104FB00012E0D8018D918D01882319F00E949FB2D3
:104FC000F8CF8AE00E949FB2E6E4F5E084918F0179
:104FD0000F5F1F4F882321F00E949FB2F801F6CF88
:104FE0008091000183FD03C005EF12E002C00AEFCB
:104FF00012E0F80181918F01882319F00E949FB27D
:10500000F8CF8AE00E949FB2EBE3F5E084918F0134
:105010000F5F1F4F882321F00E949FB2F801F6CF47
:105020008091000185FD03C005EF12E002C00AEF88
:1050300012E0D8018D918D01882309F4DFCC0E9404
:105040009FB2F7CF81E0809312028093C206AFC572
:10505000109212021092C206AAC588EC90E00E943B
:10506000A44F8111A4C584E40E9436B28823D1F1F3
:105070000E9403B211E020E030E0A9010E94A2DF0B
:10508000811101C010E010932012112359F10091F9
:10509000B80310E00E9403B2000F111F000F111F90
:1050A000F801E85BFD4F608371838283938320E086
:1050B00030E0A901609148027091490280914A0252
:1050C00090914B020E94A2DF81110CC080E090E021
:1050D000A0E4B0E48093480290934902A0934A026E
:1050E000B0934B020E94598862C56CEFE62E61E1D5
:1050F000F62E0DE712E074E0D72ED00EF801819164
:105100008F010E9436B2882351F00E9403B20E94A0
:1051100000D8D7016D937D938D939C931397B4E042
:10512000EB0EF11CD012EACF0E94735D40C54CE03B
:10513000E42E42E1F42E0DE712E054E0D52ED00E1D
:10514000F80181918F010E9436B2882341F00E94BC
:1051500003B2D7016D937D938D939C931397B4E025
:10516000EB0EF11CD012ECCF22C583E50E9436B2C3
:105170008823D9F00E9403B2AB01BC014093F8111F
:105180005093F9116093FA117093FB114093F01151
:105190005093F1116093F2117093F31182ED95E049
:1051A0000E94155D8AE00E949FB280E50E9436B29F
:1051B000882399F00E9403B2AB01BC014093F8111F
:1051C0005093F9116093FA117093FB1185EB95E000
:1051D0000E94155D8AE00E949FB282E50E9436B26D
:1051E000882399F00E9403B2AB01BC014093F411F3
:1051F0005093F5116093F6117093F71186E995E0DD
:105200000E94155D8AE00E949FB284E50E9436B23A
:10521000882309F4CCC40E9403B2AB01BC014093C3
:10522000F0115093F1116093F2117093F31188E72C
:1052300095E00E94155D8AE00E949FB2B8C483E5A4
:105240000E9436B2882351F00E9403B26093EC11A1
:105250007093ED118093EE119093EF1184E50E940D
:1052600036B2882351F00E9403B26093E411709328
:10527000E5118093E6119093E71182E40E9436B223
:10528000882351F00E94C3B16093E8117093E91133
:105290008093EA119093EB1188E50E9436B288233F
:1052A00051F00E9403B26093D4117093D511809392
:1052B000D6119093D71189E50E9436B2882351F018
:1052C0000E9403B26093D8117093D9118093DA11C0
:1052D0009093DB118AE50E9436B2882351F00E9438
:1052E00003B26093DC117093DD118093DE11909313
:1052F000DF1185E40E9436B2882309F458C40E9465
:1053000003B26093E0117093E1118093E2119093E6
:10531000E3114DC40E94AE9A4AC483E50E9465B26F
:10532000882309F444C40E94D3B17093330260937C
:1053300032023DC480E50E9436B2882309F437C4A6
:105340000E94D3B16B017C0183E50E9465B2882382
:1053500021F00E94D3B18B0102C00FEF1FEFC801F3
:105360000196039708F023C4D7FC21C49C2DEAEFD3
:10537000F5E088E28E0F2491921709F418C4319653
:105380008E13F9CFCCC580E50E9436B2882309F48C
:105390000EC40E94D3B16B017C018B01672B09F015
:1053A0007EC083E50E9436B2882339F00E94D3B1D3
:1053B00084E09FE00E94B25BFAC3E4EBF7E28491E1
:1053C0007F012FEFE21AF20A882321F00E949FB298
:1053D000F701F5CF60E070E08BE396E00E94325D6C
:1053E0008091060F28E532E06901C81AD10887FDCF
:1053F000D394CC0CDD1CCC0CDD1C0D2C000CEE0869
:10540000FF088091050F28E830E04901881A9108CB
:1054100087FD9394880C991C880C991C092C000C0E
:10542000AA08BB088091040F8F3FB9F090E0FC01FF
:10543000EE0FFF1F8E0F9F1FFC01E956F14F0181F8
:10544000128183E0000F111F8A95E1F794E0169511
:1054500007959A95E1F70E5F1F4F98012F5F3F4F19
:10546000C901330FAA0BBB0B9C01AD0128193909E7
:105470004A095B09A4EBB0E00E94BBE3A7019601D7
:10548000281939094A095B090E949FE3B90188E399
:1054900096E00E94325D8AE00E949FB288C3E9E9EB
:1054A000F7E284918F010F5F1F4F882321F00E9444
:1054B0009FB2F801F6CFB60181E396E00E94325D1B
:1054C000E2E2F6E084918F010F5F1F4F882309F419
:1054D0006EC30E949FB2F801F5CF85E40E9465B2C9
:1054E000811110C080E50E9436B2882391F00E949D
:1054F00003B26093440270934502809346029093F6
:10550000470207C00E94E3B1882361F3E9E9F7E2AB
:1055100071C089E40E9436B2882381F00E9403B2F0
:105520002CEA35EC47E25EE30E9407E0609340021C
:1055300070934102809342029093430284E40E945C
:1055400036B2882381F00E9403B22CEA35EC47E2A0
:105550005EE30E9489D760933C0270933D02809382
:105560003E0290933F02E4EBF7E284918F010F5FDC
:105570001F4F882321F00E949FB2F801F6CF40917F
:1055800044025091450260914602709147028BE4BB
:1055900096E00E94155D2CEA35EC47E25EE36091EF
:1055A00040027091410280914202909143020E9418
:1055B00089D7AB01BC0187E496E00E94F85C2CEA35
:1055C00035EC47E25EE360913C0270913D028091D0
:1055D0003E0290913F020E9407E0AB01BC0183E4D0
:1055E00096E00E94F85C8AE00E949FB2E0C20E94AE
:1055F0009FB2F80184918F010F5F1F4F8111F7CF88
:105600000CE013E0D8018D918D01882309F4F6C9CF
:105610000E949FB2F7CF0E94CF96C9C20E94DC9E23
:10562000C6C281E00E94634EC2C280E00E94634E07
:10563000BEC286E50E9436B2882341F080913F06C3
:1056400090914006892B11F00E946ED283E50E9452
:1056500036B2182F882319F00E94F4B1182F83E571
:105660000E9436B2882319F0812F0E94934AFF24AA
:10567000F39480916612811101C0F12C111103C0C5
:10568000E4EBF7E21AC0F110FBCFE9E9F7E284910D
:105690008F010F5F1F4F882321F00E949FB2F801F6
:1056A000F6CFEDE5F6E084918F010F5F1F4F882361
:1056B00039F30E949FB2F801F6CF84918F010F5FFA
:1056C0001F4F882321F00E949FB2F801F6CFF110FE
:1056D00003C068E073E002C064E073E08FE496E02A
:1056E0000E944B5D8AE00E949FB261C289E40E94E1
:1056F00065B2882321F00E94D3B1162F01C01FEF9D
:105700008AE40E9465B2882321F00E94D3B1062F5B
:1057100001C00FEF8AE50E9436B2F82E811105C054
:1057200081E50E9436B2D82E01C0D12C17FD02C0EF
:1057300007FF03C0E9E9F7E205C0F1101AC0D11074
:1057400018C0F8CF84918F010F5F1F4F882321F07D
:105750000E949FB2F801F6CFEBE9F6E084918F0149
:105760000F5F1F4F882309F422C20E949FB2F801E5
:10577000F5CF1C3018F0E9E9F7E206C00A30D8F797
:1057800016C00E949FB2F80184918F010F5F1F4FD6
:105790008111F7CFECE7F6E084918F010F5F1F4F87
:1057A000882309F404C20E949FB2F801F5CFE12ECC
:1057B000110FFF08002E000C110B0E9403B2DD2018
:1057C00099F02AE02E9DF0012F9DF00D1124E00F9D
:1057D000F11FEE0FFF1FEE0FFF1FE959FD4E208155
:1057E00031814281538103C020E030E0A901AAE069
:1057F000AE9DF001AF9DF00D11240E0F1F1F000F85
:10580000111F000F111F09591D4E0E949CD6F8014F
:105810006083718382839383CAC19101295B334082
:105820003CAF2BAFD1018D911D01882309F48BC0B2
:10583000F7014080518062807380F801E45AFD4F87
:105840002081318142815381F801E45FFA4E608109
:105850007181828193810E949CD620E030E040E0FB
:105860005FE30E9407E09B01AC01C301B2010E940B
:10587000E5D8181644F4F801E554F94F8590959051
:10588000A590B49003C0812C912C5401F801EF5BDA
:10589000FD4E2081318142815381C301B2010E94BA
:1058A0009BD69B01AC01C501B4010E949BD64B0164
:1058B0005C0120E030E040EA51EC0E94E5D887FD31
:1058C00029C020E030E040EA51E4C501B4010E9463
:1058D000A2DF1816FCF0D6012D913D914D915C91FF
:1058E000C501B4010E949BD69B01AC01C301B2016A
:1058F0000E949CD6F7016083718382839383D601D3
:105900008D929D92AD92BC9213978BAD9CAD0E94EF
:10591000F24E19C0E9E9F7E284918F010F5F1F4F42
:10592000882321F00E949FB2F801F6CFE7ECF6E061
:1059300084918F010F5F1F4F882309F438C10E94A3
:105940009FB2F801F5CFB4E0CB0ED11C0C5F1F4F16
:10595000E4E0EE0EF11C0C30110509F05ECF0E9460
:105960007CB10E94449B23C10E94B63F20C10E948B
:1059700058431DC183E50E9436B2882319F00E9466
:10598000F4B101C081E091E089270E94C58D0FC16B
:1059900010E0113079F01230D1F0EBEFF6E08491A5
:1059A0007F012FEFE21AF20A882359F10E949FB279
:1059B000F701F5CFE2E0F7E084917F013FEFE31AD2
:1059C000F30A8823F1F00E949FB2F701F5CFEAE0D5
:1059D000F7E084917F014FEFE41AF40A882321F065
:1059E0000E949FB2F701F5CFE5EEF6E084917F01CA
:1059F0005FEFE51AF50A882321F00E949FB2F701B4
:105A0000F5CF1F5F133009F0C4CFD1C0E4EBF7E24C
:105A100084918F010F5F1F4F882321F00E949FB256
:105A2000F801F6CFE1E4F7E084918F010F5F1F4F9B
:105A3000882311F40C94C8240E949FB2F801F4CF7B
:105A4000EAE2F7E084918F010F5F1F4F882311F482
:105A50000C94FE240E949FB2F801F4CF40914714A9
:105A6000509148146091491470914A1487E297E06C
:105A70000E94155D80916612882371F0EFE0F7E0D7
:105A800084918F010F5F1F4F882311F40C94FE2423
:105A90000E949FB2F801F4CFEBE1F7E084918F010F
:105AA0000F5F1F4F882311F40C94FE240E949FB2B5
:105AB000F801F4CF84918F010F5F1F4F882321F0ED
:105AC0000E949FB2F801F6CFEBE4F7E084918F01DA
:105AD0000F5F1F4F882309F46AC00E949FB2F8012C
