:100000000C94A5180C94E5180C94E5180C94E518BC
:100010000C94E5180C94E5180C94E5180C94E5186C
:100020000C94E5180C94E5180C94E5180C94E5185C
:100030000C94E5180C94E5180C94E5180C94E5184C
:100040000C94E5180C9405810C94E5180C94E518B3
:100050000C94E5180C94FC7F0C94E5180C94DFCFFD
:100060000C94E5180C944A540C9436540C94E518EE
:100070000C94E5180C94E5180C94E5180C94E5180C
:100080000C94CD520C94E5180C94E5180C94E518DA
:100090000C940C540C9440540C94E5180C94E518F2
:1000A0000C94E5180C94E5180C949F520C94E518E8
:1000B0000C94E5180C94E5180C94E5180C94E518CC
:1000C0000C94E5180C94E5180C94E5180C94E25384
:1000D0000C94AC530C94E5180C94E5180C94E518AA
:1000E0000C94E518084AD73B3BCE016E84BCBFFD9B
:1000F000C12F3D6C74319ABD56833DDA3D00C77FF8
:1001000011BED9E4BB4C3E916BAAAABE0000008090
:100110003F05A84CCDB2D44EB93836A9020C50B91F
:10012000918688083CA6AAAA2ABE000000803F004B
:100130004E414E494E495459494E46CDCCCC3D0ACC
:10014000D7233C17B7D13877CC2B329595E6241FAF
:10015000B14F0A000020410000C84200401C462068
:10016000BCBE4CCA1B0E5AAEC59D7400407A10F33B
:100170005A00A0724E18090010A5D4E80000E876D5
:1001800048170000E40B54020000CA9A3B0000002C
:10019000E1F505000080969800000040420F000045
:1001A00000A08601000000102700000000E8030006
:1001B0000000006400000000000A000000000001D0
:1001C00000000000002C76D888DC674F0823DFC1D0
:1001D000DFAE59E1B1B796E5E3E453C63AE651998B
:1001E0007696E8E6C28426EB898C9B62ED407C6FB4
:1001F000FCEFBC9C9F40F2BAA56FA5F490055A2A6B
:10020000F75C936B6CF9676DC11BFCE0E40D47FE76
:10021000F520E6B500D0ED902E030094357705006B
:1002200080841E080000204E0A000000C80C3333F2
:1002300033330F986E12831141EF8D2114893BE601
:100240005516CFFEE6DB18D1844B381BF77C1D908A
:100250001DA4BBE424203284725E228100C9F124F3
:10026000ECA1E53D27434F4D4D554E49434154497F
:100270004F4E0044525952554E004552524F525320
:1002800000494E464F004543484F00322E312E78EC
:100290002D44392076322E302E330057616E68613E
:1002A0006F204439204D4B33203530300053544FAC
:1002B000505045442E20005072696E746572207350
:1002C000746F707065642064756520746F2065724A
:1002D000726F72732E20466978207468652065728B
:1002E000726F7220616E6420757365204D393939E3
:1002F00020746F20726573746172742E20285465A7
:100300006D706572617475726520697320726573B2
:1003100065742E205365742069742061667465725B
:100320002072657374617274696E67290A004E6F7A
:1003300020436865636B73756D2077697468206C02
:10034000696E65206E756D6265722C204C617374E8
:10035000204C696E653A20004E6F20436865636BE0
:1003600073756D2077697468206C696E65206E7591
:100370006D6265722C204C617374204C696E653A15
:100380002000636865636B73756D206D69736D61C3
:100390007463682C204C617374204C696E653A203C
:1003A000004C696E65204E756D6265722069732020
:1003B0006E6F74204C617374204C696E65204E75AD
:1003C0006D6265722B312C204C617374204C696E08
:1003D000653A20004D3131300053657269616C20FF
:1003E000737461747573206D69736D617463680AE9
:1003F0000053442072656164206572726F720A0056
:10040000746F6F206D75636820696E6163746976BF
:10041000652074696D65202D2063757272656E7438
:1004200020636F6D6D616E643A20002121204B497D
:100430004C4C20636175736564206279200062759D
:1004400073793A2070617573656420666F722069F4
:100450006E7075740A00627573793A2070617573F5
:10046000656420666F7220757365720A0062757329
:10047000793A2070726F63657373696E670A00530F
:100480004420436172642072656164206572726FFA
:1004900072004D313030305300506F776572204F0D
:1004A00075746167650046696C616D656E74207274
:1004B000756E6F757420452564004D363030002010
:1004C00066696C616D656E745F72756E6F757420B0
:1004D0000066696C616D656E745F72756E6F7574C0
:1004E00020540046696C616D656E7452756E6F754F
:1004F00074205400506C6561736520526573657497
:1005000000706F7765726F6666004B494C4C4544CE
:100510002E20005072696E7465722068616C74657B
:10052000642E206B696C6C28292063616C6C656497
:10053000210A006563686F3A004572726F723A0073
:1005400042696C696E656172204C6576656C696E96
:100550006720477269643A0A005072696E74204FCE
:10056000626A002F2F616374696F6E3A006E6F7458
:10057000696669636174696F6E20006E6F74696685
:1005800069636174696F6E200070726F6D70745F63
:1005900000626567696E00656E640073686F77005E
:1005A000627574746F6E00486F74656E6420746F4A
:1005B0006F20636F6C640A004D323453004D323348
:1005C00020004739322E3945004731460047314631
:1005D0003630305A004731463330303058004D31D4
:1005E000303650004D31303953004D3230304400F8
:1005F0004739322E395A004D3432305300473238A1
:1006000052305859004731463630305A0047393257
:100610002E395A004739322E394530004D313039A4
:1006200053004D31393053004D3432305330004F88
:1006300046460A004661646520486569676874201B
:1006400000426564204C6576656C696E67200046E3
:1006500061696C656420746F20656E61626C6520F1
:10066000426564204C6576656C696E670A00496E68
:1006700076616C6964206D6573682E0A0050726F34
:1006800062696E6720506F696E740025532025697A
:100690002F2569002E0A002F0050726F62696E6765
:1006A000206D65736820706F696E74200020284487
:1006B000525952554E2900473239204175746F20E6
:1006C000426564204C6576656C696E67003F202842
:1006D0004C2C522C462C4229206F7574206F6620BA
:1006E000626F756E64732E0A0020756E6974732FC5
:1006F0006D696E290A003F46656564726174652004
:1007000028532920746F6F206C6F772E2028557323
:10071000696E6720003F2856296572626F736520F5
:100720006C6576656C20696D706C61757369626C5F
:10073000652028302D34292E0A00426164205A2079
:1007400076616C75650A004E6F2062696C696E6532
:10075000617220677269640A0020440020204D32D3
:100760003030205300202844697361626C6564292D
:100770003A0046696C616D656E74207365747469C6
:100780006E67730020204D3230312058004D617863
:1007900020416363656C65726174696F6E202875B2
:1007A0006E6974732F7332290020204D323033204C
:1007B00058004D61782066656564726174657320C8
:1007C00028756E6974732F73290020520020204D04
:1007D000323034205000416363656C657261746926
:1007E0006F6E2028756E6974732F7332292028501C
:1007F0003C7072696E742D616363656C3E20523C7F
:10080000726574726163742D616363656C3E20541C
:100810003C74726176656C2D616363656C3E290082
:1008200020540020530020204D323035204200411A
:100830006476616E6365642028423C6D696E5F7307
:1008400065676D656E745F74696D655F75733E2075
:10085000533C6D696E5F66656564726174653E20C8
:10086000543C6D696E5F74726176656C5F66656538
:1008700064726174653E20583C6D61785F6A657290
:100880006B3E20593C6D61785F6A65726B3E205A01
:100890003C6D61785F6A65726B3E20453C6D6178A6
:1008A0005F6A65726B3E29002044002049002020C9
:1008B0004D333031205000486F74656E64205049CC
:1008C000440070617573656400486561642063610C
:1008D0006E6E6F74206265207061726B656400508B
:1008E0006175736500496E736572742066696C6129
:1008F0006D656E7420616E64207072657373206222
:100900007574746F6E0A0052656865617420446F77
:100910006E6500526568656174696E672E2E2E00E3
:100920005265686561740048656174657220546938
:100930006D656F75740050726573732062757474A1
:100940006F6E20746F2068656174206E6F7A7A6CA8
:10095000650A004E6F7A7A6C65205061726B65642F
:100960000044697361626C6552756E6F75740050F6
:10097000757267654D6F72650050617573656400CF
:100980004C6F61642046696C616D656E7420540023
:100990004C6F61642046696C616D656E7400496ED0
:1009A000736572742066696C616D656E7420616E2A
:1009B0006420707265737320627574746F6E0A00C0
:1009C000726573756D656400526573756D696E67E8
:1009D00000203B0020550020204D363033204C00B5
:1009E00046696C616D656E74206C6F61642F756E05
:1009F0006C6F616400203B200020204D3431332097
:100A00005300506F7765722D6C6F7373207265633E
:100A10006F766572790020496E76616C6964206535
:100A2000787472756465722000536C6565702E2E43
:100A30002E005B505D61726B696E67207374796C18
:100A4000652028302E2E34292E003F496E76616CA9
:100A5000696420005A2050726F626520506173747F
:100A6000204265640A005A2050726F62652050610E
:100A700073742042656400473238004D6573682006
:100A8000706F696E74206F7574206F662072616E6E
:100A900067650A00626567696E00436F6E74696E10
:100AA0007565004D302053746F70004D31205374C4
:100AB0006F7000436C69636B20746F2052657375AF
:100AC0006D652E2E2E004E6F204D6F76652E0045E3
:100AD0006E642066696C65206C6973740A004265F7
:100AE00067696E2066696C65206C6973740A004ED4
:100AF0006F206D656469610A00534420636172640C
:100B00002072656C65617365640A00526573756D6A
:100B1000696E6720534400526573756D65005061BE
:100B200075736520534400286E6F2066696C6529D3
:100B30000043757272656E742066696C653A2000B8
:100B40004E6F74205344207072696E74696E670A28
:100B5000005344207072696E74696E672062797404
:100B60006520005072696E742074696D653A2000CA
:100B70007061757365006F6B004C696E653A20009B
:100B80006F666600860281027A027302650244453E
:100B90004255473A004D3131322053687574646FC5
:100BA000776E004D31313320530057616E68616FAD
:100BB000204439204D4B3320353030204F46462ECF
:100BC0000020732E0A00496E616374697669747936
:100BD0002074696D656F757420002F2F0057415286
:100BE0004E494E4721204C6F77205A204A65726B40
:100BF000206D6179206C65616420746F20756E775B
:100C0000616E746564207061757365732E0A0020CF
:100C100058003B200020204D61783A200020002021
:100C2000204D696E3A2000203B200020204D3231BB
:100C300031205300250A0046523A0020466C6F7757
:100C40003A20003A200020536572766F2000206F12
:100C50007574206F662072616E67650A0053657255
:100C6000766F200050726F6265204F666673657400
:100C7000205A0050726F6265204F6666736574205B
:100C80005A0064697300656E0043290061626C65F7
:100C90006420286D696E2074656D702000436F6C50
:100CA00064206578747275646573206172652000D4
:100CB000203B20486F73742068616E646C696E67B6
:100CC000200046696C616D656E742072756E6F757B
:100CD0007420004D34323120696E636F7272656327
:100CE0007420706172616D657465722075736167DF
:100CF000650A004D65736820706F696E74206F75AA
:100D000074206F662072616E67650A004F666673B5
:100D1000657473204170706C696564004D494E2F95
:100D20004D415820546F6F2046617200546F6F2000
:100D30006661722066726F6D204D494E2F4D41588D
:100D40000A00454550524F4D204F4B0A00290A00DA
:100D500020746F20003F5A206F7574206F662072D8
:100D6000616E6765202800290A0020746F20003F0B
:100D700059206F7574206F662072616E6765202838
:100D800000290A0020746F20003F58206F757420DE
:100D90006F662072616E67652028004D383400440C
:100DA0006F6E65207072696E74696E672066696C1B
:100DB000650A004D3737004D33310020204D323069
:100DC00036205800486F6D65206F66667365740045
:100DD0004361703A00434F4E4649475F4558504F74
:100DE0005254004D4541545041434B00434F4F4CEA
:100DF00045525F54454D504552415455524500436C
:100E000048414D4245525F54454D5045524154551D
:100E100052450045505F42414259535445500042AB
:100E20004142595354455050494E47004152435353
:100E3000004D4F54494F4E5F4D4F44455300544869
:100E400045524D414C5F50524F54454354494F4ECB
:100E500000455854454E4445445F4D32300043559B
:100E600053544F4D5F4649524D574152455F55507F
:100E70004C4F4144004C464E5F5752495445004C3C
:100E80004F4E475F46494C454E414D4500415554F4
:100E90004F5245504F52545F53445F535441545541
:100EA000530053445F575249544500524550454101
:100EB00054004D554C54495F564F4C554D450053C9
:100EC00044434152440050524F4D50545F5355508B
:100ED000504F525400484F53545F414354494F4E72
:100EE0005F434F4D4D414E445300454D455247459C
:100EF0004E43595F50415253455200434153455F61
:100F00004C494748545F4252494748544E45535311
:100F100000544F47474C455F4C4947485453005392
:100F20004F4654574152455F504F57455200425526
:100F3000494C445F50455243454E54004C4556453C
:100F40004C494E475F44415441005A5F50524F4212
:100F5000450052554E4F5554004155544F4C45563F
:100F6000454C005052494E545F4A4F420050524F38
:100F70004752455353004155544F5245504F5254D8
:100F80005F54454D50004155544F5245504F5254B7
:100F90005F504F5300564F4C554D455452494300F6
:100FA000454550524F4D0042494E4152595F4649C6
:100FB0004C455F5452414E534645520053455249A9
:100FC000414C5F584F4E5F584F4646004649524D80
:100FD000574152455F4E414D453A4D61726C696EC5
:100FE000206275676669782D322E312E782044395B
:100FF0002076322E302E3320285365702031352054
:10100000323032362031313A34303A3133292053BC
:101010004F555243455F434F44455F55524C3A67E5
:1010200069746875622E636F6D2F4C652D53796CF2
:1010300032312F57414E48414F2D4475706C6963D2
:1010400061746F722D392050524F544F434F4C5F93
:1010500056455253494F4E3A312E30204D41434868
:10106000494E455F545950453A57616E68616F204B
:101070004439204D4B3320353030204B494E454DBF
:1010800041544943533A43617274657369616E20F8
:1010900045585452554445525F434F554E543A318A
:1010A00020555549443A63656465326132662D3492
:1010B0003161322D343734382D396231322D633578
:1010C000356336326633363766660047322F47332C
:1010D0002062616420706172616D65746572730A6B
:1010E000005A2050726F626520506173742042650F
:1010F0006400205A3A0020593A0042656420583A68
:10110000004732384F00203B0020204D3835312039
:1011100058005A2D50726F6265204F666673657471
:1011200000220A00656E7175657565696E6720221B
:10113000006F6B0A00526573656E643A2000256982
:10114000730025696D20256973002569682025696C
:101150006D2025697300256964202569682025694B
:101160006D2025697300256979202569642025692A
:10117000682025696D2025697300436F6F6C696E67
:10118000672E2E2E00453120255300204600204298
:101190000020204D3130342053004175746F2054AD
:1011A000656D7020436F6E74726F6C0020573A004B
:1011B00042656420436F6F6C696E672E2E2E00426D
:1011C00065642048656174696E672E2E2E00236465
:1011D0006566696E652044454641554C545F005034
:1011E00049442074756E696E6720646F6E650041B6
:1011F00075746F74756E65206661696C6564212015
:1012000054696D656F75742E004175746F74756ED9
:1012100065206661696C6564212054656D70657236
:10122000617475726520746F6F20686967682E003D
:101230004175746F74756E65206661696C656421B3
:10124000204261642065787472756465722E005066
:101250004944204175746F74756E65004B442000DD
:101260004B4920004B5020005049442074756E6952
:101270006E6720646F6E65002066696E69736865CD
:1012800064212050757420746865206C617374202B
:101290004B702C204B6920616E64204B6420636F7F
:1012A0006E7374616E74732066726F6D2062656C0C
:1012B0006F7720696E746F20436F6E666967757211
:1012C0006174696F6E2E680A00504944204175743C
:1012D0006F74756E6500206661696C6564212074A9
:1012E000696D656F75740A00504944204175746FCB
:1012F00074756E65004175746F74756E65206661F6
:10130000696C6564212054696D656F75742E0020C9
:101310006661696C6564212054656D7065726174E5
:1013200075726520746F6F20686967680A0050499C
:1013300044204175746F74756E65005049442043B4
:1013400079636C65730025532025692F256900207A
:101350004B643A2000204B693A2000204B703A2021
:101360000020436C617373696320504944200A0074
:101370002054753A2000204B753A2000206D61788A
:101380003A2000206D696E3A200020643A20002047
:10139000626961733A200048656174696E672E2E38
:1013A0002E002073746172740A0050494420417504
:1013B000746F74756E65004175746F74756E652019
:1013C0006661696C6564212054656D706572617435
:1013D00075726520746F6F20686967682E002066DB
:1013E00061696C6564212054656D70657261747506
:1013F000726520746F6F20686967680A00504944FD
:10140000204175746F74756E6500504944204175B4
:10141000746F74756E65003F28432979636C65733A
:10142000206E6F7420706C61757369626C65202822
:101430003E3D33292E0A00206661696C65642120D7
:10144000426164206865617465722069640A0050B5
:101450004944204175746F74756E65000020020068
:101460000000761F0000012002000000761F00002F
:10147000022002000000761F00000320020000008E
:10148000761F000004200200000091540000052097
:10149000020000003A1F0000062000000000171F95
:1014A0000000072002000000E41E000008200200E7
:1014B0000000F81E00000920020000007D39000035
:1014C0000A2002000000741900000B200200000036
:1014D000451B00000E2002000000AE1E00000F2081
:1014E00002000000941E000010200200000075554C
:1014F00000001120020000004855000012200200E8
:101500000000485500001420020000002055000093
:10151000152002000000D41E00001620020000006A
:10152000631E00001720020000002E1E000018207D
:10153000020000006C190000192002000000201DAC
:1015400000001A20000000008E4300001B20000055
:101550000000662900001C20020000006019000045
:101560001D20020000004D1900001E200200000096
:10157000C21D00001F20020000006943000020205F
:1015800002000000F11C0000212002000000F11CFC
:101590000000222002000000F11C000023200200B5
:1015A0000000B01C000024200200000045190000CB
:1015B000252000000000A51C0000262000000000DF
:1015C0003E4200002720020000005843000028206F
:1015D00002000000444300002920020000002619F8
:1015E00000002A20020000006D1C00002B200000DB
:1015F0000000E24200002C2002000000CE42000069
:101600002D2002000000AC4200002E20020000004D
:101610005D1C00002F200000000020190000203079
:101620000200000000002B7C25302000000000009C
:10163000D47B4530200000000000D47B65302000C2
:1016400000000000D47B8530200000000000D47B27
:10165000A530200000000000D47BC530020000004F
:101660000000807CC6302000000000009B7BE6303C
:101670000201000000009985E8300F010000000021
:101680000F96F730020100000000AB79BE31020076
:10169000000000005299F830020111020000B778F2
:1016A000F9300201000000009A79FC300201CE07F7
:1016B00000004D78FD300201D2070000B778FE30FF
:1016C0000200000000008679FF300201900D00004A
:1016D0004D7800310201940D0000B778013102000D
:1016E00000000000867905310201000000007A79CF
:1016F000063102010A0E0000E377073102000902F9
:101700000000627908310201000000005F7B0931AE
:101710000200000000003B7A22310200690600004E
:101720009877233102006B0600009877243102007D
:10173000000000004E79253102000A02000098776F
:1017400026310201180A00004D78273102011C0AD7
:1017500000004D7828310201200A00004D7829311F
:1017600002006D06000062792A31020000000000CC
:10177000507B2B3102000000000036792C31020032
:101780000C02000098772D3104010000000004775E
:101790002F31040100000000FF7931310401000005
:1017A0000000C379333118009B020000A07A4B314E
:1017B000180000000000FD7A633110008B02000069
:1017C000A07A7331020000000000C471743102007D
:1017D00000000000C5717531180000000000D77AC4
:1017E0008D31180000000000C67AA53118000000F5
:1017F0000000B57ABD3102000000000022990040CF
:1018000002010000F2181D79014020026E06511CF1
:10181000E87A2140020008029A714C7722400200C7
:10182000000069250E79234002000000A1250479FB
:101830000050020000000000AB79015000000000E1
:10184000E7180000000000000000000000004E6FDC
:101850007420616C6C6F776564207768696C6520B3
:1018600069646C65004E6F7420616C6C6F776564A1
:1018700020647572696E67207072696E74004E6FB5
:101880002053442043617264204465746563746529
:10189000640043616E6E6F7420656E7465722073B0
:1018A00075626469723A20004E6F2066696C65202B
:1018B00073656C6563746564004D32350052657301
:1018C000756D6500554920506175736500726573CB
:1018D000756D65004D323400436F6F6C696E672E15
:1018E0002E2E004D3530300047323900486F6D697B
:1018F0006E672072657175697265640054656D70FC
:101900006572617475726520746F6F206C6F7700FB
:101910004732385A004732385859004732385859F8
:101920005A00486F6D696E672E2E2E0045786563EC
:101930007574696E6720636F6D6D616E642E2E2EF7
:10194000004D353030004D353032004D3939390ACF
:101950004D323830503053313630004D3530300054
:10196000504944206175746F74756E696E672E2ED0
:101970002E004D333033432564452564532564558B
:101980003100426564205049442064697361626C8F
:101990006564004D313030304300496E76616C69CA
:1019A00064207265636F766572792064617461008A
:1019B0004D31303030004275737900BD3100003355
:1019C000314B3163317331743175318D31A5310053
:1019D0000023400000224000002B312C3121402DFB
:1019E000312F31313100002A310000014000002642
:1019F000312731283129310000FF300031243125D1
:101A0000310000223123310000FF300031FC30FD75
:101A100030083109310000FF300031FC30FD30006A
:101A2000000631073100000531000000400000FFD2
:101A30003000310131FC30FD30FE300000FF30005D
:101A400031FC30FD300000FF300031FC30FD30E66D
:101A500030E830005000000031FD300040F830F92F
:101A60003006310000FF300031FC30FD30E630E858
:101A700030F730BE310000203025304530653085EC
:101A800030A530C530C6300000FF300031FC30FDDD
:101A900030000002CD7C038199048D990AADA10B21
:101AA00041A10C0DA10DC9760EDF710FD47110305C
:101AB000A111F3A013CA7116C67100000001891AA2
:101AC00002771A03651A04571A05471A063D1A07C2
:101AD0002F1A082B1A09271A0B211A0C171A0D098D
:101AE0001A0E031A0FF91910EF1911EB1912E71951
:101AF00013D91914D51915D11916BF19F9BB190025
:101B0000000047305A313000473238004732380041
:101B100047305A3000473058256459256400473013
:101B20005A340047323800486F6D696E672E2E2E8A
:101B30000042757379004457494E204755492F4F4D
:101B40005320757064617465207265717569726582
:101B500064002564782564782564002D002D002D0F
:101B6000004D3530300050726F62696E67206661DB
:101B7000696C65640050726F62696E67207375638B
:101B80006365737366756C0063616E63656C0050AA
:101B900072696E742041626F727465640044697387
:101BA0006D6973730055492041626F7274656400FA
:101BB0006F70656E00545249474745524544003A9C
:101BC000200066696C616D656E74007A5F6D696E88
:101BD00000795F6D696E00785F6D696E00526570A7
:101BE0006F7274696E6720656E6473746F702073B2
:101BF00074617475730A0020746F6F206C6F6E6768
:101C000020657874727573696F6E20707265766581
:101C10006E7465640A0020636F6C6420657874726A
:101C20007573696F6E2070726576656E7465640A8F
:101C300000486F6D6520257320466972737400003B
:101C400000000000000000000000005761726E6993
:101C50006E673A20486F6D696E672042756D70201F
:101C600044697669736F72203C20310A00020202D7
:101C70000000FA430000FA430000FA430000A040CD
:101C80000000A0400000004053544F505045442EE7
:101C900020005072696E7465722073746F70706585
:101CA000642064756520746F206572726F72732E84
:101CB0002046697820746865206572726F722061B1
:101CC0006E6420757365204D39393920746F207228
:101CD0006573746172742E202854656D706572612D
:101CE000747572652069732072657365742E205354
:101CF00065742069742061667465722072657374FE
:101D0000617274696E67290A00206572726F7220B1
:101D10002D20726573746172742077697468204D28
:101D20003939390A00424C546F756368002121200B
:101D300053544F502063616C6C656420626563612D
:101D4000757365206F6620000000FA430000FA43B7
:101D50000000FA4300000000000000000000000046
:101D6000454550524F4D2077726974652066616910
:101D70006C65640053657474696E67732053746F87
:101D800072656400290A002062797465733B2063E0
:101D90007263200053657474696E67732053746FA7
:101DA000726564202800204D61726C696E3D563961
:101DB00030290A00454550524F4D207665727369AF
:101DC0006F6E206D69736D6174636820284545509E
:101DD000524F4D3D00454550524F4D206461746156
:101DE00073697A65206572726F722E0A004572728D
:101DF0003A20454550524F4D20435243002028631E
:101E0000616C63756C6174656429210A0020213D51
:101E10002000454550524F4D20435243206D697379
:101E20006D61746368202D202873746F7265642956
:101E30002000454550524F4D20436F7272757074AB
:101E40000A002053697A653A2000496E6465783A41
:101E5000200053746F7265642073657474696E67D3
:101E600073207265747269657665640020627974A6
:101E700065733B2063726320002073746F72656426
:101E80002073657474696E67732072657472696516
:101E9000766564202800454550524F4D207265619B
:101EA00064206661696C656400454550524F4D2061
:101EB000496E697469616C697A65640A00454550C8
:101EC000524F4D20496E697469616C697A6564008E
:101ED000454550524F4D20726573657400486172DC
:101EE00064636F6465642044656661756C74205337
:101EF000657474696E6773204C6F6164656400007B
:101F0000009643000096430000A0400000C84166D0
:101F100066A0426666A0426626C8439A99BC42B84B
:101F20000B0000B80B000064000000B80B0000209C
:101F3000286D6D2900203B204C6576656C696E67C5
:101F4000200020204D3432302053004175746F2022
:101F5000426564204C6576656C696E67004F464645
:101F6000004F4E00203B2053656E736F722000209F
:101F7000204D34313220530046696C616D656E74BA
:101F80002072756E6F75742073656E736F720020AA
:101F90004A002020473239205720490020204D3167
:101FA00034392043203B20556E69747320696E20BC
:101FB00043656C736975730A0054656D7065726171
:101FC0007475726520556E69747300202047323134
:101FD000203B004C696E65617220556E6974730018
:101FE00024F4D43050C38D20C3A24117828B7011CA
:101FF000127A900D826CDA0AA861E108C758660768
:10200000615142061F4B5E05C145A6041B411204E7
:10201000093D9703723931034136DB026633920280
:10202000D4305302812E1D02642CEE01762AC501A4
:10203000B128A101102781018F2564012B244A01B9
:10204000E1223401AD2120018D200C01811FFC0013
:10205000851EED00981DDF00B91CD200E71BC700EC
:10206000201BBB00651AB200B319A9000A19A00011
:102070006A189800D217920040178A00B61684009A
:1020800032167E00B41579003B157400C7146F003A
:1020900058146A00EE1366008813620026135E006F
:1020A000C8125B006D12570016125500C111510085
:1020B00070114E0022114C00D61049008D104600C0
:1020C0004710450002104200C00F4000800F3E0044
:1020D000420F3C00060F3A00CC0E3900930E370039
:1020E0005C0E3500270E3400F30D3200C10D3100B7
:1020F000900D2F00610D2F00320D2D00050D2C00CD
:10210000D90C2A00AF0C2A00850C28005D0C280091
:10211000350C27000E0C2500E90B2500C40B24000C
:10212000A00B23007D0B22005B0B21003A0B21004A
:10213000190B2000F90A1F00DA0A1F00BB0A1E0053
:102140009D0A1D00800A1C00640A1C00480A1C002D
:102150002C0A1B00110A1A00F7091A00DD091900E0
:10216000C4091900AB091800930918007B0917006E
:10217000640917004D0917003609160020091500DB
:102180000B091500F6081500E1081500CC0814002D
:10219000B8081400A4081300910813007E08130067
:1021A0006B08120059081200470812003508120087
:1021B000230811001208110001081000F107110096
:1021C000E0071000D0071000C0070F00B107100093
:1021D000A1070F0092070F0083070F0074070E007E
:1021E00066070E0058070E004A070E003C070E0057
:1021F0002E070D0021070D0014070D0007070D0025
:10220000FA060D00ED060C00E1060D00D4060C00E8
:10221000C8060C00BC060C00B0060B00A5060C009E
:1022200099060B008E060B0083060B0078060B0048
:102230006D060B0062060B0057060A004D060A00E9
:1022400043060B0038060A002E060A002406090081
:102250001B060A0011060A0007060900FE050A000F
:10226000F4050900EB050900E2050900D90509009C
:10227000D0050900C7050800BF050900B60509001B
:10228000AD050800A50508009D0508009505090095
:102290008C050800840508007C050700750508000A
:1022A0006D050800650507005E0508005605070076
:1022B0004F050800470507004005070039050700DE
:1022C000320507002B050700240507001D05070040
:1022D000160507000F0506000905070002050600A0
:1022E000FC040700F5040600EF040700E8040600FC
:1022F000E2040600DC040600D6040600D004070051
:10230000C9040500C4040600BE040600B8040600A3
:10231000B2040600AC040600A6040500A1040600F1
:102320009B04050096040600900405008B0406003B
:1023300085040500800405007B0405007604060082
:10234000700405006B0405006604050061040500C7
:102350005C04050057040500520405004D04050007
:1023600048040400440405003F0405003A04040046
:1023700036040500310405002C040400280405007F
:10238000230404001F0405001A04040016040400BA
:10239000120405000D0404000904040005040400EF
:1023A00001040500FC030400F8030400F403040026
:1023B000F0030400EC030400E8030400E403040059
:1023C000E0030400DC030400D8030400D40303008A
:1023D000D1030400CD030400C9030400C5030400B5
:1023E00000000000000000000000000000000000ED
:1023F0000000000000000000D1036D6403570D03CE
:1024000047C6023B8B023259022B2E0225090221BC
:10241000E8011CCC011AB201179B01148701137447
:10242000011163010F54010E46010D39010D2C01FC
:102430000B21010A17010A0D0109040108FC00081B
:10244000F40007ED0007E60007DF0006D90006D319
:102450000005CE0006C80005C30004BF0005BA0091
:1024600004B60004B20004AE0004AA0004A60003EF
:10247000A300049F00039C000399000396000393AC
:1024800000029100038E00028C0003890002870085
:10249000038400028200028000027E00027C0002AF
:1024A0007A00027800027600017500027300027162
:1024B00000017000026E00016D00026B00016A00F5
:1024C0000268000167000265000164000163000109
:1024D0006200026000015F00015E00015D00015CBE
:1024E00000015B00015A000159000158000157002A
:1024F0000156000155000154000153000152000132
:102500005100005100015000014F00014E00014DEB
:1025100000004D00014C00014B00014A00004A0040
:102520000149000148000048000147000146000041
:1025300046000145000045000144000143000043FE
:102540000001420000420001410000410001400042
:10255000004000013F00003F00013E00003E00013E
:102560003D00003D00013C00003C00013B00003B01
:1025700000013A00003A000139000039000039003A
:102580000138000038000137000037000037000133
:1025900036000036000036000135000035000134F9
:1025A0000000340000340001330000330000330029
:1025B0000132000032000032000131000031000021
:1025C0003100003100013000003000003000012FE8
:1025D00000002F00002F00002F00012E00002E0011
:1025E000002E00012D00002D00002D00002D000107
:1025F0002C00002C00002C00002C00012B00002BD4
:1026000000002B00002B00012A00002A00002A00F5
:10261000002A00002A0001290000290000290000EA
:1026200029000128000028000028000028000028B8
:1026300000012700002700002700002700002700D6
:1026400001260000260000260000260000260000CB
:10265000260001250000250000250000250000259A
:1026600000002500012400002400002400002400B4
:1026700000240000240001230000230000230000A8
:10268000230000230000230001220000220000227A
:102690000000220000220000220000220001210090
:1026A0000021000021000021000021000021000085
:1026B0002100012000002000002000002000002058
:1026C00000002000002000002000011F00001F006B
:1026D000001F00001F00001F00001F00001F00005F
:1026E00020436F756E7420583A004265640045318E
:1026F00000626564002C2073797374656D207374B7
:102700006F7070656421204865617465725F49442B
:102710003A20004572723A204D415854454D5000C0
:102720004D415854454D5020747269676765726514
:10273000640048656174696E67204661696C656410
:102740000048656174696E67206661696C65640044
:102750004572723A204D494E54454D50004D494EF8
:1027600054454D5020747269676765726564005402
:102770004845524D414C2052554E41574159005405
:102780006865726D616C2052756E617761790020A9
:102790002F002042403A0020403A0020573A0000E3
:1027A00009121B242D363F48415A536C657E771918
:1027B000100B023D342F265158434A757C676E3208
:1027C0003B2029161F040D7A7368615E574C452B18
:1027D0002239300F061D14636A7178474E555C64C8
:1027E0006D767F4049525B2C253E3708011A137DD8
:1027F000746F6659504B42353C272E1118030A5608
:102800005F444D727B60691E170C053A3328214FD7
:10281000465D546B627970070E151C232A313841CE
:1028200048535A656C777E09001B122D243F365899
:10283000514A437C756E671019020B343D262F7385
:102840007A6168575E454C3B3229201F160D046A99
:102850006378714E475C55222B3039060F141D25C5
:102860002C373E0108131A6D647F7649405B523C59
:10287000352E2718110A03747D666F5059424B1785
:102880001E050C333A21285F564D447B7269600E59
:10289000071C152A233831464F545D626B7079004E
:1028A000002110422063308440A550C660E77008C4
:1028B0008129914AA16BB18CC1ADD1CEE1EFF1314B
:1028C00012100273325222B5529442F772D6623914
:1028D0009318837BB35AA3BDD39CC3FFF3DEE3629B
:1028E00024433420040114E664C774A44485546A64
:1028F000A54BB528850995EEE5CFF5ACC58DD5532B
:1029000036722611163006D776F6669556B4465BB3
:10291000B77AA719973887DFF7FEE79DD7BCC7C4FA
:1029200048E5588668A7784008611802282338CC03
:10293000C9EDD98EE9AFF9488969990AA92BB9F58A
:102940005AD44AB77A966A711A500A333A122AFD53
:10295000DBDCCBBFFB9EEB799B588B3BBB1AABA65A
:102960006C877CE44CC55C222C033C600C411CAEA3
:10297000ED8FFDECCDCDDD2AAD0BBD688D499D976A
:102980007EB66ED55EF44E133E322E511E700E9FF3
:10299000FFBEEFDDDFFCCF1BBF3AAF599F788F88BA
:1029A00091A981CAB1EBA10CD12DC14EF16FE1808B
:1029B00010A100C230E3200450254046706760B982
:1029C000839893FBA3DAB33DC31CD37FE35EF3B1DB
:1029D000029012F322D2323542145277625672EAD2
:1029E000B5CBA5A89589856EF54FE52CD50DC5E22B
:1029F00034C324A01481046674476424540544DB62
:102A0000A7FAB79987B8975FE77EF71DC73CD7D37A
:102A100026F2369106B01657667676154634564C31
:102A2000D96DC90EF92FE9C899E9898AB9ABA944CA
:102A300058654806782768C018E1088238A3287DC1
:102A4000CB5CDB3FEB1EFBF98BD89BBBAB9ABB751A
:102A50004A545A376A167AF10AD01AB32A923A2E91
:102A6000FD0FED6CDD4DCDAABD8BADE89DC98D266A
:102A70007C076C645C454CA23C832CE01CC10C1FA1
:102A8000EF3EFF5DCF7CDF9BAFBABFD98FF89F17BA
:102A90006E367E554E745E932EB23ED10EF01E7C85
:102AA0003C3E5E2B3D3F2F5B5D3B2C2A225C00575A
:102AB00061726E696E673A0053442043617264200C
:102AC000496E6974204661696C00534420636172E9
:102AD00064206F6B0A006F70656E526F6F742066B2
:102AE00061696C65640A00766F6C756D652E696E40
:102AF0006974206661696C65640A004E6F205344F6
:102B000020636172640A000A4D3234004D32332072
:102B10002573002E0A006F70656E206661696C6512
:102B2000642C2046696C653A200046696C65207308
:102B3000656C65637465640A002053697A653A20A0
:102B40000046696C65206F70656E65643A200045CB
:102B50004E4420535542524F5554494E450A002287
:102B600020706F73002220706172656E743A2200CB
:102B7000535542524F5554494E452043414C4C20E9
:102B80007461726765743A220053756263616C6C9C
:102B9000204F766572666C6F770045786365656473
:102BA0006564206D617820535542524F5554494E0B
:102BB000452064657074683A002E0A0044656C65AF
:102BC00074696F6E206661696C65642C2046696C5F
:102BD000653A200046696C652064656C65746564BF
:102BE0003A0057726974696E6720746F2066696C69
:102BF000653A2000667265736800646F696E6700ED
:102C00002066696C653A20004E6F7720002F617551
:102C1000746F25632E67002001400130013B0140A5
:102C20000136016001310170012C0190012701B0D2
:102C3000012201C0011D01F0011801100213013031
:102C4000020E016002090190020401C002FF0000AF
:102C500003FA004003F5008003F000D003EB0020EE
:102C600004E6007004E100E004DC004005D700C089
:102C700005D2004006CD00D006C8008007C3003052
:102C800008BE00F008B900C009B400B00AAF00B037
:102C90000BAA00D00CA500000EA000500F9B00C096
:102CA0001096005012910000148C00C0158700B0DF
:102CB000178200B0197D00D01B7800001E73004001
:102CC000206E0090226900F024640040275F00908D
:102CD000295A00E02B5500102E500020304B0010D8
:102CE000324600E033410090353C00103737007029
:102CF000383200A0392D00B03A2800A03B230060F4
:102D00003C1E00103D1900903D1400103E0F007055
:102D10003E0A00C03E0500003F0000403FFBFF8030
:102D20003FF6FFC03FF1FF2020506C616E6E657270
:102D300042756666657242797465733A2000204672
:102D4000726565204D656D6F72793A200020436F82
:102D50006D70696C65643A2053657020313520329E
:102D60003032360A00204C617374205570646174EF
:102D700065643A20323032362D30392D3038207C9F
:102D800020417574686F723A2053796C3231202B70
:102D900020436C617564650A004D61726C696E2038
:102DA000322E312E782D44392076322E302E330AB1
:102DB0000020536F66747761726520526573657485
:102DC0000A00205761746368646F672052657365F9
:102DD000740A002042726F776E206F7574205265FE
:102DE0007365740A002045787465726E616C2052B8
:102DF000657365740A00506F77657255700A0073C9
:102E0000746172740A004732385859004D313030BD
:102E100031006572726F722077726974696E672013
:102E2000746F2066696C650A00446F6E652073617B
:102E300076696E672066696C652E0A004D3239002E
:102E4000456E6473746F70730025532025632025CD
:102E50006320256320256300205A3A0020593A0058
:102E600020583A00656E6473746F707320686974DB
:102E70003A200000000A0B02090C0D0E080703049B
:102E80000100000000000000000000000000000041
:102E90000000000000000000000000000000001220
:102EA0001110000000000000000000000000000001
:102EB00000000000000000000000486F6D696E67B0
:102EC000204661696C656400FFFFFF205A3A2000CC
:102ED00020793A200042656420583A200050726FF1
:102EE00062696E67204661696C65640A0050726FA2
:102EF00062696E67204661696C65640043616E6E4D
:102F00006F74206F70656E20737562646972200043
:102F1000524553554D45204F5054494F4E533A005A
:102F200048656174696E672E2E2E000000436C693F
:102F3000636B20746F2068656174000000526573D4
:102F4000756D696E672E2E2E0000005075726769D0
:102F50006E672E2E2E0000004C6F6164696E672E26
:102F60002E2E000000496E7365727420616E64201D
:102F7000436C69636B000000436C69636B20746F82
:102F800020636F6E74696E7565000000456A656345
:102F900074696E672E2E2E000000506C656173659B
:102FA00020776169742E2E2E0000005061726B69CB
:102FB0006E672E2E2E000000220A00556E6B6E6F7B
:102FC000776E20636F6D6D616E643A2022006F6BC7
:102FD0000057616E68616F204439204D4B332035B6
:102FE00030302052656164792E005072696E7469C8
:102FF0006E672E2E2E005072696E742050617573AC
:10300000656400204500205A0020590020204D39D9
:103010003220580053746570732070657220756E8D
:1030200069740000002200250028002B002E0031CA
:1030300000340002010000050108010B010000211D
:1030400000240027002A002D003000330001010079
:1030500000040107010A0105050505070508080820
:1030600008020202020A0A08080404040401010119
:103070000101010101030303030303030304070721
:10308000070C0C0C0C0C0C0C0C02020202060606BF
:1030900006060606060B0B0B0B0B0B0B0B010210A7
:1030A0002020080810204010204080020102010862
:1030B0000402010102040810204080804020100812
:1030C000040201800402018040201008040201086B
:1030D00004020101020408102040800102040810CB
:1030E0002040804572726F722077726974696E67D2
:1030F00020746F20454550524F4D210A0020746FB7
:103100006F206C6F6E6720657874727573696F6E6F
:103110002070726576656E7465640A0020636F6C5A
:103120006420657874727573696F6E20707265764D
:10313000656E7465640A0020453A00205A3A002002
:10314000593A00583A00FEE2E0E211241FBECFEFE8
:10315000D1E2DEBFCDBF00E00CBF84B780937E1705
:1031600014BE0FB6F894A895809160008861809392
:103170006000109260000FBE14E0A0E0B2E0EAE050
:10318000F5EF01E00BBF02C007900D92A83DB1071B
:10319000D9F727E1A8EDB4E001C01D92AE37B20720
:1031A000E1F718E1C4EAD8E100E006C0219701097F
:1031B000802FFE010E940AF7C33AD10780E008077A
:1031C000A9F70E9473E40C9474FA0C9400008091A7
:1031D0008F068F5F80938F068A3018F080EF809380
:1031E00052090895CF93FC0180819181811590440B
:1031F00029F5FB01C1816C2F70E090E080E00E9416
:103200005AF020E030E048EC52E40E943AF91816F7
:103210000CF4C4E62C2F30E0AFEFB0E00E94C8F60B
:1032200024E630E040E050E00E94A2F62F3F310556
:1032300019F010F02FEF30E020936714CF9108952C
:103240001092180781E080931A070895FB0181818D
:103250008F3F19F0882381F008952CE330E03093FC
:103260000D0220930C028093920685E08093080261
:1032700081E080931A07089588EC90E090930D0206
:1032800080930C0210929206F0CFFB018181809313
:103290006D0681E080931A070895FB01808191817A
:1032A000982789279827893C910510F088EC90E0B1
:1032B00090930B0280930A0281E080931A0708958D
:1032C000FB01818191E0980F923028F480931002E5
:1032D00081E080931A070895FB01818180930902A0
:1032E00081E080931A070895CF92DF92EF92FF92C8
:1032F000CF93DF93FB01C081D181DC27CD27DC2771
:10330000BE010D2E000C880B990B0E945CF06B0126
:103310007C0120E030E040E251E40E9456F087FD5D
:103320000DC020E030E04AEF53E4C701B6010E942F
:103330003AF918162CF4C4EFD1E002C0CAE0D0E08C
:10334000D0931202C093110281E080931A07DF919B
:10335000CF91FF90EF90DF90CF900895CF93DF93C0
:10336000C091D207D091D30781E0CE31D105E4F0EE
:1033700020E030E040E05FE36091CE077091CF073E
:103380008091D0079091D1070E9413F70E9457F8BF
:103390006C1B7D0B77FF03C071956195710981E00E
:1033A000633071050CF080E0DF91CF91089587FDC7
:1033B00026C0811111C08091AA0A2091AB0A821700
:1033C000F1F0E22FF0E0E655F54F828190E02F5FBB
:1033D0002F772093AB0A0895813089F48091280AD1
:1033E0002091290A821759F0E22FF0E0E85DF54FAD
:1033F000828190E02F5F2F772093290A08958FEF25
:103400009FEF0895CF93DF93DB01F9019C919130F9
:10341000C1F0943080F094509C938830D1F4808136
:103420009181009771F0019791838083480F591F14
:10343000EA01188206C08C3539F49C5F9C93943065
:1034400041F4DF91CF9108958B3339F781E08C936C
:10345000F8CF20813181B9016F5F7F4F7183608325
:10346000420F531FEA018883808191818F35910536
:103470006CF7E7CF0F931F9381E000916F0D1091D0
:10348000700D2091710D3091720D40916B0D509126
:103490006C0D60916D0D70916E0D04171507260768
:1034A000370708F480E01F910F91089590E080E0C5
:1034B00008952091AA14833021F425FD0CC024FD29
:1034C0000CC030E0A90102C0559547958A95E2F7F6
:1034D000CA018170089581E0089580E008950F93F6
:1034E0001F93CF93DF93EC0107E519E0F8012081EA
:1034F000318142815381688179818A819B810E94D7
:1035000013F7688379838A839B83F801248135814B
:10351000468157816C817D818E819F810E9413F746
:103520006C837D838E839F83F8012085318542855E
:103530005385688579858A859B850E9413F76887FE
:1035400079878A879B87DF91CF911F910F9108958B
:103550008091320684FD0BC08091340687FD07C040
:1035600090913506937081E019F480E0089581E030
:1035700008952FEB280F2A3108F047C0E22FF0E022
:103580008091320690913306A0913406B0913506B1
:1035900004C0B695A795979587952A95D2F780FD93
:1035A00002C081700895EC5BFA4FE081EE2341F197
:1035B00080916D0990916E09E80FF92FF11D8081BE
:1035C00090ED980F9A3030F08E3251F48181805313
:1035D0008A3098F4F0933B05E0933A0581E0089532
:1035E0008D3211F08B3249F4818190ED980F9A3031
:1035F00088F38E3211F48281EACFF0E0E0E0EACF86
:1036000010923B0510923A05E9CF80E00895B1DFB2
:10361000882341F081E020913A0530913B05232B2E
:1036200009F480E008950F931F93CF93DF93C82F81
:10363000D0E0FE01EE0FFF1FE95EFD4F7183608356
:10364000CC0FDD1FCC0FDD1F8E010B5A1D4F072E37
:10365000000C880B990B0E945CF02AE037ED43E2E6
:103660005CE30E94BBF0C05DD84F288139814A815C
:103670005B810E94BBF0F801608371838283938336
:10368000DF91CF911F910F910895FC01808191816D
:103690008B30904259F4FB01608171817627672756
:1036A000762780E0C0DF81E080931A07089580913B
:1036B000340781110EC020911D0230911E0221504D
:1036C000310981E04091940D5091950D42175307B7
:1036D0000CF080E008958F929F92AF92BF92CF92AC
:1036E000DF92EF92FF92FC01828158E5C52E52E0F5
:1036F000D52EC81AD10887FDD394CC0CDD1CCC0C78
:10370000DD1C0D2C000CEE08FF08818178E8872E67
:10371000912C881A910887FD9394880C991C880C29
:10372000991C092C000CAA08BB0880818F3FD1F19D
:1037300090E0FC01EE0FFF1FE80FF91FEA54F24F73
:103740008181928133E0880F991F3A95E1F7B0E0CB
:10375000A0E044E0B595A795979587954A95D1F750
:1037600002969C012F5F3F4F032E000C440B550B1C
:10377000281939094A095B09A4EBB0E00E94BEF69A
:10378000A7019601281939094A095B090E94A2F686
:10379000C901FF90EF90DF90CF90BF90AF909F90C6
:1037A0008F90089590E080E0DCCF91E09093360612
:1037B0009091D10095FD0CC09091D00095FF08C06C
:1037C0008093D6008091D00080648093D0000895CB
:1037D000209137062F5F2F720FB607FC27C09091FC
:1037E0003806921328C09091D00095FF1EC090918A
:1037F000380640913706941306C09091D1009F7D02
:103800009093D10012C0E92FF0E0E95CF94F3281CA
:103810009F5F9F723093D600909338063091D0000E
:1038200030643093D000491741F3D9CF90913806D6
:10383000921301C0FBCFE0913706F0E0E95CF94F4D
:103840008283209337068091D10080628093D100DB
:1038500008950F931F93CF93DF93EC01162F042F3E
:103860008AE5A3DF85EAA1DF83E0800F9EDF812F59
:103870009CDF8D2F9ADF8C2FDF91CF911F910F91BD
:1038800094CF40E355E760E070E086EB99E10C945B
:10389000699A40E355E760E070E086EB99E10C94AB
:1038A000699AFC014281442339F084819581009713
:1038B00019F050E00C94F6F90895CF93FB01C18103
:1038C000C13031F40E941499811104C0C0931A07C9
:1038D000CF9108950E94D197F9CFCF93DF93EB0159
:1038E0000E94489A81110AC040E355E760E070E009
:1038F00086EB99E1DF91CF910C94699A8881998147
:10390000982789279827209192062F3F29F0222374
:10391000A9F0DF91CF9108958135910514F080E5EC
:1039200090E08530910514F485E090E090930D02CD
:1039300080930C0281E080931A07EBCF833221E061
:1039400092077CF382E291E0ECCFEEE6F6E081E2D2
:10395000DF011D928A95E9F781E080931A070895A7
:10396000CF93FB0180916D06813029F050F18230B8
:1039700019F1CF91089560E070E080E89FE3218124
:10398000223069F118F5222319F09058213089F777
:10399000C0E024E0C29FF0011124E85EF54F2081D1
:1039A0003181428153810E9413F74C2F0E94E5CC54
:1039B00081E080931A07DDCF6DEC7CEC8CEC9DE30D
:1039C000DECF60E070E080E291E4D9CF243021F0D6
:1039D00028F09058253069F6C2E0DBCF9058C1E05E
:1039E000D8CFCF93DF93EC01FB0160817181762703
:1039F00067277627072E000C880B990B0E945CF036
:103A000020E030E040E251E40E94EFF72881398164
:103A10002132F0E23F0749F0223240E2340771F0F0
:103A20002032304241F440E001C041E00E94E5CC48
:103A300081E080931A07DF91CF91089542E0F6CF9D
:103A40008F929F92AF92BF92CF92DF92EF92FF92AE
:103A5000CF93DF93809155098770873091F040E3D1
:103A600055E760E070E08CEE98E1DF91CF91FF9038
:103A7000EF90DF90CF90BF90AF909F908F900C947D
:103A8000699AEB010E94489A811107C040E355E70B
:103A900060E070E086EB99E1E8CF8981833009F43A
:103AA00054C0B8F4813009F466C0C12CD12C60EF49
:103AB000E62E61E4F62E823009F45AC0DF91CF91F0
:103AC000FF90EF90DF90CF90BF90AF909F908F903E
:103AD0000895843009F446C0C12CD12C9BEEE92E08
:103AE00093E4F92E812C912C20EFA22E21E4B22E0A
:103AF000853021F720E030E040E850E46091200A72
:103B00007091210A8091220A9091230A0E9413F752
:103B100042E00E94E5CC40E0C501B4010E94E5CC42
:103B200041E0C701B6010E94E5CC42E060E070E0F0
:103B3000CB01DF91CF91FF90EF90DF90CF90BF90BE
:103B4000AF909F908F900C94E5CCC12CD12C40EF7E
:103B5000E42E41E4F42E812C912C5BEEA52E53E44F
:103B6000B52EC8CFC12CD12C3BEEE32E33E4F32E7F
:103B700046015701BFCFC12CD12C8AE7E82E83E440
:103B8000F82EF6CFCF93DF93EB010E94489A811174
:103B90000AC040E355E760E070E086EB99E1DF9111
:103BA000CF910C94699A809110028F5F8230E0F47B
:103BB00020E030E04AE253E46091900D7091910D65
:103BC0008091920D9091930D0E9456F087FF07C04F
:103BD00040E355E760E070E08CEF98E1E0CF898149
:103BE000882329F0813039F1DF91CF9108956091D8
:103BF0000A0270910B0290E080E00E945AF09B0153
:103C0000AC016091240A7091250A8091260A909156
:103C1000270A0E9412F76093240A7093250A809362
:103C2000260A9093270A60E070E080E090E4DF913C
:103C3000CF910C94399060910A0270910B0290E040
:103C400080E00E945AF02091240A3091250A409188
:103C5000260A5091270A0E9413F7DDCFCF93DF93F6
:103C6000EB010E94489A811103C0DF91CF9111CEE0
:103C7000898190910902923029F09330C1F0DF914F
:103C8000CF910895882371F06DEC7CEC8CEC9DEB6A
:103C90000E9487CD0E9488CF0E945A9A81E080932B
:103CA0001A07EDCF6DEC7CEC8CEC9DE3F1CF882313
:103CB00029F06AE077ED83E29CEBEACF6AE077EDEA
:103CC00083E29CE3E5CFCF93DF93EB010E94489A18
:103CD000811103C0DF91CF91D4CD6881798176279E
:103CE00067277627072E000C880B990B0E945CF043
:103CF00020E030E048EC52E40E94EFF720910A0EF9
:103D000030910B0E40910C0E50910D0E0E9412F747
:103D10000E9487CD0E9488CF0E945A9A81E08093AA
:103D20001A07DF91CF910895FB018181882319F053
:103D3000813079F008956AE077ED83E29CE30E9498
:103D400087CD0E9488CF0E945A9A81E080931A07FB
:103D500008956AE077ED83E29CEBF1CFFB0160818F
:103D60007181762767277627072E000C880B990B21
:103D70000E945CF020E030E048EC52E40E94EFF753
:103D800020910A0E30910B0E40910C0E50910D0EA9
:103D90000E9412F70E9487CD0E9488CF0E945A9AF3
:103DA00081E080931A070895FB018181813031F011
:103DB000823039F081E080931A0708950E941282C0
:103DC000F9CF0E94EA81F6CFCF93FB01C181C130C8
:103DD00051F40E94FA98811108C00E94149981112F
:103DE00004C0C0931A07CF910895CF910C94D19736
:103DF000CF93FB01C181C13031F40E94FA98811147
:103E000004C0C0931A07CF9108954DEB58E164ECBC
:103E100078E184E00E9409C986EF9FE20E947FC595
:103E200089EB98E19093100980930F09ECCF809172
:103E30000E0290910F0297FF08C040E355E760E043
:103E400070E088EA98E10C94699A0E9415DA882358
:103E500081F08091730D85FD0CC00E94489A8111FC
:103E600001C00FCD8FE699E00E94E0D083E08093FF
:103E700052090895CF93DF93FB0181818130D1F006
:103E800040F0823019F181E080931A07DF91CF91E1
:103E900008958091730D86FDF9CF109291061092CE
:103EA00090068FEF9FEF90930F0280930E020E9477
:103EB00054D0E9CF8091900690919106009731F30C
:103EC00001979093910680939006DDCFC091900664
:103ED000D091910626960E94C7D98C179D07B0F203
:103EE00080919006909191060196EBCF1F93CF930E
:103EF000DF93EC01FB01118188819981813090422F
:103F000089F48091730D84FD0BC040E355E760E0B8
:103F100070E08EE798E1DF91CF911F910C94699A40
:103F20000E943DD0888199818230904279F40E942C
:103F3000FA98882339F040E355E760E070E085E6C1
:103F400098E1E9CF0E9414998111F5CF8881998178
:103F50008330904231F010935209DF91CF911F913D
:103F600008950E94FA988111F6CF0E941499811148
:103F7000F2CF40E355E760E070E08EE498E1CBCF0C
:103F8000FC0101900020E9F79F0121503109281B15
:103F9000390B2F33310540F4FC01E20FF31F60832E
:103FA0002E33310509F011820895CF93DF93EC0190
:103FB00040E450E00E9450EFCE01DF91CF91089590
:103FC000AB01BC0140936F0D5093700D6093710D68
:103FD0007093720D8AEC96E10C94D8D4EF92FF9214
:103FE0000F931F93CF93DF93CDB7DEB764970FB6D0
:103FF000F894DEBF0FBECDBF7C01FB0160817181F3
:10400000828193818E010F5F1F4F248141E00E94C6
:1040100082EBF70101900020E9F79F01215031095F
:104020002E193F092E31310550F44FE150E0421B6B
:10403000530BBC01C701820F931F0E949FEFC70162
:1040400064960FB6F894DEBF0FBECDBFDF91CF915F
:104050001F910F91FF90EF900895CF93DF93EC01A4
:10406000FC0101900020E9F7CF0101978C1B9D0B0B
:104070008F33910540F440E450E0481B590B8C0FFE
:104080009D1F0E949FEFCE01DF91CF910895EF9287
:10409000FF920F931F93CF93DF93CDB7DEB7649753
:1040A0000FB6F894DEBF0FBECDBF7C01FB0160816F
:1040B0007181828193818E010F5F1F4F248141E0C6
:1040C0000E9482EBBC01C701C8DF64960FB6F8946A
:1040D000DEBF0FBECDBFDF91CF911F910F91FF903B
:1040E000EF9008950C9417C480913A0590913B0588
:1040F000009731F04AE050E070E060E00C9422EE6E
:1041000060E070E0CB01089580913A0590913B0505
:10411000009731F04AE050E070E060E00C94F5EC7C
:1041200060E070E0CB010895EFDF97FD0AC0ECDF9F
:104130006F3F71058105910509F02CF4E5DF862FAD
:10414000089580E008958FEF0895CF93C62F5FDA2A
:10415000882311F0CF91E8CF8C2FCF9108958091D3
:104160003A0590913B05892B39F0DEDF91E0811112
:1041700001C090E0892F089591E0FCCFCF93DF93A9
:10418000C82FD62F44DA882319F0DF91CF91E7CFDB
:104190008C2FEFD9811101C08D2FDF91CF91089520
:1041A000B3DFCB010895CF93DF93EB0130DA88239F
:1041B00019F0DF91CF91F4CFCE01DF91CF91089527
:1041C0000F931F93CF9380913A0590913B050097F1
:1041D00009F1FC018F01C1912C2F2F7DA1F0C53475
:1041E00031F0C53621F0C83511F0C83799F7F8011C
:1041F000108270E060E00E949FEBF801C083CF91D5
:104200001F910F91089570E060E0CF911F910F9181
:104210000C949FEB60E070E0CB01F1CFCF92DF9286
:10422000EF92FF926A017B01F2D9882329F0FF9077
:10423000EF90DF90CF90C4CFC701B601FF90EF9011
:10424000DF90CF9008954F925F926F927F92AF92DE
:10425000BF92CF92DF92EF92FF920F931F93CF9373
:10426000DF938DEFA82E83E0B82E08E11AE0C0E2BC
:10427000D7E097E5C92E99E0D92EF12CF50181916F
:104280005F01C5D9882321F08091C509882351F0A9
:10429000F80180819181A281B38188839983AA8367
:1042A000BB8315C08DDF2B013C018F2D02D98823E4
:1042B00009F463C0F8012081318142815381C30137
:1042C000B2010E9413F7688379838A839B83F394F6
:1042D0000C5F1F4F2496F4E0CF0ED11C83E0F81240
:1042E000CDCF85E494D9882309F451C069DF6B01EF
:1042F0007C0183E0DED8882371F02091240A30917C
:10430000250A4091260A5091270AC701B6010E944A
:1043100013F76B017C01C0922C07D0922D07E0921D
:104320002E07F0922F0740E050E0BA0186E476DFD6
:1043300020E030E0A9010E943AF918167CF440DF31
:1043400020E030E040E752E40E94EFF76093130270
:10435000709314028093150290931602DF91CF910F
:104360001F910F91FF90EF90DF90CF90BF90AF9093
:104370007F906F905F904F900895F601208131817A
:1043800042815381C301B2010E9412F79CCF8091F8
:10439000240A9091250AA091260AB091270A8093B9
:1043A0002C0790932D07A0932E07B0932F07BBCF18
:1043B00080915109833018F046DF0C94D9B10895EB
:1043C000EF92FF920F931F93CF93DF93CDB7DEB79A
:1043D0002C970FB6F894DEBF0FBECDBF7C017F9344
:1043E0006F9381EC94E09F938F938E010F5F1F4F2B
:1043F0001F930F930E9444FAB801C7012EDE0F905D
:104400000F900F900F900F900F902C960FB6F8947E
:10441000DEBF0FBECDBFDF91CF911F910F91FF90F7
:10442000EF900895EF92FF920F931F93CF93DF9336
:10443000CDB7DEB7A4970FB6F894DEBF0FBECDBFE1
:10444000F82E8093C7098FE18F1508F489C08091F9
:10445000C609F81624F081E08F0D8093C60981E02B
:1044600090E00F2C02C0880F991F0A94E2F7092EE2
:10447000000CAA0BBB0B4091C8095091C90960916F
:10448000CA097091CB0984239523A623B72321E081
:10449000892B8A2B8B2B09F420E02093C509F7FC8C
:1044A00062C04FE150E069E575E08E010F5F1F4F7C
:1044B000C8010E9450EFF80101900020E9F7CF01F8
:1044C0000197801B910B8E31910560F420E2F80179
:1044D000E80FF91F20838D31910521F08C0F9D1F6E
:1044E000FC0112828F2D0F2C000C990B9F93FF92D1
:1044F00081EC94E09F938F937E01F0E2EF0EF11C2C
:10450000FF92EF920E9444FAF80101900020E9F72F
:10451000CF010197801B910B0F900F900F900F9080
:104520000F900F908E31910548F44FE150E0481BF9
:10453000590BB701800F911F0E949FEF40E060E090
:10454000C8010E94F997A4960FB6F894DEBF0FBE7B
:10455000CDBFDF91CF911F910F91FF90EF90089504
:104560001092C5099CCF0E9483C8EDCFCF92DF92F5
:10457000EF92FF92CF936B017C01C42F8091AB141B
:104580008F5F09F4CEC08093AB148091AB148093FD
:10459000651520E030E040E752E46091130270912D
:1045A000140280911502909116020E94BBF00E94A5
:1045B0005CF87093BD146093BC14809111029091CB
:1045C00012029093BF148093BE14809117029091B1
:1045D00018029093C1148093C014C092C214D09258
:1045E000C314E092C414F092C51480916415C0FB0A
:1045F00080F98093641587E0E5ECF9E0A6ECB4E17E
:1046000001900D928A95E1F78CE0E2E0F9E0ADECE3
:10461000B4E101900D928A95E1F78CE0E7E5F9E0CD
:10462000A9EDB4E101900D928A95E1F780915207CE
:104630009091641580FB94F990936415882381F020
:1046400080914E0790914F07A0915007B09151076C
:104650008093E5149093E614A093E714B093E814C4
:104660008091940D9091950D9093EA148093E914A4
:104670008091D2079091D3079093EC148093EB1420
:10468000809167148093ED14809164159091850951
:1046900090FB83F980936415809186099091870936
:1046A000A0918809B09189098093EE149093EF143A
:1046B000A093F014B093F1140E94DD9560935F1500
:1046C0007093601580936115909362158091AA1480
:1046D000809363159091CC098091641593FB81F9C7
:1046E0009091340790FB82F98093641580E00E94DA
:1046F000CFDD40E050E0BA018BE695E10E94D8D4CE
:104700004BEB50E06BEA74E18BE695E10E94FAD541
:104710008BE695E1CF91FF90EF90DF90CF900C94D6
:104720007B7D81E030CFAF92BF92CF92DF92EF924C
:10473000FF920F931F93CF935C016B018A018F51FE
:104740009B4F7C01DC01CC91C7FF3DC0FB01118276
:104750001082CF5FD701CC93CC300CF053C08CE0EB
:104760008A9DF0018B9DF00D1124CF018C0F911DBE
:10477000C7FD9A952091FE0D2817190609F00CF433
:1047800041C0F60120813181FC01EE0FFF1FE80FCF
:10479000F91FEA54F24F81819281820F931FD80151
:1047A00011969C938E93808187FF3DC061E08F7747
:1047B000CF911F910F91FF90EF90DF90CF90BF901E
:1047C000AF900C94E3CD8CE08A9DF0018B9DF00DB1
:1047D0001124CF018C0F911DC7FD9A952091FE0DDC
:1047E0002817190609F00CF4B4CFFC01EE0FFF1FD7
:1047F000E80FF91FEA54F24F808160E08F770E9442
:10480000E3CDA7CFF6018081918104968034FCE945
:104810009F0710F480E49CE9D80111969C938E9335
:104820008FEFF7018083CF911F910F91FF90EF9051
:10483000DF90CF90BF90AF900895AF92BF92CF928C
:10484000DF92EF920F931F93CF935B01C42F122F30
:1048500062E80E94291CC5010E9464EF6C018C2F44
:1048600090E0C816D90630F5C114D10441F1CC1935
:10487000112381F0011111C010E000E00C151D059D
:10488000F1F0F501E00FF11F84910E94D51B0F5F3D
:104890001F4FF4CF10E0011107C08C199D099695A8
:1048A00087951C2F181BC82FC15038F080E20E943A
:1048B000D51BFACF6C01C0E0DFCFC12FDDCF10E2F6
:1048C000E11001C010E0C15020F0812F0E94D51BE3
:1048D000FACFCF911F910F91EF90DF90CF90BF90C3
:1048E000AF900895AF92BF92CF92DF92EF920F9365
:1048F0001F93CF935B01C42F122F62E80E94291CE3
:10490000F50101900020E9F731976F01CA18DB0823
:104910008C2F90E0C816D90618F5C114D10429F1DE
:10492000CC19112369F001110EC0CA0CDB1CCA148A
:10493000DB04D9F0F50181915F010E94D51BF7CF0F
:1049400010E0011107C08C199D09969587951C2FC1
:10495000181BC82FC15038F080E20E94D51BFACF37
:104960006C01C0E0E2CFC12FE0CF10E2E11001C046
:1049700010E0C15020F0812F0E94D51BFACFCF91BB
:104980001F910F91EF90DF90CF90BF90AF9008955F
:10499000EF920F93CF93DF93EC0189EB9EE20E949D
:1049A000DA99209749F0EE24E39401E021E040E217
:1049B000BE0180E291E196DF89EB9EE2009781F0F3
:1049C000EE24E39401E021E040E2BC0180E491E1C7
:1049D00034DF21E040E269EB7EE280E691E12DDF09
:1049E00060E083E00E942CC480911907893F11F098
:1049F0008093340281E08093530989EF80935209B8
:104A0000DF91CF910F91EF900895FF920F931F9335
:104A1000CF93DF93F62E072F142F62E80E94291CF4
:104A2000CF2DD02F115020F089910E94D51BFACFA5
:104A3000DF91CF911F910F91FF9008952CE534E104
:104A4000F901459154914115510571F048175907E5
:104A500041F4CB014AE050E0B9010E942AEF81E025
:104A60000895265F3F4F61F780E00895CF93DF936D
:104A70001F921F92CDB7DEB7853608F084E6682F07
:104A800070E090E080E00E945CF020E030E04FE7D2
:104A900053E40E94BBF020E030E048EC52E40E9476
:104AA000EFF720E030E0A9010E9413F70E9446F9D9
:104AB0006093E4031A821982698342E0BE016F5F4A
:104AC0007F4F81EA90E0A1DF0F900F90DF91CF91AF
:104AD0000895FB018181CADF0C945A9ACF93DF932A
:104AE0001F921F92CDB7DEB7853608F084E680931B
:104AF0001F02682F70E090E080E00E945AF020E0F2
:104B000030E04EEB52E40E94BBF020E030E048EC95
:104B100052E40E94EFF720E030E040EA50E40E94C7
:104B200013F70E9446F969836A8342E0BE016F5F12
:104B30007F4F82E890E069DF0F900F90DF91CF9177
:104B40000895FB018181CADF0C945A9A6091E403B5
:104B500070E090E080E00E945AF020E030E048EC05
:104B600052E40E94BBF020E030E04FE753E40E94A3
:104B7000EFF720E030E0A9010E9413F70E9446F908
:104B8000862F089580911607882321F080911507BC
:104B9000811109C041E063E88FE090E00E94291C88
:104BA00081E00C94D51B08951092D0008091D00024
:104BB00082608093D0001092D50080E18093D40071
:104BC0008091D10080618093D1008091D100886074
:104BD0008093D1008091D10080688093D100809132
:104BE000D1008F7D8093D10010923606CBDF80916B
:104BF0001707882321F081E080931A07089561E068
:104C000080E00C94EB99CF93DF93C091D207D091C1
:104C1000D307209729F16091CE077091CF0780913B
:104C2000D0079091D1070E9457F86E5F7F4F24976D
:104C30006C177D07ACF47093BA076093B9070E94B4
:104C400009CF605679478E4F9F4F6093BB07709393
:104C5000BC078093BD079093BE07DF91CF91089565
:104C60001092BB071092BC071092BD071092BE07AE
:104C7000F4CF2F923F924F925F926F927F928F92DA
:104C80009F92AF92BF92CF92DF92EF92FF920F93DB
:104C90001F93CF93DF93D62FC72FFC018080918085
:104CA000A280B380C501B40120E831E541E050E0C5
:104CB0000E9480F6C9016DE671E00E94E3F66B0187
:104CC0007C01C501B40120E13EE040E050E00E94DB
:104CD00080F6CA01B90128E130E040E050E00E94CE
:104CE00080F6362E272E062F172F8CE3482E512CB8
:104CF000612C712CC501B401A30192010E9480F6C0
:104D0000B62EA72ECA01B901A30192010E9480F616
:104D1000CB01C114D10479F1AF92BF927F936F930D
:104D20002F923F92FF92EF92DF92CF9286E691E12F
:104D30009F938F93CF93DF930E94EFEF8DB79EB732
:104D40000E960FB6F8949EBF0FBE8DBF8D2F9C2F71
:104D5000DF91CF911F910F91FF90EF90DF90CF9057
:104D6000BF90AF909F908F907F906F905F904F908B
:104D70003F902F900895E114F104C9F0AF92BF92D3
:104D80007F936F932F923F92FF92EF9286E591E18E
:104D90009F938F93CF93DF930E94EFEFEDB7FEB712
:104DA0003C960FB6F894FEBF0FBEEDBFCFCF012BE0
:104DB000B9F0AF92BF927F936F932F923F928AE4A4
:104DC00091E19F938F93CF93DF930E94EFEF8DB785
:104DD0009EB70A960FB6F8949EBF0FBE8DBFB6CF92
:104DE000892BA9F0AF92BF927F936F9382E491E1F8
:104DF0009F938F93CF93DF930E94EFEFEDB7FEB7B2
:104E000038960FB6F894FEBF0FBEEDBF9FCFAF929E
:104E1000BF928EE391E19F938F93CF93DF930E9494
:104E2000EFEF0F900F900F900F900F900F908ECF8D
:104E30008F929F92AF92BF92CF92DF92EF92FF92AA
:104E40000F931F93CF93DF9310925F0510925E052F
:104E50002FE3209363051092620510926105109272
:104E600060051092320610923306109234061092AA
:104E700035069C01F90190812F5F3F4F9032D1F3AD
:104E80009E34C9F4818190ED980F9A3020F08D32D4
:104E900011F08B3281F432969F012F5F3F4F80815A
:104EA00080538A3008F44CC09F012F5F3F4F8081B0
:104EB000803209F447C0F0936E09E0936D098F01C9
:104EC0000F5F1F4FC0816AE270E0C8010E9419FAAB
:104ED000009731F0FC01319780818032E1F311823B
:104EE000CD3421F0C43511F0C734E9F4D8018C91E8
:104EF0000F5F1F4F8032D1F380538A30A0F4C093EC
:104F0000630530E020E06AE0FD0131968C9180532A
:104F10002A3999E13907D0F0309362052093610571
:104F20008FE380936305DF91CF911F910F91FF90E5
:104F3000EF90DF90CF90BF90AF909F908F900895AB
:104F4000F901AACFF901B0CFDF01DECF293999E10C
:104F5000390711F4863000F7629FA001639F500D5E
:104F600011249A01280F311D808190ED980F9A30FD
:104F700058F330936205209361058E3261F41296E6
:104F800090E04AE0FD011196808150ED580F5A30B3
:104F9000C0F090936005DF0131968C918032D9F397
:104FA000CD34F9F42E31310539F088F4273131054B
:104FB00019F02C313105A9F4B0935F05A0935E057B
:104FC000B2CF949F800D112490ED980FDBCF253741
:104FD000310538F02737310578F3203AE3E03E0712
:104FE00059F3D0916D0940E050E0BA0110E000E0C3
:104FF000C12CD12C7601C394FD0131968C9188236C
:1050000009F47FC08132E1F4CD34D1F4203231058E
:10501000B9F440933206509333066093340670938C
:105020003506F0935F05E0935E0563E270E0CF0123
:105030000E9419FA009709F476CFFC01108273CF11
:1050400081548A3108F058C0DF019D91903291F06F
:10505000A0EDA90FAA30E8F09E3271F4918190532F
:105060009A30B8F00115110519F48F01015011099A
:1050700090E013C0FD01E8CF9D3211F09B3291F713
:105080009181A0EDA90FAA3020F09E3259F79281AC
:10509000E6CF9E2F9D1B309759F3A82FB0E0460115
:1050A000570104C0880C991CAA1CBB1C8A95D2F716
:1050B000482959296A297B29AC5BBA4F9C93808186
:1050C0008154DF018A3108F497CFDF018191882371
:1050D00009F492CF90ED980F9A30B8F393ED980FB2
:1050E000923098F38B3289F3CD010196EC91E03246
:1050F00009F082CFDC01F8CF0115110501F78D0110
:10510000DECF10935F0500935E0540933206509307
:105110003306609334067093350605CFCF93DF9343
:10512000EC018991882319F00E9417C4FACF8DE011
:105130000E9417C48AE0DF91CF910C9417C40C949D
:10514000FEC490915609992321F0682F80E00E94B7
:10515000019480E00895682F70E090E080E00C9466
:1051600066C51F93CF93DF931BEBCBEAD4E1FE011F
:10517000812F11928A95E9F70E9429D0882359F04E
:10518000FE0111921A95E9F78EE894E0DF91CF9134
:105190001F910C94F4DDDF91CF911F9108958091C0
:1051A000AB14882361F090916515891308C0809134
:1051B000730D84FF04C082EF94E10C94E1DB80E086
:1051C0000895FC01238121110C947B7D0895CF93D8
:1051D000DF93C091940DD091950D209729F16091A6
:1051E000900D7091910D8091920D9091930D0E9470
:1051F00057F86E5F7F4F26976C177D07ACF470935E
:10520000DF076093DE070E9409CF60547B428E4F18
:105210009F4F6093E0077093E1078093E2079093BC
:10522000E307DF91CF9108951092E0071092E10714
:105230001092E2071092E307F4CFCF93DF93EC01D3
:105240008991882319F00E9417C4FACFDF91CF917A
:105250000895682F70E090E080E00C94FEC4CF9336
:10526000C1E020E030E0A90160913D0770913E0768
:1052700080913F07909140070E9456F0811101C034
:10528000C0E08C2FCF910895CF93C82F882319F0B9
:10529000E6DF8823C9F0809185098C17A9F00E9468
:1052A0001B8488E19AE00E9418868091850991E02C
:1052B000892780938509882321F088E19AE00E945C
:1052C000F882CF910C941B92CF9108950E94489A36
:1052D000811102C00C94411C80E0D6DF0E945A9AD2
:1052E00081E080931A0708954F925F926F927F92A8
:1052F0008F929F92AF92BF92CF92DF92EF92FF92E6
:105300000F931F93CF93DF93EC01209135073091DA
:1053100036074091370750913807688179818A8133
:105320009B810E9412F76B017C012091390730911B
:105330003A0740913B0750913C076C817D818E81FB
:105340009F810E9412F74B015C01A70196016091B9
:1053500022057091230580912405909125050E94D6
:1053600056F0882309F45AC0C0922205D092230532
:10537000E0922405F092250520911A0530911B0535
:1053800040911C0550911D05C701B6010E94BBF05C
:105390002B013C010E9488F86B017C0120E030E089
:1053A000A9010E9456F087FD7AC020E030E040E875
:1053B00050E4C701B6010E943AF9181634F4C12C22
:1053C000D12CC0E8EC2EC0E4FC2EA7019601C3014D
:1053D000B2010E9412F72B013C0120E030E0A9014C
:1053E0000E9456F087FD5FC040921205509213054F
:1053F0006092140570921505C701B6010E9457F816
:1054000060931005062E000C770B6F5F7F4F6430A2
:10541000710514F064E070E060930E05D0910C0506
:1054200010911005A5019401609126057091270542
:1054300080912805909129050E9456F081113CC069
:10544000D11394C02091F4043091F5044091F604F6
:105450005091F70460911205709113058091140525
:10546000909115050E94BBF02091F8043091F90449
:105470004091FA045091FB040E9413F7DF91CF9101
:105480001F910F91FF90EF90DF90CF90BF90AF9062
:105490009F908F907F906F905F904F900895C12C58
:1054A000D12C760192CF1092120510921305109212
:1054B000140510921505A0CF80922605909227051D
:1054C000A0922805B092290520911E0530911F0554
:1054D0004091200550912105C501B4010E94BBF007
:1054E0004B015C010E9488F86B017C0120E030E0F8
:1054F000A9010E9456F087FDFDC020E030E040E8A1
:1055000050E4C701B6010E943AF9181634F4C12CD0
:10551000D12CB0E8EB2EB0E4FB2EA7019601C5011B
:10552000B4010E9412F74B015C0120E030E0A901B8
:105530000E9456F087FDE2C08092160590921705F2
:10554000A0921805B0921905C701B6010E9457F83C
:1055500060931105062E000C770B6F5F7F4F643050
:10556000710514F064E070E060930F05C0911105BF
:10557000D11305C080910D058C1709F470C080917E
:1055800010059091110590930D0580930C050C2E3C
:10559000000CDD0B25E01203C0011124FC01EC0F0F
:1055A000FD1FEE0FFF1FEE0FFF1FED5AF84F20817A
:1055B000318142815381209308053093090540933E
:1055C0000A0550930B0500910F05002E000C110BDE
:1055D000FC01E00FF11FEE0FFF1FEE0FFF1FED5A52
:1055E000F84F60817181828193810E9412F76093EC
:1055F0000405709305058093060590930705209197
:105600000E0535E02303F0011124CE0FDF1FCC0F70
:10561000DD1FCC0FDD1FCD5AD84F288139814A813B
:105620005B81209300053093010540930205509360
:105630000305E00FF11FEE0FFF1FEE0FFF1FED5AE6
:10564000F84F60817181828193810E9412F760938B
:10565000FC047093FD048093FE049093FF048090FB
:10566000160590901705A0901805B0901905209187
:105670000405309105054091060550910705C501C7
:10568000B4010E94BBF020910805309109054091BA
:105690000A0550910B050E9413F76B017C01C09223
:1056A000F804D092F904E092FA04F092FB042091FD
:1056B000FC043091FD044091FE045091FF04C501AB
:1056C000B4010E94BBF0209100053091010540918A
:1056D0000205509103050E9413F7A70196010E944D
:1056E00012F76093F4047093F5048093F60490939A
:1056F000F704A8CEC12CD12C76010FCF109216053D
:105700001092170510921805109219051DCFE2E2AC
:10571000F5E080EF9FEFA9E7B4EC84839583A6833F
:10572000B78380839183A283B383ECE0F5E08DE9B6
:105730008183808308958F929F92AF92BF92CF9280
:10574000DF92EF92FF92FC0198E0ADE3B7E00190A9
:105750000D929A95E1F788E0FB01A5E3B7E001908F
:105760000D928A95E1F7C0903D07D0903E07E090FA
:105770003F07F090400720E030E0A901C701B601E3
:105780000E9456F08823E1F1A701960160E070E0E5
:1057900080E89FE30E94EFF76B017C018090410756
:1057A00090904207A0904307B090440720E030E07B
:1057B000A901C501B4010E9456F0882329F1A50171
:1057C000940160E070E080E89FE30E94EFF7C092F0
:1057D0001A05D0921B05E0921C05F0921D056093FE
:1057E0001E0570931F058093200590932105FF905F
:1057F000EF90DF90CF90BF90AF909F908F900895E3
:10580000C12CD12C7601CACF60E070E0CB01DFCF94
:105810008F929F92AF92BF92EF92FF920F931F933E
:10582000CF93DF931092390710923A0710923B07FB
:1058300010923C07109235071092360710923707E6
:1058400010923807109241071092420710924307B6
:105850001092440710923D0710923E0710923F07A6
:105860001092400703E517E0C0E0812C912C80ECFA
:10587000A82E8FE7B82E7801D0E0F701819291929F
:10588000A192B1927F016D2F8C2F0E94E5A1DF5F65
:10589000D53099F7CF5F0C5E1F4FC53061F7DF91B0
:1058A000CF911F910F91FF90EF90BF90AF909F907D
:1058B0008F900895EFE6F0E0808182608083089504
:1058C0008091670990916809892B79F48091670923
:1058D00090916809892B49F42091670930916809F2
:1058E00081E0232B19F480E0089581E00895CF939F
:1058F000DF93EC01FE0184912196882319F00E9428
:105900007220F8CFDF91CF910895CF93DF93EB0111
:10591000EEDFCE01DF91CF9190CCCF92DF92EF926C
:10592000FF926A017B01E3DF42E0C701B601FF900D
:10593000EF90DF90CF900C9492C589E395E0D7CF9C
:1059400083E395E0D4CF8AE00C947220CF93DF9369
:1059500062E171E10E94D9C7C0910E0ED0910F0E85
:10596000488159816A817B8189E091E1D6DF4C8150
:105970005D816E817F8189E090E3CFDF40910A0EE7
:1059800050910B0E60910C0E70910D0E86E090E31D
:10599000C4DF86E091E1ABDF8FE29FE1A8DFDF911A
:1059A000CF91D1CF0F931F93CF938C01C62F80ED52
:1059B0009DE09DDFC8019BDF8AE30E9417C480E35E
:1059C0008C0F0E947220CF911F910F91BCCFCF936B
:1059D0008CEC9FE08CDFB7DFE0915A0282E6E89F13
:1059E000F0011124E354FD4FC08160E08CEB9FE097
:1059F000D9DF60E087EA9FE0D5DF61E080EA9FE0E1
:105A0000D1DF61E085E99FE0CDDF60E086E89FE0DF
:105A1000C9DF61E086E79FE0C5DF60E08DE69FE0DB
:105A2000C1DF61E083E69FE0BDDF61E089E59FE0E3
:105A3000B9DF61E082E59FE0B5DF61E08AE49FE0E5
:105A4000B1DF61E08CE39FE0ADDF60E08EE29FE0DC
:105A5000A9DF60E08FE19FE0A5DF60E081E19FE0EA
:105A6000A1DF60E08BEF9EE09DDF60E08AEE9EE0CC
:105A700099DF61E085ED9EE095DF61E086EC9EE0D8
:105A800091DF61E08FEB9EE08DDF60E082EB9EE0D6
:105A900089DF60E08BEA9EE085DF61E082EA9EE0DC
:105AA00081DF60E08DE89EE07DDF60E08FE79EE0D3
:105AB00079DF60E085E79EE075DF60E08EE59EE0DF
:105AC00071DF60E081E59EE06DDF61E08EE39EE0E6
:105AD00069DF60E081E39EE065DF61E08CE29EE0EB
