:100000000C9415170C9455170C9455170C94551700
:100010000C9455170C9455170C9455170C945517B0
:100020000C9455170C9455170C9455170C945517A0
:100030000C9455170C9455170C9455170C94551790
:100040000C9455170C94E67B0C9455170C9455178B
:100050000C9455170C94DD7A0C9455170C945FC7CB
:100060000C9455170C9490530C947C530C94551786
:100070000C9455170C9455170C9455170C94551750
:100080000C9413520C9455170C9455170C94551747
:100090000C9452530C9486530C9455170C9455178A
:1000A0000C9455170C9455170C94E5510C94551756
:1000B0000C9455170C9455170C9455170C94551710
:1000C0000C9455170C9455170C9455170C942853F1
:1000D0000C94F2520C9455170C9455170C94551718
:1000E0000C945517084AD73B3BCE016E84BCBFFD2C
:1000F000C12F3D6C74319ABD56833DDA3D00C77FF8
:1001000011BED9E4BB4C3E916BAAAABE0000008090
:100110003F05A84CCDB2D44EB93836A9020C50B91F
:10012000918688083CA6AAAA2ABE000000803F004B
:100130004E414E494E495459494E46CDCCCC3D0ACC
:10014000D7233C17B7D13877CC2B329595E6241FAF
:10015000B14F0A000020410000C84200401C462068
:10016000BCBE4CCA1B0E5AAEC59D7400407A10F33B
:100170005A00A0724E18090010A5D4E80000E876D5
:1001800048170000E40B54020000CA9A3B0000002C
:10019000E1F505000080969800000040420F000045
:1001A00000A08601000000102700000000E8030006
:1001B0000000006400000000000A000000000001D0
:1001C00000000000002C76D888DC674F0823DFC1D0
:1001D000DFAE59E1B1B796E5E3E453C63AE651998B
:1001E0007696E8E6C28426EB898C9B62ED407C6FB4
:1001F000FCEFBC9C9F40F2BAA56FA5F490055A2A6B
:10020000F75C936B6CF9676DC11BFCE0E40D47FE76
:10021000F520E6B500D0ED902E030094357705006B
:1002200080841E080000204E0A000000C80C3333F2
:1002300033330F986E12831141EF8D2114893BE601
:100240005516CFFEE6DB18D1844B381BF77C1D908A
:100250001DA4BBE424203284725E228100C9F124F3
:10026000ECA1E53D27434F4D4D554E49434154497F
:100270004F4E0044525952554E004552524F525320
:1002800000494E464F004543484F00627567666916
:10029000782D322E312E780057616E68616F2044C0
:1002A00039204D4B320053544F505045442E2000BE
:1002B0005072696E7465722073746F70706564201B
:1002C00064756520746F206572726F72732E20469C
:1002D000697820746865206572726F7220616E643F
:1002E00020757365204D39393920746F207265731C
:1002F000746172742E202854656D70657261747516
:1003000072652069732072657365742E205365745D
:1003100020697420616674657220726573746172FD
:1003200074696E67290A004E6F20436865636B73BA
:10033000756D2077697468206C696E65206E756DC7
:100340006265722C204C617374204C696E653A2092
:10035000004E6F20436865636B73756D2077697419
:1003600068206C696E65206E756D6265722C204C1C
:10037000617374204C696E653A2000636865636B35
:1003800073756D206D69736D617463682C204C61A9
:100390007374204C696E653A20004C696E65204E7E
:1003A000756D626572206973206E6F74204C617385
:1003B00074204C696E65204E756D6265722B312C10
:1003C000204C617374204C696E653A20004D3131C8
:1003D000300053657269616C2073746174757320A9
:1003E0006D69736D617463680A00534420726561BE
:1003F00064206572726F720A00746F6F206D75638E
:100400006820696E6163746976652074696D652022
:100410002D2063757272656E7420636F6D6D616EF1
:10042000643A20002121204B494C4C2063617573B4
:1004300065642062792000627573793A2070617575
:1004400073656420666F7220696E7075740A00624D
:100450007573793A2070617573656420666F7220D8
:10046000757365720A00627573793A2070726F63F2
:10047000657373696E670A00534420436172642098
:1004800072656164206572726F720046696C616D9D
:10049000656E742072756E6F757420452564004D0D
:1004A000363030002066696C616D656E745F727500
:1004B0006E6F7574200066696C616D656E745F7235
:1004C000756E6F757420540046696C616D656E744D
:1004D00052756E6F7574205400506C6561736520A1
:1004E000526573657400706F7765726F6666004B56
:1004F000494C4C45442E20005072696E7465722040
:1005000068616C7465642E206B696C6C28292063AB
:10051000616C6C6564210A006563686F3A0045721E
:10052000726F723A0042696C696E656172204C6547
:1005300076656C696E6720477269643A0A0050728A
:10054000696E74204F626A002F2F616374696F6E49
:100550003A006E6F74696669636174696F6E20003A
:100560006E6F74696669636174696F6E2000707282
:100570006F6D70745F00626567696E00656E640020
:1005800073686F7700627574746F6E00486F74657E
:100590006E6420746F6F20636F6C640A004F464670
:1005A0000A004661646520486569676874200042F6
:1005B0006564204C6576656C696E672000466169EC
:1005C0006C656420746F20656E61626C65204265A5
:1005D00064204C6576656C696E670A00496E7661C9
:1005E0006C6964206D6573682E0A0050726F6269D1
:1005F0006E6720506F696E740025532025692F2582
:1006000069002E0A002F0050726F62696E67206DBC
:1006100065736820706F696E7420002028445259F9
:1006200052554E2900473239204175746F2042657A
:1006300064204C6576656C696E67003F20284C2C01
:10064000522C462C4229206F7574206F6620626FF1
:10065000756E64732E0A00290A003F466565647250
:100660006174652028532920746F6F206C6F772E7A
:1006700020285573696E6720003F285629657262ED
:100680006F7365206C6576656C20696D706C617543
:100690007369626C652028302D34292E0A0042616E
:1006A00064205A2076616C75650A004E6F2062697D
:1006B0006C696E65617220677269640A00706175A9
:1006C00073656400486561642063616E6E6F7420B9
:1006D0006265207061726B656400506175736500BE
:1006E000496E736572742066696C616D656E742005
:1006F000616E6420707265737320627574746F6EBE
:100700000A0052656865617420446F6E6500526529
:1007100068656174696E672E2E2E0052656865618A
:1007200074004865617465722054696D656F7574F5
:1007300000507265737320627574746F6E20746FED
:100740002068656174206E6F7A7A6C650A004E6F5E
:100750007A7A6C65205061726B65640044697361DC
:10076000626C6552756E6F75740050757267654D79
:100770006F726500506175736564004C6F61642031
:1007800046696C616D656E742054004C6F61642025
:1007900046696C616D656E7400496E736572742094
:1007A00066696C616D656E7420616E64207072653F
:1007B000737320627574746F6E0A00726573756D61
:1007C000656400526573756D696E6700536C65658D
:1007D000702E2E2E005A2050726F62652050617369
:1007E00074204265640A005A2050726F626520507E
:1007F0006173742042656400473238004D65736848
:1008000020706F696E74206F7574206F662072613E
:100810006E67650A00626567696E00436F6E746992
:100820006E7565004D302053746F70004D3120534C
:10083000746F7000436C69636B20746F2052657332
:10084000756D652E2E2E004E6F204D6F76652E0035
:10085000456E642066696C65206C6973740A004299
:100860006567696E2066696C65206C6973740A003F
:100870004E6F206D656469610A00534420636172A4
:10088000642072656C65617365640A0052657375F6
:100890006D696E6720534400526573756D65005035
:1008A0006175736520534400286E6F2066696C651E
:1008B000290043757272656E742066696C653A2012
:1008C000004E6F74205344207072696E74696E67B5
:1008D0000A005344207072696E74696E67206279F1
:1008E000746520002E0A0044656C6574696F6E2083
:1008F0006661696C65642C2046696C653A20004627
:10090000696C652064656C657465643A0050726951
:100910006E742074696D653A2000706175736500AE
:100920006F6B004C696E653A20006F666600860248
:1009300081027A027302650244454255473A004DEE
:100940003131322053687574646F776E004D3131E8
:100950003320530057616E68616F204439204D4B3E
:1009600032204F46462E0020732E0A00496E6163E6
:100970007469766974792074696D656F7574200087
:1009800020204D39322058002F2F002044002020F5
:100990004D32303020530020204D3230312058006D
:1009A00020450020204D32303320580020520020B6
:1009B000204D323034205000204A00205400205373
:1009C0000020204D3230352042003F4A206F7574A0
:1009D000206F662072616E67652028302E303120CE
:1009E000746F20302E33290A0020204D32303620FB
:1009F000580020580020204D61783A200020002027
:100A0000204D696E3A2000203B200020204D3231DD
:100A100031205300250A0046523A0020466C6F7779
:100A20003A20003A200020536572766F2000206F34
:100A30007574206F662072616E67650A0053657277
:100A4000766F200050726F6265204F666673657422
:100A5000205A0050726F6265204F6666736574207D
:100A60005A0020440020490020204D3330312050CE
:100A70000064697300656E0043290061626C6564FF
:100A800020286D696E2074656D702000436F6C6462
:100A9000206578747275646573206172652000202A
:100AA0003B20486F73742068616E646C696E6720C8
:100AB000004F4646004F4E0046696C616D656E748E
:100AC0002072756E6F757420004D34323120696E5E
:100AD000636F727265637420706172616D657465B5
:100AE000722075736167650A004D65736820706FC9
:100AF000696E74206F7574206F662072616E676511
:100B00000A004F666673657473204170706C696586
:100B100064004D494E2F4D415820546F6F2046615F
:100B20007200546F6F206661722066726F6D204D87
:100B3000494E2F4D41580A00454550524F4D204FC8
:100B40004B0A00203B0020550020204D363033203A
:100B50004C0020286D6D2900203B00205A002059B0
:100B60000020204D383531205800290A0020746FAC
:100B700020003F5A206F7574206F662072616E6787
:100B800065202800290A0020746F20003F59206F3B
:100B90007574206F662072616E6765202800290ACF
:100BA0000020746F20003F58206F7574206F6620FE
:100BB00072616E67652028004D383400446F6E65A1
:100BC000207072696E74696E672066696C650A00D0
:100BD0004D3737004D3331004361703A00434F4E7B
:100BE0004649475F4558504F5254004D4541545077
:100BF00041434B00434F4F4C45525F54454D504588
:100C0000524154555245004348414D4245525F546C
:100C1000454D50455241545552450045505F424163
:100C20004259535445500042414259535445505043
:100C3000494E470041524353004D4F54494F4E5F78
:100C40004D4F44455300544845524D414C5F50521E
:100C50004F54454354494F4E00455854454E444522
:100C6000445F4D323000435553544F4D5F46495217
:100C70004D574152455F55504C4F4144004C464EF4
:100C80005F5752495445004C4F4E475F46494C45CB
:100C90004E414D45004155544F5245504F52545FBF
:100CA00053445F5354415455530053445F57524982
:100CB000544500524550454154004D554C54495FF0
:100CC000564F4C554D4500534443415244005052F9
:100CD0004F4D50545F535550504F525400484F534E
:100CE000545F414354494F4E5F434F4D4D414E4435
:100CF0005300454D455247454E43595F504152536D
:100D0000455200434153455F4C494748545F425266
:100D1000494748544E45535300544F47474C455F4D
:100D20004C494748545300534F4654574152455F2E
:100D3000504F574552004255494C445F504552432D
:100D4000454E54004C4556454C494E475F4441542E
:100D500041005A5F50524F42450052554E4F555434
:100D6000004155544F4C4556454C005052494E5445
:100D70005F4A4F420050524F47524553530041552E
:100D8000544F5245504F52545F54454D50004155B9
:100D9000544F5245504F52545F504F5300564F4C92
:100DA000554D455452494300454550524F4D004220
:100DB000494E4152595F46494C455F5452414E534A
:100DC0004645520053455249414C5F584F4E5F587B
:100DD0004F4646004649524D574152455F4E414DA0
:100DE000453A4D61726C696E206275676669782D4F
:100DF000322E312E78202853657020323620323042
:100E000032352031363A30313A34382920534F5573
:100E10005243455F434F44455F55524C3A676974AE
:100E20006875622E636F6D2F4D61726C696E4669D5
:100E3000726D776172652F4D61726C696E205052D0
:100E40004F544F434F4C5F56455253494F4E3A31E2
:100E50002E30204D414348494E455F545950453A44
:100E600057616E68616F204439204D4B32204B49E9
:100E70004E454D41544943533A4361727465736919
:100E8000616E2045585452554445525F434F554E6C
:100E9000543A3120555549443A63656465326132AC
:100EA000662D343161322D343734382D3962313288
:100EB0002D63353563363266333637666600473222
:100EC0002F47332062616420706172616D657465C3
:100ED00072730A005A2050726F62652050617374F9
:100EE0002042656400205A3A0020593A0042656465
:100EF00020583A004732384F00220A00656E71755B
:100F0000657565696E672022006F6B0A0052657314
:100F1000656E643A20002569730025696D20256996
:100F200073002569682025696D202569730025698E
:100F300064202569682025696D202569730025696D
:100F40007920256964202569682025696D20256937
:100F50007300436F6F6C696E672E2E2E0045312033
:100F600025530020573A0042656420436F6F6C6937
:100F70006E672E2E2E004265642048656174696E8E
:100F8000672E2E2E0023646566696E6520444546F3
:100F900041554C545F004B6420004B6920004B705E
:100FA00020005049442074756E696E6720646F6E2E
:100FB00065002066696E69736865642120507574E8
:100FC00020746865206C617374204B702C204B6911
:100FD00020616E64204B6420636F6E7374616E7465
:100FE000732066726F6D2062656C6F7720696E7416
:100FF0006F20436F6E66696775726174696F6E2EDC
:10100000680A00504944204175746F74756E65001C
:10101000206661696C6564212074696D656F757403
:101020000A00504944204175746F74756E65004123
:1010300075746F74756E65206661696C65642120D6
:1010400054696D656F75742E00206661696C656406
:10105000212054656D706572617475726520746FBE
:101060006F20686967680A00504944204175746FB1
:1010700074756E6500504944204379636C65730054
:1010800025532025692F256900204B643A20002034
:101090004B693A2000204B703A200020436C61736A
:1010A00073696320504944200A002054753A200097
:1010B000204B753A2000206D61783A2000206D6940
:1010C0006E3A200020643A200020626961733A2061
:1010D0000048656174696E672E2E2E00207374615E
:1010E00072740A00504944204175746F74756E65BE
:1010F000004175746F74756E65206661696C656416
:10110000212054656D706572617475726520746F0D
:101110006F20686967682E00206661696C656421CC
:101120002054656D706572617475726520746F6F9F
:1011300020686967680A00504944204175746F74DB
:10114000756E6500504944204175746F74756E6505
:1011500000206661696C65642120426164206865D5
:10116000617465722069640A0050494420417574B5
:101170006F74756E6500002002000000B91E00004B
:10118000012002000000B91E000002200200000041
:10119000B91E0000032002000000B91E0000042058
:1011A00002000000D75300000520020000007D1E51
:1011B00000000620000000005A1E00000720020068
:1011C0000000271E00000820020000003B1E000057
:1011D000092002000000AE3300000A2002000000D7
:1011E000161800000B2002000000E41700000E207B
:1011F00002000000221D00000F2002000000F61C6B
:101200000000102002000000DE1D0000112002007E
:101210000000A21D0000122002000000A21D00001C
:101220001420020000006A1D0000152002000000CA
:101230005A1D0000162002000000B31C00001720F9
:10124000020000006D1C0000182002000000DC17E6
:1012500000001920020000006A1B00001A20000094
:101260000000463E00001B2000000000DD260000BC
:101270001C2002000000D01700001D20020000000A
:10128000BD1700001E2002000000031C00001F20EC
:1012900002000000213E0000202002000000281B68
:1012A0000000212002000000281B00002220020074
:1012B0000000281B0000232002000000D41A0000B8
:1012C000242002000000B5170000252000000000C7
:1012D000C91A00002620000000002C3D0000272035
:1012E00002000000103E0000282002000000FC3D2B
:1012F0000000292002000000961700002A200200AA
:101300000000921A00002B20000000009A3D00000F
:101310002E2002000000821A00002F200000000092
:101320009017000020300200000000007F77253079
:101330002000000000002877453020000000000059
:1013400028776530200000000000287785302000D5
:10135000000000002877A53020000000000028775A
:10136000C530020000000000D477C6302000000025
:101370000000EF76E630020100000000D47FE83084
:101380000F0100000000448FF73002010000000050
:101390002E75BE310200000000003F92F8300201BD
:1013A000120200003A74F9300201000000001D75BD
:1013B000FC300201EF070000D073FD300201F3079B
:1013C00000003A74FE300200000000000975FF3092
:1013D0000201C90B0000D07300310201CD0B0000E7
:1013E0003A74013102000000000009750531020164
:1013F00000000000FD7406310201430C000066731A
:10140000073102000A020000E57408310201000001
:101410000000B3760931020000000000577222314B
:101420000200130700001B732331020015070000A0
:101430001B732431020000000000D174253102002A
:101440000B0200001B73263102011B0A0000D0733F
:10145000273102011F0A0000D07328310201230A3C
:101460000000D0732931020017070000E5742A310B
:10147000020000000000A4762B31020000000000F2
:10148000B9742C3102000D0200001B732D310401D0
:1014900000000000BE752F310401000000008275BD
:1014A0003131040100000000467533311800980204
:1014B0000000F4754B3118000000000051766331D4
:1014C00010008B020000F475733102000000000070
:1014D000286D7431020000000000296D753118007C
:1014E000000000002B768D311800000000001A76F5
:1014F000A5311800000000000976BD31020000008F
:1015000000000F920040020100006217A074014029
:1015100020021A07761A3C76214002000902FE6C6E
:10152000CF72224002000000772391742340020012
:101530000000AF23877400500200000000002E75E9
:1015400001500000000057170000000000000000DC
:10155000000000004E6F7420616C6C6F7765642032
:101560007768696C652069646C65004E6F742061F2
:101570006C6C6F77656420647572696E6720707239
:10158000696E74004E6F205344204361726420449E
:10159000657465637465640043616E6E6F74206585
:1015A0006E746572207375626469723A20004E6FC2
:1015B0002066696C652073656C6563746564004DB5
:1015C000323500526573756D65005549205061755F
:1015D000736500726573756D65004D323400436F3D
:1015E0006F6C696E672E2E2E004D353030004732FD
:1015F0003900486F6D696E67207265717569726533
:10160000640054656D706572617475726520746FE5
:101610006F206C6F77004732385A0047323858597C
:101620000047323858595A00486F6D696E672E2E40
:101630002E00457865637574696E6720636F6D6D04
:10164000616E642E2E2E004D353030004D35303217
:10165000004D3939390A4D32383050305331363037
:10166000004D35303000504944206175746F7475F9
:101670006E696E672E2E2E004D3330334325644540
:101680002564532564553100426564205049442047
:1016900064697361626C6564004275737900BD3181
:1016A000000033314B3163317331743175318D3119
:1016B000A531000023400000224000002B312C31D6
:1016C00021402D312F31313100002A3100000140FD
:1016D000000026312731283129310000FF30003148
:1016E000243125310000223123310000FF30003148
:1016F000FC30FD30083109310000FF300031FC3092
:10170000FD300000063107310000053100000040C7
:101710000000FF3000310131FC30FD30FE300000B0
:10172000FF300031FC30FD300000FF300031FC3074
:10173000FD30E630E830005000000031FD30004060
:10174000F830F93006310000FF300031FC30FD3058
:10175000E630E830F730BE3100002030253045302B
:1017600065308530A530C530C6300000FF3000310F
:10177000FC30FD3000004D3530300050726F626932
:101780006E67206661696C65640050726F62696E95
:1017900067207375636365737366756C00504944A5
:1017A0002074756E696E6720646F6E650041757494
:1017B0006F74756E65206661696C6564212054697B
:1017C0006D656F75742E004175746F74756E65204C
:1017D0006661696C6564212054656D706572617421
:1017E00075726520746F6F20686967682E00417597
:1017F000746F74756E65206661696C656421204242
:1018000061642065787472756465722E0050494475
:10181000204175746F74756E6500022178036E92B5
:10182000047A920A9A980B2E980CFA970D1C720E55
:10183000436D0F386D101D9811E097132E6D162A09
:101840006D000000016C17025A17034817043A177D
:10185000052A17062017071217080E17090A170B73
:1018600004170CFA160DEC160EE6160FDC1610D245
:101870001611CE1612CA1613BC1614B81615B416C5
:1018800016A216F99E1600000047305A3130004764
:101890003238004732380047305A30004730582538
:1018A000645925640047305A340047323800486F85
:1018B0006D696E672E2E2E0042757379004457496C
:1018C0004E204755492F4F53207570646174652031
:1018D0007265717569726564002564782564782580
:1018E00064002D002D002D0063616E63656C005057
:1018F00072696E742041626F72746564004469732A
:101900006D6973730055492041626F72746564009C
:101910006F70656E00545249474745524544003A3E
:10192000200066696C616D656E74007A5F6D696E2A
:1019300000795F6D696E00785F6D696E0052657049
:101940006F7274696E6720656E6473746F70207354
:1019500074617475730A0020746F6F206C6F6E670A
:1019600020657874727573696F6E20707265766524
:101970006E7465640A0020636F6C6420657874720D
:101980007573696F6E2070726576656E7465640A32
:1019900000486F6D652025732046697273740000DE
:1019A00000000000000000000000005761726E6936
:1019B0006E673A20486F6D696E672042756D7020C2
:1019C00044697669736F72203C20310A0002020478
:1019D0000000FA430000FA430000FA430000A04070
:1019E0000000A0400000004053544F505045442E8A
:1019F00020005072696E7465722073746F70706528
:101A0000642064756520746F206572726F72732E26
:101A10002046697820746865206572726F72206153
:101A20006E6420757365204D39393920746F2072CA
:101A30006573746172742E202854656D70657261CF
:101A4000747572652069732072657365742E2053F6
:101A500065742069742061667465722072657374A0
:101A6000617274696E67290A00206572726F722054
:101A70002D20726573746172742077697468204DCB
:101A80003939390A00424C546F75636800212120AE
:101A900053544F502063616C6C65642062656361D0
:101AA000757365206F6620000000FA430000FA435A
:101AB0000000FA43000000000000000000000000E9
:101AC000454550524F4D20777269746520666169B3
:101AD0006C65640053657474696E67732053746F2A
:101AE00072656400290A002062797465733B206383
:101AF0007263200053657474696E67732053746F4A
:101B0000726564202800204D61726C696E3D563903
:101B100030290A00454550524F4D20766572736951
:101B20006F6E206D69736D61746368202845455040
:101B3000524F4D3D00454550524F4D2064617461F8
:101B400073697A65206572726F722E0A004572722F
:101B50003A20454550524F4D2043524300202863C0
:101B6000616C63756C6174656429210A0020213DF4
:101B70002000454550524F4D20435243206D69731C
:101B80006D61746368202D202873746F72656429F9
:101B90002000454550524F4D20436F72727570744E
:101BA0000A002053697A653A2000496E6465783AE4
:101BB000200053746F7265642073657474696E6776
:101BC0007320726574726965766564002062797449
:101BD00065733B2063726320002073746F726564C9
:101BE0002073657474696E677320726574726965B9
:101BF000766564202800454550524F4D207265613E
:101C000064206661696C656400454550524F4D2003
:101C1000496E697469616C697A65640A004545506A
:101C2000524F4D20496E697469616C697A65640030
:101C3000454550524F4D207265736574004861727E
:101C400064636F6465642044656661756C742053D9
:101C5000657474696E6773204C6F6164656400001D
:101C6000009643000096430000A0400000C84100D9
:101C700000A0420000A0420000C8430000C842B8D3
:101C80000B0000B80B0000640000001027000024C7
:101C9000F4D43050C38D20C3A24117828B7011122F
:101CA0007A900D826CDA0AA861E108C7586607616C
:101CB0005142061F4B5E05C145A6041B4112040993
:101CC0003D9703723931034136DB0266339202D409
:101CD000305302812E1D02642CEE01762AC501B11B
:101CE00028A101102781018F2564012B244A01E1DD
:101CF000223401AD2120018D200C01811FFC0085C3
:101D00001EED00981DDF00B91CD200E71BC70020A4
:101D10001BBB00651AB200B319A9000A19A0006A1A
:101D2000189800D217920040178A00B61684003225
:101D3000167E00B41579003B157400C7146F005867
:101D4000146A00EE1366008813620026135E00C852
:101D5000125B006D12570016125500C11151007030
:101D6000114E0022114C00D61049008D104600473C
:101D700010450002104200C00F4000800F3E00429C
:101D80000F3C00060F3A00CC0E3900930E37005C72
:101D90000E3500270E3400F30D3200C10D310090D6
:101DA0000D2F00610D2F00320D2D00050D2C00D9D7
:101DB0000C2A00AF0C2A00850C28005D0C28003589
:101DC0000C27000E0C2500E90B2500C40B2400A0F5
:101DD0000B23007D0B22005B0B21003A0B21001925
:101DE0000B2000F90A1F00DA0A1F00BB0A1E009D23
:101DF0000A1D00800A1C00640A1C00480A1C002CF2
:101E00000A1B00110A1A00F7091A00DD091900C49B
:101E1000091900AB091800930918007B0917006421
:101E20000917004D09170036091600200915000B87
:101E3000091500F6081500E1081500CC081400B8D3
:101E4000081400A4081300910813007E0813006B07
:101E50000812005908120047081200350812002322
:101E60000811001208110001081000F1071100E02C
:101E7000071000D0071000C0070F00B1071000A125
:101E8000070F0092070F0083070F0074070E00660C
:101E9000070E0058070E004A070E003C070E002EE2
:101EA000070D0021070D0014070D0007070D00FAAC
:101EB000060D00ED060C00E1060D00D4060C00C86E
:101EC000060C00BC060C00B0060B00A5060C009921
:101ED000060B008E060B0083060B0078060B006DC8
:101EE000060B0062060B0057060A004D060A004367
:101EF000060B0038060A002E060A00240609001BFD
:101F0000060A0011060A0007060900FE050A00F489
:101F1000050900EB050900E2050900D9050900D013
:101F2000050900C7050800BF050900B6050900AD91
:101F3000050800A50508009D050800950509008C09
:101F4000050800840508007C050700750508006D7C
:101F5000050800650507005E050800560507004FE7
:101F6000050800470507004005070039050700324E
:101F70000507002B050700240507001D05070016AF
:101F80000507000F0506000905070002050600FC0D
:101F9000040700F5040600EF040700E8040600E269
:101FA000040600DC040600D6040600D0040700C9BD
:101FB000040500C4040600BE040600B8040600B20E
:101FC000040600AC040600A6040500A10406009B5C
:101FD00004050096040600900405008B04060085A5
:101FE000040500800405007B0405007604060070EB
:101FF0000405006B04050066040500610405005C2F
:1020000004050057040500520405004D040500486E
:10201000040400440405003F0405003A04040036AB
:10202000040500310405002C0404002804050023E5
:102030000404001F0405001A04040016040400121E
:102040000405000D04040009040400050404000153
:10205000040500FC030400F8030400F4030400F08A
:10206000030400EC030400E8030400E4030400E0BC
:10207000030400DC030400D8030400D4030300D1EC
:10208000030400CD030400C9030400C503040000D9
:102090000000000000000000000000000000000040
:1020A00000000000000000D1036D6403570D0347DA
:1020B000C6023B8B023259022B2E0225090221E86F
:1020C000011CCC011AB201179B0114870113740182
:1020D0001163010F54010E46010D39010D2C010B46
:1020E00021010A17010A0D0109040108FC0008F486
:1020F0000007ED0007E60007DF0006D90006D30061
:1021000005CE0006C80005C30004BF0005BA0004E0
:10211000B60004B20004AE0004AA0004A60003A3A3
:1021200000049F00039C00039900039600039300A2
:10213000029100038E00028C0003890002870003D5
:102140008400028200028000027E00027C00027A8B
:10215000000278000276000175000273000271002F
:10216000017000026E00016D00026B00016A000246
:1021700068000167000265000164000163000162FC
:1021800000026000015F00015E00015D00015C0073
:10219000015B00015A00015900015800015700017C
:1021A0005600015500015400015300015200015135
:1021B00000005100015000014F00014E00014D0090
:1021C000004D00014C00014B00014A00004A000193
:1021D0004900014800004800014700014600004650
:1021E0000001450000450001440001430000430098
:1021F0000142000042000141000041000140000096
:102200004000013F00003F00013E00003E00013D54
:1022100000003D00013C00003C00013B00003B0091
:10222000013A00003A00013900003900003900018C
:102230003800003800013700003700003700013651
:102240000000360000360001350000350001340082
:10225000003400003400013300003300003300017B
:102260003200003200003200013100003100003144
:1022700000003100013000003000003000012F006C
:10228000002F00002F00002F00012E00002E000064
:102290002E00012D00002D00002D00002D00012C2E
:1022A00000002C00002C00002C00012B00002B0053
:1022B000002B00002B00012A00002A00002A000049
:1022C0002A00002A00012900002900002900002915
:1022D0000001280000280000280000280000280035
:1022E0000127000027000027000027000027000129
:1022F00026000026000026000026000026000026FA
:102300000001250000250000250000250000250013
:102310000025000124000024000024000024000007
:1023200024000024000123000023000023000023D8
:1023300000002300002300012200002200002200F0
:1023400000220000220000220000220001210000E3
:1023500021000021000021000021000021000021B7
:1023600000012000002000002000002000002000CC
:10237000002000002000002000011F00001F0000BE
:102380001F00001F00001F00001F00001F00002092
:10239000436F756E7420583A004265640045310001
:1023A000626564002C2073797374656D2073746F9B
:1023B0007070656421204865617465725F49443AB4
:1023C00020004572723A204D415854454D50004D01
:1023D000415854454D502074726967676572656451
:1023E0000048656174696E67204661696C656400C8
:1023F00048656174696E67206661696C6564004553
:1024000072723A204D494E54454D50004D494E543C
:10241000454D502074726967676572656400544861
:1024200045524D414C2052554E4157415900546838
:1024300065726D616C2052756E6177617900202F35
:10244000002042403A0020403A0020573A0000095C
:10245000121B242D363F48415A536C657E77191064
:102460000B023D342F265158434A757C676E323B30
:102470002029161F040D7A7368615E574C452B2284
:1024800039300F061D14636A7178474E555C646DD0
:10249000767F4049525B2C253E3708011A137D7424
:1024A0006F6659504B42353C272E1118030A565F70
:1024B000444D727B60691E170C053A3328214F4644
:1024C0005D546B627970070E151C232A3138414820
:1024D000535A656C777E09001B122D243F365851E4
:1024E0004A437C756E671019020B343D262F737AB0
:1024F0006168575E454C3B3229201F160D046A6304
:1025000078714E475C55222B3039060F141D252C4F
:10251000373E0108131A6D647F7649405B523C35A3
:102520002E2718110A03747D666F5059424B171EEF
:10253000050C333A21285F564D447B7269600E07C3
:102540001C152A233831464F545D626B70790000A8
:102550002110422063308440A550C660E770088196
:1025600029914AA16BB18CC1ADD1CEE1EFF131120D
:10257000100273325222B5529442F772D6623993E6
:1025800018837BB35AA3BDD39CC3FFF3DEE362245D
:10259000433420040114E664C774A44485546AA536
:1025A0004BB528850995EEE5CFF5ACC58DD55336ED
:1025B000722611163006D776F6669556B4465BB786
:1025C0007AA719973887DFF7FEE79DD7BCC7C448BD
:1025D000E5588668A7784008611802282338CCC9D6
:1025E000EDD98EE9AFF9488969990AA92BB9F55A4D
:1025F000D44AB77A966A711A500A333A122AFDDB26
:10260000DCCBBFFB9EEB799B588B3BBB1AABA66C1C
:10261000877CE44CC55C222C033C600C411CAEED75
:102620008FFDECCDCDDD2AAD0BBD688D499D977E2C
:10263000B66ED55EF44E133E322E511E700E9FFFC5
:10264000BEEFDDDFFCCF1BBF3AAF599F788F88917B
:10265000A981CAB1EBA10CD12DC14EF16FE180105F
:10266000A100C230E3200450254046706760B98362
:102670009893FBA3DAB33DC31CD37FE35EF3B102AF
:102680009012F322D2323542145277625672EAB572
:10269000CBA5A89589856EF54FE52CD50DC5E234FF
:1026A000C324A01481046674476424540544DBA742
:1026B000FAB79987B8975FE77EF71DC73CD7D3264F
:1026C000F2369106B01657667676154634564CD9D2
:1026D0006DC90EF92FE9C899E9898AB9ABA944589F
:1026E000654806782768C018E1088238A3287DCBA2
:1026F0005CDB3FEB1EFBF98BD89BBBAB9ABB754AEF
:10270000545A376A167AF10AD01AB32A923A2EFD31
:102710000FED6CDD4DCDAABD8BADE89DC98D267C3E
:10272000076C645C454CA23C832CE01CC10C1FEF81
:102730003EFF5DCF7CDF9BAFBABFD98FF89F176E8E
:10274000367E554E745E932EB23ED10EF01E7C3C0A
:102750003E5E2B3D3F2F5B5D3B2C2A225C00576188
:10276000726E696E673A0053442043617264204977
:102770006E6974204661696C005344206361726421
:10278000206F6B0A006F70656E526F6F7420666108
:10279000696C65640A00766F6C756D652E696E698B
:1027A00074206661696C65640A004E6F2053442092
:1027B000636172640A000A4D3234004D32332025C1
:1027C00073002E0A006F70656E206661696C656427
:1027D0002C2046696C653A200046696C652073655B
:1027E0006C65637465640A002053697A653A200059
:1027F00046696C65206F70656E65643A2000454ED1
:102800004420535542524F5554494E450A00222008
:10281000706F73002220706172656E743A220053EB
:102820005542524F5554494E452043414C4C20741B
:1028300061726765743A220053756263616C6C2043
:102840004F766572666C6F77004578636565646581
:1028500064206D617820535542524F5554494E457E
:102860002064657074683A0057726974696E6720F5
:10287000746F2066696C653A200066726573680043
:10288000646F696E67002066696C653A20004E6F60
:102890007720002F6175746F25632E67002001403B
:1028A0000130013B01400136016001310170012C12
:1028B0000190012701B0012201C0011D01F00118A2
:1028C000011002130130020E01600209019002049E
:1028D00001C002FF000003FA004003F5008003F08E
:1028E00000D003EB002004E6007004E100E004DC0B
:1028F000004005D700C005D2004006CD00D006C874
:10290000008007C3003008BE00F008B900C009B459
:1029100000B00AAF00B00BAA00D00CA500000EA0BA
:1029200000500F9B00C01096005012910000148CB4
:1029300000C0158700B0178200B0197D00D01B7849
:1029400000001E730040206E0090226900F0246495
:102950000040275F0090295A00E02B5500102E50B0
:102960000020304B0010324600E033410090353CEF
:10297000001037370070383200A0392D00B03A28E7
:1029800000A03B2300603C1E00103D1900903D1448
:1029900000103E0F00703E0A00C03E0500003F00E0
:1029A00000403FFBFF803FF6FFC03FF1FF2020507B
:1029B0006C616E6E657242756666657242797465A9
:1029C000733A20002046726565204D656D6F7279FF
:1029D0003A200020436F6D70696C65643A2053653E
:1029E0007020323620323032350A00204C61737448
:1029F00020557064617465643A20323032352D3070
:102A0000392D3235207C20417574686F723A20531D
:102A1000796C3231202B20436C617564650A004D5E
:102A200061726C696E206275676669782D322E312D
:102A30002E780A0020536F667477617265205265A4
:102A40007365740A00205761746368646F6720526D
:102A5000657365740A002042726F776E206F75741B
:102A60002052657365740A002045787465726E6142
:102A70006C2052657365740A00506F7765725570EB
:102A80000A0073746172740A004732385859004D55
:102A900031303031006572726F72207772697469FB
:102AA0006E6720746F2066696C650A00446F6E65FE
:102AB00020736176696E672066696C652E0A004D29
:102AC000323900456E6473746F707300255320258E
:102AD0006320256320256320256300205A3A0020C7
:102AE000593A0020583A00656E6473746F70732011
:102AF0006869743A200000000A0B02090C0D0E08E8
:102B000007030401000000000000000000000000B6
:102B100000000000000000000000000000000000B5
:102B20000000121110000000000000000000000072
:102B300000000000000000000000000000486F6D71
:102B4000696E67204661696C656400FFFFFF205A6B
:102B50003A200020593A200042656420583A20006B
:102B600050726F62696E67204661696C65640A0025
:102B700050726F62696E67204661696C65640043DC
:102B8000616E6E6F74206F70656E2073756264691C
:102B9000722000524553554D45204F5054494F4ED9
:102BA000533A0048656174696E672E2E2E0000004E
:102BB000436C69636B20746F20686561740000006A
:102BC000526573756D696E672E2E2E00000050756C
:102BD0007267696E672E2E2E0000004C6F6164696B
:102BE0006E672E2E2E000000496E73657274206190
:102BF0006E6420436C69636B000000436C69636B17
:102C000020746F20636F6E74696E756500000045F7
:102C10006A656374696E672E2E2E000000506C6525
:102C200061736520776169742E2E2E00000050615B
:102C3000726B696E672E2E2E000000220A00556E00
:102C40006B6E6F776E20636F6D6D616E643A2022DC
:102C5000006F6B0057616E68616F204439204D4BE7
:102C6000322052656164792E005072696E74696E0B
:102C7000672E2E2E005072696E7420506175736538
:102C8000640000002200250028002B002E003100E7
:102C9000340002010000050108010B0100002100C1
:102CA000240027002A002D0030003300010100001D
:102CB000040107010A0105050505070508080808BC
:102CC000020202020A0A08080404040401010101C4
:102CD00001010101030303030303030304070707BF
:102CE0000C0C0C0C0C0C0C0C020202020606060664
:102CF000060606060B0B0B0B0B0B0B0B0102102031
:102D00002008081020401020408002010201080421
:102D100002010102040810204080804020100804B5
:102D2000020180040201804020100804020108040E
:102D30000201010204081020408001020408102052
:102D400040804572726F722077726974696E672075
:102D5000746F20454550524F4D210A00DB0FC93F8B
:102D600045BCDA3F8FB30240FCF0274056946140E7
:102D7000FE4B9B4084A5D840E0231841346A56415D
:102D8000E859974164DBD5416E271742B4B75542E5
:102D9000CE1A9742C8AED542B5885A43D40684BFEE
:102DA000A65FA7BF7443E0BF10B11AC01C2C58C067
:102DB000E8F697C0B849D6C04E4E17C124D355C1C6
:102DC000802497C1A0B5D5C1121A17C244AE55C20E
:102DD000781797C26CACD5C267885AC320746F6FDE
:102DE000206C6F6E6720657874727573696F6E20E2
:102DF00070726576656E7465640A0020636F6C643A
:102E000020657874727573696F6E2070726576656F
:102E10006E7465640A0020453A00205A3A00205931
:102E20003A00583A0000AFD713E111241FBECFEF8C
:102E3000D1E2DEBFCDBF00E00CBF84B780934E155A
:102E400014BE0FB6F894A8958091600088618093B5
:102E50006000109260000FBE15E0A0E0B2E0E4E870
:102E6000F0EE01E00BBF02C007900D92A230B10757
:102E7000D9F725E1A2E0B5E001C01D92AE34B2075A
:102E8000E1F717E1C4E1D7E100E006C021970109AD
:102E9000802FFE010E94B5ECC331D10780E0080706
:102EA000A9F70E94CED80C9431F00C9400008091C8
:102EB0003B078F5F80933B078A3018F080EF809349
:102EC0006D090895CF93FC01808191818115904413
:102ED00029F5FB01C1816C2F70E090E080E00E9439
:102EE00005E620E030E048EC52E40E94F7EE1816C8
:102EF0000CF4C4E62C2F30E0AFEFB0E00E9473EC8E
:102F000024E630E040E050E00E944DEC2F3F3105D8
:102F100019F010F02FEF30E02093B509CF9108950C
:102F200010923F0781E0809341070895FB01818162
:102F30008F3F19F0882381F008952CE330E030931F
:102F40000E0220930D0280933E0785E080930902D4
:102F500081E080934107089588EC90E090930E0201
:102F600080930D0210923E07F0CFFB018181809388
:102F7000170781E0809341070895FB0180819181CB
:102F8000982789279827893C910510F088EC90E0D4
:102F900090930C0280930B0281E080934107089587
:102FA000FB01818191E0980F923028F48093110207
:102FB00081E0809341070895FB01818180930A029B
:102FC00081E0809341070895FC01808191818B30DD
:102FD000904259F5FB01608171817627672776273A
:102FE0007093190260931802072E000C880B990B3E
:102FF0000E9407E62AE037ED43E25CE30E9466E6C2
:103000002091520730915307409154075091550732
:103010000E9466E660935F02709360028093610293
:103020009093620281E0809341070895CF92DF92EE
:10303000EF92FF92CF93DF93FB01C081D181DC2718
:10304000CD27DC27BE010D2E000C880B990B0E94AA
:1030500007E66B017C0120E030E040E251E40E9491
:1030600001E687FD0DC020E030E04AEF53E4C701E0
:10307000B6010E94F7EE18162CF4C4EFD1E002C09E
:10308000CAE0D0E0D0931302C093120281E0809393
:103090004107DF91CF91FF90EF90DF90CF9008959F
:1030A000CF93DF93C091F307D091F40781E0CE3145
:1030B000D105E4F020E030E040E05FE36091EF070D
:1030C0007091F0078091F1079091F2070E94D0EC87
:1030D0000E9414EE6C1B7D0B77FF03C07195619508
:1030E000710981E0633071050CF080E0DF91CF91D0
:1030F000089587FD26C0811111C08091B90A2091E1
:10310000BA0A8217F1F0E22FF0E0E754F54F82811E
:1031100090E02F5F2F772093BA0A0895813089F4C9
:103120008091370A2091380A821759F0E22FF0E097
:10313000E95CF54F828190E02F5F2F772093380A6A
:1031400008958FEF9FEF0895CF93DF93DB01F9018F
:103150009C919130C1F0943080F094509C938830D1
:10316000D1F480819181009771F0019791838083E0
:10317000480F591FEA01188206C08C3539F49C5F4C
:103180009C93943041F4DF91CF9108958B3339F7BC
:1031900081E08C93F8CF20813181B9016F5F7F4F3F
:1031A00071836083420F531FEA018883808191817C
:1031B0008F3591056CF7E7CF0F931F9381E0009156
:1031C000A9121091AA122091AB123091AC12409129
:1031D000A5125091A6126091A7127091A81204171F
:1031E00015072607370708F480E01F910F9108950F
:1031F00090E080E0089520918E11833021F425FD28
:103200000CC024FD0CC030E0A90102C055954795C3
:103210008A95E2F7CA018170089581E0089580E0FF
:1032200008958091870584FD0BC08091890587FDF5
:1032300007C090918A05937081E019F480E00895A9
:1032400081E008952FEB280F2A3108F047C0E22FC4
:10325000F0E08091870590918805A0918905B09153
:103260008A0504C0B695A795979587952A95D2F7B4
:1032700080FD02C081700895E359FA4FE081EE238A
:1032800041F180917C0990917D09E80FF92FF11DA2
:10329000808190ED980F9A3030F08E3251F4818118
:1032A00080538A3098F4F0936405E093630581E0DD
:1032B00008958D3211F08B3249F4818190ED980F91
:1032C0009A3088F38E3211F48281EACFF0E0E0E0A8
:1032D000EACF1092640510926305E9CF80E008956B
:1032E000B1DF882341F081E02091630530916405CE
:1032F000232B09F480E008958091560781110EC0B8
:1033000020911E0230911F022150310981E040912D
:10331000CD0B5091CE0B421753070CF080E008956F
:103320008F929F92AF92BF92CF92DF92EF92FF92D5
:10333000FC01828158E5C52E52E0D52EC81AD1086D
:1033400087FDD394CC0CDD1CCC0CDD1C0D2C000CAB
:10335000EE08FF08818178E8872E912C881A910861
:1033600087FD9394880C991C880C991C092C000CDF
:10337000AA08BB0880818F3FD1F190E0FC01EE0FDD
:10338000FF1FE80FF91FE151F44F8181928133E073
:10339000880F991F3A95E1F7B0E0A0E044E0B595B9
:1033A000A795979587954A95D1F702969C012F5F2F
:1033B0003F4F032E000C440B550B281939094A09BD
:1033C0005B09A4EBB0E00E9469ECA7019601281903
:1033D00039094A095B090E944DECC901FF90EF9041
:1033E000DF90CF90BF90AF909F908F90089590E026
:1033F00080E0DCCF91E0909319099091D10095FD88
:103400000CC09091D00095FF08C08093D6008091A9
:10341000D00080648093D00008952091E1062F5F52
:103420002F720FB607FC27C09091E206921328C0B6
:103430009091D00095FF1EC09091E2064091E10668
:10344000941306C09091D1009F7D9093D10012C03B
:10345000E92FF0E0EF51F94F32819F5F9F72309377
:10346000D6009093E2063091D00030643093D000C3
:10347000491741F3D9CF9091E206921301C0FBCFD7
:10348000E091E106F0E0EF51F94F82832093E106ED
:103490008091D10080628093D10008950F931F9393
:1034A000CF93DF93EC01162F042F8AE5A3DF85EA83
:1034B000A1DF83E0800F9EDF812F9CDF8D2F9ADFBD
:1034C0008C2FDF91CF911F910F9194CF40E355E75F
:1034D00060E070E089E996E10C947B9340E355E766
:1034E00060E070E089E996E10C947B93FC014281F5
:1034F000442339F084819581009719F050E00C94B1
:10350000B3EF0895CF93FB01C181C13031F40E9424
:103510000192811104C0C0934107CF9108950E9488
:103520002A91F9CFCF93DF93EB010E945A93811137
:103530000AC040E355E760E070E089E996E1DF9179
:10354000CF910C947B93888199819827892798271C
:1035500020913E072F3F29F02223A9F0DF91CF9140
:1035600008958536910514F084E690E08530910544
:1035700014F485E090E090930E0280930D0281E0B8
:1035800080934107EBCF863F910584F385EF90E070
:10359000EDCFEAE1F7E081E2DF011D928A95E9F7DC
:1035A00081E08093410708951F93CF93DF9300D06C
:1035B0001F92CDB7DEB780911707813059F0B8F16F
:1035C000823081F10F900F900F900F90DF91CF918B
:1035D0001F91089520E030E040E85FE3FB01818126
:1035E0008230A1F148F5882319F05058813051F705
:1035F00010E084E0189FF0011124E55EF54F608132
:103600007181828193810E94D0EC69837A838B835C
:103610009C83612FCE0101960E948DC481E080932E
:103620004107D0CF2DEC3CEC4CEC5DE3D7CF20E054
:1036300030E040E251E4D2CF843029F030F05058ED
:10364000853009F0BFCF12E0D4CF505811E0D1CF70
:103650000F931F93CF93DF9300D01F92CDB7DEB7A8
:103660008C01FB0160817181762767277627072E01
:10367000000C880B990B0E9407E620E030E040E246
:1036800051E40E94ACED69837A838B839C83F801BB
:10369000808191818132F0E29F0749F0823220E2FD
:1036A0009207B1F08032904251F460E001C061E0D5
:1036B000CE0101960E948DC481E0809341070F9056
:1036C0000F900F900F90DF91CF911F910F91089560
:1036D00062E0EECF0F931F93CF93DF93CDB7DEB7AA
:1036E0002C970FB6F894DEBF0FBECDBF8B01809133
:1036F00070098770873099F040E355E760E070E02B
:1037000082EF95E10E947B932C960FB6F894DEBF72
:103710000FBECDBFDF91CF911F910F9108950E94F1
:103720005A93811107C040E355E760E070E089E9F2
:1037300096E1E8CFF8018181833029F148F48130A6
:10374000C9F0823009F780E090E0A0EFB1E416C044
:10375000843009F453C08530B9F680E090E0A0EFE2
:10376000B1E48D839E83AF83B88780E090E0ABEEB9
:10377000B3E415C080E090E0AAE7B3E48D839E83B4
:10378000AF83B8870CC080E090E0ABEEB3E48D83EC
:103790009E83AF83B88780E090E0A0EFB1E4898793
:1037A0009A87AB87BC8720E030E040E850E4609126
:1037B000230A7091240A8091250A9091260A0E947A
:1037C000D0EC69837A838B839C8362E0CE0101967F
:1037D0000E948DC460E0CE0105960E948DC461E018
:1037E000CE0109960E948DC419821A821B821C8206
:1037F00062E0CE0101960E948DC486CF80E090E009
:10380000ABEEB3E4BBCFCF93DF93EB010E945A93AF
:1038100081110AC040E355E760E070E089E996E174
:10382000DF91CF910C947B93809111028F5F823056
:10383000E0F420E030E04AE253E46091C90B70917B
:10384000CA0B8091CB0B9091CC0B0E9401E687FFB5
:1038500007C040E355E760E070E082E096E1E0CF2A
:103860008981882329F0813029F1DF91CF91089552
:1038700060910B0270910C0290E080E00E9405E6DE
:103880009B01AC016091270A7091280A8091290A56
:1038900090912A0A0E94CFEC6093270A7093280A1D
:1038A0008093290A90932A0A8CEC94E0DF91CF91BF
:1038B0000C941C8A60910B0270910C0290E080E0E5
:1038C0000E9405E62091270A3091280A4091290A92
:1038D00050912A0A0E94D0ECDFCF0F931F93CF9311
:1038E000DF9300D01F92CDB7DEB78B010E945A93B1
:1038F00081110AC0F3DD0F900F900F900F90DF91B0
:10390000CF911F910F910895F801818190910A0242
:10391000923049F0933079F7882301F18AE097EDEE
:10392000A3E2BCEB06C08823A1F08DEC9CECACECD0
:10393000BDEB89839A83AB83BC83CE0101960E9441
:1039400060C40E9408C70E946C9381E08093410785
:10395000D2CF8DEC9CECACECBDE3EBCF8AE097EDE5
:10396000A3E2BCE3E6CF0F931F93CF93DF9300D086
:103970001F92CDB7DEB78B010E945A9381110AC006
:10398000A5DD0F900F900F900F90DF91CF911F91B9
:103990000F910895F8016081718176276727762756
:1039A000072E000C880B990B0E9407E620E030E000
:1039B00048EC52E40E94ACED2091430C3091440C51
:1039C0004091450C5091460C0E94CFEC69837A835C
:1039D0008B839C83CE0101960E9460C40E9408C71D
:1039E0000E946C9381E080934107CBCFCF93DF930C
:1039F00000D01F92CDB7DEB7FB018181882349F04B
:103A00008130D9F00F900F900F900F90DF91CF91F0
:103A100008958AE097EDA3E2BCE389839A83AB83A0
:103A2000BC83CE0101960E9460C40E9408C70E9418
:103A30006C9381E080934107E5CF8AE097EDA3E2A4
:103A4000BCEBEBCFCF93DF9300D01F92CDB7DEB7A7
:103A5000FB0160817181762767277627072E000C8E
:103A6000880B990B0E9407E620E030E048EC52E416
:103A70000E94ACED2091430C3091440C4091450CD8
:103A80005091460C0E94CFEC69837A838B839C8390
:103A9000CE0101960E9460C40E9408C70E946C93E8
:103AA00081E0809341070F900F900F900F90DF916E
:103AB000CF910895FB018181813031F0823039F05E
:103AC00081E08093410708950E94F27CF9CF0E9423
:103AD000CA7CF6CFCF93DF9300D01F92CDB7DEB76D
:103AE000FB0181818F3F99F0882359F08E3F19F5B2
:103AF00019821A821B821C8266E0CE0101960E9406
:103B00007B9219821A821B821C8260E005C0198296
:103B10001A821B821C8266E0CE0101960E947B9273
:103B200040E355E760E070E08EED95E10E947B9305
:103B300081E0809341070F900F900F900F90DF91DD
:103B4000CF910895CF93DF9300D01F92CDB7DEB70A
:103B5000FB0160817181762767277627FC018081D0
:103B600091818131F0E29F0751F082319042D1F092
:103B70000F900F900F900F90DF91CF910895072E27
:103B8000000C880B990B0E9407E669837A838B836C
:103B90009C8366E0CE0101960E947B9281E0809337
:103BA0004107E6CF072E000C880B990B0E9407E611
:103BB00069837A838B839C8360E0ECCFCF93DF9320
:103BC00000D01F92CDB7DEB7FB0181818230B1F00A
:103BD0008330C1F1813061F580E090E0A8E4B3E486
:103BE00089839A83AB83BC8360E0CE0101960E94F7
:103BF0007B9280E090E0A0E7B2E411C080E090E02A
:103C0000A0E7B3E489839A83AB83BC8360E0CE01F1
:103C100001960E947B9280E090E0A0EAB2E4898362
:103C20009A83AB83BC8366E0CE0101960E947B92AF
:103C300081E0809341070F900F900F900F90DF91DC
:103C4000CF91089580E090E0A0E7B3E4C9CFCF938F
:103C5000FB01C181C13051F40E94E791811108C07C
:103C60000E940192811104C0C0934107CF91089531
:103C7000CF910C942A91CF93FB01C181C13031F4D3
:103C80000E94E791811104C0C0934107CF9108952C
:103C900043EC55E16AEC75E184E00E9480C085E761
:103CA0009CE20E941CBD8FEB95E190932B098093C1
:103CB0002A09ECCF80910F029091100297FF08C063
:103CC00040E355E760E070E08EEA95E10C947B9369
:103CD0000E9488D4882381F08091AD1285FD0CC0AC
:103CE0000E945A93811101C0F1CB8EE799E00E94A6
:103CF000F5C783E080936D090895CF93DF93FB01AF
:103D000081818130D1F040F0823019F181E08093DF
:103D10004107DF91CF9108958091AD1286FDF9CFD3
:103D200010923D0710923C078FEF9FEF9093100287
:103D300080930F020E94C0C7E9CF80913C07909109
:103D40003D07009731F3019790933D0780933C071F
:103D5000DDCFC0913C07D0913D0726960E943AD412
:103D60008C179D07B0F280913C0790913D0701961A
:103D7000EBCF1F93CF93DF93EC01FB01118188817F
:103D800099818130904289F48091AD1284FD0BC0FD
:103D900040E355E760E070E084E895E1DF91CF9182
:103DA0001F910C947B930E94A9C7888199818230CE
:103DB000904279F40E94E791882339F040E355E777
:103DC00060E070E08BE695E1E9CF0E9401928111FD
:103DD000F5CF888199818330904231F010936D093D
:103DE000DF91CF911F9108950E94E7918111F6CF45
:103DF0000E9401928111F2CF40E355E760E070E04C
:103E000084E595E1CBCFEF92FF920F931F93CF9371
:103E1000DF93CDB7DEB764970FB6F894DEBF0FBE61
:103E2000CDBF7C01FB0160817181828193818E0114
:103E30000F5F1F4F248141E00E942DE1F7010190A7
:103E40000020E9F79F01215031092E193F092E3139
:103E5000310550F44FE150E0421B530BBC01C70148
:103E6000820F931F0E944AE5C70164960FB6F8942B
:103E7000DEBF0FBECDBFDF91CF911F910F91FF909D
:103E8000EF9008950C94CCBB682F70E090E080E038
:103E90000C949BBC8091630590916405009731F070
:103EA0004AE050E070E060E00C94CDE360E070E048
:103EB000CB0108958091630590916405009731F0DE
:103EC0004AE050E070E060E00C94A0E260E070E056
:103ED000CB010895EFDF97FD0AC0ECDF6F3F71055E
:103EE0008105910509F02CF4E5DF862F089580E027
:103EF00008958FEF0895CF93C62FF2D9882311F03C
:103F0000CF91E8CF8C2FCF91089580916305909148
:103F10006405892B39F0DEDF91E0811101C090E06A
:103F2000892F089591E0FCCFCF93DF93C82FD62F30
:103F3000D7D9882319F0DF91CF91E7CF8C2F82D981
:103F4000811101C08D2FDF91CF910895B3DFCB0197
:103F50000895CF93DF93EB01C3D9882319F0DF9144
:103F6000CF91F4CFCE01DF91CF9108950F931F939E
:103F7000CF938091630590916405009709F1FC014E
:103F80008F01C1912C2F2F7DA1F0C53431F0C536A2
:103F900021F0C83511F0C83799F7F801108270E0A8
:103FA00060E00E944AE1F801C083CF911F910F9118
:103FB000089570E060E0CF911F910F910C944AE159
:103FC00060E070E0CB01F1CF0F931F93CF93DF93AD
:103FD0009091CF0993FD7FC0C82F83E581D9D82F59
:103FE000882329F1B3DF0E94877D61E08C2F0E9436
:103FF000F68F6091CD0B7091CE0B072E000C880BC5
:10400000990B0E9407E62091C90B3091CA0B409191
:10401000CB0B5091CC0B0E94F7EE18160CF445C058
:1040200082E59FE0DD2309F442C01D2F03C0C111CA
:1040300037C010E083E554D9882329F087DF9093B7
:1040400027028093260282E44BD9882329F07EDF61
:10405000909329028093280286E4F4D88823B9F14A
:1040600085DF60932A0270932B0280932C02909339
:104070002D0201E020E030E0A9010E9401E681115B
:1040800001C000E000932E02CC2329F1112319F185
:104090006D2F80E0DF91CF911F910F910C9498A12B
:1040A00082E51ED981119ECFC4CF81ED90E19F930F
:1040B0008F938DE59FE09F938F931F920E94B1C6CF
:1040C0000F900F900F900F900F9011E0B3CF60E022
:1040D00070E0CB01C6CFDF91CF911F910F91089572
:1040E000CF92DF92EF92FF926A017B01F9D8882389
:1040F00029F0FF90EF90DF90CF9038CFC701B60145
:10410000FF90EF90DF90CF9008954F925F926F9263
:104110007F92AF92BF92CF92DF92EF92FF920F9376
:104120001F93CF93DF9389E1A82E84E0B82E0BE193
:104130001AE0C2E4D7E09BE2C92E9AE0D92EF12C16
:10414000F50181915F01CCD8882339F00FDF2B0175
:104150003C018091C809882351F0F8018081918148
:10416000A281B38188839983AA83BB8312C08F2DD8
:1041700042D8882309F463C0F8012081318142814B
:104180005381C301B2010E94D0EC688379838A8392
:104190009B83F3940C5F1F4F2496F4E0CF0ED11C49
:1041A00083E0F812CDCF85E49BD8882309F451C071
:1041B000DDDE6B017C0183E01ED8882371F0209145
:1041C000270A3091280A4091290A50912A0AC701EA
:1041D000B6010E94D0EC6B017C01C0924E07D092D8
:1041E0004F07E0925007F092510740E050E0BA01CB
:1041F00086E476DF20E030E0A9010E94F7EE181691
:104200007CF4B4DE20E030E040E752E40E94ACED04
:104210006093140270931502809316029093170214
:10422000DF91CF911F910F91FF90EF90DF90CF9092
:10423000BF90AF907F906F905F904F900895F60180
:104240002081318142815381C301B2010E94CFECB0
:104250009CCF8091270A9091280AA091290AB091B9
:104260002A0A80934E0790934F07A0935007B0936C
:104270005107BBCFEF92FF920F931F93CF93DF9322
:10428000CDB7DEB7A4970FB6F894DEBF0FBECDBF93
:10429000F82E8093CA098FE18F1508F489C08091A8
:1042A000C909F81624F081E08F0D8093C90981E0D7
:1042B00090E00F2C02C0880F991F0A94E2F7092E94
:1042C000000CAA0BBB0B4091CB095091CC0960911B
:1042D000CD097091CE0984239523A623B72321E02D
:1042E000892B8A2B8B2B09F420E02093C809F7FC3B
:1042F00062C04FE150E06EE375E08E010F5F1F4F2B
:10430000C8010E94FBE4F80101900020E9F7CF0109
:104310000197801B910B8E31910560F420E2F8012A
:10432000E80FF91F20838D31910521F08C0F9D1F1F
:10433000FC0112828F2D0F2C000C990B9F93FF9282
:1043400082EF94E09F938F937E01F0E2EF0EF11CD9
:10435000FF92EF920E9401F0F80101900020E9F72E
:10436000CF010197801B910B0F900F900F900F9032
:104370000F900F908E31910548F44FE150E0481BAB
:10438000590BB701800F911F0E944AE540E060E0A1
:10439000C8010E945291A4960FB6F894DEBF0FBEDA
:1043A000CDBFDF91CF911F910F91FF90EF900895B6
:1043B0001092C8099CCF0E94FABFEDCFAF92BF9276
:1043C000CF92DF92EF92FF920F931F93CF935C01F6
:1043D0006B018A01855F9A4F7C01DC01CC91C7FF9C
:1043E0003DC0FB0111821082CF5FD701CC93CC304E
:1043F0000CF053C08CE08A9DF0018B9DF00D1124D0
:10440000CF018C0F911DC7FD9A952091370C28176D
:10441000190609F00CF441C0F60120813181FC013C
:10442000EE0FFF1FE80FF91FE151F44F81819281D8
:10443000820F931FD80111969C938E93808187FFE2
:104440003DC061E08F77CF911F910F91FF90EF906A
:10445000DF90CF90BF90AF900C9463C58CE08A9DA5
:10446000F0018B9DF00D1124CF018C0F911DC7FD24
:104470009A952091370C2817190609F00CF4B4CF3F
:10448000FC01EE0FFF1FE80FF91FE151F44F80818F
:1044900060E08F770E9463C5A7CFF601808191818C
:1044A00004968034FCE99F0710F480E49CE9D8016D
:1044B00011969C938E938FEFF7018083CF911F917C
:1044C0000F91FF90EF90DF90CF90BF90AF90089545
:1044D000AF92BF92CF92DF92EF920F931F93CF9341
:1044E0005B01C42F122F62E80E944E1AC5010E9480
:1044F0000FE56C018C2F90E0C816D90630F5C11479
:10450000D10441F1CC19112381F0011111C010E047
:1045100000E00C151D05F1F0F501E00FF11F84918D
:104520000E94FA190F5F1F4FF4CF10E0011107C06E
:104530008C199D09969587951C2F181BC82FC15063
:1045400038F080E20E94FA19FACF6C01C0E0DFCFA8
:10455000C12FDDCF10E2E11001C010E0C15020F00A
:10456000812F0E94FA19FACFCF911F910F91EF90EE
:10457000DF90CF90BF90AF900895AF92BF92CF924F
:10458000DF92EF920F931F93CF935B01C42F122FF3
:1045900062E80E944E1AF50101900020E9F7319778
:1045A0006F01CA18DB088C2F90E0C816D90618F5E1
:1045B000C114D10429F1CC19112369F001110EC0E5
:1045C000CA0CDB1CCA14DB04D9F0F50181915F0130
:1045D0000E94FA19F7CF10E0011107C08C199D094C
:1045E000969587951C2F181BC82FC15038F080E274
:1045F0000E94FA19FACF6C01C0E0E2CFC12FE0CFE0
:1046000010E2E11001C010E0C15020F0812F0E94A3
:10461000FA19FACFCF911F910F91EF90DF90CF90C1
:10462000BF90AF900895FF920F931F93CF93DF93A6
:10463000F62E072F142F62E80E944E1ACF2DD02F8E
:10464000115020F089910E94FA19FACFDF91CF9191
:104650001F910F91FF90089526E731E1F9014591EF
:1046600054914115510571F04817590741F4CB0198
:104670004AE050E0B9010E94D5E481E00895265F48
:104680003F4F61F780E00895CF93DF931F921F9211
:10469000CDB7DEB7853608F084E6682F70E090E08D
:1046A00080E00E9407E620E030E04FE753E40E94FC
:1046B00066E620E030E048EC52E40E94ACED20E0F9
:1046C00030E0A9010E94D0EC0E9403EF6093EE035A
:1046D0001A821982698342E0BE016F5F7F4F81EACF
:1046E00090E0A1DF0F900F90DF91CF910895FB0133
:1046F0008181CADF0C946C93CF93DF931F921F923A
:10470000CDB7DEB7853608F084E680932002682FA7
:1047100070E090E080E00E9405E620E030E04EEBA3
:1047200052E40E9466E620E030E048EC52E40E9449
:10473000ACED20E030E040EA50E40E94D0EC0E9472
:1047400003EF69836A8342E0BE016F5F7F4F82E8B7
:1047500090E069DF0F900F90DF91CF910895FB01FA
:104760008181CADF0C946C936091EE0370E090E05D
:1047700080E00E9405E620E030E048EC52E40E9430
:1047800066E620E030E04FE753E40E94ACED20E025
:1047900030E0A9010E94D0EC0E9403EF862F08951B
:1047A00080911907882321F080911807811109C091
:1047B00041E063E88FE090E00E944E1A81E00C94A3
:1047C000FA190895CF93DF93C091F307D091F407BE
:1047D000209729F16091EF077091F0078091F10720
:1047E0009091F2070E9414EE6E5F7F4F24976C1732
:1047F0007D07ACF47093DB076093DA070E9489C6EB
:10480000605A75418F4F9F4F6093DC077093DD07AF
:104810008093DE079093DF07DF91CF910895109288
:10482000DC071092DD071092DE071092DF07F4CF4D
:104830002F923F924F925F926F927F928F929F92B0
:10484000AF92BF92CF92DF92EF92FF920F931F939E
:10485000CF93DF93D62FC72FFC0180809180A28059
:10486000B380C501B40120E831E541E050E00E9489
:104870002BECC9016DE671E00E948EEC6B017C01AE
:10488000C501B40120E13EE040E050E00E942BEC85
:10489000CA01B90128E130E040E050E00E942BEC71
:1048A000362E272E062F172F8CE3482E512C612CE5
:1048B000712CC501B401A30192010E942BECB62E0C
:1048C000A72ECA01B901A30192010E942BECCB01D2
:1048D000C114D10479F1AF92BF927F936F932F925D
:1048E0003F92FF92EF92DF92CF928EE39FE09F93F1
:1048F0008F93CF93DF930E949AE58DB79EB70E9664
:104900000FB6F8949EBF0FBE8DBF8D2F9C2FDF91E9
:10491000CF911F910F91FF90EF90DF90CF90BF90BC
:10492000AF909F908F907F906F905F904F903F904F
:104930002F900895E114F104C9F0AF92BF927F93D4
:104940006F932F923F92FF92EF928EE29FE09F93A0
:104950008F93CF93DF930E949AE5EDB7FEB73C9615
:104960000FB6F894FEBF0FBEEDBFCFCF012BB9F04D
:10497000AF92BF927F936F932F923F9282E29FE01C
:104980009F938F93CF93DF930E949AE58DB79EB745
:104990000A960FB6F8949EBF0FBE8DBFB6CF892B77
:1049A000A9F0AF92BF927F936F938AE19FE09F93AC
:1049B0008F93CF93DF930E949AE5EDB7FEB73896B9
:1049C0000FB6F894FEBF0FBEEDBF9FCFAF92BF9260
:1049D00086E19FE09F938F93CF93DF930E949AE5A8
:1049E0000F900F900F900F900F900F908ECF8F928F
:1049F0009F92AF92BF92CF92DF92EF92FF920F936E
:104A00001F93CF93DF9310928C0510928B052FE3A9
:104A100020938F0510928E0510928D0510928705B8
:104A2000109288051092890510928A059C01F9015F
:104A300090812F5F3F4F9032D1F39E34C9F4818132
:104A400090ED980F9A3020F08D3211F08B3281F476
:104A500032969F012F5F3F4F808180538A3008F448
:104A60006BC09F012F5F3F4F8081803209F466C089
:104A7000F0937D09E0937C098F010F5F1F4FC08188
:104A80006AE270E0C8010E94D6EF009731F0FC01A5
:104A9000319780818032E1F31182CD3421F0C43529
:104AA00011F0C734E1F5F80180810F5F1F4F8032AC
:104AB000D1F380538A3098F5C0938F0530E020E021
:104AC0006AE0AF014F5F5F4F629FC001639F900D2F
:104AD00011249C01205331098081280F311D87FD4D
:104AE0003A95FA01808180538A3058F330938E05CD
:104AF00020938D05DF0131968C918032D9F3CD342E
:104B000049F52E31310539F0D8F42731310519F046
:104B10002C313105F9F4B0938C05A0938B05DF910E
:104B2000CF911F910F91FF90EF90DF90CF90BF90AA
:104B3000AF909F908F900895F9018BCFF90191CF9D
:104B40002537310538F02737310528F3203A83E03F
:104B5000380709F3D0917C0940E050E0BA0110E039
:104B600000E0C12CD12C7601C394FD0131968C91CB
:104B7000882309F47FC08132E1F4CD34D1F42032AE
:104B80003105B9F4409387055093880560938905F2
:104B900070938A05F0938C05E0938B0563E270E0D7
:104BA000CF010E94D6EF009709F4B9CFFC01108223
:104BB000B6CF81548A3108F058C0DF019D91903200
:104BC00091F0A0EDA90FAA30E8F09E3271F4918126
:104BD00090539A30B8F00115110519F48F01015066
:104BE000110990E013C0FD01E8CF9D3211F09B3216
:104BF00091F79181A0EDA90FAA3020F09E3259F7CC
:104C00009281E6CF9E2F9D1B309759F3A82FB0E0DD
:104C10004601570104C0880C991CAA1CBB1C8A952C
:104C2000D2F7482959296A297B29A359BA4F9C935D
:104C300080818154DF018A3108F497CFDF018191AF
:104C4000882309F492CF90ED980F9A30B8F393ED42
:104C5000980F923098F38B3289F3CD010196EC9145
:104C6000E03209F082CFDC01F8CF0115110501F720
:104C70008D01DECF10938C0500938B054093870543
:104C8000509388056093890570938A0548CFCF9328
:104C9000DF93EC018991882319F00E94CCBBFACFF5
:104CA0008DE00E94CCBB8AE0DF91CF910C94CCBB0D
:104CB0000C949BBC90917109992321F0682F80E09E
:104CC0000E944F8D80E00895CF93DF93C091CD0B6C
:104CD000D091CE0B209729F16091C90B7091CA0B2E
:104CE0008091CB0B9091CC0B0E9414EE6E5F7F4FA6
:104CF00024976C177D07ACF47093F7076093F60761
:104D00000E9489C6605C73468F4F9F4F6093F8077F
:104D10007093F9078093FA079093FB07DF91CF9187
:104D200008951092F8071092F9071092FA0710925E
:104D3000FB07F4CFCF93DF93EC018991882319F01F
:104D40000E94CCBBFACFDF91CF910895CF93C1E001
:104D500020E030E0A90160915F07709160078091C9
:104D60006107909162070E9401E6811101C0C0E0D5
:104D70008C2FCF910895CF93C82F882319F0E6DFA9
:104D80008823C9F0809194098C17A9F00E94277E8E
:104D90008BE19AE00E9453808091940991E08927E9
:104DA00080939409882321F08BE19AE00E94F97C9A
:104DB000CF910C94CC8BCF9108950E945A9381117E
:104DC00002C00C94661A80E0D6DF0E946C9381E0EA
:104DD0008093410708954F925F926F927F928F92D6
:104DE0009F92AF92BF92CF92DF92EF92FF920F937A
:104DF0001F93CF93DF93EC01209157073091580711
:104E00004091590750915A07688179818A819B8125
:104E10000E94CFEC6B017C0120915B0730915C0715
:104E200040915D0750915E076C817D818E819F81ED
:104E30000E94CFEC4B015C01A701960160914B05EC
:104E400070914C0580914D0590914E050E9401E6B0
:104E5000882309F45AC0C0924B05D0924C05E092C9
:104E60004D05F0924E052091430530914405409147
:104E7000450550914605C701B6010E9466E62B0123
:104E80003C010E9445EE6B017C0120E030E0A9016D
:104E90000E9401E687FD7AC020E030E040E850E45F
:104EA000C701B6010E94F7EE181634F4C12CD12CBC
:104EB000C0E8EC2EC0E4FC2EA7019601C301B201AC
:104EC0000E94CFEC2B013C0120E030E0A9010E94C0
:104ED00001E687FD5FC040923B0550923C05609221
:104EE0003D0570923E05C701B6010E9414EE609325
:104EF0003905062E000C770B6F5F7F4F643071050C
:104F000014F064E070E060933705D091350510919E
:104F10003905A501940160914F057091500580916C
:104F20005105909152050E9401E681113CC0D113B8
:104F300094C020911D0530911E0540911F05509190
:104F4000200560913B0570913C0580913D05909155
:104F50003E050E9466E62091210530912205409190
:104F60002305509124050E94D0ECDF91CF911F9131
:104F70000F91FF90EF90DF90CF90BF90AF909F90F8
:104F80008F907F906F905F904F900895C12CD12C9F
:104F9000760192CF10923B0510923C0510923D0590
:104FA00010923E05A0CF80924F0590925005A0929E
:104FB0005105B09252052091470530914805409126
:104FC000490550914A05C501B4010E9466E64B01AE
:104FD0005C010E9445EE6B017C0120E030E0A901FC
:104FE0000E9401E687FDFDC020E030E040E850E48B
:104FF000C701B6010E94F7EE181634F4C12CD12C6B
:10500000B0E8EB2EB0E4FB2EA7019601C501B40178
:105010000E94CFEC4B015C0120E030E0A9010E942E
:1050200001E687FDE2C080923F0590924005A09284
:105030004105B0924205C701B6010E9414EE60938B
:105040003A05062E000C770B6F5F7F4F64307105B9
:1050500014F064E070E060933805C0913A05D11314
:1050600005C0809136058C1709F470C08091390510
:1050700090913A0590933605809335050C2E000CDF
:10508000DD0B25E01203C0011124FC01EC0FFD1F14
:10509000EE0FFF1FEE0FFF1FE959F84F20813181FE
:1050A000428153812093310530933205409333057B
:1050B0005093340500913805002E000C110BFC01B3
:1050C000E00FF11FEE0FFF1FEE0FFF1FE959F84F22
:1050D00060817181828193810E94CFEC60932D0564
:1050E00070932E0580932F059093300520913705FE
:1050F00035E02303F0011124CE0FDF1FCC0FDD1F9D
:10510000CC0FDD1FC959D84F288139814A815B8175
:105110002093290530932A0540932B0550932C05A5
:10512000E00FF11FEE0FFF1FEE0FFF1FE959F84FC1
:1051300060817181828193810E94CFEC609325050B
:1051400070932605809327059093280580903F054E
:1051500090904005A0904105B090420520912D050A
:1051600030912E0540912F0550913005C501B401B5
:105170000E9466E620913105309132054091330559
:10518000509134050E94D0EC6B017C01C092210546
:10519000D0922205E0922305F09224052091250566
:1051A000309126054091270550912805C501B4018D
:1051B0000E9466E62091290530912A0540912B0531
:1051C00050912C050E94D0ECA70196010E94CFECD3
:1051D00060931D0570931E0580931F059093200515
:1051E000A8CEC12CD12C76010FCF10923F05109282
:1051F000400510924105109242051DCFEBE4F5E009
:1052000080EF9FEFA9E7B4EC84839583A683B783EF
:1052100080839183A283B383E5E3F5E08DE9818305
:10522000808308958F929F92AF92BF92CF92DF9228
:10523000EF92FF92FC0198E0AFE5B7E001900D928C
:105240009A95E1F788E0FB01A7E5B7E001900D92A0
:105250008A95E1F7C0905F07D0906007E090610702
:10526000F090620720E030E0A901C701B6010E947A
:1052700001E68823E1F1A701960160E070E080E893
:105280009FE30E94ACED6B017C01809063079090DE
:105290006407A0906507B090660720E030E0A901A0
:1052A000C501B4010E9401E6882329F1A5019401FA
:1052B00060E070E080E89FE30E94ACEDC09243059F
:1052C000D0924405E0924505F0924605609347056B
:1052D000709348058093490590934A05FF90EF909D
:1052E000DF90CF90BF90AF909F908F900895C12C8A
:1052F000D12C7601CACF60E070E0CB01DFCF8F9276
:105300009F92AF92BF92EF92FF920F931F93CF9312
:10531000DF9310925B0710925C0710925D0710926A
:105320005E07109257071092580710925907109273
:105330005A07109263071092640710926507109243
:10534000660710925F071092600710926107109233
:10535000620707E617E0C0E0812C912C80ECA82EB4
:105360008FE7B82E7801D0E0F70181929192A19257
:10537000B1927F016D2F8C2F0E940299DF5FD53093
:1053800099F7CF5F0C5E1F4FC53061F7DF91CF916A
:105390001F910F91FF90EF90BF90AF909F908F90D3
:1053A0000895EFE6F0E08081826080830895809127
:1053B000760990917709892B79F4809176099091FB
:1053C0007709892B49F4209176093091770981E09A
:1053D000232B19F480E0089581E00895CF92DF92A5
:1053E000EF92FF926B017C0183E3C816D104E104C4
:1053F000F10470F082E3C81AD108E108F10862E311
:1054000070E080E090E00E94EFC50E946FA5ECCFB5
:10541000C701B6010E94EFC5FF90EF90DF90CF90DB
:105420000C946FA5CF93DF93EC01FE01849121963C
:10543000882319F00E94421FF8CFDF91CF91089581
:10544000CF93DF93EB01EEDFCE01DF91CF9172CCF2
:10545000CF92DF92EF92FF926A017B01E3DF42E09D
:10546000C701B601FF90EF90DF90CF900C942FBD55
:105470008EE195E0D7CF88E195E0D4CF8AE00C9417
:10548000421F0F931F93CF938C01C62F88ED9BE093
:10549000C9DFC801C7DF8AE30E94CCBB80E38C0F61
:1054A0000E94421FCF911F910F91E8CFCF9384EDBF
:1054B0009DE0B8DFE3DFE091640282E6E89FF0015F
:1054C0001124E953FD4FC08160E084EC9DE0D9DFF9
:1054D00060E08FEA9DE0D5DF61E088EA9DE0D1DF02
:1054E00061E08DE99DE0CDDF60E08EE89DE0C9DF01
:1054F00061E08EE79DE0C5DF60E085E79DE0C1DF0C
:1055000061E08BE69DE0BDDF61E081E69DE0B9DF13
:1055100061E08AE59DE0B5DF61E082E59DE0B1DF15
:1055200061E084E49DE0ADDF60E086E39DE0A9DF1B
:1055300060E087E29DE0A5DF60E089E19DE0A1DF1A
:1055400060E083E09DE09DDF60E082EF9CE099DF1A
:1055500061E08DED9CE095DF61E08EEC9CE091DFF9
:1055600061E087EC9CE08DDF60E08AEB9CE089DF06
:1055700060E083EB9CE085DF61E08AEA9CE081DF0C
:1055800060E085E99CE07DDF60E087E89CE079DF12
:1055900060E08DE79CE075DF60E086E69CE071DF0F
:1055A00060E089E59CE06DDF61E086E49CE069DF16
:1055B00060E089E39CE065DF61E084E39CE061DF1B
:1055C00061E087E29CE05DDF60E08BE19CE059DF19
:1055D00060E087E09CE055DF60E084EF9BE051DF16
:1055E000C7FD1AC060E08091901190919111CC2379
:1055F00039F0C13089F461E080919211909193115A
:105600000E94F818682F61708BEE9BE03ADF60E033
:105610008DED9BE0CF9135CF80E0F4CFCF92DF923C
:10562000EF92FF926A017B01FDDEC701B6010E9485
:1056300003BDFF90EF90DF90CF9020CF0F931F938B
:10564000CF93883038F5082F082E000C110BC0912D
:105650008F1191E001C0990F8A95EAF790938F110D
:105660000E9420BD87E6809FF001819FF00D1124EC
:10567000E057FA4F40815181628173814F5F5F4FE4
:105680006F4F7F4F8DE09FE0C9DF89E09FE0CADE6A
:10569000C0938F11CF911F910F910895EF92FF92B8
:1056A0000F931F93CF93DF937C01C62F062F062EF7
:1056B000000C110B80E0683028F481E001C0880FF5
:1056C0006A95EAF7D0918F1180938F11D1DE87E62A
:1056D000809FF001819FF00D1124E057FA4F408127
:1056E000518162817381C70199DF8C2F0E947918E3
:1056F0000196D9F78C2FA2DF87E6809FF001819F6A
:10570000F00D1124E057FA4F15821482D0938F11B7
:10571000DF91CF911F910F91FF90EF900895CF925D
:10572000DF92EF92FF926A017B017CDE42E0C701CB
:10573000B6010E942FBDFF90EF90DF90CF909ECEDC
:105740000F931F93CF93DF938C01D62FC0918F11AE
:105750008FEF80938F1188E495E064DEC80162DEEC
:10576000D1118CDEC0938F11DF91CF911F910F91DA
:1057700008950F931F93CF93DF938C01D62FC09181
:105780008F118FEF80938F1160E08EE695E0D8DF68
:10579000C80148DED11172DEC0938F11DF91CF9125
:1057A0001F910F910895EF92FF921F93CF93DF9374
:1057B0007C0160E085E895E0DCDFCFE8D1E118818D
:1057C0008FEF888380E20E94421FC7012BDE56DEE6
:1057D0001883DF91CF911F91FF90EF90089561E0C2
:1057E00080E895E0C6CF61E08CE795E0C2CF0F93EB
:1057F0001F93CF93DF93D82F8B01C42FF4DFD09367
:10580000780960E086E795E0B4DFD0918F118FEFE3
:1058100080938F1180E20E94421FC80103DECC23D7
:1058200019F08C2F0E94421F29DED0938F11DF9137
:10583000CF911F910F91089540E0BC0182E0D7DF26
:105840008BE198E0B0DFCBCFEF92FF921F93CF9325
:10585000DF937C01CFE8D1E118818FEF888360E08E
:1058600080E695E06DDFC701DDDD08DE1883DF919E
:10587000CF911F91FF90EF9008952F923F924F92FA
:105880005F926F927F928F929F92AF92BF92CF92D0
:10589000DF92EF92FF920F931F93CF93DF93CDB7D9
:1058A000DEB7CC54D1090FB6F894DEBF0FBECDBF22
:1058B00070E060E085E40E94A91F811154C083E478
:1058C0000E947019811171C025E02AA783E50E940A
:1058D0007019882309F46DC00E94A61F29969FAFF6
:1058E0008EAF299760E085E50E94941F8AAF84E41B
:1058F00091E10E941CBD0E9489C66B877C878D87C1
:105900009E8780E00E94D29829968EAD9FAD299700
:10591000863F91050CF454C087E391E183DD88E173
:1059200091E180DD84E00E94D29881EF90E18CDFEC
:10593000C45BDF4F0FB6F894DEBF0FBECDBFDF9163
:10594000CF911F910F91FF90EF90DF90CF90BF907C
:10595000AF909F908F907F906F905F904F903F900F
:105960002F900C94FABF89E691E15CDD81E591E12D
:1059700059DD83E0C45BDF4F0FB6F894DEBF0FBE86
:10598000CDBFDF91CF911F910F91FF90EF90DF90EE
:10599000CF90BF90AF909F908F907F906F905F90CF
:1059A0004F903F902F900C94D2980E94A61F8AA7E8
:1059B0008DCF44EB50E029965FAF4EAF299792CF41
:1059C0002B853C854D855E85205C33464F4F5F4F70
:1059D0002CAB3DAB4EAB5FAB84EE90E123DD8CEDA9
:1059E00090E120DD0E94147B8FE78093CF0B81ED47
:1059F00090E10E941CBD81E0809329098B849C84E6
:105A0000AD84BE848BA69CA6ADA6BEA61A8E1B8EA8
:105A10001C8E1D8E1E8E1F8E18A219A21B821C8228
:105A20001D821E828FE790E0A0E0B0E08F87988B08
:105A3000A98BBA8B1F8290E49B8BACE1AC8BB6E454
:105A4000BD8B1E8A1F8A188E198EFFE7CF2ED12C90
:105A5000E12CF12C1FA618AA19AA1AAA1BAA1DA28A
:105A60001EA21FA218A621E02CA310E000E01982BC
:105A70001A82212C312C29968EAD9FAD2997092EA3
:105A8000000CAA0BBB0B8BAF9CAFADAFBEAFAAA5F2
:105A90000A2E000CBB0BB9AFA8AF29968EAD9FADF7
:105AA00029974E969C01990F440B550B23962CAFCA
:105AB0003DAF4EAF5FAF239729968EAD9FAD29972F
:105AC0004E979C01990F440B550B27962CAF3DAF79
:105AD0004EAF5FAF279729964EAD5FAD29974650E1
