:100000000C949E180C94DE180C94DE180C94DE18D8
:100010000C94DE180C94DE180C94DE180C94DE1888
:100020000C94DE180C94DE180C94DE180C94DE1878
:100030000C94DE180C94DE180C94DE180C94DE1868
:100040000C94DE180C94A7800C94DE180C94DE1827
:100050000C94DE180C949E7F0C94DE180C94E8CF60
:100060000C94DE180C94E9530C94D5530C94DE18C0
:100070000C94DE180C94DE180C94DE180C94DE1828
:100080000C946C520C94DE180C94DE180C94DE1850
:100090000C94AB530C94DF530C94DE180C94DE18C4
:1000A0000C94DE180C94DE180C943E520C94DE185E
:1000B0000C94DE180C94DE180C94DE180C94DE18E8
:1000C0000C94DE180C94DE180C94DE180C948153FA
:1000D0000C944B530C94DE180C94DE180C94DE1820
:1000E0000C94DE18084AD73B3BCE016E84BCBFFDA2
:1000F000C12F3D6C74319ABD56833DDA3D00C77FF8
:1001000011BED9E4BB4C3E916BAAAABE0000008090
:100110003F05A84CCDB2D44EB93836A9020C50B91F
:10012000918688083CA6AAAA2ABE000000803F004B
:100130004E414E494E495459494E46CDCCCC3D0ACC
:10014000D7233C17B7D13877CC2B329595E6241FAF
:10015000B14F0A000020410000C84200401C462068
:10016000BCBE4CCA1B0E5AAEC59D7400407A10F33B
:100170005A00A0724E18090010A5D4E80000E876D5
:1001800048170000E40B54020000CA9A3B0000002C
:10019000E1F505000080969800000040420F000045
:1001A00000A08601000000102700000000E8030006
:1001B0000000006400000000000A000000000001D0
:1001C00000000000002C76D888DC674F0823DFC1D0
:1001D000DFAE59E1B1B796E5E3E453C63AE651998B
:1001E0007696E8E6C28426EB898C9B62ED407C6FB4
:1001F000FCEFBC9C9F40F2BAA56FA5F490055A2A6B
:10020000F75C936B6CF9676DC11BFCE0E40D47FE76
:10021000F520E6B500D0ED902E030094357705006B
:1002200080841E080000204E0A000000C80C3333F2
:1002300033330F986E12831141EF8D2114893BE601
:100240005516CFFEE6DB18D1844B381BF77C1D908A
:100250001DA4BBE424203284725E228100C9F124F3
:10026000ECA1E53D27434F4D4D554E49434154497F
:100270004F4E0044525952554E004552524F525320
:1002800000494E464F004543484F00322E312E78EC
:10029000202876322E302E34290057616E68616F27
:1002A000204439204D4B33203330300053544F50CD
:1002B0005045442E20005072696E7465722073742C
:1002C0006F707065642064756520746F206572724C
:1002D0006F72732E2046697820746865206572728B
:1002E0006F7220616E6420757365204D3939392035
:1002F000746F20726573746172742E202854656D5A
:1003000070657261747572652069732072657365BA
:10031000742E2053657420697420616674657220A0
:1003200072657374617274696E67290A004E6F207A
:10033000436865636B73756D2077697468206C69B9
:100340006E65206E756D6265722C204C6173742031
:100350004C696E653A20004E6F20436865636B738D
:10036000756D2077697468206C696E65206E756D97
:100370006265722C204C617374204C696E653A2062
:1003800000636865636B73756D206D69736D61746F
:1003900063682C204C617374204C696E653A2000B0
:1003A0004C696E65204E756D626572206973206EB2
:1003B0006F74204C617374204C696E65204E756DAE
:1003C0006265722B312C204C617374204C696E6510
:1003D0003A20004D3131300053657269616C2073F1
:1003E0007461747573206D69736D617463680A005C
:1003F00053442072656164206572726F720A0074E2
:100400006F6F206D75636820696E616374697665CE
:100410002074696D65202D2063757272656E74207D
:10042000636F6D6D616E643A20002121204B494C51
:100430004C20636175736564206279200062757376
:10044000793A2070617573656420666F7220696EF9
:100450007075740A00627573793A207061757365FE
:100460006420666F7220757365720A006275737915
:100470003A2070726F63657373696E670A00534444
:1004800020436172642072656164206572726F72CC
:10049000004D31303030530046696C616D656E74CB
:1004A0002072756E6F757420452564004D363030AE
:1004B000002066696C616D656E745F72756E6F7534
:1004C00074200066696C616D656E745F72756E6F25
:1004D000757420540046696C616D656E7452756E5A
:1004E0006F7574205400506C65617365205265739C
:1004F000657400706F7765726F6666004B494C4C8F
:1005000045442E20005072696E7465722068616CDB
:100510007465642E206B696C6C28292063616C6C97
:100520006564210A006563686F3A004572726F72F4
:100530003A0042696C696E656172204C6576656C43
:10054000696E6720477269643A0A005072696E7476
:10055000204F626A002F2F616374696F6E3A006EDC
:100560006F74696669636174696F6E20006E6F7481
:10057000696669636174696F6E200070726F6D7077
:10058000745F00626567696E00656E640073686F12
:100590007700627574746F6E00486F74656E6420C6
:1005A000746F6F20636F6C640A004D323453004DDA
:1005B000323320004739322E394500473146004753
:1005C00031463630305A00473146333030305800EB
:1005D0004D31303650004D31303953004D323030CE
:1005E00044004739322E395A004D343230530047D7
:1005F000323852305859004731463630305A004769
:1006000039322E395A004739322E394530004D31B2
:10061000303953004D31393053004D34323053307E
:10062000004F46460A004661646520486569676870
:10063000742000426564204C6576656C696E6720A5
:10064000004661696C656420746F20656E61626C40
:100650006520426564204C6576656C696E670A00AA
:10066000496E76616C6964206D6573682E0A00506E
:10067000726F62696E6720506F696E740025532037
:1006800025692F2569002E0A002F0050726F6269BC
:100690006E67206D65736820706F696E742000202E
:1006A0002844525952554E29004732392041757419
:1006B0006F20426564204C6576656C696E67003F0B
:1006C00020284C2C522C462C4229206F7574206F08
:1006D0006620626F756E64732E0A0020756E6974F1
:1006E000732F6D696E290A003F46656564726174F7
:1006F000652028532920746F6F206C6F772E202877
:100700005573696E6720003F2856296572626F73C2
:1007100065206C6576656C20696D706C61757369B8
:10072000626C652028302D34292E0A004261642035
:100730005A2076616C75650A004E6F2062696C699B
:100740006E65617220677269640A0020440020208F
:100750004D323030205300202844697361626C654B
:1007600064293A0046696C616D656E742073657426
:1007700074696E67730020204D3230312058004D6F
:10078000617820416363656C65726174696F6E2086
:1007900028756E6974732F7332290020204D323012
:1007A000332058004D617820666565647261746518
:1007B000732028756E6974732F73290020520020EE
:1007C000204D323034205000416363656C657261A6
:1007D00074696F6E2028756E6974732F73322920C7
:1007E00028503C7072696E742D616363656C3E20A5
:1007F000523C726574726163742D616363656C3E13
:1008000020543C74726176656C2D616363656C3E47
:10081000290020540020530020204D323035204242
:1008200000416476616E6365642028423C6D696EA8
:100830005F7365676D656E745F74696D655F757311
:100840003E20533C6D696E5F6665656472617465D8
:100850003E20543C6D696E5F74726176656C5F66B4
:10086000656564726174653E20583C6D61785F6AAD
:1008700065726B3E20593C6D61785F6A65726B3EB4
:10088000205A3C6D61785F6A65726B3E20453C6D15
:1008900061785F6A65726B3E290020440020490040
:1008A00020204D333031205000486F74656E642035
:1008B0005049440070617573656400486561642047
:1008C00063616E6E6F74206265207061726B656427
:1008D00000506175736500496E73657274206669B6
:1008E0006C616D656E7420616E64207072657373E7
:1008F00020627574746F6E0A0052656865617420B9
:10090000446F6E6500526568656174696E672E2E6E
:100910002E005265686561740048656174657220D7
:1009200054696D656F7574005072657373206275DC
:1009300074746F6E20746F2068656174206E6F7AB6
:100940007A6C650A004E6F7A7A6C65205061726B22
:1009500065640044697361626C6552756E6F75748D
:100960000050757267654D6F7265005061757365F3
:1009700064004C6F61642046696C616D656E742023
:1009800054004C6F61642046696C616D656E740043
:10099000496E736572742066696C616D656E742052
:1009A000616E6420707265737320627574746F6E0B
:1009B0000A00726573756D656400526573756D69C3
:1009C0006E6700203B0020550020204D363033203C
:1009D0004C0046696C616D656E74206C6F61642FAC
:1009E000756E6C6F616400203B200020204D343117
:1009F00033205300506F7765722D6C6F73732072C4
:100A000065636F766572790020496E76616C696402
:100A10002065787472756465722000536C6565702A
:100A20002E2E2E005B505D61726B696E67207374B1
:100A3000796C652028302E2E34292E003F496E76A1
:100A4000616C696420005A2050726F6265205061A9
:100A50007374204265640A005A2050726F626520E8
:100A6000506173742042656400473238004D6573ED
:100A70006820706F696E74206F7574206F662072C5
:100A8000616E67650A00626567696E00436F6E7428
:100A9000696E7565004D302053746F70004D3120C4
:100AA00053746F7000436C69636B20746F205265E0
:100AB00073756D652E2E2E004E6F204D6F76652E50
:100AC00000456E642066696C65206C6973740A0069
:100AD000426567696E2066696C65206C6973740A8B
:100AE000004E6F206D656469610A005344206361A4
:100AF00072642072656C65617365640A0052657387
:100B0000756D696E6720534400526573756D65009D
:100B1000506175736520534400286E6F2066696CC0
:100B200065290043757272656E742066696C653A5A
:100B300020004E6F74205344207072696E74696E89
:100B4000670A005344207072696E74696E67206290
:100B500079746520005072696E742074696D653A0D
:100B600020007061757365006F6B004C696E653AAB
:100B700020006F666600860281027A0273026502B7
:100B800044454255473A004D31313220536875741F
:100B9000646F776E004D31313320530057616E68BA
:100BA000616F204439204D4B3320333030204F4685
:100BB000462E0020732E0A00496E616374697669BF
:100BC00074792074696D656F757420002F2F00573C
:100BD00041524E494E4721204C6F77205A204A659A
:100BE000726B206D6179206C65616420746F207573
:100BF0006E77616E746564207061757365732E0A1B
:100C0000002058003B200020204D61783A20002031
:100C10000020204D696E3A2000203B200020204D0E
:100C2000323131205300250A0046523A0020466CEA
:100C30006F773A20003A200020536572766F2000CB
:100C4000206F7574206F662072616E67650A0053AD
:100C50006572766F200050726F6265204F66667312
:100C60006574205A0050726F6265204F6666736526
:100C700074205A0064697300656E00432900616244
:100C80006C656420286D696E2074656D702000436A
:100C90006F6C642065787472756465732061726529
:100CA0002000203B20486F73742068616E646C697B
:100CB0006E67200046696C616D656E742072756E9A
:100CC0006F757420004D34323120696E636F72721B
:100CD00065637420706172616D65746572207573EF
:100CE0006167650A004D65736820706F696E7420D6
:100CF0006F7574206F662072616E67650A004F66BB
:100D00006673657473204170706C696564004D4949
:100D10004E2F4D415820546F6F2046617200546F22
:100D20006F206661722066726F6D204D494E2F4DA7
:100D300041580A00454550524F4D204F4B0A00295B
:100D40000A0020746F20003F5A206F7574206F6670
:100D50002072616E6765202800290A0020746F20C8
:100D6000003F59206F7574206F662072616E676551
:100D7000202800290A0020746F20003F58206F753A
:100D800074206F662072616E67652028004D3834CC
:100D900000446F6E65207072696E74696E672066BC
:100DA000696C650A004D3737004D33310020204D06
:100DB000323036205800486F6D65206F6666736567
:100DC00074004361703A00434F4E4649475F4558AF
:100DD000504F5254004D4541545041434B00434FF6
:100DE0004F4C45525F54454D504552415455524524
:100DF000004348414D4245525F54454D5045524194
:100E0000545552450045505F424142595354455054
:100E100000424142595354455050494E47004152B7
:100E20004353004D4F54494F4E5F4D4F444553007F
:100E3000544845524D414C5F50524F5445435449DC
:100E40004F4E00455854454E4445445F4D323000A6
:100E5000435553544F4D5F4649524D574152455F9C
:100E600055504C4F4144004C464E5F5752495445F3
:100E7000004C4F4E475F46494C454E414D45004161
:100E800055544F5245504F52545F53445F53544151
:100E90005455530053445F575249544500524550EE
:100EA000454154004D554C54495F564F4C554D45A6
:100EB000005344434152440050524F4D50545F53ED
:100EC0005550504F525400484F53545F414354497A
:100ED0004F4E5F434F4D4D414E445300454D45529B
:100EE00047454E43595F5041525345520043415389
:100EF000455F4C494748545F4252494748544E4524
:100F0000535300544F47474C455F4C49474854534F
:100F100000534F4654574152455F504F574552007A
:100F20004255494C445F50455243454E54004C4550
:100F300056454C494E475F44415441005A5F505218
:100F40004F42450052554E4F5554004155544F4C59
:100F50004556454C005052494E545F4A4F4200504E
:100F6000524F4752455353004155544F5245504FED
:100F700052545F54454D50004155544F5245504FC7
:100F800052545F504F5300564F4C554D45545249A3
:100F90004300454550524F4D0042494E4152595F22
:100FA00046494C455F5452414E53464552005345C5
:100FB0005249414C5F584F4E5F584F464600464994
:100FC000524D574152455F4E414D453A4D61726C0D
:100FD000696E206275676669782D322E312E782011
:100FE00044392076322E302E34202853657020313B
:100FF0003520323032362031343A35353A343329DF
:1010000020534F555243455F434F44455F55524C23
:101010003A6769746875622E636F6D2F4C652D5346
:10102000796C32312F57414E48414F2D4475706CC9
:10103000696361746F722D392050524F544F434F82
:101040004C5F56455253494F4E3A312E30204D4158
:101050004348494E455F545950453A57616E68615F
:101060006F204439204D4B3320333030204B494ED4
:10107000454D41544943533A436172746573696104
:101080006E2045585452554445525F434F554E5477
:101090003A3120555549443A636564653261326698
:1010A0002D343161322D343734382D396231322DBF
:1010B0006335356336326633363766660047322F1E
:1010C00047332062616420706172616D657465727E
:1010D000730A005A2050726F626520506173742049
:1010E00042656400205A3A0020593A004265642063
:1010F000583A004732384F00203B0020204D383509
:10110000312058005A2D50726F6265204F66667309
:10111000657400220A00656E7175657565696E6794
:101120002022006F6B0A00526573656E643A2000DE
:101130002569730025696D2025697300256968207C
:1011400025696D202569730025696420256968205B
:1011500025696D202569730025697920256964203A
:101160002569682025696D2025697300436F6F6CC0
:10117000696E672E2E2E0045312025530020460033
:1011800020420020204D3130342053004175746FCF
:101190002054656D7020436F6E74726F6C00205721
:1011A0003A0042656420436F6F6C696E672E2E2E85
:1011B000004265642048656174696E672E2E2E00BA
:1011C00023646566696E652044454641554C545F0D
:1011D000005049442074756E696E6720646F6E65B7
:1011E000004175746F74756E65206661696C656425
:1011F000212054696D656F75742E004175746F748C
:10120000756E65206661696C6564212054656D703A
:101210006572617475726520746F6F2068696768A4
:101220002E004175746F74756E65206661696C651A
:101230006421204261642065787472756465722E41
:1012400000504944204175746F74756E65004B44BD
:1012500020004B4920004B50200050494420747519
:101260006E696E6720646F6E65002066696E6973D3
:10127000686564212050757420746865206C617302
:1012800074204B702C204B6920616E64204B6420CD
:10129000636F6E7374616E74732066726F6D20621B
:1012A000656C6F7720696E746F20436F6E66696737
:1012B00075726174696F6E2E680A0050494420414E
:1012C00075746F74756E6500206661696C65642164
:1012D0002074696D656F75740A005049442041752A
:1012E000746F74756E65004175746F74756E6520EA
:1012F0006661696C6564212054696D656F75742E33
:1013000000206661696C6564212054656D706572AA
:10131000617475726520746F6F20686967680A0070
:10132000504944204175746F74756E65005049448E
:10133000204379636C65730025532025692F256947
:1013400000204B643A2000204B693A2000204B706B
:101350003A200020436C6173736963205049442034
:101360000A002054753A2000204B753A2000206D69
:1013700061783A2000206D696E3A200020643A209E
:101380000020626961733A200048656174696E6784
:101390002E2E2E002073746172740A00504944206E
:1013A0004175746F74756E65004175746F74756EF8
:1013B00065206661696C6564212054656D70657295
:1013C000617475726520746F6F20686967682E009C
:1013D000206661696C6564212054656D7065726179
:1013E0007475726520746F6F20686967680A0050B1
:1013F0004944204175746F74756E650050494420EE
:101400004175746F74756E65003F28432979636C6C
:101410006573206E6F7420706C61757369626C65A2
:1014200020283E3D33292E0A00206661696C6564E0
:101430002120426164206865617465722069640AD4
:1014400000504944204175746F74756E650000202A
:10145000020000006F1F00000120020000006F1F4B
:1014600000000220020000006F1F000003200200A5
:1014700000006F1F00000420020000003054000034
:10148000052002000000331F0000062000000000BD
:10149000101F0000072002000000DD1E00000820D1
:1014A00002000000F11E0000092002000000543874
:1014B00000000A20020000006D1900000B2002004D
:1014C00000003E1B00000E2002000000A71E0000CE
:1014D0000F20020000008D1E0000102002000000FE
:1014E00014550000112002000000E75400001220F3
:1014F00002000000E7540000142002000000BF5466
:101500000000152002000000CD1E00001620020081
:1015100000005C1E0000172002000000271E0000D3
:1015200018200200000065190000192002000000C8
:10153000191D00001A20000000002D4300001B2090
:1015400000000000302800001C2002000000591993
:1015500000001D2002000000461900001E200200AD
:101560000000BB1D00001F20020000000843000017
:10157000202002000000EA1C0000212002000000E0
:10158000EA1C0000222002000000EA1C00002320C8
:1015900002000000A91C00002420020000003E19E7
:1015A00000002520000000009E1C000026200000F6
:1015B0000000DD410000272002000000F74200008B
:1015C000282002000000E342000029200200000061
:1015D0001F1900002A2002000000661C00002B20BA
:1015E00000000000814200002C20020000006D423B
:1015F00000002D20020000004B4200002E200200BF
:101600000000561C00002F200000000019190000E7
:101610002030020000000000CD7B253020000000BB
:101620000000767B4530200000000000767B6530AE
:10163000200000000000767B8530200000000000C4
:10164000767BA530200000000000767BC5300200CC
:1016500000000000227CC6302000000000003D7B1E
:10166000E6300201000000003B85E8300F01000079
:101670000000B195F7300201000000007A79BE3118
:10168000020000000000C298F830020111020000C0
:101690008678F9300201000000006979FC3002010F
:1016A000CD0700001C78FD300201D10700008678CC
:1016B000FE300200000000005579FF3002018F0D5E
:1016C00000001C7800310201930D00008678013182
:1016D0000200000000005579053102010000000001
:1016E000497906310201090E0000B2770731020084
:1016F0000902000031790831020100000000017B7D
:101700000931020000000000A37622310200EB063E
:101710000000677723310200ED060000677724316F
:101720000200000000001D79253102000A020000BD
:10173000677726310201170A00001C782731020161
:101740001B0A00001C78283102011F0A00001C78C7
:1017500029310200EF06000031792A310200000031
:101760000000F27A2B3102000000000005792C31D4
:1017700002000C02000067772D3104010000000018
:101780000A7A2F31040100000000CE7931310401C2
:10179000000000009279333118009A020000407A6C
:1017A0004B311800000000009D7A633110008B025D
:1017B0000000407A73310200000000006371743150
:1017C0000200000000006471753118000000000084
:1017D000777A8D31180000000000667AA531180074
:1017E00000000000557ABD31020000000000929810
:1017F000004002010000EB18EC7801402002F206E4
:101800004A1C887A21400200080239711B77224065
:10181000020000006224DD782340020000009A24C8
:10182000D37800500200000000007A7901500000D7
:101830000000E018000000000000000000000000B0
:101840004E6F7420616C6C6F776564207768696C8B
:10185000652069646C65004E6F7420616C6C6F77F5
:10186000656420647572696E67207072696E7400B9
:101870004E6F205344204361726420446574656355
:101880007465640043616E6E6F7420656E7465727A
:10189000207375626469723A20004E6F2066696C2D
:1018A000652073656C6563746564004D3235005264
:1018B0006573756D650055492050617573650072DB
:1018C0006573756D65004D323400436F6F6C696EE2
:1018D000672E2E2E004D3530300047323900486FCC
:1018E0006D696E6720726571756972656400546513
:1018F0006D706572617475726520746F6F206C6FA6
:1019000077004732385A0047323858590047323842
:1019100058595A00486F6D696E672E2E2E00457813
:1019200065637574696E6720636F6D6D616E642E9B
:101930002E2E004D353030004D353032004D3939C6
:10194000390A4D323830503053313630004D353051
:101950003000504944206175746F74756E696E670C
:101960002E2E2E004D3330334325644525645325F8
:1019700064553100426564205049442064697361B4
:10198000626C6564004D313030304300496E7661E1
:101990006C6964207265636F766572792064617426
:1019A00061004D31303030004275737900BD310037
:1019B0000033314B3163317331743175318D31A561
:1019C00031000023400000224000002B312C312147
:1019D000402D312F31313100002A3100000140000B
:1019E0000026312731283129310000FF3000312411
:1019F0003125310000223123310000FF300031FC5D
:101A000030FD30083109310000FF300031FC30FD7D
:101A100030000006310731000005310000004000B1
:101A200000FF3000310131FC30FD30FE300000FF9E
:101A3000300031FC30FD300000FF300031FC30FD63
:101A400030E630E830005000000031FD300040F852
:101A500030F93006310000FF300031FC30FD30E657
:101A600030E830F730BE3100002030253045306599
:101A7000308530A530C530C6300000FF300031FC65
:101A800030FD3000004D3530300050726F62696EAD
:101A900067206661696C65640050726F62696E6789
:101AA000207375636365737366756C00026F7C03E6
:101AB000F19804FD980A249F0BB89E0C849E0D6833
:101AC000760E7E710F737110A79E116A9E13697155
:101AD000166571000000017B1A02691A03571A0487
:101AE000491A05391A062F1A07211A081D1A091949
:101AF0001A0B131A0C091A0DFB190EF5190FEB1915
:101B000010E11911DD1912D91913CB1914C71915C0
:101B1000C31916B119F9AD1900000047305A313018
:101B200000473238004732380047305A30004730DB
:101B30005825645925640047305A3400473238002C
:101B4000486F6D696E672E2E2E00427573790044C2
:101B500057494E204755492F4F5320757064617483
:101B60006520726571756972656400256478256405
:101B7000782564002D002D002D0063616E63656C77
:101B8000005072696E742041626F72746564004423
:101B900069736D6973730055492041626F72746592
:101BA00064006F70656E0054524947474552454482
:101BB000003A200066696C616D656E74007A5F6D35
:101BC000696E00795F6D696E00785F6D696E0052B5
:101BD00065706F7274696E6720656E6473746F7080
:101BE000207374617475730A0020746F6F206C6FBA
:101BF0006E6720657874727573696F6E2070726598
:101C000076656E7465640A0020636F6C6420657885
:101C100074727573696F6E2070726576656E746527
:101C2000640A00486F6D65202573204669727374DD
:101C3000000000000000000000000000005761727A
:101C40006E696E673A20486F6D696E672042756DE8
:101C5000702044697669736F72203C20310A00025B
:101C6000020200009643000096430000C8430000B3
:101C7000A0400000A0400000004053544F50504589
:101C8000442E20005072696E7465722073746F70F8
:101C90007065642064756520746F206572726F7260
:101CA000732E2046697820746865206572726F72A1
:101CB00020616E6420757365204D39393920746F49
:101CC00020726573746172742E202854656D70657E
:101CD0007261747572652069732072657365742E04
:101CE0002053657420697420616674657220726582
:101CF0007374617274696E67290A00206572726F6D
:101D000072202D2072657374617274207769746813
:101D1000204D3939390A00424C546F7563680021EF
:101D2000212053544F502063616C6C6564206265C0
:101D30006361757365206F662000000096430000A4
:101D400096430000C84300000000000000000000AF
:101D50000000454550524F4D2077726974652066EA
:101D600061696C65640053657474696E67732053B0
:101D7000746F72656400290A002062797465733B90
:101D800020637263200053657474696E6773205317
:101D9000746F726564202800204D61726C696E3D1D
:101DA000563930290A00454550524F4D207665720C
:101DB00073696F6E206D69736D6174636820284567
:101DC0004550524F4D3D00454550524F4D206461A6
:101DD000746173697A65206572726F722E0A0045AC
:101DE00072723A20454550524F4D204352430020D5
:101DF0002863616C63756C6174656429210A002035
:101E0000213D2000454550524F4D20435243206D07
:101E100069736D61746368202D202873746F726517
:101E200064292000454550524F4D20436F72727512
:101E300070740A002053697A653A2000496E64651F
:101E4000783A200053746F72656420736574746906
:101E50006E677320726574726965766564002062CE
:101E6000797465733B2063726320002073746F7212
:101E700065642073657474696E677320726574722B
:101E80006965766564202800454550524F4D2072A3
:101E9000656164206661696C656400454550524F18
:101EA0004D20496E697469616C697A65640A004500
:101EB0004550524F4D20496E697469616C697A656D
:101EC0006400454550524F4D20726573657400485B
:101ED000617264636F6465642044656661756C74E7
:101EE0002053657474696E6773204C6F6164656418
:101EF0000000009643000096430000A0400000C888
:101F0000416666A0426666A0426626C8439A99BCAE
:101F100042B80B0000B80B000064000000B80B00D2
:101F20000020286D6D2900203B204C6576656C698A
:101F30006E67200020204D343230205300417574EC
:101F40006F20426564204C6576656C696E67004F52
:101F50004646004F4E00203B2053656E736F722043
:101F60000020204D34313220530046696C616D658C
:101F70006E742072756E6F75742073656E736F72F8
:101F800000204A00202047323920572049002020D5
:101F90004D3134392043203B20556E6974732069DC
:101FA0006E2043656C736975730A0054656D7065C6
:101FB00072617475726520556E69747300202047D4
:101FC0003231203B004C696E65617220556E697438
:101FD000730024F4D43050C38D20C3A24117828BE8
:101FE0007011127A900D826CDA0AA861E108C75864
:101FF0006607615142061F4B5E05C145A6041B41A1
:102000001204093D9703723931034136DB0266330E
:102010009202D4305302812E1D02642CEE01762AE6
:10202000C501B128A101102781018F2564012B244E
:102030004A01E1223401AD2120018D200C01811FD4
:10204000FC00851EED00981DDF00B91CD200E71BC7
:10205000C700201BBB00651AB200B319A9000A19FA
:10206000A0006A189800D217920040178A00B6168E
:10207000840032167E00B41579003B157400C71435
:102080006F0058146A00EE1366008813620026136E
:102090005E00C8125B006D12570016125500C11188
:1020A000510070114E0022114C00D61049008D10C5
:1020B00046004710450002104200C00F4000800F4C
:1020C0003E00420F3C00060F3A00CC0E3900930E42
:1020D00037005C0E3500270E3400F30D3200C10DC1
:1020E0003100900D2F00610D2F00320D2D00050DD8
:1020F0002C00D90C2A00AF0C2A00850C28005D0C9E
:102100002800350C27000E0C2500E90B2500C40B18
:102110002400A00B23007D0B22005B0B21003A0B57
:102120002100190B2000F90A1F00DA0A1F00BB0A60
:102130001E009D0A1D00800A1C00640A1C00480A3B
:102140001C002C0A1B00110A1A00F7091A00DD09ED
:102150001900C4091900AB091800930918007B097C
:102160001700640917004D091700360916002009E9
:1021700015000B091500F6081500E1081500CC083C
:102180001400B8081400A4081300910813007E0876
:1021900013006B0812005908120047081200350896
:1021A0001200230811001208110001081000F107A5
:1021B0001100E0071000D0071000C0070F00B107A2
:1021C0001000A1070F0092070F0083070F0074078C
:1021D0000E0066070E0058070E004A070E003C0767
:1021E0000E002E070D0021070D0014070D00070734
:1021F0000D00FA060D00ED060C00E1060D00D406F8
:102200000C00C8060C00BC060C00B0060B00A506AE
:102210000C0099060B008E060B0083060B00780657
:102220000B006D060B0062060B0057060A004D06F8
:102230000A0043060B0038060A002E060A00240690
:1022400009001B060A0011060A0007060900FE0520
:102250000A00F4050900EB050900E2050900D905AB
:102260000900D0050900C7050800BF050900B6052B
:102270000900AD050800A50508009D0508009505A5
:1022800009008C050800840508007C050700750519
:1022900008006D050800650507005E050800560585
:1022A00007004F05080047050700400507003905EE
:1022B0000700320507002B050700240507001D0550
:1022C0000700160507000F050600090507000205AF
:1022D0000600FC040700F5040600EF040700E8040C
:1022E0000600E2040600DC040600D6040600D00462
:1022F0000700C9040500C4040600BE040600B804B3
:102300000600B2040600AC040600A6040500A10401
:1023100006009B04050096040600900405008B044B
:10232000060085040500800405007B040500760492
:102330000600700405006B040500660405006104D6
:1023400005005C04050057040500520405004D0417
:10235000050048040400440405003F0405003A0455
:10236000040036040500310405002C040400280490
:102370000500230404001F0405001A0404001604C9
:102380000400120405000D040400090404000504FF
:10239000040001040500FC030400F8030400F40336
:1023A0000400F0030400EC030400E8030400E40369
:1023B0000400E0030400DC030400D8030400D40399
:1023C0000300D1030400CD030400C9030400C503C6
:1023D00004000000000000000000000000000000F9
:1023E00000000000000000000000D1036D640357EE
:1023F0000D0347C6023B8B023259022B2E022509E0
:102400000221E8011CCC011AB201179B01148701BB
:102410001374011163010F54010E46010D39010DB2
:102420002C010B21010A17010A0D0109040108FC06
:102430000008F40007ED0007E60007DF0006D900FA
:1024400006D30005CE0006C80005C30004BF000582
:10245000BA0004B60004B20004AE0004AA0004A648
:102460000003A300049F00039C000399000396004F
:10247000039300029100038E00028C000389000286
:102480008700038400028200028000027E00027C3A
:1024900000027A00027800027600017500027300E3
:1024A000027100017000026E00016D00026B0001FC
:1024B0006A000268000167000265000164000163B0
:1024C00000016200026000015F00015E00015D002A
:1024D000015C00015B00015A000159000158000134
:1024E00057000156000155000154000153000152EC
:1024F00000015100005100015000014F00014E0049
:10250000014D00004D00014C00014B00014A00004C
:102510004A00014900014800004800014700014607
:102520000000460001450000450001440001430051
:10253000004300014200004200014100004100014F
:102540004000004000013F00003F00013E00003E0F
:1025500000013D00003D00013C00003C00013B004B
:10256000003B00013A00003A000139000039000048
:10257000390001380000380001370000370000370B
:10258000000136000036000036000135000035003D
:102590000134000034000034000133000033000037
:1025A00033000132000032000032000131000031FE
:1025B0000000310000310001300000300000300028
:1025C000012F00002F00002F00002F00012E00001F
:1025D0002E00002E00012D00002D00002D00002DEA
:1025E00000012C00002C00002C00002C00012B000E
:1025F000002B00002B00002B00012A00002A000005
:102600002A00002A00002A000129000029000029D0
:1026100000002900012800002800002800002800F0
:1026200000280001270000270000270000270000E5
:1026300027000126000026000026000026000026B4
:1026400000002600012500002500002500002500CF
:1026500000250000250001240000240000240000C3
:102660002400002400002400012300002300002394
:1026700000002300002300002300012200002200AC
:10268000002200002200002200002200002200019F
:102690002100002100002100002100002100002174
:1026A0000000210001200000200000200000200088
:1026B000002000002000002000002000011F00007A
:1026C0001F00001F00001F00001F00001F00001F50
:1026D000000020436F756E7420583A004265640014
:1026E000453100626564002C2073797374656D2038
:1026F00073746F7070656421204865617465725FE2
:1027000049443A20004572723A204D415854454D93
:1027100050004D415854454D5020747269676765AB
:102720007265640048656174696E67204661696C12
:1027300065640048656174696E67206661696C65EF
:1027400064004572723A204D494E54454D50004D3B
:10275000494E54454D5020747269676765726564CF
:1027600000544845524D414C2052554E4157415915
:1027700000546865726D616C2052756E6177617985
:1027800000202F002042403A0020403A0020573AD3
:10279000000009121B242D363F48415A536C657EB8
:1027A0007719100B023D342F265158434A757C6728
:1027B0006E323B2029161F040D7A7368615E574CF8
:1027C000452B2239300F061D14636A7178474E5528
:1027D0005C646D767F4049525B2C253E3708011AB8
:1027E000137D746F6659504B42353C272E111803E8
:1027F0000A565F444D727B60691E170C053A3328F8
:10280000214F465D546B627970070E151C232A31E7
:10281000384148535A656C777E09001B122D243FBE
:102820003658514A437C756E671019020B343D26A9
:102830002F737A6168575E454C3B3229201F160D75
:10284000046A6378714E475C55222B3039060F14A9
:102850001D252C373E0108131A6D647F7649405BB5
:10286000523C352E2718110A03747D666F50594269
:102870004B171E050C333A21285F564D447B726975
:10288000600E071C152A233831464F545D626B7069
:102890007900002110422063308440A550C660E7D3
:1028A00070088129914AA16BB18CC1ADD1CEE1EF05
:1028B000F13112100273325222B5529442F772D69D
:1028C00062399318837BB35AA3BDD39CC3FFF3DE55
:1028D000E36224433420040114E664C774A44485ED
:1028E000546AA54BB528850995EEE5CFF5ACC58DA5
:1028F000D55336722611163006D776F6669556B43D
:10290000465BB77AA719973887DFF7FEE79DD7BCF4
:10291000C7C448E5588668A778400861180228238C
:1029200038CCC9EDD98EE9AFF9488969990AA92B44
:10293000B9F55AD44AB77A966A711A500A333A12DC
:102940002AFDDBDCCBBFFB9EEB799B588B3BBB1A94
:10295000ABA66C877CE44CC55C222C033C600C412C
:102960001CAEED8FFDECCDCDDD2AAD0BBD688D49E4
:102970009D977EB66ED55EF44E133E322E511E707C
:102980000E9FFFBEEFDDDFFCCF1BBF3AAF599F7834
:102990008F8891A981CAB1EBA10CD12DC14EF16FE5
:1029A000E18010A100C230E320045025404670674A
:1029B00060B9839893FBA3DAB33DC31CD37FE35E76
:1029C000F3B1029012F322D232354214527762569A
:1029D00072EAB5CBA5A89589856EF54FE52CD50D86
:1029E000C5E234C324A014810466744764245405EA
:1029F00044DBA7FAB79987B8975FE77EF71DC73C16
:102A0000D7D326F2369106B0165766767615463439
:102A1000564CD96DC90EF92FE9C899E9898AB9AB25
:102A2000A94458654806782768C018E1088238A389
:102A3000287DCB5CDB3FEB1EFBF98BD89BBBAB9AB5
:102A4000BB754A545A376A167AF10AD01AB32A92D9
:102A50003A2EFD0FED6CDD4DCDAABD8BADE89DC9C5
:102A60008D267C076C645C454CA23C832CE01CC129
:102A70000C1FEF3EFF5DCF7CDF9BAFBABFD98FF855
:102A80009F176E367E554E745E932EB23ED10EF079
:102A90001E7C3C3E5E2B3D3F2F5B5D3B2C2A225C27
:102AA000005761726E696E673A0053442043617249
:102AB0006420496E6974204661696C005344206348
:102AC000617264206F6B0A006F70656E526F6F7475
:102AD000206661696C65640A00766F6C756D652EA1
:102AE000696E6974206661696C65640A004E6F20C6
:102AF000534420636172640A000A4D3234004D323F
:102B000033202573002E0A006F70656E20666169A0
:102B10006C65642C2046696C653A200046696C65DA
:102B20002073656C65637465640A002053697A6577
:102B30003A200046696C65206F70656E65643A20C6
:102B400000454E4420535542524F5554494E450A74
:102B5000002220706F73002220706172656E743ADB
:102B60002200535542524F5554494E452043414C43
:102B70004C207461726765743A2200537562636118
:102B80006C6C204F766572666C6F77004578636574
:102B900065646564206D617820535542524F5554E9
:102BA000494E452064657074683A002E0A004465F9
:102BB0006C6574696F6E206661696C65642C204673
:102BC000696C653A200046696C652064656C6574C3
:102BD00065643A0057726974696E6720746F206685
:102BE000696C653A2000667265736800646F696E8F
:102BF00067002066696C653A20004E6F7720002FD1
:102C00006175746F25632E67002001400130013B20
:102C100001400136016001310170012C0190012752
:102C200001B0012201C0011D01F0011801100213C1
:102C30000130020E016002090190020401C002FF8E
:102C4000000003FA004003F5008003F000D003EB1E
:102C5000002004E6007004E100E004DC004005D739
:102C600000C005D2004006CD00D006C8008007C3D2
:102C7000003008BE00F008B900C009B400B00AAFC7
:102C800000B00BAA00D00CA500000EA000500F9BB6
:102C900000C01096005012910000148C00C01587DF
:102CA00000B0178200B0197D00D01B7800001E73A1
:102CB0000040206E0090226900F024640040275FED
:102CC0000090295A00E02B5500102E500020304B68
:102CD0000010324600E033410090353C0010373799
:102CE0000070383200A0392D00B03A2800A03B23F4
:102CF00000603C1E00103D1900903D1400103E0F76
:102D000000703E0A00C03E0500003F0000403FFB4F
:102D1000FF803FF6FFC03FF1FF2020506C616E6ED8
:102D2000657242756666657242797465733A200011
:102D30002046726565204D656D6F72793A200020DE
:102D4000436F6D70696C65643A205365702031354E
:102D500020323032360A00204C6173742055706482
:102D6000617465643A20323032362D30392D303876
:102D7000207C20417574686F723A2053796C32312F
:102D8000202B20436C617564650A004D61726C698B
:102D90006E20322E312E78202876322E302E342995
:102DA0000A0020536F6674776172652052657365FF
:102DB000740A00205761746368646F6720526573FA
:102DC00065740A002042726F776E206F757420520E
:102DD000657365740A002045787465726E616C20B5
:102DE00052657365740A00506F77657255700A00FA
:102DF00073746172740A004732385859004D31308B
:102E00003031006572726F722077726974696E6713
:102E100020746F2066696C650A00446F6E652073CC
:102E20006176696E672066696C652E0A004D3239DD
:102E300000456E6473746F70730025532025632002
:102E4000256320256320256300205A3A0020593A43
:102E50000020583A00656E6473746F70732068695F
:102E6000743A200000000A0B02090C0D0E0807033B
:102E7000040100000000000000000000000000004D
:102E80000000000000000000000000000000000042
:102E900012111000000000000000000000000000FF
:102EA0000000000000000000000000486F6D696E27
:102EB00067204661696C656400FFFFFF205A3A2075
:102EC0000020793A200042656420583A2000507270
:102ED0006F62696E67204661696C65640A005072B2
:102EE0006F62696E67204661696C65640043616E5C
:102EF0006E6F74206F70656E2073756264697220E6
:102F000000524553554D45204F5054494F4E533A6A
:102F10000048656174696E672E2E2E000000436CB8
:102F200069636B20746F20686561740000005265EE
:102F300073756D696E672E2E2E00000050757267D6
:102F4000696E672E2E2E0000004C6F6164696E67FB
:102F50002E2E2E000000496E7365727420616E641F
:102F600020436C69636B000000436C69636B2074E1
:102F70006F20636F6E74696E7565000000456A6549
:102F80006374696E672E2E2E000000506C656173AD
:102F90006520776169742E2E2E0000005061726BDF
:102FA000696E672E2E2E000000220A00556E6B6E91
:102FB0006F776E20636F6D6D616E643A2022006FD3
:102FC0006B0057616E68616F204439204D4B332090
:102FD0003330302052656164792E005072696E740E
:102FE000696E672E2E2E005072696E7420506175C6
:102FF00073656400204500205A0020590020204DB0
:1030000039322058005374657073207065722075D2
:103010006E69740000002200250028002B002E009D
:103020003100340002010000050108010B0100001D
:103030002100240027002A002D0030003300010168
:103040000000040107010A01050505050705080838
:103050000808020202020A0A080804040404010122
:103060000101010101010303030303030303040737
:1030700007070C0C0C0C0C0C0C0C020202020606CE
:103080000606060606060B0B0B0B0B0B0B0B0102C1
:10309000102020080810204010204080020102016A
:1030A0000804020101020408102040808040201022
:1030B000080402018004020180402010080402017B
:1030C00008040201010204081020408001020408E3
:1030D000102040804572726F722077726974696E39
:1030E0006720746F20454550524F4D210A002074CF
:1030F0006F6F206C6F6E6720657874727573696F7F
:103100006E2070726576656E7465640A0020636F68
:103110006C6420657874727573696F6E2070726567
:1031200076656E7465640A0020453A00205A3A00BC
:1031300020593A00583A000007E3E9E211241FBE83
:10314000CFEFD1E2DEBFCDBF00E00CBF84B78093EC
:103150007D1714BE0FB6F894A89580916000886121
:1031600080936000109260000FBE14E0A0E0B2E017
:10317000E6E0F5EF01E00BBF02C007900D92A83D1D
:10318000B107D9F727E1A8EDB4E001C01D92AD3732
:10319000B207E1F718E1CDE9D8E100E006C02197D8
:1031A0000109802FFE010E9408F7CC39D10780E089
:1031B0000807A9F70E947CE40C9472FA0C940000B2
:1031C000809113078F5F809313078A3018F080EF88
:1031D000809351090895CF93FC01808191818115DD
:1031E000904429F5FB01C1816C2F70E090E080E0F4
:1031F0000E9458F020E030E048EC52E40E9438F998
:1032000018160CF4C4E62C2F30E0AFEFB0E00E94AB
:10321000C6F624E630E040E050E00E94A0F62F3FE2
:10322000310519F010F02FEF30E020936614CF91A4
:1032300008951092170781E0809319070895FB0104
:1032400081818F3F19F0882381F008952CE330E0CD
:1032500030930D0220930C028093160785E0809333
:10326000080281E080931907089588EC90E090931C
:103270000D0280930C0210921607F0CFFB018181A2
:103280008093EF0681E0809319070895FB01808108
:103290009181982789279827893C910510F088EC1F
:1032A00090E090930B0280930A0281E080931907CB
:1032B0000895FB01818191E0980F923028F480936A
:1032C000100281E0809319070895FB0181818093AA
:1032D000090281E0809319070895CF92DF92EF925F
:1032E000FF92CF93DF93FB01C081D181DC27CD27F3
:1032F000DC27BE010D2E000C880B990B0E945AF0A2
:103300006B017C0120E030E040E251E40E9454F087
:1033100087FD0DC020E030E04AEF53E4C701B6015D
:103320000E9438F918162CF4C4EFD1E002C0CAE0AC
:10333000D0E0D0931202C093110281E0809319076C
:10334000DF91CF91FF90EF90DF90CF900895CF93D2
:10335000DF93C091D107D091D20781E0CE31D10562
:10336000E4F020E030E040E05FE36091CD07709151
:10337000CE078091CF079091D0070E9411F70E944D
:1033800055F86C1B7D0B77FF03C071956195710932
:1033900081E0633071050CF080E0DF91CF910895FA
:1033A00087FD26C0811111C08091A90A2091AA0A27
:1033B0008217F1F0E22FF0E0E755F54F828190E0BF
:1033C0002F5F2F772093AA0A0895813089F4809186
:1033D000270A2091280A821759F0E22FF0E0E95DD0
:1033E000F54F828190E02F5F2F772093280A089570
:1033F0008FEF9FEF0895CF93DF93DB01F9019C914D
:103400009130C1F0943080F094509C938830D1F486
:1034100080819181009771F0019791838083480F9B
:10342000591FEA01188206C08C3539F49C5F9C93C1
:10343000943041F4DF91CF9108958B3339F781E0D7
:103440008C93F8CF20813181B9016F5F7F4F7183F9
:103450006083420F531FEA018883808191818F35F9
:1034600091056CF7E7CF0F931F9381E000916E0DEC
:1034700010916F0D2091700D3091710D40916A0D7A
:1034800050916B0D60916C0D70916D0D04171507C7
:103490002607370708F480E01F910F91089590E008
:1034A00080E008952091A914833021F425FD0CC0FB
:1034B00024FD0CC030E0A90102C0559547958A95BE
:1034C000E2F7CA018170089581E0089580E00895CF
:1034D0000F931F93CF93DF93EC0106E519E0F801FA
:1034E0002081318142815381688179818A819B81E8
:1034F0000E9411F7688379838A839B83F801248172
:103500003581468157816C817D818E819F810E94AA
:1035100011F76C837D838E839F83F801208531852D
:1035200042855385688579858A859B850E9411F738
:10353000688779878A879B87DF91CF911F910F9149
:1035400008958091310684FD0BC08091330687FD7C
:1035500007C090913406937081E019F480E00895DB
:1035600081E008952FEB280F2A3108F047C0E22FA1
:10357000F0E08091310690913206A0913306B0912F
:10358000340604C0B695A795979587952A95D2F7E6
:1035900080FD02C081700895ED5BFA4FE081EE235B
:1035A00041F180916C0990916D09E80FF92FF11D9F
:1035B000808190ED980F9A3030F08E3251F48181F5
:1035C00080538A3098F4F0933A05E093390581E00E
:1035D00008958D3211F08B3249F4818190ED980F6E
:1035E0009A3088F38E3211F48281EACFF0E0E0E085
:1035F000EACF10923A0510923905E9CF80E008959C
:10360000B1DF882341F081E02091390530913A05FE
:10361000232B09F480E008950F931F93CF93DF933A
:10362000C82FD0E0FE01EE0FFF1FE95EFD4F718352
:103630006083CC0FDD1FCC0FDD1F8E010B5A1D4F99
:10364000072E000C880B990B0E945AF02AE037EDE8
:1036500043E25CE30E94B9F0C15DD84F2881398113
:103660004A815B810E94B9F0F80160837183828393
:103670009383DF91CF911F910F910895FC01808179
:1036800091818B30904259F4FB01608171817627E2
:103690006727762780E0C0DF81E0809319070895CF
:1036A0008091330781110EC020911D0230911E02BE
:1036B0002150310981E04091930D5091940D4217B2
:1036C00053070CF080E008958F929F92AF92BF92C3
:1036D000CF92DF92EF92FF92FC01828158E5C52ED6
:1036E00052E0D52EC81AD10887FDD394CC0CDD1C2E
:1036F000CC0CDD1C0D2C000CEE08FF08818178E855
:10370000872E912C881A910887FD9394880C991C18
:10371000880C991C092C000CAA08BB0880818F3FDB
:10372000D1F190E0FC01EE0FFF1FE80FF91FEB5401
:10373000F24F8181928133E0880F991F3A95E1F72A
:10374000B0E0A0E044E0B595A795979587954A9598
:10375000D1F702969C012F5F3F4F032E000C440BC4
:10376000550B281939094A095B09A4EBB0E00E94FE
:10377000BCF6A7019601281939094A095B090E947C
:10378000A0F6C901FF90EF90DF90CF90BF90AF906F
:103790009F908F90089590E080E0DCCF91E090932F
:1037A00036069091D10095FD0CC09091D00095FF08
:1037B00008C08093D6008091D00080648093D000B0
:1037C00008952091B9062F5F2F720FB607FC27C00E
:1037D0009091BA06921328C09091D00095FF1EC018
:1037E0009091BA064091B906941306C09091D10009
:1037F0009F7D9093D10012C0E92FF0E0E754F94F7C
:1038000032819F5F9F723093D6009093BA063091B9
:10381000D00030643093D000491741F3D9CF909154
:10382000BA06921301C0FBCFE091B906F0E0E7546D
:10383000F94F82832093B9068091D10080628093F2
:10384000D10008950F931F93CF93DF93EC01162FB0
:10385000042F8AE5A3DF85EAA1DF83E0800F9EDFE6
:10386000812F9CDF8D2F9ADF8C2FDF91CF911F91BD
:103870000F9194CF40E355E760E070E088EA99E16A
:103880000C94D99940E355E760E070E088EA99E14B
:103890000C94D999FC014281442339F084819581AB
:1038A000009719F050E00C94F4F90895CF93FB01C0
:1038B000C181C13031F40E948498811104C0C09349
:1038C0001907CF9108950E947397F9CFCF93DF9393
:1038D000EB010E94B89981110AC040E355E760E00E
:1038E00070E088EA99E1DF91CF910C94D9998881B1
:1038F0009981982789279827209116072F3F29F02B
:103900002223A9F0DF91CF9108958036910514F01C
:103910008FE590E08530910514F485E090E0909378
:103920000D0280930C0281E080931907EBCF833264
:1039300021E092077CF382E291E0ECCFE2EFF6E047
:1039400081E2DF011D928A95E9F781E080931907F2
:103950000895CF93FB018091EF06813029F050F15B
:10396000823019F1CF91089560E070E080E89FE324
:103970002181223069F118F5222319F09058213065
:1039800089F7C0E024E0C29FF0011124E95EF54F01
:1039900020813181428153810E9411F74C2F0E9476
:1039A000EECC81E080931907DDCF6DEC7CEC8CECE4
:1039B0009DE3DECF60E070E080E291E4D9CF243077
:1039C00021F028F09058253069F6C2E0DBCF9058FE
:1039D000C1E0D8CFCF93DF93EC01FB01608171810F
:1039E000762767277627072E000C880B990B0E94F5
:1039F0005AF020E030E040E251E40E94EDF72881E7
:103A000039812132F0E23F0749F0223240E23407A7
:103A100071F02032304241F440E001C041E00E94A8
:103A2000EECC81E080931907DF91CF91089542E0B9
:103A3000F6CF8F929F92AF92BF92CF92DF92EF928A
:103A4000FF92CF93DF93809154098770873091F074
:103A500040E355E760E070E08EED98E1DF91CF91B3
:103A6000FF90EF90DF90CF90BF90AF909F908F909E
:103A70000C94D999EB010E94B899811107C040E3D9
:103A800055E760E070E088EA99E1E8CF898183300A
:103A900009F454C0B8F4813009F466C0C12CD12CAB
:103AA00060EFE62E61E4F62E823009F45AC0DF9111
:103AB000CF91FF90EF90DF90CF90BF90AF909F900D
:103AC0008F900895843009F446C0C12CD12C97E81A
:103AD000E92E93E4F92E812C912C20EFA22E21E4E3
:103AE000B22E853021F720E030E040E850E46091CC
:103AF0001F0A7091200A8091210A9091220A0E9447
:103B000011F742E00E94EECC40E0C501B4010E94F2
:103B1000EECC41E0C701B6010E94EECC42E060E08D
:103B200070E0CB01DF91CF91FF90EF90DF90CF90CD
:103B3000BF90AF909F908F900C94EECCC12CD12C65
:103B400040EFE42E41E4F42E812C912C57E8A52E71
:103B500053E4B52EC8CFC12CD12C37E8E32E33E483
:103B6000F32E46015701BFCFC12CD12C86E1E82EA0
:103B700083E4F82EF6CFCF93DF93EB010E94B89940
:103B800081110AC040E355E760E070E088EA99E1FE
:103B9000DF91CF910C94D999809110028F5F823080
:103BA000E0F420E030E04AE253E460918F0D709140
:103BB000900D8091910D9091920D0E9454F087FF8D
:103BC00007C040E355E760E070E08EEE98E1E0CF9B
:103BD0008981882329F0813039F1DF91CF910895CF
:103BE00060910A0270910B0290E080E00E9458F010
:103BF0009B01AC016091230A7091240A8091250AEF
:103C00009091260A0E9410F76093230A7093240A69
:103C10008093250A9093260A60E070E080E090E4AB
:103C2000DF91CF910C94DB8F60910A0270910B02AF
:103C300090E080E00E9458F02091230A3091240AFD
:103C40004091250A5091260A0E9411F7DDCFCF93AB
:103C5000DF93EB010E94B899811103C0DF91CF91EE
:103C600011CE898190910902923029F09330C1F0F0
:103C7000DF91CF910895882371F06DEC7CEC8CEC92
:103C80009DEB0E9490CD0E9491CF0E94CA9981E045
:103C900080931907EDCF6DEC7CEC8CEC9DE3F1CFBC
:103CA000882329F06AE077ED83E29CEBEACF6AE0B3
:103CB00077ED83E29CE3E5CFCF93DF93EB010E94A6
:103CC000B899811103C0DF91CF91D4CD68817981FA
:103CD000762767277627072E000C880B990B0E9402
:103CE0005AF020E030E048EC52E40E94EDF72091D9
:103CF000090E30910A0E40910B0E50910C0E0E944D
:103D000010F70E9490CD0E9491CF0E94CA9981E045
:103D100080931907DF91CF910895FB01818188235A
:103D200019F0813079F008956AE077ED83E29CE341
:103D30000E9490CD0E9491CF0E94CA9981E0809309
:103D4000190708956AE077ED83E29CEBF1CFFB0160
:103D500060817181762767277627072E000C880BF4
:103D6000990B0E945AF020E030E048EC52E40E94A7
:103D7000EDF72091090E30910A0E40910B0E5091F3
:103D80000C0E0E9410F70E9490CD0E9491CF0E94CD
:103D9000CA9981E0809319070895FB0181818130E0
:103DA00031F0823039F081E08093190708950E9444
:103DB000B481F9CF0E948C81F6CFCF93FB01C181F2
:103DC000C13051F40E946A98811108C00E94849801
:103DD000811104C0C0931907CF910895CF910C941D
:103DE0007397CF93FB01C181C13031F40E946A986F
:103DF000811104C0C0931907CF9108954FEA58E18B
:103E000066EB78E184E00E9412C987EE9FE20E948F
:103E100088C58BEA98E190930F0980930E09ECCF47
:103E200080910E0290910F0297FF08C040E355E782
:103E300060E070E08AE998E10C94D9990E941EDA5A
:103E4000882381F08091720D85FD0CC00E94B89985
:103E5000811101C00FCD8EE699E00E94E9D083E088
:103E6000809351090895CF93DF93FB0181818130C5
:103E7000D1F040F0823019F181E080931907DF9191
:103E8000CF9108958091720D86FDF9CF109215079C
:103E9000109214078FEF9FEF90930F0280930E0202
:103EA0000E945DD0E9CF809114079091150700978B
:103EB00031F301979093150780931407DDCFC091DC
:103EC0001407D091150726960E94D0D98C179D070C
:103ED000B0F280911407909115070196EBCF1F93D4
:103EE000CF93DF93EC01FB011181888199818130AF
:103EF000904289F48091720D84FD0BC040E355E738
:103F000060E070E080E798E1DF91CF911F910C9421
:103F1000D9990E9446D0888199818230904279F463
:103F20000E946A98882339F040E355E760E070E02A
:103F300087E598E1E9CF0E9484988111F5CF8881C7
:103F400099818330904231F010935109DF91CF91E4
:103F50001F9108950E946A988111F6CF0E9484985B
:103F60008111F2CF40E355E760E070E080E498E132
:103F7000CBCFFC0101900020E9F79F0121503109CE
:103F8000281B390B2F33310540F4FC01E20FF31FDE
:103F900060832E33310509F011820895CF93DF93AA
:103FA000EC0140E450E00E944EEFCE01DF91CF9152
:103FB0000895AB01BC0140936E0D50936F0D60935B
:103FC000700D7093710D89EC96E10C94E1D4EF9231
:103FD000FF920F931F93CF93DF93CDB7DEB7649714
:103FE0000FB6F894DEBF0FBECDBF7C01FB01608130
:103FF0007181828193818E010F5F1F4F248141E087
:104000000E9480EBF70101900020E9F79F01215009
:1040100031092E193F092E31310550F44FE150E09E
:10402000421B530BBC01C701820F931F0E949DEFDF
:10403000C70164960FB6F894DEBF0FBECDBFDF9107
:10404000CF911F910F91FF90EF900895CF93DF9341
:10405000EC01FC0101900020E9F7CF0101978C1BD6
:104060009D0B8F33910540F440E450E0481B590B01
:104070008C0F9D1F0E949DEFCE01DF91CF9108957F
:10408000EF92FF920F931F93CF93DF93CDB7DEB7DD
:1040900064970FB6F894DEBF0FBECDBF7C01FB0165
:1040A00060817181828193818E010F5F1F4F248116
:1040B00041E00E9480EBBC01C701C8DF64960FB6E7
:1040C000F894DEBF0FBECDBFDF91CF911F910F914E
:1040D000FF90EF9008950C9420C480913905909141
:1040E0003A05009731F04AE050E070E060E00C944F
:1040F00020EE60E070E0CB01089580913905909149
:104100003A05009731F04AE050E070E060E00C942E
:10411000F3EC60E070E0CB010895EFDF97FD0AC09B
:10412000ECDF6F3F71058105910509F02CF4E5DFA7
:10413000862F089580E008958FEF0895CF93C62FBE
:104140005FDA882311F0CF91E8CF8C2FCF910895BB
:104150008091390590913A05892B39F0DEDF91E0A5
:10416000811101C090E0892F089591E0FCCFCF9399
:10417000DF93C82FD62F44DA882319F0DF91CF912F
:10418000E7CF8C2FEFD9811101C08D2FDF91CF9117
:104190000895B3DFCB010895CF93DF93EB0130DABD
:1041A000882319F0DF91CF91F4CFCE01DF91CF9129
:1041B00008950F931F93CF938091390590913A05FD
:1041C000009709F1FC018F01C1912C2F2F7DA1F0E7
:1041D000C53431F0C53621F0C83511F0C83799F72C
:1041E000F801108270E060E00E949DEBF801C0834E
:1041F000CF911F910F91089570E060E0CF911F91D2
:104200000F910C949DEB60E070E0CB01F1CFCF9269
:10421000DF92EF92FF926A017B01F2D9882329F0A5
:10422000FF90EF90DF90CF90C4CFC701B601FF9011
:10423000EF90DF90CF900895EF92FF920F931F932E
:10424000CF93DF93CDB7DEB72C970FB6F894DEBFD0
:104250000FBECDBF7C017F936F9381EC94E09F9361
:104260008F938E010F5F1F4F1F930F930E9442FA8F
:10427000B801C701EBDE0F900F900F900F900F90D9
:104280000F902C960FB6F894DEBF0FBECDBFDF9116
:10429000CF911F910F91FF90EF900895EF92FF92B1
:1042A0000F931F93CF93DF93CDB7DEB7A4970FB6CD
:1042B000F894DEBF0FBECDBFF82E8093C6098FE104
:1042C0008F1508F489C08091C509F81624F081E0A3
:1042D0008F0D8093C50981E090E00F2C02C0880FFC
:1042E000991F0A94E2F7092E000CAA0BBB0B409110
:1042F000C7095091C8096091C9097091CA098423FE
:104300009523A623B72321E0892B8A2B8B2B09F435
:1043100020E02093C409F7FC62C04FE150E06BE459
:1043200075E08E010F5F1F4FC8010E944EEFF8012C
:1043300001900020E9F7CF010197801B910B8E318E
:10434000910560F420E2F801E80FF91F20838D3118
:10435000910521F08C0F9D1FFC0112828F2D0F2CD7
:10436000000C990B9F93FF9281EC94E09F938F93A5
:104370007E01F0E2EF0EF11CFF92EF920E9442FAF2
:10438000F80101900020E9F7CF010197801B910B04
:104390000F900F900F900F900F900F908E3191050E
:1043A00048F44FE150E0481B590BB701800F911FB3
:1043B0000E949DEF40E060E0C8010E949B97A49698
:1043C0000FB6F894DEBF0FBECDBFDF91CF911F9126
:1043D0000F91FF90EF9008951092C4099CCF0E9416
:1043E0008CC8EDCFCF92DF92EF92FF92CF936B010B
:1043F0007C01C42F8091AA148F5F09F4CEC08093F2
:10440000AA148091AA148093641520E030E040E75C
:1044100052E4609113027091140280911502909100
:1044200016020E94B9F00E945AF87093BC1460936F
:10443000BB1480911102909112029093BE1480934C
:10444000BD1480911702909118029093C01480932C
:10445000BF14C092C114D092C214E092C314F0925F
:10446000C41480916315C0FB80F98093631587E0C5
:10447000E4ECF9E0A5ECB4E101900D928A95E1F746
:104480008CE0E1E0F9E0ACECB4E101900D928A95AA
:10449000E1F78CE0E6E5F9E0A8EDB4E101900D92DA
:1044A0008A95E1F7809151079091631580FB94F90B
:1044B00090936315882381F080914D0790914E076A
:1044C000A0914F07B09150078093E4149093E514A6
:1044D000A093E614B093E7148091930D9091940DFE
:1044E0009093E9148093E8148091D1079091D207BA
:1044F0009093EB148093EA14809166148093EC14EB
:10450000809163159091840990FB83F980936315E2
:104510008091850990918609A0918709B0918809B9
:104520008093ED149093EE14A093EF14B093F014D5
:104530000E947F9560935E1570935F158093601560
:10454000909361158091A914809362159091CB0985
:104550008091631593FB81F99091330790FB82F969
:104560008093631580E00E94D8DD40E050E0BA01FE
:104570008AE695E10E94E1D44BEB50E06AEA74E1EF
:104580008AE695E10E9403D68AE695E1CF91FF90F5
:10459000EF90DF90CF900C941D7D81E030CFAF92F3
:1045A000BF92CF92DF92EF92FF920F931F93CF9320
:1045B0005C016B018A018F519B4F7C01DC01CC9126
:1045C000C7FF3DC0FB0111821082CF5FD701CC93A2
:1045D000CC300CF053C08CE08A9DF0018B9DF00D27
:1045E0001124CF018C0F911DC7FD9A952091FD0DCF
:1045F0002817190609F00CF441C0F6012081318119
:10460000FC01EE0FFF1FE80FF91FEB54F24F818101
:104610009281820F931FD80111969C938E93808173
:1046200087FF3DC061E08F77CF911F910F91FF9081
:10463000EF90DF90CF90BF90AF900C94ECCD8CE0DA
:104640008A9DF0018B9DF00D1124CF018C0F911DDF
:10465000C7FD9A952091FD0D2817190609F00CF455
:10466000B4CFFC01EE0FFF1FE80FF91FEB54F24F20
:10467000808160E08F770E94ECCDA7CFF60180812A
:10468000918104968034FCE99F0710F480E49CE952
:10469000D80111969C938E938FEFF7018083CF9171
:1046A0001F910F91FF90EF90DF90CF90BF90AF9050
:1046B0000895AF92BF92CF92DF92EF920F931F9324
:1046C000CF935B01C42F122F62E8BCD8C5010E94B2
:1046D00062EF6C018C2F90E0C816D90620F5C1144A
:1046E000D10431F1CC19112379F0011110C010E07F
:1046F00000E00C151D05E1F0F501E00FF11F8491BC
:104700004DD80F5F1F4FF5CF10E0011107C08C1976
:104710009D09969587951C2F181BC82FC15030F006
:1047200080E23CD8FBCF6C01C0E0E1CFC12FDFCFEE
:1047300010E2E11001C010E0C15018F0812F2ED816
:10474000FBCFCF911F910F91EF90DF90CF90BF9053
:10475000AF900895AF92BF92CF92DF92EF920F93F6
:104760001F93CF935B01C42F122F62E86BD8F50122
:1047700001900020E9F731976F01CA18DB088C2FF0
:1047800090E0C816D90618F5C114D10429F1CC1946
:10479000112369F001110EC0CA0CDB1CCA14DB0422
:1047A000D9F0F50181915F010E94CE1BF7CF10E097
:1047B000011107C08C199D09969587951C2F181B10
:1047C000C82FC15038F080E20E94CE1BFACF6C0196
:1047D000C0E0E2CFC12FE0CF10E2E11001C010E055
:1047E000C15020F0812F0E94CE1BFACFCF911F9194
:1047F0000F91EF90DF90CF90BF90AF900895FF9210
:104800000F931F93CF93DF93F62E072F142F62E899
:1048100019D8CF2DD02F115020F089910E94CE1B96
:10482000FACFDF91CF911F910F91FF9008952EE461
:1048300034E1F901459154914115510571F0481742
:10484000590741F4CB014AE050E0B9010E9428EF3A
:1048500081E00895265F3F4F61F780E00895CF9390
:10486000DF931F921F92CDB7DEB7853608F084E63E
:10487000682F70E090E080E00E945AF020E030E085
:104880004FE753E40E94B9F020E030E048EC52E4F6
:104890000E94EDF720E030E0A9010E9411F70E948C
:1048A00044F96093E4031A821982698342E0BE01ED
:1048B0006F5F7F4F81EA90E0A2DF0F900F90DF9152
:1048C000CF910895FB018181CADF0C94CA99CF93DF
:1048D000DF931F921F92CDB7DEB7853608F084E6CE
:1048E00080931F02682F70E090E080E00E9458F0F3
:1048F00020E030E04EEB52E40E94B9F020E030E0DE
:1049000048EC52E40E94EDF720E030E040EA50E449
:104910000E9411F70E9444F969836A8342E0BE0154
:104920006F5F7F4F82E890E06ADF0F900F90DF911A
:10493000CF910895FB018181CADF0C94CA996091DF
:10494000E40370E090E080E00E9458F020E030E066
:1049500048EC52E40E94B9F020E030E04FE753E425
:104960000E94EDF720E030E0A9010E9411F70E94BB
:1049700044F9862F08958091F106882321F08091D3
:10498000F006811109C041E063E88FE090E00E94E9
:10499000221C81E00C94CE1B0895CF93DF93C0912D
:1049A000D107D091D207209729F16091CD0770915E
:1049B000CE078091CF079091D0070E9455F86E5F87
:1049C0007F4F24976C177D07ACF47093B907609301
:1049D000B8070E9412CF605679478E4F9F4F609361
:1049E000BA077093BB078093BC079093BD07DF9114
:1049F000CF9108951092BA071092BB071092BC078E
:104A00001092BD07F4CF2F923F924F925F926F9218
:104A10007F928F929F92AF92BF92CF92DF92EF924E
:104A2000FF920F931F93CF93DF93D62FC72FFC01D5
:104A300080809180A280B380C501B40120E831E577
:104A400041E050E00E947EF6C9016DE671E00E94EF
:104A5000E1F66B017C01C501B40120E13EE040E0DC
:104A600050E00E947EF6CA01B90128E130E040E042
:104A700050E00E947EF6362E272E062F172F8CE34D
:104A8000482E512C612C712CC501B401A301920157
:104A90000E947EF6B62EA72ECA01B901A30192018B
:104AA0000E947EF6CB01C114D10479F1AF92BF927E
:104AB0007F936F932F923F92FF92EF92DF92CF926C
:104AC00088E591E19F938F93CF93DF930E94EDEF61
:104AD0008DB79EB70E960FB6F8949EBF0FBE8DBFD2
:104AE0008D2F9C2FDF91CF911F910F91FF90EF9011
:104AF000DF90CF90BF90AF909F908F907F906F90FE
:104B00005F904F903F902F900895E114F104C9F009
:104B1000AF92BF927F936F932F923F92FF92EF924B
:104B200088E491E19F938F93CF93DF930E94EDEF01
:104B3000EDB7FEB73C960FB6F894FEBF0FBEEDBFC3
:104B4000CFCF012BB9F0AF92BF927F936F932F928B
:104B50003F928CE391E19F938F93CF93DF930E94D9
:104B6000EDEF8DB79EB70A960FB6F8949EBF0FBEB5
:104B70008DBFB6CF892BA9F0AF92BF927F936F9371
:104B800084E391E19F938F93CF93DF930E94EDEFA6
:104B9000EDB7FEB738960FB6F894FEBF0FBEEDBF67
:104BA0009FCFAF92BF9280E391E19F938F93CF937A
:104BB000DF930E94EDEF0F900F900F900F900F90EA
:104BC0000F908ECF8F929F92AF92BF92CF92DF9233
:104BD000EF92FF920F931F93CF93DF9310925E0596
:104BE00010925D052FE320936205109261051092EB
:104BF000600510925F0510923106109232061092F5
:104C00003306109234069C01F90190812F5F3F4FCB
:104C10009032D1F39E34C9F4818190ED980F9A308F
:104C200020F08D3211F08B3281F432969F012F5F8C
:104C30003F4F808180538A3008F44CC09F012F5F22
:104C40003F4F8081803209F447C0F0936D09E093B3
:104C50006C098F010F5F1F4FC0816AE270E0C801CD
:104C60000E9417FA009731F0FC0131978081803261
:104C7000E1F31182CD3421F0C43511F0C734E9F4E9
:104C8000D8018C910F5F1F4F8032D1F380538A304F
:104C9000A0F4C093620530E020E06AE0FD013196A7
:104CA0008C9180532A3999E13907D0F0309361050E
:104CB000209360058FE380936205DF91CF911F9170
:104CC0000F91FF90EF90DF90CF90BF90AF909F90AB
:104CD0008F900895F901AACFF901B0CFDF01DECF9F
:104CE000293999E1390711F4863000F7629FA00154
:104CF000639F500D11249A01280F311D808190ED82
:104D0000980F9A3058F330936105209360058E32E6
:104D100061F4129690E04AE0FD011196808150ED19
:104D2000580F5A30C0F090935F05DF0131968C9197
:104D30008032D9F3CD34F9F42E31310539F088F4CD
:104D40002731310519F02C313105A9F4B0935E05F6
:104D5000A0935D05B2CF949F800D112490ED980F24
:104D6000DBCF2537310538F02737310578F3203A86
:104D7000E3E03E0759F3D0916C0940E050E0BA01FE
:104D800010E000E0C12CD12C7601C394FD013196D6
:104D90008C91882309F47FC08132E1F4CD34D1F4C1
:104DA00020323105B9F440933106509332066093B6
:104DB000330670933406F0935E05E0935D0563E27D
:104DC00070E0CF010E9417FA009709F476CFFC013A
:104DD000108273CF81548A3108F058C0DF019D9151
:104DE000903291F0A0EDA90FAA30E8F09E3271F454
:104DF000918190539A30B8F00115110519F48F0183
:104E00000150110990E013C0FD01E8CF9D3211F06F
:104E10009B3291F79181A0EDA90FAA3020F09E322C
:104E200059F79281E6CF9E2F9D1B309759F3A82FFB
:104E3000B0E04601570104C0880C991CAA1CBB1C99
:104E40008A95D2F7482959296A297B29AD5BBA4F3F
:104E50009C9380818154DF018A3108F497CFDF0170
:104E60008191882309F492CF90ED980F9A30B8F38E
:104E700093ED980F923098F38B3289F3CD01019620
:104E8000EC91E03209F082CFDC01F8CF0115110579
:104E900001F78D01DECF10935E0500935D05409311
:104EA000310650933206609333067093340605CF73
:104EB000CF93DF93EC018991882319F00E9420C4DD
:104EC000FACF8DE00E9420C48AE0DF91CF910C944C
:104ED00020C40C9407C590915509992321F0682F9F
:104EE00080E00E94A39380E00895682F70E090E036
:104EF00080E00C946FC51F93CF93DF931BEBCAEA3E
:104F0000D4E1FE01812F11928A95E9F70E9432D0F7
:104F1000882359F0FE0111921A95E9F78EE894E082
:104F2000DF91CF911F910C94FDDDDF91CF911F9107
:104F300008958091AA14882361F0909164158913D3
:104F400008C08091720D84FF04C081EF94E10C943D
:104F5000EADB80E00895FC01238121110C941D7D82
:104F60000895CF93DF93C091930DD091940D209726
:104F700029F160918F0D7091900D8091910D90911C
:104F8000920D0E9455F86E5F7F4F26976C177D0734
:104F9000ACF47093DE076093DD070E9412CF60547B
:104FA0007B428E4F9F4F6093DF077093E0078093A3
:104FB000E1079093E207DF91CF9108951092DF0708
:104FC0001092E0071092E1071092E207F4CFCF931E
:104FD000DF93EC018991882319F00E9420C4FACF55
:104FE000DF91CF910895682F70E090E080E00C94FD
:104FF00007C5CF93C1E020E030E0A90160913C07F4
:1050000070913D0780913E0790913F070E9454F0B8
:10501000811101C0C0E08C2FCF910895CF93C82F8C
:10502000882319F0E6DF8823C9F0809184098C1762
:10503000A9F00E94BD8387E19AE00E94BA85809121
:10504000840991E0892780938409882321F087E1EE
:105050009AE00E949A82CF910C94BD91CF910895CD
:105060000E94B899811102C00C943A1C80E0D6DFEE
:105070000E94CA9981E08093190708954F925F9228
:105080006F927F928F929F92AF92BF92CF92DF9258
:10509000EF92FF920F931F93CF93DF93EC01209138
:1050A00034073091350740913607509137076881B2
:1050B00079818A819B810E9410F76B017C0120918C
:1050C00038073091390740913A0750913B076C817E
:1050D0007D818E819F810E9410F74B015C01A701A9
:1050E0009601609121057091220580912305909190
:1050F00024050E9454F0882309F45AC0C092210567
:10510000D0922205E0922305F09224052091190502
:1051100030911A0540911B0550911C05C701B6013D
:105120000E94B9F02B013C010E9486F86B017C01C2
:1051300020E030E0A9010E9454F087FD7AC020E011
:1051400030E040E850E4C701B6010E9438F9181673
:1051500034F4C12CD12CC0E8EC2EC0E4FC2EA70105
:105160009601C301B2010E9410F72B013C0120E01F
:1051700030E0A9010E9454F087FD5FC04092110504
:10518000509212056092130570921405C701B60182
:105190000E9455F860930F05062E000C770B6F5F89
:1051A0007F4F6430710514F064E070E060930D058A
:1051B000D0910B0510910F05A50194016091250573
:1051C0007091260580912705909128050E9454F042
:1051D00081113CC0D11394C02091F3043091F404A8
:1051E0004091F5045091F6046091110570911205FB
:1051F00080911305909114050E94B9F02091F70455
:105200003091F8044091F9045091FA040E9411F78A
:10521000DF91CF911F910F91FF90EF90DF90CF9092
:10522000BF90AF909F908F907F906F905F904F90C6
:105230000895C12CD12C760192CF109211051092B5
:1052400012051092130510921405A0CF8092250527
:1052500090922605A0922705B092280520911D0561
:1052600030911E0540911F0550912005C501B401E4
:105270000E94B9F04B015C010E9486F86B017C0131
:1052800020E030E0A9010E9454F087FDFDC020E03D
:1052900030E040E850E4C701B6010E9438F9181622
:1052A00034F4C12CD12CB0E8EB2EB0E4FB2EA701D6
:1052B0009601C501B4010E9410F74B015C0120E08A
:1052C00030E0A9010E9454F087FDE2C080921505EC
:1052D00090921605A0921705B0921805C701B60165
:1052E0000E9455F860931005062E000C770B6F5F37
:1052F0007F4F6430710514F064E070E060930E0538
:10530000C0911005D11305C080910C058C1709F4CC
:1053100070C080910F059091100590930C058093BB
:105320000B050C2E000CDD0B25E01203C00111242F
:10533000FC01EC0FFD1FEE0FFF1FEE0FFF1FEE5ADB
:10534000F84F2081318142815381209307053093AA
:1053500008054093090550930A0500910E05002E9B
:10536000000C110BFC01E00FF11FEE0FFF1FEE0F01
:10537000FF1FEE5AF84F60817181828193810E94F4
:1053800010F76093030570930405809305059093CF
:10539000060520910D0535E02303F0011124CE0F01
:1053A000DF1FCC0FDD1FCC0FDD1FCE5AD84F288159
:1053B00039814A815B812093FF043093000540933B
:1053C000010550930205E00FF11FEE0FFF1FEE0FD6
:1053D000FF1FEE5AF84F60817181828193810E9494
:1053E00010F76093FB047093FC048093FD0490938A
:1053F000FE048090150590901605A0901705B090BA
:105400001805209103053091040540910505509140
:105410000605C501B4010E94B9F02091070530913D
:1054200008054091090550910A050E9411F76B018A
:105430007C01C092F704D092F804E092F904F09253
:10544000FA042091FB043091FC044091FD0450913A
:10545000FE04C501B4010E94B9F02091FF0430910F
:10546000000540910105509102050E9411F7A70126
:1054700096010E9410F76093F3047093F4048093F4
:10548000F5049093F604A8CEC12CD12C76010FCF51
:105490001092150510921605109217051092180516
:1054A0001DCFE1E2F5E080EF9FEFA9E7B4EC848344
:1054B0009583A683B78380839183A283B383EBE034
:1054C000F5E08DE98183808308958F929F92AF925A
:1054D000BF92CF92DF92EF92FF92FC0198E0ACE393
:1054E000B7E001900D929A95E1F788E0FB01A4E303
:1054F000B7E001900D928A95E1F7C0903C07D090FB
:105500003D07E0903E07F0903F0720E030E0A90122
:10551000C701B6010E9454F08823E1F1A70196016A
:1055200060E070E080E89FE30E94EDF76B017C0192
:105530008090400790904107A0904207B0904307A9
:1055400020E030E0A901C501B4010E9454F0882395
:1055500029F1A501940160E070E080E89FE30E94DA
:10556000EDF7C0921905D0921A05E0921B05F09252
:105570001C0560931D0570931E0580931F05909375
:105580002005FF90EF90DF90CF90BF90AF909F905D
:105590008F900895C12CD12C7601CACF60E070E0C5
:1055A000CB01DFCF8F929F92AF92BF92EF92FF928B
:1055B0000F931F93CF93DF93109238071092390700
:1055C00010923A0710923B07109234071092350759
:1055D0001092360710923707109240071092410739
:1055E000109242071092430710923C0710923D0719
:1055F00010923E0710923F0702E517E0C0E0812CB1
:10560000912C80ECA82E8FE7B82E7801D0E0F7011E
:1056100081929192A192B1927F016D2F8C2F0E9465
:105620005C9FDF5FD53099F7CF5F0C5E1F4FC530B1
:1056300061F7DF91CF911F910F91FF90EF90BF9095
:10564000AF909F908F900895EFE6F0E080818260A8
:10565000808308958091660990916709892B79F478
:105660008091660990916709892B49F42091660918
:105670003091670981E0232B19F480E0089581E0DF
:105680000895CF93DF93EC01FE0184912196882346
:1056900019F00E946B20F8CFDF91CF910895CF933E
:1056A000DF93EB01EEDFCE01DF91CF9190CCCF9273
:1056B000DF92EF92FF926A017B01E3DF42E0C701D4
:1056C000B601FF90EF90DF90CF900C949BC58BE2DA
:1056D00095E0D7CF85E295E0D4CF8AE00C946B209B
:1056E000CF93DF9364E071E10E94E2C7C0910D0E99
:1056F000D0910E0E488159816A817B818BEF90E1B8
:10570000D6DF4C815D816E817F818AEF9FE2CFDFA2
:105710004091090E50910A0E60910B0E70910C0E83
:1057200087EF9FE2C4DF88EF90E1ABDF81E29FE18A
:10573000A8DFDF91CF91D1CF0F931F93CF938C012F
:10574000C62F82EC9DE09DDFC8019BDF8AE30E94AB
:1057500020C480E38C0F0E946B20CF911F910F918A
:10576000BCCFCF938EEB9FE08CDFB7DFE0915A0286
:1057700082E6E89FF0011124E354FD4FC08160E010
:105780008EEA9FE0D9DF60E089E99FE0D5DF61E044
:1057900082E99FE0D1DF61E087E89FE0CDDF60E054
:1057A00088E79FE0C9DF61E088E69FE0C5DF60E051
:1057B0008FE59FE0C1DF61E085E59FE0BDDF61E04F
:1057C0008BE49FE0B9DF61E084E49FE0B5DF61E056
:1057D0008CE39FE0B1DF61E08EE29FE0ADDF60E04F
:1057E00080E29FE0A9DF60E081E19FE0A5DF60E06B
:1057F00083E09FE0A1DF60E08DEE9EE09DDF60E052
:105800008CED9EE099DF61E087EC9EE095DF61E042
:1058100088EB9EE091DF61E081EB9EE08DDF60E050
:1058200084EA9EE089DF60E08DE99EE085DF61E04B
:1058300084E99EE081DF60E08FE79EE07DDF60E04D
:1058400081E79EE079DF60E087E69EE075DF60E05B
:1058500080E59EE071DF60E083E49EE06DDF61E063
:1058600080E39EE069DF60E083E29EE065DF61E067
:105870008EE19EE061DF61E081E19EE05DDF60E05E
:1058800085E09EE059DF60E081EF9DE055DF60E05C
:105890008EED9DE051DFC7FD1AC060E08091661576
:1058A00090916715CC2339F0C13089F461E0809183
:1058B0006815909169150E944F1A682F617085EDE7
:1058C0009DE03ADF60E087EC9DE0CF9135CF80E04E
:1058D000F4CFCF92DF92EF92FF926A017B01D1DE8B
:1058E000C701B6010E946FC5FF90EF90DF90CF9087
:1058F000F4CE0F931F93CF93883038F5082F082EDE
:10590000000C110BC091651591E001C0990F8A95AB
:10591000EAF7909365150E948CC587E6809FF00199
:10592000819FF00D1124ED59FA4F40815181628120
:1059300073814F5F5F4F6F4F7F4F87E291E1C9DF08
:1059400083E291E19EDEC0936515CF911F910F9187
:105950000895EF92FF920F931F93CF93DF937C01F3
:10596000C62F062F062E000C110B80E0683028F49D
:1059700081E001C0880F6A95EAF7D09165158093A0
:105980006515A5DE87E6809FF001819FF00D11244B
:10599000ED59FA4F4081518162817381C70199DFCE
:1059A0008C2F0E94D0190196D9F78C2FA2DF87E6A1
:1059B000809FF001819FF00D1124ED59FA4F15825F
:1059C0001482D0936515DF91CF911F910F91FF90B5
:1059D000EF9008950F931F93CF93811111C0C42F9F
:1059E0008B0178DE84E09CE04CDEC8014ADECC23EB
:1059F00039F08AE30E946B20CF911F910F916DCEF9
:105A0000CF911F910F910895CF93C82F41E062ED80
:105A100079E0E0DFC11101C05DDE409145075091A2
:105A20004607609147077091480789EC99E03FDE8F
:105A30004091490750914A0760914B0770914C077C
:105A400086EC99E034DE83EC99E01BDE81E29FE195
:105A500018DECF9142CECF93C82F41E069EA78E0BB
:105A6000B9DFC11101C036DE4091A70D5091A80DDC
:105A70006091A90D7091AA0D80EA98E018DE21E7E7
:105A800032EB47E25EE36091AB0D7091AC0D80911B
:105A9000AD0D9091AE0D0E94EDF7AB01BC018DE90B
:105AA00098E005DE21E732EB47E25EE36091AF0D5F
:105AB0007091B00D8091B10D9091B20D0E94B9F02E
:105AC000AB01BC018AE998E0F2DDCF9106CECF921E
:105AD000DF92EF92FF926A017B01D3DD42E0C701C2
