:100000000C94B8180C94F8180C94F8180C94F81870
:100010000C94F8180C94F8180C94F8180C94F81820
:100020000C94F8180C94F8180C94F8180C94F81810
:100030000C94F8180C94F8180C94F8180C94F81800
:100040000C94F8180C940F820C94F8180C94F8186F
:100050000C94F8180C9406810C94F8180C94D8D3CE
:100060000C94F8180C94C9540C94B5540C94F818CA
:100070000C94F8180C94F8180C94F8180C94F818C0
:100080000C944C530C94F8180C94F8180C94F81821
:100090000C948B540C94BF540C94F8180C94F818CE
:1000A0000C94F8180C94F8180C941E530C94F8182F
:1000B0000C94F8180C94F8180C94F8180C94F81880
:1000C0000C94F8180C94F8180C94F8180C946154CB
:1000D0000C942B540C94F8180C94F8180C94F818F1
:1000E0000C94F818084AD73B3BCE016E84BCBFFD88
:1000F000C12F3D6C74319ABD56833DDA3D00C77FF8
:1001000011BED9E4BB4C3E916BAAAABE0000008090
:100110003F05A84CCDB2D44EB93836A9020C50B91F
:10012000918688083CA6AAAA2ABE000000803F004B
:100130004E414E494E495459494E46CDCCCC3D0ACC
:10014000D7233C17B7D13877CC2B329595E6241FAF
:10015000B14F0A000020410000C84200401C462068
:10016000BCBE4CCA1B0E5AAEC59D7400407A10F33B
:100170005A00A0724E18090010A5D4E80000E876D5
:1001800048170000E40B54020000CA9A3B0000002C
:10019000E1F505000080969800000040420F000045
:1001A00000A08601000000102700000000E8030006
:1001B0000000006400000000000A000000000001D0
:1001C00000000000002C76D888DC674F0823DFC1D0
:1001D000DFAE59E1B1B796E5E3E453C63AE651998B
:1001E0007696E8E6C28426EB898C9B62ED407C6FB4
:1001F000FCEFBC9C9F40F2BAA56FA5F490055A2A6B
:10020000F75C936B6CF9676DC11BFCE0E40D47FE76
:10021000F520E6B500D0ED902E030094357705006B
:1002200080841E080000204E0A000000C80C3333F2
:1002300033330F986E12831141EF8D2114893BE601
:100240005516CFFEE6DB18D1844B381BF77C1D908A
:100250001DA4BBE424203284725E228100C9F124F3
:10026000ECA1E53D27434F4D4D554E49434154497F
:100270004F4E0044525952554E004552524F525320
:1002800000494E464F004543484F00627567666916
:10029000782D322E312E780057616E68616F2044C0
:1002A00039204D4B320053544F505045442E2000BE
:1002B0005072696E7465722073746F70706564201B
:1002C00064756520746F206572726F72732E20469C
:1002D000697820746865206572726F7220616E643F
:1002E00020757365204D39393920746F207265731C
:1002F000746172742E202854656D70657261747516
:1003000072652069732072657365742E205365745D
:1003100020697420616674657220726573746172FD
:1003200074696E67290A004E6F20436865636B73BA
:10033000756D2077697468206C696E65206E756DC7
:100340006265722C204C617374204C696E653A2092
:10035000004E6F20436865636B73756D2077697419
:1003600068206C696E65206E756D6265722C204C1C
:10037000617374204C696E653A2000636865636B35
:1003800073756D206D69736D617463682C204C61A9
:100390007374204C696E653A20004C696E65204E7E
:1003A000756D626572206973206E6F74204C617385
:1003B00074204C696E65204E756D6265722B312C10
:1003C000204C617374204C696E653A20004D3131C8
:1003D000300053657269616C2073746174757320A9
:1003E0006D69736D617463680A00534420726561BE
:1003F00064206572726F720A00746F6F206D75638E
:100400006820696E6163746976652074696D652022
:100410002D2063757272656E7420636F6D6D616EF1
:10042000643A20002121204B494C4C2063617573B4
:1004300065642062792000627573793A2070617575
:1004400073656420666F7220696E7075740A00624D
:100450007573793A2070617573656420666F7220D8
:10046000757365720A00627573793A2070726F63F2
:10047000657373696E670A00534420436172642098
:1004800072656164206572726F72004D3130303078
:100490005300506F776572204F7574616765004631
:1004A000696C616D656E742072756E6F7574204530
:1004B0002564004D363030002066696C616D656ED4
:1004C000745F72756E6F7574200066696C616D651E
:1004D0006E745F72756E6F757420540046696C613E
:1004E0006D656E7452756E6F7574205400506C6536
:1004F00061736520526573657400706F7765726F04
:100500006666004B494C4C45442E20005072696E83
:100510007465722068616C7465642E206B696C6C04
:1005200028292063616C6C6564210A006563686F2B
:100530003A004572726F723A0042696C696E656189
:1005400072204C6576656C696E6720477269643A03
:100550000A005072696E74204F626A002F2F616327
:1005600074696F6E3A006E6F74696669636174696D
:100570006F6E20006E6F74696669636174696F6E77
:10058000200070726F6D70745F00626567696E0045
:10059000656E640073686F7700627574746F6E00C7
:1005A000486F74656E6420746F6F20636F6C640AAB
:1005B000004D323453004D323320004739322E394A
:1005C0004500473146004731463630305A00473102
:1005D000463330303058004D31303650004D3130D8
:1005E0003953004D32303044004739322E395A00E9
:1005F0004D34323053004732385230585900473169
:10060000463630305A004739322E395A004739328F
:100610002E394530004D31303953004D313930538A
:10062000004D3432305330004F46460A0046616474
:1006300065204865696768742000426564204C65E0
:1006400076656C696E6720004661696C656420742C
:100650006F20656E61626C6520426564204C657632
:10066000656C696E670A00496E76616C6964206D1D
:100670006573682E0A0050726F62696E6720506F52
:10068000696E740025532025692F2569002E0A0004
:100690002F0050726F62696E67206D6573682070FD
:1006A0006F696E742000202844525952554E29001B
:1006B000473239204175746F20426564204C65765D
:1006C000656C696E67003F20284C2C522C462C42EA
:1006D00029206F7574206F6620626F756E64732EAB
:1006E0000A0020756E6974732F6D696E290A003FC8
:1006F00046656564726174652028532920746F6FA4
:10070000206C6F772E20285573696E6720003F2874
:1007100056296572626F7365206C6576656C206919
:100720006D706C61757369626C652028302D342999
:100730002E0A00426164205A2076616C75650A00B9
:100740004E6F2062696C696E6561722067726964C0
:100750000A0020440020204D323030205300202851
:1007600044697361626C6564293A0046696C616D25
:10077000656E742073657474696E67730020204D14
:100780003230312058004D617820416363656C65DB
:10079000726174696F6E2028756E6974732F73327D
:1007A000290020204D3230332058004D61782066DA
:1007B00065656472617465732028756E6974732F42
:1007C00073290020520020204D3230342050004147
:1007D0006363656C65726174696F6E2028756E69FC
:1007E00074732F7332292028503C7072696E742DF7
:1007F000616363656C3E20523C7265747261637420
:100800002D616363656C3E20543C74726176656C47
:100810002D616363656C3E2900204A00205400204E
:10082000530020204D323035204200416476616E05
:100830006365642028423C6D696E5F7365676D6512
:100840006E745F74696D655F75733E20533C6D69AE
:100850006E5F66656564726174653E20543C6D69C7
:100860006E5F74726176656C5F66656564726174F3
:10087000653E204A3C6A756E635F6465763E29007A
:1008800020440020490020204D33303120500048C2
:100890006F74656E642050494400706175736564BF
:1008A00000486561642063616E6E6F74206265202C
:1008B0007061726B656400506175736500496E7399
:1008C0006572742066696C616D656E7420616E641A
:1008D00020707265737320627574746F6E0A0052B3
:1008E000656865617420446F6E6500526568656176
:1008F00074696E672E2E2E0052656865617400481B
:1009000065617465722054696D656F75740050720D
:1009100065737320627574746F6E20746F206865E0
:100920006174206E6F7A7A6C650A004E6F7A7A6C09
:1009300065205061726B65640044697361626C6527
:1009400052756E6F75740050757267654D6F726584
:1009500000506175736564004C6F61642046696C7A
:10096000616D656E742054004C6F61642046696C43
:10097000616D656E7400496E736572742066696C92
:10098000616D656E7420616E642070726573732092
:10099000627574746F6E0A00726573756D656400BC
:1009A000526573756D696E6700203B00205500200D
:1009B000204D363033204C0046696C616D656E7495
:1009C000206C6F61642F756E6C6F616400203B203A
:1009D0000020204D343133205300506F7765722D45
:1009E0006C6F7373207265636F766572790020494E
:1009F0006E76616C696420657874727564657220C6
:100A000000536C6565702E2E2E005B505D61726B1D
:100A1000696E67207374796C652028302E2E342916
:100A20002E003F496E76616C696420005A20507236
:100A30006F62652050617374204265640A005A2019
:100A400050726F6265205061737420426564004784
:100A50003238004D65736820706F696E74206F7551
:100A600074206F662072616E67650A00626567694F
:100A70006E00436F6E74696E7565004D302053745F
:100A80006F70004D312053746F7000436C69636B5D
:100A900020746F20526573756D652E2E2E004E6F7B
:100AA000204D6F76652E00456E642066696C65206A
:100AB0006C6973740A00426567696E2066696C65CB
:100AC000206C6973740A004E6F206D656469610A59
:100AD00000534420636172642072656C65617365C4
:100AE000640A00526573756D696E67205344005245
:100AF0006573756D650050617573652053440028FA
:100B00006E6F2066696C65290043757272656E743C
:100B10002066696C653A20004E6F74205344207043
:100B200072696E74696E670A005344207072696E50
:100B300074696E67206279746520005072696E7402
:100B40002074696D653A20007061757365006F6B84
:100B5000004C696E653A20006F666600860281026D
:100B60007A027302650244454255473A004D3131DD
:100B7000322053687574646F776E004D31313320C5
:100B8000530057616E68616F204439204D4B32200D
:100B90004F46462E0020732E0A00496E6163746929
:100BA000766974792074696D656F75742000434FA0
:100BB0004E4649475F4558504F5254004D454154A9
:100BC0005041434B00434F4F4C45525F54454D50AD
:100BD00045524154555245004348414D4245525FAC
:100BE00054454D50455241545552450045505F4281
:100BF0004142595354455000424142595354455083
:100C000050494E470041524353004D4F54494F4EB7
:100C10005F4D4F44455300544845524D414C5F5041
:100C2000524F54454354494F4E00455854454E4445
:100C300045445F4D323000435553544F4D5F464954
:100C4000524D574152455F55504C4F4144004C4620
:100C50004E5F5752495445004C4F4E475F46494CF2
:100C6000454E414D45004155544F5245504F525409
:100C70005F53445F5354415455530053445F57529C
:100C800049544500524550454154004D554C544936
:100C90005F564F4C554D450053444341524400501C
:100CA000524F4D50545F535550504F525400484F7F
:100CB00053545F414354494F4E5F434F4D4D414E56
:100CC000445300454D455247454E43595F504152AC
:100CD00053455200434153455F4C494748545F4296
:100CE00052494748544E45535300544F47474C458B
:100CF0005F4C494748545300534F4654574152455F
:100D00005F504F574552004255494C445F50455241
:100D100043454E54004C4556454C494E475F44416F
:100D20005441005A5F50524F42450052554E4F5564
:100D300054004155544F4C4556454C005052494E75
:100D4000545F4A4F420050524F475245535300415F
:100D500055544F5245504F52545F54454D500041E9
:100D600055544F5245504F52545F504F5300564FB9
:100D70004C554D455452494300454550524F4D0046
:100D800042494E4152595F46494C455F5452414E8B
:100D9000534645520053455249414C5F584F4E5FB0
:100DA000584F4646004649524D574152455F4E41C5
:100DB0004D453A4D61726C696E206275676669785F
:100DC0002D322E312E782028536570203134203278
:100DD0003032362032313A35303A33382920534FC9
:100DE000555243455F434F44455F55524C3A6769FE
:100DF000746875622E636F6D2F4D61726C696E46FB
:100E000069726D776172652F4D61726C696E2050E9
:100E1000524F544F434F4C5F56455253494F4E3AF1
:100E2000312E30204D414348494E455F545950457D
:100E30003A57616E68616F204439204D4B32204B28
:100E4000494E454D41544943533A43617274657369
:100E500069616E2045585452554445525F434F5581
:100E60004E543A3120555549443A636564653261C0
:100E700032662D343161322D343734382D396231B8
:100E8000322D633535633632663336376666002F6A
:100E90002F003F4A206F7574206F662072616E6765
:100EA000652028302E303120746F20302E33290AEF
:100EB000002058003B200020204D61783A2000207F
:100EC0000020204D696E3A2000203B200020204D5C
:100ED000323131205300250A0046523A0020466C38
:100EE0006F773A20003A200020536572766F200019
:100EF000206F7574206F662072616E67650A0053FB
:100F00006572766F200050726F6265204F6666735F
:100F10006574205A0050726F6265204F6666736573
:100F200074205A0064697300656E00432900616291
:100F30006C656420286D696E2074656D70200043B7
:100F40006F6C642065787472756465732061726576
:100F50002000203B20486F73742068616E646C69C8
:100F60006E67200046696C616D656E742072756EE7
:100F70006F757420004D34323120696E636F727268
:100F800065637420706172616D657465722075733C
:100F90006167650A004D65736820706F696E742023
:100FA0006F7574206F662072616E67650A004F6608
:100FB0006673657473204170706C696564004D4997
:100FC0004E2F4D415820546F6F2046617200546F70
:100FD0006F206661722066726F6D204D494E2F4DF5
:100FE00041580A00454550524F4D204F4B0A0029A9
:100FF0000A0020746F20003F5A206F7574206F66BE
:101000002072616E6765202800290A0020746F2015
:10101000003F59206F7574206F662072616E67659E
:10102000202800290A0020746F20003F58206F7587
:1010300074206F662072616E67652028004D383419
:1010400000446F6E65207072696E74696E67206609
:10105000696C650A004D3737004D33310020204D53
:10106000323036205800486F6D65206F66667365B4
:1010700074004361703A0047322F47332062616445
:1010800020706172616D65746572730A005A205038
:10109000726F626520506173742042656400205A4B
:1010A0003A0020593A0042656420583A00473238E5
:1010B0004F00203B0020204D3835312058005A2D5C
:1010C00050726F6265204F666673657400220A0075
:1010D000656E7175657565696E672022006F6B0AB4
:1010E00000526573656E643A2000256973002569B6
:1010F0006D20256973002569682025696D202569A3
:101100007300256964202569682025696D2025699B
:10111000730025697920256964202569682025697F
:101120006D2025697300436F6F6C696E672E2E2EDC
:101130000045312025530020460020420020204D4C
:101140003130342053004175746F2054656D702028
:10115000436F6E74726F6C0020573A0042656420D2
:10116000436F6F6C696E672E2E2E004265642048B7
:10117000656174696E672E2E2E0023646566696E44
:10118000652044454641554C545F00504944207405
:10119000756E696E6720646F6E65004175746F745B
:1011A000756E65206661696C6564212054696D65A2
:1011B0006F75742E004175746F74756E652066616D
:1011C000696C6564212054656D7065726174757217
:1011D0006520746F6F20686967682E004175746FB1
:1011E00074756E65206661696C6564212042616476
:1011F0002065787472756465722E005049442041F0
:1012000075746F74756E65004B4420004B49200067
:101210004B5020005049442074756E696E672064FD
:101220006F6E65002066696E697368656421205081
:10123000757420746865206C617374204B702C2069
:101240004B6920616E64204B6420636F6E73746120
:101250006E74732066726F6D2062656C6F772069A3
:101260006E746F20436F6E66696775726174696F23
:101270006E2E680A00504944204175746F74756E73
:101280006500206661696C6564212074696D656F15
:1012900075740A00504944204175746F74756E6509
:1012A000004175746F74756E65206661696C656464
:1012B000212054696D656F75742E00206661696C1C
:1012C0006564212054656D70657261747572652066
:1012D000746F6F20686967680A005049442041753F
:1012E000746F74756E6500504944204379636C6572
:1012F000730025532025692F256900204B643A206F
:1013000000204B693A2000204B703A200020436CAB
:10131000617373696320504944200A002054753A70
:101320002000204B753A2000206D61783A20002083
:101330006D696E3A200020643A2000206269617372
:101340003A200048656174696E672E2E2E00207366
:10135000746172740A00504944204175746F747549
:101360006E65004175746F74756E65206661696C99
:101370006564212054656D706572617475726520B5
:10138000746F6F20686967682E00206661696C65FC
:1013900064212054656D7065726174757265207486
:1013A0006F6F20686967680A00504944204175746E
:1013B0006F74756E6500504944204175746F747583
:1013C0006E65003F28432979636C6573206E6F74E6
:1013D00020706C61757369626C6520283E3D33290D
:1013E0002E0A00206661696C6564212042616420D8
:1013F0006865617465722069640A0050494420413F
:1014000075746F74756E6500002002000000851F02
:101410000000012002000000851F000002200200E1
:101420000000851F0000032002000000851F00004F
:1014300004200200000010550000052002000000FA
:10144000491F0000062000000000261F00000720A2
:1014500002000000F31E0000082002000000071F29
:101460000000092002000000B53800000A20020038
:101470000000871900000B2002000000551B00002F
:101480000E2002000000BD1E00000F200200000020
:10149000A31E0000102002000000F45500001120DF
:1014A00002000000C7550000122002000000C755CE
:1014B00000001420020000009F55000015200200CB
:1014C0000000E31E0000162002000000721E000053
:1014D0001720020000003D1E00001820020000003E
:1014E0007F1900001920020000002F1D00001A20A3
:1014F000000000001E4400001B20000000007429B2
:1015000000001C2002000000731900001D200200D2
:101510000000601900001E2002000000D11D000024
:101520001F2002000000F9430000202002000000FC
:10153000001D0000212002000000001D00002220EC
:1015400002000000001D0000232002000000BF1C5C
:10155000000024200200000058190000252000008F
:101560000000B41C0000262000000000CE42000055
:10157000272002000000E8430000282002000000AD
:10158000D4430000292002000000391900002A205D
:10159000020000007D1C00002B20000000007243B0
:1015A00000002C20020000005E4300002D200200FD
:1015B00000003C4300002E20020000006D1C0000D3
:1015C0002F2000000000331900002030020000002E
:1015D0000000527D2530200000000000FB7C4530DB
:1015E000200000000000FB7C6530200000000000AF
:1015F000FB7C8530200000000000FB7CA530200033
:1016000000000000FB7CC530020000000000A77D48
:10161000C630200000000000C27CE630020100005D
:101620000000A386E8300F01000000001997F73092
:10163000020100000000E578BE3102000000000059
:101640005B9AF830020111020000687AF930020159
:1016500000000000D478FC300201F4070000FE799D
:10166000FD300201F8070000687AFE300200000039
:101670000000C078FF300201AA0D0000FE790031A1
:101680000201AE0D0000687A013102000000000086
:10169000C0780531020100000000B4780631020173
:1016A000240E0000947907310200090200009C78A2
:1016B0000831020100000000867C093102000000B0
:1016C0000000627B223102008F060000497923313D
:1016D0000200910600004979243102000000000058
:1016E0008878253102000A0200004979263102017A
:1016F000320A0000FE7927310201360A0000FE7925
:10170000283102013A0A0000FE79293102009306CD
:1017100000009C782A31020000000000777C2B3109
:1017200002000000000070782C3102000C02000062
:1017300049792D310401000000002C7B2F31040178
:1017400000000000F07A3131040100000000B57A99
:101750003331180098020000C77B4B31180000009D
:101760000000247C633110008B020000C77B7331C2
:10177000020000000000EB72743102000000000063
:10178000EC727531180000000000FE7B8D311800EE
:1017900000000000ED7BA531180000000000DC7B9C
:1017A000BD310200000000002B9A00400201000041
:1017B00005195778014020029406611C0F7C2140D6
:1017C00002000802C172FD78224002000000772565
:1017D0004878234002000000AF253E780050020008
:1017E00000000000E578015000000000FA18000039
:1017F000000000000000000000004E6F7420616CCB
:101800006C6F776564207768696C652069646C65C6
:10181000004E6F7420616C6C6F7765642064757224
:10182000696E67207072696E74004E6F2053442099
:101830004361726420446574656374656400436148
:101840006E6E6F7420656E74657220737562646964
:10185000723A20004E6F2066696C652073656C6576
:1018600063746564004D323500526573756D6500B3
:10187000554920506175736500726573756D65001B
:101880004D323400436F6F6C696E672E2E2E004D03
:101890003530300047323900486F6D696E6720720D
:1018A000657175697265640054656D706572617407
:1018B00075726520746F6F206C6F77004732385AED
:1018C0000047323858590047323858595A00486F43
:1018D0006D696E672E2E2E00457865637574696E8E
:1018E0006720636F6D6D616E642E2E2E004D353056
:1018F00030004D353032004D3939390A4D323830EB
:10190000503053313630004D35303000504944208E
:101910006175746F74756E696E672E2E2E004D336F
:1019200030334325644525645325645531004265B1
:1019300064205049442064697361626C6564004DA1
:10194000313030304300496E76616C6964207265D5
:10195000636F766572792064617461004D31303057
:1019600030004275737900BD31000033314B316373
:10197000317331743175318D31A531000023400050
:1019800000224000002B312C3121402D312F3131EC
:101990003100002A310000014000002631273128A3
:1019A0003129310000FF300031243125310000227F
:1019B0003123310000FF300031FC30FD30083109A7
:1019C000310000FF300031FC30FD300000063107EF
:1019D0003100000531000000400000FF30003101FF
:1019E00031FC30FD30FE300000FF300031FC30FDB6
:1019F000300000FF300031FC30FD30E630E83000D0
:101A00005000000031FD300040F830F93006310060
:101A100000FF300031FC30FD30E630E830F730BEFA
:101A200031000020302530453065308530A530C587
:101A300030C6300000FF300031FC30FD30000002C5
:101A4000F47D038A9A04969A0A8CA20B20A20CECCD
:101A5000A10DF0770E06730FFB72100FA211D2A129
:101A600013F17216ED7200000001351A02231A03F9
:101A7000111A04031A05F31906E91907DB1908D727
:101A80001909D3190BCD190CC3190DB5190EAF19BE
:101A90000FA519109B191197191293191385191471
:101AA0008119157D19166B19F96719000000473067
:101AB0005A313000473238004732380047305A3008
:101AC0000047305825645925640047305A34004790
:101AD000323800486F6D696E672E2E2E0042757386
:101AE00079004457494E204755492F4F5320757070
:101AF000646174652072657175697265640025643E
:101B0000782564782564002D002D002D004D35309A
:101B1000300050726F62696E67206661696C65643F
:101B20000050726F62696E672073756363657373CB
:101B300066756C0063616E63656C005072696E74EB
:101B40002041626F72746564004469736D697373D8
:101B50000055492041626F72746564006F70656E54
:101B600000545249474745524544003A20006669AF
:101B70006C616D656E74007A5F6D696E00795F6D82
:101B8000696E00785F6D696E005265706F7274697E
:101B90006E6720656E6473746F7020737461747502
:101BA000730A0020746F6F206C6F6E672065787405
:101BB000727573696F6E2070726576656E74656498
:101BC0000A0020636F6C6420657874727573696FA6
:101BD0006E2070726576656E7465640A00486F6D7C
:101BE00065202573204669727374000000000000B0
:101BF000000000000000005761726E696E673A20B5
:101C0000486F6D696E672042756D70204469766912
:101C1000736F72203C20310A000202040000C843A6
:101C20000000C8430000C8430000A0400000A040DE
:101C30000000004053544F505045442E2000507235
:101C4000696E7465722073746F707065642064755A
:101C50006520746F206572726F72732E20466978EA
:101C600020746865206572726F7220616E642075E1
:101C70007365204D39393920746F20726573746132
:101C800072742E202854656D70657261747572656A
:101C90002069732072657365742E20536574206902
:101CA0007420616674657220726573746172746900
:101CB0006E67290A00206572726F72202D2072658E
:101CC00073746172742077697468204D3939390AE8
:101CD00000424C546F7563680021212053544F50CB
:101CE0002063616C6C656420626563617573652057
:101CF0006F6620000000C8430000C8430000C843CE
:101D000000000000000000000000000045455052A7
:101D10004F4D207772697465206661696C65640057
:101D200053657474696E67732053746F72656400D1
:101D3000290A002062797465733B20637263200076
:101D400053657474696E67732053746F7265642091
:101D50002800204D61726C696E3D563930290A00A9
:101D6000454550524F4D2076657273696F6E206DF8
:101D700069736D617463682028454550524F4D3D2D
:101D800000454550524F4D206461746173697A6516
:101D9000206572726F722E0A004572723A204545B4
:101DA00050524F4D2043524300202863616C6375AD
:101DB0006C6174656429210A0020213D200045459D
:101DC00050524F4D20435243206D69736D617463CF
:101DD00068202D202873746F7265642920004545A2
:101DE00050524F4D20436F72727570740A00205329
:101DF000697A653A2000496E6465783A2000537428
:101E00006F7265642073657474696E6773207265A0
:101E100074726965766564002062797465733B202D
:101E200063726320002073746F726564207365743D
:101E300074696E6773207265747269657665642073
:101E40002800454550524F4D2072656164206661FF
:101E5000696C656400454550524F4D20496E697468
:101E600069616C697A65640A00454550524F4D209E
:101E7000496E697469616C697A65640045455052C0
:101E80004F4D2072657365740048617264636F64BE
:101E900065642044656661756C742053657474696B
:101EA0006E6773204C6F61646564000000964300A8
:101EB0000096430000A0400000C8416666A042664C
:101EC00066A0426626C8439A99BC42B80B0000B887
:101ED0000B000064000000B80B000020286D6D2985
:101EE00000203B204C6576656C696E6720002020E1
:101EF0004D3432302053004175746F2042656420A8
:101F00004C6576656C696E67004F4646004F4E0023
:101F1000203B2053656E736F72200020204D3431BA
:101F20003220530046696C616D656E742072756E67
:101F30006F75742073656E736F7200204A002020E5
:101F4000473239205720490020204D313439204371
:101F5000203B20556E69747320696E2043656C7355
:101F60006975730A0054656D706572617475726588
:101F700020556E697473002020473231203B004C9D
:101F8000696E65617220556E6974730024F4D430F3
:101F900050C38D20C3A24117828B7011127A900D0D
:101FA000826CDA0AA861E108C758660761514206E7
:101FB0001F4B5E05C145A6041B411204093D970352
:101FC000723931034136DB0266339202D430530258
:101FD000812E1D02642CEE01762AC501B128A101D3
:101FE000102781018F2564012B244A01E12234014D
:101FF000AD2120018D200C01811FFC00851EED000C
:10200000981DDF00B91CD200E71BC700201BBB00D6
:10201000651AB200B319A9000A19A0006A1898003D
:10202000D217920040178A00B616840032167E003E
:10203000B41579003B157400C7146F0058146A007A
:10204000EE1366008813620026135E00C8125B0060
:102050006D12570016125500C111510070114E003B
:1020600022114C00D61049008D1046004710450043
:1020700002104200C00F4000800F3E00420F3C00A3
:10208000060F3A00CC0E3900930E37005C0E350077
:10209000270E3400F30D3200C10D3100900D2F00DA
:1020A000610D2F00320D2D00050D2C00D90C2A00DA
:1020B000AF0C2A00850C28005D0C2800350C270089
:1020C0000E0C2500E90B2500C40B2400A00B2300F7
:1020D0007D0B22005B0B21003A0B2100190B200025
:1020E000F90A1F00DA0A1F00BB0A1E009D0A1D0024
:1020F000800A1C00640A1C00480A1C002C0A1B00F1
:10210000110A1A00F7091A00DD091900C40919009B
:10211000AB091800930918007B0917006409170020
:102120004D09170036091600200915000B09150086
:10213000F6081500E1081500CC081400B8081400D2
:10214000A4081300910813007E0813006B08120006
:102150005908120047081200350812002308110020
:102160001208110001081000F1071100E00710002B
:10217000D0071000C0070F00B1071000A1070F0023
:1021800092070F0083070F0074070E0066070E000A
:1021900058070E004A070E003C070E002E070D00E0
:1021A00021070D0014070D0007070D00FA060D00AA
:1021B000ED060C00E1060D00D4060C00C8060C006C
:1021C000BC060C00B0060B00A5060C0099060B001F
:1021D0008E060B0083060B0078060B006D060B00C5
:1021E00062060B0057060A004D060A0043060B0064
:1021F00038060A002E060A00240609001B060A00FB
:1022000011060A0007060900FE050A00F405090088
:10221000EB050900E2050900D9050900D005090010
:10222000C7050800BF050900B6050900AD0508008F
:10223000A50508009D050800950509008C05080006
:10224000840508007C050700750508006D05080079
:10225000650507005E050800560507004F050800E4
:10226000470507004005070039050700320507004C
:102270002B050700240507001D05070016050700AC
:102280000F0506000905070002050600FC0407000B
:10229000F5040600EF040700E8040600E204060067
:1022A000DC040600D6040600D0040700C9040500BB
:1022B000C4040600BE040600B8040600B20406000A
:1022C000AC040600A6040500A10406009B0405005A
:1022D00096040600900405008B04060085040500A2
:1022E000800405007B0405007604060070040500E8
:1022F0006B04050066040500610405005C0405002C
:1023000057040500520405004D040500480404006C
:10231000440405003F0405003A04040036040500A7
:10232000310405002C0404002804050023040400E3
:102330001F0405001A04040016040400120405001A
:102340000D04040009040400050404000104050050
:10235000FC030400F8030400F4030400F003040089
:10236000EC030400E8030400E4030400E0030400B9
:10237000DC030400D8030400D4030300D1030400E9
:10238000CD030400C9030400C503040000000000DD
:10239000000000000000000000000000000000003D
:1023A00000000000D1036D6403570D0347C6023BD4
:1023B0008B023259022B2E0225090221E8011CCC86
:1023C000011AB201179B01148701137401116301F3
:1023D0000F54010E46010D39010D2C010B21010A8C
:1023E00017010A0D0109040108FC0008F40007EDBB
:1023F0000007E60007DF0006D90006D30005CE007F
:1024000006C80005C30004BF0005BA0004B60004F6
:10241000B20004AE0004AA0004A60003A300049FB7
:1024200000039C00039900039600039300029100AF
:10243000038E00028C0003890002870003840002DF
:102440008200028000027E00027C00027A00027894
:102450000002760001750002730002710001700035
:10246000026E00016D00026B00016A00026800014B
:102470006700026500016400016300016200026000
:1024800000015F00015E00015D00015C00015B0076
:10249000015A00015900015800015700015600017E
:1024A0005500015400015300015200015100005138
:1024B00000015000014F00014E00014D00004D0091
:1024C000014C00014B00014A00004A000149000193
:1024D0004800004800014700014600004600014551
:1024E0000000450001440001430000430001420098
:1024F0000042000141000041000140000040000195
:102500003F00003F00013E00003E00013D00003D55
:1025100000013C00003C00013B00003B00013A0090
:10252000003A00013900003900003900013800008C
:102530003800013700003700003700013600003650
:102540000000360001350000350001340000340081
:10255000003400013300003300003300013200007A
:102560003200003200013100003100003100003142
:1025700000013000003000003000012F00002F006B
:10258000002F00002F00012E00002E00002E000161
:102590002D00002D00002D00002D00012C00002C2E
:1025A00000002C00002C00012B00002B00002B0051
:1025B000002B00012A00002A00002A00002A000047
:1025C0002A00012900002900002900002900012813
:1025D0000000280000280000280000280001270033
:1025E0000027000027000027000027000126000028
:1025F00026000026000026000026000026000125F7
:102600000000250000250000250000250000250011
:102610000124000024000024000024000024000005
:1026200024000123000023000023000023000023D6
:1026300000002300012200002200002200002200EE
:1026400000220000220000220001210000210000E1
:1026500021000021000021000021000021000120B4
:1026600000002000002000002000002000002000CA
:10267000002000002000011F00001F00001F0000BC
:102680001F00001F00001F00001F000020436F7587
:102690006E7420583A0042656400453100626564FA
:1026A000002C2073797374656D2073746F7070657E
:1026B0006421204865617465725F49443A20004591
:1026C00072723A204D415854454D50004D41585476
:1026D000454D50207472696767657265640048658E
:1026E0006174696E67204661696C65640048656164
:1026F00074696E67206661696C6564004572723A40
:10270000204D494E54454D50004D494E54454D5075
:102710002074726967676572656400544845524D5C
:10272000414C2052554E4157415900546865726DD5
:10273000616C2052756E6177617900202F00204214
:10274000403A0020403A0020573A000009121B246A
:102750002D363F48415A536C657E7719100B023D68
:10276000342F265158434A757C676E323B20291618
:102770001F040D7A7368615E574C452B2239300F68
:10278000061D14636A7178474E555C646D767F4010
:1027900049525B2C253E3708011A137D746F665928
:1027A000504B42353C272E1118030A565F444D7298
:1027B0007B60691E170C053A3328214F465D546B28
:1027C000627970070E151C232A31384148535A6527
:1027D0006C777E09001B122D243F3658514A437CEA
:1027E000756E671019020B343D262F737A61685796
:1027F0005E454C3B3229201F160D046A6378714EEA
:10280000475C55222B3039060F141D252C373E010D
:1028100008131A6D647F7649405B523C352E2718A9
:10282000110A03747D666F5059424B171E050C3315
:102830003A21285F564D447B7269600E071C152AA9
:10284000233831464F545D626B707900002110428D
:102850002063308440A550C660E770088129914A02
:10286000A16BB18CC1ADD1CEE1EFF1311210027389
:10287000325222B5529442F772D662399318837B52
:10288000B35AA3BDD39CC3FFF3DEE36224433420D9
:10289000040114E664C774A44485546AA54BB528A2
:1028A000850995EEE5CFF5ACC58DD5533672261169
:1028B000163006D776F6669556B4465BB77AA719F2
:1028C000973887DFF7FEE79DD7BCC7C448E5588631
:1028D00068A7784008611802282338CCC9EDD98E42
:1028E000E9AFF9488969990AA92BB9F55AD44AB7C9
:1028F0007A966A711A500A333A122AFDDBDCCBBF92
:10290000FB9EEB799B588B3BBB1AABA66C877CE498
:102910004CC55C222C033C600C411CAEED8FFDECE1
:10292000CDCDDD2AAD0BBD688D499D977EB66ED5A8
:102930005EF44E133E322E511E700E9FFFBEEFDD31
:10294000DFFCCF1BBF3AAF599F788F8891A981CA0E
:10295000B1EBA10CD12DC14EF16FE18010A100C2ED
:1029600030E3200450254046706760B9839893FB9C
:10297000A3DAB33DC31CD37FE35EF3B1029012F33D
:1029800022D2323542145277625672EAB5CBA5A8EC
:102990009589856EF54FE52CD50DC5E234C324A08D
:1029A0001481046674476424540544DBA7FAB7997C
:1029B00087B8975FE77EF71DC73CD7D326F23691DD
:1029C00006B01657667676154634564CD96DC90E44
:1029D000F92FE9C899E9898AB9ABA944586548062D
:1029E000782768C018E1088238A3287DCB5CDB3FDC
:1029F000EB1EFBF98BD89BBBAB9ABB754A545A377D
:102A00006A167AF10AD01AB32A923A2EFD0FED6CAB
:102A1000DD4DCDAABD8BADE89DC98D267C076C64CC
:102A20005C454CA23C832CE01CC10C1FEF3EFF5DBB
:102A3000CF7CDF9BAFBABFD98FF89F176E367E551C
:102A40004E745E932EB23ED10EF01E7C3C3E5E2B49
:102A50003D3F2F5B5D3B2C2A225C005761726E6903
:102A60006E673A005344204361726420496E697472
:102A7000204661696C0053442063617264206F6B6F
:102A80000A006F70656E526F6F74206661696C65C5
:102A9000640A00766F6C756D652E696E69742066C8
:102AA00061696C65640A004E6F2053442063617253
:102AB000640A000A4D3234004D3233202573002E53
:102AC0000A006F70656E206661696C65642C204633
:102AD000696C653A200046696C652073656C6563B6
:102AE0007465640A002053697A653A200046696C6F
:102AF00065206F70656E65643A2000454E44205332
:102B00005542524F5554494E450A002220706F736A
:102B1000002220706172656E743A22005355425251
:102B20004F5554494E452043414C4C2074617267C7
:102B300065743A220053756263616C6C204F766550
:102B400072666C6F77004578636565646564206DB7
:102B5000617820535542524F5554494E4520646583
:102B60007074683A002E0A0044656C6574696F6E73
:102B7000206661696C65642C2046696C653A2000AA
:102B800046696C652064656C657465643A005772CB
:102B90006974696E6720746F2066696C653A2000FD
:102BA000667265736800646F696E67002066696CA1
:102BB000653A20004E6F7720002F6175746F256392
:102BC0002E67002001400130013B014001360160C9
:102BD00001310170012C0190012701B0012201C0D7
:102BE000011D01F00118011002130130020E0160F5
:102BF00002090190020401C002FF000003FA004034
:102C000003F5008003F000D003EB002004E6007021
:102C100004E100E004DC004005D700C005D200401C
:102C200006CD00D006C8008007C3003008BE00F003
:102C300008B900C009B400B00AAF00B00BAA00D0B8
:102C40000CA500000EA000500F9B00C01096005075
:102C500012910000148C00C0158700B0178200B0DC
:102C6000197D00D01B7800001E730040206E00907C
:102C7000226900F024640040275F0090295A00E098
:102C80002B5500102E500020304B0010324600E033
:102C900033410090353C001037370070383200A0C7
:102CA000392D00B03A2800A03B2300603C1E0010E4
:102CB0003D1900903D1400103E0F00703E0A00C008
:102CC0003E0500003F0000403FFBFF803FF6FFC095
:102CD0003FF1FF2020506C616E6E65724275666632
:102CE000657242797465733A2000204672656520EA
:102CF0004D656D6F72793A200020436F6D70696C7D
:102D000065643A2053657020313420323032360AFF
:102D100000204C61737420557064617465643A20BE
:102D2000323032362D30392D3038207C20417574C8
:102D3000686F723A2053796C3231202B20436C61DA
:102D40007564650A004D61726C696E206275676614
:102D500069782D322E312E780A0020536F667477F1
:102D60006172652052657365740A0020576174634F
:102D700068646F672052657365740A002042726F41
:102D8000776E206F75742052657365740A00204554
:102D9000787465726E616C2052657365740A0050B8
:102DA0006F77657255700A0073746172740A004718
:102DB00032385859004D31303031006572726F72BF
:102DC0002077726974696E6720746F2066696C651C
:102DD0000A00446F6E6520736176696E67206669CC
:102DE0006C652E0A004D323900456E6473746F7045
:102DF0007300255320256320256320256320256348
:102E000000205A3A0020593A0020583A00656E6472
:102E100073746F7073206869743A200000000A0BA5
:102E200002090C0D0E080703040100000000000059
:102E30000000000000000000000000000000000092
:102E4000000000000000000012111000000000004F
:102E50000000000000000000000000000000000072
:102E6000000000486F6D696E67204661696C65649B
:102E700000FFFFFF205A3A200020793A20004265E7
:102E80006420583A200050726F62696E6720466174
:102E9000696C65640A0050726F62696E67204661F2
:102EA000696C65640043616E6E6F74206F70656E4F
:102EB000207375626469722000524553554D452058
:102EC0004F5054494F4E533A0048656174696E67DC
:102ED0002E2E2E000000436C69636B20746F2068F7
:102EE000656174000000526573756D696E672E2E02
:102EF0002E00000050757267696E672E2E2E00003E
:102F0000004C6F6164696E672E2E2E000000496EC2
:102F10007365727420616E6420436C69636B00009A
:102F200000436C69636B20746F20636F6E74696E0D
:102F30007565000000456A656374696E672E2E2E04
:102F4000000000506C6561736520776169742E2EF6
:102F50002E0000005061726B696E672E2E2E0000ED
:102F600000220A00556E6B6E6F776E20636F6D6D79
:102F7000616E643A2022006F6B0057616E68616F6A
:102F8000204439204D4B322052656164792E005027
:102F900072696E74696E672E2E2E005072696E749F
:102FA0002050617573656400204500205A00205947
:102FB0000020204D39322058005374657073207002
:102FC000657220756E6974000000220025002800DB
:102FD0002B002E0031003400020100000501080121
:102FE0000B0100002100240027002A002D003000E2
:102FF000330001010000040107010A010505050570
:10300000070508080808020202020A0A0808040460
:10301000040401010101010101010303030303038E
:103020000303040707070C0C0C0C0C0C0C0C02021D
:10303000020206060606060606060B0B0B0B0B0B1A
:103040000B0B0102102020080810204010204080A7
:10305000020102010804020101020408102040805C
:1030600080402010080402018004020180402010EA
:103070000804020108040201010204081020408033
:1030800001020408102040804572726F722077722E
:103090006974696E6720746F20454550524F4D2109
:1030A0000A00DB0FC93F45BCDA3F8FB30240FCF09A
:1030B000274056946140FE4B9B4084A5D840E023B6
:1030C0001841346A5641E859974164DBD5416E276F
:1030D0001742B4B75542CE1A9742C8AED542B5880A
:1030E0005A43D40684BFA65FA7BF7443E0BF10B1A4
:1030F0001AC01C2C58C0E8F697C0B849D6C04E4E2E
:1031000017C124D355C1802497C1A0B5D5C1121AC7
:1031100017C244AE55C2781797C26CACD5C2678847
:103120005AC320746F6F206C6F6E6720657874725D
:103130007573696F6E2070726576656E7465640A6A
:103140000020636F6C6420657874727573696F6EAC
:103150002070726576656E7465640A0020453A00D9
:10316000205A3A0020593A00583A0000FAE6DCE6C4
:1031700011241FBECFEFD1E2DEBFCDBF00E00CBFF8
:1031800084B78093961714BE0FB6F894A8958091D3
:103190006000886180936000109260000FBE14E0B0
:1031A000A0E0B2E0E4E5FCEF01E00BBF02C0079055
:1031B0000D92AE3FB107D9F727E1AEEFB4E001C001
:1031C0001D92A639B207E1F718E1C7EBD8E100E09C
:1031D00006C021970109802FFE010E949DFAC63B7F
:1031E000D10780E00807A9F70E944FE80C9419FE68
:1031F0000C9400008091B5068F5F8093B5068A30ED
:1032000018F080EF809378090895CF93FC018081B6
:1032100091818115904429F5FB01C1816C2F70E0EB
:1032200090E080E00E94EDF320E030E048EC52E4D2
:103230000E94DFFC18160CF4C4E62C2F30E0AFEF30
:10324000B0E00E945BFA24E630E040E050E00E94EB
:1032500035FA2F3F310519F010F02FEF30E02093B1
:103260007F14CF91089510923E0781E0809340072C
:103270000895FB0181818F3F19F0882381F0089523
:103280002CE330E030930D0220930C028093B806BB
:1032900085E08093080281E080934007089588ECE0
:1032A00090E090930D0280930C021092B806F0CF3C
:1032B000FB0181818093930681E08093400708950C
:1032C000FB0180819181982789279827893C910566
:1032D00010F088EC90E090930B0280930A0281E05A
:1032E000809340070895FB01818191E0980F92300F
:1032F00028F48093100281E0809340070895FB0139
:1033000081818093090281E0809340070895CF92E4
:10331000DF92EF92FF92CF93DF93FB01C081D181C7
:10332000DC27CD27DC27BE010D2E000C880B990B66
:103330000E94EFF36B017C0120E030E040E251E4B9
:103340000E94E9F387FD0DC020E030E04AEF53E42E
:10335000C701B6010E94DFFC18162CF4C4EFD1E0BF
:1033600002C0CAE0D0E0D0931202C093110281E003
:1033700080934007DF91CF91FF90EF90DF90CF9047
:103380000895CF93DF93C091F807D091F90781E0BA
:10339000CE31D105E4F020E030E040E05FE3609121
:1033A000F4077091F5078091F6079091F7070E9456
:1033B000B8FA0E94FCFB6C1B7D0B77FF03C0719574
:1033C0006195710981E0633071050CF080E0DF9157
:1033D000CF91089587FD26C0811111C08091C40A44
:1033E0002091C50A8217F1F0E22FF0E0EC53F54F7F
:1033F000828190E02F5F2F772093C50A0895813056
:1034000089F48091420A2091430A821759F0E22FF1
:10341000F0E0EE5BF54F828190E02F5F2F772093F5
:10342000430A08958FEF9FEF0895CF93DF93DB0159
:10343000F9019C919130C1F0943080F094509C93AC
:103440008830D1F480819181009771F00197918348
:103450008083480F591FEA01188206C08C3539F461
:103460009C5F9C93943041F4DF91CF9108958B330E
:1034700039F781E08C93F8CF20813181B9016F5FFA
:103480007F4F71836083420F531FEA0188838081DD
:1034900091818F3591056CF7E7CF0F931F9381E0F2
:1034A0000091890D10918A0D20918B0D30918C0D1A
:1034B0004091850D5091860D6091870D7091880D1A
:1034C000041715072607370708F480E01F910F91AE
:1034D00008952091C214833021F425FD0CC024FDF1
:1034E0000CC030E0A90102C0559547958A95E2F7D6
:1034F000CA018170089581E0089580E008950F93D6
:103500001F93CF93DF93EC010DE719E0F8012081C1
:10351000318142815381688179818A819B810E94B6
:10352000B8FA688379838A839B83F8012481358183
:10353000468157816C817D818E819F810E94B8FA7E
:103540006C837D838E839F83F8012085318542853E
:103550005385688579858A859B850E94B8FA688736
:1035600079878A879B87DF91CF911F910F9108956B
:103570008091580684FD0BC080915A0687FD07C0D4
:1035800090915B06937081E019F480E0089581E0EA
:1035900008952FEB280F2A3108F047C0E22FF0E002
:1035A0008091580690915906A0915A06B0915B06F9
:1035B00004C0B695A795979587952A95D2F780FD73
:1035C00002C081700895E659FA4FE081EE2341F17F
:1035D0008091930990919409E80FF92FF11D808152
:1035E00090ED980F9A3030F08E3251F481818053F3
:1035F0008A3098F4F0936105E093600581E00895C6
:103600008D3211F08B3249F4818190ED980F9A3010
:1036100088F38E3211F48281EACFF0E0E0E0EACF65
:103620001092610510926005E9CF80E00895B1DF46
:10363000882341F081E02091600530916105232BC2
:1036400009F480E008950F931F93CF93DF93C82F61
:10365000D0E0FE01EE0FFF1FE95EFD4F7183608336
:10366000CC0FDD1FCC0FDD1F8E010B5A1D4F072E17
:10367000000C880B990B0E94EFF32AE037ED43E230
:103680005CE30E944EF4CA5AD84F288139814A819E
:103690005B810E944EF4F80160837183828393837F
:1036A000DF91CF911F910F910895FC01808191814D
:1036B0008B30904259F4FB01608171817627672736
:1036C000762780E0C0DF81E08093400708958091F5
:1036D0005A0781110EC020911D0230911E02215007
:1036E000310981E04091AE0D5091AF0D4217530763
:1036F0000CF080E008958F929F92AF92BF92CF928C
:10370000DF92EF92FF92FC01828158E5C52E52E0D4
:10371000D52EC81AD10887FDD394CC0CDD1CCC0C57
:10372000DD1C0D2C000CEE08FF08818178E8872E47
:10373000912C881A910887FD9394880C991C880C09
:10374000991C092C000CAA08BB0880818F3FD1F17D
:1037500090E0FC01EE0FFF1FE80FF91FE053F24F5E
:103760008181928133E0880F991F3A95E1F7B0E0AB
:10377000A0E044E0B595A795979587954A95D1F730
:1037800002969C012F5F3F4F032E000C440B550BFC
:10379000281939094A095B09A4EBB0E00E9451FAE3
:1037A000A7019601281939094A095B090E9435FACF
:1037B000C901FF90EF90DF90CF90BF90AF909F90A6
:1037C0008F90089590E080E0DCCF91E090935C06CC
:1037D0009091D10095FD0CC09091D00095FF08C04C
:1037E0008093D6008091D00080648093D0000895AB
:1037F00020915D062F5F2F720FB607FC27C09091B6
:103800005E06921328C09091D00095FF1EC0909143
:103810005E0640915D06941306C09091D1009F7D95
:103820009093D10012C0E92FF0E0E35AF94F3281B2
:103830009F5F9F723093D60090935E063091D000C8
:1038400030643093D000491741F3D9CF90915E0690
:10385000921301C0FBCFE0915D06F0E0E35AF94F0F
:10386000828320935D068091D10080628093D10095
:1038700008950F931F93CF93DF93EC01162F042F1E
:103880008AE5A3DF85EAA1DF83E0800F9EDF812F39
:103890009CDF8D2F9ADF8C2FDF91CF911F910F919D
:1038A00094CF40E355E760E070E082E699E10C9444
:1038B000729B40E355E760E070E082E699E10C948A
:1038C000729BFC014281442339F0848195810097E9
:1038D00019F050E00C949BFD0895CF93FB01C1813A
:1038E000C13031F40E941D9A811104C0C093400779
:1038F000CF9108950E94DB98F9CFCF93DF93EB012E
:103900000E94519B81110AC040E355E760E070E0DE
:1039100082E699E1DF91CF910C94729B8881998125
:103920009827892798272091B8062F3F29F022232E
:10393000A9F0DF91CF9108958536910514F084E6C2
:1039400090E08530910514F485E090E090930D02AD
:1039500080930C0281E080934007EBCF863F910576
:1039600084F385EF90E0EDCFE4E9F6E081E2DF015A
:103970001D928A95E9F781E0809340070895CF93DF
:10398000FB0180919306813029F050F1823019F1CA
:10399000CF91089560E070E080E89FE321812230BC
:1039A00069F118F5222319F09058213089F7C0E009
:1039B00024E0C29FF0011124EE5CF54F208131819B
:1039C000428153810E94B8FA4C2F0E94DED081E0E0
:1039D00080934007DDCF6DEC7CEC8CEC9DE3DECF7B
:1039E00060E070E080E291E4D9CF243021F028F04B
:1039F0009058253069F6C2E0DBCF9058C1E0D8CFAF
:103A0000CF93DF93EC01FB016081718176276727FB
:103A10007627072E000C880B990B0E94EFF320E00D
:103A200030E040E251E40E9494FB28813981213248
:103A3000F0E23F0749F0223240E2340771F02032D1
:103A4000304241F440E001C041E00E94DED081E01C
:103A500080934007DF91CF91089542E0F6CF8F9297
:103A60009F92AF92BF92CF92DF92EF92FF92CF934D
:103A7000DF9380917B098770873091F040E355E7B1
:103A800060E070E088E998E1DF91CF91FF90EF90DE
:103A9000DF90CF90BF90AF909F908F900C94729BCF
:103AA000EB010E94519B811107C040E355E760E0A4
:103AB00070E082E699E1E8CF8981833009F454C04F
:103AC000B8F4813009F466C0C12CD12C60EFE62E29
:103AD00061E4F62E823009F45AC0DF91CF91FF9055
:103AE000EF90DF90CF90BF90AF909F908F90089510
:103AF000843009F446C0C12CD12C99EBE92E93E413
:103B0000F92E812C912C20EFA22E21E4B22E8530AB
:103B100021F720E030E040E850E460913A0A7091EB
:103B20003B0A80913C0A90913D0A0E94B8FA42E01B
:103B30000E94DED040E0C501B4010E94DED041E029
:103B4000C701B6010E94DED042E060E070E0CB0128
:103B5000DF91CF91FF90EF90DF90CF90BF90AF902B
:103B60009F908F900C94DED0C12CD12C40EFE42E8E
:103B700041E4F42E812C912C59EBA52E53E4B52E63
:103B8000C8CFC12CD12C39EBE32E33E4F32E460100
:103B90005701BFCFC12CD12C88E4E82E83E4F82E46
:103BA000F6CFCF93DF93EB010E94519B81110AC0A6
:103BB00040E355E760E070E082E699E1DF91CF9164
:103BC0000C94729B809110028F5F8230E0F420E0B1
:103BD00030E04AE253E46091AA0D7091AB0D809100
:103BE000AC0D9091AD0D0E94E9F387FF07C040E353
:103BF00055E760E070E088EA98E1E0CF89818823AA
:103C000029F0813039F1DF91CF91089560910A0256
:103C100070910B0290E080E00E94EDF39B01AC01FB
:103C200060913E0A70913F0A8091400A9091410A4A
:103C30000E94B7FA60933E0A70933F0A8093400A4D
:103C40009093410A60E070E080E090E4DF91CF91D2
:103C50000C94439160910A0270910B0290E080E015
:103C60000E94EDF320913E0A30913F0A4091400AB4
:103C70005091410A0E94B8FADDCFCF93DF93EB0158
:103C80000E94519B811103C0DF91CF9112CE898197
:103C900090910902923029F09330C1F0DF91CF91D9
:103CA0000895882371F06DEC7CEC8CEC9DEB0E9408
:103CB00080D10E9481D30E94639B81E08093400762
:103CC000EDCF6DEC7CEC8CEC9DE3F1CF882329F0FB
:103CD0006AE077ED83E29CEBEACF6AE077ED83E27E
:103CE0009CE3E5CFCF93DF93EB010E94519B8111C1
:103CF00003C0DF91CF91D5CD688179817627672781
:103D00007627072E000C880B990B0E94EFF320E01A
:103D100030E048EC52E40E9494FB2091240E309154
:103D2000250E4091260E5091270E0E94B7FA0E9450
:103D300080D10E9481D30E94639B81E080934007E1
:103D4000DF91CF910895FB018181882319F08130A3
:103D500079F008956AE077ED83E29CE30E9480D1D8
:103D60000E9481D30E94639B81E080934007089565
:103D70006AE077ED83E29CEBF1CFFB01608171811A
:103D8000762767277627072E000C880B990B0E9451
:103D9000EFF320E030E048EC52E40E9494FB2091E5
:103DA000240E3091250E4091260E5091270E0E9430
:103DB000B7FA0E9480D10E9481D30E94639B81E068
:103DC000809340070895FB018181813031F082307A
:103DD00039F081E08093400708950E941C83F9CF59
:103DE0000E94F482F6CFCF93FB01C181C13051F420
:103DF0000E94039A811108C00E941D9A811104C07B
:103E0000C0934007CF910895CF910C94DB98CF9346
:103E1000FB01C181C13031F40E94039A811104C0B9
:103E2000C0934007CF91089549E658E160E778E1F3
:103E300084E00E9402CD8BE99FE20E9478C985E66A
:103E400098E19093360980933509ECCF80910E026A
:103E500090910F0297FF08C040E355E760E070E0E3
:103E600084E598E10C94729B0E940EDE882381F019
:103E700080918D0D85FD0CC00E94519B811101C068
:103E800010CD85E999E00E94D9D483E08093780928
:103E90000895CF93DF93FB0181818130D1F040F011
:103EA000823019F181E080934007DF91CF9108952E
:103EB00080918D0D86FDF9CF1092B7061092B6064F
:103EC0008FEF9FEF90930F0280930E020E944DD4CC
:103ED000E9CF8091B6069091B706009731F301972C
:103EE0009093B7068093B606DDCFC091B606D09109
:103EF000B70626960E94C0DD8C179D07B0F2809110
:103F0000B6069091B7060196EBCF1F93CF93DF9340
:103F1000EC01FB011181888199818130904289F403
:103F200080918D0D84FD0BC040E355E760E070E0AB
:103F30008AE298E1DF91CF911F910C94729B0E94CD
:103F400036D4888199818230904279F40E94039A14
:103F5000882339F040E355E760E070E081E198E1C3
:103F6000E9CF0E941D9A8111F5CF88819981833014
:103F7000904231F010937809DF91CF911F9108950D
:103F80000E94039A8111F6CF0E941D9A8111F2CFEF
:103F900040E355E760E070E08AEF97E1CBCFFC01AA
:103FA00001900020E9F79F0121503109281B390BAE
:103FB0002F33310540F4FC01E20FF31F60832E33F1
:103FC000310509F011820895CF93DF93EC0140E4AD
:103FD00050E00E94E3F2CE01DF91CF910895AB0152
:103FE000BC014093890D50938A0D60938B0D7093A3
:103FF0008C0D82EE96E10C94D1D8EF92FF920F9344
:104000001F93CF93DF93CDB7DEB764970FB6F894C5
:10401000DEBF0FBECDBF7C01FB016081718182815B
:1040200093818E010F5F1F4F248141E00E9415EFA5
:10403000F70101900020E9F79F01215031092E1965
:104040003F092E31310550F44FE150E0421B530B34
:10405000BC01C701820F931F0E9432F3C70164960F
:104060000FB6F894DEBF0FBECDBFDF91CF911F9189
:104070000F91FF90EF900895CF93DF93EC01FC0137
:1040800001900020E9F7CF0101978C1B9D0B8F3326
:10409000910540F440E450E0481B590B8C0F9D1FE4
:1040A0000E9432F3CE01DF91CF910895EF92FF92FB
:1040B0000F931F93CF93DF93CDB7DEB764970FB6FF
:1040C000F894DEBF0FBECDBF7C01FB016081718122
:1040D000828193818E010F5F1F4F248141E00E94F6
:1040E00015EFBC01C701C8DF64960FB6F894DEBFB8
:1040F0000FBECDBFDF91CF911F910F91FF90EF9039
:1041000008950C9410C88091600590916105009706
:1041100031F04AE050E070E060E00C94B5F160E00E
:1041200070E0CB0108958091600590916105009742
:1041300031F04AE050E070E060E00C9488F060E01C
:1041400070E0CB010895EFDF97FD0AC0ECDF6F3F11
:1041500071058105910509F02CF4E5DF862F08959E
:1041600080E008958FEF0895CF93C62F60DA8823FB
:1041700011F0CF91E8CF8C2FCF91089580916005F9
:1041800090916105892B39F0DEDF91E0811101C04A
:1041900090E0892F089591E0FCCFCF93DF93C82F53
:1041A000D62F45DA882319F0DF91CF91E7CF8C2FF6
:1041B000F0D9811101C08D2FDF91CF910895B3DF28
:1041C000CB010895CF93DF93EB0131DA882319F007
:1041D000DF91CF91F4CFCE01DF91CF9108950F936E
:1041E0001F93CF938091600590916105009709F12D
:1041F000FC018F01C1912C2F2F7DA1F0C53431F02E
:10420000C53621F0C83511F0C83799F7F80110828A
:1042100070E060E00E9432EFF801C083CF911F91FF
:104220000F91089570E060E0CF911F910F910C9471
:1042300032EF60E070E0CB01F1CFCF92DF92EF92EE
:10424000FF926A017B01F3D9882329F0FF90EF9058
:10425000DF90CF90C4CFC701B601FF90EF90DF9001
:10426000CF9008954F925F926F927F92AF92BF92DC
:10427000CF92DF92EF92FF920F931F93CF93DF9332
:104280008FE0A82E84E0B82E02E31AE0C6E4D7E05F
:104290009DE7C92E99E0D92EF12CF50181915F019E
:1042A000C6D9882321F08091DF09882351F0F801D5
:1042B00080819181A281B38188839983AA83BB8302
:1042C00015C08DDF2B013C018F2D03D9882309F404
:1042D00063C0F8012081318142815381C301B20161
:1042E0000E94B8FA688379838A839B83F3940C5F76
:1042F0001F4F2496F4E0CF0ED11C83E0F812CDCFEF
:1043000085E495D9882309F451C069DF6B017C01EC
:1043100083E0DFD8882371F020913E0A30913F0A74
:104320004091400A5091410AC701B6010E94B8FA73
:104330006B017C01C0925207D0925307E092540760
:10434000F092550740E050E0BA0186E476DF20E0C5
:1043500030E0A9010E94DFFC18167CF440DF20E069
:1043600030E040E752E40E9494FB609313027093A4
:1043700014028093150290931602DF91CF911F9142
:104380000F91FF90EF90DF90CF90BF90AF907F9014
:104390006F905F904F900895F601208131814281A6
:1043A0005381C301B2010E94B7FA9CCF80913E0AAB
:1043B00090913F0AA091400AB091410A8093520720
:1043C00090935307A0935407B0935507BBCF8091A8
:1043D0007709833018F046DF0C94DCB20895EF9231
:1043E000FF920F931F93CF93DF93CDB7DEB72C9738
:1043F0000FB6F894DEBF0FBECDBF7C017F936F93E5
:1044000087EE94E09F938F938E010F5F1F4F1F9352
:104410000F930E94E9FDB801C7012EDE0F900F90A7
:104420000F900F900F900F902C960FB6F894DEBF60
:104430000FBECDBFDF91CF911F910F91FF90EF90F5
:104440000895EF92FF920F931F93CF93DF93CDB711
:10445000DEB7A4970FB6F894DEBF0FBECDBFF82E1F
:104460008093E1098FE18F1508F489C08091E009FC
:10447000F81624F081E08F0D8093E00981E090E050
:104480000F2C02C0880F991F0A94E2F7092E000C26
:10449000AA0BBB0B4091E2095091E3096091E4093A
:1044A0007091E50984239523A623B72321E0892B66
:1044B0008A2B8B2B09F420E02093DF09F7FC62C0E4
:1044C0004FE150E062E575E08E010F5F1F4FC801BC
:1044D0000E94E3F2F80101900020E9F7CF01019773
:1044E000801B910B8E31910560F420E2F801E80FFA
:1044F000F91F20838D31910521F08C0F9D1FFC0148
:1045000012828F2D0F2C000C990B9F93FF9287EE38
:1045100094E09F938F937E01F0E2EF0EF11CFF92E7
:10452000EF920E94E9FDF80101900020E9F7CF0128
:104530000197801B910B0F900F900F900F900F9091
:104540000F908E31910548F44FE150E0481B590B14
:10455000B701800F911F0E9432F340E060E0C80174
:104560000E940399A4960FB6F894DEBF0FBECDBF8C
:10457000DF91CF911F910F91FF90EF9008951092CE
:10458000DF099CCF0E947CCCEDCFCF92DF92EF92DF
:10459000FF92CF936B017C01C42F8091C3148F5F76
:1045A00009F4CEC08093C3148091C31480937D1509
:1045B00020E030E040E752E4609113027091140271
:1045C00080911502909116020E944EF40E9401FC07
:1045D0007093D5146093D4148091110290911202BB
:1045E0009093D7148093D61480911702909118025B
:1045F0009093D9148093D814C092DA14D092DB141B
:10460000E092DC14F092DD1480917C15C0FB80F9FF
:1046100080937C1587E0EFEDF9E0AEEDB4E1019019
:104620000D928A95E1F78CE0E8E2F9E0A5EEB4E1BD
:1046300001900D928A95E1F78CE0EDE7F9E0A1EFAA
:10464000B4E101900D928A95E1F7809178079091FD
:104650007C1580FB94F990937C15882381F08091E0
:10466000740790917507A0917607B09177078093B2
:10467000FD149093FE14A093FF14B0930015809145
:10468000AE0D9091AF0D909302158093011580911E
:10469000F8079091F9079093041580930315809182
:1046A0007F148093051580917C159091AB0990FB48
:1046B00083F980937C158091AC099091AD09A0910C
:1046C000AE09B091AF098093061590930715A0939A
:1046D0000815B09309150E94E796609377157093BB
:1046E00078158093791590937A158091C2148093F0
:1046F0007B159091E60980917C1593FB81F990914F
:104700005A0790FB82F980937C1580E00E94C8E1F3
:1047100040E050E0BA0183E895E10E94D1D84BEB2C
:1047200050E063EC74E183E895E10E94F3D983E8FB
:1047300095E1CF91FF90EF90DF90CF900C94A27E07
:1047400081E030CFAF92BF92CF92DF92EF92FF9293
:104750000F931F93CF935C016B018A01895F9A4F7E
:104760007C01DC01CC91C7FF3DC0FB0111821082AE
:10477000CF5FD701CC93CC300CF053C08CE08A9D36
:10478000F0018B9DF00D1124CF018C0F911DC7FD01
:104790009A952091180E2817190609F00CF441C0BB
:1047A000F60120813181FC01EE0FFF1FE80FF91F98
:1047B000E053F24F81819281820F931FD8011196AD
:1047C0009C938E93808187FF3DC061E08F77CF916E
:1047D0001F910F91FF90EF90DF90CF90BF90AF901F
:1047E0000C94DCD18CE08A9DF0018B9DF00D11249E
:1047F000CF018C0F911DC7FD9A952091180E281797
:10480000190609F00CF4B4CFFC01EE0FFF1FE80FFE
:10481000F91FE053F24F808160E08F770E94DCD176
:10482000A7CFF6018081918104968034FCE99F072F
:1048300010F480E49CE9D80111969C938E938FEF3D
:10484000F7018083CF911F910F91FF90EF90DF9040
:10485000CF90BF90AF900895AF92BF92CF92DF926A
:10486000EF920F931F93CF935B01C42F122F62E837
:1048700000D8C5010E94F7F26C018C2F90E0C81699
:10488000D90630F5C114D10441F1CC19112381F0BE
:10489000011111C010E000E00C151D05F1F0F5014B
:1048A000E00FF11F84910E94E51B0F5F1F4FF4CFB3
:1048B00010E0011107C08C199D09969587951C2F52
:1048C000181BC82FC15038F080E20E94E51BFACFB8
:1048D0006C01C0E0DFCFC12FDDCF10E2E11001C0DD
:1048E00010E0C15020F0812F0E94E51BFACFCF913C
:1048F0001F910F91EF90DF90CF90BF90AF900895F0
:10490000AF92BF92CF92DF92EF920F931F93CF930C
:104910005B01C42F122F62E80E94391CF50101903F
:104920000020E9F731976F01CA18DB088C2F90E05F
:10493000C816D90618F5C114D10429F1CC191123D0
:1049400069F001110EC0CA0CDB1CCA14DB04D9F0DB
:10495000F50181915F010E94E51BF7CF10E0011185
:1049600007C08C199D09969587951C2F181BC82F79
:10497000C15038F080E20E94E51BFACF6C01C0E024
:10498000E2CFC12FE0CF10E2E11001C010E0C15032
:1049900020F0812F0E94E51BFACFCF911F910F913C
:1049A000EF90DF90CF90BF90AF900895EF920F936C
:1049B000CF93DF93EC0182E69EE20E94E39A209778
:1049C00049F0EE24E39401E021E040E2BE0180E200
:1049D00091E196DF82E69EE2009781F0EE24E39477
:1049E00001E021E040E2BC0180E491E135DF21E01B
:1049F00040E262E67EE280E691E12EDF60E083E065
:104A00000E9425C880913F07893F11F080933402AE
:104A100081E08093790989EF80937809DF91CF91C4
:104A20000F91EF900895FF920F931F93CF93DF9311
:104A3000F62E072F142F62E80E94391CCF2DD02F9D
:104A4000115020F089910E94E51BFACFDF91CF91A0
:104A50001F910F91FF90089528E034E1F9014591ED
:104A600054914115510571F04817590741F4CB0194
:104A70004AE050E0B9010E94BDF281E00895265F4E
:104A80003F4F61F780E00895CF93DF931F921F920D
:104A9000CDB7DEB7853608F084E6682F70E090E089
:104AA00080E00E94EFF320E030E04FE753E40E9403
:104AB0004EF420E030E048EC52E40E9494FB20E009
:104AC00030E0A9010E94B8FA0E94EBFC6093E40375
:104AD0001A821982698342E0BE016F5F7F4F81EACB
:104AE00090E0A1DF0F900F90DF91CF910895FB012F
:104AF0008181CADF0C94639BCF93DF931F921F9237
:104B0000CDB7DEB7853608F084E680931F02682FA4
:104B100070E090E080E00E94EDF320E030E04EEBAA
:104B200052E40E944EF420E030E048EC52E40E944F
:104B300094FB20E030E040EA50E40E94B8FA0E9482
:104B4000EBFC69836A8342E0BE016F5F7F4F82E8BE
:104B500090E069DF0F900F90DF91CF910895FB01F6
:104B60008181CADF0C94639B6091E40370E090E064
:104B700080E00E94EDF320E030E048EC52E40E9437
:104B80004EF420E030E04FE753E40E9494FB20E035
:104B900030E0A9010E94B8FA0E94EBFC862F08952C
:104BA00080913C07882321F080913B07811109C047
:104BB00041E063E88FE090E00E94391C81E00C94B2
:104BC000E51B08951092D0008091D0008260809300
:104BD000D0001092D50080E18093D4008091D10064
:104BE00080618093D1008091D10088608093D10052
:104BF0008091D10080688093D1008091D1008F7D19
:104C00008093D10010925C06CBDF80913D07882312
:104C100021F081E080934007089561E080E00C94EA
:104C2000F49ACF93DF93C091F807D091F9072097BA
:104C300029F16091F4077091F5078091F607909142
:104C4000F7070E94FCFB6E5F7F4F24976C177D0770
:104C5000ACF47093E0076093DF070E9402D3605AC0
:104C600075418F4F9F4F6093E1077093E2078093E8
:104C7000E3079093E407DF91CF9108951092E10745
:104C80001092E2071092E3071092E407F4CF2F92FC
:104C90003F924F925F926F927F928F929F92AF92CC
:104CA000BF92CF92DF92EF92FF920F931F93CF9319
:104CB000DF93D62FC72FFC0180809180A280B38024
:104CC000C501B40120E831E541E050E00E9413FA4B
:104CD000C9016DE671E00E9476FA6B017C01C501A5
:104CE000B40120E13EE040E050E00E9413FACA0126
:104CF000B90128E130E040E050E00E9413FA362E7E
:104D0000272E062F172F8CE3482E512C612C712C47
:104D1000C501B401A30192010E9413FAB62EA72E79
:104D2000CA01B901A30192010E9413FACB01C11477
:104D3000D10479F1AF92BF927F936F932F923F92FC
:104D4000FF92EF92DF92CF9282E191E19F938F9356
:104D5000CF93DF930E9482F38DB79EB70E960FB666
:104D6000F8949EBF0FBE8DBF8D2F9C2FDF91CF91EA
:104D70001F910F91FF90EF90DF90CF90BF90AF9079
:104D80009F908F907F906F905F904F903F902F906B
:104D90000895E114F104C9F0AF92BF927F936F932D
:104DA0002F923F92FF92EF9282E091E19F938F9337
:104DB000CF93DF930E9482F3EDB7FEB73C960FB618
:104DC000F894FEBF0FBEEDBFCFCF012BB9F0AF926D
:104DD000BF927F936F932F923F9286EF90E19F93C4
:104DE0008F93CF93DF930E9482F38DB79EB70A967D
:104DF0000FB6F8949EBF0FBE8DBFB6CF892BA9F01A
:104E0000AF92BF927F936F938EEE90E19F938F93BB
:104E1000CF93DF930E9482F3EDB7FEB738960FB6BB
:104E2000F894FEBF0FBEEDBF9FCFAF92BF928AEE48
:104E300090E19F938F93CF93DF930E9482F30F9023
:104E40000F900F900F900F900F908ECF8F929F9298
:104E5000AF92BF92CF92DF92EF92FF920F931F9388
:104E6000CF93DF9310928505109284052FE3209352
:104E70008905109288051092870510928605109278
:104E800058061092590610925A0610925B069C0121
:104E9000F90190812F5F3F4F9032D1F39E34C9F4D6
:104EA000818190ED980F9A3020F08D3211F08B3285
:104EB00081F432969F012F5F3F4F808180538A306B
:104EC00008F44CC09F012F5F3F4F8081803209F46E
:104ED00047C0F0939409E09393098F010F5F1F4F30
:104EE000C0816AE270E0C8010E94BEFD009731F007
:104EF000FC01319780818032E1F31182CD3421F0C1
:104F0000C43511F0C734E9F4D8018C910F5F1F4FFD
:104F10008032D1F380538A30A0F4C093890530E009
:104F200020E06AE0FD0131968C9180532A3999E1A5
:104F30003907D0F030938805209387058FE380935D
:104F40008905DF91CF911F910F91FF90EF90DF9036
:104F5000CF90BF90AF909F908F900895F901AACF06
:104F6000F901B0CFDF01DECF293999E1390711F41A
:104F7000863000F7629FA001639F500D11249A01B3
:104F8000280F311D808190ED980F9A3058F330939F
:104F90008805209387058E3261F4129690E04AE0EE
:104FA000FD011196808150ED580F5A30C0F090935A
:104FB0008605DF0131968C918032D9F3CD34F9F436
:104FC0002E31310539F088F42731310519F02C31B3
:104FD0003105A9F4B0938505A0938405B2CF949FC1
:104FE000800D112490ED980FDBCF2537310538F077
:104FF0002737310578F3203AE3E03E0759F3D091A3
:10500000930940E050E0BA0110E000E0C12CD12C3F
:105010007601C394FD0131968C91882309F47FC0F9
:105020008132E1F4CD34D1F420323105B9F440932A
:1050300058065093590660935A0670935B06F09396
:105040008505E093840563E270E0CF010E94BEFD18
:10505000009709F476CFFC01108273CF81548A3116
:1050600008F058C0DF019D91903291F0A0EDA90F9A
:10507000AA30E8F09E3271F4918190539A30B8F0E2
:105080000115110519F48F010150110990E013C0A9
:10509000FD01E8CF9D3211F09B3291F79181A0ED97
:1050A000A90FAA3020F09E3259F79281E6CF9E2FA9
:1050B0009D1B309759F3A82FB0E04601570104C05B
:1050C000880C991CAA1CBB1C8A95D2F7482959291F
:1050D0006A297B29A659BA4F9C9380818154DF01AC
:1050E0008A3108F497CFDF018191882309F492CFA8
:1050F00090ED980F9A30B8F393ED980F923098F3A3
:105100008B3289F3CD010196EC91E03209F082CF28
:10511000DC01F8CF0115110501F78D01DECF1093E9
:105120008505009384054093580650935906609373
:105130005A0670935B0605CFCF93DF93EC018991FC
:10514000882319F00E9410C8FACF8DE00E9410C881
:105150008AE0DF91CF910C9410C80C94F7C890911D
:105160007C09992321F0682F80E00E940B9580E054
:105170000895682F70E090E080E00C945FC91F9361
:10518000CF93DF931BEBC3ECD4E1FE01812F11928F
:105190008A95E9F70E9422D4882359F0FE011192E2
:1051A0001A95E9F784EB94E0DF91CF911F910C946D
:1051B000EDE1DF91CF911F9108958091C314882371
:1051C00061F090917D15891308C080918D0D84FF49
:1051D00004C08AE095E10C94DADF80E00895FC01D8
:1051E000238121110C94A27E0895CF93DF93C09167
:1051F000AE0DD091AF0D209729F16091AA0D70915D
:10520000AB0D8091AC0D9091AD0D0E94FCFB6E5FDB
:105210007F4F24976C177D07ACF47093050860935B
:1052200004080E9402D3605C73468F4F9F4F6093C7
:105230000608709307088093080890930908DF9187
:10524000CF9108951092060810920708109208084E
:1052500010920908F4CFCF93DF93EC018991882352
:1052600019F00E9410C8FACFDF91CF910895682FEE
:1052700070E090E080E00C94F7C8CF93C1E020E0AC
:1052800030E0A90160916307709164078091650720
:10529000909166070E94E9F3811101C0C0E08C2F54
:1052A000CF910895CF93C82F882319F0E6DF882384
:1052B000C9F08091AB098C17A9F00E94258582E383
:1052C0009AE00E9422878091AB0991E08927809320
:1052D000AB09882321F082E39AE00E940284CF91F7
:1052E0000C942593CF9108950E94519B811102C087
:1052F0000C94511C80E0D6DF0E94639B81E0809378
:10530000400708954F925F926F927F928F929F9283
:10531000AF92BF92CF92DF92EF92FF920F931F93C3
:10532000CF93DF93EC0120915B0730915C074091B4
:105330005D0750915E07688179818A819B810E9417
:10534000B7FA6B017C0120915F07309160074091B3
:105350006107509162076C817D818E819F810E94DF
:10536000B7FA4B015C01A701960160914805709165
:10537000490580914A0590914B050E94E9F38823E5
:1053800009F45AC0C0924805D0924905E0924A05F6
:10539000F0924B0520914005309141054091420526
:1053A00050914305C701B6010E944EF42B013C0108
:1053B0000E942DFC6B017C0120E030E0A9010E94DD
:1053C000E9F387FD7AC020E030E040E850E4C7010F
:1053D000B6010E94DFFC181634F4C12CD12CC0E8B1
:1053E000EC2EC0E4FC2EA7019601C301B2010E947D
:1053F000B7FA2B013C0120E030E0A9010E94E9F35B
:1054000087FD5FC0409238055092390560923A0599
:1054100070923B05C701B6010E94FCFB6093360504
:10542000062E000C770B6F5F7F4F6430710514F010
:1054300064E070E060933405D09132051091360538
:10544000A501940160914C0570914D0580914E0528
:1054500090914F050E94E9F381113CC0D11394C093
:1054600020911A0530911B0540911C0550911D0596
:10547000609138057091390580913A0590913B050E
:105480000E944EF420911E0530911F054091200589
:10549000509121050E94B8FADF91CF911F910F9191
:1054A000FF90EF90DF90CF90BF90AF909F908F9044
:1054B0007F906F905F904F900895C12CD12C760112
:1054C00092CF109238051092390510923A05109239
:1054D0003B05A0CF80924C0590924D05A0924E05C1
:1054E000B0924F0520914405309145054091460505
:1054F00050914705C501B4010E944EF44B015C0177
:105500000E942DFC6B017C0120E030E0A9010E948B
:10551000E9F387FDFDC020E030E040E850E4C7013A
:10552000B6010E94DFFC181634F4C12CD12CB0E86F
:10553000EB2EB0E4FB2EA7019601C501B4010E9439
:10554000B7FA4B015C0120E030E0A9010E94E9F3C9
:1055500087FDE2C080923C0590923D05A0923E05F9
:10556000B0923F05C701B6010E94FCFB609337056E
:10557000062E000C770B6F5F7F4F6430710514F0BF
:1055800064E070E060933505C0913705D11305C024
:10559000809133058C1709F470C080913605909185
:1055A000370590933305809332050C2E000CDD0BEC
:1055B00025E01203C0011124FC01EC0FFD1FEE0FCA
:1055C000FF1FEE0FFF1FE758F84F20813181428106
:1055D000538120932E0530932F054093300550932F
:1055E000310500913505002E000C110BFC01E00F78
:1055F000F11FEE0FFF1FEE0FFF1FE758F84F6081FE
:105600007181828193810E94B7FA60932A05709319
:105610002B0580932C0590932D052091340535E0C2
:105620002303F0011124CE0FDF1FCC0FDD1FCC0FA1
:10563000DD1FC758D84F288139814A815B8120936B
:105640002605309327054093280550932905E00F40
:10565000F11FEE0FFF1FEE0FFF1FE758F84F60819D
:105660007181828193810E94B7FA609322057093C1
:105670002305809324059093250580903C05909008
:105680003D05A0903E05B0903F0520912A05309140
:105690002B0540912C0550912D05C501B4010E94A8
:1056A0004EF420912E0530912F05409130055091F8
:1056B00031050E94B8FA6B017C01C0921E05D092A0
:1056C0001F05E0922005F0922105209122053091DE
:1056D00023054091240550912505C501B4010E9480
:1056E0004EF42091260530912705409128055091D0
:1056F00029050E94B8FAA70196010E94B7FA6093A3
:105700001A0570931B0580931C0590931D05A8CE68
:10571000C12CD12C76010FCF10923C0510923D0583
:1057200010923E0510923F051DCFE8E4F5E080EFB2
:105730009FEFA9E7B4EC84839583A683B783808326
:105740009183A283B383E2E3F5E08DE981838083D3
:1057500008958F929F92AF92BF92CF92DF92EF9275
:10576000FF92FC0198E0A3E6B7E001900D929A95B4
:10577000E1F788E0FB01ABE5B7E001900D928A9577
:10578000E1F7C0906307D0906407E0906507F09060
:10579000660720E030E0A901C701B6010E94E9F3E5
:1057A0008823E1F1A701960160E070E080E89FE3C3
:1057B0000E9494FB6B017C018090670790906807C2
:1057C000A0906907B0906A0720E030E0A901C50108
:1057D000B4010E94E9F3882329F1A501940160E056
:1057E00070E080E89FE30E9494FBC0924005D09255
:1057F0004105E0924205F0924305609344057093A1
:1058000045058093460590934705FF90EF90DF9004
:10581000CF90BF90AF909F908F900895C12CD12CC6
:105820007601CACF60E070E0CB01DFCF8F929F920C
:10583000AF92BF92EF92FF920F931F93CF93DF939C
:1058400010925F0710926007109261071092620732
:1058500010925B0710925C0710925D0710925E0732
:1058600010926707109268071092690710926A07F2
:1058700010926307109264071092650710926607F2
:1058800009E717E0C0E0812C912C80ECA82E8FE76F
:10589000B82E7801D0E0F70181929192A192B19255
:1058A0007F016D2F8C2F0E94C4A2DF5FD53099F746
:1058B000CF5F0C5E1F4FC53061F7DF91CF911F9115
:1058C0000F91FF90EF90BF90AF909F908F900895B1
:1058D000EFE6F0E0808182608083089580918D09F9
:1058E00090918E09892B79F480918D0990918E0980
:1058F000892B49F420918D0930918E0981E0232B69
:1059000019F480E0089581E00895CF93DF93EC01CE
:10591000FE0184912196882319F00E948120F8CFFE
:10592000DF91CF910895CF93DF93EB01EEDFCE01AE
:10593000DF91CF9190CCCF92DF92EF92FF926A01EC
:105940007B01E3DF42E0C701B601FF90EF90DF90FB
:10595000CF900C948BC982E395E0D7CF8CE295E091
:10596000D4CF8AE00C948120CF93DF936EEB70E16B
:105970000E94D2CBC091280ED091290E4881598126
:105980006A817B8185EB90E1D6DF4C815D816E8100
:105990007F818EEA9FE2CFDF4091240E5091250E49
:1059A0006091260E7091270E8BEA9FE2C4DF82EB96
:1059B00090E1ABDF8BED9EE1A8DFDF91CF91D1CFFE
:1059C0000F931F93CF938C01C62F82E790E19DDF49
:1059D000C8019BDF8AE30E9410C880E38C0F0E94FD
:1059E0008120CF911F910F91BCCFCF92DF92EF9288
:1059F000FF926A017B0189DFC701B6010E945FC97E
:105A0000FF90EF90DF90CF90ACCF0F931F93CF9389
:105A1000883038F5082F082E000C110BC0917E1528
:105A200091E001C0990F8A95EAF790937E150E9444
:105A30007CC987E6809FF001819FF00D1124E65715
:105A4000FA4F40815181628173814F5F5F4F6F4F89
:105A50007F4F81EE90E1C9DF8DED90E156DFC0937D
:105A60007E15CF911F910F910895EF92FF920F93A2
:105A70001F93CF93DF937C01C62F062F062E000CB9
:105A8000110B80E0683028F481E001C0880F6A952E
:105A9000EAF7D0917E1580937E155DDF87E6809FC3
:105AA000F001819FF00D1124E657FA4F408151819A
:105AB00062817381C70199DF8C2F0E94EA190196D8
:105AC000D9F78C2FA2DF87E6809FF001819FF00D30
:105AD0001124E657FA4F15821482D0937E15DF9178
